:400000000080002011000000E90B0000E90B000008B5044B1A6803F53F5302331A6000F0EBFD00BFFA46004010B5054C237833B9044B13B10448AFF300800123237010BDA7
:400040004881FF1F00000000381D0000084B10B51BB108490848AFF300800848036803B910BD074B002BFBD0BDE81040184700BF000000004C81FF1F381D0000C880FF1F58
:4000800000000000704700BF044B1888431E9BB2B3F5007F01D34FF4007070476481FF1F054B5A8892B29B889BB29A4201D2012070470020704700BF6481FF1F044B00224E
:4000C000DA801A725A809A805A72DA601A8270476481FF1F024B00229A74DA74704700BF6481FF1F024B00229A74DA74704700BF6481FF1F411A002901DB012070470020EA
:40010000704700BF70B501F083FBFFF7BBFF2F4B58611B7EDBB2022B57D12C4B5B7A13F0FF0F52D1FFF7B0FF284B9B889BB298424BD9264BDB889BB21D2B46D8234AD38802
:400140009BB203EB43039BB2527E12F0FF0F06D01E4AD068411CD16020F07F4001E01B4A50691A498A8892B2C4B25A2505FB02121A4414778C88A4B25A1CC0F3072605FB94
:400180000414144426778A8892B20233C0F3074005FB021213441877CB889BB201339BB2CB80CB889BB21D2B0FD90C460023CB808B889BB201339BB28B80FFF765FFA38846
:4001C0009BB2984201D80122627270BD6481FF1F08B500F00FFE124BD3F86C2A0132C3F86C2A93F8703A13F0FF0F0ED00D4A937C0133DBB29374937C13F0FF0F08D0134639
:4002000000229A740122DA7402E00022054B9A7400F0E2FD044800F0F3FD00F025FE08BD142B00206481FF1F80A9030008B500F0D3FD034800F0E4FD00F016FE08BD00BF39
:4002400080A9030010B501F0DBFA01F02DFD0446FFF734FF0122034B1A76204601F028FD10BD00BF6481FF1F10B501F01DFD034BD3F86C4A01F01CFD204610BD142B0020F2
:4002800008B500F0A9FD00F0B5FD00F097FD08BD38B5044601F0B4FAFFF7F2FF01F004FD05460CB1012300E00023064C6376FFF705FF02232376284601F0FAFC01F098FA67
:4002C00038BD00BF6481FF1F08B501F0E1FB48B10D4B1B7EDBB2012B14D10B4B587EFFF7D7FF08BD01F08CFAFFF7A0FF01F0DCFC054B0022DA801A725A809A805A721A76FB
:4003000001F0D6FC08BD00BF6481FF1F08B50020FFF7BEFF08BD00BF082806D808B5034B83F8710A00F0B2FF08BD7047142B0020082805D808B5034B187001F013FC08BD6F
:40034000704700BFCC80FF1F08B500F09BFD08BD70B598B0AB238DF800301E238DF801301D4B1D8A8DF802502B0A8DF80330002201AE14E002EB42039BB25A21164C01FBBC
:400380000041CC18247F34705C1C0C44247F747002330B441B7FB370013292B203361D2AE8D90022134606E018A9194411F8601C4A4001339BB25D2BF6D98DF85E200135EA
:4003C000054B1D825F21684600F0A6FE3222034BC3F8742A18B070BD6481FF1F142B002000B583B0AB238DF80030C2238DF801308DF802008DF80310414059408DF8041022
:400400000521684600F088FE03B05DF804FB00BF08B50421014800F07FFE08BD3C1D000008B5064B1B7EDBB2022B06D000F036FD80F00100C0B200F025FD08BD6481FF1FDF
:4004400010B5E9E000F0CCFD0446764B93F8703ADBB2052B00F2DC80DFE803F0030D3A58464FAB2840F0D88001226E4B83F8702AFFF730FED0E0FFF72DFEA4F1A3031E2B34
:400480001FD8DFE803F0171E10101E1E10101E1E1E1E1E1E101E10101E1E1E1E1E1E1E1E1E1E1E1E10005F4B83F8784A022283F8702AB1E05B4B83F8784A042283F8702A91
:4004C000AAE0FFF70FFE0022564B83F8702AA3E0544B83F8790A002283F87A2A032283F8702AFFF7F7FD97E04E4B83F8790A052283F8702AFFF7EEFD8EE04A4B83F87A0AE5
:40050000032283F8702AFFF7E5FD85E0FFF7EAFD4449002381F8703A91F8782A91F8793A91F87A1A53404B409C4275D13D4B012283F87B2A3222C3F8742A93F8783AA33B3B
:40054000112B69D8DFE803F03368090C686819266868686868683D684742FFF759FF5BE0304B93F8790AFFF7E3FE2F4B1978A620FFF736FFFFF754FF4EE02A4C94F8790A06
:40058000FFF7CAFE94F8711AA920FFF729FFFFF747FF41E0234C94F8790A00F0F7FE94F8791AAA20FFF71CFFFFF73AFF34E01D4A92F8793A92F87A2A43EA02231B4A138066
:4005C0002AE0FFF73FFEFFF72BFF25E0FFF79EFEFFF726FF20E0134B93F8793A13F0FF0F14BF01220022114B5A765B7E13F0FF0F03D00120FFF74CFE0EE001F001F9FFF70E
:4006000015FE0A4B0022DA801A725A721A7603E00022044B83F8702A00F014FD00287FF411AF10BD142B0020CC80FF1F6481FF1F10B5174B1B7EDBB2022B0CD1144B5B7A05
:4006400013F0FF0F22D001F0DBF8FFF7EFFD104B00225A721A76FFF723FD50B10C4C608880B2FFF775FE63889BB201339BB2638010BD074BDB7C13F0FF0F05D00023044A9D
:40068000D374044A82F8703AFFF7DAFE10BD00BF6481FF1F142B002070B5FFF7E5FD05460120FFF751FE2E461AE0FFF7C1FFFFF7DBFD04462946FFF71DFD38B1FFF7A8FED7
:4006C00004F146050120FFF73FFE2646A41B3B2C03D90020FFF738FE02E00120FFF734FE024B93F87B3A002BDFD070BD142B002010B50446FFF7B8FD044401E0FFF798FF1E
:40070000FFF7B2FD2146FFF7F5FC0028F6D010BD08B51E4B1B7EDBB2022B03D11C4BC3F87C0A08BD1A4BD3F87C3A1BB9184BC3F87C0A08BDC31A28D0154AC2F87C0AD2F8F0
:40074000742A934204D2D21A1149C1F8742A03E000210F4AC2F8741A0D4AD2F8742A6AB10B49D1F8802A1344C1F8803A042B0CD90022C1F8802AFFF753FE08BD0120FFF7C7
:40078000E3FD0022024BC3F8802A08BD6481FF1F142B002010B562B600F014FC01F052FA01F0B2F900F0AAFB00F0C6FD344B93F8710A00F06BFD01F02BFA324B187801F06F
:4007C000D1F900F01BFE942000F0E0FD00F0FCFF01F016F82C4800F0BBFA2C4800F0E0FA2B4801F077F900F0F7FA2A4800F008FB00F03AFBFFF750FF00240DE00020FFF7B9
:40080000A3FD0820FFF774FF0120FFF79DFD0820FFF76EFF0134E4B2042CEFD9FFF708FF1D4B1B7EDBB2022BF8D0FFF71DFD0446194B1B7E13F0FF0F1AD1FFF731FCB8B921
:400840000F4BD3F8843A23B904F164030C4AC2F8843A0B4BD3F8841A2046FFF74BFC58B104F16403064AC2F8843AFFF7D1FD03E00022034BC3F8842A2046FFF749FFCDE728
:40088000142B0020CC80FF1F05010000D1010000C902000080A903006481FF1FFEE700BFF0B40022174611E050F82760F3B226F0FF0608E001EB420511F812406D78A55501
:4008C0000132013BDBB2002BF4D101371B2FEBD9F0BC704710B4214B1B78DBB203F007011F4A11701B090132137002221D4B1A70A3F5A4531A3B1A7008231B490B70102195
:400900001A48017005201A4C20700234207019480270083003708024183004700430037001230430037058300270134A11700232137020213132117001321370363213705E
:4009400040F201120D4B1A80902214331A704422A3F2E2231A7010BC704700BFCF0100496E580040415800403D510040FD51004078580040005A0040985A0040445B0040E2
:4009800008B50A46002101F0CEF908BD08B501F0BFF908BD38B500242D4B1C80502202331A70192502331D80182202331A70042228492948FFF7EAFF2622284B1A700322B1
:4009C000A3F580731A70264B1B78DBB2254A13700822254B1A8041F25122023B1A800CE0224B1B7803F0010343EA440404F003044FF4F07001F050F9013D0DB1032CEFD193
:400A000015B90320FFF74AFF194B4FF480721A8007221A70002217490A704820023108701A700222033B1A7004220A331A70124A137843F003031370013A137843F001038E
:400A40001370013A137843F08003137038BD00BF8040004020060048004100400043004008010049A146004022420040254200400440004006400040A2430040012807D8D3
:400A8000044B53F820201844017A13780B431370704700BF401D0000012808D8044B53F820201844017A137823EA010313707047401D000038B572B6354A137843F0040310
:400AC000137000240BE0334863001A19510001440A46098AD068FFF753FF0134E4B2052CF1D92D494FF09040FFF7DAFE0A252B4B1D7040F20312393B1A80294A137843F089
:400B0000020313701032137843F002031370254C237843F040032370A2F58632513A137843F01003137008221F492048FFF72EFF08221F491F48FFF729FF08221E491F4836
:400B4000FFF724FF2A461E491E48FFF71FFF08221D491E48FFF71AFF08221D491D48FFF715FF1D4A137843F0080313701B4D61232B70FFF70FFF81232B700122184B1A707A
:400B8000FFF7A8FE0E2221461648FFF7FFFE38BDE8460040401D0000700000488358004003500140A0430040EC05004802510040F4050048C2510040FC050048F25100403B
:400BC000040600481051004010060048225100401806004832510040224300400048004004000840B043004008B501F065F803680C2B00D1FEE7FEE708B5104E104D16E066
:400C000029686B68AC68002204E051F8040B43F8040B0432A242F8D1E868002203E0002143F8041B04328242F9D11035013E002EE6D101F047F8FFF7ADFDFEE701000000FE
:400C4000C41D000008B5104A104B1A60104A136843F40073136000230AE0032B03D80D4A52F8231000E00C490C4A42F8231001332F2BF2D90A4B1A780A4B1A70074A0A4B0E
:400C80001A60FFF717FF08BD0004FA050CED00E014ED00E000000000E90B00000080FF1FBC760040C080FF1F08ED00E001BE704708B5034B1B7A00FB03F000F0EDFF08BD50
:400CC000D080FF1F70B504460E46074B1D681F2802D90020FFF7EAFF04F01F04103455F8240045F8246070BD08ED00E038B504460D46072902D90020FFF7D8FF1F2C02D994
:400D00000020FFF7D3FF04F01F0000F1604000F564406D01EDB2057038BD00BF014B1B689864704708ED00E04001C0B2014B1870704700BF02E400E00422014B1A6070479B
:400D400000E100E00422014B1A60704780E100E010B50446FFF7F6FF2046FFF7DFFF0720FFF7E2FFFFF7E8FF10BD00BF014B1B681865704708ED00E04001C0B2014B1870D4
:400D8000704700BF04E400E01022014B1A60704700E100E01022014B1A60704780E100E010B50446FFF7F6FF2046FFF7DFFF0720FFF7E2FFFFF7E8FF10BD00BF1022014B7C
:400DC0001A60704780E200E0024A137843F080031370704774650040024A137803F07F031370704774650040014B1870704700BF87650040014B1878704700BF676500402D
:400E0000014B1860704700BF24650040014B1868704700BF44650040014B1860704700BF0465004008B501E0FFF7F0FFFFF7E2FF10F0080FF8D108BD08B5FF20FFF7E0FFF1
:400E4000FF20FFF7E9FF00F02FFF064A137843F01003137000F02CFFFFF7E4FF0020FFF7C3FF08BD9765004008B5054B1B7823B9FFF7E2FF0122024B1A70FFF7A5FF08BD3A
:400E80009C350020044A137803F0FD03400000F0020018431070704720510040024B1878C0F34000704700BF21510040084A137843F060031370A2F5A652133A137843F078
:400EC000040313701032137843F004031370704777580040054B1A7802F0FC021A701A7800F0030010431870704700BF5C58004008B50320FFF7EEFF08BD00BF08B5054B9E
:400F00001B7823B90122034B1A70FFF7F1FFFFF7CDFF08BD9D35002008B511490020FFF7D1FE07210020FFF7E1FE00220D4B1A7072220D4B1A702022013B1A700B490120D8
:400F4000FFF7C0FE07210120FFF7D0FE0622084B1A70472210331A7002224F331A7008BD411100009E35002089650040D91100002964004010B500F097FE04460D4A1378E0
:400F800043F020031370013A137843F010031370094A0123136009490B7843F010030B70022307490B60136000F042F9204600F07FFE10BD9965004000E100E098640040F0
:400FC00080E200E008B5054B5B7823B9FFF7A4FF0122024B5A70FFF7CDFF08BD9E3500200122134B1A60134A9378DBB2D178C9B2127912F0FF0F01D18B4211D00E4AD05C53
:40100000C0B20133DBB21F2B00D90023094A9370137913F0FF0F06D00022064B1A7102E0064B1878C0B20122054B1A60704700BF80E100E09E350020BC35002048650040A6
:4010400000E100E00122144B1A60144B9A78D2B2DB78DBB29A4206D1104B1B7913F0FF0F15D0202014E00D4B9A78D2B2DB78DBB29A4205D2094AD3789078181AC0B207E060
:40108000064AD3789078181A2030C0B200E000200122034B1A60704780E100E09E35002000E100E0174BD9799B79DBB2994205D25A1E914214BF0022012204E0CA1A7F2A27
:4010C00014BF00220122002AECD1994207D10E4B1B7813F0040F02D10C4B1870704711F0800F00D000210A4B58540131054BD971054B1B7813F0020F02D00222054B1A60CE
:40110000704700BF9E3500206864004048640040DC35002000E200E0084B5B7833B97047305DFFF7BFFF0134E4B203E070B50D4606460024AC42F3D370BD00BF9E35002028
:401140001D4B1B78DBB213F01E0F05D01B4803F01E0201780A43027003F0200303F0FF0233B3174B1978C9B2164B1B78DBB21648C154164B1B7813F0FF0F02D00121144B8A
:40118000197010490B780133DBB20B700B78DBB21F2B02D900210B4B19700A4B1978C9B20C4B1B78DBB2994202D10121074B1970002AC5D1704700BF686500409E350020A0
:4011C00048650040A1350020BC350020A2350020A3350020A035002013E0104B1B7813F0800F02D000220D4B1A700C4A1378DBB20B49CB5CDBB20B490B7013780133DBB23D
:401200001370064B1B78DBB2074A1278934204D0064B1B7813F0040FDFD07047A4350020DC35002048640040A535002068640040054A137843F0020313701032137843F025
:4012400002031370704700BFA2430040084A137843F0010313701032137843F00103137002F5A5521E32137843F0800313707047A9430040044A137803F0FC0300F003008A
:4012800018431070704700BF0158004010B487B00446194B03AA1868596803C2197A11706A4653F80C0F596803C21B7A1370082C1ED812490B7803F08003DBB20B7008781A
:4012C00006AB1C4414F80C3C14F8182C920002F00C02134303430B70094A137803F0F3031370117814F8183C0B4343F00C03137007B010BC704700BF701D0000025800402A
:401300000158004008B50C22084B1A70084A137843F0200313708022064B1A700020FFF7B5FF0320FFF7A6FF08BD00BF00580040015800400258004008B5054B1B7823B9C6
:40134000FFF7E0FF0122024B1A70FFF77FFF08BDA7350020054A137843F0010313701032137843F001031370704700BFA8430040054B1A7802F0FD021A701A7800F00200CC
:4013800010431870704700BF20580040014B1870704700BF805B0040064B1B78C3F3810303F19243063393F82031DBB2024A1370704700BF205800400846004008B5064B9D
:4013C0001A7802F0F3021A701A7800F00C0010431870FFF7E1FF08BD2058004010B50024054B1C7001331C700420FFF7E7FF2046FFF7BEFF10BD00BF2058004008B5074B3D
:401400001B7823B9FFF7EAFF0122044B1A70FFF7A1FFFF20FFF7BAFF08BD00BFA835002010B59DF80840012C51D1013809282ED8DFE800F0052D2D052D2D0F192D230F2BF5
:4014400003D92548007840B222E02448007840B21EE00F2B03D92248007840B218E02148007840B214E00F2B03D91F48007840B20EE01E48007840B20AE00F2B03D91C4831
:40148000007840B204E01B48007840B200E0002001EB401101FB02F1C90B8AB20D2B0BD8C3F10E0289B211418AB2611E124800EB810101338B7005E0631E0F4901EB830388
:4014C0000F219970013C0C4B23F8242010BD0020FFF7ECFB10BD00BF180100491C010049190100491D0100491A0100491E0100491B0100491F010049AC350020F8B5074643
:4015000000F0D2FB06460D4D2B7843F003032B700B4C237843F0030323700A4B1F700320FFF7C6FB2B7803F0FC032B70237803F0FC032370304600F0BBFBF8BDF8460040B6
:40154000F9460040925800400022324B1A7101285FD170B57822304B1A70042202331A70082201331A700F2201331A70002401331C703F2201331A7002331C7001331C703B
:4015800001331C7001250A331D70502203F527631A70272201331A702C2201331A7001331C70552203331A705A2201331A70052201331A70022602331E70122201331A70F7
:4015C000282201331A70EB2201331A705220FFF795FF5822114B1A7001331C7005331E7001331E7001331C7001331C70204600F047FB0B4A0B4B1A602946284600F058F919
:401600002946072000F0D8F907491D20FFF75AFB70BD7047AC350020004E004094580040333303005C3600207D180000F0B583B0284D01272F70284E00247471102000F079
:4016400025F9102000F0A6F907211D20FFF74EFB0422224B1A7001331C7007331C70204A137843F0180313701E4B1C7003F2F5231C7001331C700A22A3F209331A70013377
:401680001C7002331C705B2205331A705E2201331A7004331C701422A3F68C231A70009712234FF4004249F2DA012046FFF7B8FE2B78013B06EB83039A780B4B1A702B7831
:4016C000013B36F82320094B1A802878FFF73CFF03B0F0BDE080FF1FAC35002096580040075B0040935800400E4E00400C4E004070B500F0D9FA06462A4B1B782A4B1A782B
:4017000042F001021A701A7842F010021A7010331A7842F001021A701A7842F010021A70224D2B7843F002032B70214C237843F0020323701F4A137843F00303137003200B
:40174000FFF7B6FA2B7803F0FD032B70237803F0FD032370184A137843F0060313707A22164B1A70164A137843F0010313701032137843F0010313700F3A137843F0010307
:4017800013701032137843F0010313704FF000530C4A1360A2F5C0721360304600F088FA70BD00BFE080FF1FAA430040F8460040F9460040915800407758004082580040BA
:4017C000A143004080E200E008B5084B9B794BB9064BDB7913F0FF0F01D1FFF727FF0122024B9A71FFF784FF08BD00BFAC350020024A137843F0010313707047004E004068
:40180000024A137803F0FE0313707047004E0040154B1B7803F00303012B07D8134B1888023B1B889BB243EA004013E0022B0AD10E4B1888023B1B7843EA00430C4A107874
:4018400043EA002006E00B4B188883B2074A108843EA0040084B1B7913F0FF0F02D00022054B5A71704700BF144E0040124E0040114E0040104E0040AC350020704700BF41
:40188000014B188880B2704780400040034B1A7800F0F80010431870704700BF82400040024B187800F00700704700BF8240004070B505460E46FFF7F3FF0446FFF7E0FF21
:4018C000A84256D02B4B1B7803F0010294B900B185B938B9284B1D80284A137803F0BF03137070BD254A137843F040031370224B1D8070BD22B3002321490B7001240F31CE
:401900000C7004310B700C390B7803F07F030B701A4B1B7813F0080F00D08DB9194B18800721013B1970164B1B7813F0010FFAD110490B7803F0FE030B700021104B197090
:401940000C4B1B7813F0010F0DD00E4B1D800EB1032200E001220A4B1A70094B1B7813F0010FFAD170BD044B1D8002490B7813430B7070BDA2430040804000408240004000
:401980000140004002400040014B188880B2704700410040034B1A7800F0F80010431870704700BF02410040024B187800F00700704700BF0241004070B505460E46FFF7AB
:4019C000F3FF0446FFF7E0FFA84256D02B4B1B7803F0010294B900B185B938B9284B1D80284A137803F0BF03137070BD254A137843F040031370224B1D8070BD22B3002306
:401A000021490B70012413310C7004390B7008390B7803F07F030B701A4B1B7813F0080F00D08DB9194B18800721013B1970164B1B7813F0010FFAD110490B7803F0FE03BD
:401A40000B700021104B19700C4B1B7813F0010F0DD00E4B1D800EB1032200E001220A4B1A70094B1B7813F0010FFAD170BD044B1D8002490B7813430B7070BDA143004082
:401A800000410040024100400140004002400040024B1878C0F38010704700BFC1510040014B1B68D864704708ED00E04001C0B2014B1870704700BF03E400E00822014B66
:401AC0001A60704700E100E00822014B1A60704780E100E010B50446FFF7F6FF2046FFF7DFFF0720FFF7E2FFFFF7E8FF10BD00BF044A137803F0CF0300F0300018431070D8
:401B0000704700BF7858004008B5054B1B782BB90122034B1A703020FFF7EAFF08BD00BFB8350020084A137843F0040313701032137843F00403137002F5A5521E321378F3
:401B400043F0800313707047A9430040044A137803F0FC0300F0030018431070704700BF0958004010B487B00446194B03AA1868596803C2197A11706A4653F80C0F596852
:401B800003C21B7A1370082C1ED812490B7803F08003DBB20B70087806AB1C4414F80C3C14F8182C920002F00C02134303430B70094A137803F0F3031370117814F8183CB1
:401BC0000B4343F00C03137007B010BC704700BF881D00000A5800400958004008B50C22084B1A70084A137843F0200313700022064B1A700320FFF7B5FF0320FFF7A6FFEB
:401C000008BD00BF08580040095800400A58004008B5054B1B7823B9FFF7E0FF0122024B1A70FFF77FFF08BDB9350020044A137803F0CF0300F0300018431070704700BF9C
:401C40007A58004008B5054B1B782BB90122034B1A703020FFF7EAFF08BD00BFBA35002010B5002404E02046FEF716FF0134E4B2012CF8D9FF22014B1A7010BDE180FF1FC8
:401C800010B50446FFF7ECFF2046FEF7F7FE014B1C7010BDE180FF1F0230800803D000BF01380046FCD17047EFF3108072B6704780F31088704700BF014B1868704700BF5D
:401CC0004481FF1F0E4B70B51E460E4C0025E41AA410A54204D056F8253098470135F8E700F05EF8084B094C1E46E41AA4100025A54204D056F8253098470135F8E770BDF4
:401D0000AC1D0000AC1D0000AC1D0000B41D000010B5431E0A44914204D011F8014B03F8014FF8E710BD03460244934202D003F8011BFAE77047000000000000ABC000C000
:401D4000035B0040244300404000000040510040300000000140001000140140000800400140000A004C014000020050014020000111213141615363730000000809010122
:401D80000507070404000000011121314161536373000000080901010507070404430000F8B500BFF8BC08BC9E4670474D000000450C0000F8B500BFF8BC08BC9E467047CC
:401DC00029000000D81D0000C880FF1F8000000018B500000000000000000000030000000000E02EC05D00001800000000366E0101FF000000000000000000000000000027
:401E000000000000000000000000000000000000000000009D1D000000000000000000000000000000000000000000000000000000000000000000000000000000000000E8
:401E40000000000000000000000000000000000000000000E480FF1F00000000000000000000000000000000000000000000000000000000000000000000000000000000E0
:401E80000000000000000000000000000000000000000000000000000000000000000000000000000000000000000000000000000000000000000000000000000000000022
:401EC00000000000000000000000000000000000000000000000000000000000000000000000000000000000000000000000000000000000000000000000000000000000E2
:401F000000000000000000000000000000000000000000000000000000000000000000000000000000000000000000000000000000000000000000000000000000000000A1
:401F40000000000000000000000000000000000000000000000000000000000000000000000000000000000000000000000000000000000000000000000000000000000061
:020000040003F7
:0200000480007A
:4000000002520040016400400365004001070140630801403A090140391401402E1501403B1601401C1701404F180140321901404C1A0140481B01400640014003410140C3
:400040000342014007430140024401400145014003460140014701400948014008490140084C01400A4D0140075001400251014009200C04880F870D88388972E602000AC0
:4000800001030304040406080C0A1103120A13041D031E081F0C230824012B052D0A2F04300834013606370F38803B803E114046410146E047CB483849FF4AFF4BFF4EF01D
:4000C0004F44500C54015604580459045A045B045C115D115F0166C06A406B02800C82718410864087268C108EAC90DC9158922293069A039B109D629F0CA009A162A2D066
:40010000A31CA414A901AA20AF18B0E0B11EB360B41FB501B908BA02BB02BF14C003C504C9FFCA07CBFFCC40CD20CEF0CF05D008D804D904DA04DC11DD01DF01E040E1A8C8
:40014000E240E32001020220030104080501070109020A040D020F02100811081240161019231A041D401E881F40200421062680270129612A412C082F42310232A033028C
:400180003501368038083F024104460147014A204C04500C54105504561057015D105E8967408740C0BDC29AC42ECABDCC9DCE82D092D220D6F0D8800401100413011B01E5
:4001C0001C071D01240227012E07340737013B80402549FF4AFF4BFF4F0150185280580B590B5A0B5B0A5C995D995F016040624064406540668068806A806C806E80C06525
:40020000C9FFCAFFCBFFCD83CE03CF01D018D608DA08DB04DD99DF01E040E240E440E540E680E880EA80EC80EE80000409821220134018041B1021802B103002318032208C
:40024000400448024C024F205E805F20640567027280734078057F01940497029B209C019E80A002A102A260A710AE40AF28C004C209C405CA02CC0DD004D238D630D8300F
:40028000DE13EC10EE041B012F013501406449FF4AFF4BFF4D834E034F01501859085A085C905D095F016040624064406540668068806A806C806E809A01AE01AF01B50143
:4002C000B601BE40C025C5ECC720C823C9FFCAFFCBFFCD83CE03CF01D018D401D804D90BDA0BDB0BDC90DD99DF01E040E240E440E540E680E880EA80EC80EE8009201002B3
:4003000019402120222027082A802C02362040044502480249054F2050025102594578017F01C202C401CA18CC20D084D228D60BDE11E220000202040601100412021A01ED
:400340001F013001340637013E114063410542024404450C47E0482149FF4AFF4BFF4C624DA04EF04F41500C54185604580459045A045B045C905D115F01664067026910F7
:400380006A306B106D106E106F128403851389138C039005920894129502960897059A039C0B9D109E14A203A41CA81CA901AB26AE03AF08B003B120B303B510B61CB70C79
:4003C000BF40D602D713D804D904DB04DC11DD10DF010004020204080640071009290A010E800F08115519421A011F21212A230A264029603108324036803914471A4E06B1
:400400004F08560159015D02674A69146A807080710472088B40AC10AE01B110B301B404C035C25FC40FCA0CCC1ACE06D0E0D230D681D8B0E220001C020304130508060C98
:400440000C1F0D190F0210011301140215181A031B061C031D191F0420082110240425072718280C29012C1F2D1F3010340F371F38083A203B803E055608580459045B0434
:400480005C115D905F0180068201850488018A068D0C8E088F039006910F920198029B029C049D08A10EA208A301A503A601A70CA806A90CAC07B007B208B50EB701B98097
:4004C000BA02BB02BE04D804D904DC11DF01008601410340051006010740082009290A010CC00E400F0410851104120214251701180419111A181B201C801E401F0420023A
:40050000240826022701284129202B202C042D012F203004312633403460360239443A083B043C803E08588062C0821088809201940C95419608970899249A099D019E4015
:40054000A080A12BA682AB20B521C0DDC2DFC4FFCAEFCCBFCE5AD608D808E001EC103010320836243B10CCF0CE1097109C10A62C97109C10A62C1208862097109C10A62CD6
:40058000C440E6407D20DE01A5104508A510D001A51825102A102B08881097109C10A604C820CA10AA04AE10AF18B510E840EA10EC40EE20001062019A01A518B601C002BF
:4005C000D802EC02101081108810A510B410B508C408E204EA08EC0800020C02100211011B011C021D0100EF0103000000000000000001004000000000000000000000005C
:40060000000010002000040B2B0020000000000000020200000000000000000000000800070018010000000000000000000000000000000000000000000000000000000004
:40064000000000000000000000000000000000000000000000000000000000000000000000000000000000000000000000000000000000000000000000000000000000007A
:40068000000000000000000000000000000000000000000000000000000000000000000000000000000000000000000000000000000000000000000000000000000000003A
:4006C00000000000000000000000000000000000000000000000000000000000000000000000000000000000000000000000000000000000000000000000000000000000FA
:4007000000000000000000000000000000000000000000000000000000000000000000000000000000000000000000000000000000000000000000000000000000000000B9
:0200000490006A
:0400000000004005B7
:0200000490105A
:04000000BC90ACAF55
:0200000490303A
:02000000B82620
:0200000490402A
:4000000000000000000000000000000000000000000000000000000000000000000000000000000000000000000000000000000000000000000000000000000000000000C0
:400040000000000000000000000000000000000000000000000000000000000000000000000000000000000000000000000000000000000000000000000000000000000080
:400080000000000000000000000000000000000000000000000000000000000000000000000000000000000000000000000000000000000000000000000000000000000040
:4000C0000000000000000000000000000000000000000000000000000000000000000000000000000000000000000000000000000000000000000000000000000000000000
:0200000490501A
:0C00000000012E16106900012E22C88F8E
:00000001FF