:400000000080002011000000B50B0000B50B000008B5044B1A6803F53F5302331A6000F0D1FD00BFFA46004010B5054C237833B9044B13B10448AFF300800123237010BD29
:400040004881FF1F00000000F01F0000084B10B51BB108490848AFF300800848036803B910BD074B002BFBD0BDE81040184700BF000000004C81FF1FF01F0000C880FF1FE4
:4000800000000000054B1B78DBB2012B05D10346002801DA00F11F0358117047E080FF1F044B1888431E9BB2B3F5007F01D34FF4007070476481FF1F054B5A8892B29B8833
:4000C0009BB29A4201D2012070470020704700BF6481FF1F044B0022DA801A725A809A805A72DA601A8270476481FF1F024B00229A74DA74704700BF6481FF1F024B002239
:400100009A74DA74704700BF6481FF1F411A002901DB012070470020704700BF154B1B7DDBB2022B02D1134B98617047114B9B6913B9104B98617047C31A1AD00D4A906143
:40014000D269934203D2D21A0A49CA6102E00021084AD161074AD26942B106490A6A13440B62042B05D900220A6270470022014B1A6270476481FF1F70B501F0FFFAFFF7A8
:4001800081FF314B58621B7DDBB2022B5BD12E4B5B7A13F0FF0F56D1FFF782FF2A4B9B889BB298424FD9284BDB889BB21D2B4AD8254AD3889BB203EB43039BB292F8282030
:4001C00012F0FF0F06D0204AD068411CD16020F07F4001E01C4A506A1B498A8892B2C4B25A2505FB02121A4482F82C408C88A4B25A1CC0F3072605FB0414144484F82C60DA
:400200008A8892B20233C0F3074005FB0212134483F82C00CB889BB201339BB2CB80CB889BB21D2B0FD90C460023CB808B889BB201339BB28B80FFF733FFA3889BB29842C5
:4002400001D80122627270BD6481FF1F08B500F0B7FD124BD3F87C2A0132C3F87C2A93F8803A13F0FF0F0ED00D4A937C0133DBB29374937C13F0FF0F08D0134600229A74D8
:400280000122DA7402E00022054B9A7400F08AFD044800F09BFD00F0CDFD08BD142B00206481FF1F80A9030008B500F07BFD034800F08CFD00F0BEFD08BD00BF80A90300CF
:4002C00010B501F053FA01F04BFE0446FFF702FF0122034B1A75204601F046FE10BD00BF6481FF1F10B501F03BFE034BD3F87C4A01F03AFE204610BD142B002008B500F020
:4003000051FD00F05DFD00F03FFD08BD38B5044601F02CFAFFF7F2FF01F022FE05460CB1012300E00023064C84F82830FFF7D2FE02232375284601F017FE01F00FFA38BDB3
:400340006481FF1F08B501F0D3FD50B10D4B1B7DDBB2012B15D10B4B93F82800FFF7D6FF08BD01F003FAFFF79FFF01F0F9FD054B0022DA801A725A809A805A721A7501F0D2
:40038000F3FD08BD6481FF1F08B50020FFF7BEFF08BD00BF082805D808B5034B187001F045FA08BD704700BFCC80FF1F082806D808B5034B83F8810A01F0BCFA08BD7047BA
:4003C000142B002070B598B0AB238DF800301E238DF801301E4B1D8A8DF802502B0A8DF80330002201AE17E002EB42039BB25A21174C01FB0041CC1894F82C4034705C1C89
:400400000C4494F82C40747002330B4493F82C30B370013292B203361D2AE5D90022134606E018A9194411F8601C4A4001339BB25D2BF6D98DF85E20054C013525825F2136
:40044000684600F005FE3223E36118B070BD00BF6481FF1F00B583B0AB238DF80030C3238DF80130B8238DF802300B238DF8033070238DF804300521684600F0E9FD03B063
:400480005DF804FB00B583B0AB238DF80030C2238DF801308DF802008DF80310414059408DF804100521684600F0D2FD03B05DF804FB00BF08B50421014800F0C9FD08BD11
:4004C000F41F000010B5E3E000F026FD0446734B93F8803ADBB2052B00F2D680DFE803F0030D3A58464FAB2840F0D28001226B4B83F8802AFFF7FAFDCAE0FFF7F7FDA4F1A2
:40050000A3031E2B1FD8DFE803F0171E10101E1E10101E1E1E1E1E1E101E10101E1E1E1E1E1E1E1E1E1E1E1E10005C4B83F8824A022283F8802AABE0584B83F8824A04221E
:4005400083F8802AA4E0FFF7D9FD0022534B83F8802A9DE0514B83F8830A002283F8842A032283F8802AFFF7C1FD91E04B4B83F8830A052283F8802AFFF7B8FD88E0474BB7
:4005800083F8840A032283F8802AFFF7AFFD7FE0FFF7B4FD4149002381F8803A91F8822A91F8833A91F8841A53404B409C426FD13A4B012283F8852A3221394AD16193F81D
:4005C000823AA33B112B63D8DFE803F02F62090E6262192462626262626239623F3CFFF769FFFFF737FF53E02C4B93F8830AFFF7D1FE2C4B1978A620FFF744FF48E0274C72
:4006000094F8830AFFF7D2FE94F8811AA920FFF739FF3DE0214C94F8830A00F0CFFD94F8831AAA20FFF72EFF32E01C4A92F8833A92F8842A43EA0223194A138028E0FFF70B
:400640003FFE25E0FFF7A0FE22E0144B93F8833A13F0FF0F14BF01220022114B83F8282093F8283013F0FF0F03D00120FFF74EFE0EE001F07BF8FFF717FE094B0022DA805C
:400680001A725A721A7503E00022044B83F8802A00F074FC00287FF417AF10BD142B00206481FF1FCC80FF1F10B5174B1B7DDBB2022B0CD1144B5B7A13F0FF0F22D001F002
:4006C00055F8FFF7F1FD104B00225A721A75FFF7F3FC50B10C4C608880B2FFF773FE63889BB201339BB2638010BD074BDB7C13F0FF0F05D00023044AD374044A82F8803A00
:40070000FFF7E0FE10BD00BF6481FF1F142B002038B5FFF7E7FD04460CE0FFF7C5FFFFF7E1FD05462146FFF7F1FC18B1FFF7C2FE05F14604024B93F8853A002BEDD038BDA4
:40074000142B002010B50446FFF7CCFD044401E0FFF7AAFFFFF7C6FD2146FFF7D7FC0028F6D010BD10B562B600F0C8FB01F07EFB01F03EFA01F0B8F9012001F0E3F901200C
:4007800001F05CF901F08CFB01F0A4FB01F0A4F8364B187801F04AF800F080FD00F0EAFD01F01EF9324B93F8810A01F0C3F800F0ABFD00F039FD942000F000FD00F0BAFF87
:4007C00000F0D4FF2B4800F0A9FA2B4800F0CEFA2A4801F0AFFB00F0E5FA294800F0F6FA00F028FBFFF794FF002407E00820FFF7A9FF0820FFF7A6FF0134E4B2042CF5D9DF
:40080000FFF752FF1F4B1B7DDBB2022BF8D0FFF753FC0028F4D1FFF765FD0446194B1B7D13F0FF0F1AD1FFF747FCB8B9104BD3F8883A23B904F164030D4AC2F8883A0C4B2D
:40084000D3F8881A2046FFF761FC58B104F16403074AC2F8883AFFF72DFE03E00022044BC3F8882A2046FFF759FCC9E7CC80FF1F142B0020790100004D0200004503000003
:4008800080A903006481FF1FFEE700BFF0B40022174611E050F82760F3B226F0FF0608E001EB420511F812406D78A5550132013BDBB2002BF4D101371B2FEBD9F0BC7047D8
:4008C00030B42E4B1B78DBB203F007012C4A11701B09013213704DF220022A4B1A8080213033197042F2200220331A80092203F5E2631A700523244A137002321370012389
:4009000002F2891213700422204802700820204C20700A34237002342270043421701D490A7040211034217010250834257004342070194803705A300270184A1170013255
:4009400013702422164B1A70022230331A70202204331A700623134A13700232137040F2151101321180033213709E220E4B1A704422A3F2E2231A7030BC7047CF01004932
:400980006E5800400C51004078580040045A0040085A0040225A0040385A0040C35A0040D05A0040415B0040585B004008B50A46002101F014FB08BD08B501F005FB08BDBA
:4009C00038B500242D4B1C80502202331A70192502331D80182202331A70042228492948FFF7EAFF2622284B1A700322A3F580731A70264B1B78DBB2254A13700822254B15
:400A00001A8041F25122023B1A800CE0224B1B7803F0010343EA440404F003044FF4F07001F096FA013D0DB1032CEFD115B90320FFF72AFF194B4FF480721A8007221A7047
:400A4000002217490A704820023108701A700222033B1A7004220A331A70124A137843F003031370013A137843F001031370013A137843F08003137038BD00BF804000402E
:400A800010060048004100400043004008010049A146004022420040254200400440004006400040A243004038B572B62F4A137843F00403137000240CE02D4D63001919EC
:400AC0004A0011462A44084691882858FFF76EFF0134E4B2072CF0D926494FF09040FFF7D5FE0A25244B1D70244A137843F0020313701032137843F002031370204C237821
:400B000043F040032370A2F58632513A137843F01003137008221B491B48FFF74DFF08221A491B48FFF748FF2A461A491A48FFF743FF082219491A48FFF73EFF194A1378A2
:400B400043F008031370184D61232B70FFF738FF81232B700122154B1A70FFF7B1FE0E2221461348FFF728FF38BD00BFE8460040F81F000070000048835800400350014063
:400B8000A0430040EC05004802510040F4050048C2510040FC050048105100400806004832510040224300400048004004000840B043004008B501F0DBF903680C2B00D10E
:400BC000FEE7FEE708B5104E104D16E029686B68AC68002204E051F8040B43F8040B0432A242F8D1E868002203E0002143F8041B04328242F9D11035013E002EE6D101F0CC
:400C0000BDF9FFF7AFFDFEE701000000AC20000008B5104A104B1A60104A136843F40073136000230AE0032B03D80D4A52F8231000E00C490C4A42F8231001332F2BF2D991
:400C40000A4B1A780A4B1A70074A0A4B1A60FFF72BFF08BD0004FA050CED00E014ED00E000000000B50B00000080FF1FBC760040C080FF1F08ED00E001BE704708B5034B68
:400C80001B7A00FB03F001F063F908BDD080FF1F70B504460E46074B1D681F2802D90020FFF7EAFF04F01F04103455F8240045F8246070BD08ED00E038B504460D4607292D
:400CC00002D90020FFF7D8FF1F2C02D90020FFF7D3FF04F01F0000F1604000F564406D01EDB2057038BD00BF014B1B689864704708ED00E04001C0B2014B1870704700BF57
:400D000002E400E00422014B1A60704700E100E00422014B1A60704780E100E010B50446FFF7F6FF2046FFF7DFFF0720FFF7E2FFFFF7E8FF10BD00BF014B1B681865704707
:400D400008ED00E04001C0B2014B1870704700BF04E400E01022014B1A60704700E100E01022014B1A60704780E100E010B50446FFF7F6FF2046FFF7DFFF0720FFF7E2FF47
:400D8000FFF7E8FF10BD00BF1022014B1A60704780E200E0024A137843F080031370704774650040024A137803F07F031370704774650040014B1870704700BF87650040E4
:400DC000014B1878704700BF67650040014B1860704700BF24650040014B1868704700BF44650040014B1860704700BF0465004008B501E0FFF7F0FFFFF7E2FF10F0080F13
:400E0000F8D108BD08B5FF20FFF7E0FFFF20FFF7E9FF01F0A5F8064A137843F01003137001F0A2F8FFF7E4FF0020FFF7C3FF08BD9765004008B5054B1B7823B9FFF7E2FFB4
:400E40000122024B1A70FFF7A5FF08BDA035002008B511490020FFF71BFF07210020FFF72BFF00220D4B1A7072220D4B1A702022013B1A700B490120FFF70AFF0721012036
:400E8000FFF71AFF0622084B1A70472210331A7002224F331A7008BD79100000A135002089650040111100002964004010B501F057F804460D4A137843F020031370013A12
:400EC000137843F010031370094A0123136009490B7843F010030B70022307490B60136000F042F9204601F03FF810BD9965004000E100E09864004080E200E008B5054BBB
:400F00005B7823B9FFF7A4FF0122024B5A70FFF7CDFF08BDA13500200122134B1A60134A9378DBB2D178C9B2127912F0FF0F01D18B4211D00E4AD05CC0B20133DBB21F2BE2
:400F400000D90023094A9370137913F0FF0F06D00022064B1A7102E0064B1878C0B20122054B1A60704700BF80E100E0A1350020C43500204865004000E100E00122144B96
:400F80001A60144B9A78D2B2DB78DBB29A4206D1104B1B7913F0FF0F15D0202014E00D4B9A78D2B2DB78DBB29A4205D2094AD3789078181AC0B207E0064AD3789078181A8F
:400FC0002030C0B200E000200122034B1A60704780E100E0A135002000E100E0174BD9799B79DBB2994205D25A1E914214BF0022012204E0CA1A7F2A14BF00220122002A78
:40100000ECD1994207D10E4B1B7813F0040F02D10C4B1870704711F0800F00D000210A4B58540131054BD971054B1B7813F0020F02D00222054B1A60704700BFA135002064
:401040006864004048640040E435002000E200E0084B5B7833B97047305DFFF7BFFF0134E4B203E070B50D4606460024AC42F3D370BD00BFA13500201D4B1B78DBB213F0BC
:401080001E0F05D01B4803F01E0201780A43027003F0200303F0FF0233B3174B1978C9B2164B1B78DBB21648C154164B1B7813F0FF0F02D00121144B197010490B7801333D
:4010C000DBB20B700B78DBB21F2B02D900210B4B19700A4B1978C9B20C4B1B78DBB2994202D10121074B1970002AC5D1704700BF68650040A135002048650040A435002011
:40110000C4350020A5350020A6350020A335002013E0104B1B7813F0800F02D000220D4B1A700C4A1378DBB20B49CB5CDBB20B490B7013780133DBB21370064B1B78DBB2DB
:40114000074A1278934204D0064B1B7813F0040FDFD07047A7350020E435002048640040A835002068640040054A137843F0020313701032137843F002031370704700BFCE
:40118000A2430040054A137843F0040313701032137843F004031370704700BFA8430040054B1A7802F0FD021A701A7800F0020010431870704700BF28580040014B187082
:4011C000704700BF825B0040064B1B78C3F3810303F19243063393F82831DBB2024A1370704700BF285800400A46004008B5064B1A7802F0F3021A701A7800F00C00104344
:401200001870FFF7E1FF08BD2858004008B50020044B187001331870FFF7E8FF0220FFF7BFFF08BD2858004008B5074B1B7823B9FFF7ECFF0122044B1A70FFF7A3FFFF2011
:40124000FFF7BCFF08BD00BFAA350020084A137843F060031370A2F5A652133A137843F0010313701032137843F001031370704777580040054B1A7802F0FC021A701A78E8
:4012800000F0030010431870704700BF5858004008B50320FFF7EEFF08BD00BF08B5054B1B7823B90122034B1A70FFF7F1FFFFF7CDFF08BDAB350020084A137843F060035C
:4012C0001370A2F5A652133A137843F0080313701032137843F008031370704777580040054B1A7802F0FC021A701A7800F0030010431870704700BF5E58004008B50320E7
:40130000FFF7EEFF08BD00BF08B5054B1B7823B90122034B1A70FFF7F1FFFFF7CDFF08BDAC350020084A137843F060031370A2F5A652133A137843F002031370103213787C
:4013400043F002031370704777580040054B1A7802F0FC021A701A7800F0030010431870704700BF5A58004008B50320FFF7EEFF08BD00BF08B5054B1B7823B90122034B94
:401380001A70FFF7F1FFFFF7CDFF08BDAD35002010B59DF80840012C51D1013809282ED8DFE800F0052D2D052D2D0F192D230F2B03D92548007840B222E02448007840B221
:4013C0001EE00F2B03D92248007840B218E02148007840B214E00F2B03D91F48007840B20EE01E48007840B20AE00F2B03D91C48007840B204E01B48007840B200E0002022
:4014000001EB401101FB02F1C90B8AB20D2B0BD8C3F10E0289B211418AB2611E124800EB810101338B7005E0631E0F4901EB83030F219970013C0C4B23F8242010BD00200A
:40144000FFF71AFC10BD00BF180100491C010049190100491D0100491A0100491E0100491B0100491F010049B0350020F8B5074600F076FD06460D4D2B7843F003032B7029
:401480000B4C237843F0030323700A4B1F700320FFF7F4FB2B7803F0FC032B70237803F0FC032370304600F05FFDF8BDF8460040F94600409258004038B50022304B1A717F
:4014C00001285CD1F8222F4B1A7004232E4A1370013213700F2203F1804303F59C431A70002401331C703F2201331A7002331C7001331C7001331C7003220A331A705022B5
:4015000003F527631A70132201331A702B2201331A7001331C70442203331A70482201331A70022501331D7002331D70122201331A70282201331A70EB2201331A705220B2
:40154000FFF794FF5822114B1A7001331C7005331D7001331D7001331C7001331C704CF6CD420B4B1A600121084600F067FB0121072000F0E7FB07491D20FFF789FB38BDC2
:40158000B0350020004E0040024E00409458004064360020E9170000F0B583B0284D01272F70284E00247471102000F035FB102000F0B6FB07211D20FFF77EFB0422224B07
:4015C0001A7001331C7007331C70204A137843F0180313701E4B1C7003F2F5231C7001331C700A22A3F209331A7001331C7002331C705B2205331A705E2201331A7004330B
:401600001C701422A3F68C231A70009712234FF4004249F25B110520FFF7BAFE2B78013B06EB83039A780B4B1A702B78013B36F82320094B1A802878FFF73EFF03B0F0BD92
:40164000E080FF1FB035002096580040075B0040935800400E4E00400C4E004070B500F07FFC06462A4B1B782A4B1A7842F001021A701A7842F010021A7010331A7842F0A5
:4016800001021A701A7842F010021A70224D2B7843F002032B70214C237843F0020323701F4A137843F0030313700320FFF7E6FA2B7803F0FD032B70237803F0FD0323708A
:4016C000184A137843F0060313707A22164B1A70164A137843F0010313701032137843F0010313700F3A137843F0010313701032137843F0010313704FF000530C4A13601B
:40170000A2F5C0721360304600F02EFC70BD00BFE080FF1FAA430040F8460040F9460040915800407758004082580040A143004080E200E008B5084B9B794BB9064BDB79C4
:4017400013F0FF0F01D1FFF727FF0122024B9A71FFF784FF08BD00BFB0350020024A137843F0010313707047004E0040024A137803F0FE0313707047004E0040154B1B7891
:4017800003F00303012B07D8134B1888023B1B889BB243EA004013E0022B0AD10E4B1888023B1B7843EA00430C4A107843EA002006E00B4B188883B2074A108843EA0040C7
:4017C000084B1B7913F0FF0F02D00022054B5A71704700BF144E0040124E0040114E0040104E0040B0350020704700BF084A137843F0020313701032137843F00203137052
:4018000002F5A5521E32137843F0800313707047A9430040044A137803F0FC0300F0030018431070704700BF0558004010B487B00446194B03AA1868596803C2197A1170A7
:401840006A4653F80C0F596803C21B7A1370082C1ED812490B7803F08003DBB20B70087806AB1C4414F80C3C14F8182C920002F00C02134303430B70094A137803F0F30389
:401880001370117814F8183C0B4343F00C03137007B010BC704700BF28200000065800400558004008B50C22084B1A70084A137843F0200313700022064B1A700820FFF794
:4018C000B5FF0320FFF7A6FF08BD00BF04580040055800400658004008B5054B1B7823B9FFF7E0FF0122024B1A70FFF77FFF08BDBC350020084A137843F0040313701032AA
:40190000137843F00403137002F5A5521E32137843F0800313707047A9430040044A137803F0FC0300F0030018431070704700BF0958004010B487B00446194B03AA1868F4
:40194000596803C2197A11706A4653F80C0F596803C21B7A1370082C1ED812490B7803F08003DBB20B70087806AB1C4414F80C3C14F8182C920002F00C02134303430B70B5
:40198000094A137803F0F3031370117814F8183C0B4343F00C03137007B010BC704700BF402000000A5800400958004008B50C22084B1A70084A137843F020031370802225
:4019C000064B1A700020FFF7B5FF0320FFF7A6FF08BD00BF08580040095800400A58004008B5054B1B7823B9FFF7E0FF0122024B1A70FFF77FFF08BDBD350020084A1378AA
:401A000043F0010313701032137843F00103137002F5A5521E32137843F0800313707047A9430040044A137803F0FC0300F0030018431070704700BF0158004010B487B0DD
:401A40000446194B03AA1868596803C2197A11706A4653F80C0F596803C21B7A1370082C1ED812490B7803F08003DBB20B70087806AB1C4414F80C3C14F8182C920002F0FE
:401A80000C02134303430B70094A137803F0F3031370117814F8183C0B4343F00C03137007B010BC704700BF58200000025800400158004008B50C22084B1A70084A137872
:401AC00043F0200313700022064B1A700120FFF7B5FF0320FFF7A6FF08BD00BF00580040015800400258004008B5054B1B7823B9FFF7E0FF0122024B1A70FFF77FFF08BDB4
:401B0000BE350020084A137843F0080313701032137843F00803137002F5A5521E32137843F0800313707047A9430040044A137803F0FC0300F0030018431070704700BF72
:401B40000D58004010B487B00446194B03AA1868596803C2197A11706A4653F80C0F596803C21B7A1370082C1ED812490B7803F08003DBB20B70087806AB1C4414F80C3C31
:401B800014F8182C920002F00C02134303430B70094A137803F0F3031370117814F8183C0B4343F00C03137007B010BC704700BF702000000E5800400D58004008B50C2227
:401BC000084B1A70084A137843F0200313700022064B1A700120FFF7B5FF0320FFF7A6FF08BD00BF0C5800400D5800400E58004008B5054B1B7823B9FFF7E0FF0122024B98
:401C00001A70FFF77FFF08BDBF350020014B188880B2704780400040034B1A7800F0F80010431870704700BF82400040024B187800F00700704700BF8240004070B5054621
:401C40000E46FFF7F3FF0446FFF7E0FFA84256D02B4B1B7803F0010294B900B185B938B9284B1D80284A137803F0BF03137070BD254A137843F040031370224B1D8070BD31
:401C800022B3002321490B7001240F310C7004310B700C390B7803F07F030B701A4B1B7813F0080F00D08DB9194B18800721013B1970164B1B7813F0010FFAD110490B783F
:401CC00003F0FE030B700021104B19700C4B1B7813F0010F0DD00E4B1D800EB1032200E001220A4B1A70094B1B7813F0010FFAD170BD044B1D8002490B7813430B7070BD30
:401D0000A243004080400040824000400140004002400040014B188880B2704700410040034B1A7800F0F80010431870704700BF02410040024B187800F00700704700BF3D
:401D40000241004070B505460E46FFF7F3FF0446FFF7E0FFA84256D02B4B1B7803F0010294B900B185B938B9284B1D80284A137803F0BF03137070BD254A137843F04003F7
:401D80001370224B1D8070BD22B3002321490B70012413310C7004390B7008390B7803F07F030B701A4B1B7813F0080F00D08DB9194B18800721013B1970164B1B7813F033
:401DC000010FFAD110490B7803F0FE030B700021104B19700C4B1B7813F0010F0DD00E4B1D800EB1032200E001220A4B1A70094B1B7813F0010FFAD170BD044B1D800249F9
:401E00000B7813430B7070BDA143004000410040024100400140004002400040084A137843F060031370A2F5A652133A137843F0040313701032137843F00403137070479B
:401E400077580040054B1A7802F0FC021A701A7800F0030010431870704700BF5C58004008B50320FFF7EEFF08BD00BF08B5054B1B7823B90122034B1A70FFF7F1FFFFF793
:401E8000CDFF08BDC0350020044A137803F0CF0300F0300018431070704700BF7A58004008B5054B1B782BB90122034B1A703020FFF7EAFF08BD00BFC1350020044A13783A
:401EC00003F0CF0300F0300018431070704700BF7858004008B5054B1B782BB90122034B1A703020FFF7EAFF08BD00BFC2350020024B1878C0F38010704700BFC15100406B
:401F0000014B1B68D864704708ED00E04001C0B2014B1870704700BF03E400E00822014B1A60704700E100E00822014B1A60704780E100E010B50446FFF7F6FF2046FFF7A0
:401F4000DFFF0720FFF7E2FFFFF7E8FF10BD00BF0230800803D000BF01380046FCD17047EFF3108072B6704780F31088704700BF014B1868704700BF4481FF1F0E4B70B558
:401F80001E460E4C0025E41AA410A54204D056F8253098470135F8E700F076F8084B094C1E46E41AA4100025A54204D056F8253098470135F8E770BD942000009420000012
:401FC000942000009C20000010B5431E0A44914204D011F8014B03F8014FF8E710BD03460244934202D003F8011BFAE77047000000000000ABC000C02051004010004051A8
:4020000000403000F0510040100000000140001000140140000800400140000A004C01400002005001402000011121314161536373000000080901010507070404000000C9
:402040000111213141615363730000000809010105070704040000000111213141615363730000000809010105070704040000000111213141615363730000000809010164
:402080000507070404430000F8B500BFF8BC08BC9E4670474D000000110C0000F8B500BFF8BC08BC9E46704729000000C0200000C880FF1F8000000020B500000000000096
:4020C00000000000080000000000E02EC05D00001800000000366E01010000000000000000000000000000000000000000000000000000000000000000000000852000004A
:40210000000000000000000000000000000000000000000000000000000000000000000000000000000000000000000000000000000000000000000000000000E480FF1F1D
:40214000000000000000000000000000000000000000000000000000000000000000000000000000000000000000000000000000000000000000000000000000000000005F
:40218000000000000000000000000000000000000000000000000000000000000000000000000000000000000000000000000000000000000000000000000000000000001F
:4021C00000000000000000000000000000000000000000000000000000000000000000000000000000000000000000000000000000000000000000000000000000000000DF
:40220000000000000000000000000000000000000000000000000000000000000000000000000000000000000000000000000000000000000000000000000000000000009E
:020000040003F7
:0200000480007A
:4000000002520040016400400365004001070140630801403A090140391401402E1501403B1601401C1701404F180140321901404C1A0140481B01400640014003410140C3
:400040000342014007430140024401400145014003460140014701400948014008490140084C01400A4D0140075001400251014009200C04880F870D88388972E602000AC0
:4000800001030304040406080C0A1103120A13041D031E081F0C230824012B052D0A2F04300834013606370F38803B803E114046410146E047CB483849FF4AFF4BFF4EF01D
:4000C0004F44500C54015604580459045A045B045C115D115F0166C06A406B02800C82718410864087268C108EAC90DC9158922293069A039B109D629F0CA009A162A2D066
:40010000A31CA414A901AA20AF18B0E0B11EB360B41FB501B908BA02BB02BF14C003C504C9FFCA07CBFFCC40CD20CEF0CF05D008D804D904DA04DC11DD01DF01E040E1A8C8
:40014000E240E32001020220030104080501070109020A040D020F02100811081240161019231A041D401E881F40200421062680270129612A412C082F42310232A033028C
:400180003501368038083F024104460147014A204C04500C54105504561057015D105E8967408740C0BDC29AC42ECABDCC9DCE82D092D220D6F0D8800401100413011B01E5
:4001C0001C071D01240227012E07340737013B80402549FF4AFF4BFF4F0150185280580B590B5A0B5B0A5C995D995F016040624064406540668068806A806C806E80C06525
:40020000C9FFCAFFCBFFCD83CE03CF01D018D608DA08DB04DD99DF01E040E240E440E540E680E880EA80EC80EE80000409821220134018041B1021802B103002318032208C
:40024000400448024C024F205E805F20640567027280734078057F01940497029B209C019E80A002A102A260A710AE40AF28C004C209C405CA02CC0DD004D238D630D8300F
:40028000DE13EC10EE041B012F013501406449FF4AFF4BFF4D834E034F01501859085A085C905D095F016040624064406540668068806A806C806E809A01AE01AF01B50143
:4002C000B601BE40C025C5ECC720C823C9FFCAFFCBFFCD83CE03CF01D018D401D804D90BDA0BDB0BDC90DD99DF01E040E240E440E540E680E880EA80EC80EE8009201002B3
:4003000019402120222027082A802C02362040044502480249054F2050025102594578017F01C202C401CA18CC20D084D228D60BDE11E220000202040601100412021A01ED
:400340001F013001340637013E114063410542024404450C47E0482149FF4AFF4BFF4C624DA04EF04F41500C54185604580459045A045B045C905D115F01664067026910F7
:400380006A306B106D106E106F128403851389138C039005920894129502960897059A039C0B9D109E14A203A41CA81CA901AB26AE03AF08B003B120B303B510B61CB70C79
:4003C000BF40D602D713D804D904DB04DC11DD10DF010004020204080640071009290A010E800F08115519421A011F21212A230A264029603108324036803914471A4E06B1
:400400004F08560159015D02674A69146A807080710472088B40AC10AE01B110B301B404C035C25FC40FCA0CCC1ACE06D0E0D230D681D8B0E220001C020304130508060C98
:400440000C1F0D190F0210011301140215181A031B061C031D191F0420082110240425072718280C29012C1F2D1F3010340F371F38083A203B803E055608580459045B0434
:400480005C115D905F0180068201850488018A068D0C8E088F039006910F920198029B029C049D08A10EA208A301A503A601A70CA806A90CAC07B007B208B50EB701B98097
:4004C000BA02BB02BE04D804D904DC11DF01008601410340051006010740082009290A010CC00E400F0410851104120214251701180419111A181B201C801E401F0420023A
:40050000240826022701284129202B202C042D012F203004312633403460360239443A083B043C803E08588062C0821088809201940C95419608970899249A099D019E4015
:40054000A080A12BA682AB20B521C0DDC2DFC4FFCAEFCCBFCE5AD608D808E001EC103010320836243B10CCF0CE1097109C10A62C97109C10A62C1208862097109C10A62CD6
:40058000C440E6407D20DE01A5104508A510D001A51825102A102B08881097109C10A604C820CA10AA04AE10AF18B510E840EA10EC40EE20001062019A01A518B601C002BF
:4005C000D802EC02101081108810A510B410B508C408E204EA08EC0800020C02100211011B011C021D0100EF01030000000000000000FF0040000000000000002000040B2F
:400600002B00200000000000000000000000FC0007001801000000000000000000000000000000000000000000000000000000000000000000000000000000000000000053
:40064000000000000000000000000000000000000000000000000000000000000000000000000000000000000000000000000000000000000000000000000000000000007A
:40068000000000000000000000000000000000000000000000000000000000000000000000000000000000000000000000000000000000000000000000000000000000003A
:4006C00000000000000000000000000000000000000000000000000000000000000000000000000000000000000000000000000000000000000000000000000000000000FA
:4007000000000000000000000000000000000000000000000000000000000000000000000000000000000000000000000000000000000000000000000000000000000000B9
:0200000490006A
:0400000000004005B7
:0200000490105A
:04000000BC90ACAF55
:0200000490303A
:0200000093A4C7
:0200000490402A
:4000000000000000000000000000000000000000000000000000000000000000000000000000000000000000000000000000000000000000000000000000000000000000C0
:400040000000000000000000000000000000000000000000000000000000000000000000000000000000000000000000000000000000000000000000000000000000000080
:400080000000000000000000000000000000000000000000000000000000000000000000000000000000000000000000000000000000000000000000000000000000000040
:4000C0000000000000000000000000000000000000000000000000000000000000000000000000000000000000000000000000000000000000000000000000000000000000
:0200000490501A
:0C00000000012E16106900012E23A40D33
:00000001FF