:400000000080002011000000E97E0000E97E0000144A80B5144B1268144F1A60F7B1144E002556F80C4C56F8080C56F8102C234638B1043A52F8041F43F8041B191B8142E9
:40004000F8D156F8040C1A4620B142F8045BD11A8842FAD1013F06F11006E2D108F0DEFF02F00CF8FA460040BC76004001000000C89D000010B5054C237833B9044B13B13C
:400080000448AFF300800123237010BD4881FF1F0000000020940000084B10B51BB108490848AFF300800848036803B910BD074B002BFBD0BDE81040184700BF000000006D
:4000C0004C81FF1F20940000C080FF1F000000002DE9F04F0127B846DFF8E0B2DFF8E0A2DFF814938FB0C9F800809BF800009AF8001001248842B14AB14B00F002811078B2
:4001000019781B788842127828BF20339B1AAD4ADBB21760002B00F00381AB49C9F800709BF800209AF800300878D2B2DBB210B99A4200F0EF80531CDBB2202BA34828BF76
:400140000023865C8BF800300B789F4CF6B20BB1002323709B4A9E4B17601C78E4B2052C00F2D580DFE804F0C6978E110A03994903228E701A7005F043FFB4E7954905222E
:400180004E701A7005F03CFFADE7029308F038FF914B92491A78924D02F0FE021A700A78904B02F0F7020A702A7801F6843102F0F7022A70002209781A70019208F024FF5B
:4001C000019A029B834D1A702B786A78A97853404B40B34287D1844B1A785AB92A78C12A03D02A78A52A7FF47EAF297821201F7005F010FB2A78774BC12A06D01A78B12A74
:4002000003D01978302005F005FB784B1B78032B2B7800F09280A33B172B3FF664AF01A252F823F013130000E700000095130000D9080000E7000000E70000006D120000A1
:40024000D3110000E7000000E7000000E7000000E7000000E7000000E700000019140000E700000055060000A9060000010A0000D90A0000B10C0000D10D0000730700000F
:40028000D3070000534A0020032156709070197005F0B6FE27E7019305F0B2FE06F15D02D2B21E2A019B09D807FA02F121F0BF2121F03301002936D1002A39D0019308F08C
:4002C0009FFE454B454C1A78454902F0FE021A702278474D02F0F70222700A78002402F0F7020A703F4A2978147008F08DFE019B1C70F8E6AB2E7FF4F6AE1F7005F080FEC5
:40030000F1E631490B784BB12E4B1F6006E700221A70E8E6374B1E78F6B21BE7294B1C600FB0BDE8F08F2B4902220E701A70DAE6284904220E701A70D5E6A53B1C2B01F225
:400340007C8101A252F823F0D9050000390500003B1600003B16000039050000390500003B1600003B1600003B1600003B1600003B1600003B160000390500003B160000D1
:4003800039050000390500009B0400003B1600003B160000FD0300003B160000390500003B1600003B1600003B1600003B1600003B1600003B160000E700000006370020C7
:4003C000E136002000E100E004370020E43600209181FF1F6481FF1F244F0040A3430040B34300409281FF1F8A81FF1F7D370020274F00404965004080E100E0A04B1220FE
:40040000197805F007FA9F4BAB22C2218DF828201B78B8228DF829108DF82A2000217A228DF82B108DF82C20002B3FF45CAE9649964B0DF1280E1EF8016B0C781878254629
:40044000C0B200F1FF3C221AC4EB0C0CA2F17F02BCFA8CFCB2FA82F24FEA5C1C5209A04288BF6246002AE9D1A04201F0988122065ABF621CD2B20122854848BF00250A70E3
:40048000844A46551278940702D5834A022010600DF12D027245CED125E6794B1220197805F0B8F9774BAB22C2218DF828201B78B5228DF829108DF82A20002177228DF848
:4004C0002B108DF82C20002B3FF40DAE6E496F4B0DF1280E1EF8016B0C7818782546C0B200F1FF3C221AC4EB0C0CA2F17F02BCFA8CFCB2FA82F24FEA5C1C5209A04288BFE9
:400500006246002AE9D1A04201F0408122065ABF621CD2B201225E4848BF00250A705D4A46551278940702D55B4A022010600DF12D029645CED1D6E52978122005F06AF9E7
:400540002B78504ADBB2127883F0C204AB208DF82A30C22100238DF82C408DF828008DF829108DF82B30002A3FF4BDAD4649474B0DF1280E1EF8016B0C7818782546C0B273
:4005800000F1FF3C221AC4EB0C0CA2F17F02BCFA8CFCB2FA82F24FEA5C1C5209A04288BF6246002AE9D1A04201F0DE8022065ABF621CD2B20122364848BF00250A70354A9F
:4005C00046551278940702D5334A022010600DF12D027245CED186E53B2008F075FA294B1B78002B33D0DFF8BCE02749274B1EF8016B0C7818782546C0B200F1FF3C221A40
:40060000C4EB0C0CA2F17F02BCFA8CFCB2FA82F24FEA5C1C5209A04288BF6246002AE9D1A04201F0AA8022065ABF621CD2B20122174848BF00250A70164A46551278940738
:4006400002D5154A02201060144A9645CFD106F0BBF848E56B78124C003318BF0123237021783A2005F0D6F8237803F0FF04002B01F0408105F0CCFF012005F015FB32E5E0
:400680007D3700207E3700207F37002080370020843700206565004000E200E0889600008381FF1F84960000392008F00DFA784BAB21C2221B788DF828108DF82920B42125
:4006C00077228DF82B708DF82A108DF82C20002B34D07049704B0DF1280E1EF8016B0C7818782546C0B200F1FF3C221AC4EB0C0CA2F17F02BCFA8CFCB2FA82F24FEA5C1C15
:400700005209A04288BF6246002AE9D1A04201F0098022065ABF621CD2B201225F4848BF00250A705E4A46551278940702D55D4A022010600DF12D029645CED105F068FF1F
:40074000002005F0B1FA584B1A78012A3FF4CBAC1B78022B3FF4C7AC544B55491A780B7802F0020282F0020203F0FD0313430B70B9E45049504A514B28200F7010800021E3
:400780004B4A1970137803F0FD0343F00203137008F036FC44F620610446494A49481378A2F6593203F0FE0382F8593B037803F0FD0303701378444803F0FD03137003234B
:4007C0000370424B196005F097FC204608F01CFC89E4354B1B7803F0FF01002B40F0F3876B78DBB25A1E032A00F2ED87384C394A2370117005F00CFF254A2378127883F09D
:400800007804AB208DF82B30C221BA238DF82C408DF828008DF829108DF82A30002A33D01C491D4B0DF1280C1CF8016B0C7818782546C0B2421EC0EB040E121BAEF17F0E83
:40084000B2FA82F2BEFA8EFE52094FEA5E1E844228BF7246002AEAD1844201F0FE8122065ABF621CD2B201220C4848BF00250A700B4A46551278940702D50A4A0220106052
:400880000DF12D029445CFD105F09EFFB1E000BF7E3700207F37002080370020843700206565004000E200E07D3700202151004020510040D4360020D6360020D5360020CF
:4008C0000C4F0040A3430040CC360020D0360020DD80FF1FDB3600206B78DBB2082B01F22E81704E07AD3446306871680AAA03C554F80C0F96F808E06168267A03C26A4C64
:400900006A486B4985F800E016700370257823700A780EA802F08002D2B20A70C61816F810EC0A7816F81C0C4FEA8E0E02430EF00C0E60484EEA02020A700278AB4202F098
:40094000F3020270027816F8101C42F00C0242EA0102027004D0584B00221A7008F016F92378564A83F064018DF82B301278AB238DF82C108DF82830C221A6238DF82910FE
:400980008DF82A30002A34D04D494E4B0DF1280E1EF8016B0C7818782546C0B200F1FF3C221AC4EB0C0CA2F17F02BCFA8CFCB2FA82F24FEA5C1C5209A04288BF6246002AAC
:4009C000E9D1A04200F0478622065ABF621CD2B201223D4848BF00250A703C4A46551278940702D53A4A022010600DF12D027245CED1384B1A78012A7FF4AAAEFFF773BB28
:400A0000344B1A78002A00F0E4871978122004F001FF2A4BAB22C2218DF828201B78B5228DF829108DF82A20002177228DF82B108DF82C20002BDCD02149224B0DF1280E53
:400A40001EF8016B0C7818782546C0B200F1FF3C221AC4EB0C0CA2F17F02BCFA8CFCB2FA82F24FEA5C1C5209A04288BF6246002AE9D1A04200F0F88622065ABF621CD2B20E
:400A80000122114848BF00250A70104A46551278940702D50E4A022010600DF12D029645CED1A6E72C940000E380FF1FE280FF1F0658004005580040C93600207E37002015
:400AC0007F37002080370020843700206565004000E200E07D370020AB4AAC4B1078117B1C7800238DF81C008DF81D108DF81E308DF81F30002C00F0CF87A54C2478012CF1
:400B000041F21B80147A002C00F0C687147D002C00F0C2879F4C2278082A019201F20D808DF82B2003228DF82D204FF6FF72CA248DF830308DF831308DF832308DF833302B
:400B40008DF834308DF835308DF836308DF8373002238DF82E008DF828408DF82A708DF82F108DF829308DF82C300AA80DF1360410F8013B510881F404455A4012F0010F73
:400B800085F0080518BF29464A0882F4044581EA530111F0010F85F0080514BF294611464A0882F4044581EA930111F0010F85F0080514BF294611464A0882F4044581EAB9
:400BC000D30111F0010F85F0080514BF294611464A0882F4044581EA131111F0010F85F0080514BF294611464A0882F4044581EA531111F0010F85F0080514BF294611461D
:400C00004A0882F4044581EA931111F0010F85F008050CBF114629464A0881EAD31382F4044113F0010F81F0080118BF0A46A0429ED1D243C2F3072343EA0222C2F30723E9
:400C40008DF836208DF8373008F0DAF95249534A0B78534D43F008030B70137843F00803137008F0D1F908F0CBF92B780146002B01F0DF8008F0C8F908F0C2F94649474A13
:400C80000B7843F008030B70137843F00803137008F0BAF908F0B4F92C780146404A002C01F0158108F0B0F97422002300F0F6BE6B78003318BF0123AB71AB79002B40F08A
:400CC000EC87384AAB791278DBB2002A40F0D486002B00F0CB87344A3449137823F0030343F019031370324A0B70324B32491A60AB790A78DBB283F07504AB208DF82B30FF
:400D0000C221B7238DF82C408DF828008DF829108DF82A30002A3FF46CAE2849284B0DF1280E1EF8016B0C7818782546C0B200F1FF3C221AC4EB0C0CA2F17F02BCFA8CFC38
:400D4000B2FA82F24FEA5C1C5209844238BF6246002AE9D1844200F0EE8422065ABF621CD2B20122174848BF00250A70164A46551278940702D5154A022010600DF12D0256
:400D80007245CED135E600BF08380020C936002038380020E380FF1FA0430040B0430040073700208381FF1FCB80FF1F7B64004015570000CC80FF1F7E3700207F37002094
:400DC00080370020843700206565004000E200E0A64B1A78002A40F0B586A54BA5491A78A54802F0AF021A700A701A78A34C42F008020A701B78A24A0B700378C220DBB23E
:400E0000237013789F4ADBB2137011F8143C9E4A9E49DBB212780B70AB24B8217B238DF82B708DF828408DF829008DF82A108DF82C30002A36D09649964B0DF1280C1CF80A
:400E4000012B0E7801921C78B646E4B2601E321B801BA2F17F02B0FA80F0B2FA82F240095209B44288BF0246002AECD1B44200F09F8434065ABF721CD2B2012286489DF84F
:400E8000044048BF4FF0000E0A70844A00F80E401278900702D5824A022010600DF12D029445CCD17F4B1B6813B10121084698477D4B7E4E039300230193039B9DF804207B
:400EC0001B7802929342B17B727B00F2D6848A4202EB010340F28B8698B2511AFF28CCB200F28986A24280F0CD8606F04FFE704B1A783379FF2A31D093425FD0022A2AD8F7
:400F00006C4807FA02F10078C9B2014223D0DFF8B8E120EA010167485EF822E0DFF8B4C101709EF800101CF802C0634821EA0C01805C624A8EF80010125C6049013AD2B26D
:400F40000A5442B95E495F4A51F82010105C0A7822EA00020A705649FF220A70FF2B2DD0022B29D8534907FA03F20978D2B20A4222D155480A434F4950F82300DFF854E17B
:400F80000A7001781EF80320DFF82CE1114301701EF803204949895C59B94948494950F82200895C90F800E04EEA010101704349895C4248013181543D4A1370434B1B78E8
:400FC000002B40F0758406F05FFE3369204698473F4808F00DF8334B1B6843B302992D209847B3681A462F4B02921B68110EF3B12A2098472B490B68CBB1029A2A20C2F331
:40100000074198472749029A0B68C2F3072173B12A20984723490B689DF808103BB12A209847204B1B6813B121461320984707F03FFC1C4B04461B68002B50D0010E2E2006
:401040009847184BC4F307411B68002B47D02E209847144B1B68002B41D0C4F307212E209847104BE1B21B6836E000BF7D370020D8360020786400406B650040DC80FF1F25
:4010800060640040D93600207E370020DA3600207F37002080370020843700206565004000E200E04037002038380020309D0000E180FF1F39380020649D00003C3800200B
:4010C0005C9D0000589D00006C9D00003437002080FC0A00689D00000BB12E209847019B14360133022B01937FF4E7AE06F04EFD904B1A78FF2A00F0CC85012A41D0022A97
:401100008D4B00F2C78507FA02F41978E4B20C421FD08A4821EA040150F82200884C19700678A15C874C26EA0101A25C864C0170A15C0139C9B2A154002940F0AB858349F8
:40114000834851F82210805C0A7822EA00020A7019788A0713D441F0020119707D4B7A491A787C484B7842F0010202702BB990F8F32942F0100280F8F32901334B706D4B2B
:401180001F70754B744C1B781BB107F0EBFE0023237006F079FD714A7149137803F0FE031370AA790B78D2B2002B00F033856D4B6D486E49002A0CBF1A4602460B786C4853
:4011C00023F0030343F01B030B700370694B1A600FE46B78684ADBB283F068018DF82B301278AB238DF82C108DF82830C221AA238DF829108DF82A30002A3FF4FAAB5F49AB
:401200005F4B0DF1280E1EF8016B0C7818782546C0B200F1FF3C221AC4EB0C0CA2F17F02BCFA8CFCB2FA82F24FEA5C1C5209A04288BF6246002AE9D1A04200F0048222067B
:401240005ABF621CD2B201224E4848BF00250A704D4A46551278900702D54C4A022010600DF12D027245CED1FFF7C3BB6B78AB20DBB2082B8BBF464B454A1B7813703E4A35
:401280008DF82B30127883F06B038DF82C30C221A9238DF828008DF829108DF82A30002A3FF4A7AB3549364B0DF1280E1EF8016B0C7818782546C0B200F1FF3C221AC4EB9D
:4012C0000C0CA2F17F02BCFA8CFCB2FA82F24FEA5C1C5209A04288BF6246002AE9D1A04200F03A8222065ABF621CD2B20122254848BF00250A70244A46551278940702D597
:40130000224A022010600DF12D027245CED1FFF770BB6B78A978312043EA012109B28BB2FF2B94BFC9B2FF21AB8004F073FAFEF7DABE00BFE180FF1F393800206C9D000066
:40134000689D0000649D00003C3800205C9D0000589D00000D51004034370020004E00408381FF1F5957000015570000CB80FF1F7B640040CC80FF1F7E3700207F37002053
:4013800080370020843700206565004000E200E08C81FF1F0121084604F03CFA3B2007F093FBB14B1B78002B3FF451A9DFF860E3AE49AF4B1EF8016B0C7818782546C0B2A5
:4013C00000F1FF3C221AC4EB0C0CA2F17F02BCFA8CFCB2FA82F24FEA5C1C5209A04288BF6246002AE9D1A04200F0AE8122065ABF621CD2B201229F4848BF00250A709E4AAF
:4014000046551278940702D59C4A022010609C4A7245CFD1FFF71BB99449954B08780194A0F180014FF0020E1E464EF66022DFF8E4C20C460CE0317881423178CCF800E0C5
:4014400034BF411A611AC9B251B1013A92B25AB10221C9F8001019788142ECD1CCF800E085490978C907F0D5AE88019C731EB3F5007F28BF4FF4007607F0C2FD814B814A97
:401480001B78814903F0FE0313700B786FF4376E03F0F7030B707244137803F0F703137091F8842B794A0023137007F0ADFD784B1B78022B00F09A844FF00001754B764A21
:4014C00011701970754B1B78032B00F0718474487449754A0023037002930B70138005F097F87249AA790978D2B201F0FF0301936F48029B002940F0FA81002A40F099837F
:401500000122019CFF230192711E89B2CAB24FF05A0E02920A0A674803920EFB06F69DF80420027000220492634A05939DF80430137007F065FD614900220A80DFF8D8C1C5
:401540005F49ACF800200A70DFF8D0C15D49DFF8D0E18CF800200A80AA81AA605A495B4ABDF810307644C1F800E01660AB81584B584D1F7007F048FD9DF808305648574A3B
:401580002E78037092F800E055494EF0200E81F800E092F800E0032C81F800E09DF80C30037092F800E04EF0800E81F800E092F800E081F800E00670297821F0030141F060
:4015C000180141EA04012970017000F02F8445494548059B012B8CBF0B460346434C1178236043483E4B434C41F050011170046019701178404841F00801197011783F4C13
:40160000197001786FF48575C9B22170284401783B4CC9B22170043000781178394C41F00101C0B2207019701178374A1970137843F001031370FEF756BD2978122004F0A8
:40164000E9F8FEF750BD0C4A127850073FF5F7AD2E4A167004E6084A127850073FF5B4A92A4A1670FFF7C1B97E3700207F37002080370020843700206565004000E200E039
:4016800088960000244F0040A34300409281FF1F74370020CB360020CA360020CC360020D4360020D5360020D63600208381FF1F6481FF1FD480FF1FD580FF1FC43600202F
:4016C000C8360020A4350020D080FF1FD880FF1F7D370020CB80FF1F7B640040D836002078640040CD560000B9570000C480FF1FCC80FF1F5D5900006B650040DC80FF1F0A
:40170000D9360020DA360020004E0040466500408496000000E100E0C6360020A081FF1FA481FF1FAD4A127850073EF5F2AFAC4A1670FEF7FFBFA94A127850073FF50DABBD
:40174000A74A1670FFF71ABBA44A127850073FF54DAEA34A16705AE6A04A127850073FF5C1AD9F4A1670CEE59C4A127850073EF51DAF9B4A1670FEF72ABF984A1278500715
:401780003EF551AF964A1670FEF75EBF934A127850073EF5BBAE924A1670FEF7C8BE8F4A127850073EF563AE8D4A1670FEF770BE8A4A127852073FF55CAB894A9DF804006B
:4017C0001070FFF76BBB874BAB22C2218DF828201B78BA228DF829108DF82A20002178228DF82B108DF82C20002B3FF402A97E497E4B0DF1280E1EF8016B0C7818782546E8
:40180000C0B200F1FF3C221AC4EB0C0CA2F17F02BCFA8CFCB2FA82F24FEA5C1C5209844238BF6246002AE9D1844216D022065ABF621CD2B201226E4848BF00250A70674A21
:4018400046551278940702D56A4A022010600DF12D027245CFD1FFF7CCB8604A12785007E4D45F4A1670F2E75C4A127850073FF503A95B4A1670FFF710B9019B5E4803EBC1
:4018800043038A4210F8230002EB010340F2B881521A99B2FF29D4B200F2B781A042FFF424ABDBB2984228BF18460446FFF71DBB524B1B785A0715D5504A23F004031370E6
:4018C0004F4A504B12785B784D4922F010020A70013B4C4ADBB2537023B94B4A137823F010031370494A00231370FFF76CBB0193022309E6464A474E137803F0FE03137037
:4019000007F07EFB3378444903F0FE0333700B78424A03F0FE030B701378414903F0FE031370F3780C6007F06FFB3E4BDFF840E11A783D493D4E3E4802F0AF0204701A70DB
:40194000CEF800600A701A783A4842F008020A701B78394A0B700378384EDBB2137011F8183C3749DBB2374A0B701378364ADBB2137004F04DFE354A354B14701F7007F092
:4019800009F807F03DFB334B334C9A883349531EB3F5007F3CBF5A235A434FF0000323802F4C33802370224C28BF4FF434422370DFF8C0E02B4C0A44AB812B4ECEF80010B1
:4019C00022602A4AAB603380137007F01DFBFEF78ABB012004F060FFFFF70BB865650040466500407E3700207F370020803700208437002000E200E0083800203938002035
:401A00000D5100403C380020005B004034370020004E0040004F0040A3430040B34300409481FF1FD836002078640040A1550000A081FF1F6B650040DC80FF1FC63600207D
:401A4000D936002064640040DA360020CA360020CB3600206481FF1FC4360020A481FF1FC8360020D880FF1FA43500207D370020CC80FF1FD080FF1FB548B649B64A002BFE
:401A800008BF02460B78B54823F0030343F01B030B700370FFF729B923467422B0498DF82B300B78AB208DF82C20C221B6228DF828008DF829108DF82A20002B3EF499AFD6
:401AC000A849A94B0DF1280E1EF8016B0C7818782546C0B200F1FF3C221AC4EB0C0CA2F17F02BCFA8CFCB2FA82F24FEA5C1C5209A04288BF6246002AE9D1A04216D020060A
:401B00005ABF621CD2B20122984848BF00250A70974A46551278920702D5964A022010600DF12D029645CFD1FEF763BF904A12785207E4D4904A1670F2E77422AEE78F4C86
:401B4000FEF70EBF1978122003F064FE844BAB22C2218DF828201B78B8228DF829108DF82A2000217A228DF82B108DF82C20002B3EF43FAF7B497C4B0DF1280C1CF8016B6F
:401B80000C7818782546C0B200F1FF3E221AC4EB0E0EA2F17F02BEFA8EFEB2FA82F24FEA5E1E5209A04288BF7246002AE9D1A04216D022065ABF621CD2B201226B4848BFCA
:401BC00000250A706A4A46551278900702D5694A022010600DF12D029445CFD1FEF709BF634A12785007E4D4634A1670F2E799B2FF2947D90024944238BF1446FFF775B903
:401C00009AB2FF2A7FF64DAE0024844238BF0446FFF76BB9002A00F0ED804E4A4F49137823F0030343F0190313700B704A4AFFF7CDBAB6F5FF7F80F0E980B11C5A2389B23A
:401C400003FB06F6CAB202920A0A03924C4A002317703F220492012466E4454A127850073EF5FDAD444A1670FEF70ABE394A3B49137823F0030343F0180313700B70344A78
:401C8000FFF733B8DBB29A4228BF1A461446FFF72CB93C4B1978FFF75CBA3B4A3B4C13783B4943F01003137094F800E02378394E3F2003F0FE0323704FF4007208705FFA5C
:401CC0008EF3307034493548019307F09DFB4FF400723349334807F097FB334B0021F82231701A70019BDB0703D5237843F001032370254A254C1378264E43F0100313702A
:401D000094F800E0237822493F2003F0FE0323704FF4007208705FFA8EF330701E491F48019307F071FB204B0021F82231701A70019BDE0703D5237843F00103237007F059
:401D40005FF91A4B00221A7007F05EF9FEF7B9BF59570000CB80FF1F155700007B6400407E3700207F37002080370020843700206565004000E200E046650040E380FF1F06
:401D8000D480FF1F39380020A643004080C7004088C700408CC70040D898000000C00040D89A000000C2004084C700409881FF1F07F026F9A44AA5491378A2F6593203F015
:401DC000FE0382F8593B0B7803F0FD030B70137803F0FD0313709E4B91F86C2B00221A609C4B1A7007F010F9FFF771BB03F07CFEFFF762BB984A9949137823F0030343F08F
:401E0000180313700B70964AFFF7E0B981883E204B1EFE2B94BFC9B2FF2103F0FBFC01230393FF234BF2F22602930FE78D4BFFF7D5BB8D4B2F701A68D00740F102811A6829
:401E400022F001021A6000BF00BF00BF874E3760084607F0D9F8864B1A78940740F1EF80844AB6211170E0200D21107011701A78910706D41C46182007F0BAF823789B079D
:401E8000F9D57B4B1A78920703D51C78A40800F0C780072407F0B4F832680021012A034629707EF4E7AE70490A6842F001020A6000BF00BF00BF00221846326007F0A4F8CB
:401EC000002C7EF4D9AE05F0FDFAFEF7D5BE664B17701A68D00740F1B0801A6822F001021A6000BF00BF00BF604E3760084607F08BF85F4A1378980740F19D805D4BB6215C
:401F00001970D5200221187019701178890700F19280402119709DF82800114618709DF829201A709DF82A201A709DF82B201A709DF82C201A709DF82D201A709DF82E2058
:401F40001A709DF82F201A709DF830201A709DF831201A709DF832201A709DF833201A709DF834201A709DF835201A709DF836201A709DF837201A700B783D4A9807FBD55C
:401F800013789B0757D513789B0854D13A49137891F800C04978029199074CD5354BD82005214FF0B60E83F800E018701970117801F0020101F0FF0000293CD1402119706F
:401FC00018709DF80410197083F800C09DF8081019701178264B8807FBD51A7891072AD51B789B080BBF0124002475227422019207F006F833680021012B29701B4E019AB1
:4020000008D1194D2B6843F001032B6000BF00BF00BF3160019206F0F7FF2346019A3DE506F0EEFF32680346012A2C703FF43BAF06F0EAFF47E77422D9E70C4E56E70424CD
:4020400028E70A4E04E700BF0C4F0040A3430040D0360020CC360020CB80FF1F7B6400405957000081560000040008400837002022470040204700400C3700202DE98048FB
:4020800087B062B6B54B1978002901F0528606F0B7FFB349B34D0B78B34A43F020030B702B78012443F010032B70146011F8053CAE4E43F0100301F8053C0225A1F507515D
:4020C0003560383915600B78A94A43F020030B701378A84E43F02003137006F095FFA64BA64A214620461A6003F094FB06F088FFA349A44A0B7843F008030B70137843F03F
:402100000803137006F080FF06F07AFF33780146002B01F0C78506F077FF06F071FF9849984A0B78984C43F008030B701378C82543F00803137025700B7B43F010030B7306
:40214000137B01F5587143F0100313730B789D06FCD58E4E06F058FF8D488E493378012202700D784BB98C4B32701A7802F0FC021A701A7842F003021A70884888490378BD
:40218000884A43F0600303700B78707843F002030B7013787D4943F00203137050B902F5A65206321378012003F0CF0343F0300348701370B378754953B97B4B01201A786A
:4021C000887002F0FC021A701A7842F003021A70724A73481378734943F0600313700378F27843F0080303700B78684F43F008030B70002A01F03F856C486D490378674A45
:4022000043F0020303700B786A4C43F002030B701378284643F080031370257005F0D8F933795A4953B9644B01201A78087102F0FC021A701A7842F003021A705748584937
:402240000378584A43F0600303700B785B4D43F004030B70137843F0040313702B78DC0741F1068523F00103554A2B701378554C23F0200313702378013BDBB223702BB9BC
:4022800012F8583C23F0200302F8583C2B784B49980712D523F002034B4A0B70137823F0010313706378013BDBB263702BB992F8F33923F0100382F8F3392B783F495A0749
:4022C00012D523F00403404A0B70137823F0100313706378013BDBB263702BB992F8F33923F0100382F8F339384FDFF8EC80FF2200233A7088F8003005F048FC3A78FF2A4B
:4023000001F0B384012A00F0898001239340022AD9B22B786DD8194228486AD0DFF8BCE023EA01035EF82210DFF8B4E003700B781EF802C0DFF8ACE023EA0C031EF80220BA
:402340000B70A35C013BDBB2A354002B50D12049204B51F822109A5C46E000BF7E3700209A6500409964004000E100E080E200E0B2430040073700204037002015580000C2
:40238000A0430040B0430040014700407481FF1F04380020E380FF1F5A58004077580040A4430040B44300405E580040A9430040B9430040E280FF1F5C580040393800208D
:4023C000585B00403C3800200D510040E180FF1F5C9D0000589D0000343700206C9D0000689D0000649D00000B7823EA02030B7003789A0710D443F00203C34A2B70137836
:4024000043F001031370637823B9C0490A7842F010020A700133637001233B7098F80030BB4C002B41F01B8405F02EFCB94972790B78B94803F0FE030B70002A01F0EC83C1
:40244000B64AB7491378B74C43F0020313700B78B27943F002038F250B70AF482570002A01F07383AD49AE4A0B78AF4843F001030B701378AD4C43F001038321AC4D13706C
:4024800004F1180A01704FF000094FF001086A7BA97B8B18571A8A4298B2FFB241F2EE8299B2FF29DBB201F2EC82BA4281F0FD822B69384698470C3404F80C7C44F8089C9B
:4024C00004F8048CA24505F114054FF00107DED1984B02221A7006F059FB96F80780DFF838A2B8F1000F01F0E682934B93481A78934C42F010021A700278924942F0100221
:4025000002702278904F42F0010222701A783F2042F010021A70257823784FF4007203F0FE032370087089493870894806F06CFF4FF400728749884806F066FF874BEDB271
:402540000021F82239701A70EB0703D5237843F00103237041F6FF72814D824C2B0C934214BF1A464FF400527F4B01208327207000211F704FF4804758709970D9709F808E
:40258000DA8006F025FD05F089FC070602460ED444F61061C30003F1804303F5F04303201880ADB207209A70D8709980DD802078172803D86D4B01010B445A7206F0F6FC30
:4025C0006B4B00224FF4804183201870627010465A709A70DA709980D98006F0F9FC05F05DFC024610060ED444F610654CF2A070D30003F1804303F5F043032119809A702A
:40260000D9709D80D8806078172803D8574B01010B445A7206F0CAFC41F6FF71554D564B2A0C8A4208BF4FF4005283271F70022100204FF4804759709870D8709F8008461B
:40264000DA80A17006F0C4FC05F028FC010602460ED44CF2A871C30003F1804303F5F04303201880ADB207209A70D8709980DD80A078172803D83D4B01010B445A7206F01D
:4026800095FCF07BE378002814BF0320002023F003033A493A4ADFF8F0E043F0180301270025034337480B7062608EF800708EF8005035740078DFF8D4C0C0B28CF80000D3
:4026C0001EF81F0CDFF8C880C0B288F80000AEF11B0E9EF800E0DFF8BCC0DFF8BC809CF800005FFA8EFE88F800E0DFF8B0E000F0AF008CF800008EF80000F07BDBB2A84219
:4027000014BF032028464BE00D510040005B004034370020004E00407481FF1FA8430040B8430040815B0040805B004008380020309D000038380020A6430040B6430040E9
:4027400080C7004088C700408CC70040D898000000C00040D89A000000C2004084C700407C81FF1FC880FF1F0876004010700040007600408081FF1F107600407B64004088
:40278000595700006B6500407F640040DC80FF1FD9360020D8360020DA3600207864004023F0030343F0180303430B70E370626003F02EFF022006F087F9AE4940F2E732DC
:4027C0000B78AD4C3B400B702078AC4B00F0FC0020700C78AA4844F004040C701C78DFF8F8E204F0CF041C701C78777444F030041C701C78DFF8E4C204F0F0041C701C780A
:40280000DFF8DC8244F00F041C7003789D4C3B430370ACF80020AEF8002025700B789A4A03F0FE030B701178984B01F0F70111701978DFF8B09201F0F7011970217810F8B3
:402840000D1C394000F80D1C1EF8104C904904F0FC040EF8104C10F80DEC8E4C4EF0040E00F80DEC91F800C0DFF87CE20CF0CF0C81F800C091F800C04CF0300C81F800C050
:4028800091F800C00CF0F00C81F800C091F800C04CF00F0C81F800C02178DFF850C2394321707D49FF24AEF80040ACF8004088F800500F7010F80D1C01F0FE0100F80D1CF2
:4028C000117801F0FB011170197801F0FB01197098F800101EF8100C704938400EF8100C1CF8100C00F0FC000CF8100C1EF8100C40F004000EF8100C087800F0CF0008703A
:40290000087840F030000870087800F0F00008700878B77440F00F0008701CF8111C604839430CF8111C5F4904800C8008F80C5C1EF8101C01F0FE010EF8101C117801F071
:40294000FD011170197801F0FD01197018F80C1C10F810EC54490EEA070E00F810EC1CF81CEC0EF0FC0E0CF81CEC10F810ECDFF880C14EF0040E00F810EC91F800E00EF0FE
:40298000CF0E81F800E091F800E04EF0300E81F800E091F80080E64608F0F00881F8008091F8008048F00F0881F80080DFF8448198F80010394388F800103C49A9F8004086
:4029C0000C8088F8025010F8101CF77401F0FE0100F8101C107804F1E02400F0FE0010701A78334F02F0FE021A7098F80220DCF8002003F1A023042081342E4920604F3398
:402A00009764E0242C4A1C7008601D7013782B4943F0400313700B78294843F04003294CDCF800200B704023D158814208BFD45003F1040308BFDEF80020C02BF4D122484E
:402A4000224D2349002301242C70D06033750B78202003F0FD0343F002030B701D4D0191DFF894A006F030F8DFF890B0DFF890904DE000BF244F0040264F00402F4F004011
:402A8000254F0040274F0040A3430040B3430040234F0040194F00407C370020174F0040104F0040124F00400B4F0040064F0040A555000000E100E0A2430040B2430040F9
:402AC000E97E0000F558000029590000DC360020205100407D3700202A4F0040284F00401B4F0040044F00401C4F00401E4F004008ED00E0014F0040CB360020CA3600203E
:402B000080370020327DB94B002A40F0E181B37DB64A002B40F0E881517D99B153752B78B34C012B0ED02378022B0BD021783C2002F070FE2378002B00F0998421783D200E
:402B400002F068FE01F050F9B37D002B40F0CC812B786BB9A74B1B7853B9A74B1A783AB99AF8002022B99BF800200AB901221A70A14BA14A1B78002BC4D0A04B00211B78A4
:402B80001170002B36D09E4FDFF8BC8207F1040C9C4B17F8014B197899F800200846D2B202F1FF3E8B1AC1EB0E0EA3F17F03BEFA8EFEB3FA83F34FEA5E1E5B098A4288BFBD
:402BC0007346002BE8D18A4200F048840B068E4A4CBF00204B1C14548A4A54BFDBB2012313708A4B1B78990744BF0223C8F80030BC45CDD1019A137803F0FD0343F00203A2
:402C0000137006F0FDF9824B814A1B78814903F0FE0313700B78A2F6653203F0FB030B7013787D4903F0FB031370724A012313707A4B19601B687949002B74D04EF66024B9
:402C4000A34240F22C87A3F56A422346603A0A606F4A6F4C12786F4902F0FE0222700A786F4F02F0FB020A703A7801F67931063402F0FB023A700B8023806A4B1F789C4674
:402C8000694B1B78002F3ED1614B614A1B78DFF8BC8103F00103137098F800E0634B0EF0FC0E88F800E092F80080DFF8A4E148F0040882F8008093F8008008F0CF0883F898
:402CC000008093F8008048F0300883F8008093F8008008F0F00883F8008093F8008048F00F0883F800809EF800304FF0FF0843F001038EF800300123A1F80080A4F8008041
:402D0000D7708CF800304349454A0B7843F004030B70137843F0040313703D4B1B7843F0010382F8653B06F06FF906F069F94EF660213F4A374C1378A2F6593203F0FE0368
:402D400082F8593B237803F0FD0323701378012403F0FD031370374B1C70374B364C19601B68002B00F0AD808B4240F28F86A3F56A420B46603A22602D4A264F1178DFF897
:402D8000A0C001F0FE0111703C782C4904F0FD043C709CF800E02A4C0EF0FD0E8CF800E096F812E007F66C370B8023803B78BEF1000F76D11378DFF89C8003F00103137023
:402DC00098F800C01F4B0CF0FC0C88F800C092F80080DFF884C048F0040882F8008093F80080FF2208F0CF0838E000BF7481FF1F7D37002074370020DC3600207E370020E7
:402E0000849600007F3700208437002065650040184F0040A34300407011010078370020B34300407C3700201B4F0040234F00400C4F0040CC360020D0360020104F0040B8
:402E4000124F0040174F004000E200E01A4F0040194F00400E4F00400D4F004083F8008093F8008048F0300883F8008093F8008008F0F00883F8008093F8008048F00F08FE
:402E800083F800809CF800304FF0010843EA08038CF800307D4B83F812800A80228087F800E07B4A7B49137843F0020313700B7843F002030B7092F8693B43F0010382F8DB
:402EC000693B06F0A1F8327D704B002A3FF41FAE00221A75019A137803F0FD031370B37D6A4A002B3FF418AEDFF8D48102F0FCFD06F086F898F80030654F03F0FE0388F843
:402F000000303B78634A03F0FD033B70614B62491B78002403F0FD0313700B785F4B03911C605F4B1C7006F06FF85E4B5E4A1C7034751378574903F0FD0343F0020302979A
:402F400001911370052305920493059A0024137803F0FD031370F47506F052F898F80030022203F0FE0388F8003002990B7803F0FD030B70019F4FF4FA513B7803F0FD0391
:402F80003B70474B1A70454B19601B68002B73D04EF660218B4240F26C85A3F56A423F4B603A1A600B4698F80010DFF8E0E001F0FE0188F80010029F3C493C7804F0FD04E2
:402FC0003C70019AB47C177807F0FD071770384A13800B80039B1B78002C3DD198F80030DFF8E0C003F0010388F800309CF80070304B07F0FC078CF8007098F800C02E4F26
:403000004CF0040C88F800C093F800C0284A0CF0CF0C83F800C093F800C04CF0300C83F800C093F800C00CF0F00C83F800C093F800C04CF00F0C83F800C03B784FF0FF0CDF
:4030400043F001033B700123A2F800C08EF81230039BA1F800C01C70029A137843F002031370019A137843F00203137098F8003043F0010388F8003005F0C6FFF37D03F01E
:40308000FF07002B48D10D4C25E000BF7481FF1FA3430040B34300400F4F0040D0360020CC360020DC36002020510040124F0040104F0040174F00400D4F00407D3700201B
:4030C0000C4F00400E4F0040217802F0A3FB00F08BFEF37D03BB737D002BF8D06C4B3C205F752B78012BF2D02378022BEFD0217802F090FB23783D20002BE5D1237812202A
:4031000003F0FF02002BDFD1104603F0C5FB00F06BFEF37D002BDED00024F47505F070FF98F8003003F0FE0388F80030029F3B7803F0FD033B70019A137803F0FD03137032
:4031400003990B7853490C6053490C7005F05CFF0598037803F0FD0343F002030370F47505F04EFF98F80030022203F0FE0388F800303B784FF4FA5103F0FD033B70019F58
:403180003B7803F0FD033B70434B1A70414B19601B68002B73D04EF660218B4240F26484A3F56A423B4B603A1A600B4698F80010DFF8DCE001F0FE0188F80010029F374901
:4031C0003C7804F0FD043C70019AB47C177807F0FD071770324A13800B80039B1B78002C3DD198F80030DFF8C8C003F0010388F800309CF800702B4B07F0FC078CF800706B
:4032000098F800C0284F4CF0040C88F800C093F800C0234A0CF0CF0C83F800C093F800C04CF0300C83F800C093F800C00CF0F00C83F800C093F800C04CF00F0C83F800C018
:403240003B784FF0FF0C43F001033B700123A2F800C08EF81230039BA1F800C01C70029A137843F002031370019A137843F00203137098F8003043F0010388F8003005F047
:40328000C3FEF37D03F0FF07002B3BD1074C18E07481FF1FD0360020CC360020124F0040104F0040174F00400D4F00407D3700200E4F0040217802F0ADFA00F095FDF37DF0
:4032C00003BB737D002BF8D08F4B3C205F752B78012BF2D02378022BEFD0217802F09AFA23783D20002BE5D12378122003F0FF02002BDFD1104603F0CFFA00F075FDF37D93
:40330000002BDED00024F47505F07AFE98F8003003F0FE0388F80030029A137803F0FD031370019A137803F0FD031370039B1B78764B1C60764B1C7005F066FE049B013B2E
:4033400013F0FF0304937FF400AE9DF8102001238BF800208AF8003005F01CFB6D4CDFF8A8810027737DB3B188F815702B783C20012B10D02378022B0DD0217802F04AFA8E
:4033800023783D20002B00F08980217802F042FA737D002BE8D100F027FD2B78012B72D02378022B6FD05C4B5C4A1B8812889BB292B29A425849594865D82378002B78D1A5
:4033C0000B8802889BB292B29A4272D89AF80030534A3BB99BF80030524903F0FF07002B00F058829BF800304E4A002B40F06F814D4B1B78002BB2D04C4B4C4A1B78002BF1
:40340000ADD0002313704A4B494A1B889BB2ABB11388013B9BB213802B78012B0ED02378022B0BD0434B44491A780B7802F0020282F0020203F0FD0313430B703C4B1B8864
:403440009BB2002B40F08A8037493B4A0B70137803F0FD0343F00203137080E7374B1B785A073FF5B3AB364B1C70FFF7C1BB237803F0FF00002B00F00E832178122002F0FD
:40348000C9F9FFF75FBB2F4B2E4F1B78022B1CD000238BF800308AF8003060E72378122003F0FF02002B7FF470AF104603F0F4F958E7244B234F1B78022B00F0E9800023B8
:4034C0008BF800308AF8003092E705F099FD1E4B1D491B781D4A03F0FE030B701C4BA1F675311B78DFF870E003F0FB030B70137803F0FB0313709EF80020164A00231360B6
:403500003B7005F081FDC3E77481FF1FD0360020CC3600207D370020C4360020C6360020CB360020CA360020D4360020D5360020D63600202151004020510040656500402F
:403540004665004074370020184F0040B3430040A3430040783700201B4F004005F050FD44F62062B149B24F0B78A1F6593103F0FE0381F8593BAE4B1B7803F0FD033B7051
:403580000B78032703F0FD030B70AA4B1F70AA4B1A601B68A84A002B77D04EF6602E734540F23E81A3F56A43603B13609F4BDFF8A0C21A78DFF8D08202F0FE021A709C4A08
:4035C000117801F0FD0111709CF800709B4907F0FD078CF80070B77CA8F800E0A2F86FEB91F800E0002F3FD193F800E0944A0EF0010E83F800E092F800C0DFF890E20CF06C
:40360000FC0C82F800C093F800C04CF0040C83F800C09EF800304FF0FF0C03F0CF038EF800309EF8003043F030038EF800309EF8003003F0F0038EF800309EF8003043F0AE
:403640000F038EF800307F4B4FF0010E1B7843EA0E0302F8013C7C4B83F812E07B4BA8F800C0A3F800C00F70714B714A1B78784943F0020313700B7843F002030B7092F8E8
:40368000693B43F0010382F8693B05F0BDFC66E605F0B6FC6F4B6F491B786D4A03F0FE030B70634BA1F675311B78DFF8D4E103F0FB030B70137803F0FB0313709EF800201A
:4036C000654A002313603B7005F09EFCF7E6634B00211B781170002B34D0DFF8B4E10EF104085F4B1EF8017B197899F800200846D2B202F1FF3C8B1AC1EB0C0CA3F17F03E8
:40370000BCFA8CFCB3FA83F34FEA5C1C5B09914238BF6346002BE8D191427AD00B06514B4CBF002001311F544D4B54BFC9B2012119704D4B1B78980702D54C4B02221A607B
:40374000C645CED1012300278BF800708AF8003005F056FC3F4B01901B783E4903F0FE030B70334B32481B78394A03F0FB03037013784FF0020E03F0FB0313703C4B3D49F7
:4037800083F800E0344B19601B683349002B3CD04EF6602E734540F2DF80A3F56A427346603A0A602B4A2B491278214802F0FE020A701F4ADFF898E0117802F6793201F047
:4037C000FB0101709EF800702B4907F0FB078EF8007013800B80294B294F93F800E03B78BEF1000F00F0BB80114B11491B78184A43F004030B70137843F004031370154BDA
:403800001B7843F0010382F8653B019805F0FCFBEEE5154B1B785A0780D41A4B1F708FE700211FFA83FE1160C0E600BF0C4F0040A3430040CC360020D03600200F4F004002
:403840000E4F00400D4F00407481FF1F124F0040B3430040184F0040783700207E3700207F370020843700206565004000E200E074370020A08601001E4F00407C370020EB
:403880001B4F004046650040104F0040174F00408496000001230F70137005F0B1FBBE4B01901B78BC4903F0FE030B70BB4BBB481B78BB4A03F0FB03037013784FF0020ECD
:4038C00003F0FB031370B74BB74983F800E0B74B19601B68B549002B3AD04EF6602E73457ED9A3F56A427346603A0A60AA4AAA491278AA4802F0FE020A70A84ADFF8A0E2CA
:40390000117802F6793201F0FB0101709EF80070A74907F0FB078EF8007013800B80A54BA54F93F800E03B78BEF1000F5BD09B4B9A491B789A4A43F004030B70137843F05C
:4039400004031370944B1B7843F0010382F8653B019805F059FB45E50F609BB222E78E4B8D481B78DFF8A08203F00103037098F800C0924B0CF0FC0C88F800C090F800800C
:40398000DFF888C248F0040880F8008093F8008008F0CF0883F8008093F8008048F0300883F8008093F8008008F0F00883F8008093F8008048F00F0883F800809CF8003050
:4039C0004FF0FF0843F001038CF80030A2F80080784A0123A1F8008087F800E0137003E70F609BB282E76C4B6B481B78DFF8188203F00103037098F800C0704B0CF0FC0CA5
:403A000088F800C090F80080DFF800C248F0040880F8008093F8008008F0CF0883F8008093F8008048F0300883F8008093F8008008F0F00883F8008093F8008048F00F08CE
:403A400083F800809CF800304FF0FF0843F001038CF80030A2F80080564A0123A1F8008087F800E0137062E7554A9BB21460FFF79DBB534A9BB21460FFF795BAFF2813D9D0
:403A80000027974238BF1746FEF712BD00229BB22260FFF771B902F0FFFEFFF753B800229BB20A60FFF7D4B8DBB29A4228BF1A461746FEF7FDBC4348434A0378434943F085
:403AC000100303701378DFF8489103F0FE033F20137008704FF480723D4989F800003D4805F092FC4FF4807239493B4805F08CFC4FF4807239493A4805F086FC394D4FF443
:403B00000072394939483A4C05F07EFC4FF400723849394805F078FC0FCD0FC40FCD0FC40FCD0FC495E80F00DFF8E8E084E80F00324D334BF82289F800808AF807708EF8B1
:403B400000802F701A70FEF7D0BC2E4B01F5A35109311A700A701A78A1F5905102F0F3021A701A78193942F004021A701A780124C2F3810202F19242063292F820218471AC
:403B8000D2B20A701A7802F0FD021A701A78D2B21A70FEF767BC00BF184F0040A3430040B343004074370020A0860100783700201E4F00407C3700201B4F0040234F0040E3
:403BC000D0360020A643004080C7004088C700404494000000C4004000C500404495000000C6004044960000D898000000C0004000C700408896000000C200409CC700408C
:403C000084C70040205800401A4F0040194F00408CC7004098C700405F4B01241A7081F8252A1A78A1F2F77102F0F3021A701A7842F004021A701A784471C2F3810202F1D9
:403C40009242063292F83021D2B20A701A7802F0FD021A701A78D2B21A70FEF7F1BB05F081F900232370FEF7DFBB2B78FEF7C1BB4A4CFEF70BBB4A4B4A4C0C21197023787C
:403C8000494943F02003237003200A7003F0A0FC2378012203F0FC0343F003032370FA70FEF7AABA414B34701A68D00772D51A6822F001021A6000BF00BF00BF3C4D2C60EB
:403CC000084605F0A1F93B4B1A78910760D53A4A0D21B624E0201470107011701A78910706D41C46182005F083F923789F07F9D5304B1A78920702D51C78A4083BD00724E0
:403D000005F07EF92B680021012B024631707EF402AA26490B6843F001030B6000BF00BF00BF002310462B6005F06EF964B3FEF7F4B9224A224E1568224C2348E0232E648F
:403D400023700170214814687225214A0570214E214920201070214D214866640B700626472402212E70047082F8FC101D4A01231370FEF78CB905F043F92B680246012B5C
:403D80003470C6D005F040F903F09CFBFEF7C5B90424B5E7064D93E7245800403C3800200458004005580040065800400400084008370020224700402047004008ED00E016
:403DC0005D74000000E400E0E03600208A65004089640040F573000001E400E025650040356500407E3700202DE9F04FDFF808B3A9B09BF80030012B77D09BF80030022B90
:403E000073D0B44B1B781C0600F13A8302220024B14B1B78180600F1BE82B04B1B781A0600F1CD82002C40F0DC82AD4B1B781B0617D5AC48AC490378AC4A03F0FE030370B6
:403E40000B7803F0FE030B70137803F0FE03137005F0D6F8A64A137843F00803137005F0D3F8A44C0F2002F04BFA2378002B44D005F0C6F825780023EDB2237005F0C4F809
:403E8000EF0700F1A283AE0700F15683680700F11A83290731D5944A944B1078914940F00100107018788E4D40F0010018700878002640F0010008702878087800F0FE00F3
:403EC0000870117801F0FE0111701A7802F0FE021A702B7866609BF80030022B01F030800321462001F096FC07E07D4B1B781D0600F11C81082002F003FA9BF800207E4BB5
:403F0000032A00F018821A78012A00F049811B78022B00F05381DFF8E491DFF800827749B8F80020B9F8003092B29BB29A4280F03A81B8F800309BB2002B00F0EA81DFF897
:403F4000E0E1B8F800306E48BEF8642A9BB26D495A2404FB0304150AAB201E238DF843508DF840000E468DF84220674F8DF841300DF147000DF1A10525E07379002B40F0FB
:403F8000EE80227894F801C0A3781B0443EA0C2313431A025C4A48BF43F07F431278012A03D1002BB8BF1F335B114FEA232C1A1400F8033C00F802CC00F8012C0330A84224
:403FC00004F1030411D00B79002BD6D194F800C06278A37800F803CC00F8022C00F8013C0330A84204F10304EDD1002210AB27A853F8041B834282EA0102F9D19DF89D10FE
:404000009DF89C30C2F307204B4053403F4C5840BEF8641AC2F307434340207883EA12624B1C8DF89E20AEF8643A002837D0384F384DDFF8F0B0DFF8F0C00DF13F060DF16B
:404040009E0A16F8014F39782A780846D2B202F1FF3E8B1AC1EB0E0EA3F17F03BEFA8EFEB3FA83F34FEA5E1E5B098A4288BF7346002BE9D18A4200F056810A0659BF013144
:40408000C9B2012100200BF8004039709CF800309B0702D5204B02221A605645D1D1B8F800301E4901339BB2A8F80030B8F80020B9F8003092B29BB29A4271D30B889BB2FA
:4040C000FF2B00F26681D9B2382029B0BDE8F04F01F0A0BB274F00401B4F00400F4F0040034F0040004F0040A3430040B34300408481FF1F9081FF1F7D370020C636002014
:40410000A481FF1FD080FF1FDE80FF1F7E3700207F3700208037002000E200E0C4360020402B00208437002065650040B248B3490378B34A03F0FE0303700B7803F0FE0338
:404140000B70137803F0FE03137004F059FFAD4A137843F00803137004F056FFCAE694F800A06378A27897F800C0120442EA0323BCF1010F43EA0A0AA34A0AD01AF4003F50
:40418000CAF311033FF40AAF6FEA83336FEA933304E71AF4000F14BF4AF07F435346FDE629B0BDE8F08F994B9A7812B100229A705A7029B0BDE8F04FFBF78ABF944E954F57
:4041C00035783B78EAB20192904C03F0FF02002B40F07281237C002BE2D08F49DFF89082084698F800300391DFF888928B4943F004032274C9F800000B7098F80020884BDF
:404200000A701978452001F005FB01233B7085497A4D0A78DFF8E8A102F0FE020A7004F0EFFE75490A78033102F0FE0201F8032C2A7802F0FE022A709AF8002002F0FE022A
:404240008AF80020002209786260029204F0DCFE98F80010029A039B704801F0AF01227488F80010C9F80030017098F800106E4B41F00801017098F800106C4C01701978BC
:404280001438C9B2217010F8041C694CC9B2317000786849C0B2207008686749674C411A4908A4FB01316648664BDFF8CC91C1F34F110124A9F800101A70047004F0A0FE25
:4042C00004466148DFF8B4E10278604902F0FE0202702A785E4802F0FB022A709AF80030022203F0FB038AF800308EF80020086001F084FF204604F087FE019B002B40F026
:40430000D180B9F8001089B2FF2900F28481C9B2C9E00B8837209BB2FF2B94BFD9B2FF2101F078FA0BE69CF800305B073FF5A5AE484B1C70B1E6484B5B78002B3FF439AF2B
:4043400004F05EFE454B00271C781F70E4B204F05BFE002C40F0618104F052FE404A13781470DCB204F050FE44B13E4E3368002B00F0FD85384A1A20117998473A4C237846
:40438000032B3FF616AFDFE813F09D037703F5018901FF2198E62C4C18482378184903F0FE032370037803F0FB0303700B7803F0FB030B7014F8093C1446190611D52B4887
:4043C0000E4903780E4A03F0FE0303700B7844F0040403F0FD030B701378E4B203F0FD03137004F00DFE074A13782343DBB2137004F00AFE19E500BF004F0040A3430040A9
:40440000B34300408481FF1FDE80FF1F9081FF1FD9360020C8360020A15500007864004064640040004E00406B650040DC80FF1FDA360020D080FF1FA481FF1FB7600BB640
:40444000CB360020CA360020184F004078370020A086010046650040383700202A3700202937002040370020443700200C4F0040D8360020CC80FF1FC63600207437002097
:40448000A44AA5481378A54903F0FE0313700378032203F0F70303700B78012403F0F7030B70B5E41946362001F0B4F9002333703B708BF8003030E5994BDFF8A892039371
:4044C000DFF8A482A3E6944A944B1078954940F0020010701878944E40F002001870087840F0010008703078087800F0FE000870117801F0FD0111701A7802F0FD021A7078
:40450000337804F07DFD8949894E0B780022DBB2012B0A70326000F0B980022B00F02285032B02D1834B01221A7004F06DFD0221462001F06FF9ACE4DFF8DCA1DFF8DC917E
:404540009AF80030DFF8248243F004038AF8003099F80030784A43F0040389F8003098F80030764F43F0010388F80030137898F8003003F0FE0388F800309AF8003003F092
:40458000FB038AF8003099F8003003F0FB0389F80030137804F034FD3E78694AF6B20023012E3B70136074D0022E00F0D28404F02BFD032E04D1634B1B78002B40F00685B4
:4045C0000121462001F026F960E4534A534B1078504940F00800107018785B4E40F008001870087840F0010008703078087800F0FE000870117801F0F70111701A7802F0A4
:40460000F7021A70337863780BB10123A370462004F05AFA37E4FF2145E74C4B1C79012C00F21F854A4BDFF848811D4618E081B2FF2927D8B24280F0FB83234405EB8303D1
:404640001B693046984704EB44020134E4B208EB8203022C08F822605F601F7200F0EF83A300191905EB81014A7B897B8818561A8A421FFA80FEF6B2D9D8BEF1FF0F40F2BC
:40468000D7830026964238BF1646D6E7314A13704BE7314B1E7004F0B7FC91E72B4B1E7904F0AEFC2D4B1A7A002A00F0FD840025DF681D7204F0A8FC238BE562A760284AE6
:4046C000002B40F0E984224AB1008B1902EB830387EAE7709B68A0EBE7701B1A002B0192226AB8BF5B429342DFF874E080F2BB84B0F5802F00F3B7849EF825303A46194681
:404700009EF826008EF82A3003F05EFF002840F0A2834EE5244F0040A3430040B3430040A15500000C4F00400F4F0040CC360020D0360020D53600201B4F004074370020B7
:404740007837002028370020274F004038370020309D00008881FF1FDC3600209081FF1F44370020CC80FF1FD8360020184F004008380020B74B1B79039304F041FCB64BB9
:404780001A7A02F0FF05002A00F00B840027DE681F7204F039FC039BB0499A000A921A4401EB820286EAE6709368A0EBE6701B1AAB48019183FB0001002871F10003E76253
:4047C000A660C0F2C58610F1FF5041F100014FF07F52002304F050FC08909E4B1879002800F0AB869F4B41F28732194601EB40100769062187EAE770A0EBE77002930023FB
:40480000C1FB00231046194641F28832002304F033FC002840F38D8601288246B8BF4FF0010A08990B460A460029B8BF4B428342D8BF00225345099240F3D284CAEB03032D
:40484000013B93FBFAFA00290AF1010AC0F2FE840A9B039A9A18019B03EB8202517B937B94F82A209942069240F2BE84C3EB01095FFA89F9C8460B449AB2FF2A94BFDBB239
:40488000FF230B93002F40F0B4843A463B460399069849010791404508DBDDF82C808045C0F2DC8380465FFA80F90123069A511C414502F1FF3280F262845FFA81F96BB10B
:4048C00067B1099951B16268674B0A449A42B8BF1A46664B9342A8BF13466360079A029B1344B3F8148094F8273008F1FF32B2F5805F28BF4FF480585D4A1BB11369534586
:4049000000F003860123E382A38A012213449BB208999342E160C4F810A084F82890A38284F8272002D013F0FF0F6FD1514E3368002B00F0F785069913209847A3681D462F
:404940003368290E002B00F0ED851D2098473368C5F30741002B00F0E5851D2098473368C5F30721002B00F0DD851D2098473368E9B2002B00F0D6851D209847089D336864
:40498000290E002B00F0CE85412098473368C5F30741002B00F0C685412098473368C5F30721002B00F0BE85412098473368E9B2002B00F0B7854120984733684FEA1A619C
:4049C000002B00F0AF85422098473368CAF30741002B00F0A785422098473368CAF30721002B00F09F854220984733685FFA8AF1002B00F0978542209847E38A3268FF2BE7
:404A000000F2BB83D9B20AB143209047039A0A9B84F82A901344019A484602EB83052B699847E28A124B4245C0F09183BAF1000F40F08A839B68002BB8BF5B42B3F5802F42
:404A400000F38283012003F083FE002840F00382FFF7AFBB383700209081FF1F309D000078741300D89C000000EE85FF00127A00443700204037002004F0C2FA0F4B1A7AA0
:404A800002F0FF05002A00F08C820025DE681D7204F0BAFA238BE562A660094A002B40F0B283002302226360A382E38284F82730E36023612270FFF77CBB00BF9081FF1F7D
:404AC00044370020B04BB14E93F804903368002B00F06182AE4A4946154615204FEA890A019298470AEB090305EB8303D3F8088037684FEA1861A7B12A20B8473768C8F3FE
:404B0000074177B12A20B8473768C8F3072147B12A20B84737685FFA88F117B12A20B8473768994B1979002900F07983994B41F28732184600EB4111D1F81080029388EA82
:404B4000E8700621A0EBE8700023C1FB00231046194641F28832002304F08EFA424683464FEA1861BBF1000F039208BF4FF0010B002F00F04F833F20B847039A3768C2F3EB
:404B80000741002F00F097843F20B8477F4B039A1F68C2F30721002F00F03C833F20B8477A4B5FFA88F11A68002A00F084843F209047764BBBF1FF0F1F6800F30F835FFABD
:404BC0008BF10FB14020B847029B734A03EB4913D98A6D4B12781B7900209A4221836060A082E08284F82700E060206184F82800A060E062E061206284F8240084F825000B
:404C000084F8260000F2CC82019A03EB830302EB8303597B9A7B914201EB020340F2BB829FB28A1AFF2FD0B200F2B1828142DBB203D3994228BF19460846019BD14403EBF6
:404C4000890584F8290084F82A002F69B84702F09DFF524A29791578FF2D30D0A9425BD00123AB40022DDBB227D8DFF848C19CF80000034221D0DFF868E120EA03035EF82F
:404C800025E047488CF800309EF8003010F805C0444823EA0C03405D434D8EF800302B5C013BDBB22B5443B9404D414B55F82050185C2B7823EA00032B70FF231370FF295E
:404CC0002AD001238B400229DBB224D8394D2878034220D1DFF808E103435EF821E030482B709EF80050435C2E482B43455C2E488EF80030435D63B9DFF8B0E02C4B5EF825
:404D000025E05B5D9EF800C04CEA03038EF80030435D013343551170274D2B78002B00F081813368194D33B1192098472B6813B102214420984702F0A7FF94F82A00B84746
:404D40001E491F4B1F4E1A780B78002A23F0030314BF032201221C481C4D43F0180313431B4A0B703370056013781A4D43F0100313702E782B781849184F03F0FE033F200A
:404D80002B704FF400722DE03837002040370020309D0000D89C000038380020E180FF1F689D0000649D00003C3800205C9D0000589D00003938002034370020CB80FF1F13
:404DC0008381FF1F7B640040CC80FF1F15570000A643004080C7004088C700408CC700406C9D00000870B9493870B94804F00CFBF6B20021B74B3970F822F1071A7003D5BB
:404E00002B7843F001032B7004F0FAF8B24B00221A7204F0F9F8B14A137843F001031370238B002B14BF012302232370FFF7C1B9C0B2824228BF02461646FFF7FEBBA84BEC
:404E40001979A84BA6481B680022C2700BB11B20984703F053FAA24BA34ADC78A34B211C18BF0121002511701D708BF8005001F0CFFB9F4B9F4901220D701A7003F08AFD49
:404E80002146112000F0C6FC9B4B1A78002A3FF490A99A4A84F077071278AB26C220B5211D708DF843408DF844708DF840608DF841008DF84210002A3FF47BA9904F914DE3
:404EC000DFF87492DFF874C2DFF874B210AE0DF145084FF0020A16F8014B39782A780846D2B202F1FF3E8B1AC1EB0E0EA3F17F03BEFA8EFEB3FA83F34FEA5E1E5B098A42F9
:404F000088BF7346002BE9D18A4212D00B0659BF4B1CDBB20123002009F800403B709CF80030990748BFCBF800A0B045D3D1FFF740B99CF800305A07E8D4734B1C70F4E735
:404F4000724B1B78002B7EF4CBAF00F0F3FDFEF7C7BF6849664A01260E70137004F054F8FFF72EBB6A4B01221A70FFF7DEBA694C2378032B3FF61DA901A252F823F000BF9F
:404F8000914F0000794A0000754700009D460000534B93F80490604B002701934FEA890ABFE504F031F8E36A5C4A01339342E36258497FF6FEA88A68284691F82A1003F0EC
:404FC00003FB00287FF447AFFFF7F3B8544A0121544B11701B68029304F012F8029B0190642202FB03F398F80020002B02F0FE0288F800209AF8002008BF012302F0FB02EB
:405000008AF8002099F8002002F0FB0289F80020454A3E70136001F0F1F8019803F0F4FFFFF7CEBA414803785A0714D443F004033F4A037013783F4843F0100313704378ED
:405040003BB9DFF800E19EF8002042F010028EF800200133437001232B7062E61346C14624E42146EDE6019B0E4403EB86052B6994F82400984794F82450E36929461A46AF
:4050800094F8260084F82A50A36003F09DFA00287FF4E1AEFFF78DB8013B9BB21383002B7FF487A8FFF70FBB03F0AEFFE36A1B4A01339342E362174C7FF67BA8164B06EBBD
:4050C000860603EB86031B69D2E700BFD898000000C0004084C700409081FF1F004E00403837002040370020C9360020DB360020CB360020CA360020DD3600207E3700203A
:405100007F3700208037002046650040C83600208B81FF1F44370020309D00007F841E00293700202C37002078370020393800200D5100403C38002084370020656500408C
:4051400000E200E0005B0040002F00F0D381079A029BA18A13441A8BB84B9142FFF429A8BAF1000F11D198680028B8BF4042B0F5802FCCBF0020012065E4FF2143E442456C
:40518000C8BF5FFA82F9FFF79ABB00205BE4884238BF084651E59AB2FF2AF8D8DBB248E5019A03EB830102EB81014A7B897BA44F03EB43038A4217F8237002EB010340D9C2
:4051C000521A99B2FF29D0B237D88742DBB2FFF434AD9F42384628BF18462EE5FF21F0E44FF0000AFFF734BB4FF00008C146FFF742BB099B73BB03996360490106981A4682
:405200000791FFF748BB013B9BB21383002B7EF4D0AF46E4BBF1FF0F7FF7D1ACD4E4894B1B78013BDBB2072B40F24C8108460A468846854B8346029394E4B84238BF384631
:40524000FBE49AB2FF2AF8D8DBB2C2E7CAF1000AFFF7FEBA039B02985B0119460793C3185A680B464158002A00F020811546D617CDE90C560998002F80FB010105460E4646
:40528000A8BFBE46CDE90456049D4FEA81064FEA850046EA9571B4BF4FF0FF3301234FEA40120E934FEA4113B8BFC7F1000E43EAD063121A63EB0103DDE904018018594145
:4052C0000E467146CA17F10041EA5071C300DDE90C560EFB06F0049305FB0200AEFB05230344059152EA030100F0DB80002A73F10001C0F2C98059104FEA32000026059D03
:40530000B6EBD57FDDE9045600F0B7802D1A66EB01062846314603F0AFFE0E99079A029B00FB01F11344DA680F9198686168002A00F09E801546D617CDE90C5681FB000124
:4053400005460E46002FA8BFBE46CDE90456049D4FEA81064FEA850046EA9571B4BF4FF0FF3301234FEA40120E934FEA4113B8BFC7F1000E43EAD063121A63EB0103DDE9ED
:405380000401801859410E467146CA17F10041EA5071C300DDE90C560EFB06F0049305FB0200AEFB05230344059152EA03015AD0002A73F1000149DB59104FEA32000026A5
:4053C000059DB6EBD57FDDE904562FD02D1A66EB01062846314603F04FFE0F9A0E9B039900FB03230A9A94F829000A44019901EB820292F90C2002FB030082B1099B002BBA
:40540000D5BF0021012101230023002A02DB1A460B461146002F05DB0A46FFF73CBA1346FFF739BA1A460B46FFF735BA2D184E412846314603F020FECFE700BF4437002042
:4054400008380020E280FF1FD89C0000DE0F901943F1000149104FEA300040424FF0010661EB4101ACE71046194601220023A6E701220023CDE90C2360E72D184E41284626
:40548000314603F0F9FD48E7DE0F901943F1000149104FEA300040424FF0010661EB41012DE7104619460122002327E701220023CDE90C23DEE6BBF1FF0F3FF785AB002727
:4054C000FFF77DBB41F28730324A002132F813800623C8F57A7888EAE872A2EBE872C3FB020141F28832002303F0C6FD42464FEA18619EE63846A26894F82A1003F064F8CD
:4055000000287FF4A8ACFEF754BE069B4B457FF4F9A94FF6FF71D38A8B421CBF0133D382FFF7F2B9E38AFF2B3FF670AA0022FFF769BA01208246FFF774B9174B1B78013BED
:40554000DBB2072B10D90746144B0293FFF761B9B0F1FF5041F1FF314FF07F52002303F08BFD0890FFF739B941F28730094A002132F813700623C7F57A7787EAE772A2EB7A
:40558000E772C3FB020141F28832002303F074FDDAE700BF189D0000E280FF1FD89C0000704700BF294A1378DBB213F0980F2AD0274918062DE9F0410B7027D4DA0613D47D
:4055C0001B0701D4BDE8F081224C23689847224A224B22601A78012A04BF02221A70204B01221A70BDE8F0811E4B1F4C1B7819491948DBB2194A237008601378022BEED084
:4056000002231370EBE7134B1B681847174D184C2878184E40F008000127377020702878104D207012781048D2B20A702A781249D2B202700A781149D2B213F0180F0A70E7
:40564000BCD1BDE8F041034B1B6818476B650040DC80FF1FCC80FF1FA15500007D370020C836002060640040D9360020D8360020786400408981FF1F64640040DA360020DE
:40568000F0B40E480E4C23680268934214D20D4EDD1C316821F07F4201313160D7B2C2F30721120C1F7059709A70256003689D4202D3054B01221A70F0BC7047D880FF1F04
:4056C000D080FF1F6C81FF1FC83600200D490E4A0B681068834213D230B40C48DD1C0478E4B21C704478E4B25C708078C0B298700D6013689D4202D3054B01221A7030BCEC
:40570000704700BFD080FF1FD880FF1F7C81FF1FC83600200C490A7848788B781B0443EA002313431A02094A48BF43F07F431278012A03D1002BB8BF1F335B110448054A88
:4057400001210360117070478081FF1FDE80FF1F9C81FF1F9881FF1F10B4144A14481178537892780478120442EA0323012C43EA010215D0C2F3110392030CD40278012A7A
:4057800003D1002BB8BF1F335B110A4A01211360117110BC70476FEA83336FEA9333EDE713024CBF42F07F431346E7E77C81FF1FDE80FF1FA83500201148124902680B8845
:4057C0009BB2C3B9104B19688A4213D230B40F49D51C0C78E4B214704C78E4B254708978C9B2917005601B689D4202D3084B01221A7030BC70470B88013B9BB20B80704750
:40580000D080FF1F7081FF1FD880FF1F8081FF1FC83600202DE9F04F2E4A2F4B12781C78D2B282F0C4034B4083B04340AB26C4258DF802008DF803108DF804208DF8053099
:405840008DF800608DF80150002C38D06E46DFF894E0224DDFF89090DFF890C0DFF890B00DF106084FF0020A16F8014B9EF800102A780846D2B2571E8B1A7F1AA3F17F0302
:40588000B7FA87F7B3FA83F37F095B098A4288BF3B46002BECD18A4214D00A0659BF0131C9B20121002009F800408EF800109CF800309B0748BFCBF800A04645D4D103B0DD
:4058C000BDE8F08F9CF800305F07E6D4044B1C70F3E700BF7D3700207E37002080370020466500407F370020843700206565004000E200E00A4B1968C1F308010F290AD996
:405900001039C9B21F2903D80123064A8B4013607E20FFF77FBFFF217E20FFF77BBF00BF04ED00E080E100E008B57F2003F0CCF8084C2378084803F0FD03237003F058FB1F
:405940002378054803F0FD0343F00203237003F04FFBEEE72051004000F91500F8B5514B1E88731EB3F5007F57D34F4E4F4B00251D7003F045FB4E494E4C0B784E4A03F084
:40598000FE030B7023784D4903F0FE032370137803F0FE0313700E600B68002B2DD04EF66024A34233D80D609BB2414A414D1178414C01F0FE0111702978414E01F0FE0176
:4059C0002970217805F6633501F0FE013D4F217033802B803C493C780B7874B3354C36492378334A43F0010323700B7843F001030B70137843F00103137003F005FB334AC8
:405A0000334B022111701A68324B1A60F8BDA3F56A42603A0A602346C7E747F2305303FB06F32D4E6422A6FB03135E0A06F2DC5606EB932302FB03F698E71378DFF8A0C0DC
:405A400003F0010313709CF800E0244B0EF0FC0E8CF800E092F800C0DFF888E04CF0040C82F800C01A784FF0FF0C02F0CF021A701A7842F030021A701A7802F0F0021A70A5
:405A80001A7842F00F021A709EF80030012213438EF80030A6F800C0A5F800C00C703A709CE700BF6881FF1FFCC02400A081FF1F004F0040A3430040B34300409481FF1F2B
:405AC000044F00408781FF1F034F00407D370020C480FF1FCC80FF1F818080800B4F0040024F0040014F004010B50D4C03F088FA23780C4903F0FE0323700B780A4A03F02B
:405B0000FB030B701378094903F0FB031370084AE37800230B601370BDE8104003F074BA184F0040A3430040B34300407837002074370020F8B54E4B1E88731EB3F5007F86
:405B400051D34C4E4C4B00251D7003F059FA4B494B4C0B784B4A03F0FE030B7023784A4903F0FE032370137803F0FE0313700E600B68002B2DD04EF66024A3422DD80D6047
:405B80009BB23E4A3E4D11783E4C01F0FE01117029783E4E01F0FE012970217805F6633501F0FE013A4F217033802B8039493C780B7844B3324C33492378304A43F00103C1
:405BC00023700B7843F001030B70137843F001031370BDE8F84003F017BAA3F56A42603A0A602346CDE747F2305303FB06F32A4E6422A6FB03135E0A06F2DC5606EB9323F1
:405C000002FB03F69EE71378DFF894C003F0010313709CF800E0214B0EF0FC0E8CF800E092F800C0DFF87CE04CF0040C82F800C01A784FF0FF0C02F0CF021A701A7842F07D
:405C400030021A701A7802F0F0021A701A7842F00F021A709EF80030012213438EF80030A6F800C0A5F800C00C703A70A2E700BF6881FF1FFCC02400A081FF1F004F004036
:405C8000A3430040B34300409481FF1F044F00408781FF1F034F0040818080800B4F0040024F0040014F00402DE9F04FDFF840A383B0BAF8005007466C1EA4B2B4F5007FB5
:405CC00080F083805A2606FB05F30093230A5FFA84FB01939B4ADFF804931378DFF8148303F0FE03137003F08BF9974A97491378974C03F0FE03137099F80030954A03F019
:405D0000F70389F8003098F80030002603F0F70388F800300B78167003F076F92278022A00F0F5808C4B8D4A4FF00008DFF8C89282F8008083F8008099F80030032B00F0A5
:405D4000C9808749874A884B4FF0000881F8008082F80080A3F8008003F052F9834B009AB7EB08071A441646DFF890928049814A18BF012789F80070A1F80080A2F8008050
:405D80007D497E4A81F8008082F800807C497D4AA1F80080C2F800807B497C4AA1F8008013607B497B4B02220E601A7003F02CF9794B1A7899F80030D2B283B9002A00F0BE
:405DC00083804FF0010842460AE0012301934FF434434FF0FF0B00934FF400757AE703226E49002381F800806D496E486E4F6F4E3B7090F800E081F800B037786C4B47F0C8
:405E000020071F703778032A1F709DF804400C70347844F080041C7034781C7081F800E0037823F0030343F0180343EA020303700B704DD05F4B6049013A012A8CBF1A46E8
:405E40000A465E4933780A600968594C5C4A23F0100343F040031160337023703378594A43F00803237033785749237013786FF48570DBB20B70024413785449DBB20B70B9
:405E80001379534ADBB21370FFF754FE337843F00203237033782370BAF80030B3F5007F03D9FF213E20FFF7B5FCFF2D94BFE9B2FF213520FFF7AEFC224A137843F0010346
:405EC000137003B0BDE8F08F344901230B708BE7404AB6E703F094F83F4A40491378A2F6593203F0FE0382F8593B0B7803F0FD030B70137803F0FD031370394B91F86C2BBC
:405F0000C3F8008089F8008003F07EF819E703F077F83449344B0A7802F0FE020A7099F80020324902F0FB0289F8002098F8002002F0FB0288F800201A780E60267003F0EC
:405F400063F8EFE6004E0040244F0040274F0040743700209281FF1FCB360020CA360020D4360020D5360020D6360020A481FF1FC4360020C6360020C8360020A081FF1F66
:405F80007081FF1F6C81FF1FA4350020D080FF1FD880FF1F7D3700206A81FF1FD480FF1F7B640040CB80FF1FD580FF1FD836002078640040CD560000B9570000C480FF1FC1
:405FC000CC80FF1F6B650040DC80FF1FD9360020DA360020815600000C4F0040A3430040D0360020184F00401B4F0040783700206881FF1FB3430040CC3600208381FF1FEF
:40600000F8B502F0FDFF314A0021314B11701A78304902F0FE021A700A782F4C02F0F7020A7022782D4F2E4E4FF47A7102F0F7022C4D2270398031802C782B490A7894BB3A
:4060400040F2E73E1A78DFF8A8C002F001021A709CF8002002F0FC028CF8002093F800C0224A4CF0040C83F800C01378DFF884C003F0CF031370137843F030031370137806
:4060800003F0F0031370137843F00F0313709CF80030012213438CF80030A7F800E0A6F800E00C702A700B4C0B492378084A43F0080323700B7843F008030B70137843F0BD
:4060C00001031370BDE8F84002F09EBF9281FF1F244F0040A3430040B3430040284F00402A4F00408581FF1F274F00402F4F0040264F0040254F004036490B68002B30D01F
:406100004EF660208342F0B52CD800229BB20A60314C32482278324902F0FE0222700278304D02F0FD0202700A7800F66F3002F0FD022D4E0A702B8003802C4A3178137895
:40614000B1B1264826490378234A43F0020303700B7843F002030B70137843F001031370F0BD7047A3F56A42603A0A600346CFE72378DFF884E003F0010323709EF80070C1
:406180001B4B07F0FC078EF8007094F800E0194F4EF0040E84F800E01C784FF0FF0E04F0CF041C701C7844F030041C701C7804F0F0041C701C7844F00F041C703B78012407
:4061C00023433B70A5F800E0A0F800E011703470B7E700BFD03600200C4F0040A3430040B3430040104F00408681FF1F0F4F0040174F00400D4F00400E4F004036490B68C7
:40620000002B30D04EF660208342F0B52CD800229BB20A60314C32482278324902F0FE0222700278304D02F0FB0202700A7800F67B3002F0FB022D4E0A702B8003802C4A95
:4062400031781378B1B1264826490378234A43F0040303700B7843F004030B70137843F001031370F0BD7047A3F56A42603A0A600346CFE72378DFF884E003F0010323708E
:406280009EF800701B4B07F0FC078EF8007094F800E0194F4EF0040E84F800E01C784FF0FF0E04F0CF041C701C7844F030041C701C7804F0F0041C701C7844F00F041C70D8
:4062C0003B78012423433B70A5F800E0A0F800E011703470B7E700BF78370020184F0040A3430040B34300401C4F00407C3700201B4F0040234F0040194F00401A4F004041
:406300002DE9F041044602F07BFEA14B19781A780C4004F00F0122EA01021A7002F074FEE0076AD4A10743D462071CD4230701D4BDE8F081974898490378984A03F0FE03A2
:4063400003700B7803F0FE030B701378944903F0FE031370C3780B68002B69D1914B01221A70BDE8F08190488B4903788B4A03F0FE0303700B7803F0FD030B7013788B4974
:4063800003F0FD031370C3780B68002B40F0AE80874A1378DBB2012B47D01378022B00F0AC801378032B00F0B38000231370BDE7804879490378794A03F0FE0303700B7858
:4063C0007D4D03F0FB030B70137803F0FB031370C3782968002940F08680784B1A78D2B2012A00F086801A78022A00F08A801A78D2B2032A54D0197096E77148664903783B
:40640000664A03F0FE0303700B7803F0F7030B7013786C4903F0F7031370C3780B78002B80D0694B01221A707CE768490B70BCE70B68002B3FF47CAF4EF6602083426BD915
:40644000A3F56A420346603A0A60524C52482278524902F0FE02227002785D4D02F0FE0202700A7800F6633002F0FE02594E0A702B800380584A31781378002950D0464819
:4064800046490378434A43F0010303700B7843F001030B70137843F001031370BDE8F0814E4819700678002E3FF43EAFDFF858C14FF0010E4A4E4B4F8CF800E0D6F80080FE
:4064C000D7F800C0E0455CD9D7F800E030686421CEEB000030601A703B6801FB03F3002B08BF01232B60FFF789FE1DE7FFF704FE1CE73D480270197016E73C4B01211970B3
:4065000053E73B483B4A01250570117019700BE7394B0121197048E700229BB20A6094E72378DFF8E8E003F0010323709EF80070324B07F0FC078EF8007094F800E0304FAE
:406540004EF0040E84F800E01C784FF0FF0E04F0CF041C701C7844F030041C701C7804F0F0041C701C7844F00F041C703B78012423433B70A5F800E0A0F800E01170347042
:406580007DE7204B316083F800E00170CCE600BF8481FF1F004F0040A3430040B34300409481FF1FA081FF1F0C4F0040D0360020CC360020184F004078370020743700209A
:4065C000244F00409181FF1F9281FF1F8881FF1F044F00408781FF1F034F004028370020303700202C370020DC3600208B81FF1FCA360020CB360020D53600200B4F00402A
:40660000014F00402A37002029370020024F004070B5584A5849137803F0FE0313700B78002B7ED1554B1D786C1EE3B2032B73D8534B1B78002B6BD0524B1D7001F0A6FAB2
:40664000284601F001F8504B504903EB840290784F4A087033F8243013804E4A137803F0FC0343F00303137001F00EFB414A137803F0FE03137001F089FA47480378FF2BEF
:406680004CD0012B39D0022B444948D801249C400A78E4B214421ED0414D22EA040255F82360404C0A703278E45C3F4D22EA0404EA5C3E4D3470AB5C013BDBB2AB54002BE3
:4066C0002DD13B4C3B4B54F822409A5C237823EA020323700A7893070DD442F00202364C0A70324922784B7842F001022270002B38D001334B7001230370304B1A78BAB9A4
:4067000001F0C2FA1B4A137803F0FE03137070BD2B4B01221A708FE701BE9EE71F490A78D9E7174B00241B780125002B84D1EFE71A490A78500712D51C4822F004021E4CF3
:406740000A7042782178013A21F01001D2B22170427022B91B490A7822F010020A7000221A70CDE794F8F32942F0100284F8F329BFE700BF004E0040DB360020DD80FF1F46
:4067800014370020DE80FF1F183700200E4E00400C4E0040144E0040E180FF1F393800206C9D0000689D0000649D00003C3800205C9D0000589D00000D51004034370020E1
:4067C00015370020005B00402DE9F04F2B4B83B01B78AB25C324FC2003213C228DF800508DF801408DF802008DF803108DF80420002B38D06E46DFF890E0214DDFF88C90BA
:40680000DFF88CC0DFF88CB00DF105084FF0020A16F8014B9EF800102A780846D2B2571E8B1A7F1AA3F17F03B7FA87F7B3FA83F37F095B098A4288BF3B46002BECD18A4209
:4068400014D00A0659BF0131C9B20121002009F800408EF800109CF800309B0748BFCBF800A04645D4D103B0BDE8F08F9CF800305F07E6D4034B1C70F3E700BF7E37002043
:4068800080370020466500407F370020843700206565004000E200E02DE9F04F394F0024394B3C807C803C711B7889B0022B03907C7100F021840024BC71FC713B7A314DB0
:4068C000032B00F0FE833B7D304A03F0AF030021397443F00804797479822D491370147013700A78DFF8C890D2B26FF4857689F8002031440A78DFF8BC80D2B27A750A79F9
:4069000098F80010D2B23B750123BA75FB7509B9204A1370204E0124204D347001F036F9204600F091FEA9781D4A1E4B117029881980937903F0FC0343F00303937101F080
:40694000A3F9194A21461378204603F0FE031370FEF760FF102002F0B7F8144B93F801A0BAF1000F28D00024FC75FFF751FE112002F0AAF8039B002B40F01C82184609B09A
:40698000BDE8F08FC436002074370020786400406B65004015370020DE80FF1F183700200E4E00400C4E0040004E004038370020DC80FF1F1437002001F0E8F8FB7D43B9CE
:4069C00099F8014004F1FF3A5FFA8AF3032B00F2EF8198F80030002B00F0E681347001F0D5F8204600F030FE05EB8A039978AF4AAF4B117035F82A201A80AE4A137803F080
:406A0000FC0343F00303137001F03EF9AA4A137803F0FE03137001F0B9F8A84B1B78002B40F0B181A64A412305928DF8183050238DF81930A34B1A6822B101210846904745
:406A4000A04B1A6802210B469F48A04C01909B484DF2B715017000210091012102919DF80010DFF85CA28B42DFF858B2DFF88C92637B00F26C81A07B834203EB000640F22B
:406A8000B4821FFA86FE181ABEF1FF0F5FFA80F800F2B182434580F0DB81E2B115209047884BA6681B68310EABB12A209847DBF8003083B1C6F307412A209847DBF800309F
:406AC000C6F307213BB12A209847DBF80030E9B20BB12A20984701F059F87D4B1A782379FF2A2CD0934254D0022A25D87948012191400078C9B201421ED0774D754E20EA35
:406B0000010155F82250754831702978805C744E21EA0000B15C734A2870525C7148013AD2B2425442B97048704A50F82100515C027822EA010202706549FF220A70FF2BDD
:406B400027D0022B23D8634901229A400978D2B20A421CD160485F4D0A4350F823005F492A700578CA5C5E492A430270C95C5D4A525C4AB95C485D4A50F82100525C05783C
:406B80002A430270574A525C564801324254504A1370574B1B78002B40F0F38101F074F8236940469847534802F022FA01F080FE80EAE075A5EBE0750646A068401B80FBEB
:406BC0000901002871F10003C0F2048210F1FF5041F100014FF07F52002302F04DFA0490009B002B00F0ED8141F28730019B06221B690021002BB8BF5B42C2FB030141F299
:406C00008832002302F038FA049B002808BF0120002BB8BF5B42834200F3D181B5F5802FCCBF00250125274B8AF800801B68CAF804608AF8085033B1414613209847DBF8E5
:406C40000030DAF80460B6F5004F80F2968116F5004F80F27983284E8021002B5AD014209847184BF1B21B68002B00F06A8314209847DBF80030DAF80460002B4AD0310E83
:406C80001D209847DBF80030C6F30741002B41D01D209847DBF80030002B3BD0C6F307211D209847074BF1B21B6829E00E4E00400C4E0040144E0040004E004038380020AF
:406CC0000838002040370020D89C0000309D0000E180FF1F393800206C9D0000689D0000649D00003C3800205C9D0000589D00003437002080FC0A000080FFFF787413002D
:406D000043B11D209847DBF800301BB19AF8081016209847029A002D08BF0022009B0292019A01332032022B009304F114040AF10C0A019200F09280B64B9DF800101A6818
:406D4000B54BA5681B788B42637B7FF694AE94F80E809AF80060434503EB080040F24F811FFA80FEC8EB0303BEF1FF0F5FFA83F800F24B814645FFF490AE5FFA80F8B04564
:406D800028BFB04689E6A54A05921278002A38BF0022012B8DF818207FF649AE059B1B7B002B38BF002343E69D4B01221A7015E601BE22E69B4BAB251B78C220B52177224A
:406DC0008DF81B408DF818508DF819008DF81A108DF81C20002B39D0934F944CDFF8A092DFF8A0C2DFF8A0B206AE0DF11D084FF0020A16F8015B397822780846D2B202F1BB
:406E0000FF3E8B1AC1EB0E0EA3F17F03BEFA8EFEB3FA83F34FEA5E1E5B09914238BF7346002BE9D1914200F031820B0659BF0131C9B201210020397009F800509CF800305E
:406E4000990748BFCBF800A0B045D2D1002096E55FFA86F8984528BF98461EE600F096FE734B1A78FF2A29D0012A41D0022A714925D8012090400B78C0B2184220D06E4C59
:406E800023EA000354F822406C480B702378855C6B4823EA0503825C6A482370835C013BDBB283545BB96848684B50F822009A5C037823EA020303700B7801E05D490B789B
:406EC0009A0712D443F0020361480B705D4902784B7842F0010202702BB990F8F32942F0100280F8F32901334B70514A01231370584B1B78002B40F0C98000F0C5FE564A67
:406F0000137803F0FE031370029B002B00F02581524B012400255D709C70DC70FD757C71FFF776FBBD71FC7102F06AF805464C484C4903784C4A03F0FE0303700B784B482E
:406F400003F0FB030B701378494903F0FB031370484B02261E700160FFF750F9284602F053F821461120FEF755FC039B002B40F09581012009B0BDE8F08F7F2147F6FF7643
:406F80006BE62C4B1B785D0715D52A4A23F0040313702F4A2B4B12785B782D4922F010020A70013B274ADBB2537023B9324A137823F010031370274A00231370EEE500251F
:406FC00031E62E4B1B78013BDBB2072B40F2B180009819E6B0F1FF5041F1FF314FF07F52002302F049F80490FAE5B0B2FF287FF62FAF4FF00008984538BF98464DE583B212
:40700000FF2B7FF6BAAE4FF00008B04538BFB04643E500BF403700203838002008380020153700207E3700207F37002080370020E180FF1F393800206C9D0000689D0000A6
:40704000649D00003C3800205C9D0000589D00000D51004034370020004E004038370020184F0040A3430040B343004078370020A086010074370020005B0040E280FF1F68
:40708000843700206565004000E200E0B0490B78580712D5AF4A23F00403AF480B7053780178013B21F01001DBB20170537023B9AA4A137823F010031370A94A00231370E2
:4070C0001BE701F09DFFA74AA7491378A2F6593203F0FE0382F8593B0B7803F0FD030B70137803F0FD03137091F86C3BEC602C7201F08AFFFFF7E7BB01F082FF9B4A9A4918
:407100001378A2F6653203F0FE0382F8653B0B7803F0FB030B70137803F0FB031370944B91F8782B1C60934B1C7001F06DFFFFF7C2BB41F28730904A002132F8133006225E
:40714000C3F57A73002BB8BF5B42C2FB030141F28832002301F090FF56E59846874A022382F8028082F8048082F80580844A01251370824B7F4E5D70DD7001F041FF814AAB
:407180008149824B82F8008081F800804FF4FA7119607F4A7F49804B116004461D7087F8068087F8078087F8188001F029FF4CF2503205466D496C480B78A1F6653103F027
:4071C000FE0381F8653B037803F0FB0303700B78674803F0FB030B70032333700260FFF70DF8284601F010FF204601F00DFF9DF818606A4C304600F071FE059A9DF81950CC
:407200001346167016462846C2F8048083F8088000F05EFE3346624A3573C3F8108083F8148013785F4943F010031370257823785D4E03F0FE033F2023704FF400720870FF
