:4000000000800020110000007D4E00007D4E0000144A80B5144B1268144F1A60F7B1144E002556F80C4C56F8080C56F8102C234638B1043A52F8041F43F8041B191B814221
:40004000F8D156F8040C1A4620B142F8045BD11A8842FAD1013F06F11006E2D106F0CEFC00F036F8FA460040BC76004001000000E472000010B5054C237833B9044B13B138
:400080000448AFF300800123237010BD3881FF1F00000000706A0000084B10B51BB108490848AFF300800848036803B910BD074B002BFBD0BDE81040184700BF0000000057
:4000C0003C81FF1F706A0000C080FF1F000000002DE9804889B062B6B74B1A78002A01F0218106F07DFCB549B54D0B78B54A43F020030B702B78012443F010032B70A1F56C
:40010000817114600B78B04E43F010030B700225A1F503513560363915600B78AB4A2B430B7013782B43137006F05EFCA84BA94A21462046136005F0D5FE06F051FCA64940
:40014000A64A0B7843F008030B70137843F00803137006F049FC04F0EDF9002801F0A08006F03EFC9C499D4A0B789D4C43F008030B701378C82543F00803137025700B7B44
:4001800043F010030B73137B01F5587143F0100313730B789C06FCD5924D06F025FC924E2B78347843B90123904A2B70137803F0CF0343F0300313706B788A4943B98C4AF1
:4001C00001201378487003F0CF0343F030031370AB78844953B9874B01201A78887002F0FC021A701A7842F003021A70824A8349137843F0600313700B78A2F5A65243F026
:4002000002030B70033A1378E87843F002031370744950B97A4B01201A78C87002F0FC021A701A7842F003021A70734A73491378DFF8B08143F0600313700B78A2F5A652E1
:4002400043F001030B70033A1378297943F001031370002901F00C806A4A6B491378204643F0010313700B7802F5A65243F001030B700E32137843F08003137004F096FA43
:400280006B79584953B9614B01201A78487102F0FC021A701A7842F003021A705648574903785B4A43F0600303700B78DFF8888143F004030B701378564C574F43F004033C
:4002C00098F80010137022783B7821F0040102F0CF0223F0010388F8001022703B7004F0A1FA3A78237898F8001002F0FE0203F0CF0321F0040142F0010243F0100388F88D
:4003000000103A70237004F00BFB4449AB790A78344802F0FE020A70002B00F08787404A40491378404843F0020313700A78EB7942F002020A70FF2202702A48002B00F09B
:400340005087374A37491378384843F0040313700A782B7A42F004020A70FF2202702148002B00F01987324F2D49B9460B782D4843F001030B700378DFF8C0802D4AFF2184
:4003800043F00103037008F1240A11704FF0010B99F80D2099F80E108B18541A8A4298B2E4B240F21C8399B2FF29DBB200F21B83A24280F0DC8643E0413A00209A65004062
:4003C0009965004000E100E080E200E0B2430040E55E0000B0390020A0430040B0430040014700405481FF1FC480FF1F7A580040785800405A58004077580040A4430040BE
:4004000058580040A9430040B94300405C580040B4430040005B00400D510040004E0040A8430040B8430040815B0040825B004018710000805B0040025B004080390020B9
:40044000D9F8583020469847002388F80040C8F8043088F808B008F10C08D04509F15C0996D1CE4CCE4AA3460323DFF8B893137004ABC3EB09090DF10F0806F0B1FA237841
:4004800043F00103237023789A07FCD519F808A09BF800305FFA8AFA03F0FE038BF8003006F0A2FA08F801AF0DF11F034345E4D19DF81030CA2B00F07C876F7ADFF868934E
:4004C000002F01F02F80B74AB7481378B74943F0100313700278B64B42F0100202700A78B44F42F001020A700224002283201870390C5C7020469A70DA70747003F0E6FF7A
:40050000204603F0D3FF04F093FC0306044609D4C30003F1804303F5F0430321062219809870DA70BAB244F61061204604F072FC77782146384604F095FC384603F0A4FFB5
:400540009D4C9E4B01208322DFF8E08220701A70002258704FEA18419A70DA7003F0B6FF207803F0A3FF04F063FC0746944B1870380609D4FB0003F1804303F5F043C0210B
:40058000062219809F70DA701FFA88F244F61061384604F03FFC3946207804F063FC207803F072FF874B002483221A704FF480415C7020469C70DC70B47003F087FF20461A
:4005C00003F074FF04F034FC0106044609D4C30003F1804303F5F0430321022219809870DA704CF2A07244F61061204604F012FCB7782146384604F035FC384603F044FF1B
:40060000714F724B002204248321197020465C70390C9A70DA70F47003F058FF204603F045FF04F005FC0206044609D4C30003F1804303F5F0430321072219809870DA70AF
:40064000BAB24CF2A871204604F0E4FBF7782146384604F007FC384603F016FF5C4F5D4B032400228321197020465C70390C9A70DA70347103F02AFF204603F017FF04F0F5
:40068000D7FB0306044609D4C30003F1804303F5F043C021072219809870DA70BAB24CF2A871204604F0B6FB36792146304604F0D9FB304603F0E8FE474A484B0024147061
:4006C0001C7005F0B9FD2146454C022005F00AFC23684449444A0826444F0E60DA64444BE0223A7043481E60266810270F603065414E424832701F60276840260E60B865D4
:400700003F4FDFF82CE13A7020681E6020260E60C0F854E03B4807F8012C1E6007783A4E47F0040707703078DFF808E140F004002468364F3070042006F1A026CEF8000016
:400740005036DFF8D4E00860A764327018609EF800302F4A2F4903F07F038EF80030116095F89431002B00F006862B4A2B4C1378A14643F08003137006F032F9284BDFF88D
:40078000B8A01E6806F030F92378002103F0FD0343F002032370202050E000BF024700402C3A0020A6430040B643004080C70040107600406081FF1FCC80FF1F08760040AE
:4007C0003D3A0020007600402482FF1F207600402882FF1F187600403E3A00207B65004008ED00E080E100E0195D000003E400E000E100E0F95B000004E400E075610000BE
:4008000006E400E0A2430040B2430040E15B00002465004080A903007565004020510040283A0020018000405481FF1F6481FF1FC55F000080E200E02437002005F052FB3C
:40084000B0468D4CDFF858B295F896218B4B002A61D193F89511002940F0A68002F0BAF906F0BEF8864B1F6806F0BEF8BB1B002BC0F28880834B1B78002B34D0DFF824E225
:400880000EF10408804B1EF8016B19789AF800200846D2B202F1FF3C8B1AC1EB0C0CA3F17F03BCFA8CFCB3FA83F34FEA5C1C5B098A4288BF6346002BE8D18A426DD00B06EE
:4008C000724A4CBF00204B1C16546F4A54BFDBB2012313709BF800309A0702D56C4B02221A60F045CED199F8003007F1460603F0FD0343F0020389F8003099F80030B8463C
:4009000003F0FD0343F0020389F8003095F896215A4B002A9DD099465E4B00221A7004F035FFDFF854814FF0050B5B4B5A4A1B7803F0FD03137006F053F8514B1F6806F057
:4009400053F8083701E002F045F906F049F84C4B1E6806F049F8F61B002E53DA95F89531002BF0D0002389F895313C20217805F0B9FA23783D20002B39D098F8001005F0DF
:40098000B1FAE0E7C8EB07073B2F1BD999F8003003F0FD0389F8003056E79BF800305A078DD43E4B1E709CE783F8952121783C2005F098FA2278304B32B119783D2005F05D
:4009C00091FA4BE7474698E71A7802F0FF00002A00F0C8831978122005F084FA3EE7FF2840F2C4830024944238BF144628E598F80030122003F0FF02002BBED1104605F008
:400A0000C3FEA0E7244B244A1B7803F0FD0343F00203137005F0E4FF194B1E6805F0E4FF083601E002F0D6F805F0DAFF144B1F6805F0DAFFBF1B002F36DA95F89531002BBE
:400A4000F0D04FF0000389F895313C20217805F049FA23783D2023B198F8001005F042FAE0E798F80030122003F0FF02002BF3D1104605F089FED5E7403A00205481FF1FAC
:400A8000283A0020413A0020253700202837002000E200E0B8390020205100404B64004068640040B47000000BF1FF3B1BF0FF0B7FF43BAFDFF81CB3DFF8C082002795F860
:400AC0009531AE4E002B40F0338102F083F82378022BF1D0AA4BAA4F1A88AA4B92B21B88DFF8A0829BB29A42E6D305F079FFA64BD3F8009005F078FF9BF80030A24A002BE9
:400B000040F09E803988B8F8003089B29BB29942C0F096809D4BDFF874821B78002B00F08F809B4B00929F78002F40F0898098F80130002B40F07B8105F052FF009A1668BE
:400B400005F052FFD8F82030F61A002E78DB914B98F802601B78904AB3424FF05C0303FB06235A7B997B00F23B828A4202EB010340F2EF8298B2511AFF28CFB200F2E582DB
:400B8000BA4280F0E982814A0023D77053609360D36013619382002E00F03A82012E0CBF4FF416724FF4617278490023CA820B764B76CB6103F036FE7849774A5C2303FB4E
:400BC00006230A78764F774822F004020A70397802781B7901F0CF0122F00102022B3970027013D8704A5B00DBB252F823006F4A0178D25C01330A436B49DBB251F82310BF
:400C000002706A4AD35C0A7813430B7003F088FE674B08221A6005F0E3FE002385F8973105F0E2FE634A137843F001031370624B1B6813B131461E209847544A012353702B
:400C40002378002B40F08D804D4B1A884D4B92B21B889BB29A42C0F08480D5F89C31474A1BB909F16403C2F89C31C3EB0903002B3EDB524B09F164021B78C5F89C21002BC1
:400C800036D04F4FDFF8508107F1040C4D4B17F8016B19789AF800200846D2B202F1FF3E8B1AC1EB0E0EA3F17F03BEFA8EFEB3FA83F34FEA5E1E5B098A4288BF7346002B8E
:400CC000E8D18A4200F0A8800A063F4B4CBF002001311E543B4B54BFC9B2012119703B4B1B789B0744BF0223C8F800306745CDD12378022B3BD0D5F8A031204A002B39D003
:400D0000B9EB03033FF4D8AED2F8A411C2F8A0918B4263D32E4B2E481B78002103F0FD0343F002030370C2F8A411C2F8A811C3E688F895713C20217805F0D4F823783D20E3
:400D400023B19BF8001005F0CDF8B8E69BF80030122003F0FF02002BF3D1104605F014FDADE60023C5F89C312378022BC3D1C5F8A091A1E6C2F8A0919EE600BF5481FF1F3E
:400D8000383A00203A3A0020283A0020B8390020E83700202C3A002018710000025B0040005B00400D510040707200006872000080E200E0004E0040B0390020413A002026
:400DC000B470000025370020283700206864004020510040403A002000E200E0D2F8A801C91A0344042BC2F8A4111DD99BF800300021022BC2F8A8113FF45EAE854B1A7865
:400E0000013B1B7802F0020282F0020203F0FD031343814A13704FE6804B1B785B073FF553AF7F4B1E7061E7C2F8A83144E698F80230009305F0D4FD96F89731002B00F0CC
:400E4000A480D6F8983186F89771019305F0CCFDB8F81620C8F81C70019B002A40F0D480704A7049928A4968013292B25E186D4B1F2A9A825E607FF6E3AE9868DA680644C9
:400E80002032597E9E60DA6096FBF2F600225A609A82002900F0DA801A69B11A81EAE172A2EBE172322A00F3D1805F4AD97812685D4F12B1132090473A68B6F5004F80F266
:400EC0005F8116F5004FC0F258813746C6F30721F2B114209047544BF9B21B68524FBBB1142098473B68310E93B11D2098473B68C6F3074163B11D2098473B68C6F307219A
:400F000033B11D2098473B68F1B20BB11D209847444BDDF800803246D978404604F074FC0646424F03F07EFC3A78414802F0CF020378404942F010023A700A7803F0FE034C
:400F400043F00103037022F004030B7003F0E8FC3949344A0B7803F0FE030B704EB14746364B0137A3FB07135B0803EB4303FB1A937005F035FD324B1E6805F035FD294AFA
:400F800019360023166253705AE605F02DFDD8F81C302C4A01339342C8F81C307FF650AE204A224E0023537003F03CFC3278204802F0CF0203781F4942F0100232700A7800
:400FC00003F0FE0343F00103037022F004030B7003F0A6FC184A137803F0FE0313702FE6194806EB46038A4210F8230002EB010340F2A280521A99B2FF29D7B200F2988068
:40100000B842FFF4C0AD9AE0064B013ADA8217E6B422C9E52151004020510040686400404B640040B8390020B0390020005B00400D510040025B0040004E0040ABAAAAAAEE
:40104000283A00207F841E0080390020A54B01221B7EA4491344DBB2072B0E610B764A767FF6EEADA04BC9781B689F4F13B1132098473B68B6F5004F80F2868016F5004FA3
:4010800080F28680994F8021F3B114209847964BF9B21B68944FBBB1142098473B68310E93B11D2098473B68C6F3074163B11D2098473B68C6F3072133B11D2098473B68CA
:4010C000F1B20BB11D209847864BDDF800803246D978404604F098FB0646854F03F0A2FB3A78844802F0CF020378834942F010023A700A7803F0FE0343F00103037022F021
:4011000004030B7003F00CFC7C49764A0B7803F0FE030B70002E3FF42CAF4746784B0137A3FB07135B0803EB4303FF1A977020E7874238BF074626E59AB2FF2AF8D8DBB297
:40114000834228BF03461F461DE5974238BF174619E599B2FF29F8D8DBB29A4228BF1A46174610E505F010FBFFF778BBDBB29A4228BF1A461446FFF763B95C4F8021A7E685
:401180007F2147F6FF77A3E67F2147F6FF777BE7C6F30721374677E75A4A01F5A351093113700B701378A1F5905103F0F303137013781939DBB2137013780124C3F38103D7
:4011C00003F19243063393F820310472DBB20B70137803F0FD0313701378DBB21370FFF7C2B8494A01F5A351113113700B701378A1F5905103F0F303137013781F39DBB2EC
:40120000137013780124C3F3810303F19243063393F82831C471DBB20B70137803F0FD0313701378DBB21370FFF78BB8374A0124137081F8253A1378A1F2F77103F0F303D9
:4012400013701378DBB2137013788471C3F3810303F19243063393F83031DBB20B70137803F0FD0313701378DBB21370FFF757B8274B284F0C221A703B78274A43F02003E4
:401280003B700320117003F091FA3B78012203F0FC0343F003033B7088F80420FEF7DCBF1E4B1A78920762D51D4AB624E0200D211470107011701A78970706D41C4618201E
:4012C00005F086FB23789D07F9D5144B1A7896074DD51B789B084AD103F00EF903F04CF9FEF73EBFB8390020B03900200080FFFF005B00400D510040025B0040004E00404A
:40130000ABAAAAAA2058004028580040245800400058004001580040025800402247004020470040AD4BAE4E1D68AE4CAE48E0212E6421700270AD48AD4A72251C68AD4EB4
:40134000057020201070A3F60713AB4DAB486FF4807766643A4419700626472402212E7004701170A64A01231370FEF7BABE03F0C3F8FEF7F5BEA349FF2313600B6005F0E7
:401380002FFBA14A137843F01003137005F02CFB9E4B1A78100704D59D4A116819780907FBD49C4A00210123117085F89431FFF7DCB9102003F0DCF98046112003F0D8F941
:4013C0004FF6FF7248EA002004AC80B214F8013B510881F4044E5A4012F0010F8EF0080E18BF71464A0882F4044E81EA530111F0010F8EF0080E14BF714611464A0882F4A6
:40140000044E81EA930111F0010F8EF0080E14BF714611464A0882F4044E81EAD30111F0010F8EF0080E14BF714611464A0882F4044E81EA131111F0010F8EF0080E14BFD5
:40144000714611464A0882F4044E81EA531111F0010F8EF0080E14BF714611464A0882F4044E81EA931111F0010F8EF0080E0CBF114671464A0881EAD31382F4044113F0E7
:40148000010F81F0080108AB18BF0A469C429DD1D243C2F3072343EA022293B298427FF40CA89DF811009DF812109DF813209DF81430DFF864A18DF80C008DF80D108DF85F
:4014C0000E208DF80F300DF10C094FF000084FF0030B7A7BBC7B19F8011BA24202EB040371D998B2121BFF28D4B270D8A142DBB203D3994228BF19460C46BB6D2046984746
:40150000454B464A1B7802F80840022B08F10C0898BF8AF800B0B8F1240F07F15C07D8D1FEF7CBBF3E483F4A03783F4943F0100303701378DFF8208103F0FE033F201370F0
:4015400008704FF48072394988F80000384805F083FA4FF480723549364805F07DFA4FF480723549354805F077FA4FF400723449344805F071FA4FF400723349334805F0E8
:401580006BFA334CDFF8D4E0DFF8D4C0BEE80F000FC4BEE80F000FC4BEE80F000FC49EE80F00DFF8C0E084E80F002A4A0123F82188F800708CF8007089F809308EF800302D
:4015C0001170FEF780BF9AB2FF2A04D900248C4238BF0C4691E7DBB28BE700BF08ED00E01144000000E400E0A83700208A65004089650040B94300002A6400403A64004081
:40160000413A002004650040976500406765004044650040876500402C3A002080390020A643004080C7004088C70040746A000000C4004000C50040746B000000C600409F
:40164000746C000000C00040746E000000C2004000C7004084C700408CC700407470000098C700409CC700402DE9F04F01273E46DFF87CA2DFF87C82DFF8A892DFF8A8B24E
:401680008BB0C9F800609AF8001098F80020012491429748974B00F0CF8001781A781B789142027828BF20339B1A934ADBB21760002B00F0D0809149C9F800709AF80020A1
:4016C00098F800300878D2B2DBB210B99A4200F0BC80531CDBB2202B894828BF0023805C8AF800300A78854CC3B20AB100222270814A844917600A78052A00F2A380DFE845
:4017000002F0917B71150C037F4A8048D37003230B70002313700370B3E77B4A7B48937005230B70002313700370AAE7764C77480022227002700A706278A178E0784A4020
:4017400042409A429DD1724B1A7852B96278C12A02D06278A52A94D1617821201F7004F0C1FB6378684AC12B03D05178302004F0B9FB684B684A1B783221032B1160637873
:4017800074D0A33B142B3FF67CAF01A252F823F0431D000083160000611D0000071A00008316000083160000A91A00004D1B0000831600008316000083160000831600000F
:4017C0008316000083160000191C000083160000731F0000172000008D2100002D190000B11E00004848494C837000220323C2700B700270227044E703F15D02424C434DB0
:40180000D2B200201E2A2070287006D8434807FA02FE0EEA000008BB22B3002323702B700B702EE7AB2B7FF42CAF3748374A00230F700370137024E730490B784BB12E4B81
:401840001F6039E700230B701BE7354B1B78DBB24EE7294B1C600BB0BDE8F08F022263700A700EE7042263700A700AE7A53B1C2B00F2208601A252F823F000BF3D220000DE
:4018800011240000B5240000B52400001124000011240000B5240000B5240000B5240000B5240000B5240000B524000011240000B524000011240000112400004D230000D9
:4018C000B5240000B5240000B5240000B5240000B5240000B5240000B5240000B5240000B5240000B5240000B524000083160000CE370020A937002000E100E0CC370020F3
:40190000AC370020213700200483FF1F20370020EA82FF1F403A0020F882FF1FCC401F404965004080E100E068640040AE4B1878002801F07B8001280AD9AC4B02281C7B4D
:4019400006D003281A7E03D093F8241000F24B8774230020A64A8DF81B001278AB208DF81C30C221B6238DF818008DF819108DF81A30002A35D09F4B0DF1180E00939E4B7C
:40198000009A1EF801CB147818782546C0B2411E221A091BA2F17F02B1FA81F1B2FA82F249095209A04288BF0A46002AECD1A04200F0D185200691494CBF0025621C01F8C6
:4019C00005C0009954BFD2B201220A709BF80020910702D58A4A022111600DF11D029645CED1884B1B78022B3FF44BAE864B87491A780B7802F0020282F0020203F0FD0360
:401A000013430B703DE6A378DBB2082B40F2BF877F490B78764A83F064018DF81B301278AB238DF81C108DF81830C221A6238DF819108DF81A30002AD3D06E4B0DF1180E03
:401A400000936D4B009A1EF801CB147818782546C0B2411E221A091BA2F17F02B1FA81F1B2FA82F249095209A04288BF0A46002AECD1A04200F02485200660494CBF00250F
:401A8000621C01F805C0009954BFD2B201220A709BF80020910702D5594A022111600DF11D029645CED19CE7A378AB20DBB2082B8BBF584B574A1B7813704D4A8DF81B30F9
:401AC000127883F06B038DF81C30C221A9238DF818008DF819108DF81A30002A81D0454B0DF1180E0093444B009A1EF801CB147818782546C0B2411E221A091BA2F17F0248
:401B0000B1FA81F1B2FA82F249095209A04288BF0A46002AECD1A04200F01385200637494CBF0025621C01F805C0009954BFD2B201220A709BF80020910702D5304A022153
:401B400011600DF11D029645CED14AE7A378284ADBB283F068018DF81B301278AB238DF81C108DF81830C221AA238DF819108DF81A30002A3FF435AF1E4B0DF1180E009302
:401B80001D4B009A1EF801CB147818782546C0B2411E221A091BA2F17F02B1FA81F1B2FA82F249095209A04288BF0A46002AECD1A04200F0BC84200610494CBF0025621CEC
:401BC00001F805C0009954BFD2B201220A709BF80020910702D50A4A022111600DF11D029645CED1FDE600BF2C3A002080390020413A0020253700202437002028370020A7
:401C000000E200E0403A00202151004020510040C480FF1F0083FF1F954D03F0B7FD2B7803F0FE032B7002F0FDFD02F079FE2B7803F0FE032B7002F0F5FDDFF86CE28D48C2
:401C40009EF80020037802F0CF028B4942F010028EF800200A7803F0FE0343F00103037022F004030B7002F05BFE2B7803F0FE032B7004F0B5FE814D814A0023E3808149F1
:401C800023722B801380804A0B701380E3607F4B1F7004F0A9FEA1883220FF2994BFC9B2FF2104F01FF9794B794A1B781278DBB283F073018DF81B30AB238DF81C108DF8B9
:401CC0001830C221B1238DF819108DF81A30002A3FF487AE6F4B0DF1180E00936E4B009A1EF801CB147818782546C0B2411E221A091BA2F17F02B1FA81F1B2FA82F24909D5
:401D00005209844238BF0A46002AECD1844200F00584200661494CBF0025621C01F805C0009954BFD2B201220A709BF80020910702D55B4A022111600DF11D029645CED11A
:401D40004FE6A378E178312043EA012109B28BB2FF2B94BFC9B2FF21A38004F0C3F890E400213B2004F0BEF8494B01931B78002B3FF487AC474BDFF834E10093464B009A16
:401D80001EF801CB147818782546C0B2411E221A091BA2F17F02B1FA81F1B2FA82F249095209A04288BF0A46002AECD1A04200F0AC83200639494CBF0025621C01F805C016
:401DC000009954BFD2B201220A709BF80020910702D5334A02211160324A9645CFD1019AAB21C3208DF818101278B8218DF819008DF81A100B2070218DF81B008DF81C1038
:401E0000002A3FF43EAC0DF1180E009A1EF801CB147818782546C0B2411E221A091BA2F17F02B1FA81F1B2FA82F249095209A04288BF0A46002AECD1A04200F05D832006CD
:401E400016494CBF0025621C01F805C0009954BFD2B201220A709BF80020910702D5104A022111600DF11D027245CED109E400BF004E00400D510040025B0040383A002040
:401E80003A3A00203C3A00201E83FF1F403A0020413A002025370020243700202837002000E200E0B8700000005B0040B4700000A278A44B003218BF01221A701A78A248AA
:401EC000002A4FF000020270A04814BF022100210170197801B162821B789D4ADBB283F075018DF81B301278AB238DF81C108DF81830C221B7238DF819108DF81A30002A74
:401F00003FF46FAD934B0DF1180E0093924B009A1EF801CB147818782546C0B2411E221A091BA2F17F02B1FA81F1B2FA82F249095209844238BF0A46002AECD1844200F004
:401F4000D282200685494CBF0025621C01F805C0009954BFD2B201220A709BF80020910702D57F4A022111600DF11D027245CED137E5A3783A20003318BF01232374217CFB
:401F800003F0B0FF237C774D002B00F0CD8304F053F97549754A0B78AD8803F0FE030B701378734903F07F03724813706A1E4023B2F5007F00780B6028BF4FF4007504F04D
:401FC0000FFDDFF8C4E16C49002327746B4AE3802372AEF800300B8069491370E3600B80684B02221A7004F0FFFCA388B3F5007F03D9FF213E2003F075FFFF2D94BFE9B258
:40200000FF21352003F06EFF574A137843F001031370FFF736BB0021392003F063FF4C4BAB21C2221B788DF818108DF81920B42177228DF81B708DF81A108DF81C20002BD1
:4020400037D0444B0DF1180C0093434B0194009A1CF801EB147818782546C0B2411E221A091BA2F17F02B1FA81F1B2FA82F249095209844238BF0A46002AECD1844200F0F8
:402080002982200635494CBF0025621C01F805E0009954BFD2B201220A709BF80020910702D52F4A022111600DF11D029445CED1019C04F0C1F82C492C4A0B78A58803F0DC
:4020C000FE030B7013782A4903F07F03294813706A1E4023B2F5007F00780B6028BF4FF4007504F07DFCDFF8A0E0234900232374224AE3802372AEF800300B8020491370CF
:40210000E3600B801F4B02221A7004F06DFCA388B3F5007F03D9FF213E2003F0E3FEFF2D94BFE9B2FF21352003F0DCFE0E4A137843F001031370134B1B78022B7FF456AC50
:40214000FFF79FBA1D83FF1F3E3A00207B650040413A002025370020243700202837002000E200E00483FF1F004E00407565004080E200E0676500403A3A00203C3A002002
:402180001E83FF1F403A0020383A0020984B1A78194602F0FF03002A00F014820978122003F0A0FE934BAB22C2218DF818201B78B5228DF819108DF81A20002177228DF817
:4021C0001B108DF81C20002B3FF40BAC8A4B0DF1180C0093894B009A1CF801EB147818782546C0B2411E221A091BA2F17F02B1FA81F1B2FA82F249095209A04288BF0A46B7
:40220000002AECD1A04200F0D48120067C494CBF0025621C01F805E0009954BFD2B201220A709BF80020910702D5764A022111600DF11D026245CED1FFF7D3BB00213B2073
:4022400003F050FE6B4B01931B78002B3FF419AA694BDFF8B8E10093684B009A1EF801CB147818782546C0B2411E221A091BA2F17F02B1FA81F1B2FA82F249095209A042A1
:4022800088BF0A46002AECD1A04200F0778120065B494CBF0025621C01F805C0009954BFD2B201220A709BF80020910702D5554A02211160544A7245CFD1019AAB21C3203F
:4022C0008DF818101278B8218DF819008DF81A100B2070218DF81B008DF81C10002A3FF4D0A90DF1180E009A1EF801CB147818782546C0B2411E221A091BA2F17F02B1FA87
:4023000081F1B2FA82F249095209A04288BF0A46002AECD1A04200F02881200638494CBF0025621C01F805C0009954BFD2B201220A709BF80020910702D5324A0221116071
:402340000DF11D027245CED1FFF79BB9284B1220197803F0C7FD274BAB22C2218DF818201B78B5228DF819108DF81A20002177228DF81B108DF81C20002B3FF482A91E4BE0
:402380000DF1180E00931D4B009A1EF801CB147818782546C0B2411E221A091BA2F17F02B1FA81F1B2FA82F249095209A04288BF0A46002AECD1A04200F0F28020061049A9
:4023C0004CBF0025621C01F805C0009954BFD2B201220A709BF80020910702D5094A022111600DF11D027245CED1FFF74AB900BF403A0020413A0020253700202437002044
:402400002837002000E200E0B8700000B47000006178122003F066FD6378B24ADBB2127883F0C204AB208DF81A30C22100238DF81C408DF818008DF819108DF81B30002AC1
:402440003FF41FA9A84B0DF1180E0093A74B009A1EF801CB147818782546C0B2411E221A091BA2F17F02B1FA81F1B2FA82F249095209A04288BF0A46002AECD1A04200F061
:40248000868020069A494CBF0025621C01F805C0009954BFD2B201220A709BF80020910702D5944A022111600DF11D027245CED1FFF7E7B86178122003F014FDFFF7E1B89A
:4024C0009BF8002052073FF5D7AA8B4A82F800C0FFF7E5BA9BF8002052073FF5D2AD864A82F800E0E0E59BF8002052073FF529AD814A82F800C037E59BF8002052073FF552
:402500009EAC7D4A82F800C0ACE49BF8002052073FF54FAC784A82F800C05DE49BF8002052073FF5F6AB744A82F800C004E49BF8002052073FF53FAB6F4A82F800C0FFF774
:402540004DBB9BF8002052073FF5E8AA6A4A82F800C0FFF7F6BA9BF8002052073FF52AAA654A82F800C0FFF738BA9BF8002052073FF5D3AE604A82F800C0E1E69BF80020E9
:4025800052073FF584AE5C4A82F800C092E69BF8002052073FF575AF574A82F800C083E79BF8002052073FF509AF534A82F800C017E79BF8002052073FF527AE4E4A82F867
:4025C00000E035E64D4C4E4962780B804D484E49012A03800B7000F057824C4D0023637004F0FEF92B68009304F0FEF9484A009B12781933172A236215D8464B12011344F1
:402600001A78454902F0FE021A701A7802F0DF021A700A785A721A7842F020021A701A7842F001021A703D493D4B04223D4C0F7010201A70002103F055FCA278002A00F071
:4026400095800021112003F04DFC264BAB22C2218DF818201B78B5228DF819108DF81A20002177228DF81B108DF81C20002B3FF4B8A91D4B0DF1180C00931C4B009A1CF8E6
:4026800001EB147818782546C0B2421E211A121BA1F17F01B2FA82F2B1FA81F152094909844228BF0A46002AECD1844200F0668120060F494CBF0025621C01F805E000994D
:4026C00054BFD2B201220A709BF80020910702D5084A022111600DF11D029445CED1FFF780B900BF413A002025370020243700202837002000E200E04B640040B839002048
:40270000383A00203A3A00203C3A0020283A0020CC80FF1F107000403D3A00203E3A00207B650040E8370020C24AC34D137803F0FE03137003F080FDC049C14A0B78C14875
:4027400003F07F030B7010602B78002B00F05381BA49BD480A78002342F080020A70BB4AE380237203701370FEF78BBF20210092C9F8001002F056F802F054F802F0D0F87E
:40278000AC48017801F0FE01017002F04BF84FF00303009AAE49E2700B706271A7702771277004F01DF92D6804F01EF9009AA94984F8562084F85A2084F8572084F85B2052
:4027C00084F8582084F85C2084F8592084F85D204FF003029D4B0F70C4F89051C4F894511A70FFF7FEB84FF6FF751B788DF80B208DF809300022CA238DF80A4002A88DF819
:402800000C108DF80D208DF80E208DF80F208DF810208DF811208DF812208DF813208DF814208DF815208DF816208DF8172006920792089209928DF8083006AC10F8013B86
:402840006A085D4015F0010F82F4044181F0080108BF11464A0882F4044581EA530111F0010F85F0080514BF294611464A0882F4044581EA930111F0010F85F0080514BF6F
:40288000294611464A0882F4044581EAD30111F0010F85F0080514BF294611464A0882F4044581EA131111F0010F85F0080514BF294611464A0882F4044581EA531111F029
:4028C000010F85F0080514BF294611464A0882F4044581EA931111F0010F85F0080514BF294611464A0881EAD31313F0010F82F4044585F0080508BF1546A0429ED1EB43C9
:40290000C3F3072242EA0323C3F307228DF818308DF8192004F064F84F49504A0B78504D43F008030B70137843F00803137004F05BF804F055F82B780146002B00F0FF8049
:4029400004F052F804F04CF84349444A0B7843F008030B70137843F00803137004F044F804F03EF82B7801463D4A002B00F0B08004F03AF874230020FEF7ECBF9BF80020F9
:4029800052073FF595AE374A82F800E0A3E6364A02AC15461068516892F808E003C455F80C0F06AA69682D7A03C230493048157084F800E00B7002780AACE51802F08003AC
:4029C000DBB2037015F8104C027815F8203CA40004F00C041A432243264C0270237803F0F3032370237815F8102C43F00C0313432370FFF70EB8FF23136041F8713C03F0ED
:402A0000EFFF1D4A137843F01003137003F0ECFF1A4B1A78120704D519490A681A781007FBD4184B00221A702F7091E67423FEF791BF00BF004E0040E882FF1F75650040EA
:402A40002465004080A903003C3A0020403A00202C3A00203F3A0020A0430040B0430040CF3700204B640040B8700000C480FF1F02580040015800409765004067650040A2
:402A80004465004087650040484D2B7803F0FE032B7001F0C7FEDFF838E145489EF80020037802F0CF02434942F010028EF800200A7803F0FE0343F00103037022F0040364
:402AC0000B7001F02DFF2B7803F0FE032B7084E5394B17701A68D00708D51A6822F001021A6000BF00BF00BF344B1F60084603F07BFF02A8002101F0CBFD00287EF428AF66
:402B000003F06EFF2E492F4A0B7843F008030B70137843F00803137003F066FF01F00AFD00287EF415AF2046012101F0B1FDB0FA80F0400980F07403DBB2FEF70BBF1E4BE9
:402B40002F701A68D20708D51A6822F001021A6000BF00BF00BF194B1F60084603F044FF194B1A7892071DD5184AB6211170E0200D21107011701A78900707D41820009390
:402B800003F026FF009B1A789207F7D50E4B1A78910707D51B789B0804D101F0ADFC01F0EBFCCFE601F0A8FCCCE600BF004E00400D510040025B004004000840D037002098
:402BC000A0430040B04300402247004020470040005B00402DE9F04FA54D9BB02B78032B00F003812B78022B00F0C880DFF88492DFF89C829F49B8F80020B9F8003092B2F6
:402C00009BB29A4280F09A80B8F800309BB2002B00F0DF80984FB8F80030FE889BB25A24AB2204FB0374310A1E238DF808208DF809308DF80A608DF80B100DF10F02002337
:402C4000581C991CE518204421442D7A0333007A097A5A2B02F8020C02F8035C02F8011C02F10302ECD1002202AB19A853F8041B834282EA0102F9D19DF865109DF86430AE
:402C80007E484B405340C2F307215940C2F307434B400178013683EA1262FE808DF86620002936D0764F774DDFF81CB2DFF81CC20DF107060DF1660A16F8014F39782A78DA
:402CC0000846D2B202F1FF3E8B1AC1EB0E0EA3F17F03BEFA8EFEB3FA83F34FEA5E1E5B09914238BF7346002BE9D191423FD00A0659BF0131C9B2012100200BF80040397082
:402D00009CF800309B0702D55F4B02221A60B245D2D1B8F800305D4901339BB2A8F80030B8F80020B9F8003092B29BB232209A420860574910D21BB0BDE8F08F554B93F829
:402D4000582A22B1002283F8582A83F8592A1BB0BDE8F04FFEF788BC0B889BB2FF2B42D8D9B238201BB0BDE8F04F03F0BBB89CF800305B07BBD4484B1C70C8E7474C23782C
:402D8000002BD8D04649474A0B78474803F0FE030B701378454903F07F03454E137001603378002B00F0B7853E4ADFF8C8901378362043F080031370B9F800309BB2FF2B6F
:402DC00094BFD9B2FF2103F08DF8002323702B700EE70B8837209BB2FF2B94BFD9B2FF2103F080F816E7FF21BBE7324CA378002BADD003F0F5FD304B1E6803F0F5FD49F643
:402E00003F42D4F89031F31A93421DD8D4F89431F31A312B07D9294BC4F894611B6813B161791A2098472378013B0A2B8FD8DFE813F06705CD04180403042303D702630273
:402E4000E301BF01050181002378073B042B40F2868594F80590B9F1020F88BF494600F27F85174E174F4FF05C0B4FF0000A4CE0403A00203A3A00201883FF1F413A0020CE
:402E8000253700202437002000E200E0F882FF1F383A0020C82C00204B6400403C3A0020004E0040756500402465004080A90300E882FF1FE8370020283A0020B0390020A7
:402EC0001871000080390020283700206864004099B2FF292AD8424580F03A850BFB096340469B6D984709EB490209F101095FFA89F907EB8203B9F1030F07F82280C3F82E
:402F000004A083F808A000F02A850BFB09635A7B997B8B18C1EB02088A4298B25FFA88F8D6D8FF2840F214854FF00008904538BF9046D3E76779A24E5C2303FB0763D8694D
:402F400041F28833226900284FEAA22203FB02F340F34887002B9B49C0F23A8703F5FF6281FB02511144D217C2EBE12541F28831801201FB00F185EAE572A2EBE572914D30
:402F800001F5FF6185FB01050D44C917C1EBE5218A42B4BF0025012541F288325C2101FB07618968891202FB01F2002A8549C1F2FB8002F5FF6281FB02011144D217C2EB96
:402FC000E122002B7F49C1F2E58003F5FF6381FB03011944DB17C3EBE123DFF8F4A1D31ADAF8002083EAE378A8EBE37812B129462320904794F87B21734B002A01F0A38077
:403000004DB993F88821002A41F0AB80D3F884319845C1F2A6805C2303FB076694F87D01B36D9847DAF8003013B1002128209847002384F87B3102F025F988E694F80580BF
:40304000DFF88491B8F1020F01F2FF805C4E5C2303FB086393F83C20002A01F024815A7B997B4FEA4805594F05EB080300208A4217F823E089F87B0189F87C0102EB010303
:4030800040F22386521A99B2FF29D0B200F218868645DBB203D39E45704628BF18465C23454403FB086307EB85077D6800226FF000419B6D84F8882184F88921C4F88051C2
:4030C00084F87D01C4F884119847414B3E4A1B6813B15179252098473E4F01F0A3FB5C233A7803FB08633C4D3C4822F0040229783A7002781B7901F0CF0122F00102022B26
:403100002970027011D836495B00DBB251F8235034482F78C25C0133DBB251F823103A432A700A78C35C13430B7001F0F9FB2E4A2E48082111600178002541F0010194F8A7
:403140007DE1017029465C2303FB08F806EB0803B3F846200B273F3292094C3301262448A4F8722163664FF4807284F806E02566C4F86851A4F87051A4F8745184F87651A7
:4031800084F8775184F8785184F87951C4F86C51C4F88C51677084F87A6103F055FC03F01FFC144B1D7003F01FFC02232370CEE501F038FB00220A2362712370C7E500BF05
:4031C0001871000081808080E837002080390020B0390020025B0040005B00400D510040707200006872000080E200E0004E004050380020B439002041F2883394F805800E
:40320000904E5C2101FB08618A684FEA4805921203FB02F38C4F05EB0802206907EB8202002B5060894AC0F2F38703F5FF6382FB03E21A44DB17C3EBE22241F288338012D3
:4032400003FB00F3002B8148C0F2B88703F5FF6380FB03E01844DB17C969C3EBE020121A82EAE2790029A9EBE27914DD41F28832891202FB01F2754902F5FF6280EAE0734B
:40328000A3EBE07381FB02011144D217C2EBE122934281F21280DFF8BCA1DAF8003013B100212320984741F288335C2202FB08667269921203FB02F3002B644AC0F2B2879C
:4032C00003F5FF6382FB03121A44DB17C3EBE2234B4580F24C85DAF800304544002107EB8507397221710BB118209847637907220133637122702AE56579554B022D00F285
:40330000D887544B1B6813B129461720984701F089FA4C4EDFF85CE15C239EF8002003FB05634D4F4D4822F0040239788EF8002002781B7901F0CF0122F00102022B3970AC
:40334000027013D846495B00DBB251F82370454897F800E0C25C0133DBB251F823104EEA02023A700A78C35C13430B7001F0D8FA3D4A5C2303FB05F308273C4D176029785F
:40338000F018627941F001012970408C2E4902EB420211F822E03F303033002580091E44A4F8720129464FF4807231486666677084F806E02566C4F86851A4F87051A4F8D3
:4033C000745184F8765184F8775184F8785184F87951C4F86C51C4F88C5184F87A51DCE66779184E5C2505FB07652846DFF8608002F09AFF002800F0C584164B1B681BB1E7
:4034000098F806102220984741F288335C2202FB07667269E069921203FB02F3002B0B49C0F24C8603F5FF6381FB0321DA170B44C2EBE3239842CCBF0020012002F08EF826
:4034400085E400BF187100008039002081808080E8370020B0390020005B00400D510040707200006872000080E200E0004E004050380020025B00406779CE4E5C2000FBFC
:4034800007606589038AAB4240F22D8641F2883283689B1202FB03F2002AC0F21986C64902F5FF6381FB031C9C44DB17C3EBEC2C41F288312369DFF800E39B1201FB03F3FA
:4034C000002BC0F2368603F5FF618EFB018E8E44C917C1EBEE2E41F288314FF05C0808FB0768D8F81880CEEB0C0E4FEAA82C01FB0CF18EEAEE780029A8EBEE78DFF8B8C2B6
:40350000C0F20D8601F5FF618CFB01EC8C44C917C1EBEC21884540F3EB85617A002900F0B784002BA449C0F2E88403F5FF6381FB03E11944DB17C3EBE121002A9E4BC0F2C0
:40354000D28402F5FF6283FB02E31344D217C2EBE3238B4240F3B78490F80DE0817BA0790EEB01039AB2FF2A40F28F84FF23984280F0B985431CDBB2227AE3719A42C0F0B9
:40358000B285D21A03EB52038E45DAB20EEB010340F2A8861FFA83FCC1EB0E01BCF1FF0F5FFA81F800F2A3864245DBB203D39A4228BF1A469046804500F095855C2303FBBF
:4035C00007F706EB07094B46B9F8200000273F300135800924336581A4F87201394606254FF480727548636684F806802766C4F86871A4F87071A4F8747184F8767184F863
:40360000777184F8787184F87971C4F86C71C4F88C7184F87A71657003F016FA4046D9F85830984703F0DCF9654B1F7003F0DCF902232370FFF78BBB67795E4E5C2505FBB8
:403640000765284602F070FE5E49002800F09C825D4B1B68002B3FF4D7AE897922209847D2E66779534E5C2505FB076523692846636102F059FE41F288336A69E169921226
:4036800003FB02F3002B4C4AC0F2018503F5FF6382FB03021A44DB17C3EBE223994240F327855C2303FB076395F80EE05A7B724540F25A8202EB0E00CEEB02031FFA80F83F
:4036C000D9B2B8F1FF0F0D4600F2D2838A42C5B209D3AA42114628BF29467245C9B240F2E284CEEB0203DBB2C5B24FF05C0C0CFB076C9CF90C90B9F1000FC0F29E839CF838
:403700000FC001EB0C09A94540F39483994240F28D838C4502D2CCEB0103DBB2724540F2D785CEEB0202B8F1FF0FD5B200F2D4859D42C0B203D8834228BF03461D46237BCA
:40374000A571AB421F4C00F0CE844FF05C0808FB07F794F80590F3191A8C08FB09663F320027920924334FF0040EA4F8722139464FF4807204F1680063662766C4F86871AA
:40378000A4F87071A4F8747184F8767184F8777184F8787184F87971C4F86C71C4F88C7184F87A7184F801E003F04EF92846B36D37E700BF1871000081808080503800208C
:4037C000B4390020E8370020B0390020D4F8649099F80050002D40F0C38299F80160002E40F0B38201252E460195B9F8028003F0F7F8B34B1A7802F0FF0A002A00F06B82D5
:40380000B04A4FF0000BD2F800A0127983F800B003F0EAF8B4F87231C4F88CB1AA49002B40F0478491F877011FFA85FEB042C1F860A0A1F870E191F8763180F0D682D1F8FB
:4038400068210130C0B203F11A0C524481F8770141F82CA0C1F868210133DBB2B3429A4984F8763124BF002381F8763100FB05F192FBF1F1B4F874514FF0000C7544ADB21E
:40388000B0422161A4F87451C4F860C0A4F870C18D4A22D392F87931002B00F0BF82D2F86C31D9F80400CE1A86EAE673A3EBE673834200F3AA8292F878310133DBB282F808
:4038C000783199F80820624508BF01229A420BD90123C4F86C1184F87931019B434538BF43469D42FFF433AA94F87A31A079002B00F0888202F0E4FE63782370FFF727BAB1
:403900006579714B022D40F206830021072259711A70FFF71CBAFF23036042F8713C03F05FF86A4A137843F01003137003F05CF8674A13781F0704D566490B68137818078D
:40394000FBD4654A0021012311703370FFF72CBADBB29A4228BF1A469046FFF7BFBA61795E4B00221B6822710BB11B2098475C4F5C4E00F057FF00F055FF5B483A7833781F
:40398000017802F0CF0203F0FE0342F0100243F0010321F004013A703370017000F0C0FF5249534F0B78534E03F0FE030B702022002001210C233A603260A070E170237036
:4039C00000234D492B700B784C4A4D4803F07F034C4E0B70106033782479002B00F0A880454A38481378484943F0800313704279464B002A14BF0222002200250D7011207A
:403A00001A70214602F06EFA414B1A78002A3FF49EA9404A84F077071278AB26C220B5211D708DF80B408DF80C708DF808608DF809008DF80A10002A3FF489A9364F374DDA
:403A4000DFF8E090DFF8E0C0DFF8E0B002AE0DF10D084FF0020A16F8014B39782A780846D2B202F1FF3E8B1AC1EB0E0EA3F17F03BEFA8EFEB3FA83F34FEA5E1E5B098A4295
:403A800088BF7346002BE9D18A4212D00A0659BF4B1CDBB20123002009F800403B709CF800309B0748BFCBF800A04645D3D1FFF74EB99CF800305B07E8D4194B1C70F4E77E
:403AC000B43900201883FF1FE837002097650040676500404465004087650040B0390020005B00400D510040025B0040004E004080E200E000E100E0756500402465004011
:403B000080A90300E882FF1F3E3A00207B6500403F3A0020413A002025370020243700204B640040283700206864004000E200E0C649FF2313600B6002F052FFC44A1378C7
:403B400043F01003137002F04FFFC24A13781D0704D5C1490B6813781807FBD4BF4A00210123117033703BE702EB0E001FFA80F8B8F1FF0F40F29A82002A11464FF00003CA
:403B800038BF0021FF25B0E541F288336A69C969921203FB02F3002BB14AC0F2F18303F5FF6382FB03E21A44DB17C3EBE223994240F39E8241F2883223699B1202FB03F259
:403BC000002AC0F2D383A64902F5FF6381FB031E9E44DB17C3EBEE2E41F2883C61698B120CFB03F3002BDFF878C2C0F2B68303F5FF618CFB018C8C44C917C1EBEC21714503
:403C000000F09E83002A9649C0F28D8302F5FF6281FB02E11144D217C2EBE121002B904AC0F2788303F5FF6382FB032EDA179E44C2EBEE235C2202FB076695F80EE0777B64
:403C40008B42B4BF00230123774594F806C01FFA8EF140F25783CE19CEEB0702FF2ED2B200F2548307EB0E069742F6B203D3B7423A4628BF3246944588BF83F00103637247
:403C800066796A7BA519724585F85A3001EB02039BB284BFCEEB0200C0B2FF2B98BF02EB0E034FF0010694BFDBB2FF230021052285F85660E071237261812270FFF747B885
:403CC000704538BF7046FFF7EAB99AB2FF2AF7D8DBB2FFF7E0B902F087FED4F88C31614901338B42C4F88C315F4A7FF630A847F6FF7192F87A3111619079002B00F08280D5
:403D00005A4D2B68002B3FF4F7AD0146262098472B68002B3FF4F0AD5146272098472B68002B3FF4E9AD5146272098472B68002B3FF4E2AD7F21272098472B68002B3FF415
:403D4000DBADFF2127209847D6E5402E28BF4026012533462F4603FB07F39BB2019344E599F801304BBBABB2019301263DE5454407EB85073B7A33B30121DAF80030397276
:403D8000FFF7B1BA41F288336A69D8F81C00921203FB02F3002B3249C0F24E8203F5FF6381FB0321DA170B44C2EBE323984240F39F8105232370FEF7CABF402B28BF40232E
:403DC000AFB21E46C7E7DAF800300121FFF78BBAC3F5FF6281FB02511144D217A2EBE125FFF7C4B80025FFF7D7B803F11A0C51F82C20D1F8687141F82CA0BA1A5244C1F8A3
:403E0000682129E502F080FC76E582F878C199F80820002A3FF45CAD634657E582F8783199F80820002A7FF451AD51E58D4298BF1D4684E45FFA89F581E499421ED99CF82B
:403E40000F508D423CBF4B1BDBB267E40465004097650040676500404465004087650040818080807F841E00E8370020B039002091422B4638BF1146FF2536E49CF80F20D8
:403E80000A44AA42D2DCD5B259E4DBB2FFF76FBB002BD449C0F23A8103F5FF6381FB03E11944DB17C3EBE121002ACE4BC0F2258102F5FF6283FB02E31344D217C2EBE323F2
:403EC0008B42FFF649AB90F80DE0817BA0798E451DD80023984240F20681421ED2B2E3792272FFF74BBBC2F5FF6283FB02E31344D217A2EBE323FFF72CBBC3F5FF6381FB73
:403F000003E11944DB17A3EBE121FFF716BBC1EB0E03DBB2DEE7B44AB44ED2F8008000226FF000415C271A739A6183F8212083F8222083F8232083F84C2083F84D205A620F
:403F40009A62C3F84E20C3F85220DA621A635A6301204FF0013207FB0567D9619963D9631964596483F820009A64B8F1000F02D029461520C04700F055FC9D495C230A78D6
:403F800003FB0563DFF884E29A4822F004020A709EF8001002781B7901F0CF0122F00102022B8EF80010027014D893495B00DBB251F823E091489EF800C0C25C0133DBB221
:403FC00051F823104CEA02028EF800200A78C35C13430B7000F0A4FC894B8A4908221A605C230A7803FB056342F001020A70B97B5A7B8A4202EB010341D998B2511AFF2846
:40400000CFB240D8BA42DBB203D39A4228BF1A4617464FF05C0808FB05F594F8059073191A8C08FB09663F320025920924334FF0030EA4F8722129464FF480727248636675
:40404000A7712566C4F86851A4F87051A4F8745184F8765184F8775184F8785184F87951C4F86C51C4F88C5184F87A5184F801E002F0EAFC3846B36D9847FFF790B899B2C4
:40408000FF290ED90027974238BF1746C1E7C3F5FF6382FB03021A44DB17A3EBE223FFF7FDBADBB2B1E70023FFF71FBBC5B2FFF710BB013BA1F87231FEF749BEC3F5FF63EB
:4040C00081FB0321DA170B44A2EBE323FFF7B2B9444BC2F5FF6183FB01E30B44C917A1EBE32CFFF7E5B9002001F038FAFEF72FBE012001F033FAFEF72ABEC2F5FF6283FBAF
:4041000002E31344D217A2EBE323D9E6C3F5FF6381FB03E11944DB17A3EBE121C4E6C1F5FF618CFB01EC8C44C917A1EBEC21FFF7F1B9C3F5FF618EFB018E8E44C917A1EB24
:40414000EE2EFFF7C8B999791A69C3F8848183F8885183F87D11C3F8802101F00DF9FEF7F6BD2169A079DAF800300022C4F88011C4F8848184F87D0184F8882194F88911E5
:404180000BB128209847002384F87B3101F0F4F8FEF7DDBDC3F5FF6381FB03011944DB17A3EBE123FEF719BFC2F5FF6281FB02011144D217A2EBE122FEF703BFC3F5FF63E7
:4041C00080FB03E01844DB17C969C3EBE0231A4482EAE2790029A9EBE2797FF75CA85842FFF744B881808080B039002018710000025B00400D510040707200006872000063
:4042000080E200E0004E004050380020005B0040C3F5FF6382FB03E21A44DB17A3EBE222FFF70BB8C3F5FF6382FB03121A44DB17A3EBE223FFF74CB8C3F5FF6381FB032111
:40424000DA170B44A2EBE323B0E5524F524E00F0E9FA00F0E7FA51483A783378017802F0CF0203F0FE0342F0100243F0010321F004013A703370017000F052FB4849494F16
:404280000B78494E03F0FE030B702022002001210C233A60326089F8020089F8031089F80030FFF78DBB08F1010889F80580FEF74EBD09221A70FEF74ABD3C4E3368002B87
:4042C0003FF40BA80121232098473368FFF705B8B8F1FF0F10D900259D4238BF1D46EDB2FFF72DBA99B2FF2909D94FF00008904538BF9046FFF75FB9C0B2FFF71CBADBB2B5
:40430000FFF755B9CA19FF2A16D90022BA4238BF3A46B0E4C3F5FF6382FB032EDA179E44A2EBEE2386E4C2F5FF6281FB02E11144D217A2EBE12171E407EB0E06F6B296E4F1
:404340005C2303FB0766337B95F80EE0DB43C3F3C01363721FFA8EF192E4C3F5FF618CFB018C8C44C917A1EBEC2148E4104BC2F5FF6183FB01E30B44C917A1EBE32E2BE450
:40438000C3F5FF6382FB03E21A44DB17A3EBE2230DE400BF005B00400D510040025B0040004E004080E200E000E100E0B039002081808080704700BF124B1A785978914274
:4043C0001FD070B41048027802F0040202F0FF05B2B91E460D4C02E00278520710D41A78110648BF35701A7859781A441279D2B222701A780132D2B21A701A789142EBD17E
:4044000070BC704724370020686400404B6400401A4AF0B517461A481A4C012500260378DBB213F01E0E05D092F884104EEA010182F884109B0600D4F0BD217892F885303D
:40444000C9B2134483F8881092F8A8300BB187F8A95092F885300133DBB282F8853092F885301F2B88BF82F8856092F8851092F8AA309942D3D182F8A850D0E724370020BD
:40448000696500404965004017280BD8064A0301995C002041F020019954995C41F00101995470470120704710700040172809D8054903015A5C002002F0F10242F004026D
:4044C0005A547047012070471070004041F6FF73994208BF4FF4005117280AD8C00000F1804303F5EC434FF480429A800020D98070470120704700BF10B502F071FA0B4BC6
:404500000022D3F8AC1083F8AB20012909D1084C216841F00101216000BF00BF00BFC3F8AC20BDE8104002F05FBA00BF243700200400084038B502F053FA0D4A92F8AB30C5
:4045400023B1042402F050FA204638BD094901250C6882F8AB502C40F4D00C6824F001040C6000BF00BF00BFC2F8AC501C46E9E7243700200400084038B502F031FA3E49A1
:404580003E4A0B783E4D43F008030B70137843F00803137002F028FA02F022FA95F8AB3023B1042402F020FA204638BD354B024618680121C40785F8AB1008D5186820F099
:4045C0000100186000BF00BF00BFC5F8AC102E4C104602F009FA23789B0733D52B4BB6200E22E121187019701A702278900729D401221A702378D90705D4182002F0E8F92F
:404600002378DB07F9D5214B1F4C1A78237885F8B020DA0705D4182002F0DAF92378D907F9D51A4A184B11781A7885F8B110900706D41C46182002F0CBF923789A07F9D5F3
:40464000002401E04FF0FF3402F0CAF9D5F8AC200023012A85F8AB30094909D1094D2A6842F001022A6000BF00BF00BFC1F8AC3002F0BAF9204638BDA0430040B0430040D4
:404680002437002004000840224700402047004070B5334C23789B071FD5324BB6260222D5251E701D701A702278960715D440221A70421E0F3012F8015F82421D70FAD1C1
:4046C0002078274A8507FBD51078800705D51078800802D11078800716D44FF0FF3402F07FF9214B0021D3F8AC2083F8AB10012A31D11E4D2A6842F001022A6000BF00BFF3
:4047000000BFC3F8AC1026E0B626D82505201E701D7018701278144B02F0020293F8B05093F8B10002F0FF060E4B002AD5D140221A701E7019701D7018702278084B960734
:40474000FBD51A789507C8D51B789B0814BF4FF0FF340024C3E702F047F9204670BD00BF2247004020470040243700200400084010B5044602F034F90B4B19461A7842F013
:4047800001021A700B78084A9B07FBD504F1804303F500431C781378E4B203F0FE03137002F022F9204610BD0247004070B41A4D87B02C466B4606466968286803AA03C239
:4047C00054F80C0F2D7A6168082E03C3217A157019701ED8114C06AB1E442378104803F08003DBB2237016F8181C237816F80C2C8900134301F00C010B432370037803F0FF
:40480000F3030370037816F8182C43F00C031343037007B070BC7047D07000000258004001580040F8B502F0DBF83349334A0B78334D03F0FE030B701378324C43F004030A
:4048400013702B78064643F002032B702378482043F00203237091F8913A2B4F03F0FC0381F8913A92F8913AA5F2473503F0F70382F8913A02F0ACF895F84733234A03F08A
:40488000FD0385F847332178214B01F0FD0121701178204801F0EF011170117804F58C5401F0FE0111701A78093402F0FE021A701A78194902F0EF021A703B78174A03F0A3
:4048C000F9033B70037803F0FE0303702B78304603F0FE032B70237803F0F70323700B7803F0FE030B70137803F0FE031370BDE8F84002F079B800BF004E0040014E00409C
:40490000F8460040F946004077580040AA430040BA430040A1430040A2430040B24300402DE9F04FC84C83B094F8B230002B62D194F8B330C54D03F0FF06002B5DD0012326
:4049400084F8B23002F04CF8C14A2B781178C14B41F0010111701178064641F0100111701A78BD4D42F001021A701A78BB4C42F010021A702B78BA4943F002032B7023783E
:40498000482043F0020323700B7843F003030B7002F01EF82B78B34903F0FD032B702378B14803F0FD0323700B787A2443F006030B7004703046AD4AA1F5A651137806392E
:4049C00043F0010313700B78A94D43F001030B705378013143F0010353700B78A54C4FF0005243F001030B702A60226003B0BDE8F04F01F0F9BF954DA4E70123DFF8D4821A
:404A00002B7084F8B46098F800309B4A43F0100388F800301378994943F010031370984F9848994BE0220A70984A0421397006701E701378143843F018031370944B07F819
:404A4000036C80F8056382F882600A221A70914A07F8156C06705B2010705E205872A2F6872214208C4B07F8096C10701B782A780F2084F8BA0004EB820292F8B6705BB2B7
:404A8000864A1B05177003F190432A7803F5DA03C340A4F8B83004EB8203B3F8B420804B1A802F7884F8BC60FFB2012F7FF447AFDFF824C27B4ADFF824E24FF0F8098CF8B6
:404AC0000090DFF81CA2DFF81C921170DFF818B28EF8001003F8080C3F208AF8006001F1804189F800008CF80860D67103228BF8006001F5B1418EF811204FF0500E0192C6
:404B0000694881F800E04FF0270E83F879EA2C2389F8803A067055208CF88A0A4FF05A0C8AF886CADFF8C4E1604B4D484FF0050C81F808C04FF0020B4FF0280CEB214FF0BE
:404B4000120A8EF800B089F889AA83F800C0017001F046FFDFF800A100909AF80030A9F20D7943F003038AF8003099F8003050484FF0520E43F0030389F8003080F800E03D
:404B8000482001F025FF9AF80030009903F0FC038AF8003099F80030084603F0FC0389F8003001F021FF434BC0211970019A424809F58D59414BDFF838C1DFF838E14049E0
:404BC000027009F101093F4889F800B08CF800B08EF800600E70C4F8C03098F80020038802F007029BB2012B0FD0A1F5A7511B390978C9B2002A7FD1002B7DD1078098F8CD
:404C0000003003F0BF0388F800301B482E4E0278338802F007029BB2072B0ED013490978C9B2002A40F0A080002B40F09D8007233380037803F0BF030370244B244A1B6849
:404C4000C3F8B4207BE600BF24370020C980FF1FAA430040BA430040F8460040F9460040915800407758004082580040A143004080E200E000E100E0024100401DE400E05F
:404C800096580040975800409E580040075B00408058004088580040180100490E4E00400C4E0040024E004087580040905800409258004094580040955800409A99010061
:404CC0009D580040804000400041004008ED00E0B543000082400040004E0040034E0040054E0040064E00400A4E00408E5800409B5800409C58004011F0010123D03D4849
:404D00003D4F3E4E00224FF0010E327080F800E03A7010F8082C6E3702F07F0200F8082C3A7810070FD43046072227F8803C32700378324A13F00103FAD1314E307800F01F
:404D4000FE00307013702E4B1A78D20744D56FF468773B441A462B4801260321068019701378DE07FCD450E711F0010124D02248204F224E00224FF0010E327080F800E006
:404D80003A7010F80C2CF23702F07F0200F80C2C3A78100710D43046A7F5807707223B8032700378154A13F00103FAD1164E307800F0FE0030701370134B1A78D20712D588
:404DC000A3F568731A460F4807260321068019701378DB07FCD430E70C4A012010801A781143197011E70A4A072010801A781143197022E71040004014400040014000403F
:404E0000A243004002400040A14300408040004000410040030608D4C00000F1804303F5F04399800020DA8070470120704700BF10B501F0D5FD0A4B5A78182A04D8FF24D1
:404E400001F0D2FD204610BD9C78013AE10001F180415A7001F5F0410A789A70F0E700BFC980FF1F172805D8034B00010344597200207047012070471070004008B501F048
:404E8000B7FD03680C2B00D0FEE7FEE7C24BC34AC3491A600B68C34A43F40073C2480B600023032B94BF50F82310C0490133302B42F8041FF5D12DE9F041BD4BBD4ABE498C
:404EC00009781A6072B6BD4EBD4A35461378002443F00403137004EB4403AA8856F813000134002101F0B0FD082C05F10605F2D18022B449B44801F0AFFDB44EB44F00257F
:404F000056F8043F13F0FF0E23F0FF0413D005F110530EF1FF3E03F147005FFA8EFE7044463340005B001A785978023398421155F9D101357544BE42E2D1A64BA6490A220A
:404F40001A700B78A54A43F002030B701378A1F5863143F00203137063390B78A2F5863243F040030B70513A9D4D9E4C1378D5F800C0D4F800E09C489C499D4D9D4F43F09B
:404F80001003066808681370C5F800C0C7F800E043F69727984C9949266041F25126984A0025A4F51454974B0860163C1560A2F5105203CB3E3A2060616003CB0E3410605B
:404FC000516093E8070003C48F4B9049228007C903C3A4F6F6541A8022788D4B42F00802DFF88CE203CB227061228EF80020894AA4F2A2242580AEF27E7E10605160864D6E
:4050000050228EF800208548192285492A801825A57107800A70196826270322814B84F8807280F878211B787F4FDBB23B707F4B0827A4F8A2717E4AA0F898611C784FF4D5
:40504000F070116004F001041E4601F0C1FC01E0032C0DD033784FF4F07003F0010343EA440401F0B5FC013D04F00304F0D1FEE7704B714A714D4FF4807007211880DFF82E
:40508000F4C119700020DFF8F0E148212870117002250421187040F206278CF800508EF8001092F89A33664843F0070382F89A330278644B42F0010202701A787F263446C1
:4050C0000EF5F72E42F080021A7001200EF2F97E4FF081085C4A8CF8FF878EF800001278AEF5F42ED2B2AEF2967E02F0070CCA408EF800C08EF80120544A4FF0B00E82F81C
:4051000000E04FF0060E82F83BE74FF0050E82F83DE7DFF868E18EF800104FF0400E82F8C7E84FF0200E82F8CBE8DFF854E182F84559474D8EF8000082F8560910202870CB
:405140004448454D8EF812104FF0800E82F8C7E90560424DA2F8077A29272F70A0270776A5F5347582F81D1A44270FCB2F70A5F5A655063D07C53A483A493B4A2B8080F807
:4051800000E00E70013CE4B202F80849002CF9D1364B1C70BDE8F0810CED00E00004FA0514ED00E0FC7FFF1F000000007D4E000008ED00E00080FF1FBC760040E8700000FC
:4051C000E84600400007004880180140FCFFFF4788000048835800400350014013500140B4070048B8070048BC070048C00700480876004010760040187600402076004069
:405200000076004080070048205100409C070048A80700483251004084400040884000408A40004008010049A146004025420040004100400440004008400040064000404A
:40524000A1430040A0430040CF0100493D510040985A0040405B004025010501465B0040CA80FF1FCB80FF1FF87B00400078004000480040014000400B400040025A00407A
:40528000885A0040F8B5394C5C236579384E03FB05F394F8882106F130001844C2B941F2883233441B6FD4F884719B1202FB03F3002B50DB2F4A03F5FF6382FB03121A4426
:4052C000DB17C3EBE2239F42CCBF0027012700E00027437B807B94F87D11834203EB00022CD9181A93B2FF2BC0B231D9884238BF08465C2303FB056684F87D01D6F8883026
:40530000984705EB4505D4F8803194F87D2104EB8505C5F89C3185F8A07185F89821134B07B91F71D4F8C83113B139462920984763790A22013363712270F8BD93B2FF2B42
:4053400004D8D0B2884228BF0846D2E70020CDE78142CED3F5E70749C3F5FF6281FB02131344D217A2EBE323ADE700BFE8370020E8700000818080802DE9F843724C94F8B0
:4053800088316079002B00F08F8070495C2303FB001394F87C7193F875506B4ABD4240F29D8093F87450002D00F09880024492F85660002E00F0A48092F85A30002B40F061
:4053C000A4805C2303FB0013D4F880219B6B9A4200F3A4806B421BB25D4A4FF05C0E0EFB002E94F87D819EF80DC09EF80E6008EB03052DB2B445AE4674D9C6EB0C095FFA6E
:4054000089F94D4570DA66441FFA86FCBCF1FF0FCE464D4672D8F6B2B6456FDDB0455DD05C2505FB00F001EB0008B8F8781010443F31002500F14C020137880984F87C7115
:40544000294684F88931626601234FF48072A4F872010B273F4884F87B3184F87A31A6712566C4F86851A4F87051A4F8745184F8765184F8775184F8785184F87951C4F8AC
:405480006C51C4F88C51677001F0DEFAD8F888303046984701F0A4FA84F8CC5101F0A4FA02232370BDE8F88341F2883227495C2303FB00131B6FD4F884519B1202FB03F3D2
:4054C000002B254E2CDB03F5FF6386FB0326DA173344C2EBE3239D423FF758AFBDE8F843FFF7D0BE002D24DB66441FFA86FCBCF1FF0F90D9FF2DC8BFFF268FDCEEB28DE77C
:4055000093F93C30002BFFF65CAF5C2303FB0013D4F880219B6B9A42BFF65CAF2BB25BE7C3F5FF6386FB0326DA173344A2EBE323D1E766441FFA86FC4FF0000EBCF1FF0FC6
:4055400075467FF668AFD9E7E8370020E870000018710000503800208180808041F288322DE9F047854C5C256679DFF81C8205FB06F108EB01035B6C08F130059B1202FBEE
:4055800003F3002B0D44074694F80CA0D4F81890E169C0F2D5807A4A03F5FF6382FB03021A44DB17C3EBE22394F820209942D8BF0127724B22B193F82220002A00F0A3808C
:4055C00041F288334FEAA92203FB02F3002BC0F2AD806B4A03F5FF6382FB03121A44DB17C3EBE223002BB8BF5B421F2B05DD6179624B022900F0AE8000276B7BAD7BAB42BB
:4056000003EB050177D95D1B8BB2FF2BEDB240F28980554538BF55465C2303FB06882846D8F888304FEA4608984708EB060304EB830383F89851C3F89C9183F8A0714F4BF7
:4056400007B91F71D4F8C8314C4F23B1294613209847D7F8C83108EB060204EB8202D2F89C51B5F5004F42DA15F5004F7CDA454D8021002B34D014209847D4F8C831E9B29F
:405680003E4F002B73D01420984708EB0603D7F8C82107EB8303D3F89C510AB3290E1D209047D7F8C831C5F30741CBB11D209847D7F8C831A3B1C5F307211D209847D4F8AC
:4056C000C831E9B22D4F5BB11D209847D7F8C83133B1464407EB860797F8A0111620984763790122134463712270BDE8F0877F2147F6FF75BDE78BB2FF2B11D8CDB2554532
:4057000028BF554688E793F8211000293FF458AFD3F8C83133B331462420174698474FE7002576E7AA45FFF477AFE7E71449C3F5FF6281FB02139918D317A3EBE12351E7BE
:405740000F48C3F5FF6280FB02039818D317A3EBE02329E7D3F8C871002F3FF44EAF1C20B84749E71F462BE7C5F3072181E70C2303FB0677D7F89C51A1E700BFE837002085
:40578000818080800080FFFFE8700000F8B5194C94F8D131012B0CD0002384F8D13101F01FF9D4F8405201F01FF91935C4F8F051F8BD114D114F2B78114E03F0FE032B700A
:4057C000FFF730F80F483A783378017802F0CF0203F0FE0343F0010342F0100221F004013A7033700170FFF79BF82B7803F0FE032B70D1E7E8370020004E0040005B00407D
:405800000D510040025B00402DE9F04FDFF850E35C2404FB00E4A36BD4F844909B1A83EAE37CCC4DACEBE37C4FEA400BE1450BEB0004B4BF0027012705EB84042E1884F88D
:40584000A07196F8F47187B0C4F89C21002F40F0E18000F10A08860034180EEB8404D4F85041644580F20F8102922A18019192F8141204460F460391B7495C2000FB041080
:40588000B449C7B304F1120A01EB8A01D1F8D41101F1FA0767452EDA92F92C725FB3022C92F8F86140F2608105EB880889450BEB0403D8F8D41104F11802D5F8C88105EB20
:4058C00083034FF00007B4BF4FF000094FF0010905EB82022C44C3F89C1183F8A091C2F8D07184F81472B8F1000F02D031462220C04701208BE004F1180205EB82090592EC
:40590000D9F8D02195491A448A42B8BF0A46DFF854A231195245A8BF52460EEB8101C9F8D021D1F84891D1F84CA109FB02F2BAF1000F08BF4FF0010A92FBFAF2D1F844114A
:4059400001FB03212A1992F80C92002918BF0B46B9F1000F7AD092F81022002A7DD1002B7DDD4FF6FF734FF0FF32049246F26662264494450EEB8606CCBF96F8551196F8FD
:405980005411019A01FB0321427B837B09B29A420E4667D9D01AC0B28142C0F2A680D0181FFA80FABAF1FF0F66D9FF29C8BF4FF0FF0965DD029F05EB8808C8F8D471019F79
:4059C000291901264F4581F8F87181F8F461DFF8848100F08D80039F002F70D19DF8047029199DF81080012681F81872022C05EB840781F82C8281F81462C7F81CC27ED9C2
:405A0000D5F8C86116B149461F20B047002007B0BDE8F08F96F8F84100F10A088C423FF41AAF05EB8807D7F8D471BA423FF413AFD4BF012700278C422CBF3C4687F0010438
:405A4000012786F8104286F80C7204E75C2202FB04E292F93C20002A81DB002B81DD0123049383E700299ADA0026314698181FFA80FABAF1FF0F03D85FFA80F94E4599DCE0
:405A80005FFA81F996E72C18012600F11807002084F81402304605EB8707D7F8D03105EB880803EBD3735B10C8F8D42184F8F811C7F8D03184F8F46107B0BDE8F08F91F857
:405AC00018724F458AD1059BD8F8C82108EB83080023C8F8D03181F81432002A3FF409AF222049469047304691E706460146BDE73046002381F8143207B0BDE8F08F9A42C2
:405B00001CD8BAF1FF0F20D900264E4538BF4E465C2303FB04EE3046DEF88830984795F844325C44022B0B4A05EB840498BF032384F8986198BF82F8443261E7D31ABAF173
:405B4000FF0FDEB2E1D84E45E2D8C6B24E4528BF4E46DDE7E837002018710000A099F9FFE870000060660600437B877BBB4203EB070220D991B2DB1BFF29DFB21FD8BE4284
:405B800026D25C2303FB04EE3846DEF88830984795F844220BEB040305EB8303022A83F898710E4B0FD803EB8A0A0322DAF8D41183F8442278E693B2FF2B09D90027B7422F
:405BC00038BF3746DDE703EB8A03D3F8D4116BE6D7B2B74228BF3746D3E700BFE83700200349044B0420012208601A70704700BF80E200E0E982FF1F3E4A13889BB29BB97A
:405C00003D4B1B787BB13D4A117853789278120442EA03230B431A02394A48BF43F07F431278022A05D070471388013B9BB2138070472DE9F047334D2A7802F0FF07002AA6
:405C400055D1314A314814880188621E92B2B2F5007F34BF26464FF4007689B2B14246D22B4E318889B21D2941D83188B0F800C0DFF8A0E04FF05A081FFA8CFC08FB0CEC1C
:405C800001EB410189B25FFA83F90CF80190B0F800C001F101091FFA8CFC08FB0CECC3F3072A0CF809A0B0F800C0C3F307431FFA8CFC08FB0CEE02310EF80130338801331E
:405CC0009BB2338033889BB21D2B10D937800388B2F5007F03F101039BB20380038828BF4FF400749BB2A34224BF01232B70BDE8F08700BF1683FF1F1D83FF1F2482FF1F2A
:405D0000403A00203C3A00200883FF1F3A3A00200A83FF1F2083FF1F2DE9F0435E4B1B7853B3002004465D4D5D4E29182A5C4B7889783778090441EA0323134313F4000F3C
:405D400043F07F4218BF13461A46002BB8BF03F11F02F9B25211012908BF13460330C0281C44E2D14F4D5049504B402001222C6008701A70BDE8F0834D490B7848788A788E
:405D8000120442EA002213431A02454A48BF43F07F431278012A10D0464A474C1360156846490120464B256008701B781BB9454B1B78022B06D0BDE8F083002BB8BF1F3303
:405DC0005B11E9E7404C2378002BF4D13F4B4048198803884D1EADB2B5F5007F34BF0E464FF400769BB2B342E5D23A4E33889BB21D2BE0D8384F33883F7803EB43039BB21C
:405E0000002F47D0354F3A6802F1010EC7F800E022F07F42B0F800E0314F4FF05A0C1FFA8EFE0CFB0E7E5FFA82F80EF80380B0F800E003F101081FFA8EFE0CFB0E7EC2F3CF
:405E400007290EF80890B0F800E002331FFA8EFE0CFB0E77C2F30742FA5433881C4A01339BB2338033881B4E9BB21D2BA3D9002333801388B5F5007F03F101039BB213801E
:405E8000038828BF4FF400719BB28B4224BF0123237090E71268BDE73E3A00206481FF1FC980FF1F1883FF1F1C83FF1FB43900206081FF1F303A0020EC82FF1FEB82FF1F4E
:405EC0001D83FF1F403A00203C3A00200883FF1F3A3A00200A83FF1F1483FF1F1083FF1F2083FF1F2DE9F04F2E4A2F4B12781C78D2B282F0C4034B4083B04340AB26C42588
:405F00008DF802008DF803108DF804208DF805308DF800608DF80150002C38D06E46DFF894E0224DDFF89090DFF890C0DFF890B00DF106084FF0020A16F8014B9EF80010F6
:405F40002A780846D2B2571E8B1A7F1AA3F17F03B7FA87F7B3FA83F37F095B098A4288BF3B46002BECD18A4214D00A0659BF0131C9B20121002009F800408EF800109CF8F8
:405F800000309B0748BFCBF800A04645D4D103B0BDE8F08F9CF800305F07E6D4044B1C70F3E700BF403A0020413A0020243700204B640040253700202837002068640040A0
:405FC00000E200E02DE9F041534B544C1B78580708D533202178FFF785FF2378012B48D0BDE8F08134202178FFF77CFF4C494D4A0B784D4803F0FE030B7013784B4903F00D
:406000007F034B4D137001602B78B3B1454A494F1378494E43F08003137000F0E1FC474D4749484A00233B8033702B800B8013702370BDE8F04100F0D7BCFF23036042F871
:40604000713C00F0CDFC404A137843F01003137000F0CAFC3D4A1378190704D53C490B6813781B07FBD43B4A0021012311702B70CCE7394B1B7813B1384B3F221A80284944
:40608000DFF8EC80364F98F800600B78254A03F0FE033D880B7013782C4803F07F031370304B691E02784022B1F5007F1A60F6B228BF4FF4007500F093FC00361D494FF0ED
:4060C000000318BF01261C4A88F800600B801B4E1B4913701B4A33800B80234E23491370022233600B80227000F07EFC3B88B3F5007F03D9FF213E20FFF7F4FEFF2D94BF92
:40610000E9B2FF213520FFF7EDFE054A137843F001031370BDE8F081C1510040403A0020004E0040756500402465004080A90300E882FF1F0A83FF1F0C83FF1F383A0020C9
:406140003A3A00203C3A0020976500406765004044650040876500401D83FF1F1683FF1F0883FF1F80E200E01083FF1F1E83FF1F1483FF1F10B5244A244B25491B781368F5
:40618000013313600B78BBB1224A13780133DBB213701378ABB9204A20491378204803F07F03204C13700860237883B11A4A137843F08003137010BD03F0FF02154B1A70EB
:4061C000E9E7194B0020012110701970E3E7FF230B6042F8713C00F003FC144A137843F01003137000F000FC084A1378190704D50F490B6813781B07FBD40E4A002101239B
:4062000011702370D2E700BF283A002067650040213700200483FF1F756500402465004080A90300E882FF1F20370020976500404465004087650040F8B52C4D6B78012B93
:4062400032D000232A4C6B7000F0CAFB294B1E6800F0CAFB2378193603F0FE0323702E62FEF7E0FAFEF75CFB2378234E03F0FE032370224DFEF7D6FA214832782B78017832
:4062800002F0CF0203F0FE0343F0010342F0100221F0040132702B700170FEF741FB237803F0FE032370F8BD114C134F2378134E03F0FE032370FEF7B5FA11483A78337844
:4062C000017802F0CF0203F0FE0343F0010342F0100221F004013A7033700170FEF720FB237803F0FE032370ABE700BFB8390020004E0040283A0020005B00400D51004042
:40630000025B0040014B1870704700BF805B0040014B1870704700BF825B0040014B1870704700BF815B004041F288322DE9F84F8368CB499B1202FB03F3002BC0F25D81EA
:4063400003F5FF6381FB0321DA170B44C2EBE32641F28832C34C2769BB1202FB03F3002BC0F24181BE4903F5FF6281FB02511144D217C2EBE122B21A94F84C5082EAE2766D
:40638000A6EBE276A179B74AF5B392F84EE08E4500F02781012D40F2228192F84FE08E4500F01F81022D00F01A8192F850E08E4500F01781032D00F0128192F851E08E45DF
:4063C00000F00F81042D00F00A8192F852208A4200F00781052D00F0028194F853E0A14A8E4500F0FE80062D00F0F98092F854E08E4500F0F680072D00F0F18092F855504A
:406400006D1AB5FA85F56D09D0F81CE0BEF1000F21DD002BC0F2FA80914A03F5FF6382FB03021A44DB17C3EBE22341F288304FEAAE2200FB02F28A4802F5FF6280FB02E03B
:40644000002B10444FEAE272B8BF5B42C2EBE022934280F2A380844B1B6823B1002123209847A179276994F82020012384F822307C4B002A00F0AE800022E6612173A761FE
:4064800084F8202094F82300764B002800F0E68093F824E08E4500F0E980012840F2CC8093F825E08E4500F00181022800F0C48093F826E08E4500F0FB80032800F0BC8077
:4064C00093F82700884200F0EF80D3F838E0D3F83C8093F848C00EF1805093F849A0BCF1000F18BF864608F18050BAF1000F14BF8246C2464EEAEE7C186CE24593F84A904A
:4065000000F1805ED4BF4FF000084FF00108D445B8BFD446B9F1000F18BF7046D3F8449093F84BB08445ACBFC6464FF0020E09F1805A84456346B8BF0346BBF1000F0CBF3A
:40654000CC46D4469C45D4BF704603206345B8BF6346002A64D1B6469E450BDA231800F10A0E0E3083F8241083F8482044F82E7044F820607DB994F84C20A079072A394B11
:4065800051D993F84D20511C01F007011A4483F84D1082F84E002846BDE8F88F324B1B68002B40F0878094F82230012284F821202C48002B7FF466AF90F820301BB9C3699C
:4065C0009E42BFF65FAF0122E6612173A76184F8202057E7DB699E42FFF64EAF52E7002512E7012510E71E4AC3F5FF6182FB01520A44C917A1EBE222BDE6C3F5FF6381FB27
:406600000321DA170B44A2EBE326A1E61448C3F5FF6280FB02039818D317A3EBE02304E706F1805E98E79918013281F84E0083F84C202846BDE8F88F431CDBB204EB000E65
:4066400084F8233000F10A030E308EF824108EF8482044F8237044F820608BE70123EDE781808080E8370020B03900200023E11891F848108AB9A1B903F10E0154F821001F
:406680008642BFF677AF03F10A00234444F8216044F8207083F848206CE701297FF46AAFEAE703F10E01EEE70323E0E70123DEE70223DCE7012123209847A179276972E7AF
:4066C00070B5104D2B68DBB10C460146262098472B68210EA3B1272098472B68C4F3074173B1272098472B68C4F3072143B1272098472B68E1B21BB1BDE8704027201847AA
:4067000070BD00BFB039002070B51D4D0C462B681BB10146132098472B68B4F5004F25DA14F5004F28DA174E802123B3142098472B68F1B2124E9BB1142098473368D3B1E4
:40674000210E1D2098473368C4F307419BB11D20984733687BB1C4F307211D2098472B68E1B243B1BDE870401D2018477F2147F6FF76002BDAD170BDC4F307212646D4E7A4
:40678000B03900200080FFFF2DE9F04F7D4DDFF82C826A780023012AA8F8003083B0A8F80230044688F8043000F0C3800023764F6B7000F015F93E6800F016F9734B193605
:4067C0001B782E62172B16D8714A1B011146985C194400F0FE009854985C00F0DF00985498F805004872995C41F020019954995C41F001019954674B04220126664D88F874
:40680000066000211A701020FFF76CFB95F802A0DFF8A881BAF1000F09D000211120FFF761FB002C37D1204603B0BDE8F08F5B4B20221A60FDF7F6FFFDF7F4FFFEF770F854
:40684000574A4FF00309137803F0FE031370FDF7E9FF544BAE7083F8009085F803A02E7185F805A02E7000F0BBF83F6800F0BCF8201C18BF012088F807003046C5F890712A
:40688000C5F8947188F80890C5F856A0C5F85AA003B0BDE8F08F98F80930AB25C224B520002177228DF800508DF801408DF802008DF803108DF80420002B38D06E46DFF88E
:4068C00000E1394DDFF8FC90DFF8FCC0DFF8FCB00DF105084FF0020A16F8014B9EF800102A780846D2B2571E8B1A7F1AA3F17F03B7FA87F7B3FA83F37F095B09914238BF1D
:406900003B46002BECD1914234D00A0659BF0131C9B20121002009F800408EF800109CF800309B0748BFCBF800A0B045D4D10020AEE71B4E1D4F337803F0FE033370FDF7FF
:4069400071FF3A781A4802F0CF020378194942F010023A700A7803F0FE0343F00103037022F004030B70FDF7DBFF337803F0FE0333701BE79CF800305F07C6D40E4B1C7096
:40698000D3E700BFB8390020283A0020CC80FF1F107000407B650040E837002080E100E0004E00402C3A002024370020005B00400D510040025B00404B640040383A00201B
:4069C00025370020283700206864004000E200E00230800803D000BF01380046FCD17047EFF3108072B6704780F31088704700BF014B1868704700BF3081FF1F0E4B70B51E
:406A00001E460E4C0025E41AA410A54204D056F8253098470135F8E700F04AFC084B094C1E46E41AA4100025A54204D056F8253098470135F8E770BDBC720000BC7200007B
:406A4000BC720000C472000003460244934202D003F8011BFAE7704710B5431E0A44914204D011F8014B03F8014FF8E710BD00000000000020130025611780260100802649
:406A8000E00E8026C20C8026020080066587186D6409183E00008026032080262102187F0000000000000000000000000000000000000000000000000000000000000000E9
:406AC0000000000000000000000000000000000000000000000000000000000000000000000000000000000000000000000000000000000000000000000000000000000096
:406B00000000000000000000000000000000000000000000000000000000000000000000000000000000000000000000000000000000000000000000000000000000000055
:406B40000000000000000000000000000000000000000000000000000000000000000000000000000000000000000000000000000000000021F805014210864064F815016C
:406B800081F8050143518E21000000000000000000000000000000000000000000000000000000000000000000000000000000000000000000000000000000000000000013
:406BC0000000000000000000000000000000000000000000000000000000000000000000000000000000000000000000000000000000000000000000000000000000000095
:406C00000000000000000000000000000000000000000000000000000000000000000000000000000000000000000000000000000000000000000000000000000000000054
:406C40000000000000000000000000000000000000000000000000000000000000000000000000000000000000000000000000000000000000000000000000000000000014
:406C800000000000000000000000000000000000000000000000000000000000000000000000000000000000000000000000000000000000000000000000000000000000D4
:406CC0000000000000000000000000000000000000000000000000000000000000000000000000000000000000000000000000000000000000000000000000000000000094
:406D00000000000000000000000000000000000000000000000000000000000000000000000000000000000000000000000000000000000000000000000000000000000053
:406D40000000000000000000000000000000000000000000000000000000000000000000000000000000000000000000000000000000000000000000000000000000000013
:406D800000000000000000000000000000000000000000000000000000000000000000000000000000000000000000000000000000000000000000000000000000000000D3
:406DC0000000000000000000000000000000000000000000000000000000000000000000000000000000000000000000000000000000000000000000000000000000000093
:406E00000000000000000000000000000000000000000000000000000000000000000000000000000000000000000000000000000000000000000000000000000000000052
:406E400000000000000000000000000000000000000000000000000000000000000000000000000000000000000000000000000000000000D40A0000EF0C0000EB0C000042
:406E8000900A0000EE0500006EFFFF00E4F7FF0087F0FF00D1EAFF0046E8FF0023EAFF0006F1FF009DFCFF00810B00003C1B00009E280000473000005B2F000046240000F4
:406EC000550F000009F3FF00F3D3FF001AB8FF00F5A5FF0014A3FF00CAB2FF0014D5FF0007060000033E0000AF720000B7980000FCA50000DC9300001A610000ED120000A3
:406F0000E3B4FF008157FF009E0DFF00FDE8FE008FF6FE003A3BFF00B0B1FF00074A000048EB0000F47601000FCE0100F1D60100EA820100A0D200004BD8FF0026B7FE008F
:406F4000E79FFD008ACAFC003F6EFC00A2B8FC00A3C5FD007899FF00A81D0200F421050011610800C6880B0040440E00334710001D5811001D5811003347100040440E00D2
:406F8000C6880B0011610800F4210500A81D02007899FF00A3C5FD00A2B8FC003F6EFC008ACAFC00E79FFD0026B7FE004BD8FF00A0D20000EA820100F1D601000FCE010054
:406FC000F476010048EB0000074A0000B0B1FF003A3BFF008FF6FE00FDE8FE009E0DFF008157FF00E3B4FF00ED1200001A610000DC930000FCA50000B7980000AF72000057
:40700000033E00000706000014D5FF00CAB2FF0014A3FF00F5A5FF001AB8FF00F3D3FF0009F3FF00550F0000462400005B2F0000473000009E2800003C1B0000810B000047
:407040009DFCFF0006F1FF0023EAFF0046E8FF00D1EAFF0087F0FF00E4F7FF006EFFFF00EE050000900A0000EB0C0000EF0C0000D40A0000FF3F0000000000000000000038
:4070800000000000000000000000000000000000000000000000000000000000000000000000000000000000000000000000000000000000ABC000C00111213141615363E9
:4070C00073000000080901010507070404000000011121314161536373000000080901010507070404180000405100403000F05100401000000001400010001401408004BE
:4071000000190140000300400140000A004C014000020050014020008872000000000000CDCC0000019CFF2010000000FA000000FA000000C0D40100B4002C012008000234
:407140000A00000002000000200800040A0000000200000000000000FA0000000100000000000000200800020A000000020000001D630000947200000100000034330100AB
:40718000019CFF2010000000FA000000FA000000C0D4010058028403200800020A00000002000000200800040A0000000200000000000000FA000000010000000000000030
:4071C000200800020A0000000200000011630000A07200000200000034330100019CFF2010000000FA000000FA000000C0D401008403B004200800020A00000002000000A3
:40720000200800040A0000000200000000000000FA0000000100000000000000200800020A00000002000000056300000100000001000000080000008813000001010000D6
