:400000000080002011000000BD520000BD520000144A80B5144B1268144F1A60F7B1144E002556F80C4C56F8080C56F8102C234638B1043A52F8041F43F8041B191B814299
:40004000F8D156F8040C1A4620B142F8045BD11A8842FAD1013F06F11006E2D106F032FF00F036F8FA460040BC760040010000002478000010B5054C237833B9044B13B18B
:400080000448AFF300800123237010BD3081FF1F00000000386F0000084B10B51BB108490848AFF300800848036803B910BD074B002BFBD0BDE81040184700BF0000000092
:4000C0003481FF1F386F0000C080FF1F000000002DE9804889B062B6B04C2278002A01F02F8406F0E1FEAE49AE4E0B78AE4A43F020030B703378012543F010033370156052
:4001000091F80231A94F43F0100381F802310226A1F503513E60373916600B78A44A33430B7013783343137006F0C2FEA14BA24A00212846136006F077F906F0B5FE9F4916
:400140009F4A0B7843F008030B70137843F00803137006F0ADFE04F057FB002801F0CE8306F0A2FE9549964A0B78964D43F008030B701378C82643F0080313702E700B7BEC
:4001800043F010030B73137B01F5587143F0100313730B789D06FCD506F08AFEA3787F49657853B9884B01201A78887002F0FC021A701A7842F003021A70844884490378C2
:4001C000844A43F0600303700B78E07843F004030B701378714943F004031370002801F066837D487D490378784A43F0020303700B78207943F002030B701378674E43F0DF
:4002000080031370002801F03C837348734903786E4A43F0040303700B78607943F004030B7013785D4E43F080031370002801F0C383694869490378644A43F0080303706D
:400240000B7843F008030B70137843F08003137004F0A4FA04F08AFAA379504943B9604A01201378887103F0CF0343F030031370E3794A4943B95B4A01201378C87103F05E
:40028000CF0343F030031370207A444F002801F07D835148514903784C4A43F0010303700B78284643F001030B70137843F08003137004F09DFC637A384953B94A4B01203B
:4002C0001A78487202F0FC021A701A7842F003021A703E483E4903783E4A43F0600303700B78A07A43F001030B7013782B4943F00103137050B93D4B01201A78887202F094
:40030000FC021A701A7842F003021A702F4830490378304A43F0600303700B78E07A43F002030B7013781D4943F00203137050B92F4B01201A78C87202F0FC021A701A783C
:4003400042F003021A70214821490378214A43F0600303700B7843F008030B70137843F008031370234B1B78DA0741F13B83214923F00103204A0B701378204903F07F03D1
:40038000019113700B78013BDBB20B70C3BB12F8583C23F0080302F8583C31E04C81FF1F996400409A64004000E100E080E200E0B243004029640000F4380020A0430040EE
:4003C000B0430040014700405C58004077580040A4430040B4430040A9430040B9430040785800407A580040585800405A5800405E58004016370020585B004018370020B0
:40040000A74BA7491B789F0712D5A64A23F002030B70137823F008031370019A1378013BDBB2137023B9A04A137823F0080313709B4B9B491B785E0712D59C4A23F00403FE
:400440000B70137823F040031370019A1378013BDBB2137023B9944A137823F0080313708F4B8F491B781D0712D5904A23F008030B70137803F07F031370019A1378013B9D
:40048000DBB2137023B9884A137823F008031370834B83491B78D80612D5854A23F010030B70137803F07F031370019A1378013BDBB2137023B97C4A137823F0080313702D
:4004C00004F0D2FB764B764A1B78D90715D5794923F0010313700B7803F07F030B7001990B78013BDBB20B70002B41F07F826E490B7823F008030B7013789F0716D5684A2F
:40050000684923F0020313700B7823F008030B7001990B78013BDBB20B70002B41F0A68161490B7823F008030B7013785E0716D55B4A5E4923F0040313700B7823F040030C
:400540000B7001990B78013BDBB20B70002B41F0908155490B7823F008030B7013781D0716D54F4A514923F0080313700B7803F07F030B7001990B78013BDBB20B70002B0B
:4005800041F07A8148490B7823F008030B701378D80614D5424A464923F0100313700B7803F07F030B7001990B78013BDBB20B7023B93D490B7823F008030B70137819074F
:4005C00016D4374943F00803384A0B7013783A4963F07F031370019B1B7833B992F8C33943F0080382F8C3390B78019A0133137004F0B8FB3149237B0A78314802F0FE021A
:400600000A70002B01F00F812E4A2F4913782F4843F0010313700A78637B42F001020A709C2202702648002B01F0D780254A26491378274843F0040313700A78A37B42F061
:4006400004020A709C2202701D48002B01F09F801C4A1D4913781F4843F0080313700A78E37B42F008020A709C2202701448002B00F0F786184E1349B0460B78124843F029
:4006800002030B700378154F154A9C2143F00203037007F1300911704FF0000A22E000BF16370020FD510040005B00403D5100401D510040585B004018370020004E004056
:4006C0004C81FF1FA8430040B8430040805B0040825B0040835B004008760000C4380020815B00404FF0010B98F80D2098F80E105318551A8A4298B2EDB240F2F88299B261
:40070000FF2900F2F782AA4280F0FB82D8F85830284698470C3707F80C5C47F808AC07F804BC4F4508F15C08DED1CE4DDFF8B483AA46CD4A04230DF1100B1370CBEB0808F3
:400740000DF10F0706F0B0FB2B7843F001032B702B789A07FCD518F807909AF800305FFA89F903F0FE038AF8003006F0A1FB07F8019F0DF11F039F42E4D19DF81030CA2B9F
:4007800000F04287267CDFF86083002E00F0B686B648B74A0378B74943F0100303701378B54D43F0100313700A78B44B42F00102B34F0A700226002283212E703046197084
:4007C0005E70390C9A70DA7003F0BAFF304603F0A7FF04F04DFD0306064609D4C30003F1804303F5F0430321062219809870DA70BAB244F61061304604F02CFD2F783146C3
:40080000384604F04FFD384603F078FF9D4F9E4B012600228321197030465E70390C9A70DA706E7003F08CFF304603F079FF04F01FFD0646300609D4F30003F1804303F59C
:40084000F0435A21062219809E70DA70BAB244F61061304604F0FEFC6F783146384604F021FD384603F04AFF884B002683221A704FF480415E7030469E70DE70AE7003F0B1
:400880005FFF304603F04CFF04F0F2FC0106064609D4C30003F1804303F5F0430321022219809870DA704CF2A07244F61061304604F0D0FCAF783146384604F0F3FC38468E
:4008C00003F01CFF724F734B002204268321197030465E70390C9A70DA70EE7003F030FF304603F01DFF04F0C3FC0206064609D4C30003F1804303F5F043032107221980A1
:400900009870DA70BAB24CF2A871304604F0A2FCEF783146384604F0C5FC384603F0EEFE5D4F5E4B032600228321197030465E70390C9A70DA702E7103F002FF304603F086
:40094000EFFE04F095FC0306064609D4C30003F1804303F5F0435A21072219809870DA70BAB24CF2A871304604F074FC2D793146284604F097FC284603F0C0FE484B494AAB
:400980005B780021012B117000F0AF85444B464D00265E7006F088FAD4F8D47006F088FA2B78193703F0FE032B703D4B1F6204F05BF904F0D7F92B783C4F03F0FE032B7008
:4009C0003B4D05F047F93146022005F02DFD2B683849394A08260E60DA64384BE0223A7037481E602E6810270F603065354E364832701F602F6840260E60B865334FDFF811
:400A0000ECE03A7028681E6020260E60C0F854E02F4807F8012C1E6007782E4E47F0040707703078DFF8C8E040F004002D682A4F3070042006F1A026CEF800005036DFF8B0
:400A4000B4E00860AF64327018609EF80030234A234903F07F038EF80030116094F8D8304AE000BF024700406C390020A6430040B643004080C70040C480FF1F1076004036
:400A80006081FF1F6481FF1F0876004000760040C081FF1F20760040C481FF1F18760040FC3800207B640040004E004003E400E008ED00E080E100E0CD62000000E100E08C
:400AC000AD61000004E400E0A566000006E400E0A2430040B2430040956100002465004080A90300018000404C81FF1F0965000080E200E075650040002B00F0D884A24A2D
:400B0000A24D1378AB4643F08003137006F0CCF9D4F8D46006F0CCF92B78002103F0FD0343F002032B70202005F07EFCB146984DDFF87CA294F8DB30964F002B63D197F827
:400B4000D920002A40F0BF8002F070F906F0ACF9D4F8D47006F0ACF9BA1B002A8D4BC0F29E801B78002B36D08B4E4FF0020806F1040C8A4B16F801EB19782A780846D2B2DA
:400B800002F1FF398B1AC1EB0909A3F17F03B9FA89F9B3FA83F34FEA59195B098A4288BF4B46002BE9D18A4200F084800A067C4A4CBF00204B1C02F800E0784A54BFDBB23D
:400BC000012313709AF800309B0744BF754BC3F80080B445CDD19BF8003007F1460603F0FD0343F002038BF800309BF80030B94603F0FD0343F002038BF8003094F8DB3039
:400C0000644F002B9BD0684B67495B780022012B0A7000F01D84644A00235370994606F043F9D4F8D48006F043F95F4A08F11903584EDFF858A113624FF0050B9AF800302B
:400C400003F0FD038AF8003006F02EF9D4F8D47006F02EF907F1080801E002F0E7F806F023F9D4F8D47006F023F9C8EB0707002F51DA96F8D930002BEFD086F8D9903C20B8
:400C800096F8DA1005F0D0FB96F8DA303D2003F0FF02E3B396F8DA1005F0C6FBDDE7C9EB07073B2F21D99BF8003003F0FD038BF800303FE79AF800305B073FF577AF3B4BD2
:400CC00083F800E085E787F8D9303C2097F8DA1005F0AAFB97F8DA3003F0FF0073B197F8DA103D2005F0A0FB2EE74F467DE7FF2807D90025954238BF154607E505F034FDAC
:400D000022E7DBB29A4228BF1A461546FEE4104605F02AFDA1E79AF8003003F0FD0343F002038AF8003006F0BFF81A4BD3F8D47006F0BEF807F1080801E002F077F806F017
:400D4000B3F8D4F8D47006F0B3F8C8EB0707002F30DA96F8D930002BEFD086F8D9903C2096F8DA1005F060FB96F8DA303D2003F0FF0223B196F8DA1005F056FBDDE71046FC
:400D800005F0F2FCD9E700BF7565004020510040643600204C81FF1F84750000653600206836002000E200E0FC3800204B6500406B6500400BF1FF3B1BF0FF0B7FF43EAF2E
:400DC000B14E4FF0000894F8D930AF4F002B40F0D38102F02BF897F8DA30022BF0D0B7F8DC20B7F8DE3092B29BB29A42E8D306F05BF8D7F8D46006F05BF897F8DA30002BE7
:400E000040F01881B7F8DC20B7F8DE3092B29BB29A42C0F00F819D4BDFF870821B78002B00F008819A4B93F80290B9F1000F40F0018198F80130002B40F0E88106F034F8D8
:400E4000D7F8D47006F034F8D8F82030FF1A002FC0F2F0808F4B98F802701B788E4ABB424FF05C0303FB07235A7B997B00F272828A4202EB010340F2888298B2511AFF2805
:400E80005FFA81F900F27D824A4580F081827F4A0023022F53609360D3601361938298BF7E4B7A4998BF03EB470382F8039094BFB3F8402636220023CA820B764B76CB61D5
:400EC00003F0D2FE744B5C2202FB0732744B12791B787349D80713D5724823F001030B70037803F07F03037001980378013BDBB2037023B96C48037823F0080303700B783E
:400F0000990714D56649694823F002030B70037823F00803037001980378013BDBB2037023B96148037823F0080303700B78580714D55B495E4823F004030B70037823F010
:400F40004003037001980378013BDBB2037023B95548037823F0080303700B78190714D54F49534823F008030B70037803F07F03037001980378013BDBB2037023B94A486D
:400F8000037823F0080303700B78D80613D54448484923F0100303700B7803F07F030B7001990B78013BDBB20B7023B93E490B7823F008030B70042A22D839490123934032
:400FC0000978DBB20B4236481AD10B433A49037051F82210394B087813F802E0384B9A5C4EEA00030B70019B36489B5C2BB92E490B7843F008030B70835C019901338B541A
:4010000003F0B0FE304B08221A6005F04DFF2F4A0023137005F04CFF2D4A137843F0010313702C4B1B6813B139461E209847174A0123537094F8DA20134B002A40F0B28082
:40104000B3F8DC10B3F8DE2089B292B29142C0F0A980D3F8E4201AB906F16402C3F8E420B21A002A69DB237806F16402C4F8E420002B62D0DFF860E0DFF860A00EF10408FF
:401080004FF002092CE000BF4C81FF1FFC3800202C3700206C390020087600003C6F000016370020585B0040005B0040FD5100403D5100401D510040A0750000B475000028
:4010C000BC7500001837002080E200E0F8380020004E0040F43800208475000000E200E0AE4B1EF801CB187829780746C9B24A1E431A121AA3F17F03B2FA82F2B3FA83F30B
:4011000052095B09884238BF1346002BECD1884271D00206A24B4CBF0027013003F807C09E4B54BFC0B2012018709E4B1B789B0748BFCAF80090C645D2D194F8DA209A4B22
:40114000022A37D0D3F8E820A2B3B21A3FF438AED3F8EC10C3F8E8608A422ED3934A93481278002102F0FD0242F002020270C3F8EC10C3F8F01023E686F8D9803C2096F860
:40118000DA1005F051F996F8DA303D2003F0FF0223B196F8DA1005F047F914E6104605F0E3FA10E694F8DA200023022AC4F8E4307D4BC7D1C3F8E86002E6D3F8F000891A36
:4011C0000244042AC3F8EC101DD993F8DA200021022AC3F8F0103FF4F3AD754B1A78013B1B7802F0020282F0020203F0FD0313436E4A1370E4E56B4B1B78590789D46D4BD6
:4012000083F800C097E7C3F8F020D9E598F802A005F04AFE684B1A78002A00F08A80D7F8E07083F8009005F043FEB8F81630C8F81C90002B40F0A180604B9A8A5B68013291
:4012400092B21F445D4B1F2A9A825F607FF6F2AE9968DA680F442032597E9F60DA6097FBF2F700225A609A82002900F0AF801A69B91A81EAE172A2EBE172322A00F3A680CA
:401280004F4AD9781268DFF838811AB113209047D8F80020B7F5004F80F2CE8017F5004FC0F2C680B846C7F3072122B314209047434B5FFA88F11B68DFF80481DBB11420A8
:4012C0009847D8F80030390EABB11D209847D8F80030C7F3074173B11D209847D8F80030C7F307213BB11D209847D8F80030F9B20BB11D209847314B3A46D978504604F0CA
:401300005DFD80462D4F04F0A5FCB8F1000F04D00AF1010303F00303BB7005F0C5FDD4F8D47005F0C5FD254A193700231762537080E605F0BDFDD8F81C30224A013393428B
:40134000C8F81C307FF676AE1C4A0023537004F081FC6FE61C4807EB47038A4210F8230002EB01035BD9521A99B2FF295FFA82F951D84845FFF48BAD54E0104A013BD38247
:4013800058E6914538BF914681E599B2FF29F8D8DBB2934228BF1346994678E565360020683600206B6500404C81FF1F20510040215100404B650040F8380020FC38002059
:4013C000F43800207F841E00C4380020724B01221B7E71491344DBB2072B0F610B764A767FF628AE6D4BC9781B68DFF8B0811BB113209847D8F80030B7F5004F20DA17F5BC
:40140000004F21DADFF8F0818021002B3FF473AF142098474CE7814538BF814637E59AB2FF2AF8D8DBB2984228BF184681462EE5DFF8C481802138E77F2147F6FF7834E7FD
:401440007F2147F6FF78E0E7C7F30721B846DCE7534A137803F0FE03137004F0FBFBFFF7DABB504A01F5A3510D3113700B701378A1F5905103F0F303137013781C3943F059
:401480000403137013780125C3F3810303F19243063393F83031C573DBB20B70137803F0FD0313701378DBB21370FFF7E3B83E49FF2313600B6005F0F7FC3C4A137843F0A9
:4014C0001003137005F0F4FC394B1A78100704D5384A116819780907FBD4374A00210123117084F8D830FFF70ABB2D4A137803F0FE03137004F0AEFBFFF748BA2F48304A7B
:401500000378304943F01003037013782E4F03F0FE033F20137008704FF480722B4938702B4805F0FDFC4FF480722849294805F0F7FC4FF480722849284805F0F1FC4FF4BC
:4015400000722749274805F0EBFC4FF400722649264805F0E5FC264DDFF8A0E0DFF8A0C0BEE80F000FC5BEE80F000FC5BEE80F000FC59EE80F00DFF88CE085E80F001D4A7F
:401580000123F8213E708CF8006088F810308EF800301170FFF7FCB8FC380020F4380020004E0040245800400465004097650040676500404465004087650040A6430040A2
:4015C00080C7004088C700408CC700403C6F000000C4004000C500403C70000000C600403C71000000C000403C73000000C2004000C7004084C700400080FFFF3C750000BD
:4016000098C700409CC70040102003F01BFA0546112003F017FA4FF6FF7245EA002080B21BF8013B510881F404455A4012F0010F85F0080518BF29464A0882F4044581EA23
:40164000530111F0010F85F0080514BF294611464A0882F4044581EA930111F0010F85F0080514BF294611464A0882F4044581EAD30111F0010F85F0080514BF2946114632
:401680004A0882F4044581EA131111F0010F85F0080514BF294611464A0882F4044581EA531111F0010F85F0080514BF294611464A0882F4044581EA931111F0010F85F0AC
:4016C00008050CBF114629464A0881EAD31382F4044113F0010F81F0080108AB18BF0A469B459DD1D243C2F3072343EA022293B298427FF447A89DF813209DF812108DF86F
:401700000E209DF811009DF81430727BB57B8DF80C008DF80D108DF80F300DF10C08AA424FF00007DFF8CC924FF0040A18F8011B24D9531998B2521BFF28D5B223D8A94242
:40174000DBB203D3994228BF19460D46B36D28469847A84BA84A1B78D555032B07F10C0798BF89F800A0302F06F15C063FF40AA8727BB57B18F8011BAA42DAD853199AB296
:40178000FF2A7CD900258D4238BF0D46DEE79B4A01F5A351153113700B701378A1F5915103F0F30313701378023943F00403137013780125C3F3810303F19243063393F82B
:4017C00038318573DBB20B70137803F0FD0313701378DBB21370FEF73BBF894A01F5A351113113700B701378A1F5905103F0F303137013781F3943F0040313701378012539
:40180000C3F3810303F19243063393F828314573DBB20B70137803F0FD0313701378DBB21370FEF703BF774A0125137081F8213A1378A1F5FF6103F0F3031370137843F08C
:401840000403137013780573C3F3810303F19243063393F82031DBB20B70137803F0FD0313701378DBB21370FEF7CEBE1378FEF75DBE1378FEF773BE1378FEF789BEDBB2FE
:4018800060E7614B614F0C221A703B78604A43F020033B70107002F081FF3B78012203F0FC0343F003033B703271FEF7AEBC02F5A252584B10320C2010701A78564842F0F1
:4018C000200280261A7006700278012602F08002D2B202700278CE70324302701A7802F0F3021A701A7842F00C021A701A7802F0FC0242F003021A70FEF773BC474B1A788C
:4019000091073FD5464AB625E0200D211570107011701A78920706D41D46182005F0BCFA2B789E07F9D53D4B1A7897072AD51B789B0827D102F04AFF02F088FFFEF710BC21
:40194000384B394F1E68394D3948E0213764297002703848384A72261D68384F067020201070A3F60713364E36486F64197006274725022101233770057082F80111237020
:40198000FEF7AFBB02F022FFFEF7EABB2E4B2F4E0C221A7033782E4A43F020033370107003F026F93378012203F0FC0343F0030333703A72FEF76DBC264B274F0C221A70BA
:4019C0003B78264A43F020033B70107002F0CEFE3B78012203F0FC0343F003033B707271FEF727BC1E4B0193FEF70ABD1378FEF784BD00BF6C390020C43800202C58004040
:401A0000285800402058004008580040095800400A5800400558004006580040224700402047004008ED00E08546000000E400E0E8360020896400408A6400402D46000050
:401A400028650040386500400058004001580040025800400C5800400D5800400E580040183700202DE9F04F01273E46DFF87CB2DFF87C82DFF8A492DFF8A4A28DB0C9F890
:401A800000609BF8001098F80020012491429748974B00F0CF8001781A781B789142027828BF20339B1A934ADBB21760002B00F0D0809149C9F800709BF8002098F80030D7
:401AC0000878D2B2DBB210B99A4200F0BC80531CDBB2202B894828BF0023805C8BF800300A78854CC3B20AB100222270814A844917600A78052A00F2A380DFE802F0917B02
:401B000071150C037F4A8048D37003230B70002313700370B3E77B4A7B48937005230B70002313700370AAE7764C77480022227002700A706278A178E0784A4042409A42BC
:401B40009DD1724B1A7852B96278C12A02D06278A52A94D1617821201F7004F065FC6378684AC12B03D05178302004F05DFC684B684A1B783221032B1160637874D0A33B61
:401B8000142B3FF67CAF01A252F823F0332100007F1A000051210000FF1D00007F1A00007F1A0000A11E0000451F00007F1A00007F1A00007F1A00007F1A00007F1A0000B9
:401BC0007F1A0000152000007F1A00005D23000085240000ED250000251D0000A12200004848494C837000220323C2700B700270227044E703F15D02424C434DD2B20020ED
:401C00001E2A2070287006D8434807FA02FE0EEA000008BB22B3002323702B700B702EE7AB2B7FF42CAF3748374A00230F700370137024E730490B784BB12E4B1F6039E782
:401C400000230B701BE79AF80030DBB24EE7294B1C600DB0BDE8F08F022263700A700EE7042263700A700AE7A53B1C2B00F2188601A252F823F000BF01260000FF270000E2
:401C8000A1280000A1280000FF270000FF270000A1280000A1280000A1280000A1280000A1280000A1280000FF270000A1280000FF270000FF2700005D270000A128000008
:401CC000A1280000A1280000A1280000A1280000A1280000A1280000A1280000A1280000A1280000A12800007F1A00000E370020E936002000E100E00C370020EC36002067
:401D0000613600204482FF1F603600202782FF1F2682FF1F3882FF1FCC401F4080E100E049640040AE4B1878002800F0DA8701280AD9AC4B02281D7B06D003281C7E03D01F
:401D400093F8241000F27E8674230020A64A8DF823001278AB208DF82430C221B6238DF820008DF821108DF82230002A35D09F4B0DF1200E01939E4B019A1EF801CB147878
:401D800018782546C0B2411E221A091BA2F17F02B1FA81F1B2FA82F249095209A04288BF0A46002AECD1A04200F0B985200691494CBF0025621C01F805C0019954BFD2B2EC
:401DC00001220A708C4A1278910702D58B4A022111600DF125029645CED1894B1B78022B3FF44DAE874B88491A780B7802F0020282F0020203F0FD0313430B703FE6A37885
:401E0000DBB2082B40F2FD8680490B78764A83F064018DF823301278AB238DF824108DF82030C221A6238DF821108DF82230002AD3D06E4B0DF1200E01936D4B019A1EF8A3
:401E400001CB147818782546C0B2411E221A091BA2F17F02B1FA81F1B2FA82F249095209844238BF0A46002AECD1844200F01E85200660494CBF0025621C01F805C00199BE
:401E800054BFD2B201220A705B4A1278910702D55A4A022111600DF125027245CED19CE7A378AB20DBB2082B8BBF594B584A1B7813704D4A8DF82330127883F06B038DF86F
:401EC0002430C221A9238DF820008DF821108DF82230002A81D0454B0DF1200E0193444B019A1EF801CB147818782546C0B2411E221A091BA2F17F02B1FA81F1B2FA82F2CD
:401F000049095209A04288BF0A46002AECD1A04200F0FB84200637494CBF0025621C01F805C0019954BFD2B201220A70324A1278910702D5314A022111600DF125029645DF
:401F4000CED14AE7A378284ADBB283F068018DF823301278AB238DF824108DF82030C221AA238DF821108DF82230002A3FF435AF1E4B0DF1200E01931D4B019A1EF801CB51
:401F8000147818782546C0B2411E221A091BA2F17F02B1FA81F1B2FA82F249095209A04288BF0A46002AECD1A04200F0A484200610494CBF0025621C01F805C0019954BF79
:401FC000D2B201220A700C4A1278910702D50B4A022111600DF125029645CED1FDE600BF6C390020C43800204C81FF1F6536002064360020683600206B65004000E200E076
:402000002682FF1F21510040205100404D81FF1F4082FF1F924D6B78012B00F0498600236B70039304F040FF8E498F4A09680292019104F03DFF0199029A1931296211782C
:402040008A4D01F0FE011170019202F00DFE02F089FE019A117801F0FE01117003F0FAFD04F022FF039B824A8249DFF82CE2E380AEF800302372E3602B800B8013707E4BCE
:402080001F7004F015FFA1883220FF2994BFC9B2FF2104F0C9F9784B784A1B781278DBB283F073018DF82330AB238DF824108DF82030C221B1238DF821108DF82230002A8A
:4020C0003FF48BAE6E4B0DF1200E01936D4B019A1EF801CB147818782546C0B2411E221A091BA2F17F02B1FA81F1B2FA82F249095209A04288BF0A46002AECD1A04200F0DE
:40210000F183200660494CBF0025621C01F805C0019954BFD2B201220A705C4A1278910702D55B4A022111600DF125027245CED153E6A378E178312043EA012109B28BB28A
:40214000FF2B94BFC9B2FF21A38004F06DF996E400213B2004F068F9484B02931B78002B3FF48DAC464BDFF834E10193454B019A1EF801CB147818782546C0B2411E221A7B
:40218000091BA2F17F02B1FA81F1B2FA82F249095209A04288BF0A46002AECD1A04200F09883200638494CBF0025621C01F805C0019954BFD2B201220A70344A127891072F
:4021C00002D5334A02211160324A9645CFD1029AAB21C3208DF820101278B8218DF821008DF822100B2070218DF823008DF82410002A3FF444AC0DF1200E019A1EF801CB2D
:40220000147818782546C0B2411E221A091BA2F17F02B1FA81F1B2FA82F249095209A04288BF0A46002AECD1A04200F08B83200615494CBF0025621C01F805C0019954BF0B
:40224000D2B201220A70114A1278910702D5104A022111600DF125027245CED10FE400BFFC3800202082FF1F004E00402882FF1F5A82FF1F2A82FF1F2682FF1F4C81FF1FEF
:402280006536002064360020683600206B65004000E200E0887500005C82FF1F84750000A278654B003218BF01221A701A786349002A14BF022200220A701A780AB100223D
:4022C00062821B785E4ADBB283F075018DF823301278AB238DF824108DF82030C221B7238DF821108DF82230002A3FF476AD554B0DF1200E0193544B019A1EF801CB1478B9
:4023000018782546C0B2411E221A091BA2F17F02B1FA81F1B2FA82F249095209844238BF0A46002AECD1844200F00383200647494CBF0025621C01F805C0019954BFD2B2F0
:4023400001220A70424A1278910702D5414A022111600DF125027245CED13EE5A3783A20003318BF01232374217C04F05DF8237C002B00F02383384D6B78012B00F0A18455
:4023800000236B70039304F08FFD3449344A09680292019104F08CFD0199029A19312962117801F0FE011170019202F05DFC02F0D9FC019A117801F0FE011170019203F035
:4023C00049FC019AA5881078691EB1F5007F00F0FE00244910700A78234802F07F020A70224A4FF040010078116028BF4FF4007504F05AFD039B1E492774DFF884E0E380EA
:402400001C4A23720B801C4913800B808EF80030E3601A4B02221A7004F04AFDFF2D94BFE9B2FF21352003F0FFFF0D4A137843F001031370FFF723BB5882FF1F7B64004045
:402440004C81FF1F6536002064360020683600206B65004000E200E0FC3800202082FF1F004E0040756500406765004080E200E02882FF1F2A82FF1F5C82FF1F2682FF1F0E
:402480005A82FF1F0021392003F0CEFFA04BAB21C2221B788DF820108DF82120B42177228DF823708DF822108DF82420002B37D0984B0DF1200C0193974B0294019A1CF83F
:4024C00001EB147818782546C0B2411E221A091BA2F17F02B1FA81F1B2FA82F249095209A04288BF0A46002AECD1A04200F0E88120068A494CBF0025621C01F805E0019980
:4025000054BFD2B201220A70854A1278910702D5844A022111600DF125026245CED1029C814D6B78012B00F0BB8300236B70039304F0BAFC7D497E4A09680292019104F0D2
:40254000B7FC0199029A19312962117801F0FE011170019202F088FB02F004FC019A117801F0FE011170019203F074FB019AA5881078691EB1F5007F00F0FE006D491070FF
:402580000A786D4802F07F020A706C4A4FF040010078116028BF4FF4007504F085FC039B67492374DFF8ACE1E380664A23720B80654913800B808EF80030E360634B0222B1
:4025C0001A7004F075FCFF2D94BFE9B2FF21352003F02AFF564A137843F0010313705B4B1B78022B7FF4FEABFFF749BA012004F0BBF8564B1B78022B7FF4F4ABFFF73FBAB7
:4026000000213B2003F010FF414B02931B78002B3FF435AA3F4BDFF840E101933E4B019A1EF801CB147818782546C0B2411E221A091BA2F17F02B1FA81F1B2FA82F24909B4
:402640005209A04288BF0A46002AECD1A04200F08A81200631494CBF0025621C01F805C0019954BFD2B201220A702D4A1278910702D52C4A02211160354A7245CFD1029AFC
:40268000AB21C3208DF820101278B8218DF821008DF822100B2070218DF823008DF82410002A3FF4ECA90DF1200C019A1CF801EB147818782546C0B2411E221A091BA2F1D7
:4026C0007F02B1FA81F1B2FA82F249095209A04288BF0A46002AECD1A04200F0568120060E494CBF0025621C01F805E0019954BFD2B201220A700A4A1278910702D5094AEF
:40270000022111600DF125029445CED1FFF7B7B94C81FF1F6536002064360020683600206B65004000E200E0FC3800202082FF1F004E0040756500406765004080E200E008
:402740002882FF1F2A82FF1F5C82FF1F2682FF1F887500005A82FF1F847500008F4B1220197803F061FE8E4BAB22C2218DF820201B78B5228DF821108DF822200021772237
:402780008DF823108DF82420002B3FF478A9854B0DF1200C0193844B019A1CF801EB147818782546C0B2411E221A091BA2F17F02B1FA81F1B2FA82F249095209A04288BF42
:4027C0000A46002AECD1A04200F0D680200677494CBF0025621C01F805E0019954BFD2B201220A70724A1278910702D5714A022111600DF125026245CED1FFF740B9617803
:40280000122003F011FE6378654ADBB2127883F0C204AB208DF82230C22100238DF824408DF820008DF821108DF82330002A3FF426A95C4B0DF1200C01935B4B019A1CF8E0
:4028400001EB147818782546C0B2411E221A091BA2F17F02B1FA81F1B2FA82F249095209A04288BF0A46002AECD1A04273D020064E494CBF0025621C01F805E0019954BF3B
:40288000D2B201220A704A4A1278910702D5494A022111600DF125026245CFD1FFF7EFB86178122003F0C0FDFFF7E9B8404A127852073FF5DDAA404A82F800C0FFF7EBBA61
:4028C0003B4A127852073FF513AE3B4A82F800E021E6374A127852073FF563AC364A82F800C071E4324A127852073FF50AAC324A82F800C018E42E4A127852073FF557AB53
:402900002D4A82F800C0FFF765BB294A127852073FF500AB284A82F800C0FFF70EBB244A127852073FF542AA234A82F800C0FFF750BA1F4A127852073FF5F8AC1E4A82F812
:4029400000C006E51A4A127852073FF570AC1A4A82F800C07EE4164A1278520787D4164A82F800E096E7124A127852073FF571AE114A82F800C07FE60D4A127852073FF546
:4029800025AF0D4A82F800E033E7094A127852073FF5A5AE084A82F800E0B3E62682FF1F4C81FF1F6536002064360020683600206B65004000E200E04B650040CA4BCB4DA3
:4029C0001A7802F0FE021A706A78012A00F0828100236B7004F068FAC54AC34B12680293019204F065FA019A029B19322A621A78C04D02F0FE021A70019302F035F902F093
:402A0000B1F9019B1A7802F0FE021A7003F022F9B949BA4A0B78BA4803F07F030B7010602B78002B00F02181B349B6480A78002342F080020A70B44AE38023720370137030
:402A4000FFF71DB84FF6FF721B788DF814108DF81130CA2100238DF8134004A88DF812508DF822308DF823308DF824308DF815308DF825308DF816308DF826308DF81730BC
:402A80008DF827308DF818308DF828308DF819308DF829308DF81A308DF82A308DF81B308DF82B308DF81C308DF82C308DF81D308DF82D308DF81E308DF82E308DF81F3096
:402AC0008DF82F308DF8101008AC10F8013B510881F404455A4012F0010F85F0080518BF29464D0881EA530111F0010F85F4044282F0080208BF2A46510882EA930581F461
:402B0000044215F0010F82F0080218BF11464D0881EAD30111F0010F85F4044282F0080208BF2A46510881F4044582EA131212F0010F85F0080518BF29464A0882F40445E6
:402B400081EA531111F0010F85F0080514BF294611464A0882F4044581EA931111F0010F85F008050CBF114629464A0881EAD31382F4044113F0010F81F0080118BF0A4604
:402B8000A042A2D1D343C3F3072242EA0323C3F307228DF820308DF8212004F085F95B495B4A0B785B4D43F008030B70137843F00803137004F07CF904F076F92B7801465E
:402BC000002B00F0F08004F073F904F06DF94F494F4A0B7843F008030B70137843F00803137004F065F904F05FF92B780146494A002B00F0A18004F05BF974230020FFF78B
:402C0000A5B8454A04AC15461068516892F808E003C455F80C0F08AA69682D7A03C23F493F48157084F800E00B7002780CACE51802F08003DBB2037015F8104C027815F8DD
:402C4000203CA40004F00C041A432243354C0270237803F0F3032370237815F8102C43F00C0313432370FFF7D0B8FF23136041F8713C04F019F92C4A137843F010031370AC
:402C800004F016F9294B1A78120704D528490A681A781007FBD4274B00221A702F70C3E6114A137803F0FE03137002F0D3FF3CE40D4A137803F0FE03137002F0CBFFFFF70C
:402CC000AEB9094A137803F0FE03137002F0C2FFFFF756BB1A7802F0FE021A7002F0BAFF76E67423FFF732B8004E0040FC3800202082FF1F2482FF1F756500402465004089
:402D000080A903005A82FF1F2682FF1FA0430040B04300400F370020887500004D81FF1F025800400158004097650040676500404465004087650040364B17701A68D00711
:402D400008D51A6822F001021A6000BF00BF00BF314B1F60084604F0ABF804A8002101F001FE00287EF4F0AF04F09EF82B492C4A0B7843F008030B70137843F00803137056
:402D800004F096F801F040FD00287EF4DDAF2046012101F0E7FDB0FA80F0400980F07403DBB2FEF7D3BF1B4B2F701A68D20708D51A6822F001021A6000BF00BF00BF164B96
:402DC0001F60084604F074F8164B1A7892071DD5154AB6211170E0200D21107011701A78900707D41820019304F056F8019B1A789207F7D50B4B1A78910707D51B789B080B
:402E000004D101F0E3FC01F021FDDEE601F0DEFCDBE600BF0400084010370020A0430040B043004022470040204700402DE9F04FA54E9BB03378032B00F003813378022BBE
:402E400000F0C880DFF88492DFF89C829F49B8F80020B9F8003092B29BB29A4280F09A80B8F800309BB2002B00F0DF80984DB8F80030AF889BB25A24AB2204FB0354390AD4
:402E80001E238DF808208DF809308DF80A708DF80B100DF10F020023581C991CE61820442144367A0333007A097A5A2B02F8020C02F8036C02F8011C02F10302ECD10022DE
:402EC00002AB19A853F8041B834282EA0102F9D19DF865109DF864307E484B405340C2F307215940C2F307434B400178013783EA1262AF808DF86620002936D0764F774D61
:402F0000DFF818B2DFF818C20DF107060DF1660A16F8014F39782A780846D2B202F1FF3E8B1AC1EB0E0EA3F17F03BEFA8EFEB3FA83F34FEA5E1E5B098A4288BF7346002B19
:402F4000E9D18A423FD00A0659BF0131C9B2012100200BF8004039709CF800309B0702D55F4B02221A605645D2D1B8F800305D4901339BB2A8F80030B8F80020B9F800306E
:402F800092B29BB232209A420860574910D21BB0BDE8F08F554B93F8582A22B1002283F8582A83F8592A1BB0BDE8F04FFEF75ABD0B889BB2FF2B42D8D9B238201BB0BDE8AA
:402FC000F04F03F031BA9CF800305B07BBD4484B1C70C8E73E4DAB78002BD8D04549464A0B78464803F0FE030B701378444903F07F03444C137001602378002B00F067856F
:403000003D4ADFF8C8901378362043F080031370B9F800309BB2FF2B94BFD9B2FF2103F003FA0023AB7033700EE70B8837209BB2FF2B94BFD9B2FF2103F0F6F916E7FF2146
:40304000BBE7314CA378002BADD003F02DFF2F4B1D6803F02DFF49F63F42D4F89031EB1A93421DD8D4F89431EB1A312B07D9284BC4F894511B6813B161791A20984723785A
:40308000013B0A2B8FD8DFE813F017057404C1039903BB028A0231029F01980103017F002378073B042B40F2498594F80590B9F1030F88BF494600F24285164D164F4FF0C3
:4030C0005C0B4FF0000A4AE02682FF1F2A82FF1F5882FF1F4C81FF1F653600206436002000E200E03882FF1F2882FF1F082C00204B650040004E00407565004024650040F7
:4031000080A903002482FF1F2C3700202082FF1FF438002008760000C4380020683600206B65004099B2FF292AD8424580F0EC840BFB095340469B6D984709EB490209F1C4
:4031400001095FFA89F907EB8203B9F1040F07F82280C3F804A083F808A000F0EF840BFB09535A7B997B5318C1EB02088A4298B25FFA88F8D6D8FF2840F2C6844FF00008BD
:40318000904538BF9046D3E76779CF4D5C2303FB0753D86941F28833226900284FEAA22203FB02F340F30B87002BC849C0F2FD8603F5FF6281FB02611144D217C2EBE126AE
:4031C00041F28831801201FB00F186EAE672A2EBE672BE4E01F5FF6186FB01060E44C917C1EBE6218A42B4BF0026012641F288325C2101FB07518968891202FB01F2002AF8
:40320000B249C1F2948002F5FF6281FB02011144D217C2EBE122002BAC49C1F27E8003F5FF6381FB03011944DB17C3EBE123DFF8A8A2D31ADAF8002083EAE378A8EBE378A5
:4032400012B131462320904794F87B21A04B002A01F03C804EB993F88821002A41F04480D3F884319845C1F23F805C2303FB075594F87D01AB6D9847DAF8003013B1002126
:4032800028209847002384F87B3102F061FA8AE694F80580DFF838C2B8F1030F01F28280894D5C2303FB085393F83C20002A01F0AF815A7B997B4FEA4806864F06EB08032C
:4032C00000208A4217F823E08CF87B018CF87C0102EB010340F2EA85521A99B2FF29D0B200F2B1858645DBB203D39E45704628BF18465C2306EB080203FB085307EB82075A
:403300007E6800226FF000419B6D84F8882184F88921C4F8806184F87D01C4F8841198476D4B6B4A1B6813B151792520984701F09BFC5C2303FB08F6AF19387901F0A0FB21
:4033400001F010FD654B08221A603B466449B7F846000A78002642F0010294F87DE14C330A700B270125A4F8720131464FF480725C48636684F806E02666C4F86861A4F889
:403380007061A4F8746184F8766184F8776184F8786184F87961C4F86C61C4F88C61677084F87A5103F0B4FD03F07EFD4E4B1E7003F07EFD02232370F5E501F055FC00228C
:4033C0000A2362712370EEE541F2883394F805803D4D5C2101FB08518A684FEA4806921203FB02F33B4F06EB0802206907EB8202002B5060354AC0F2B88703F5FF6382FB56
:4034000003E21A44DB17C3EBE22241F28833801203FB00F3002B2D48C0F2938703F5FF6380FB03E01844DB17C969C3EBE020121A82EAE2790029A9EBE27914DD41F28832F9
:40344000891202FB01F2214902F5FF6280EAE073A3EBE07381FB02011144D217C2EBE122934281F2CA80DFF870A0DAF8003013B100212320984741F288335C2202FB0855AC
:403480006A69921203FB02F3002B104AC0F2778703F5FF6382FB03121A44DB17C3EBE2234B4580F25185DAF800304644002107EB8607397221710BB1182098476379072265
:4034C0000133637122706EE508760000818080802C370020C4380020F438002080E200E0004E004094370020F83800206579BE4B032D01F27E80BD4B1B6813B1294617206D
:40350000984701F0B1FB5C2303FB05F6B84F002507EB060898F8040001F0B2FA01F022FCB44A4FF0080EB44BC2F800E01978627941F001011970B14902EB4202B8F822C05A
:4035400006F1300311F822603B4429464FF48072AB486366A4F872C184F801E0A6712566C4F86851A4F87051A4F8745184F8765184F8775184F8785184F87951C4F86C512B
:40358000C4F88C5184F87A5103F0C2FC03F08CFC9C4B1D7003F08CFC0223237003E56779934D5C2606FB07563046DFF83C8203F043FA002800F0D3848C4B1B681BB198F870
:4035C00006102220984741F288335C2202FB07556A69E069921203FB02F3002B8A49C0F2308603F5FF6381FB0321DA170B44C2EBE3239842CCBF0020012002F013FAD2E46E
:4036000067797B4D5C2000FB07506689038AB34240F22C8641F2883283689B1202FB03F2002AC0F21886784902F5FF6381FB031C9C44DB17C3EBEC2C41F288312369DFF832
:40364000C8E19B1201FB03F3002BC0F2358603F5FF618EFB018E8E44C917C1EBEE2E41F288314FF05C0808FB0758D8F81880CEEB0C0E4FEAA82C01FB0CF18EEAEE78002947
:40368000A8EBEE78DFF880C1C0F20C8601F5FF618CFB01EC8C44C917C1EBEC21884540F3EA85617A002900F0CE84002B5649C0F2FF8403F5FF6381FB03E11944DB17C3EB17
:4036C000E121002A504BC0F2E98402F5FF6283FB02E31344D217C2EBE3238B4240F3CE8490F80DE0817BA0790EEB01039AB2FF2A40F2A684FF23984280F0B885431CDBB2F7
:40370000227AE371934200F2B185D21A03EB52038E45DAB20EEB010340F25B871FFA83FCC1EB0E01BCF1FF0F5FFA81F800F256874245DBB203D39A4228BF1A4690468045A6
:4037400000F094855C2303FB07F705EB07094B46B9F82000002739464FF480722433A4F872010136062526486366668184F806802766C4F86871A4F87071A4F8747184F804
:40378000767184F8777184F8787184F87971C4F86C71C4F88C7184F87A71657003F0B8FBD9F858304046984703F07EFB154B1F7003F07EFB02232370FFF7F5BB67790C4DA3
:4037C0005C2606FB0756304603F036F90649002800F09D82054B1B68002B3FF4F4AE897922209847EFE600BF2C370020F43800200876000080E200E0004E0040C438002008
:4038000094370020F8380020818080806779C24D5C2606FB075623693046636103F00CF941F288337269E169921203FB02F3002BBA4AC0F2EF8403F5FF6382FB03021A4487
:40384000DB17C3EBE223994240F315855C2303FB075396F80EE05A7B724540F2488202EB0E00CEEB02031FFA80F8D9B2B8F1FF0F0E4600F2D8838A42C6B209D3B242114688
:4038800028BF31467245C9B240F2D084CEEB0203DBB2C6B24FF05C0C0CFB075C9CF90C90B9F1000FC0F2B6839CF80FC001EB0C09B14540F3AC83994240F2A5838C4502D2B3
:4038C000CCEB0103DBB2724540F27986CEEB0202B8F1FF0FD6B200F276869E42C0B203D8834228BF03461E46237BA671B342DFF8388200F0BB844FF05C0909FB07F798F888
:4039000005A0EB1909FB0A551A8C002421462433A8F8722104274FF4807208F16800C8F86430C8F86040C8F86841A8F87041A8F8744188F8764188F8774188F8784188F814
:403940007941C8F86C41C8F88C4188F87A4188F8017003F0DDFAAB6D3046984703F0A4FA6F4B1C7003F0A4FA022388F80030FFF71ABBD4F8648098F8006098F80130002E99
:4039800040F0DD82002B40F0D08201263746B146B8F80230019303F087FA614B1A7802F0FF0A002A00F088825E4A4FF0000BD2F800A083F800B003F07BFAB4F87231C4F8EF
:4039C0008CB15949002B40F03784B1F870210B6E013292B21FFA86FE53447245A1F870210B66FFF4E0AA91F8770191F876C1484580F0E882D1F868210130C0B20CF11A0A67
:403A00001A4481F8770141F82A30C1F868210CF10103DBB24B45444984F8763124BF002381F8763100FB06F192FBF1F1B4F874614FF0000C7644B6B281452161A4F8746166
:403A4000C4F860C0A4F870C1374A22D892F87931002B00F0D082D2F86C31D8F80400CD1A85EAE573A3EBE573834200F3BB8292F878310133DBB282F8783198F80820624547
:403A800008BF01229A420BD90123C4F86C1184F87931019BBB4238BF3B46B3423FF683AA94F87A31A079002B00F0998203F090F963782370FFF777BA66791B4B032E40F232
:403AC00005830021072259711A70FFF76CBAFF23036042F8713C03F0E7F9144A137843F01003137003F0E4F9114A13781F0704D510490B6813781807FBD40F4A00210123FB
:403B000011702370FFF77CBADBB2934228BF13469846FFF70DBB00BF0876000081808080F83800202C82FF1F2C370020976500406765004044650040876500406179C44BE4
:403B400000221B6822710BB11B209847C14FC24D01F08AF802F07EF82023002001210C223B602B60A070E1702270BC4B1B78032B40F2968041F28833B94ABA49926A9212CD
:403B800003FB02F3002BC0F2A98003F5FF6381FB0321DA170B44C2EBE32282EAE273A3EBE2731F2BCCBF002701270023AE4933700B78AE4AAE4803F07F03AE4C0B701060D0
:403BC0002378002B6ED0A84AAB4D1378AB4C43F0800313702B783946002B14BF022300232370112002F020FC6B78002B3FF4DBA9A34B87F077061B780024AB20C221B522FF
:403C00008DF80B708DF80C606C708DF808008DF809108DF80A20002B3FF4C5A9994F9A4DDFF87C92DFF87CC2DFF87CB202AE0DF10D084FF0020A16F8014B39782A7808463A
:403C4000D2B202F1FF3E8B1AC1EB0E0EA3F17F03BEFA8EFEB3FA83F34FEA5E1E5B098A4288BF7346002BE9D18A4212D00A0659BF4B1CDBB20123002009F800403B709CF84E
:403C800000309B0748BFCBF800A0B045D3D1FFF78AB99CF800305B07E8D47C4B1C70F4E7277982E7FF23136041F8713C03F0FCF8774A137843F01003137003F0F9F8754AC3
:403CC00013781D0704D574490B6813781807FBD4724A002101231170237074E7C3F5FF6381FB0321DA170B44A2EBE32255E702EB0E001FFA80F8B8F1FF0F40F29A82002AA0
:403D000011464FF0000338BF0021FF26C2E541F288337269C969921203FB02F3002B514AC0F2438403F5FF6382FB03E21A44DB17C3EBE223994240F39E8241F288322369CF
:403D40009B1202FB03F2002AC0F22484454902F5FF6381FB031E9E44DB17C3EBEE2E41F2883C61698B120CFB03F3002BDFF8F4C0C0F2F08303F5FF618CFB018C8C44C917AC
:403D8000C1EBEC21714500F0D883002A3549C0F2C78302F5FF6281FB02E11144D217C2EBE121002B2F4AC0F2B28303F5FF6382FB032EDA179E44C2EBEE235C2202FB075506
:403DC00096F80EE06F7B8B42B4BF00230123774594F806C01FFA8EF140F29183CD19CEEB0702FF2DD2B200F28E8307EB0E059742EDB203D3AF423A4628BF2A46944588BF54
:403E000083F0010363726579727B2544724585F85A3001EB02039BB284BFCEEB0200C0B2FF2B98BF02EB0E034FF0010694BFDBB2FF230021052285F85660E071237261818C
:403E40002270FFF7B0B8704538BF7046FFF751BAF438002080E200E000E100E06C390020C438002081808080756500402465004080A903002482FF1F5882FF1F7B640040D4
:403E80004C81FF1F65360020643600204B65004097650040676500404465004087650040683600206B65004000E200E09AB2FF2AC9D8DBB2FFF719BA02F0FAFFD4F88C31E5
:403EC000C84901338B42C4F88C31C74A7FF66BA847F6FF7192F87A3111619079002B7ED0C24D2B68002B3FF4E3AD0146262098472B68002B3FF4DCAD5146272098472B6802
:403F0000002B3FF4D5AD5146272098472B68002B3FF4CEAD7F21272098472B68002B3FF4C7ADFF2127209847C2E5402B28BF402301269946334609FB03F39FB228E54BBBCE
:403F4000B7B24FF0010923E5464407EB86073B7A33B30121DAF800303972FFF7ACBA41F288337269D8F81C00921203FB02F3002B9F49C0F20E8203F5FF6381FB0321DA172C
:403F80000B44C2EBE323984240F3758105232370FFF709B8402B28BF40239946B3B2CAE7DAF800300121FFF786BAC3F5FF6281FB02611144D217A2EBE126FFF701B90026E6
:403FC000FFF714B90CF11A0A51F82A20D1F8685141F82A30AA1A1A44C1F8682117E502F01BFF65E582F878C198F80820002A3FF44BAD634646E582F8783198F80820002AE6
:404000007FF440AD40E58E4298BF1E466CE45FFA89F669E499420CD99CF80F608E423CBF8B1BDBB24FE49142334638BF1146FF2630E49CF80F200A44B242E4DCD6B253E4B0
:40404000DBB2FFF758BB002B6949C0F2228103F5FF6381FB03E11944DB17C3EBE121002A634BC0F20D8102F5FF6283FB02E31344D217C2EBE3238B42FFF632AB90F80DE0E5
:40408000817BA0798E451DD80023984240F2EE80421ED2B2E3792272FFF734BBC2F5FF6283FB02E31344D217A2EBE323FFF715BBC3F5FF6381FB03E11944DB17A3EBE12160
:4040C000FFF7FFBAC1EB0E03DBB2DEE7474A494DD2F8008000226FF000415C271A739A6183F8212083F8222083F8232083F84C2083F84D205A629A62C3F84E20C3F85220B0
:40410000DA621A635A6301204FF0013207FB0657D9619963D9631964596483F820009A64B8F1000F02D031461520C0474FF05C0808FB065800F098FD98F8040000F0A0FCEC
:4041400000F010FE2C4B2D4908221A600B7898F80D2043F001030B70B97B8A4202EB010350D998B2511AFF28CFB24FD8BA42DBB203D3934228BF13461F464FF05C0808FBA1
:4041800006F694F80590AB1908FB09551A8C002624334FF0030EA4F8722131464FF4807217486366A7712666C4F86861A4F87061A4F8746184F8766184F8776184F8786144
:4041C00084F87961C4F86C61C4F88C6184F87A6184F801E002F09CFE3846AB6D9847FFF7E3B800BF7F841E002C370020F4380020818080800876000080E200E0004E0040F3
:404200009437002099B2FF290ED90027974238BF1746B2E7C3F5FF6382FB03021A44DB17A3EBE223FFF70FBBDBB2A2E70023FFF731BBC6B2FFF722BB013BA1F87231FEF73A
:40424000B2BEC3F5FF6381FB0321DA170B44A2EBE323FFF7CEB9C44BC2F5FF6183FB01E30B44C917A1EBE32CFFF7E6B9002001F0D9FBFEF798BE012001F0D4FBFEF793BE86
:40428000C2F5FF6283FB02E31344D217A2EBE323F1E6C3F5FF6381FB03E11944DB17A3EBE121DCE6C1F5FF618CFB01EC8C44C917A1EBEC21FFF7F2B9C3F5FF618EFB018E1A
:4042C0008E44C917A1EBEE2EFFF7C9B999791A69C3F8848183F8886183F87D11C3F8802101F0B0FAFEF75FBE2169A079DAF800300022C4F88011C4F8848184F87D0184F8D6
:40430000882194F889110BB128209847002384F87B3101F097FAFEF746BEC3F5FF6381FB03011944DB17A3EBE123FEF780BFC2F5FF6281FB02011144D217A2EBE122FEF7FC
:404340006ABFC3F5FF6380FB03E01844DB17C969C3EBE0231A4482EAE2790029A9EBE2797FF781A85842FFF769B8C3F5FF6382FB03E21A44DB17A3EBE222FFF746B8C3F5D4
:40438000FF6382FB03121A44DB17A3EBE223FFF787B8C3F5FF6381FB0321DA170B44A2EBE323F0E500F060FC00F05EFC6F4A1378D90715D523F001036D48137003786D496B
:4043C00003F07F0303700B78013BDBB20B70002B40F0248168490B7823F008030B7013789F0715D5654923F0020313700B78614823F008030B7003785C49013BDBB20370BC
:40440000002B78D15C48037823F0080303700B785D0715D55A4923F0040313700B78554823F040030B7003785049013BDBB20370002B62D15048037823F0080303700B7881
:40444000180715D54E4923F0080313700B78494803F07F030B7003784449013BDBB20370002B46D14448037823F0080303700B78D90614D5434923F0100313700B783D4851
:4044800003F07F030B7003783849013BDBB2037023B93948037823F0080303700B781F0713D443F00803364913700B78314A63F07F030B70137833B991F8C33943F0080313
:4044C00081F8C33913780133137000F04BFC2E492E4F0B782E4D03F0FE030B702022002001210C233A602A60A070E1702370FFF73CBB0B78BCE70B788AE70B78A0E7CA19AE
:40450000FF2A16D90022BA4238BF3A4676E4C3F5FF6382FB032EDA179E44A2EBEE234CE4C2F5FF6281FB02E11144D217A2EBE12137E407EB0E05EDB25CE45C2303FB0755EF
:404540002B7B96F80EE0DB43C3F3C01363721FFA8EF158E4C3F5FF618CFB018C8C44C917A1EBEC210EE400BF8180808016370020585B004018370020005B0040FD510040AA
:404580003D5100401D510040004E004080E200E000E100E0224BC2F5FF6183FB01E30B44C917A1EBE32EFFF7DABBC3F5FF6382FB03E21A44DB17A3EBE223FFF7BBBBB8F13D
:4045C000FF0F10D900269E4238BF1E46F6B2FFF78BB999B2FF2909D94FF00008904538BF9046FFF7ACB8C0B2FFF77AB9DBB2FFF7A2B809221A70FEF7D6BC0A4D2B68002B20
:404600003EF453AF0121232098472B68FEF74DBF08F101068CF80560FEF7C5BC1378DFE681808080F4380020704700BF124B1A78597891421FD070B41048027802F004028C
:4046400002F0FF05B2B91E460D4C02E00278520710D41A78110648BF35701A7859781A441279D2B222701A780132D2B21A701A789142EBD170BC7047643600206B6500402B
:404680004B6500401A4AF0B517461A481A4C012500260378DBB213F01E0E05D092F884104EEA010182F884109B0600D4F0BD217892F88530C9B2134483F8881092F8A830DD
:4046C0000BB187F8A95092F885300133DBB282F8853092F885301F2B88BF82F8856092F8851092F8AA309942D3D182F8A850D0E7643600206A6400404964004017280BD826
:40470000064A0301995C002041F020019954995C41F00101995470470120704710700040172809D8054903015A5C002002F0F10242F004025A54704701207047107000400B
:4047400041F6FF73994208BF4FF4005117280AD8C00000F1804303F5EC434FF480429A800020D98070470120704700BF09490A4A0B7803F08003DBB20B700B7843F0150343
:404780000B70137803F0F3031370137843F00D03137070470E5800400D58004009490A4A0B7803F08003DBB20B700B7843F015030B70137803F0F3031370137843F00D037F
:4047C000137070470A5800400958004010B502F06BFB0B4B0022D3F8AC1083F8AB20012909D1084C216841F00101216000BF00BF00BFC3F8AC20BDE8104002F059BB00BFC7
:40480000643600200400084038B502F04DFB0D4A92F8AB3023B1042402F04AFB204638BD094901250C6882F8AB502C40F4D00C6824F001040C6000BF00BF00BFC2F8AC5084
:404840001C46E9E7643600200400084038B502F02BFB3E493E4A0B783E4D43F008030B70137843F00803137002F022FB02F01CFB95F8AB3023B1042402F01AFB204638BDFB
:40488000354B024618680121C40785F8AB1008D5186820F00100186000BF00BF00BFC5F8AC102E4C104602F003FB23789B0733D52B4BB6200E22E121187019701A70227837
:4048C000900729D401221A702378D90705D4182002F0E2FA2378DB07F9D5214B1F4C1A78237885F8B020DA0705D4182002F0D4FA2378D907F9D51A4A184B11781A7885F827
:40490000B110900706D41C46182002F0C5FA23789A07F9D5002401E04FF0FF3402F0C4FAD5F8AC200023012A85F8AB30094909D1094D2A6842F001022A6000BF00BF00BF7A
:40494000C1F8AC3002F0B4FA204638BDA0430040B04300406436002004000840224700402047004070B5334C23789B071FD5324BB6260222D5251E701D701A7022789607D3
:4049800015D440221A70421E0F3012F8015F82421D70FAD12078274A8507FBD51078800705D51078800802D11078800716D44FF0FF3402F079FA214B0021D3F8AC2083F85D
:4049C000AB10012A31D11E4D2A6842F001022A6000BF00BF00BFC3F8AC1026E0B626D82505201E701D7018701278144B02F0020293F8B05093F8B10002F0FF060E4B002A98
:404A0000D5D140221A701E7019701D7018702278084B9607FBD51A789507C8D51B789B0814BF4FF0FF340024C3E702F041FA204670BD00BF224700402047004064360020C1
:404A40000400084010B5044602F02EFA0B4B19461A7842F001021A700B78084A9B07FBD504F1804303F500431C781378E4B203F0FE03137002F01CFA204610BD0247004091
:404A800070B4544B93F8B220D40714D5524D93F8B4102C78013922F0010204F07F04C9B283F8B2202C7083F8B41021B94B490A7822F008020A7093F8B220464C910714D521
:404AC000474E94F8B4103578013922F0020225F00805C9B284F8B220357084F8B41021B93E490A7822F008020A7093F8B220394C560714D53B4E94F8B4103578013922F091
:404B0000040225F04005C9B284F8B220357084F8B41021B931490A7822F008020A7093F8B2202C4C150714D52E4E94F8B4103578013922F0080205F07F05C9B284F8B22010
:404B4000357084F8B41021B924490A7822F008020A7093F8B2201F4CD10614D5224E94F8B4103578013922F0100205F07F05C9B284F8B220357084F8B41021B917490A78BB
:404B800022F008020A70042822D80122824093F8B210D2B20A420F4C1AD1144E0A4356F8205084F8B2203044027D2E78017F32432A700C4494F8B42032B90848027842F077
:404BC0000802027094F8B4200B44013283F8B42070BC704764360020585B0040005B0040FD5100403D5100401D510040A075000070B41A4D87B02C466B460646696828682C
:404C000003AA03C254F80C0F2D7A6168082E03C3217A157019701ED8114C06AB1E442378104803F08003DBB2237016F8181C237816F80C2C8900134301F00C010B432370B6
:404C4000037803F0F3030370037816F8182C43F00C031343037007B070BC7047C47500000258004001580040F8B502F01DF93349334A0B78334D03F0FE030B701378324C56
:404C800043F0040313702B78064643F002032B702378482043F00203237091F8913A2B4F03F0FC0381F8913A92F8913AA5F2473503F0F70382F8913A02F0EEF895F847332A
:404CC000234A03F0FD0385F847332178214B01F0FD0121701178204801F0EF011170117804F58C5401F0FE0111701A78093402F0FE021A701A78194902F0EF021A703B7853
:404D0000174A03F0F9033B70037803F0FE0303702B78304603F0FE032B70237803F0F70323700B7803F0FE030B70137803F0FE031370BDE8F84002F0BBB800BF004E004050
:404D4000014E0040F8460040F946004077580040AA430040BA430040A1430040A2430040B24300402DE9F04FC74C83B094F8B530002B62D194F8B63003F0FF06002B5ED083
:404D8000C24D012384F8B53002F08EF8C04A2B781178C04B41F0010111701178064641F0100111701A78BC4D42F001021A701A78BA4C42F010021A702B78B94943F00203BD
:404DC0002B702378482043F0020323700B7843F003030B7002F060F82B78B24903F0FD032B702378B04803F0FD0323700B787A2443F006030B7004703046AC4AA1F5A6513F
:404E00001378063943F0010313700B78A84D43F001030B705378013143F0010353700B78A44C4FF0005243F001030B702A60226003B0BDE8F04F02F03BB8944DA4E749F2E8
:404E40005B10924D0123DFF8C4822B7084F8B76098F80030984A43F0100388F800301378964943F010031370E0230B70DFF8A0E2934F944B02F5D05204218EF8001005320B
:404E80003E701E701378AEF1030E43F0180313708D4B8EF80060A2F287221E7087F8F2620A271770894FA3F207331E703E705B271772874F5E221A72A3F5286314223E70BF
:404EC0001A702B780F2284F8BA2004EB830393F8B670804BA4F8B8001F702B787E4804EB8303B3F8B43003802F7884F8BC60FFB2012F7FF446AF794B6FF4296CE644DFF8F5
:404F000014B2DFF814A24FF0F80C83F800C0DFF80C92DFF80CC28EF8001000F8091C8BF800208AF800604FF03F0A83F806A001F1804189F800608CF800608EF808604FF000
:404F4000030E80F808E001F5B141654A50200870DFF8D0A1132111702B2283F8862ADFF8C8E18AF800605F484FF0440A89F882AA5D494FF002095D4A4FF0480A8CF882AAB1
:404F80008EF800904FF0120C4FF0280E80F80090EB2081F800C082F800E083F8910A01F083FF3D4B00901A78ABF20B7B42F003021A7001939BF800204D494FF0520C42F0A0
:404FC000030250468BF8002081F800C001F064FF019B00981A78DFF854A102F0FC021A709BF8003003F0FC038BF8003001F060FF4CF6CD433F4A5820DFF834C1DFF834E117
:405000003D4910703D488AF800608CF800908EF800900E705672C4F8C03098F80020038802F007029BB2012B0FD0A1F5A7511A390978C9B2002A7FD1002B7DD1078098F872
:40504000003003F0BF0388F800301B482C4E0278338802F007029BB2072B0ED013490978C9B2002A40F0A080002B40F09D8007233380037803F0BF030370224B224A1B680B
:40508000C3F8B4207DE600BF64360020C980FF1FAA430040BA430040F8460040F9460040915800407758004082580040A143004080E200E000E100E0024100401DE400E0DA
:4050C000975800409E580040885B0040835800408D5800400E4E00400C4E0040004E0040855800408E5800408F5800409058004092580040945800409C5800408040004008
:405100000041004008ED00E0294600008240004096580040044E0040054E0040084E0040094E0040875800408C580040955800409A5800409B58004011F0010123D03D48D8
:405140003D4F3E4E00224FF0010E327080F800E03A7010F8082C6E3702F07F0200F8082C3A7810070FD43046072227F8803C32700378324A13F00103FAD1314E307800F0DB
:40518000FE00307013702E4B1A78D20744D56FF468773B441A462B4801260321068019701378DE07FCD450E711F0010124D02248204F224E00224FF0010E327080F800E0C2
:4051C0003A7010F80C2CF23702F07F0200F80C2C3A78100710D43046A7F5807707223B8032700378154A13F00103FAD1164E307800F0FE0030701370134B1A78D20712D544
:40520000A3F568731A460F4807260321068019701378DB07FCD430E70C4A012010801A781143197011E70A4A072010801A781143197022E7104000401440004001400040FA
:40524000A243004002400040A14300408040004000410040030608D4C00000F1804303F5F04399800020DA8070470120704700BF10B501F019FE0A4B5A78182A04D8FF2448
:4052800001F016FE204610BD9C78013AE10001F180415A7001F5F0410A789A70F0E700BFC980FF1F172805D8034B00010344597200207047012070471070004008B501F0BF
:4052C000FBFD03680C2B00D0FEE7FEE72DE9F8437A4A7B4B7B491A600B687B4A43F400737A480B600023032B94BF50F8231078490133302B42F8041FF5D1764B764A77497F
:4053000009781A6072B6764E764A35461378002443F00403137004EB4403AA8856F813000134002101F0F4FD072C05F10605F2D180226D496D4801F0F3FD6D4E6D4F00255D
:4053400056F8043F13F0FF0E23F0FF0413D005F110530EF1FF3E03F145005FFA8EFE7044443340005B001A785978023398421155F9D101357544BE42E2D15F4B5F490A2258
:405380001A700B785E4A43F002030B701378A1F5863143F00203137063390B78A2F5863243F040030B70513A564D574C1378D5F800C0D4F800E055485549564D564F43F048
:4053C0001003066808681370C5F800C0C7F800E043F69727514C5249266041F25126514A00250860504B1560A2F513523E3AA4F5115403CB163C1060516003CB20606160C4
:4054000003CBB23CC2F8F000C2F8F41093E8070003C4464B4649228007C903C3A4F6F6541A802278434B42F00802DFF82CE103CB227061228EF800203F4AA4F2A2242580CE
:40544000AEF27E7E106051603C4D50228EF800203B4819223B492A801825A57107800A70196826270322384B84F8807280F878211B78364FDBB23B70354B0827A4F8A271EB
:40548000344AA0F898611C784FF4F070116004F001041E4601F000FD01E0032C5ED033784FF4F07003F0010343EA440401F0F4FC013D04F00304F0D1FEE700BF0004FA0570
:4054C0000CED00E014ED00E0FC7FFF1F00000000BD52000008ED00E00080FF1FBC760040DC750000E8460040F406004880080140FCFFFF47840000488358004003500140DF
:4055000013500140B0070048B4070048B8070048BC0700480876004010760040187600402076004000760040740700482051004098070048A40700483251004084400040C0
:40554000884000408A40004008010049A14600402542004000410040004800404DF2200E40F20447624B6349634A4FF4807007251880DFF8B8811D700020DFF8B4C1482593
:4055800010700D7002220425187088F800208CF8005091F89A33594843F0070381F89A330178574B7F2641F001010170344619780CF5F72C41F08001197001200CF2F97CC9
:4055C0004FF081094F4988F8FF978CF800000978ACF5F42CC9B2DFF85C91ACF2967C01F007088CF80080E940DFF84C818CF80110A9F800E044494FF0080E88F800E0ACF2B8
:40560000027CDFF838E1ACF800700A700527092189F8601788F83C778EF800708CF8960880274FF0400C89F8F8C888F8CC788EF8981110214FF0200E89F80CE988F8E418DF
:4056400089F81A2988F8EC0889F8245988F8F82889F82C1988F8442989F87F0988F8565988F85E59294D4FF0420885F800804FF0C80885F80880DFF8C88088F800C0287328
:40568000DFF8C0C02248DFF8C0808CF80010AA76204980F800E0CCF868804FF48C7CA5F884C01D4A4FF0060C81F800C0DFF89CE04FF00E0C0A21A5F5B85580F854C0103D7D
:4056C00011704FF0440C0FCB8EF800C007C513481349144A2B8007700E70013CE4B202F80849002CF9D1104B1C70BDE8F88300BF044000400840004006400040A143004069
:40570000A0430040CF010049FD510040C05A0040045B0040475B00405A5B0040CA80FF1FCB80FF1FF87B004000780040014000400B4000400C5100403C5100407A5800400B
:40574000CB5A0040D85A00400706070676580040F8B5394C5C236579384E03FB05F394F8882106F12C001844C2B941F288323344DB6ED4F884719B1202FB03F3002B50DB8C
:405780002F4A03F5FF6382FB03121A44DB17C3EBE2239F42CCBF0027012700E00027437B807B94F87D11834203EB00022CD9181A93B2FF2BC0B231D9884238BF08465C2387
:4057C00003FB056684F87D01D6F88430984705EB4505D4F8803194F87D2104EB8505C5F89C3185F8A07185F89821134B07B91F71D4F8C83113B139462920984763790A2257
:40580000013363712270F8BD93B2FF2B04D8D0B2884228BF0846D2E70020CDE78142CED3F5E70749C3F5FF6281FB02131344D217A2EBE323ADE700BF2C370020DC7500008C
:40584000818080802DE9F843714C94F888316079002B00F08D806F495C2303FB001394F87C7193F871506A4ABD4240F29B8093F87050002D00F09680024492F85660002E94
:4058800000F0A28092F85A30002B40F0A2805C2303FB0013D4F880215B6B9A4200F3A2806B421BB25C4A4FF05C0E0EFB002E94F87D819EF80DC09EF80E6008EB03052DB2C6
:4058C000B445AE4672D9C6EB0C095FFA89F94D456EDA66441FFA86FCBCF1FF0FCE464D4670D8F6B2B6456DDDB0455BD05C2505FB00F001EB000810440025B8F874E000F126
:405900004C020137294684F87C7184F88931626601234FF480720B274048A4F872E184F87B3184F87A31A6712566C4F86851A4F87051A4F8745184F8765184F8775184F8E2
:40594000785184F87951C4F86C51C4F88C51677001F0DEFAD8F884303046984701F0A4FA84F8CC5101F0A4FA02232370BDE8F88341F2883227495C2303FB0013DB6ED4F8FC
:4059800084519B1202FB03F3002B254E2CDB03F5FF6386FB0326DA173344C2EBE3239D423FF75AAFBDE8F843FFF7D2BE002D24DB66441FFA86FCBCF1FF0F92D9FF2DC8BFE0
:4059C000FF2691DCEEB28FE793F93830002BFFF65EAF5C2303FB0013D4F880215B6B9A42BFF65EAF2BB25DE7C3F5FF6386FB0326DA173344A2EBE323D1E766441FFA86FCA0
:405A00004FF0000EBCF1FF0F75467FF66AAFD9E72C370020DC75000008760000943700208180808041F288322DE9F047854C5C256679DFF81C8205FB06F108EB01031B6CC2
:405A400008F12C059B1202FB03F3002B0D44074694F80CA0D4F81890E169C0F2D5807A4A03F5FF6382FB03021A44DB17C3EBE22394F820209942D8BF0127724B22B193F872
:405A80002220002A00F0A38041F288334FEAA92203FB02F3002BC0F2AD806B4A03F5FF6382FB03121A44DB17C3EBE223002BB8BF5B421F2B05DD6179624B032900F0AE8098
:405AC00000276B7BAD7BAB4203EB050177D95D1B8BB2FF2BEDB240F28980554538BF55465C2303FB06882846D8F884304FEA4608984708EB060304EB830383F89851C3F868
:405B00009C9183F8A0714F4B07B91F71D4F8C8314C4F23B1294613209847D7F8C83108EB060204EB8202D2F89C51B5F5004F42DA15F5004F7CDA454D8021002B34D01420C6
:405B40009847D4F8C831E9B23E4F002B73D01420984708EB0603D7F8C82107EB8303D3F89C510AB3290E1D209047D7F8C831C5F30741CBB11D209847D7F8C831A3B1C5F3B8
:405B800007211D209847D4F8C831E9B22D4F5BB11D209847D7F8C83133B1464407EB860797F8A0111620984763790122134463712270BDE8F0877F2147F6FF75BDE78BB289
:405BC000FF2B11D8CDB2554528BF554688E793F8211000293FF458AFD3F8C83133B331462420174698474FE7002576E7AA45FFF477AFE7E71449C3F5FF6281FB0213991882
:405C0000D317A3EBE12351E70F48C3F5FF6280FB02039818D317A3EBE02329E7D3F8C871002F3FF44EAF1C20B84749E71F462BE7C5F3072181E70C2303FB0677D7F89C5192
:405C4000A1E700BF2C370020818080800080FFFFDC75000008B5FFF707F8504A1378D80715D523F001034E48137003784D4903F07F0303700B78013BDBB20B70002B40F09F
:405C80008A8049490B7823F008030B701378990715D5464823F0020313700378414923F0080303700B783D48013BDBB20B70002B6BD13D490B7823F008030B700378580729
:405CC00015D53B4823F0040313700378354923F0400303700B783148013BDBB20B70002B55D131490B7823F008030B700378190715D52F4823F0080313700378294903F034
:405D00007F0303700B782548013BDBB20B70002B3FD125490B7823F008030B700378D80614D5244823F01003137003781D4903F07F0303700B781948013BDBB20B7023B951
:405D400019490B7823F008030B70037819070CD443F00803164913700B78124A63F07F030B7013784BB101331370FEF7FBFF124A137803F0FE03137008BD91F8C33943F0D3
:405D8000080381F8C3391378EDE7037897E70378ADE70378C3E7137879E700BF16370020585B004018370020005B0040FD5100403D5100401D510040004E00402DE9F04FD6
:405DC000DFF850E35C2404FB00E4636BD4F840909B1A83EAE37CCC4DACEBE37C4FEA400BE1450BEB0004B4BF0027012705EB84042E1884F8A07196F8F47187B0C4F89C21E8
:405E0000002F40F0E18000F10A08860034180EEB8404D4F8A841644580F20F8102922A18019192F8141204460F460391B7495C2000FB0410B449C7B304F1120A01EB8A0117
:405E4000D1F8D41101F1FA0767452EDA92F92C725FB3032C92F8F86140F2608105EB880889450BEB0403D8F8D41104F11802D5F8C88105EB83034FF00007B4BF4FF00009D1
:405E80004FF0010905EB82022C44C3F89C1183F8A091C2F8D07184F81472B8F1000F02D031462220C04701208BE004F1180205EB82090592D9F8D02195491A448A42B8BF6C
:405EC0000A46DFF854A231195245A8BF52460EEB8101C9F8D021D1F8A091D1F8A4A109FB02F2BAF1000F08BF4FF0010A92FBFAF2D1F89C1101FB03212A1992F80C9200290A
:405F000018BF0B46B9F1000F7AD092F81022002A7DD1002B7DDD4FF6FF734FF0FF32049246F26662264494450EEB8606CCBF96F8AD1196F8AC11019A01FB0321427B837B60
:405F400009B29A420E4667D9D01AC0B28142C0F2A680D0181FFA80FABAF1FF0F66D9FF29C8BF4FF0FF0965DD029F05EB8808C8F8D471019F291901264F4581F8F87181F836
:405F8000F461DFF8848100F08D80039F002F70D19DF8047029199DF81080012681F81872032C05EB840781F82C8281F81462C7F81CC27ED9D5F8C86116B149461F20B047D1
:405FC000002007B0BDE8F08F96F8F84100F10A088C423FF41AAF05EB8807D7F8D471BA423FF413AFD4BF012700278C422CBF3C4687F00104012786F8104286F80C7204E716
:406000005C2202FB04E292F93820002A81DB002B81DD0123049383E700299ADA0026314698181FFA80FABAF1FF0F03D85FFA80F94E4599DC5FFA81F996E72C18012600F151
:406040001807002084F81402304605EB8707D7F8D03105EB880803EBD3735B10C8F8D42184F8F811C7F8D03184F8F46107B0BDE8F08F91F818724F458AD1059BD8F8C8216B
:4060800008EB83080023C8F8D03181F81432002A3FF409AF222049469047304691E706460146BDE73046002381F8143207B0BDE8F08F9A421CD8BAF1FF0F20D900264E456F
:4060C00038BF4E465C2303FB04EE3046DEF88430984795F840325C44032B0B4A05EB840498BF042384F8986198BF82F8403261E7D31ABAF1FF0FDEB2E1D84E45E2D8C6B2FB
:406100004E4528BF4E46DDE72C37002008760000A099F9FFDC75000060660600437B877BBB4203EB070220D991B2DB1BFF29DFB21FD8BE4226D25C2303FB04EE3846DEF8ED
:406140008430984795F840220BEB040305EB8303032A83F898710E4B0FD803EB8A0A0422DAF8D41183F8402278E693B2FF2B09D90027B74238BF3746DDE703EB8A03D3F8B0
:40618000D4116BE6D7B2B74228BF3746D3E700BF2C3700200349044B0420012208601A70704700BF80E200E02582FF1F3E4A13889BB29BB93D4B1B787BB13D4A1178537890
:4061C0009278120442EA03230B431A02394A48BF43F07F431278022A05D070471388013B9BB2138070472DE9F047334D2A7802F0FF07002A55D1314A314814880188621E44
:4062000092B2B2F5007F34BF26464FF4007689B2B14246D22B4E318889B21D2941D83188B0F800C0DFF8A0E04FF05A081FFA8CFC08FB0CEC01EB410189B25FFA83F90CF8D3
:406240000190B0F800C001F101091FFA8CFC08FB0CECC3F3072A0CF809A0B0F800C0C3F307431FFA8CFC08FB0CEE02310EF80130338801339BB2338033889BB21D2B10D961
:4062800037800388B2F5007F03F101039BB20380038828BF4FF400749BB2A34224BF01232B70BDE8F08700BF5682FF1F5882FF1FC081FF1F2682FF1F5A82FF1F4882FF1FE1
:4062C0002A82FF1F4A82FF1F6082FF1F2DE9F04347490A7848788B781B0443EA002313431A02444A48BF43F07F431278012A03D1002BB8BF1F335B113F4A404C1360156873
:406300003F4901203F4B256008701B781BB93E4B1B78022B01D0BDE8F0833C4C2378002BF9D13B4B3B4D18882988431E9BB2B3F5007F34BF06464FF4007689B2B142EAD266
:40634000354E318889B21D29E5D8344F31883F7801EB410189B2002F40D11268B5F800E02F4F4FF05A0C1FFA8EFE0CFB0E7E5FFA82F80EF80180B5F800E001F101081FFAAA
:406380008EFE0CFB0E7EC2F307290EF80890B5F800E002311FFA8EFE0CFB0E77C2F307427A5432881B49013292B2328032881A4E92B21D2AAFD9B3F5007F4FF000033380E6
:4063C0000B8828BF4FF4007001339BB20B802B889BB2834224BF012323709CE7114F3A6802F1010EC7F800E022F07F42B6E700BF6081FF1FC980FF1F703900202C82FF1FB5
:40640000F83800205882FF1F2682FF1F5A82FF1F4882FF1F2A82FF1F4A82FF1F5482FF1F6082FF1F5082FF1F2DE9F04F2E4A2F4B12781C78D2B282F0C4034B4083B0434071
:40644000AB26C4258DF802008DF803108DF804208DF805308DF800608DF80150002C38D06E46DFF894E0224DDFF89090DFF890C0DFF890B00DF106084FF0020A16F8014B9D
:406480009EF800102A780846D2B2571E8B1A7F1AA3F17F03B7FA87F7B3FA83F37F095B098A4288BF3B46002BECD18A4214D00A0659BF0131C9B20121002009F800408EF8B1
:4064C00000109CF800309B0748BFCBF800A04645D4D103B0BDE8F08F9CF800305F07E6D4044B1C70F3E700BF2682FF1F4C81FF1F643600204B650040653600206836002089
:406500006B65004000E200E0F8B54F4B4F4C1B78580607D533202178FFF786FF2378012B47D0F8BD34202178FFF77EFF4849494A0B78494803F0FE030B701378474903F0CB
:406540007F03474D137001602B78B3B1414A454F1378454E43F08003137000F0A5FC434D4349444A00233B8033702B800B8013702370BDE8F84000F09BBCFF23036042F8B9
:40658000713C00F091FC3C4A137843F01003137000F08EFC394A1378190704D538490B6813781B07FBD4374A0021012311702B70CCE7354B1B7813B1344B3F221A80344F7D
:4065C00023493E780B783348224A03F0FE0305880B701378304903F07F03284813706A1E4023B2F5007F0078F6B20B6028BF4FF4007500F059FC0036DFF868C0DFF868E0D3
:406600001A494FF0000318BF0126194A3E70ACF80030184F8EF80030204E0B802049138002220B803B703360227000F041FCFF2D94BFE9B2FF213520FFF7F6FE044A1378C2
:4066400043F001031370F8BDC15100402682FF1F004E0040756500402465004080A903002482FF1F4A82FF1F4C82FF1F2882FF1F2A82FF1F5A82FF1F976500406765004088
:4066800044650040876500405882FF1F5682FF1F5482FF1F4882FF1F80E200E05082FF1F5C82FF1F10B5244A244B25491B781368013313600B78BBB1224A13780133DBB261
:4066C00013701378ABB9204A20491378204803F07F03204C13700860237883B11A4A137843F08003137010BD03F0FF02154B1A70E9E7194B0020012110701970E3E7FF2389
:406700000B6042F8713C00F0CFFB144A137843F01003137000F0CCFB084A1378190704D50F490B6813781B07FBD40E4A0021012311702370D2E700BF2082FF1F67650040D2
:40674000613600204482FF1F756500402465004080A903002482FF1F603600209765004044650040876500402DE9F04F934F83B03B7806465BB139781220FFF755FE002ED5
:4067800040F0B7800025284603B0BDE8F08FDFF8648203F0FF0598F80130894889498A4A012B05800D80157000F0F1804FF00009DFF844A288F8019000F076FBDAF800B0FF
:4067C00000F076FB814A824C0BF1190382F8009049461020C8F82030FFF726FE94F80280B8F1000F51D049461120FFF71DFE002EC8D0784BAB241B78C220B52177228DF81B
:4068000003908DF800408DF801008DF802108DF80420002BB7D0EE466F4F704CDFF8DCA1DFF8DC81DFF8DCB10DF105091EF8016B397822780846D2B202F1FF3C8B1AC1EBC4
:406840000C0CA3F17F03BCFA8CFCB3FA83F34FEA5C1C5B098A4288BF6346002BE9D18A4200F0A4800A0659BF0131C9B2012100200AF80060397098F800309B0744BF022347
:40688000CBF80030F145D1D17DE7554B20221A60FEF7EAF9FEF7E8F9FEF764FA514A0125137803F0FE031370FEF7DEF94E4B04221A7084F8038084F80580A5702571257034
:4068C00000F0F2FADAF8009000F0F2FA28460036464A18BF012603231670C4F89091C4F89491C4F85680C4F85A803B7003B0BDE8F08F384BAB251B78C224B52000217722DD
:406900008DF800508DF801408DF802008DF803108DF80420002B3FF435AF6E462E4F2F4CDFF8D890DFF8D8C0DFF8D8B00DF105084FF0020A16F8015B397822780846D2B21C
:4069400002F1FF3E8B1AC1EB0E0EA3F17F03BEFA8EFEB3FA83F34FEA5E1E5B098A4288BF7346002BE9D18A4219D00B0659BF0131C9B20121002009F8005039709CF80030A8
:406980009A0748BFCBF800A0B045D3D1FAE6154A137803F0FE031370FFF75CF906E79CF800305A07E1D4124B1D70EDE798F800305B073FF557AF0E4B1E7063E72682FF1FCF
:4069C0002882FF1F2A82FF1F5A82FF1F7B6400402C3700204C81FF1F653600206436002080E100E0004E00406C3900205982FF1F4B650040FC3800202082FF1F68360020BA
:406A00006B65004000E200E0014B1870704700BF815B0040014B1870704700BF835B0040014B1870704700BF825B0040014B1870704700BF805B004041F288322DE9F84FA0
:406A40008368CB499B1202FB03F3002BC0F25D8103F5FF6381FB0321DA170B44C2EBE32641F28832C34C2769BB1202FB03F3002BC0F24181BE4903F5FF6281FB025111445D
:406A8000D217C2EBE122B21A94F84C5082EAE276A6EBE276A179B74AF5B392F84EE08E4500F02781012D40F2228192F84FE08E4500F01F81022D00F01A8192F850E08E4550
:406AC00000F01781032D00F0128192F851E08E4500F00F81042D00F00A8192F852208A4200F00781052D00F0028194F853E0A14A8E4500F0FE80062D00F0F98092F854E077
:406B00008E4500F0F680072D00F0F18092F855506D1AB5FA85F56D09D0F81CE0BEF1000F21DD002BC0F2FA80914A03F5FF6382FB03021A44DB17C3EBE22341F288304FEA7D
:406B4000AE2200FB02F28A4802F5FF6280FB02E0002B10444FEAE272B8BF5B42C2EBE022934280F2A380844B1B6823B1002123209847A179276994F82020012384F82230C5
:406B80007C4B002A00F0AE800022E6612173A76184F8202094F82300764B002800F0E68093F824E08E4500F0E980012840F2CC8093F825E08E4500F00181022800F0C48082
:406BC00093F826E08E4500F0FB80032800F0BC8093F82700884200F0EF80D3F838E0D3F83C8093F848C00EF1805093F849A0BCF1000F18BF864608F18050BAF1000F14BF9F
:406C00008246C2464EEAEE7C186CE24593F84A9000F1805ED4BF4FF000084FF00108D445B8BFD446B9F1000F18BF7046D3F8449093F84BB08445ACBFC6464FF0020E09F143
:406C4000805A84456346B8BF0346BBF1000F0CBFCC46D4469C45D4BF704603206345B8BF6346002A64D1B6469E450BDA231800F10A0E0E3083F8241083F8482044F82E7030
:406C800044F820607DB994F84C20A079072A394B51D993F84D20511C01F007011A4483F84D1082F84E002846BDE8F88F324B1B68002B40F0878094F82230012284F82120DC
:406CC0002C48002B7FF466AF90F820301BB9C3699E42BFF65FAF0122E6612173A76184F8202057E7DB699E42FFF64EAF52E7002512E7012510E71E4AC3F5FF6182FB015218
:406D00000A44C917A1EBE222BDE6C3F5FF6381FB0321DA170B44A2EBE326A1E61448C3F5FF6280FB02039818D317A3EBE02304E706F1805E98E79918013281F84E0083F856
:406D40004C202846BDE8F88F431CDBB204EB000E84F8233000F10A030E308EF824108EF8482044F8237044F820608BE70123EDE7818080802C370020F43800200023E11890
:406D800091F848108AB9A1B903F10E0154F821008642BFF677AF03F10A00234444F8216044F8207083F848206CE701297FF46AAFEAE703F10E01EEE70323E0E70123DEE7E9
:406DC0000223DCE7012123209847A179276972E770B5104D2B68DBB10C460146262098472B68210EA3B1272098472B68C4F3074173B1272098472B68C4F3072143B1272040
:406E000098472B68E1B21BB1BDE870402720184770BD00BFF438002070B51D4D0C462B681BB10146132098472B68B4F5004F25DA14F5004F28DA174E802123B314209847E2
:406E40002B68F1B2124E9BB1142098473368D3B1210E1D2098473368C4F307419BB11D20984733687BB1C4F307211D2098472B68E1B243B1BDE870401D2018477F2147F607
:406E8000FF76002BDAD170BDC4F307212646D4E7F43800200080FFFF0230800803D000BF01380046FCD17047EFF3108072B6704780F31088704700BF014B1868704700BF27
:406EC0002C81FF1F0E4B70B51E460E4C0025E41AA410A54204D056F8253098470135F8E700F086FC084B094C1E46E41AA4100025A54204D056F8253098470135F8E770BD8E
:406F0000FC770000FC770000FC7700000478000003460244934202D003F8011BFAE7704710B5431E0A44914204D011F8014B03F8014FF8E710BD00000000000020130025D8
:406F40006117802601008026E00E8026C20C8026020080066587186D6409183E00008026032080262102187F0000000000000000000000000000000000000000000000005F
:406F800000000000000000000000000000000000000000000000000000000000000000000000000000000000000000000000000000000000000000000000000000000000D1
:406FC0000000000000000000000000000000000000000000000000000000000000000000000000000000000000000000000000000000000000000000000000000000000091
:4070000000000000000000000000000000000000000000000000000000000000000000000000000000000000000000000000000000000000000000000000000021F8050131
:407040004210864064F8150181F8050143518E21000000000000000000000000000000000000000000000000000000000000000000000000000000000000000000000000C4
:4070800000000000000000000000000000000000000000000000000000000000000000000000000000000000000000000000000000000000000000000000000000000000D0
:4070C0000000000000000000000000000000000000000000000000000000000000000000000000000000000000000000000000000000000000000000000000000000000090
:40710000000000000000000000000000000000000000000000000000000000000000000000000000000000000000000000000000000000000000000000000000000000004F
:40714000000000000000000000000000000000000000000000000000000000000000000000000000000000000000000000000000000000000000000000000000000000000F
:4071800000000000000000000000000000000000000000000000000000000000000000000000000000000000000000000000000000000000000000000000000000000000CF
:4071C000000000000000000000000000000000000000000000000000000000000000000000000000000000000000000000000000000000000000000000000000000000008F
:40720000000000000000000000000000000000000000000000000000000000000000000000000000000000000000000000000000000000000000000000000000000000004E
