:4000000000800020110000001945000019450000144A80B5144B1268144F1A60F7B1144E002556F80C4C56F8080C56F8102C234638B1043A52F8041F43F8041B191B8142FB
:40004000F8D156F8040C1A4620B142F8045BD11A8842FAD1013F06F11006E2D105F076FA01F04AFEFA460040BC760040010000006865000010B5054C237833B9044B13B101
:400080000448AFF300800123237010BD3881FF1F0000000050590000084B10B51BB108490848AFF300800848036803B910BD074B002BFBD0BDE81040184700BF0000000088
:4000C0003C81FF1F50590000C080FF1F000000002DE9F04F0227BB46DFF87CA2DFF87C92DFF8A8828FB0C8F800B09AF8000099F8001002248842984A984B00F0D380107862
:4001000019781B788842127828BF20339B1A944ADBB21760002B00F0D4809249C8F800709AF8002099F800300878D2B2DBB210B99A4200F0C080531CDBB2202B8A4828BF23
:400140000023805C8AF800300A78864CC3B20AB100222270824A854917600A78052A00F2A780DFE802F0947F75150C03804A8148D37003230B70002313700370B3E77C4A66
:400180007C48937005230B70002313700370AAE7774C78480022227002700A706278A178E0784A4042409A429DD1734B1A785AB96278C12A02D06278A52A94D10122617863
:4001C00021201A7004F0B6FE6378694AC12B03D05178302004F0AEFE684B694A1B783221032B1160637876D0A33B152B3FF67BAF01A252F823F000BF97080000E7000000B8
:400200001D09000039060000E7000000E70000003F110000E9110000E7000000E7000000E7000000E7000000E7000000E7000000FF060000E70000007D0E00001D0F000034
:400240008D10000091030000390A0000250B00004748484C837000220323C2700B700270227040E703F15D02414C424DD2B200201E2A2070287005D801264248964030404D
:4002800010BB22B3002323702B700B702BE7AB2B7FF429AF01233648364A0B7000230370137020E72F490B784BB12D4B1F6035E700230B7017E7344B1B78DBB24AE7284BF9
:4002C0001C600FB0BDE8F08F63700F700BE7042263700A7007E7A53B1C2B01F2668101A252F823F097140000F1130000AB150000AB150000F1130000F1130000AB15000002
:40030000AB150000AB150000AB150000AB150000AB150000F1130000AB150000F1130000F11300004D130000AB150000AB15000087120000AB150000AB150000AB15000078
:40034000AB150000AB150000AB150000AB150000AB150000E70000005A3600203536002000E100E05836002038360020AD3500205481FF1FAC3500208081FF1F8181FF1F69
:400380009081FF1FCC403F404D64004080E100E09E4B18787423002800F0ED809C4B01281D7841F2A18302281C7B01F092840328197E01F08B8493F824208DF81C204FF661
:4003C000FF720023CA208DF81A408DF818008DF819508DF81B108DF82A308DF82B308DF82C308DF81D308DF82D308DF81E308DF82E308DF81F308DF82F308DF820308DF849
:4004000030308DF821308DF831308DF822308DF832308DF823308DF833308DF824308DF834308DF825308DF835308DF826308DF836308DF827308DF8373006A80AAC10F8A2
:40044000013B510881F404455A4012F0010F85F0080518BF29464A0882F4044581EA530111F0010F85F0080514BF294611464A0882F4044581EA930111F0010F85F0080516
:400480000CBF114629464D0881EAD30111F0010F85F4044282F0080208BF2A46510881F4044582EA131212F0010F85F0080518BF29464A0882F4044581EA531111F0010F21
:4004C00085F0080514BF294611464A0882F4044581EA931111F0010F85F008050CBF114629464A0881EAD31382F4044113F0010F81F0080118BF0A46A042A0D1D343C3F36C
:40050000072242EA0323C3F307228DF828308DF8292005F00DF83F493F4A0B783F4D43F008030B70137843F00803137005F004F804F0FEFF2B780646002B01F0958304F09E
:40054000FBFF04F0F5FF3349334A0B7843F008030B70137843F00803137004F0EDFF04F0E7FF2B7806462D4A002B01F0038304F0E3FF742300202A4A8DF82B001278AB2050
:400580008DF82C30C221B6238DF828008DF829108DF82A30002A00F0A080DFF898C0214B0AAE16F8015B9CF8000019780446C9B201F1FF3E421AC0EB0E0EA2F17F02BEFA55
:4005C0008EFEB2FA82F24FEA5E1E5209814288BF7246002AE9D1814200F0ED8702065ABF421CD2B20122104948BF00248CF800200E4A0D551278900702D50D4A0421116085
:400600000DF12D029642CCD167E000BF7081FF1F2C380020A0430040B04300405B3600206881FF1FB0350020B43500206A65004000E200E0B1350020A378DBB2082B41F27E
:40064000A1819C490B789C4A83F064018DF82B301278AB238DF82C108DF82830C221A6238DF829108DF82A30002A36D0DFF8A8C2924B0AAE16F8015B9CF800001978044634
:40068000C9B201F1FF3E421AC0EB0E0EA2F17F02BEFA8EFEB2FA82F24FEA5E1E5209814288BF7246002AE9D1814200F0DD8702065ABF421CD2B20122814948BF00248CF889
:4006C0000020804A0D551278900702D57E4A042111600DF12D02B242CCD17C4B1B78022B3FF401AD7A4B7B491A780B7802F0020282F0020203F0FD0313430B70F3E4764DCA
:400700002B7803F0FE032B7003F0DEFB03F05AFC2B7803F0FE032B7003F0D6FB6F480578FF2D01F01E81012D3FD0022D6C4B23D80121A9401A78C9B211421ED0694E22EA52
:40074000010256F8256068491A70327811F805E0664922EA0E02495D654D32706A5C013AD2B26A5442B9634D634A55F82150515C2A7822EA01022A701A78FF2101709507FB
:4007800011D442F002025D491A700A78584B42F001020A705A7822B9594D297841F01001297001325A7001230370564A1378002B41F0BC8003F006FC474A534D137803F050
:4007C000FE03137004F0B4FE50490023E380504A23722B800B804F4913700B80E3603B4B01221A7004F0A8FEA1883220FF2994BFC9B2FF2104F09EFB344B2F4A1B78127862
:40080000DBB283F073018DF82B30AB238DF82C108DF82830C221B1238DF829108DF82A30002A3FF45AAFDFF8F0C0244B0AAE16F8015B9CF8000019780446C9B201F1FF3E0D
:40084000421AC0EB0E0EA2F17F02BEFA8EFEB2FA82F24FEA5E1E5209814288BF7246002AE9D1814200F0F78602065ABF421CD2B20122134948BF00248CF80020114A0D55E9
:400880001278940702D5104A042111600DF12D02B242CCD121E7A378E178312043EA012109B28BB2FF2B94BFC9B2FF21A38004F041FB18E4C480FF1F6881FF1FB0350020A5
:4008C000B43500206A65004000E200E08181FF1F2151004020510040004E0040CC80FF1F60380020106100001C6100002061000064380020246100002C6100000D51004010
:40090000005B0040663800208281FF1F8481FF1FA681FF1FA881FF1FB13500200121084604F008FB00213B2004F004FB724B01931B78002B3FF4D7AB704EDFF8E4C1704BF9
:4009400016F8015B9CF8000019780446C9B201F1FF3E421AC0EB0E0EA2F17F02BEFA8EFEB2FA82F24FEA5E1E5209814288BF7246002AE9D1814200F0408602065ABF421CAB
:40098000D2B201225F4948BF00248CF800205E4A0D551278900702D55C4A042111605C4AB242CDD1019AAB21C3208DF828101278B8218DF829008DF82A100B2070218DF88B
:4009C0002B008DF82C10002A3FF48DAB0AAE16F8015B9CF8000019780446C9B201F1FF3E421AC0EB0E0EA2F17F02BEFA8EFEB2FA82F24FEA5E1E5209814288BF7246002AA4
:400A0000E9D1814200F0F08502065ABF421CD2B201223C4948BF00248CF800203A4A0D551278900702D5394A042111600DF12D029642CCD1FFF757BBA278364B003218BF15
:400A400001221A701A783449003218BF01220A701978324A09B1002151821B78264ADBB283F075018DF82B301278AB238DF82C108DF82830C221B7238DF829108DF82A30B0
:400A8000002A3FF42AAEDFF898C01D4B0AAE16F8015B9CF8000019780446C9B201F1FF3E421AC0EB0E0EA2F17F02BEFA8EFEB2FA82F24FEA5E1E5209814288BF7246002A98
:400AC000E9D1814200F0BE8502065ABF421CD2B201220C4948BF00248CF800200A4A0D551278900702D5094A042111600DF12D02B242CCD1F1E500BF6881FF1F706000003B
:400B0000B0350020B43500206A65004000E200E074600000A481FF1F756400405481FF1FB1350020964B1A78002A40F08486954B1B6813B10121084698474DF2B7130493C0
:400B4000914B924E059300230393059B9DF80C401B78A34200F2CE85727BB17B8A4202EB010340F20287511A98B2C9B2FF28019100F201878A4280F0F28703F0A5F90021CF
:400B8000307904F023FC03F01DFA019DB36D2846029398477E4804F0C3FC7A4B1B6823B321462D209847774BB4681B68210EE3B12A209847734B1B68BBB1C4F307412A2062
:400BC0009847704BC4F307211B6873B12A2098476C4B9DF810101B683BB12A209847694B1B6813B129461320984703F0FDFF654B04461B68B3B1010E2E209847614BC4F3BD
:400C000007411B6873B12E2098475E4B1B684BB1C4F307212E2098475A4BE1B21B680BB12E2098475B4C14F8015BB36D28469847574804F075FC534B2B201B680BB12946A9
:400C4000984703F0D1FF05464E4B2C201B68290EA3B198474B4B2C201B68C5F307416BB19847484BC5F307211B682C2033B19847444B2C201B68E9B203B19847464BA3424E
:400C8000D1D1019C029B20469847414804F048FC3C4B1B6813B121461320984703F0A4FF384B04461B68B3B1010E2E209847354BC4F307411B6873B12E209847314B1B6833
:400CC0004BB1C4F307212E2098472E4BE1B21B680BB12E209847039B5C360133022B039340F0048503F0F0F82C480178FF2900F03D8701293ED00229294B22D801248C402E
:400D00001A78E4B214421DD0264D22EA040255F82150254C1A702A78665C244C22EA0602615C234C2A70625C013AD2B2625442B9204C214A54F82140515C227822EA010254
:400D400022701A78FF210170910711D442F002021A491A700A78164B42F001020A705A7822B9174C217841F01001217001325A7001230370134A1378002B40F0D58623E0DB
:400D80008181FF1F5C3800207081FF1F785B000080FC0A00745B0000775B0000CC80FF1F60380020106100001C6100002061000064380020246100002C6100000D51004059
:400DC000005B00406638002003F0FCF89D4A9E49137803F0FE0313700B789C49003318BF01239B4A0B701378AB22C2218DF82820B8228DF829108DF82A2001217B228DF83A
:400E00002B108DF82C20002B3FF467ACDFF878C2904B0AAE16F8015B9CF8000019780446C9B201F1FF3E421AC0EB0E0EA2F17F02BEFA8EFEB2FA82F24FEA5E1E5209884299
:400E400038BF7246002AE9D1884200F03E8401065ABF421CD2B201227F4948BF00248CF800207E4A0D551278920702D57C4A042111600DF12D029642CCD12EE4A3783A20FE
:400E8000003318BF01232374217C04F053F8237C744D002B00F0AD8404F0F6F96949724A0B78AD8803F0FE030B7013786F4903F07F036F4813706A1E8023B2F5007F0078B2
:400EC0000B6028BF4FF400756A4E04F031FB6A4A012323740023E3806849237233801380674A0B70E3601380664B1F7004F024FBA388B3F5007F03D9FF213E2004F01AF888
:400F0000FF2D94BFE9B2FF21352004F013F84D4A137843F001031370FFF7E5B80021392004F008F84A4BAB22C2218DF828201B78B4228DF829108DF82A20012177228DF8FE
:400F40002B108DF82C20002B36D0DFF83CC1414B0DF1280E01941EF8016B9CF8004018782546C0B2411E221A091BA2F17F02B1FA81F1B2FA82F249095209A04288BF0A4612
:400F8000002AECD1A04200F0418321065ABF621CD2B20122304948BF00258CF800202F4A4E551278920702D52D4A042111600DF12D027245CFD1019C04F066F921492A4A91
:400FC0000B78A58803F0FE030B701378274903F07F03274813706A1E8023B2F5007F00780B6028BF4FF40075224E04F0A1FA224A002323742149E380237233801380204A66
:401000000B70E36013801F4B1F7004F095FAA388B3F5007F03D9FF213E2003F08BFFFF2D94BFE9B2FF21352003F084FF054A137843F001031370134B1B78022B7FF452AB93
:40104000FFF751B8004E0040A481FF1F756400406881FF1FB0350020B43500206A65004000E200E05481FF1F7565004080E200E0676500408281FF1F8481FF1FA681FF1FBD
:40108000A881FF1F8181FF1FB1350020A74BA74A1B7803F0FF06002B00F04A831178122003F048FFA24BAB22C2218DF828201B78B5228DF829108DF82A20002177228DF8D8
:4010C0002B108DF82C20002B3FF407ABDFF878C2984B0AAE16F8015B9CF8000019780446C9B201F1FF3E421AC0EB0E0EA2F17F02BEFA8EFEB2FA82F24FEA5E1E5209814237
:4011000088BF7246002AE9D1814200F0E78202065ABF421CD2B20122874948BF00248CF80020864A0D551278900702D5844A042111600DF12D029642CCD1FFF7CEBAA37822
:40114000AB20DBB2082B8BBF7E4B7E4A1B781370774A8DF82B30127883F06B038DF82C30C221A9238DF828008DF829108DF82A30002A3FF4B2AADFF8D0C16E4B0AAE16F86D
:40118000015B9CF8000019780446C9B201F1FF3E421AC0EB0E0EA2F17F02BEFA8EFEB2FA82F24FEA5E1E5209814288BF7246002AE9D1814200F0108202065ABF421CD2B221
:4011C00001225D4948BF00248CF800205B4A0D551278910702D55A4A042111600DF12D02B242CCD1FFF779BAA378514ADBB283F068018DF82B301278AB238DF82C108DF899
:401200002830C221AA238DF829108DF82A30002A3FF463AADFF830C1464B0AAE16F8015B9CF8000019780446C9B201F1FF3E421AC0EB0E0EA2F17F02BEFA8EFEB2FA82F270
:401240004FEA5E1E5209814288BF7246002AE9D1814200F0B98101065ABF421CD2B20122354948BF00248CF80020344A0D551278920702D5324A042111600DF12D02B2424C
:40128000CCD1FFF72ABA294B1220197803F052FE274BAB22C2218DF828201B78B8228DF829108DF82A2000217A228DF82B108DF82C20002B3EF417AFDFF88CC01D4B0AAEA0
:4012C00016F8015B9CF8000019780446C9B201F1FF3E421AC0EB0E0EA2F17F02BEFA8EFEB2FA82F24FEA5E1E5209814288BF7246002AE9D1814200F0C88102065ABF421C9F
:40130000D2B201220C4948BF00248CF800200B4A0D551278900702D5094A042111600DF12D02B242CCD1FEF7DEBE00BF8181FF1F6881FF1FB0350020B43500206A650040F8
:4013400000E200E09881FF1FB1350020B34B1220197803F0EFFDB24BAB22C2218DF828201B78B5228DF829108DF82A20002177228DF82B108DF82C20002B3EF4B4AEDFF87C
:40138000C0C2A84B0AAE16F8015B9CF8000019780446C9B201F1FF3E421AC0EB0E0EA2F17F02BEFA8EFEB2FA82F24FEA5E1E5209814288BF7246002AE9D1814200F05D819B
:4013C00002065ABF421CD2B20122974948BF00248CF80020954A0D551278900702D5944A042111600DF12D02B242CCD1FEF77BBE6178122003F09EFD6378894ADBB2127821
:4014000083F0C204AB208DF82A30C22100238DF82C408DF828008DF829108DF82B30002A3EF461AEDFF818C27E4B0AAE16F8015B9CF8000019780446C9B201F1FF3E421A0B
:40144000C0EB0E0EA2F17F02BEFA8EFEB2FA82F24FEA5E1E5209814288BF7246002AE9D1814200F0228102065ABF421CD2B201226D4948BF00248CF800206C4A0D551278D4
:40148000900702D56A4A042111600DF12D02B242CCD1FEF728BE00213B2003F04BFD604B01931B78002B3EF41EAE624EDFF890C15C4B16F8015B9CF8000019780446C9B256
:4014C00001F1FF3E421AC0EB0E0EA2F17F02BEFA8EFEB2FA82F24FEA5E1E5209814288BF7246002AE9D1814200F0D78002065ABF421CD2B201224C4948BF00248CF80020D8
:401500004A4A0D551278900702D5494A04211160494AB242CDD1019AAB21C3208DF828101278B8218DF829008DF82A100B2070218DF82B008DF82C10002A3EF4D4AD0AAED6
:4015400016F8015B9CF8000019780446C9B201F1FF3E421AC0EB0E0EA2F17F02BEFA8EFEB2FA82F24FEA5E1E5209814288BF7246002AE9D1814200F0A08002065ABF421C45
:40158000D2B20122284948BF00248CF80020274A0D551278900702D5254A042111600DF12D02B242CCD1FEF79EBD6178122003F0C1FCFEF798BD1D4A127851073FF50EA82E
:4015C0001E4A1570FFF71CB8184A127852073FF542AE1A4A157050E6144A127851073FF5EBAD164A1570F9E5104A127851073FF50BAA124A1570FFF719BA0C4A12785107D6
:401600003FF5BBA90D4A1570FFF7C9B9074A127850073FF5BAAC094A1670C8E48181FF1F6881FF1FB0350020B43500206A65004000E200E0706000007460000049650040D5
:40164000B1350020A74A127851073FF53DAAA64A1570FFF74BBAA34A127851073FF504A9A14A1570FFF712B99E4A127851073FF51EA89D4A1570FFF72CB89A4A1278510755
:401680003FF59EAE984A1570ACE6964A127851073FF533AE944A157041E6924A127851073FF524AF904A157032E78E4A127851073FF5D9AE8C4A1570E7E68A4A12785107C0
:4016C0003FF55BAF884A157069E7864A127852073FF5BDAB844A1570FFF7CBBB814A127851073FF514AD804A157022E5B3680493FFF72BBA727BB17B03987C4B00EB4000BC
:401700008A4213F8200002EB010340F26F81521A99B2D2B2FF29019200F26E819042FFF42CAADBB2984228BF18460190FFF725BA6F49704A0E80704B012108466F4C16809F
:401740001E7003F0F7FB3146102003F0F3FBA578002D00F060813146112003F0EBFB684BAB221B78C220B5218DF8282077228DF82B608DF829008DF82A108DF82C20002B28
:401780003EF4ABAFDFF8A0C15E4B0DF1280E1EF8015B9CF8000019780446C9B24A1E461A121AA6F17F06B2FA82F2B6FA86F652097609814298BF3246002AECD1814200F0CA
:4017C000228106065ABF421CD2B201224E4948BF00248CF80020434A0D551278940702D54A4A042111600DF12D027245CFD1FEF774BF474A474D137803F0FE03137003F0DB
:4018000043FD4549454A0B78454803F07F030B7010602B78002B00F06B813F4936480A78002342F080020A703E4AE380237203701370FEF758BC1978122003F07BFB304B32
:40184000AB22C2218DF828201B78B8228DF829108DF82A2000217A228DF82B108DF82C20002B3EF43AAFDFF8C0C0264B0AAE16F8015B9CF8000019780446C9B201F1FF3E5A
:40188000421AC0EB0E0EA2F17F02BEFA8EFEB2FA82F24FEA5E1E5209884238BF7246002AE9D1884217D002065ABF421CD2B20122154948BF00248CF800200A4A0D551278DC
:4018C000940702D5114A042111600DF12D02B242CDD1FEF702BF034A12785107E3D4024A1570F2E76A650040496500402C3800208281FF1F8481FF1FA681FF1F74360020AC
:401900006881FF1FB0350020B435002000E200E0004E00407B81FF1F756500402465004080A903008181FF1FB1350020AC4803785D0712D5AB4923F00403AB4D03704B78FD
:401940002878013B20F01000DBB228704B7023B9A6490B7823F010030B7000231370FEF729BF9F4B1A78FEF70ABF99B2FF2940F2F68000230193019B934238BF13460193B8
:40198000FFF7FBB89A4A06AC164610685168157A03C456F80C0F0AAA7168367A03C2954895492570954D167003700B702A780EA802F08002D2B22A70034413F8104C2A78BA
:4019C00013F8200CA40004F00C04024322438C482A70027802F0F3020270027813F8104C42F00C0323430370FEF72CBE9AB2FF2A7FF697AE00230193019B834238BF0346BC
:401A00000193FFF7BAB87F4A127852073FF5D9AE7D4A1570E7E64023C8F8003002F054FA02F052FA02F0CEFA784A794E137803F0FE03137002F048FA764A01231770A37062
:401A40002371E5706571A57103F072FD724B1B68019303F071FD7148019B0178C4F8903141F01001017096F800E031786C4A01F0FE01C4F8943131706A493F2313706A48D3
:401A80000B704FF40072694984F8565084F85A5084F8575084F85B5084F8585084F85C5084F8595084F85D505FFA8EF403F044FF4FF400725E495F4803F03EFF59495E4B89
:401AC0000D70F822E1071A7003D5337843F0010333705A4B5A4A0121197000211170594A03231370FEF7F9BD74230020FEF743BDFF23136041F8713C03F01AFD524A13789B
:401B000043F01003137003F017FD504B1A78160704D54F490A681A781007FBD44D4A0021012311702B7078E62D490B78580712D52C4823F004032C4C0B7043782178013B8A
:401B400021F01001DBB22170437023B927490B7823F010030B7000231370FFF735B9DBB2934228BF13460193FFF707B81C4B1A78FFF7EAB80121384B11701A68D00708D5A0
:401B80001A6822F001021A6000BF00BF00BF334B1960304603F0D0FC06A8002102F0CAF80028A1D103F0C4FC2D492E4A0B7843F008030B70137843F00803137003F0BCFCBA
:401BC00002F00AF800288FD12046012102F0B2F8B0FA80F0400980F07403DBB2FEF7CBBC60380020643800200D510040005B00405C590000C580FF1FC480FF1F065800402D
:401C0000055800406A65004049650040004E004080C700407081FF1F7C81FF1FA643004088C700408CC7004000C00040306100007459000000C2004084C70040A581FF1F51
:401C40000C3800208181FF1F97650040676500404465004087650040040008405C360020A0430040B043004001211F4B29701A68D00708D51A6822F001021A6000BF00BF45
:401C800000BF1A4B1960304603F056FC184B1A78960717D5174AB6211170E0200D21107011701A78910706D41E46182003F038FC33789B07F9D50E4B1A78920702D51B7896
:401CC0009B080AD001F06AFFFEF73BBC0022FEF774BB00221146FEF770BB01F05FFF01F09DFFFEF72EBC00BF040008405C36002022470040204700402DE9804887B062B64D
:401D0000B24C2278002A00F0F58603F011FCB049B04A0B78B04E43F020030B701378022143F01003AD4D137031602B78AC4FAD49042243F010032B703A6032600B78AA4AF1
:401D400043F004030B70137843F00403137003F0F3FBA64BA64A012108461A6003F0EAF803F0E6FBA349A44A0B7843F008030B70137843F00803137003F0DEFB01F02CFFC7
:401D8000002800F0958603F0D3FB9A499A4A0B789A4D43F008030B701378C82643F0080313702E700B7B43F010030B73137B01F5587143F0100313730B789E06FCD503F01F
:401DC000BBFB8F4F63783D78804953B98D4B01201A78487002F0FC021A701A7842F003021A70894889490378894A43F0600303700B78A07843F002030B701378734943F018
:401E00000203137050B902F5A65206321378012003F0CF0343F0300388701370E3786B4953B97C4B01201A78C87002F0FC021A701A7842F003021A70734874490378744A4D
:401E400043F0600303700B78207943F008030B7013785E4E43F008031370002800F0CF856D486E490378684A43F0020303700B78284643F002030B7013787D7043F080030A
:401E8000137001F0E5FF6379504953B9644B01201A78487102F0FC021A701A7842F003021A70594859490378594A43F0600303700B785C4E43F004030B70137843F0040350
:401EC00013703378DD0740F1978523F00103564A33701378554D23F0200313702B78013BDBB22B702BB912F8583C23F0200302F8583C33784B49980712D523F002034C4A83
:401F00000B70137823F0010313706B78013BDBB26B702BB992F8F33923F0100382F8F339337840495A0712D523F00403404A0B70137823F0100313706B78013BDBB26B70BE
:401F40002BB992F8F33923F0100382F8F339DFF8F490DFF8F480FF22002389F8002088F8003001F0B1FF99F80020FF2A00F00486012A00F0838001239340022AD9B2337854
:401F800066D81942274863D0DFF8C0E023EA01035EF822E0274903709EF8003011F802C0254923EA0C03895C8EF800306B5C013BDBB26B5443B9214A214B52F82120595C0B
:401FC000137823EA01031370037841E06881FF1F9C6400409E64004000E100E09A65004080E200E0A2430040B24300405C380020354F0000A0430040B043004001470040EB
:40200000C480FF1F5A58004077580040A4430040B44300405E580040A9430040B94300405C58004060380020585B0040643800200D5100401C610000206100002461000005
:402040002C610000CC80FF1F66380020106100009A0710D443F00203C54A3370137843F0010313706B7823B9C2490A7842F010020A7001336B70012389F8003098F80030D8
:40208000002B40F05D8501F09DFFBB49A2790B78BA4803F0FE030B70002A00F07085B84AB8491378B84D43F0020313700B78E27943F002038F260B70B0482E70002A00F0F0
:4020C0007584B24EAE49B0460B78AE4A43F001030B701378AE4943F001038320DFF81493137006F1180B087000224FF0010A99F80D0099F80E100B18451A88421FFA83FE3F
:40210000EDB240F24C8399B2FF29DBB200F24B83A84280F04D83D9F85830284601929847019A88F80050C8F8042088F808A008F10C08D84509F15C09D9D1964DDFF8B8A21E
:40214000A9460DF108080223C8EB0A0A23720DF1070B03F0EDF92B7843F001032B702B789A07FCD51AF80B3099F80020DBB202F0FE02019389F8002003F0DEF9019B0BF853
:40218000013F0DF117039B45E3D19DF80830CA2B00F02F8394F80980DFF8E0A1B8F1000F00F0B9837C4B7D481A787D4D42F010021A7002787B4942F0100202702A787A4E6A
:4021C00042F001022A701A783F2042F010021A7095F800802B784FF4007203F0FE032B70087072493070724803F0A6FB4FF400727049714803F0A0FB5FFA88F86F4B0021D3
:40220000F82218F0010F31701A7003D02B7843F001032B7041F6FF75694E6A4B320CAA4214BF15464FF400554FF480410022832018705A7010469A70DA709980DD80BA708D
:4022400001F09CFC02F04EF9030602460ED444F61060D30003F1804303F5F043B1B2072503261E809A70DD709880D980B878172803D8554B01010B445A7201F06DFC534BED
:402280000022022183204FF4804518705A7008469A70DA709D80DD80F97001F06FFC02F021F9060602460ED444F610654CF2A070D30003F1804303F5F043032119809A7040
:4022C000D9709D80D880F878172803D83E4B01010B445A7201F040FC41F6FF713C4E3D4B320C8A4208BF4FF4005283211970012500204FF480415D709870D8709980284689
:40230000DA803D7101F03AFC02F0ECF8050602460ED44CF2A870D30003F1804303F5F043B1B2072503261E809A70DD709880D9803879172803D8244B01010B445A7201F0F2
:402340000BFC254B00251D7002F09EFF2946022002F0F0FD2149224E0B682248102232601865214B2148E0251D70214F026045E00D510040005B0040004E00406881FF1F11
:40238000A8430040B8430040815B00402C380020805B004002470040A6430040B643004080C7004088C700408CC700403061000000C000403063000000C2004084C70040B7
:4023C0007481FF1F0076004010700040107600407881FF1F087600407564004008ED00E080E100E0E54D000004E400E000E100E0B14C0000785B0000018000400A68202389
:4024000033605765B94ABA4F157003600B6880223260DF65B74BD1F800E0DFF80CC3B64F1D70B649402302603360CEF858C03D7003600B78B24A43F008030B70137801F58D
:40244000075143F00803137013310B7802F50552E07CAC4D323203F07F030B701560002800F0AB81A84AA94D1378AA4643F08003137003F05DF8D4F8148003F05DF82B789D
:40248000002103F0FD0343F002032B70202002F051FDC146DFF894B29D4E237E9D4D002B5CD100F0ABFB03F043F86F6903F044F8C8EB0703002BC0F20E812B78002B36D0FB
:4024C000954D4FF0040805EB080C15F801EB9BF8001032780846D2B202F1FF398B1AC1EB0909A3F17F03B9FA89F9B3FA83F34FEA59195B09914238BF4B46002BE9D1914275
:4025000000F016810B065ABF4B1CDBB20123834A8BF8003048BF0020814B02F800E01B78990744BF7F4BC3F800806545CDD19AF8003007F1460803F0FD0343F002038AF84D
:4025400000309AF80030B94603F0FD0343F002038AF80030237E6F4D002BA2D0A9466B4D4FF005082B7803F0FD032B7002F0E0FF676902F0E1FF07F1080A01E000F03EFBE8
:4025800002F0D6FF676902F0D7FFCAEB0707002FF4DB2B7803F0FD0343F002032B7002F0C7FFD9F8147002F0C7FF07F1080A01E000F024FB02F0BCFF676902F0BDFFCAEBF3
:4025C0000707002FF4DB08F1FF3818F0FF08C9D1DFF838A1524F00F011FB637E4D4D022BF9D06A8BAB8B92B29BB29A42F3D302F09FFFD5F8148002F09FFF6B7E0BB96B8BB6
:40260000AB8B627E434B002A40F09D80598B9A8B89B292B29142C0F096801A6A12B908F164021A62C2EB0802002A39DB237808F164022262002B33D0DFF8DCE00EF10409F4
:402640001EF8015B9BF8001032780846D2B202F1FF3C8B1AC1EB0C0CA3F17F03BCFA8CFCB3FA83F34FEA5C1C5B098A4288BF6346002BE9D18A4200F089800B0658BF0131E6
:40268000264B52BFC9B2012100208BF800101D543B78990702D5234B04221A60CE45CFD1627E1C4B022A54D05A6A002A51D0B8EB020290D0996AC3F824808A424CD39AF860
:4026C0000020002102F0FD0242F002028AF800209962D9627FE7C9EB07073B2F31D99AF8003003F0FD038AF80030D6E605E400E0C551000007E400E006E400E0A243004042
:40270000B243004080A903007565004020510040B03500206881FF1F70600000B43500206A65004000E200E015500000B1350020C14B1B785A073FF5E5AEC04B83F800E01F
:40274000F3E64F46FDE6627E0023022A2362BC4BAAD1C3F824803EE7D86A891A0244042A99621AD95A7E0021022AD9623FF433AFB44B1A789AF8003002F0020282F00202D3
:4027800003F0FD0313438AF8003024E73B785A073FF573AFA94B1D7080E7DA621BE7BEF1FF0F04D90025854238BF0546B3E4DBB2984228BF18460546ADE4FF23136041F8CE
:4027C000713C02F0B5FEA04A137843F01003137002F0B2FE9D4B1A78100704D59C4A116819780907FBD49B4A002101231170E37438E6102001F00EFB8146112001F00AFB36
:4028000045464FF6FF7249EA002080B215F8013B510881F4044E5A4012F0010F8EF0080E18BF71464A0882F4044E81EA530111F0010F8EF0080E14BF714611464A0882F474
:40284000044E81EA930111F0010F8EF0080E0CBF114671464FEA510E81EAD30111F0010F8EF4044282F0080208BF7246510881F4044E82EA131212F0010F8EF0080E18BFB0
:4028800071464A0882F4044E81EA531111F0010F8EF0080E14BF714611464A0882F4044E81EA931111F0010F8EF0080E0CBF114671464A0881EAD31382F4044113F0010FDA
:4028C00081F0080106AB18BF0A469D429ED1D243C2F3072343EA022293B298427FF45AAC9DF809809DF80A50404602F069FD227A86F80080012A524B01D802221A72284617
:4029000002F058FD94F809803573DFF834A1B8F1000F7FF447AC5049504A0B78504D43F010030B701378DFF87C9103F0FE033F2013704C4928704FF4807289F800004A48FB
:4029400002F0FAFF4FF480724649484802F0F4FF4FF480724649474802F0EEFF464E4FF400724649464802F0E7FF883D4FF400724449454802F0E0FF0FCE0FC50FCE0FC5FC
:402980000FCE0FC596E80F00DFF81CE185E80F003E4E3F4A0123F82189F800808EF800808AF8093033701170FFF7FCBB394B01F5A35109311A700A701A78A1F5905102F0FD
:4029C000F3021A701A78193942F004021A701A780125C2F3810202F19242063292F82021C571D2B20A701A7802F0FD021A701A78D2B21A70FFF765BB274DFFF77ABA274BF1
:402A0000DFF8A8800C221A7098F80030244A43F0200388F800301070042001F019FA98F80030012203F0FC0343F0030388F800303271FFF715BA00BF6A6500404965004021
:402A40006881FF1F2151004097650040676500404465004087650040A643004080C7004088C70040305C000000C4004000C50040305D000000C600403060000030610000B8
:402A800000C00040305E000000C200409CC7004084C70040205800406438002004580040065800408CC7004098C7004005580040444B1A7890073FD5434A0D21B625E02079
:402AC0001570107011701A78910706D41D46182002F026FD2B789F07F9D53A4B1A7892072AD51B789B0827D101F058F801F096F8FFF749B9354B364F1E68364D3648E02163
:402B00007764297002703548354A72261D68354F067020201070A3F60613334E3348AF64197006274725022101233770057082F8FC102370FFF7E9B801F030F8FFF723B9FB
:402B400033782B49580712D523F00403294A0B70137823F0100313706B78013BDBB26B702BB992F8F33923F0100382F8F339002388F80030FFF787BA3378FFF769BA1E4B90
:402B800001251A7081F8252A1A78A1F2F77102F0F3021A701A7842F004021A701A788571C2F3810202F19242063292F83021D2B20A701A7802F0FD021A701A78D2B21A7006
:402BC000FFF76DBA224700402047004008ED00E0E13A000001E400E0343600208C6400408E640040893A00002964004039640040603800200D510040245800402DE9F04FF3
:402C0000844CABB02378032B00F028812378022B00F0C880DFF80092DFF818827E49B8F80020B9F8003092B29BB29A4280F09A80B8F800309BB2002B00F0DF80774DB8F8A3
:402C40000030AF899BB25A24AB2204FB0354390A1E238DF848208DF849308DF84A708DF84B100DF14F020023581C991CE61820442144367C0333007C097C5A2B02F8020C98
:402C800002F8036C02F8011C02F10302ECD1002212AB29A853F8041B834282EA0102F9D19DF8A4109DF8A5305D484B405340C2F307215940C2F307434B400178013783EA33
:402CC0001262AF818DF8A620002936D0554F564DDFF880B1DFF880C10DF147060DF1A60A16F8014F39782A780846D2B202F1FF3E8B1AC1EB0E0EA3F17F03BEFA8EFEB3FA2F
:402D000083F34FEA5E1E5B098A4288BF7346002BE9D18A423FD00B0659BF0131C9B2012100200BF8004039709CF80030980702D53E4B04221A605645D2D1B8F800303C496E
:402D400001339BB2A8F80030B8F80020B9F8003092B29BB232209A420860364910D22BB0BDE8F08F344B93F8602A22B1002283F8602A83F8612A2BB0BDE8F04FFDF7A8B922
:402D80000B889BB2FF2B42D8D9B238202BB0BDE8F04F02F0CFB89CF800305A07BBD4274B1C70C8E71D4DAB7A002BD8D02449254A0B78254803F0FE030B701378234903F0EC
:402DC0007F03234E137001603378002B00F0FF811C4ADFF844901378362043F080031370B9F800309BB2FF2B94BFD9B2FF2102F0A1F80023AB7223700EE70B8837209BB2AB
:402E0000FF2B94BFD9B2FF2102F094F816E7FF21BBE700BF8181FF1F8481FF1F9C81FF1F6881FF1FB1350020B035002000E200E09081FF1F8281FF1F4C2B00204965004047
:402E4000004E0040756500402465004080A903007B81FF1FB43500206A650040B14B9B78002B88D002F064FBAF4B1D6802F064FB49F63F42AB4BD3F89031EB1A9342A94BC0
:402E800000F26681D3F89431EB1A312B08D9A74BA44A1B68C2F8945113B151791A209847A34E3378002B00F0B481012B7FF463AF9C4BA04D5B79039302F03AFB2B7803F026
:402EC000FF08002B00F08C834FF00009D5F8048085F8009002F030FB974BC6F81C901B78012B00F02484039BDFF860B25C2202FB03B288EAE8709368A0EBE8708F4A1B1ACE
:402F000083FB0201002871F10003C6F80880C0F2818510F1FF5041F100014FF07F52002302F042FB07907F4B93F80580B8F1000F00F06285824B4FEA48091A46059309EB5D
:402F4000080302EBC3031B6A41F28730002B0693B8BF5B421A4600210623C3FB020141F28832002302F020FB002800F0B18403460128B8BF01230C93B8F1000F00F0968409
:402F80004FEA4809059A09EB080302EBC303D3F820E0BEF1000F40F3C783079F03993B465C2202FB01B2002FB8BF7B421093517B937B109A8242D8BF0027B27E9942099788
:402FC000089240F2AD83C3EB010A5FFA8AFACDF810A00B449AB2FF2A94BFDBB2FF231193069B23B1099B002B40F0AA837360039A089B52000D92049A9342C0F21A83119A4E
:403000009342049200F31183049304995FFA83FA0123089A01328A4280F201835FFA82FA73B1069B63B1099951B17268454B0A449A42B8BF1A46444B9342A8BF1346736025
:40304000B38A01339BB2012BB38201D01B0725D1DFF8D890D9F8003003B3089913209847D6F80880D9F800304FEA1861B3B11D209847D9F80030C8F307417BB11D209847CA
:40308000D9F80030C8F3072143B11D209847D9F800305FFA88F10BB11D209847039F5C2303FB07BB5046DBF8583086F81AA098470D9B059A3B4402EBC3039A8C1098531ED0
:4030C0000C997F2B88BF8022884240F3A682401A013890FBF1F0079B0130002BC0F27484337E13491BB10B69834200F070840123F382079F01219A423176F760306186F88C
:4031000019A00B4905D944F61F638A8A9A427FF632AEB0FA80F0400901F0FCFB002840F0C78128E6743600207C81FF1F5C3800200C3800209C81FF1FC980FF1F787413000C
:403140008C600000A099F9FF60660600785B00001B78073B042B754B40F20F815E79012E88BF314600F20A81DFF804B2DFF804A24FF05C094FF0000818E099B2FF2922D872
:40318000AA4240D209FB06B328469B6D984706EB46020136F6B20AEB8203022E0AF82250C3F8048083F8088000F0E68009FB06B35A7B997B8B18551A8A4298B2EDB2DCD810
:4031C000FF2820D90025954238BF1546DAE7FF23036042F8713C02F0ABF9554A137843F01003137002F0A8F9524A13781F0704D551490B6813781807FBD4504A002101238D
:4032000011703370E4E5DBB29A4228BF1A461546B8E7464BDFF854815C79DFF854B1D8F800305C2707FB04B7EBB1214615209847BD68D8F80030290EABB12A209847D8F801
:403240000030C5F3074173B12A209847D8F80030C5F307213BB12A209847D8F80030E9B20BB12A2098475C2303FB04B3B87B597B002381427360B382F3823376F36033612E
:403280007376B360F36101EB000240F2BA8193B2081AFF2BC0B200F2B981814280F03A825C2303FB04B4B076A56DA84700F00CFE2079012102F08AF800F084FEB07EA84731
:4032C0001F4B204A0121197013781F4C43F010031370257823781D491D4F03F0FE033F2023704FF4007208701A4938701A4802F023FB1A4BF822EDB2002139701A70EA0793
:4033000003D5237843F00103237002F011F9144B00221A7002F010F9124B2021124A1960137801210B431370317024E574360020976500406765004044650040876500408C
:4033400075640040A643004080C7004088C700408CC700403061000000C0004084C700409C81FF1F80E200E0004E00405C380020785B00002C380020AF4B5979AF4BAE4874
:403380001B68002202710BB11B209847AC4D00F09BFD00F099FD2978FF2900F03B81012940D00123A74A8B400229D8B2137822D8184220D0A44E23EA000356F82160A34849
:4033C0001370337810F801E0A14823EA0E03415CA0483370435C013BDBB24354002B40F01A819D489D4B50F82100595C037823EA010303701378990712D443F0020398487F
:403400001370944902784B7842F0010202702BB990F8F32942F0100280F8F32901334B7001232B708F490B78002B40F0598100F0C9FD8D498D4A0B788D4D03F0FE030B707B
:40344000137801F5F34143F0100313702E782B78DFF87C8203F0FE033F2008312B704FF400720870834988F80000834802F064FA4FF400728149824802F05EFAF6B2002199
:40348000804B88F80010F822F1071A7003D52B7843F001032B707C4D7C4E402333602B60654B002001210C22794D9870D9701A707849002323700B78774A784803F07F0303
:4034C000774E0B7010605C4933780C79002B6BD0704A744E1378214643F0800313702B7A1120003318BF0123337001F023FD6B7A674D002B3FF43FAC6B4B84F077071B7865
:403500000026AB20C221B5228DF84B408DF84C706E728DF848008DF849108DF84A20002B3FF429AC614F624DDFF8A891DFF8A8C1DFF8A8B112AE0DF14D084FF0040A16F895
:40354000014B39782A780846D2B202F1FF3E8B1AC1EB0E0EA3F17F03BEFA8EFEB3FA83F34FEA5E1E5B098A4288BF7346002BE9D18A4212D00A0659BF4B1CDBB201230020E8
:4035800009F800403B709CF800309B0748BFCBF800A04645D3D1FFF7EEBB9CF800305B07E8D4444B1C70F4E74349FF2313600B6001F0BEFF414A137843F01003137001F09F
:4035C000BBFF3F4A13781F0704D53E490B6813781807FBD43C4A002101231170337077E701F0AAFFF369394A01339342F3617FF6C2AB404601F08EF900287FF459AFFFF7EF
:40360000BABB90B2FF2840F285801846884238BF084645E60B4A1378EDE6002060E5089A013A8A427FF7FCACF8E4924600231146EFE400231146ECE4743600205C38002035
:40364000CC80FF1F60380020106100001C6100002061000064380020246100002C6100000D51004066380020004E0040A643004080C700403061000000C00040306300002D
:4036800000C2004084C7004000E100E080E200E09C81FF1F756500402465004080A903007B81FF1F756400406881FF1FB1350020B035002049650040046500409765004018
:4036C0006765004044650040876500407F841E008CC70040B43500206A65004000E200E0C04A1378580712D5BF4823F00403BF4D137043782A78013B22F01002DBB22A70AC
:40370000437023B9BA4A137823F01003137000230B708CE6D2B2914228BF11460846BFE500220492924654E44FF47A7E35E4B8F1000FB8BF08F11F084FEA6818FFF7D3BB83
:40374000039A099953000D931344059A02EBC3031869D3F814C081FB0089BCF1000F00F014814FEA89074FEA880047EA98714B01420143EAD063101A63EB010110EB0800D8
:4037800041EB0901CB0043EA5073C20010461946CDE90E0170468EFB0C23C117CDE90A0152EA030100F0EC80002A73F10001C0F2D48059104FEA3200DDE90A78CDE900785A
:4037C0004FF0000EDDE90E89BEEBD97F474600F0BB803F1A69EB01083846414601F0E4FE0E90039A0D9B71681344059A02EBC303D3F81CC09869BCF1000F00F08A8081FB99
:4038000000894FEA890E4FEA88004EEA98714B014201121A43EAD06363EB0103604612EB080243EB0903DDE90A8947464FEAC30ED1004EEA527E0A46C11707FB01F7A8FB4B
:403840000C010CFB097CCDE900010199174661440191DDE900231343F04653D0DDE900010B46002873F100033FDB02460B465B104FEA3202104619460023B3EBD87FDDE96D
:4038800000232AD03F1A68EB01083846414601F08BFE039A5C2303FB02B30E9993F90C205B7B084400FB0233FFF7A5BB514A1378013BDBB2072B3FF637AF059A32F813E0E9
:4038C000BEF57A7F7FF630AFAEF57A7EFFF765BB01230C931846FFF755BB3F1848EB01083846414601F060FED3E7CB0FC01841F1000149104FEA300040424FF0010361EB97
:403900004101BAE701220023DDE90001CDE90023B2E780FB0101804689464FEA810E80004EEA98714B01420143EAD063101A63EB010118EB000249EB0103DB0043EA527317
:40394000D2001746984689E73F1849EB01083846414601F029FE0E9043E74FEAD37E12EB0E0043F1000149104FEA3000DDE90A784042CDE9007861EB41014FF0010E21E7E9
:40398000104619460122002316E74FEA890C4FEA88004CEA98714B01420143EAD063101A63EB010110EB080041EB09014FEAC10C4CEA507CC300724618466146D317CDE977
:4039C0000A23CDE90E01EFE64042FFF789BB4FF6FF7ECB8A734529D001339BB2CB82FFF788BB00BF60380020643800200D510040005B0040C580FF1F204A1378013BDBB2E8
:403A0000072B1CD901230C9318461D4BCDF8188005934CE7B0F1FF5041F1FF314FF07F52002301F0C1FD0790FFF77DBA079A0123CA60086181F819A00B76FFF76ABB104A36
:403A4000059232F81320B2F57A7F10D9A2F57A731A4641F28730069300210623C3FB020141F28832002301F09FFDFFF780BA01220C92CDF8188010461FE700BFC580FF1FEE
:403A80008C600000704700BF124B1A78597891421FD070B41048027802F0040202F0FF05B2B91E460D4C02E00278520710D41A78110648BF35701A7859781A441279D2B258
:403AC00022701A780132D2B21A701A789142EBD170BC7047B03500206A650040496500401A4AF0B517461A481A4C012500260378DBB213F01E0E05D092F884104EEA01017D
:403B000082F884109B0600D4F0BD217892F88530C9B2134483F8881092F8A8300BB187F8A95092F885300133DBB282F8853092F885301F2B88BF82F8856092F8851092F8FB
:403B4000AA309942D3D182F8A850D0E7B03500206E6400404D64004017280BD8064A0301995C002041F020019954995C41F00101995470470120704710700040172809D86D
:403B8000054903015A5C002002F0F10242F004025A547047012070471070004010B501F0C7FC0B4B0022D3F8AC1083F8AB20012909D1084C216841F00101216000BF00BFF2
:403BC00000BFC3F8AC20BDE8104001F0B5BC00BFB03500200400084038B501F0A9FC0D4A92F8AB3023B1042401F0A6FC204638BD094901250C6882F8AB502C40F4D00C68EA
:403C000024F001040C6000BF00BF00BFC2F8AC501C46E9E7B03500200400084038B501F087FC3E493E4A0B783E4D43F008030B70137843F00803137001F07EFC01F078FC36
:403C400095F8AB3023B1042401F076FC204638BD354B024618680121C40785F8AB1008D5186820F00100186000BF00BF00BFC5F8AC102E4C104601F05FFC23789B0733D5B8
:403C80002B4BB6200E22E121187019701A702278900729D401221A702378D90705D4182001F03EFC2378DB07F9D5214B1F4C1A78237885F8B020DA0705D4182001F030FCAE
:403CC0002378D907F9D51A4A184B11781A7885F8B110900706D41C46182001F021FC23789A07F9D5002401E04FF0FF3401F020FCD5F8AC200023012A85F8AB30094909D149
:403D0000094D2A6842F001022A6000BF00BF00BFC1F8AC3001F010FC204638BDA0430040B0430040B035002004000840224700402047004070B5334C23789B071FD5324B69
:403D4000B6260222D5251E701D701A702278960715D440221A70421E0F3012F8015F82421D70FAD12078274A8507FBD51078800705D51078800802D11078800716D44FF00A
:403D8000FF3401F0D5FB214B0021D3F8AC2083F8AB10012A31D11E4D2A6842F001022A6000BF00BF00BFC3F8AC1026E0B626D82505201E701D7018701278144B02F0020292
:403DC00093F8B05093F8B10002F0FF060E4B002AD5D140221A701E7019701D7018702278084B9607FBD51A789507C8D51B789B0814BF4FF0FF340024C3E701F09DFB204667
:403E000070BD00BF2247004020470040B03500200400084010B5044601F08AFB0B4B19461A7842F001021A700B78084A9B07FBD504F1804303F500431C781378E4B203F088
:403E4000FE03137001F078FB204610BD0247004070B41A4D87B02C466B4606466968286803AA03C254F80C0F2D7A6168082E03C3217A157019701ED8114C06AB1E4423781D
:403E8000104803F08003DBB2237016F8181C237816F80C2C8900134301F00C010B432370037803F0F3030370037816F8182C43F00C031343037007B070BC7047CC600000BE
:403EC0000658004005580040F8B501F031FB3349334A0B78334D03F0FE030B701378324C43F0040313702B78064643F002032B702378482043F00203237091F8913A2B4F2E
:403F000003F0FC0381F8913A92F8913AA5F2473503F0F70382F8913A01F002FB95F84733234A03F0FD0385F847332178214B01F0FD0121701178204801F0EF011170117804
:403F400004F58C5401F0FE0111701A78093402F0FE021A701A78194902F0EF021A703B78174A03F0F9033B70037803F0FE0303702B78304603F0FE032B70237803F0F7038B
:403F800023700B7803F0FE030B70137803F0FE031370BDE8F84001F0CFBA00BF004E0040014E0040F8460040F946004077580040AA430040BA430040A1430040A243004088
:403FC000B24300402DE9F04F354C85B094F8B230002B62D194F8B33003F0FF06002B77D0304D012384F8B23001F0A2FA2E4A2B7811782E4B41F0010111701178064641F079
:40400000100111701A782A4D42F001021A701A78284C42F010021A702B78274943F002032B702378482043F0020323700B7843F003030B7001F074FA2B78204903F0FD0309
:404040002B7023781E4803F0FD0323700B787A2443F006030B70047030461A4AA1F5A6511378063943F0010313700B78164D43F001030B705378013143F0010353700B78D5
:40408000124C4FF0005243F001030B702A60226005B0BDE8F04F01F04FBA024DA4E700BFB0350020C980FF1FAA430040BA430040F8460040F946004091580040775800401C
:4040C00082580040A143004080E200E000E100E048F6F052B34D0123DFF830832B7084F8B46098F80030B04943F0100388F800300B78DFF81CE343F010030B70AB4FAC486F
:40410000AC4BE0218EF800104FF0040AAA4987F800A006701E700B78DFF8F8E243F018030B70A64B8EF80060133F87F8056381F882600A2100F8171C1E703E705B2700F81A
:404140000F7C9F4F5E201872A3F5286314203E7018702B784FF00F0C84F8BAC004EB830393F8B600974BA4F8B82018702B78964A04EB8303B3F8B43013802F7884F8BC6051
:40418000FFB2012F7FF42DAF9048914BDFF888924FF0F80B80F800B0AEF68E2E83F800A0032302F8093CDFF874A289F800C0DFF870B28EF800604FF03F0E80F806E0DFF812
:4041C00064C2DFF864E28BF800608AF8006002F8026C89F810304FF0500903938CF800908EF800102C2180F8861ADFF840928BF87F6A4FF0440B8AF881BA482275494FF08A
:40420000020B89F8002002924FF012098CF808708EF809B04FF0280C4FF0EB0E80F88F9A81F800C08AF888EA01F082F96FF4E262019092449AF80000DFF8F49140F0030093
:404240008AF8000099F800E0029A63494FF0520C4EF0030E89F800E0104681F800C001F05FF99AF80020019802F0FC028AF8002099F800200AF58D5A02F0FC0289F80020D9
:4042800001F05AF94CF6CD4254484FF0C00E80F800E0039B524909F58D590AF1020ADFF894C1DFF894E10B7009F102098AF800B04C4990F86F3289F800B08CF800608EF8C1
:4042C0000060C4F8C02098F800200E8823F04003B6B243F04003012E02F0070280F86F320BD0414B1B78DBB22ABB26BB0F8098F8003003F0BF0388F800302B483B4E02788E
:40430000338802F007029BB2072B0ED038490978C9B2002A40F09280002B40F08F8007233380037803F0BF030370324B324A1B68C3F8B42055E613F0010223D02F48304F62
:40434000304900234FF0010E0B7080F800E03B7010F8083C6E3703F07F0300F8083C3B781B070FD40846072327F8806C0B700378244913F00103FAD11B4E307800F0FE00C4
:4043800030700B7018490B78DF0740F18F801D4B1D481A4601260321068019701378DE07FCD4AAE7C980FF1F0241004096580040975800409E580040075B00408158004048
:4043C0008D5800400E4E00400C4E0040004E0040024E00409058004092580040945800409558004080400040A243004000410040A143004008ED00E0853A000010400040AB
:40440000144000400140004002400040824000401DE400E093580040044E0040094E0040084E004084580040855800408B580040F94600409C5800409D58004011F00101D1
:4044400024D02148214F224E00224FF0010E327080F800E03A7010F80C2CF23702F07F0200F80C2C3A78100710D43046A7F5807707223B8032700378154A13F00103FAD1F7
:40448000144E307800F0FE0030701370114B1A78D20712D5A3F568731A460F4807260321068019701378DB07FCD43EE70B4B012018800B7813430B701FE7094A07201080D4
:4044C0001A781143197030E7144000401040004001400040A143004002400040804000400041004010B501F023F80A4B5A78182A04D8FF2401F020F8204610BD9C78013AA6
:40450000E10001F180415A7001F5F0410A789A70F0E700BFC980FF1F08B501F011F803680C2B00D0FEE7FEE72DE9F843C04AC14BC1491A600B68C14A43F40073C0480B60F4
:404540000023032B94BF50F82310BE490133302B42F8041FF5D1BC4BBC4ABD4909781A6072B6BC4EBC4A35461378002443F00403137004EB4403AA8856F813000134002117
:4045800001F00AF8072C05F10605F2D1B34EB44F002556F8043F13F0FF0E23F0FF0413D005F110530EF1FF3E03F151005FFA8EFE7044503340005B001A785978023398424B
:4045C0001155F9D101357544BE42E2D1A54BA6490A221A700B78A54A43F002030B701378A1F5863143F00203137063390B78A2F5863243F040030B70513A9D4C9D48137859
:404600000768D4F800E09C499C4D9D4E43F010030C681370C5F800E0376043F6972741F251269848984902F5495204600025974C0E32974B0D601560A2F5115203CB0E3AC1
:404640002060616003CB0E341060516093E8070003C4904B9049228007C903C3A4F6F6541A8022788D4B42F00802DFF898E203CB227061228EF80020894AA4F2A2242580B9
:4046800010605160874D5022A270874887490E222A80AEF27A7E182519228EF800500A80A57207808A71196826270322804B84F8807280F874211B787E4FDBB23B707E4B65
:4046C0000827A4F8A2717D4AA0F894611C784FF4F070116004F001041E4600F021FF01E0032C0DD033784FF4F07003F0010343EA440400F015FF013D04F00304F0D1FEE7E9
:404700006F4B40F209126F486F4C704EDFF8F8E14FF4807707251F8000211D704FF0480C0227042501708EF800C019703770257090F89C33664943F00F0380F89C330B7869
:4047400005F1804543F001030B7094F89533012105F5002543F080034FF0810E5D4884F8953386F8FFE7297003785B4FDFF89C91DBB25A483D7803F0070E99F8006080F84F
:4047800000E0DFF88CE1EDB21B098EF80030F6B245F0030E87F800E06FF4E66C46F0030E89F800E04E4B60444FF0340E80F800E04FF080084FF0050E83F800E080F8C48765
:4047C000102083F89601402083F89A01202083F89E01082083F8080283F80E12414842490280F020C3F8CA1200F09AFE04F295344FF07F0E94E80F00744689F800603D703C
:404800003A4E3B4D4427377007C53A483A493B4A2B8080F8008081F800E0013CE4B202F80849002CF9D1364B1C70BDE8F88300BF0004FA050CED00E014ED00E0FC7FFF1FAE
:40484000000000001945000008ED00E00080FF1FBC760040E4600000E8460040FCFFFF479C000048835800400350014013500140580900485C090048600900480876004006
:40488000187600402076004000760040025100402409004820510040400900484C09004832510040844000408C4000408840004008010049A146004025420040004100403B
:4048C00004400040064000400B40004001400040A1430040CF010049F84600406E5800407A580040425B00400802050376580040B0430040CA80FF1FCB80FF1FF87B00401B
:40490000007800400048004008400040F94600406F5800402DE9F843A24C6579A6794FEA4508D4F8A02108EB050394F8B21104EB8303FF2E83F8C001C3F8BC2183F8B811D6
:4049400069D0002865D00126D4F8E831954F1BB113209847D7F8E83108EB050204EB8202D2F8BC71B7F5004F4FDA17F5004F80F215818D4F8021002B36D014209847D4F873
:40498000E831F9B2DFF81C92002B00F001811420984708EB0503D9F8E82109EB8303D3F8BC710AB3390E1D209047D9F8E831C7F30741CBB11D209847D9F8E831A3B1C7F323
:4049C00007211D209847D4F8E831F9B2754F5BB11D209847D7F8E83133B1454407EB850797F8C0111620984763796E4D0133DBB2012B637111D9AEB9AB796E710133AB71B3
:404A000085F898613046BDE8F8837F2147F6FF77B1E7207197E7002696E7002085F89801BDE8F883FFF750FAFFF74EFA5F490B78FF2B30D0012B44D0022B2CD8012098403A
:404A400095F8EC21C0B2104227D0594E22EA000206EB8300C76A85F8EC213344387893F838E093F83C2020EA0E033B70A81890F8F031013BDBB280F8F03163B906EB820329
:404A8000186C324492F84820037823EA0203037095F8EC2101E095F8EC2193070FD4454D94F8F131287842F0020240F0010084F8EC212870002B65D0013384F8F1310123BA
:404AC0000B7094F8F221374B002A3ED1FFF77AFA39493A4A0B783A4D03F0FE030B70137801F5F34143F0100313702E782B78354F03F0FE033F2008312B704FF40072087059
:404B000031493870314800F017FF4FF400723049304800F011FF304BF822F6B2002139701A70F20703D52B7843F001032B702B482B4E40220123002502600C213260A5708A
:404B4000E37018462170BDE8F88393F8EC11480714D5184D93F8F1212878013A21F0040120F01000D2B283F8EC11287083F8F12122B91C4A137823F010031370002384F8CB
:404B8000F231A3E71748027842F01002027093E70C2303FB0599D9F8BC7114E7C7F30721E9E600BF743600200080FFFFCC80FF1FE46000000D510040004E0040A6430040C0
:404BC00080C700408CC700403061000000C000403063000000C2004084C7004080E200E000E100E0005B004010B4284B284A1978284801F0FE0119701C78274944F00104EC
:404C00001C7003E00B78DBB2012B07D01378002BF8D1037803F00103012BF7D11F4B1B7803F00303012B1DD9022B23D01C4B1D491B8809889BB243EA0143127812B1164A69
:404C4000002111701149184C0A78184602F0FE020A702278012A03D1002BB8BF1F33581110BC70470F490E4B09881B889BB243EA0143E2E70B4B0A480C491B88007809780A
:404C8000090241EA03430343D7E700BF004E00406C360020014E004064360020144E0040104E0040124E0040C980FF1F114E00402DE9F04F404A414C11785378927801204B
:404CC000120442EA03230B431A023D4A48BF43F07F433C49236010700A8892B242B93A4A12781AB1394A1278022A07D0BDE8F08F0B88013B9BB20B80BDE8F08F344E327802
:404D000002F0FF0E002AF1D1324A334C158821886A1E92B2B2F5007F34BF2F464FF4007789B2B942E2D22D4F398889B21D29DDD83988B4F80080DFF8A8C04FF05A091FFAEF
:404D400088F809FB08C801EB410189B25FFA83FA08F801A0B4F8008001F1010A1FFA88F809FB08C8C3F3072B08F80AB0B4F80080C3F307431FFA88F809FB08CC02310CF8F3
:404D800001303B8801339BB23B803B889BB21D2BACD9A7F800E02388B2F5007F03F101039BB22380238828BF4FF400759BB2AB4228BF30709AE700BF7881FF1FA081FF1F0D
:404DC0009C81FF1F6681FF1FA481FF1F8181FF1FA681FF1F5881FF1F8481FF1F5A81FF1FAC81FF1F47490A7848788B781B0443EA002313431A02444A48BF43F07F431278A3
:404E0000012A03D1002BB8BF1F335B113F4A0121136010683E4B506011721B781BB93D4B1B78022B00D070472DE9F0433A4C2378002B5BD1394B3A4D18882988431E9BB2C0
:404E4000B3F5007F34BF06464FF4007689B2B1424CD2344E318889B21D2947D8324F31883F7801EB410189B2002F41D11268B5F800E02E4F4FF05A0C1FFA8EFE0CFB0E7EF0
:404E80005FFA82F80EF80180B5F800E001F101081FFA8EFE0CFB0E7EC2F307290EF80890B5F800E002311FFA8EFE0CFB0E77C2F307427A5432881A49013292B23280328898
:404EC000184E92B21D2A11D9B3F5007F4FF0000333800B8828BF4FF4007001339BB20B802B889BB2834224BF01232370BDE8F0830F4F3A6802F1010EC7F800E022F07F4297
:404F0000B5E700BF7481FF1FC980FF1F68380020A481FF1F8181FF1FA681FF1F5881FF1F8481FF1F5A81FF1F6481FF1FAC81FF1F6081FF1F2DE9F04F2E4A2F4B12781C786F
:404F4000D2B282F0C4034B4083B04340AB26C4258DF802008DF803108DF804208DF805308DF800608DF80150002C38D06E46DFF894E0224DDFF89090DFF890C0DFF890B065
:404F80000DF106084FF0040A16F8014B9EF800102A780846D2B2571E8B1A7F1AA3F17F03B7FA87F7B3FA83F37F095B098A4288BF3B46002BECD18A4214D00A0659BF013197
:404FC000C9B20121002009F800408EF800109CF800309B0748BFCBF800A04645D4D103B0BDE8F08F9CF800305F07E6D4044B1C70F3E700BF8181FF1F6881FF1FB0350020C2
:4050000049650040B1350020B43500206A65004000E200E02DE9F041534B544C1B78580708D533202178FFF785FF2378012B48D0BDE8F08134202178FFF77CFF4C494D4A69
:405040000B784D4803F0FE030B7013784B4903F07F034B4D137001602B78B3B1454A494F1378494E43F08003137000F061FA474D4749484A00233B8033702B800B801370D5
:405080002370BDE8F04100F057BAFF23036042F8713C00F04DFA404A137843F01003137000F04AFA3D4A1378190704D53C490B6813781B07FBD43B4A0021012311702B706C
:4050C000CCE7394B1B7813B1384B3F221A802849DFF8EC80364F98F800600B78254A03F0FE033D880B7013782C4803F07F031370304B691E02788022B1F5007F1A60F6B2F9
:4051000028BF4FF4007500F013FA00361D494FF0000318BF01261C4A88F800600B801B4E1B4913701B4A33800B80234E23491370022233600B80227000F0FEF93B88B3F5AD
:40514000007F03D9FF213E20FFF7F4FEFF2D94BFE9B2FF213520FFF7EDFE054A137843F001031370BDE8F081C15100408181FF1F004E0040756500402465004080A9030045
:405180007B81FF1F5A81FF1F5C81FF1F8281FF1F8481FF1FA681FF1F97650040676500404465004087650040A481FF1F6681FF1F5881FF1F80E200E06081FF1FA881FF1F34
:4051C0006481FF1F10B5244A244B25491B781368013313600B78BBB1224A13780133DBB213701378ABB9204A20491378204803F07F03204C13700860237883B11A4A13787E
:4052000043F08003137010BD03F0FF02154B1A70E9E7194B0020012110701970E3E7FF230B6042F8713C00F083F9144A137843F01003137000F080F9084A1378190704D570
:405240000F490B6813781B07FBD40E4A0021012311702370D2E700BF7C81FF1F67650040AD3500205481FF1F756500402465004080A903007B81FF1FAC350020976500403C
:40528000446500408765004070B53E4C237803F0FE032370FEF718FEFEF794FE237803F0FE032370FEF710FE37490B78FF2B44D0012B37D0022B354840D801249C400278A0
:4052C000E4B214421DD0324D22EA040255F82360304C02703278E45C2F4D22EA0404EA5C2E4D3470AB5C013BDBB2AB5433BB2C4C2C4B54F822409A5C237823EA0203237017
:40530000027893070CD442F00202274C027023482278437842F0010222705BB30133437001230B70214B1A7852B9FEF74BFE154A137803F0FE03137070BD14480278E0E7D1
:4053400012490A78500712D5144822F00402164C0A7042782178013A21F01001D2B22170427022B912490A7822F010020A7000221A70DAE794F8F32942F0100284F8F32904
:40538000CCE700BF004E0040CC80FF1F60380020106100001C6100002061000064380020246100002C6100000D51004066380020005B0040014B1870704700BF805B004032
:4053C000014B1870704700BF815B0040F0B4494A1378FF2B29D083424DD0022B23D8464E01249C403578E4B22C421CD0434F25EA040457F82370424D34703C78ED5C414EDC
:4054000024EA0505F45C404E3D70335D013BDBB2335543B93D4D3E4B55F824501C5D2B7823EA04032B70FF231370FF2823D0022820D8314D012383402C78DBB2234219D187
:405440002E4E234356F820602D4C2B703578235C2C4C2B43255C2C4C3370635D43B92B4E2B4B56F825605B5D37783B433370635D013363551070274B1A7811B1F2B1F0BC73
:405480007047002AFBD01C490A78500712D51E4822F00402204C0A7042782178013A21F01001D2B22170427022B91C490A7822F010020A7000221A70F0BC70470E490A78F8
:4054C00054070CD442F0040213480A7002780E4C42F01002027062782AB10132627001221A70F0BC704790F8F31941F0100180F8F319F2E7CC80FF1F60380020106100004A
:405500001C6100002061000064380020246100002C610000663800200D510040005B00400230800803D000BF01380046FCD17047EFF3108072B6704780F31088704700BF87
:40554000014B1868704700BF3081FF1F0E4B70B51E460E4C0025E41AA410A54204D056F8253098470135F8E700F0E4FF084B094C1E46E41AA4100025A54204D056F82530A1
:4055800098470135F8E770BD4065000040650000406500004865000003460244934202D003F8011BFAE770477BB972B90029BEBF00204FF0004106E008BF00281CBF6FF095
:4055C00000414FF0FF3000F0B5B9ADF1080C6DE904CE002909DB002B1ADB00F035F8DDF804E0DDE9022304B07047404261EB4101002B1BDB00F028F8DDF804E0DDE9022386
:4056000004B0404261EB4101524263EB43037047524263EB430300F017F8DDF804E0DDE9022304B0404261EB41017047524263EB430300F009F8DDF804E0DDE9022304B010
:40564000524263EB430370472DE9F04F8C460C460546099E002B4FD18A4217466BD9B2FA82FEBEF1000F0BD0CEF1200520FA05F501FA0EF345EA030C02FA0EF700FA0EF533
:40568000390CBCFBF1F0BAB201FB10C300FB02F84FEA154C4CEA0344A04509D9E41900F1FF3380F02881A04540F2258102383C44C8EB0404B4FBF1F301FB134C03FB02F2B4
:4056C000ACB244EA0C418A4209D9C91903F1FF3480F00F818A4240F20C81023B39448A1A43EA00400021002E63D022FA0EF2002386E80C00BDE8F08F8B4207D9002E56D064
:40570000002186E811000846BDE8F08FB3FA83F1002940F09380A34202D3824200F2FE80851A64EB03039C460120002E41D086E82010BDE8F08F12B90127B7FBF2F7B7FAA5
:4057400087FEBEF1000F36D1E41B4FEA17481FFA87F90121B4FBF8F308FB134409FB03F24FEA154C4CEA0444A24207D9E41903F1FF3002D2A24200F2D3800346A41AB4FBF1
:40578000F8F008FB104809FB00F9ACB244EA0842914507D9D21900F1FF3402D2914500F2BA802046C9EB020240EA03409BE731463046BDE8F08F07FA0EF7CEF1200C24FA0B
:4057C0000CF34FEA1748B3FBF8FA1FFA87F908FB1A3520FA0CFC04FA0EF40AFB09FB4CEA040C4FEA1C4242EA05439B4500FA0EF50AD9DB190AF1FF3280F08B809B4540F29E
:405800008880AAF1020A3B44CBEB0303B3FBF8F008FB103300FB09F41FFA8CFC4CEA03439C4207D9DB1900F1FF326ED29C426CD902383B441C1B40EA0A418BE7C1F1200E9F
:405840008B4022FA0EFC4CEA030C24FA0EF74FEA1C49B7FBF9FA1FFA8CF309FB1A7720FA0EF88C400AFB03F548EA04044FEA144848EA0747BD4202FA01F200FA01FB09D961
:4058800017EB0C070AF1FF3041D2BD423FD9AAF1020A67447F1BB7FBF9F509FB157705FB03F3A4B244EA0747BB4208D917EB0C0705F1FF3027D2BB4225D9023D674445EA76
:4058C0000A40A0FB0289FF1A4F4545464C4614D329D066B3BBEB050367EB040707FA0EFECB40CF404EEA030386E888000021BDE8F08F2346F3E61846DAE6B8EB020569EB6C
:405900000C040138E5E70546D9E7104692E78246C0E7924678E702383A4443E7084604E7023B3C442AE7C345E7D33C46D1E73146BDE8F08F704700BF10B5431E0A44914295
:4059400004D011F8014B03F8014FF8E710BD000000000000F4FCFF7F010000000111213141615363730000000809010105070704040000002E2600007326000041270000E6
:4059800098280000772A0000DD2C0000C82F00003733000027370000963B000081400000E5450000BF4B00000B520000C4580000E85F0000716700005B6F0000A07700007F
:4059C0003C8000002989000062920000E09B00009EA5000096AF0000C1B900001AC4000099CE000038D90000F0E30000BBEE000092F900006E040100480F01001A1A01006B
:405A0000DD240100892F0100193A010085440100C84E0100DA580100B6620100556C0100B1750100C57E01008A870100FC8F010014980100CE9F010025A7010014AE0100B4
:405A400098B40100ABBA01004AC0010073C5010020CA010050CE010000D201002DD50100D6D70100F8D9010093DB0100A6DC01002FDD01002FDD0100A6DC010093DB0100D1
:405A8000F8D90100D6D701002DD5010000D2010050CE010020CA010073C501004AC00100ABBA010098B4010014AE010025A70100CE9F010014980100FC8F01008A87010046
:405AC000C57E0100B1750100556C0100B6620100DA580100C84E010085440100193A0100892F0100DD2401001A1A0100480F01006E04010092F90000BBEE0000F0E3000036
:405B000038D9000099CE00001AC40000C1B9000096AF00009EA50000E09B000062920000298900003C800000A07700005B6F000071670000E85F0000C45800000B520000B7
:405B4000BF4B0000E545000081400000963B00002737000037330000C82F0000DD2C0000772A00009828000041270000732600002E2600000080FF0074600000000000008E
:405B8000B7D10000FF41FF20100000007017000070170000C0D4010000008403200800020A00000002000000200800040A00000002000000000000007017000001000000CE
:405BC00000000000200800020A00000002000000C15300008060000001000000713D02000139FF20100000007017000070170000C0D401000000B004200800020A000000D6
:405C000002000000200800040A0000000200000000000000701700000100000000000000200800020A00000002000000B5530000201300256117802601008026E00E8026B3
:405C4000C20C8026020080066587186D6409183E00008026032080262102187F000000000000000000000000000000000000000000000000000000000000000000000000CB
:405C800000000000000000000000000000000000000000000000000000000000000000000000000000000000000000000000000000000000000000000000000000000000E4
:405CC00000000000000000000000000000000000000000000000000000000000000000000000000000000000000000000000000000000000000000000000000000000000A4
:405D000000000000000000000000000000000000000000000000000000000000000000000000000000000000000000000000000021F805014210864064F8150181F805013B
:405D400043518E21000000000000000000000000000000000000000000000000000000000000000000000000000000000000000000000000000000000000000000000000E0
:405D800000000000000000000000000000000000000000000000000000000000000000000000000000000000000000000000000000000000000000000000000000000000E3
:405DC00000000000000000000000000000000000000000000000000000000000000000000000000000000000000000000000000000000000000000000000000000000000A3
:405E0000000000000000000000000000000000000000000000000000000000000000000000000000000000000000000000000000D40A0000EF0C0000EB0C0000900A0000F8
:405E4000EE0500006EFFFF00E4F7FF0087F0FF00D1EAFF0046E8FF0023EAFF0006F1FF009DFCFF00810B00003C1B00009E280000473000005B2F000046240000550F00007A
:405E800009F3FF00F3D3FF001AB8FF00F5A5FF0014A3FF00CAB2FF0014D5FF0007060000033E0000AF720000B7980000FCA50000DC9300001A610000ED120000E3B4FF00C1
:405EC0008157FF009E0DFF00FDE8FE008FF6FE003A3BFF00B0B1FF00074A000048EB0000F47601000FCE0100F1D60100EA820100A0D200004BD8FF0026B7FE00E79FFD00F3
:405F00008ACAFC003F6EFC00A2B8FC00A3C5FD007899FF00A81D0200F421050011610800C6880B0040440E00334710001D5811001D5811003347100040440E00C6880B004C
:405F400011610800F4210500A81D02007899FF00A3C5FD00A2B8FC003F6EFC008ACAFC00E79FFD0026B7FE004BD8FF00A0D20000EA820100F1D601000FCE0100F476010092
:405F800048EB0000074A0000B0B1FF003A3BFF008FF6FE00FDE8FE009E0DFF008157FF00E3B4FF00ED1200001A610000DC930000FCA50000B7980000AF720000033E0000D1
:405FC0000706000014D5FF00CAB2FF0014A3FF00F5A5FF001AB8FF00F3D3FF0009F3FF00550F0000462400005B2F0000473000009E2800003C1B0000810B00009DFCFF0041
:4060000006F1FF0023EAFF0046E8FF00D1EAFF0087F0FF00E4F7FF006EFFFF00EE050000900A0000EB0C0000EF0C0000D40A0000FF3F000000000000000000000000000020
:40604000000000000000000000000000000000000000000000000000000000000000000000000000000000000000000000000000ABC000C048414D4D45525F504741000004
:4060800048414D4D45525F4C50000000D007A00F401F803EC05D007D80BB50C301000000400000000100000000080000000000008000000001000000400000000100000094
:4060C00000080000E803000080000000011121314161536373000000080901010507070404180000405100403000F0510040100000000140001000140140000800400140F7
:40610000000A004C014000020050014020000000585B00400D5100400D5100402001100000010100005B0040005B004020100000000000000000000000000000000000004D
:40614000000000000000000000000000000000000000000000000000000000000000000000000000000000000000000000000000000000000000000000000000000000001F
:4061800000000000000000000000000000000000000000000000000000000000000000000000000000000000000000000000000000000000000000000000000000000000DF
:4061C000000000000000000000000000000000000000000000000000000000000000000000000000000000000000000000000000000000000000000000000000000000009F
:40620000000000000000000000000000000000000000000000000000000000000000000000000000000000000000000000000000000000000000000000000000000000005E
:40624000000000000000000000000000000000000000000000000000000000000000000000000000000000000000000000000000000000000000000000000000000000001E
:4062800000000000000000000000000000000000000000000000000000000000000000000000000000000000000000000000000000000000000000000000000000000000DE
:4062C000000000000000000000000000000000000000000000000000000000000000000000000000000000000000000000000000000000000000000000000000000000009E
:406300000000000000000000000000000000000000000000000000000000000000000000000000000000000000000000000000002E26000073260000412700009828000048
:40634000772A0000DD2C0000C82F00003733000027370000963B000081400000E5450000BF4B00000B520000C4580000E85F0000716700005B6F0000A07700003C800000B9
:406380002989000062920000E09B00009EA5000096AF0000C1B900001AC4000099CE000038D90000F0E30000BBEE000092F900006E040100480F01001A1A0100DD2401005B
:4063C000892F0100193A010085440100C84E0100DA580100B6620100556C0100B1750100C57E01008A870100FC8F010014980100CE9F010025A7010014AE010098B40100A0
:40640000ABBA01004AC0010073C5010020CA010050CE010000D201002DD50100D6D70100F8D9010093DB0100A6DC01002FDD01002FDD0100A6DC010093DB0100F8D9010082
:40644000D6D701002DD5010000D2010050CE010020CA010073C501004AC00100ABBA010098B4010014AE010025A70100CE9F010014980100FC8F01008A870100C57E01000A
:40648000B1750100556C0100B6620100DA580100C84E010085440100193A0100892F0100DD2401001A1A0100480F01006E04010092F90000BBEE0000F0E3000038D900009F
:4064C00099CE00001AC40000C1B9000096AF00009EA50000E09B000062920000298900003C800000A07700005B6F000071670000E85F0000C45800000B520000BF4B0000F5
:40650000E545000081400000963B00002737000037330000C82F0000DD2C0000772A00009828000041270000732600002E26000043000000F8B500BFF8BC08BC9E4670475F
:406540009900000029450000F8B500BFF8BC08BC9E4670477500000068650000C080FF1F7800000050B80000000000000404FFFFFF01807FFF000000000000000000000071
:406580000000000000000000000000000000000000000000000000003065000000000000000000000000000000000000000000000000000000000000000000000000000046
:4065C000000000000000000000000000000000000000000000000000D080FF1F0000000000000000000000000000000000000000000000000000000000000000000000002D
:40660000000000000000000000000000000000000000000000000000000000000000000000000000000000000000000000000000000000000000000000000000000000005A
:40664000000000000000000000000000000000000000000000000000000000000000000000000000000000000000000000000000000000000000000000000000000000001A
:4066800000000000000000000000000000000000000000000000000000000000000000000000000000000000000000000000000000000000000000000000000000000000DA
:4066C000000000000000000000000000000000000000000000000000000000000000000000000000000000000000000000000000000000000000000000000000000000009A
:020000040003F7
:0200000480007A
:4000000002520040015B004003640040026500400101014004020140080301402D0401402F0501400A070140500801403D090140290A01403C0B01404D0C0140390D0140F6
:40004000390E01402A0F014035140140291501403F16014022170140301801403C1901400F1A0140341B014013400140134101400C4201400B4301400244014003450140F5
:400080000F460140034701400B48014005490140054C0140064D01400A5001400451014009040C2027848B038C728E38870D8A0FE204B980BF40D904DF01200281108940EB
:4000C0009B08A502A902AB08E620040806040E0115011A021C012C042E182F03300C33023410360337013E0154015804590C5B0C5C195D105F0182088A038F02930394013F
:400100009E04A301AC08B001B202B404B502B608B701BE40BF50D608D804D904DB04DC03DD90DF01018003200512086009800E100F0210011540188019C01B201C021D1292
:400140001E102188255029402D02310837013F4058405C4064016D406F017A028701880193409B08A552AF40B001C055C2A3C481CA88CC82CE10D618D810DE08E280E60812
:40018000EA088A029B089C209D02A602A840B440B580E844EA10000806080A04104012A0148216411A101C041F0220212242230124E328E330E032033302341C3501382033
:4001C0003E1052035302580459045B045C125D105F0184148B088C098E108F239203941C95619622970E982C995C9A119B03A040A410A830A961AA0CAB16AF1CB01FB16072
:40020000B31AB50FB660B880B902BB28BF01C004C504C9FFCA07CBFFCC40CD20CEF0CF05D008D804D904DA04DC22DD02DF01E040E1A8E240E32001800220040407680AA840
:400240000B400C800D080E48102412901480171419801A801D2D1E401F10210122142728280429902C802EA02F103214376838803A103F1041014820504052806C046E2018
:400280006F038B019310940C96019AA09B549C889D059F28A080A204A520A610A702C075C2FEC47ECAFCCC76CE2CD001E620E80413022301270133033F04580459045C11CA
:4002C0005F018504870889108B208F01914093809501960499029F02A580A740A908AA01AB04AD20AE02AF10B004B201B3FFB402BF04D602D735D804D904DB0CDC01DD102F
:40030000DF0103080680072809200B320C080D200E021328154416081F192104260428C829042A042D042EA02F193004310132203404376938043B223C803D283E085E208D
:4003400067086C086D686F4174C07F028E218F0893089408950896019B149C409D019E04B380C072C2E7C4E6CA77CCF7CE77D620D820DE10E608E880EA08000204020804AB
:400380000C011004140118011C01280432023401360438083E145602571258045B045C025D205F018120850A860289308E01910F92029401953F9801990F9B309F0FA105BC
:4003C000A201A53CA703A910AD30AF0FB001B103B402B53CB802BB20BE10C021C106C205C403C50EC70CC811C9FFCAFFCBFFCC62CDA0CEF0CF41D00CD804D904DA04DC2222
:40040000DD02DF01E640E702E910EA30EB10ED10EE10EF12010803010408078709200A900C880E500F061080171018041A801D801E081F44212022012304284029202A0872
:400440002B01300831A13A1541A44809490852085E086E406F14752076118A088B0292109404960397849B029C409D209E11A001A301A608C0F5C2FEC448CA0FCC0FCE0774
:40048000D00ED20CD640001901040204041805010706080809060C100F011206141F15071A201D061E011F01200121072407261829022A202C192E02301F32203507370712
:4004C0003A023E0454185604580459045B045C225D205F018106830185018706890695079D069F01A301A902AD04B707BA08BB80D804D904DC22DF010122021109200A11ED
:400500000B801040118012081304181019021B011D041E102002212025402680270229222D202F4131043280350436803A113B963F165A026006638083408C12C00FC20FE4
:40054000C40FCAB5CC5ACEEFD601D80D403549FF4AFF4BFF4F01501856085A0B5B045D995F016040624064406540668068806A806C806E80800290049401A207A807AF013A
:40058000B101B207C035C9FFCAFFCBFFCD83CE03CF01D018D280D80BD90BDA0BDB0ADC99DD99DF01E040E240E440E540E680E880EA80EC80EE8007400C020D081680171035
:4005C0001D0827402E804108450848024C0258405B285D105F20602262A0768078027EA0884089109B189C229F40A002A508A680AD04C010C230C450CA10D042D218D60E13
:40060000D80EDEC1E080EC200B01190123012F0133013B08403549FF4AFF4BFF4D834E034F015018590B5A0B5C905D095F016040624064406540668068806A806C806E8017
:40064000820193019F01AE01B301B601BE40C035C5ECC720C823C9FFCAFFCBFFCD83CE03CF01D018D401D804D90BDA0BDB0BDC90DD99DF01E040E240E440E540E680E88084
:40068000EA80EC80EE8003C010021980210427102C022F803002334037103E20410842204508480249054C025002598578027E809B089C20A902C008C401CA90CC29CE20AB
:4006C000D042D218D60BDE81E640580459045C115F018403860C8E0890039204940A9501960498039A049B019E209F01A205A301A501AC10B210B40FB620B701BA20BE04DD
:40070000BF40C065C103C5E0C6BCC80EC9FFCAFFCBFFCEF0CF44D00CD804D904DA04DC12DD02DF01E6C0EA40EB02018003200680072008800A280B800D200F101280134004
:400740001510170819101A011B34224028082A402B902C012D102EA02F10300131483294372838043A013B103E084008412842084952522053C08D0190049228935096012C
:4007800099809AA09B289C889D10A120A280A620C035C26FC469CA7FCC6FCE47D002D20CE640000132013E0454015604580459045B045C115D205F01D804D904DC11DF01DA
:4007C0000106072809200B340D200F10104013281440150416A019042AA02EA02F10312032083608372838043B103F04582059065A806101864888208B809004928093109E
:40080000972099029AA09B289D019E40A120A380B080B621B704C06CC266C43ECA7CCC66CE46D60FD801EC201240144017101B0132483580370438013A403D103E044320A3
:400840008180C4B0C610CCF0CEF0D010E2202A08304437803C2080018A049401951096849840A608AB14AF21CA40CC70CE20E280E820EA8003808910951096809C049F8002
:40088000A608AC10AE08C010EA10EC40114094049C04A608A804AB80B640B780C440E820EA807C20DE0101109C20C0021B0227204708851091109F20A702AF02B020B320C2
:4008C000C608C801D001E801EE044401AB08D0042080240429408E0894049C04A608A940C860CA10EC2089409940AC04B040EA100F4053019C01C204D401B001B340B701D2
:40090000E802EA04EC04000E01010A0A0B010C060E04100611011B011C0600FF01FF10AA11020000000000000000390004000000000000000400200B0F00040000000000EA
:4009400004000006020000000000000000000000000070000700180100010000000300000004000000000000000000000000000000000000000000000000000000000000D3
:400980000000000000000000000000000000000000000000000000000000000000000000000000000000000000000000000000000000000000000000000000000000000037
:4009C00000000000000000000000000000000000000000000000000000000000000000000000000000000000000000000000000000000000000000000000000000000000F7
:400A000000000000000000000000000000000000000000000000000000000000000000000000000000000000000000000000000000000000000000000000000000000000B6
:400A40000000000000000000000000000000000000000000000000000000000000000000000000000000000000000000000000000000000000000000000000000000000076
:0200000490006A
:0400000000004005B7
:0200000490105A
:04000000BC90ACAF55
:0200000490303A
:020000002A9341
:0200000490402A
:4000000000000000000000000000000000000000000000000000000000000000000000000000000000000000000000000000000000000000000000000000000000000000C0
:400040000000000000000000000000000000000000000000000000000000000000000000000000000000000000000000000000000000000000000000000000000000000080
