:4000000000800020110000006921000069210000144A80B5144B1268144F1A60F7B1144E002556F80C4C56F8080C56F8102C234638B1043A52F8041F43F8041B191B8142A3
:40004000F8D156F8040C1A4620B142F8045BD11A8842FAD1013F06F11006E2D104F072F801F020F9FA460040BC760040010000001843000010B5054C237833B9044B13B1A9
:400080000448AFF300800123237010BD3081FF1F00000000A0410000084B10B51BB108490848AFF300800848036803B910BD074B002BFBD0BDE81040184700BF0000000058
:4000C0003481FF1FA0410000C080FF1F000000002DE9F04F0126B346DFF864A2DFF86482DFF8909289B0C9F800B09AF8000098F8001001248842924A924B00F0C0801078AA
:4001000019781B788842127828BF20339B1A8E4ADBB21660002B00F0C1808C49C9F800609AF8002098F800300878D2B2DBB210B99A4200F0AD80531CDBB2202B844828BF6C
:400140000023805C8AF800300A78804CC3B20AB1002222707C4A7F4916600A78052A00F29480DFE802F0826D63150C037A4A7B48D37003230B70002313700370B3E7764AD4
:400180007648937005230B70002313700370AAE7714C72480022227002700A706278A178E0784A4042409A429DD16D4B1A78002A7FD06378684AC12B03D05178302003F05E
:4001C00011FE684B684A1B783221032B1160637875D0A33B122B86D801A252F823F000BF49040000E70000006704000079050000E7000000E700000051060000F90600006D
:40020000E7000000E7000000E7000000E7000000E7000000E700000095070000E7000000BD080000D1090000790300004A484B4C837000220323C2700B700270227052E768
:4002400003F15D02444C454DD2B200201E2A2070287005D8454806FA02F7384008BB22B3002323702B700B703DE7AB2B7FF43BAF39483A4A00230E700370137033E733492D
:400280000B784BB1304B1E6048E700230B702AE7374B1B78DBB25DE72B4B1C6009B0BDE8F08F022263700A701DE7042263700A7019E7617821201E7003F094FD79E7A53BDF
:4002C0001C2B00F2AD8501A252F823F00F0D0000690C0000210E0000210E0000690C0000690C0000210E0000210E0000210E0000210E0000210E0000210E0000690C00002B
:40030000210E0000690C0000690C0000C50B0000210E0000210E0000210E0000210E0000210E0000210E0000210E0000210E0000210E0000210E0000210E0000E7000000E8
:400340003A82FF1F1582FF1F00E100E03882FF1F1882FF1F693600204C81FF1F683600207481FF1F7581FF1F8481FF1FCC4007404865004080E100E0A94BA94F1B7803F0F8
:40038000FF05002B00F0C9853978122003F02AFDA44BAB22C2218DF814201B78B5228DF815108DF81620002177228DF817108DF81820002B36D0DFF894C29B4B05AF17F882
:4003C000015B9CF8000019780446C9B201F1FF3E421AC0EB0E0EA2F17F02BEFA8EFEB2FA82F24FEA5E1E5209814288BF7246002AE9D1814200F0888501065ABF421CD2B275
:4004000001228A4948BF00248CF80020884A0D551278920702D5874A022111600DF11902BA42CCD17E4B1B78022B3FF45CAE824B82491A780B7802F0020282F0020203F0E0
:40044000FD0313430B704EE6A378E278312043EA02231BB29AB2FF2A94BFD9B2FF21A28003F0C0FC3FE600213B2003F0BBFC6D4B01931B78002B3FF436AE714FDFF8CCC1BE
:40048000694B17F8015B9CF8000019780446C9B201F1FF3E421AC0EB0E0EA2F17F02BEFA8EFEB2FA82F24FEA5E1E5209814288BF7246002AE9D1814200F0FE8402065ABF5D
:4004C000421CD2B20122594948BF00248CF80020574A0D551278900702D5564A02211160584ABA42CDD1019AAB21C3208DF814101278B8218DF815008DF816100B207021C4
:400500008DF817008DF81810002A3FF4ECAD05AF17F8015B9CF8000019780446C9B201F1FF3E421AC0EB0E0EA2F17F02BEFA8EFEB2FA82F24FEA5E1E5209814288BF7246D7
:40054000002AE9D1814200F09A8402065ABF421CD2B20122354948BF00248CF80020344A0D551278900702D5324A022111600DF119029742CCD1B6E5A378DBB2082B40F234
:40058000778531490B78274A83F064018DF817301278AB238DF818108DF81430C221A6238DF815108DF81630002A3FF43BAFDFF89CC01D4B05AF17F8015B9CF80000197818
:4005C0000446C9B201F1FF3E421AC0EB0E0EA2F17F02BEFA8EFEB2FA82F24FEA5E1E5209814288BF7246002AE9D1814200F03E8402065ABF421CD2B201220C4948BF00249B
:400600008CF800200A4A0D551278900702D5094A022111600DF11902BA42CCD102E700BF7581FF1F6081FF1F9081FF1F9481FF1F6864004000E200E0215100402051004081
:40064000BC410000C0410000C480FF1F9181FF1FA378AB20DBB2082B8BBF8B4B8A4A1B7813708A4A8DF81730127883F06B038DF81830C221A9238DF814008DF815108DF8EB
:400680001630002A3FF4CEAEDFF82CC2804B05AF17F8015B9CF8000019780446C9B201F1FF3E421AC0EB0E0EA2F17F02BEFA8EFEB2FA82F24FEA5E1E5209814288BF7246E6
:4006C000002AE9D1814200F0C98302065ABF421CD2B201226F4948BF00248CF800206E4A0D551278900702D56C4A022111600DF11902BA42CCD195E6A378644ADBB283F018
:4007000068018DF817301278AB238DF818108DF81430C221AA238DF815108DF81630002A3FF480AEDFF890C1594B05AF17F8015B9CF8000019780446C9B201F1FF3E421AA6
:40074000C0EB0E0EA2F17F02BEFA8EFEB2FA82F24FEA5E1E5209884238BF7246002AE9D1884200F0738302065ABF421CD2B20122484948BF00248CF80020474A0D5512781A
:40078000900702D5454A022111600DF11902BA42CCD147E6424D2B7803F0FE032B7001F04DFE01F0C9FE2B7803F0FE032B7003F037F93C4D01F0E0FC03F0B6FC3A4A00231D
:4007C000E3803A4923722B801380394A0B701380E360384B1E7003F0ABFCA3883220FF2B94BFD9B2FF2103F0FDFA324B274A1B781278DBB283F073018DF81730AB238DF894
:4008000018108DF81430C221B1238DF815108DF81630002A3FF406AEDFF89CC01C4B05AF17F8015B9CF8000019780446C9B201F1FF3E421AC0EB0E0EA2F17F02BEFA8EFE3D
:40084000B2FA82F24FEA5E1E5209814288BF7246002AE9D1814200F0F18202065ABF421CD2B201220B4948BF00248CF800200A4A0D551278900702D5084A022111600DF1A1
:400880001902BA42CCD1CDE58D81FF1F6081FF1F9081FF1F9481FF1F6864004000E200E0004E00407681FF1F7881FF1F6482FF1F6682FF1F7581FF1F9181FF1FA3783A20FA
:4008C000003318BF01232374217C03F08BFA237C002B00F07883A64D2B7803F0FE032B7001F0ACFD01F028FE2B7803F0FE032B7003F096F8DFF8C4C29CF80020012A40F272
:4009000087849C4B9C4D9D482978027841F0100142F01002297002701B78964AD90713D443F00103964913700A78964B42F020020A701A7832B991F8042942F0040281F863
:4009400004291A7801321A708F4B00211B688CF800100BB119209847A58885496B1EB3F5007F0B78894A03F0FE030B70137801F5BB5103F07F031370854B4FF0100201F10D
:40098000070109781A6028BF4FF4007503F0CCFB804A814900232674E380237213800B807E4A7F4913700B80E3607E4B02221A7003F0BEFBFF2D94BFE9B2FF21352003F0EE
:4009C00011FA6B4A137843F001031370FFF78BBB0021392003F006FA734BAB21C2221B788DF814108DF81520B42177228DF817608DF816108DF81820002B36D0DFF8C0C18A
:400A00006A4B0DF1140E01941EF8017B9CF8004018782546C0B2411E221A091BA2F17F02B1FA81F1B2FA82F249095209844238BF0A46002AECD1844200F0F88122065ABF58
:400A4000621CD2B201225A4948BF00258CF80020584A4F551278940702D5574A022111600DF119027245CFD1019C414D2B7803F0FE032B7001F0E2FC01F05EFD2B7803F0E9
:400A8000FE032B7002F0CCFFDFF830C19CF80020012A40F22783374B3848374D0278297842F0100241F01001297002701B78314AD80713D443F00103314913700A78314B22
:400AC00042F020020A701A7832B991F8042942F0040281F804291A7801321A702A4B00211B688CF800100BB119209847A58820496B1EB3F5007F0B78244A03F0FE030B70A1
:400B0000137801F5BB5103F07F031370204B4FF0100201F1070109781A6028BF4FF4007503F002FB1B4A1C4900232374E380237213800B80194A1A4913700B80E360194BDB
:400B400002221A7003F0F4FAFF2D94BFE9B2FF21352003F047F9064A137843F001031370104B1B78022B7FF462ACFFF7BCBA00BF004E00403B82FF1F0D510040205A004007
:400B80000C5100403C82FF1F4082FF1F7465004080E200E07681FF1F7881FF1F6482FF1F6682FF1F7581FF1F6081FF1F9081FF1F9481FF1F6864004000E200E0C580FF1FA5
:400BC0009181FF1FB24B1220197803F00BF9B14BAB22C2218DF814201B78B5228DF815108DF81620002177228DF817108DF81820002B3FF478AADFF8BCC2A74B05AF17F82D
:400C0000015B9CF8000019780446C9B201F1FF3E421AC0EB0E0EA2F17F02BEFA8EFEB2FA82F24FEA5E1E5209814288BF7246002AE9D1814200F0608102065ABF421CD2B257
:400C40000122964948BF00248CF80020944A0D551278900702D5934A022111600DF119029742CCD1FFF73FBA6178122003F0BAF86378884ADBB2127883F0C204AB208DF87F
:400C80001630C22100238DF818408DF814008DF815108DF81730002A3FF425AADFF814C27D4B05AF17F8015B9CF8000019780446C9B201F1FF3E421AC0EB0E0EA2F17F02EC
:400CC000BEFA8EFEB2FA82F24FEA5E1E5209814288BF7246002AE9D1814200F0058102065ABF421CD2B201226C4948BF00248CF800206B4A0D551278900702D5694A022112
:400D000011600DF11902BA42CCD1FFF7ECB900213B2003F067F85F4B01931B78002B3FF4E2A9614FDFF88CC15B4B17F8015B9CF8000019780446C9B201F1FF3E421AC0EB68
:400D40000E0EA2F17F02BEFA8EFEB2FA82F24FEA5E1E5209814288BF7246002AE9D1814200F0BA8002065ABF421CD2B201224B4948BF00248CF80020494A0D55127890079D
:400D800002D5484A02211160484ABA42CDD1019AAB21C3208DF814101278B8218DF815008DF816100B2070218DF817008DF81810002A3FF498A905AF17F8015B9CF8000019
:400DC00019780446C9B201F1FF3E421AC0EB0E0EA2F17F02BEFA8EFEB2FA82F24FEA5E1E5209814288BF7246002AE9D181426CD002065ABF421CD2B20122284948BF00245C
:400E00008CF80020264A0D551278900702D5254A022111600DF11902BA42CDD1FFF763B96178122002F0DEFFFFF75DB91C4A127851073FF503AE1E4A177011E6184A127897
:400E400051073FF50AAD1A4A157018E5144A127851073FF588AC164A157096E4104A127851073FF532AC124A157040E40C4A127851073FF5BDAB0E4A1570FFF7CBBB084A70
:400E8000127851073FF561AB094A1570FFF76FBB7581FF1F6081FF1F9081FF1F9481FF1F6864004000E200E0BC410000C0410000486400409181FF1FB44A127851073FF5A7
:400EC000FDAAB34A1570FFF70BBBB04A127851078ED4AF4A15709DE7AC4A127851073FF541AFAB4A15704FE7A84A127851073FF5F6AEA74A157004E7A44A127851073FF510
:400F00009BAEA34A1570A9E6A04A127852073FF573AA9F4A1570FFF781BA9E4C2946102002F060FFA378002B7BD02946112002F059FF994BAB221B78C220B5218DF81420A0
:400F400077228DF817508DF815008DF816108DF81820002B3FF466AADFF8B0C28F4B0DF1140E1EF8015B9CF8000019780446C9B24F1E421A3F1AA2F17F02B7FA87F7B2FACC
:400F800082F27F095209814288BF3A46002AECD1814200F09F8001065ABF421CD2B201227F4948BF00248CF80020784A0D551278920702D57B4A022111600DF11902724594
:400FC000CFD1FFF72FBA784F784D3B7803F0FE033B703B7803F0FE033B7001F02FFA01F0ABFA3B7803F0FE033B7002F019FD7049704A0B78704803F07F030B7010602B7887
:40100000002B00F0A8806A496C480A78002342F080020A706A4AE380237203701370FFF762B808220193C9F8002001F007FA01F005FA01F081FA5C490A7802F0FE020A7001
:4010400001F0FCF901F016F9019BA670E37063712671267003F068F85A4B1D6803F068F8594A03231670E56325643B70FFF7DAB9564A02AC154610685168177A03C455F8E1
:401080000C0F05AA69682D7A03C251495148277015700B70027808ACE71802F08003DBB2037017F80C5C027817F8184CAD00224305F00C05484C2A430270237803F0F3034A
:4010C0002370237817F80C2C43F00C0313432370FFF758BA2D4A127857073FF55CAF2C4A15706AE73D4F5300DBB257F823503C48297810F803E00133DBB257F8237021EA72
:401100000E012970C05C3978364B21EA00013970197806FA02F0C0B201423FF4BDAC324D21EA000155F82250304F19702878BF5C2F4920EA0707895C2E482F70425C013AC0
:40114000D2B24254002A7FF4A7AC2B490A7822F004020A70A0E4FF23136041F8703C02F0E3FF264A137843F01003137002F0E0FF234A13781F0704D522490B6813781807F7
:40118000FBD4214B00221A702E703CE768640040486400406C3600206081FF1F9081FF1F9481FF1F00E200E0004E00406F81FF1F746500402465004080A903006482FF1FFC
:4011C0007581FF1F7081FF1F7A81FF1FA4410000C480FF1F0258004001580040C0410000D04100003B82FF1FD4410000DC410000E04100003C82FF1F105A00409765004037
:401200006765004044650040876500409181FF1F1C4F5300DBB257F823501B48297810F803E00133DBB257F8237021EA0E012970C05C3978154B21EA00013970197806FA98
:4012400002F0C0B201423FF45DAB114D21EA000155F822500F4F19702878BF5C0E4920EA0707895C0D482F70425C013AD2B24254002A7FF447AB0A490A7822F004020A7090
:40128000FFF740BBC0410000D04100003B82FF1FD4410000DC410000E04100003C82FF1F105A00402DE9804883B062B6AB4C2178002900F09F8602F037FFA949A94D0B78ED
:4012C000A94A43F020030B702B78012643F010036FF480772B70394416600B78A34F43F010030B700225A1F503513D60363915600B789F4A2B430B7013782B43137002F0A7
:4013000017FF9C4B9C4A304600211A6002F06AFD9A4A63781578914A4BB9994B56701A7802F0FC021A701A7842F003021A70954895490378954A43F0600303700B78A6786D
:4013400043F004030B701378844843F004031370002E00F029868E4A8E481378894943F0080313700378E27843F0080303700B787A4F43F080030B70002A00F0FF85844A9C
:40138000844813787F4943F0040313700378227943F0040303700B78704F43F080030B70002A00F0D5857A487A490378754A43F0020303700B7843F002030B70137843F049
:4013C0008003137000F0E6FF00F0CCFF6379634943B9714A01201378487103F0CF0343F030031370A3795D4943B96C4A01201378887103F0CF0343F030031370E279574F3D
:40140000002A00F08E856248624903785D4A43F0010303700B78284643F001030B70137843F08003137000F0CDFF237A4B4953B95B4B01201A78087202F0FC021A701A781F
:4014400042F003021A704F484F4903784F4A43F0600303700B78607A43F001030B7013783E4943F00103137050B94E4B01201A78487202F0FC021A701A7842F003021A70A8
:40148000404841490378414A43F0600303700B78A07A43F002030B701378304943F00203137050B9404B01201A78887202F0FC021A701A7842F003021A703248324903787E
:4014C000324A43F0600303700B78384E43F008030B70137843F0080313703378DA0740F11D8523F00103324A33701378314D23F0080313702B78013BDBB22B702BB992F8A5
:40150000033923F0020382F80339337827499F0712D523F00203264A0B70137823F0200313702B78013BDBB22B702BB992F8033923F0020382F8033933781C49580743D5AC
:4015400023F004031C4A0B70137823F0400313702B78013BDBB22B70B3BB2FE06081FF1F996500409865004000E100E080E200E0B24300404082FF1FE53D0000C480FF1F72
:401580005C58004077580040A4430040B4430040A9430040B9430040785800407A580040585800405A5800405E5800405482FF1FFD5100405882FF1F3D51004092F8C3399A
:4015C00023F0020382F8C3393378BE491A0712D523F00803BC4A0B70137803F07F0313702B78013BDBB22B702BB992F8C33923F0020382F8C339B54FFF23DFF850E3B44955
:401600003B709EF800200B7822F0100203F0EF03B0488EF800200B70027812F0010F00F07A8422F00102DFF828E302709EF80030A94A23F020038EF800301378013BDBB2C8
:401640001370002B40F06484DFF890E20B789EF8001021F004018EF800109D4923F020030B7003789B4813F0020F12D023F00203A1F6141103700B7823F001030B701378B4
:40168000013BDBB2137023B9944A137823F004031370934BFF221A7000F0D0FE00F06CFD3878FF2801D001F09DFB337885491E0713D443F00803844A0B701378894963F06F
:4016C0007F0313702B7833B992F8C33943F0020382F8C3390B7801332B7003233B7000F02BFF8149E27A0B78804803F0FE030B70002A00F0A0837E4A7E4913787E4D43F0B0
:40170000040313700B78227B43F004039C260B7076482E70002A00F06883754A75491378764D43F0010313700B78627B43F001039C260B706D482E70002A00F0C3836C4A65
:401740006C4913786E4D43F0020313700B78A27B43F002039C260B7064482E70002A00F01E836349634A0B78664843F008030B701378654D43F008039C21137005F180061F
:401780000170EB699C2020359847B542F9D1564D5E4F2B785E4E03F0FE032B7002F0C4FC2B785C4A03F0FE032B7013785A4943F0040313703B78804643F002033B70337809
:4017C000482043F0020333700B78A7F2473703F0FC030B7092F8913A03F0F70382F8913A02F09AFC97F847334C4A03F0FD0387F8473331784A4B01F0FD013170107849491D
:4018000000F0EF0010701078DFF848E100F0FE0010701A7806F58C5602F0FE021A701A78093602F0EF021A700B783F4A03F0F9030B709EF80030A1F5A65103F0FE038EF8E7
:4018400000303B78153903F0FE033B703378404603F0F70333700B78344E03F0FE030B701378334F03F0FE03137002F061FC00F063FE2B7803F0FE032B7002F0D1F8002131
:40188000022002F0AFFA2B482B4903682B4A04250D609A642A4BE02232701D60056810260E602F65D0F800E0DFF8ACC0A0F60410244F0270082524481E600D60CEF84CC005
:4018C0003A704BE05482FF1F3D510040C780FF1F205A00403B82FF1F3C82FF1F105A0040C580FF1F5882FF1F004E00406081FF1FA8430040B8430040825B0040805B00404B
:40190000815B0040835B00403C420000F8460040F9460040014E004091580040AA430040BA43004077580040B243004002E400E0C53E000008ED00E080E100E0413C000030
:4019400000E100E003E400E0746500400D5100400C510040A1430040893F00001D600378E17B8C4A8C4D03F07F0303701560002900F0FA81894A8A4D1378AA4643F08003D0
:40198000137002F0D1FBD4F8108002F0D1FB2B78002103F0FD0343F002032B70202002F021FAC146DFF818B27E4E237D7E4D002B5CD101F049FA02F0B7FB2F6902F0B8FBA9
:4019C000C8EB0703002BC0F2CF802B78002B36D0764D4FF0020805F1040C15F801EB9BF8001032780846D2B202F1FF398B1AC1EB0909A3F17F03B9FA89F9B3FA83F34FEACB
:401A000059195B098A4288BF4B46002BE9D18A4200F0B6800B065ABF4B1CDBB20123644A8BF8003048BF0020624B02F800E01B789A0744BF604BC3F800806545CDD1B946A0
:401A40009AF8003007F1460803F0FD0343F002038AF800309AF80030534D03F0FD0343F002038AF80030237D002BA2D002F05CFBA9462D69DFF8288102F05AFB05F5FA7309
:401A80000093052798F8003003F0FD0388F8003002F04AFB256902F04BFB05F1080A01E001F0D2F902F040FB256902F041FBCAEB0505002DF4DB98F8003003F0FD0343F0D8
:401AC000020388F8003002F02FFBD9F8105002F02FFB05F1080A01E001F0B6F902F024FB256902F025FBCAEB0505002DF4DB013F17F0FF07C6D1DFF8BCA0012701F0A4F906
:401B0000637D294D022BF9D0EA8A2B8B92B29BB29A42F3D302F008FBD5F8108002F008FB002F4FD06B7D03F0FF0E002B4AD1EA8A2B8B92B29BB29A4244D3009BC3EB080337
:401B4000002B3FDB6B7D03F0FF07002B00F0CE80697D1220774602F045F901F075F9637D114D022BD0D1C9E7C9EB07073B2F7FF671AF9AF8003003F0FD038AF8003014E793
:401B80000C4B1B785A073FF545AF0C4B83F800E053E700BF2465004080A9030074650040205100409081FF1F6081FF1FBC4100009481FF1F6864004000E200E04864004030
:401BC0009181FF1F627DAD4B002A63D1D98A1A8B89B292B291425DD3DA6912B908F16402DA61C2EB0802002A39DB237808F16402E261002B33D0DFF8C8E20EF104091EF84B
:401C0000015B9BF8001032780846D2B202F1FF3C8B1AC1EB0C0CA3F17F03BCFA8CFCB3FA83F34FEA5C1C5B09914238BF6346002BE9D1914251D00A0658BF0131904B52BF75
:401C4000C9B2012100201D548BF800109AF800309B0702D58B4B02221A60CE45CFD1627D864B022A1CD01A6AD2B1B8EB02023FF445AF596AC3F820808A4214D3824A82483D
:401C80001278002102F0FD0242F0020202705962996233E7627D0023022AE361774BE2D1C3F820802AE7986A891A0244042A59621AD95A7D0021022A99623FF41FAF734B18
:401CC0001A78013B1B7802F0020282F0020203F0FD0313436C4A137010E79AF800305B07A9D46B4B1D70B8E79A6207E73946102002F078F8674B93F802909846B9F1000FBA
:401D000004D03946112002F06DF8F7E6624B08221A6000F093FB00F091FB00F00DFC5F4A4F46137803F0FE03137000F087FB00F0A1FA012388F8023088F8043088F8003030
:401D400088F8039088F8059002F0EEF92B69019302F0EEF9019B032285F81A90C8F83C30C8F840306A75C9E64D49FF2313600B6002F0DAF94B4A13783343137002F0D8F958
:401D8000494B1A78100704D5484A116819780907FBD4474A002101231170E373EAE5454B01F5A35115311A700A701A78A1F5915102F0F3021A701A78023942F004021A7048
:401DC0001A780125C2F3810202F19242063292F838218573D2B20A701A7802F0FD021A701A7842F002021A70BBE4334B01F5A35109311A700A701A78A1F5905102F0F30287
:401E00001A701A78193942F004021A701A780125C2F3810202F19242063292F820210573D2B20A701A7802F0FD021A701A7842F002021A7071E4214B01251A7081F8292AA6
:401E40001A78A1F2F67102F0F3021A701A7842F004021A701A78C572C2F3810202F19242063292F82821D2B20A701A7802F0FD021A701A7842F002021A703CE46081FF1FC2
:401E80009481FF1F00E200E02051004021510040486400406C36002080E100E0004E004004650040976500406765004044650040876500402C58004020580040285800400B
:401EC000BC4100005C4B01F5A3510D311A700A701A78A1F5905102F0F3021A701A781C3942F004021A701A780125C2F3810202F19242063292F830214573D2B20A701A78DD
:401F000002F0FD021A701A7842F002021A7016E40B78FFF7A2BB494AFFF79FBB484DFFF7F4BA484B484E0C2119703378474943F02003337008200A7000F044FA3378012237
:401F400003F0FC0343F003033370FA71FFF75BBA3F4B404E0C21197033783F4943F0200333700A7000F0FEF93378012203F0FC0343F0030333703A71FFF715BA374B384EAE
:401F80000C2119703378374943F0200333700A7000F000FA3378012203F0FC0343F003033370FA70FFF7EBB902F5A2522E4B18320C2111701978802641F0200119709670CF
:401FC0009178012601F08001C9B2917091788670314391701A7802F0F3021A701A7842F00C021A701A7802F0FC0242F003021A70FFF7B1B91D4A1E4F16681E4D1E48E02327
:4020000037642B7001701D48156872261C4A06701C4F1D49202010701C4E1D486F64A2F580720B7006274725022101233770057011702370FFF73FB9245800403C82FF1FD6
:402040005882FF1F00580040015800400258004004580040055800400658004008580040095800400A5800400D58004008ED00E0F120000000E400E01482FF1F89650040B2
:40208000886500409920000001E400E02964004039640040704700BF124B1A78597891421FD070B41048027802F0040202F0FF05B2B91E460D4C02E00278520710D41A789C
:4020C000110648BF35701A7859781A441279D2B222701A780132D2B21A701A789142EBD170BC70479081FF1F68640040486400401A4AF0B517461A481A4C012500260378C8
:40210000DBB213F01E0E05D092F884104EEA010182F884109B0600D4F0BD217892F88530C9B2134483F8881092F8A8300BB187F8A95092F885300133DBB282F8853092F87A
:4021400085301F2B88BF82F8856092F8851092F8AA309942D3D182F8A850D0E79081FF1F686500404865004008B501F0E5FF03680C2B00D0FEE7FEE770B437480278012A50
:402180002DD93649364D374C2A78237842F0100243F010032A70237091F8AB302F4DDA070ED4314E95F8AC20347843F0010344F0200485F8AB3034705AB1013281F8AC206B
:4021C000D1F8B03000210170002B43D070BC19201847264C237843F004032370EDE7244C5300DBB254F82360E51831782D7C0133DBB221EA050154F82350317023441E7C53
:402200002B78164923EA06032B70012391F8AB509340DBB21D42B5D004EB820625EA0303756981F8AB3022442B78147F92F8202023EA04032B700A4492F8AC30013BDBB2AF
:4022400082F8AC30002B9DD1084A137823F00403137097E770BC7047C580FF1F9081FF1F0D510040205A00400C510040105A0040C041000070B435480178012928D9344A9F
:402280003449334D0B7843F020030B7092F8AB3099070ED4304E95F8AC10347843F0020344F0010485F8AB30347059B1013182F8AC10D2F8B03001210170002B43D070BCED
:4022C00019201847254C237843F004032370EDE7234C4B00DBB254F82360E51832782D7C0133DBB222EA050254F82350327023441E7C2B78164A23EA06032B70012392F89B
:40230000AB508B40DBB21D42BAD004EB810625EA0303756982F8AB3021442B780C7F91F8201023EA04032B70114491F8AC30013BDBB281F8AC30002BA2D108490B7823F04B
:4023400004030B709CE770BC704700BFC580FF1F9081FF1F205A00400C510040105A0040C041000009490A4A0B7803F08003DBB20B700B7843F015030B70137803F0F303BE
:402380001370137843F00D0313707047065800400558004009490A4A0B7803F08003DBB20B700B7843F015030B70137803F0F3031370137843F00D03137070470A580040C6
:4023C0000958004070B41A4D87B02C466B4606466968286803AA03C254F80C0F2D7A6168082E03C3217A157019701ED8114C06AB1E442378104803F08003DBB2237016F8BF
:40240000181C237816F80C2C8900134301F00C010B432370037803F0F3030370037816F8182C43F00C031343037007B070BC7047E44100000258004001580040F8B501F08A
:4024400073FE3349334A0B78334D03F0FE030B701378324C43F0040313702B78064643F002032B702378482043F00203237091F8913A2B4F03F0FC0381F8913A92F8913AD1
:40248000A5F2473503F0F70382F8913A01F044FE95F84733234A03F0FD0385F847332178214B01F0FD0121701178204801F0EF011170117804F58C5401F0FE0111701A7809
:4024C000093402F0FE021A701A78194902F0EF021A703B78174A03F0F9033B70037803F0FE0303702B78304603F0FE032B70237803F0F70323700B7803F0FE030B701378F2
:4025000003F0FE031370BDE8F84001F011BE00BF004E0040014E0040F8460040F946004077580040AA430040BA430040A1430040A2430040B24300402DE9F04FC74C83B01C
:4025400094F8B430002B62D194F8B53003F0FF06002B5ED0C24D012384F8B43001F0E4FDC04A6B781178C04B41F0010111701178064641F0100111701A78BC4D42F00102C9
:402580001A701A78BA4C42F010021A702B78B94943F002032B702378482043F0020323700B7843F003030B7001F0B6FD2B78B24903F0FD032B702378B04803F0FD032370C5
:4025C0000B787A2443F006030B7004703046AC4AA1F5A6511378063943F0010313700B78A84D43F001030B705378013143F0010353700B78A44C4FF0005243F001030B703B
:402600002A60226003B0BDE8F04F01F091BD944DA4E749F25B10924D0123DFF8C4826B7084F8B66098F80030984A43F0100388F800301378964943F010031370E0230B70D0
:40264000DFF8A0E2934F944B02F5D05204218EF8001005323E701E701378AEF1030E43F0180313708D4B8EF80060A2F287221E7087F8F2620A271770894FA3F207331E70A4
:402680003E705B271772874F5E221A72A3F5286314223E701A706B780F2284F8BA2004EB830393F8B670804BA4F8B8001F706B787E4804EB8303B3F8B43003806F7884F81D
:4026C000BC60FFB2012F7FF446AF794B6FF4296CE644DFF814B2DFF814A24FF0F80C83F800C0DFF80C92DFF80CC28EF8001000F8091C8BF800208AF800604FF03F0A83F892
:4027000006A001F1804189F800608CF800608EF808604FF0030E80F808E001F5B141654A50200870DFF8D0A1132111702B2283F8862ADFF8C8E18AF800605F484FF0440A53
:4027400089F882AA5D494FF002095D4A4FF0480A8CF882AA8EF800904FF0120C4FF0280E80F80090EB2081F800C082F800E083F8910A01F0D9FC3D4B00901A78ABF20B7B9D
:4027800042F003021A7001939BF800204D494FF0520C42F0030250468BF8002081F800C001F0BAFC019B00981A78DFF854A102F0FC021A709BF8003003F0FC038BF800301A
:4027C00001F0B6FC4CF6CD433F4A5820DFF834C1DFF834E13D4910703D488AF800608CF800908EF800900E705672C4F8C03098F80020038802F007029BB2012B0FD0A1F57E
:40280000A7511A390978C9B2002A7FD1002B7DD1078098F8003003F0BF0388F800301B482C4E0278338802F007029BB2072B0ED013490978C9B2002A40F0A080002B40F01B
:402840009D8007233380037803F0BF030370224B224A1B68C3F8B4207DE600BF9081FF1FC580FF1FAA430040BA430040F8460040F946004091580040775800408258004063
:40288000A143004080E200E000E100E0024100401DE400E0975800409E580040885B0040835800408D5800400E4E00400C4E0040004E0040855800408E5800408F58004097
:4028C0009058004092580040945800409C580040804000400041004008ED00E0952000008240004096580040044E0040054E0040084E0040094E0040875800408C58004056
:40290000955800409A5800409B58004011F0010123D03D483D4F3E4E00224FF0010E327080F800E03A7010F8082C6E3702F07F0200F8082C3A7810070FD43046072227F874
:40294000803C32700378324A13F00103FAD1314E307800F0FE00307013702E4B1A78D20744D56FF468773B441A462B4801260321068019701378DE07FCD450E711F0010193
:4029800024D02248204F224E00224FF0010E327080F800E03A7010F80C2CF23702F07F0200F80C2C3A78100710D43046A7F5807707223B8032700378154A13F00103FAD1D2
:4029C000164E307800F0FE0030701370134B1A78D20712D5A3F568731A460F4807260321068019701378DB07FCD430E70C4A012010801A781143197011E70A4A07201080B3
:402A00001A781143197022E7104000401440004001400040A243004002400040A14300408040004000410040BD4BBE4ABE491A600B68BE4A43F40073BD480B600023032BB6
:402A400094BF50F82310BB490133302B42F8041FF5D12DE9F041B84BB84AB94909781A6072B6B84AB84D1378A5F13C0643F004031370002404EB440306EB4303AA88D86B34
:402A80000134002101F084FB062C05F10605F1D1AE4EAF4F002556F8043F13F0FF0E23F0FF0413D005F110530EF1FF3E03F139005FFA8EFE7044383340005B001A785978DE
:402AC000023383421155F9D101357544BE42E2D1A04BA14A0A2119701378A04943F0020313700B78A2F5863243F0020341F251260B70633A1378A1F5863143F040031370B4
:402B000051390A78964B42F010020A70954A964C03CB1060516003CB2060616003CBB23CC2F8F000C2F8F41093E8070003C422808E4A0C3303CBA4F6F6541060516003CB64
:402B400022788B4DDFF880C242F00802894F28606960DFF878E2227087488849612200248CF8002018253C80502219278EF80020834C0780834A0D70196826270320824B08
:402B8000277010701B78814F8148DBB23B70814B082724F8DE7C06801C78A2F5807211604FF4F07004F001041E4601F0B5FA01E0032C0DD033784FF4F07003F0010343EA16
:402BC000440401F0A9FA013D04F00304F0D1FEE744F24005704B714ADFF8F4E1704F714C4FF4807607211E8000201970022604214FF0480C10708EF800C018703E702170EC
:402C000092F89C33684843F0030382F89C33037807F5F82743F00103037092F89A330120033743F080034FF0810C604C82F89A338EF8F8C7387023780EF5C35EDBB2A7F5CD
:402C4000F4270EF1060EA7F2957703F0070C584CCB408EF800C03B70DFF878C180232370AEF2427E10248CF80040AEF80050092507F8035C05258CF85B5706258EF84E5705
:402C8000DFF8548187F8930140278CF8E7788EF8DC38082388F800408EF8EC388CF807398EF8FC088CF81569424E8EF80C09424888F86E30337020238CF875198EF86C3996
:402CC000077086F83C1088F8B8408CF8B119C2218EF8AC19394C5021DFF80081C175384F3849DFF8FCC086F87A30C4F800800E23A4F5BC54C7F800C002F29A3280F88C50AF
:402D0000A6F505760B70103C44270FCA8EF82E5A377007C423800EF62E2EBDE8F08100BF0CED00E00004FA0514ED00E0FC7FFF1F000000006921000008ED00E00080FF1FC7
:402D4000BC760040E8460040FC410000FCFFFF476C000048835800400350014013500140EC05004802510040C251004022510040325100408040004084400040864000404F
:402D8000004300400042004008010049A146004020420040254200400440004006400040014000400B400040A1430040CF0100490D5100408A5A0040C45A0040405B0040FE
:402DC000445B0040585B00400048004082400040084000401D510040145A00400802080216010202032827D814490123834091F8C420DBB213421FD030B4114D22EA030364
:402E000005EB8002146E81F8C4302844227890F8705090F8743022EA05022270194491F8C830013BDBB281F8C83023B9054A137823F00203137030BC704700BF9081FF1F18
:402E4000C0410000005B00402DE9F04F994E99B03378032B00F005813378022B00F0C880DFF85492DFF86C829349B8F80020B9F8003092B29BB29A4280F09A80B8F80030EC
:402E80009BB2002B00F0E1808C4DB8F800306F899BB25A24AB2204FB0354390A1E238DF800208DF801308DF802708DF803100DF107020023581C991CE61820442144367B71
:402EC0000333007B097B5A2B02F8020C02F8036C02F8011C02F10302ECD16B46002217A853F8041B834282EA0102F9D19DF85D109DF85C3072484B405340C2F30721594070
:402F0000C2F307434B400178013783EA12626F818DF85E20002936D06A4F6B4DDFF8E0B1DFF8E0C10DF1FF360DF15E0A16F8014F39782A780846D2B202F1FF3E8B1AC1EB65
:402F40000E0EA3F17F03BEFA8EFEB3FA83F34FEA5E1E5B098A4288BF7346002BE9D18A423FD00A0659BF0131C9B2012100200BF8004039709CF800309B0702D5534B022211
:402F80001A605645D2D1B8F80030514901339BB2A8F80030B8F80020B9F8003092B29BB232209A4208604B4910D219B0BDE8F08F494B93F85C2A22B1002283F85C2A83F83D
:402FC0005D2A19B0BDE8F04FFDF782B80B889BB2FF2B44D8D9B2382019B0BDE8F04F00F001BF9CF800305B07BBD43C4B1C70C8E7324D2B7A002BD8D039493A4A0B783A4890
:4030000003F0FE030B701378384903F07F03384F137001603B78002B00F07883314ADFF898901378362043F080031370B9F800309BB2FF2B94BFD9B2FF2100F0D3FE00239E
:403040002B723370FFF716F90CE70B8837209BB2FF2B94BFD9B2FF2100F0C4FE14E7FF21B9E7244CA378002BABD001F05DF8224B1D6801F05DF844F61F62E36BEB1A9342BA
:4030800042D8236CEB1A312B06D91C4B25641B6813B161791A2098472378013B072B90D8DFE813F065021702F601C801EA02D0020101DB007581FF1F7881FF1F5C82FF1FC0
:4030C0006081FF1F9181FF1F9081FF1F00E200E08481FF1F7681FF1F0C2C002048640040004E0040746500402465004080A903006F81FF1F6C3600207081FF1F4082FF1FD9
:403100009481FF1F686400402378073B012B1ED96779032F88BF39461AD8AC4DDFF8DC924FF09C0A4FF0000805EB4713DB699C20984707EB47020137FFB209EB8203042F23
:4031400009F822A0C3F8048083F80880ECD161799F4B00221B6822710BB11B2098479D4F9D4DFFF76BF900F05BFC08230020012109223B602B60A070E17022700023974990
:4031800033700B78964A974803F07F03964F0B7010603B782479002B00F0DC828F4A21461378112043F08003137000F01BFE8F4B1A78002A3FF405AF8D4A84F0770712780E
:4031C0000026AB25C220B5218DF803408DF804701E708DF800508DF801008DF80210002A3FF4EFAE6E46834F834DDFF83892DFF838C2DFF838B20DF105084FF0020A16F8F9
:40320000014B39782A780846D2B202F1FF3E8B1AC1EB0E0EA3F17F03BEFA8EFEB3FA83F34FEA5E1E5B098A4288BF7346002BE9D18A4200F087820A0659BF4B1CDBB2012334
:40324000002009F800403B709CF800309B0748BFCBF800A0B045D2D1B3E663795B48256900EB431081684669491B0029634A03EB4300B8BF494202EB8002B1425560604832
:4032800000F39682117A002900F09082012111724F4A126812B118209047637901330722637122708DE694F80580554DB8F1030F00F29A82464B1B6813B1414617209847C0
:4032C000504FFFF7BBF8414D39784FEA4816AB1903291A7926D8DFF840C101238B409CF80000DBB203421DD0DFF844E120EA03035EF821E044488CF800309EF8003010F8A4
:4033000001C0424823EA0C03415C41488EF80030435C013BDBB2435423B93E490B7823F002030B7001239340032ADBB222D83A4801780B421ED1DFF8F8E00B435EF822E09B
:40334000DFF8C4C003709EF800101CF802302F481943805C2E4B8EF80010195C41B9DFF8B4E09EF8001041F002018EF80010195C013119543A70FFF7DFF8164B2749042209
:403380001A600A78637942F001021C480A70354403EB4303298A10F82320002508236186A271637025626562A562258684F8345084F83550E562A56300F0B6FE184B1D7076
:4033C00000F0B6FE02232370FBE500BF3C4200004082FF1F80E200E000E100E0746500402465004080A903006F81FF1F7A81FF1F6081FF1F9181FF1F9081FF1FB0360020D8
:403400006C360020C780FF1F30420000344200005882FF1F005B00405482FF1F004E00405C82FF1F9481FF1F6864004000E200E0204200006279A84D5201AB189968236996
:40344000E069C91A0029B8BF49428142A34E03DAB079F161B361307315446A69914240F3E58161699D4A8B4200F0DA818B429179CCBF002301239C2988BF83F001035372E0
:403480000023FF210522E37163812172227098E56379914D226905EB4315AB6869699B1A002BB8BF5B42A0798B42E3616261A261207340F3BB8195F91820EB89002AB4BF99
:4034C0007C20BC20042263860026A071EB696270A4E0677900F028FE814B804D1A78002A00F06A814FF000085E6883F8008000F01FFE6B8EC5F83880002B40F071817649AF
:403500002A8E01EB4711286A01320F7B92B23044BA422A862862FFF454AD696AAA6A08443A4490FBF2F195F835602B622B8668622961AA623EB1EB6ACB1A002BB8BF5B4217
:403540000A2B40F3668194F8343001221344DBB2272BE16284F8343084F835205F4C7FF630ADA07900F032FB6378237029E566795A4B032E00F215815A4B1B6813B1314670
:4035800015209847584FFEF759FF534D38787601AB19FF2893F8048001D0FFF723FC012303FA08F3B8F1030FDBB21DD84F490A78134219D14E48134350F82800DFF848E14E
:4035C0000B7002781EF808304A491A4311F80810494B02705A5C2AB94848027842F0020202705A5C01325A5487F80080FEF7A4FF434B04221A60434963790A782E44B6F8C0
:403600000EE005EB431542F001029C200327EB69A4F832E000260A70A071677026626662A662268684F8346084F83560E662A663984700F079FD2A4B1E7000F079FD022366
:403640002370BEE46279244D5201AB189B682669E0699B1B002BB8BF5B4283421F4903DA8879CB618E6108732A445269934240F3DD8005232370A4E46179174D49016B1866
:40368000588A6789154AB84240F2BE80507A9B68126900287AD09A427ADBA6790F48002E00F0B280721ED2B2C3790272934200F2AB80D21A03EB5203D8B2B04200F0A48049
:4036C0002944CB8901370622638600266781A071CB696270A2E700BF3C4200006C3600205C82FF1F4082FF1FC780FF1F5482FF1F20420000344200005882FF1F005B004073
:4037000080E200E0004E004030420000FF23036042F8703C00F008FD474A137843F01003137000F005FD454A13781C0704D544490B6813781807FBD4424A0021012311702F
:403740003B706BE49CF800305B073FF574AD3E4B1C707FE53D49FF2313600B6000F0E4FC354A137843F01003137000F0E1FC334A13781D0704D532490B6813781807FBD4F9
:40378000304A0021012311703B7007E59A4284DDA6792F4AFF2E37D0731CDBB2D371127A84E70021072259711A700AE401216FE50021117201716BE500F0BAFCAB6B254A3F
:4037C00001339342AB637FF6FCAB47F6FF73A87919462B6100F0FAF96B782B70FFF7F1BB013B6B86FFF7EDBBFEF728FE00F018F9194A0823194F13600020012109223B6080
:40380000A870E9702A70B9E4002000F041F8FFF7D8BBA87900F0DAF96B782B70FFF7D1BB2B7EDB43C3F3C013537229E6012000F02FF8FFF7C6BB00BF976500406765004050
:40384000446500408765004048640040046500406C3600207F841E0080E200E000E100E0014B1870704700BF835B0040014B1870704700BF815B0040014B1870704700BFA0
:40388000805B0040014B1870704700BF825B00402DE9F84346F266635D4CD4F81880667988EAE872A2EBE8729A421ADD032E676900F08480DFF86481564B9C2003EB46136D
:4038C000DB6975009847AB1904EB83039C219F640F46002283F84C2083F844100023237116E081464B4B277B03EB4613DB69384675009847AB1904EB8303C3F8488083F8CA
:40390000447083F84C90DFF81481B9F1000FE5D0D8F80030DFF8049123B1394613209847D9F80030AA1904EB8202976CB7F5004F40DA17F5004F67DA374F8021002B32D092
:4039400014209847D8F80030F9B2DFF8D090002B55D014209847AB19D9F8002004EB83039F6C02B3390E1D209047D9F80030C7F30741C3B11D209847D9F800309BB1C7F310
:4039800007211D209847D8F80030F9B2234F53B11D2098473B6833B1354404EB850595F84C101620984763790122134463712270BDE8F8837F2147F6FF77BFE787EAE77270
:4039C000A2EBE7729A420ADDDFF85080D8F80030002B3FF471AF31461C2098476CE70D4B9C20DB6F98479C210023E76684F868100F4684F870300625DFF820806EE70C231F
:403A000003FB06439F6CBEE7C7F3072196E700BF6C3600203C4200000080FFFF4082FF1FF8B5FEF70BFD544A117801296BD953485349524C0B7843F020030B700378990750
:403A40000DD443F002034F48237003784E4943F0010303700B78002B4DD001330B704B4B01211B6811700BB119209847484949480A78032A1ED8012494400378E4B21C420E
:403A800019D0454D23EA040355F82250434C03702B78A65C424C23EA0603A25C414C2B70A35C013BDBB2A35423B93F4A137823F00203137003781A070CD443F008033B4CBC
:403AC00003702378374A63F07F03237013785BB10133137003230B70FEF72EFD344A137803F0FE031370F8BD2F48037843F0020303701378ECE790F8043943F0040380F819
:403B000004390B78A9E72B4C4B00DBB254F82360294D3078EF5C0133DBB254F8234020EA07003070ED5C2378144823EA05032370012304788B40DBB21C423FF479AF1F4D88
:403B400024EA030355F821501D4C03702B78665C1C4C23EA0603615C0B4C2B70635C013BDBB26354002B7FF463AF17490B7823F004030B705CE700BFC580FF1F3B82FF1F5E
:403B8000205A00400C5100403C82FF1F4082FF1FC780FF1F5482FF1F2042000030420000344200005882FF1F005B00403D510040004E0040C0410000D0410000D441000039
:403BC000DC410000E0410000105A004070B51A4C0D46236813B1014613209847B5F5004F04DA164EAE42B8BF2E4601E047F6FF7623681BB1C6F30721142098472368F1B235
:403C00000BB114209847236813B1290E1D20984723681BB1C5F307411D20984723681BB1C5F307211D2098472368E9B21BB1BDE870401D20184770BD4082FF1F0080FFFFDF
:403C40002DE9F043554B1B7803F00303012B40F28880022B00F08D80514B524A1B8812889BB243EA0243504A127812B14F4A002111704F491A460978012903D1002BB8BFD0
:403C80001F335A114B4B4C4C1A601D684B4901204B4A256008701278022A01D0BDE8F083484C2278002AF9D1474A484D10882988421E92B2B2F5007F34BF06464FF40076E1
:403CC00089B2B142EAD2424E318889B21D29E5D8404F31883F7801EB410189B2002F53D11B68B5F800E03C4F4FF05A0C1FFA8EFE0CFB0E7E5FFA83F80EF80180B5F800E038
:403D000001F101081FFA8EFE0CFB0E7EC3F307290EF80890B5F800E002311FFA8EFE0CFB0E77C3F307437B543388284901339BB233803388264E9BB21D2BAFD9002333808A
:403D40000B88B2F5007F03F101039BB20B802B8828BF4FF400709BB2834224BF012323709CE7104A0E4B12881B889BB243EA024379E70C4B0A49194A1B8809781278120260
:403D800042EA03430B436EE7154F3B6803F1010EC7F800E023F07F43A3E700BF144E0040104E0040124E00404C82FF1F4682FF1FC680FF1FE03600206082FF1F5C82FF1FDF
:403DC0007581FF1F6482FF1F5081FF1F7881FF1F5281FF1F5C81FF1F6882FF1F114E00405881FF1F2DE9F04F2E4A2F4B12781C78D2B282F0C4034B4083B04340AB26C425FE
:403E00008DF802008DF803108DF804208DF805308DF800608DF80150002C38D06E46DFF894E0224DDFF89090DFF890C0DFF890B00DF106084FF0020A16F8014B9EF8001017
:403E40002A780846D2B2571E8B1A7F1AA3F17F03B7FA87F7B3FA83F37F095B098A4288BF3B46002BECD18A4214D00A0659BF0131C9B20121002009F800408EF800109CF819
:403E800000309B0748BFCBF800A04645D4D103B0BDE8F08F9CF800305F07E6D4044B1C70F3E700BF7581FF1F6081FF1F9081FF1F486400409181FF1F9481FF1F68640040CA
:403EC00000E200E010B5244A244B25491B781368013313600B78BBB1224A13780133DBB213701378ABB9204A20491378204803F07F03204C13700860237883B11A4A1378D2
:403F000043F08003137010BD03F0FF02154B1A70E9E7194B0020012110701970E3E7FF230B6042F8703C00F0FFF8144A137843F01003137000F0FCF8084A1378190704D58E
:403F40000F490B6813781B07FBD40E4A0021012311702370D2E700BF7081FF1F67650040693600204C81FF1F746500402465004080A903006F81FF1F6836002097650040F6
:403F80004465004087650040F8B54D4B4D4C1B78580607D533202178FFF724FF2378012B49D0F8BD34202178FFF71CFF4649474A0B78474803F0FE030B701378454903F0FC
:403FC0007F03454D137001602B78C3B13F4A434F1378434E43F08003137000F0A5F8414D4149424A00233B8033702B800B801370237000F09DF8BDE8F840FEF73BB9FF23D7
:40400000036042F8703C00F08FF8394A137843F01003137000F08CF8364A1378190704D535490B6813781B07FBD4344A0021012311702B70CAE7324F23493E780B783148D5
:40404000224A03F0FE0305880B7013782E4903F07F03284813706A1E1023B2F5007F0078F6B20B6028BF4FF4007500F05DF80036DFF868C0DFF868E01A494FF0000318BF4E
:404080000126194A3E70ACF80030184F8EF800301E4E0B801E49138002220B803B703360227000F045F8FF2D94BFE9B2FF213520FFF798FE044A137843F001031370F8BDD7
:4040C000C15100407581FF1F004E0040746500402465004080A903006F81FF1F5281FF1F5481FF1F7681FF1F7881FF1F6482FF1F976500406765004044650040876500403F
:404100005C81FF1F5081FF1F80E200E05881FF1F6682FF1F000000000230800803D000BF01380046FCD17047EFF3108072B6704780F31088704700BF014B1868704700BFF3
:404140002881FF1F0E4B70B51E460E4C0025E41AA410A54204D056F8253098470135F8E700F0C0F8084B094C1E46E41AA4100025A54204D056F8253098470135F8E770BD09
:40418000F0420000F0420000F0420000F842000003460244934202D003F8011BFAE7704700000000011121314161536373000000080901010507070404000000ABC000C0C2
:4041C0000D510040205A0040205A004024430040101020000C5100400C5100402001000000000000011121314161536373000000080901010507070404000000405100403D
:40420000300000000140001000140140000800400140000A004C01400002005001402000FD510040FD5100403D5100403D510040082040800000000018000000BC4200001F
:4042400000000000000000002000B80B88130C00FA0000000100000085380000C442000001000000000000002000983AC05D0C00FA0000000100000079380000CC42000020
:4042800002000000000000002000401FE02E0C00FA000000010000006D380000D842000003000000000000002000701728230C00FA000000010000006138000047454F5FDA
:4042C0005047410047454F5F4250000047454F5F414444455200000047454F5F4C50000043000000F8B500BFF8BC08BC9E46704799000000292A0000F8B500BFF8BC08BC18
:404300009E4670477500000018430000C080FF1F70000000B8B500000000000008FF01FF0000000000000000000000000000000000000000000000000000000000000000D0
:40434000E04200000000000000000000000000000000000000000000000000000000000000000000000000000000000000000000000000000000000000000000000000001B
:40438000C880FF1F00000000000000000000000000000000000000000000000000000000000000000000000000000000000000000000000000000000000000000000000097
:4043C00000000000000000000000000000000000000000000000000000000000000000000000000000000000000000000000000000000000000000000000000000000000BD
:40440000000000000000000000000000000000000000000000000000000000000000000000000000000000000000000000000000000000000000000000000000000000007C
:40444000000000000000000000000000000000000000000000000000000000000000000000000000000000000000000000000000000000000000000000000000000000003C
:4044800000000000000000000000000000000000000000000000000000000000000000000000000000000000000000000000000000000000000000000000000000000000FC
:020000040003F7
:0200000480007A
:4000000002520040016400400365004001070140630801403A090140391401402E1501403B1601401C1701404F180140321901404C1A0140481B01400640014003410140C3
:400040000342014007430140024401400145014003460140014701400948014008490140084C01400A4D0140075001400251014009200C04880F870D88388972E602000AC0
:4000800001030304040406080C0A1103120A13041D031E081F0C230824012B052D0A2F04300834013606370F38803B803E114046410146E047CB483849FF4AFF4BFF4EF01D
:4000C0004F44500C54015604580459045A045B045C115D115F0166C06A406B02800C82718410864087268C108EAC90DC9158922293069A039B109D629F0CA009A162A2D066
:40010000A31CA414A901AA20AF18B0E0B11EB360B41FB501B908BA02BB02BF14C003C504C9FFCA07CBFFCC40CD20CEF0CF05D008D804D904DA04DC11DD01DF01E040E1A8C8
:40014000E240E32001020220030104080501070109020A040D020F02100811081240161019231A041D401E881F40200421062680270129612A412C082F42310232A033028C
:400180003501368038083F024104460147014A204C04500C54105504561057015D105E8967408740C0BDC29AC42ECABDCC9DCE82D092D220D6F0D8800401100413011B01E5
:4001C0001C071D01240227012E07340737013B80402549FF4AFF4BFF4F0150185280580B590B5A0B5B0A5C995D995F016040624064406540668068806A806C806E80C06525
:40020000C9FFCAFFCBFFCD83CE03CF01D018D608DA08DB04DD99DF01E040E240E440E540E680E880EA80EC80EE80000409821220134018041B1021802B103002318032208C
:40024000400448024C024F205E805F20640567027280734078057F01940497029B209C019E80A002A102A260A710AE40AF28C004C209C405CA02CC0DD004D238D630D8300F
:40028000DE13EC10EE041B012F013501406449FF4AFF4BFF4D834E034F01501859085A085C905D095F016040624064406540668068806A806C806E809A01AE01AF01B50143
:4002C000B601BE40C025C5ECC720C823C9FFCAFFCBFFCD83CE03CF01D018D401D804D90BDA0BDB0BDC90DD99DF01E040E240E440E540E680E880EA80EC80EE8009201002B3
:4003000019402120222027082A802C02362040044502480249054F2050025102594578017F01C202C401CA18CC20D084D228D60BDE11E220000202040601100412021A01ED
:400340001F013001340637013E114063410542024404450C47E0482149FF4AFF4BFF4C624DA04EF04F41500C54185604580459045A045B045C905D115F01664067026910F7
:400380006A306B106D106E106F128403851389138C039005920894129502960897059A039C0B9D109E14A203A41CA81CA901AB26AE03AF08B003B120B303B510B61CB70C79
:4003C000BF40D602D713D804D904DB04DC11DD10DF010004020204080640071009290A010E800F08115519421A011F21212A230A264029603108324036803914471A4E06B1
:400400004F08560159015D02674A69146A807080710472088B40AC10AE01B110B301B404C035C25FC40FCA0CCC1ACE06D0E0D230D681D8B0E220001C020304130508060C98
:400440000C1F0D190F0210011301140215181A031B061C031D191F0420082110240425072718280C29012C1F2D1F3010340F371F38083A203B803E055608580459045B0434
:400480005C115D905F0180068201850488018A068D0C8E088F039006910F920198029B029C049D08A10EA208A301A503A601A70CA806A90CAC07B007B208B50EB701B98097
:4004C000BA02BB02BE04D804D904DC11DF01008601410340051006010740082009290A010CC00E400F0410851104120214251701180419111A181B201C801E401F0420023A
:40050000240826022701284129202B202C042D012F203004312633403460360239443A083B043C803E08588062C0821088809201940C95419608970899249A099D019E4015
:40054000A080A12BA682AB20B521C0DDC2DFC4FFCAEFCCBFCE5AD608D808E001EC103010320836243B10CCF0CE1097109C10A62C97109C10A62C1208862097109C10A62CD6
:40058000C440E6407D20DE01A5104508A510D001A51825102A102B08881097109C10A604C820CA10AA04AE10AF18B510E840EA10EC40EE20001062019A01A518B601C002BF
:4005C000D802EC02101081108810A510B410B508C408E204EA08EC0800020C02100211011B011C021D0100EF01030000000000000000BB00400000000000000000000000A2
:40060000000028002000040B2B002000100000000002020000000000000000000000D400070018010000000000000000000000000000000000000000000000000000000010
:40064000000000000000000000000000000000000000000000000000000000000000000000000000000000000000000000000000000000000000000000000000000000007A
:40068000000000000000000000000000000000000000000000000000000000000000000000000000000000000000000000000000000000000000000000000000000000003A
:4006C00000000000000000000000000000000000000000000000000000000000000000000000000000000000000000000000000000000000000000000000000000000000FA
:4007000000000000000000000000000000000000000000000000000000000000000000000000000000000000000000000000000000000000000000000000000000000000B9
:0200000490006A
:0400000000004005B7
:0200000490105A
:04000000BC90ACAF55
:0200000490303A
:0200000095D594
:0200000490402A
:4000000000000000000000000000000000000000000000000000000000000000000000000000000000000000000000000000000000000000000000000000000000000000C0
:400040000000000000000000000000000000000000000000000000000000000000000000000000000000000000000000000000000000000000000000000000000000000080
:400080000000000000000000000000000000000000000000000000000000000000000000000000000000000000000000000000000000000000000000000000000000000040
:4000C0000000000000000000000000000000000000000000000000000000000000000000000000000000000000000000000000000000000000000000000000000000000000
:0200000490501A
:0C00000000012E16106900012E31A63EF2
:00000001FF