:400000000080002011000000BD490000BD490000144A80B5144B1268144F1A60F7B1144E002556F80C4C56F8080C56F8102C234638B1043A52F8041F43F8041B191B8142AB
:40004000F8D156F8040C1A4620B142F8045BD11A8842FAD1013F06F11006E2D105F00AFF01F0D8FDFA460040BC76004001000000846C000010B5054C237833B9044B13B1B8
:400080000448AFF300800123237010BD3881FF1F0000000078620000084B10B51BB108490848AFF300800848036803B910BD074B002BFBD0BDE81040184700BF0000000057
:4000C0003C81FF1F78620000C080FF1F000000002DE9F04F0126B246DFF87882DFF87892DFF8A4B28FB0CBF800A098F8000099F8001001248842974A974B00F0D08010784D
:4001000019781B788842127828BF20339B1A934ADBB21660002B00F0D1809149CBF8006098F8002099F800300878D2B2DBB210B99A4200F0BD80531CDBB2202B894828BF3C
:400140000023805C88F800300A78854CC3B20AB100222270814A844916600A78052A00F2A480DFE802F0927D73150C037F4A8048D37003230B70002313700370B3E77B4A78
:400180007B48937005230B70002313700370AAE7764C77480022227002700A706278A178E0784A4042409A429DD1724B1A7852B96278C12A02D06278A52A94D16178212051
:4001C0001E7003F0B1FF6378684AC12B03D05178302003F0A9FF684B684A1B783221032B1160637875D0A33B152B3FF67CAF01A252F823F01B080000E70000008D080000A7
:4002000067040000E7000000E70000000B050000B1050000E7000000E7000000E7000000E7000000E7000000E700000081060000E70000004D0D0000ED0D0000090F00007B
:400240008D030000A5090000910A00004748484C837000220323C2700B700270227042E703F15D02414C424DD2B200201E2A2070287005D8424806FA02F7384008BB22B37A
:40028000002323702B700B702DE7AB2B7FF42BAF3648374A00230E700370137023E730490B784BB12D4B1E6038E700230B701AE7344B1B78DBB24DE7284B1C600FB0BDE8C9
:4002C000F08F022263700A700DE7042263700A7009E7A53B1C2B00F2C18701A252F823F04B110000A51000005D1200005D120000A5100000A51000005D1200005D1200001F
:400300005D1200005D1200005D1200005D120000A51000005D120000A5100000A5100000011000005D1200005D1200001D0F00005D1200005D1200005D1200005D1200009C
:400340005D1200005D1200005D1200005D120000E7000000F6360020D136002000E100E0F4360020D4360020B13500205481FF1FB03500208581FF1F483700209481FF1F3E
:40038000CC403F404865004080E100E0AF4B1878742370B101280AD9AD4B02281D7B06D003281C7E03D093F8241001F2278274230020A84A8DF82B001278AB208DF82C3024
:4003C000C221B6238DF828008DF829108DF82A30002A36D0DFF8A4C29F4B0AAF17F8015B9CF8000019780446C9B201F1FF3E421AC0EB0E0EA2F17F02BEFA8EFEB2FA82F2C8
:400400004FEA5E1E5209884238BF7246002AE9D1884201F00B8001065ABF421CD2B201228E4948BF00248CF800208D4A0D551278920702D58B4A022111600DF12D02BA4279
:40044000CCD1894B1B78022B3FF44DAE874B88491A780B7802F0020282F0020203F0FD0313430B703FE6A378DBB2082B41F2618180490B78774A83F064018DF82B301278D1
:40048000AB238DF82C108DF82830C221A6238DF829108DF82A30002AD3D0DFF8E0C16E4B0AAF17F8015B9CF8000019780446C9B201F1FF3E421AC0EB0E0EA2F17F02BEFA5D
:4004C0008EFEB2FA82F24FEA5E1E5209814288BF7246002AE9D1814200F09F8702065ABF421CD2B201225D4948BF00248CF800205B4A0D551278900702D55A4A02211160EF
:400500000DF12D02BA42CCD19BE7A378AB20DBB2082B8BBF584B584A1B7813704D4A8DF82B30127883F06B038DF82C30C221A9238DF828008DF829108DF82A30002A80D0F2
:40054000DFF838C1444B0AAF17F8015B9CF8000019780446C9B201F1FF3E421AC0EB0E0EA2F17F02BEFA8EFEB2FA82F24FEA5E1E5209814288BF7246002AE9D1814200F0DB
:40058000438702065ABF421CD2B20122334948BF00248CF80020324A0D551278900702D5304A022111600DF12D02BA42CCD148E7A378284ADBB283F068018DF82B301278C7
:4005C000AB238DF82C108DF82830C221AA238DF829108DF82A30002A3FF433AFDFF89CC01D4B0AAF17F8015B9CF8000019780446C9B201F1FF3E421AC0EB0E0EA2F17F02F4
:40060000BEFA8EFEB2FA82F24FEA5E1E5209814288BF7246002AE9D1814200F02B8702065ABF421CD2B201220C4948BF00248CF800200B4A0D551278940702D5094A0221C8
:4006400011600DF12D02BA42CCD1FAE67681FF1FE0370020493700204B3700204C3700206A64004000E200E0483700202151004020510040C480FF1F9C81FF1F4A37002022
:400680006D4B6E4D1F4600932B7803F0FE032B7005F042F904F09AF92B7803F0FE032B7005F03AF93878FF2801F03F8003283ED00428634B1ED806FA00F11A78C9B21142AB
:4006C00019D0604D22EA010255F820505E491A702A780F5C5D4922EA0702095C5C482A70425C013AD2B2425422B95A490A7822F008020A701A780098FF210170110713D4B9
:4007000042F0080254491A700A78514B62F07F020A701A7832B991F8C32942F0080281F8C3291A7801321A70009A032313704B4B04931B78002B40F0DC8704F047F93F4A8B
:40074000474D137803F0FE03137005F085FB454A0023E380444923722B801380434A0B701380E360424B1E7005F07AFBA1883220FF2994BFC9B2FF2103F0D6FC3C4B3D4A32
:400780001B781278DBB283F073018DF82B30AB238DF82C108DF82830C221B1238DF829108DF82A30002A3FF44CAEDFF8DCC0324B0AAF17F8015B9CF8000019780446C9B2B3
:4007C00001F1FF3E421AC0EB0E0EA2F17F02BEFA8EFEB2FA82F24FEA5E1E5209814288BF7246002AE9D1814200F03B8602065ABF421CD2B20122214948BF00248CF80020A6
:400800001F4A0D551278910702D51E4A022111600DF12D02BA42CCD113E6A378E178312043EA012109B28BB2FF2B94BFC9B2FF21A38003F079FC56E4CC80FF1F004E004058
:40084000CC370020306800002868000020680000D0370020005B00403D510040DC3700208681FF1F8881FF1FAA81FF1FAC81FF1F48370020493700204B3700204C3700207E
:400880006A64004000E200E04A370020012004F0F1FD3B2004F0EEFD734B00931B78002B3FF421AC714FDFF8E4C1714B17F8015B9CF8000019780446C9B201F1FF3E421AA3
:4008C000C0EB0E0EA2F17F02BEFA8EFEB2FA82F24FEA5E1E5209814288BF7246002AE9D1814200F0B58502065ABF421CD2B20122604948BF00248CF800205F4A0D551278E3
:40090000900702D55D4A022111605D4ABA42CDD1009AAB21C3208DF828101278B8218DF829008DF82A100B2070218DF82B008DF82C10002A3FF4D7AB0AAF17F8015B9CF833
:40094000000019780446C9B201F1FF3E421AC0EB0E0EA2F17F02BEFA8EFEB2FA82F24FEA5E1E5209884238BF7246002AE9D1884200F0658502065ABF421CD2B201223D499A
:4009800048BF00248CF800203B4A0D551278900702D53A4A022111600DF12D029742CCD1FFF7A1BBA378374D003318BF01232B702B78002B41F00F802B78334A003318BF5C
:4009C000012313702B780BB1002363822B78264ADBB283F075018DF82B301278AB238DF82C108DF82830C221B7238DF829108DF82A30002A3FF425ADDFF890C01C4B0AAFBA
:400A000017F8015B9CF8000019780446C9B201F1FF3E421AC0EB0E0EA2F17F02BEFA8EFEB2FA82F24FEA5E1E5209814288BF7246002AE9D1814200F0D68402065ABF421C55
:400A4000D2B201220B4948BF00248CF800200A4A0D551278900702D5084A022111600DF12D02BA42CCD1ECE449370020DC6400004B3700204C3700206A64004000E200E08D
:400A8000E0640000A881FF1F7B6400404A370020974B1A78002A40F0D585964BAB21C2221B788DF828108DF82920B8217B228DF82B608DF82A108DF82C20002B36D0DFF8F6
:400AC00080C28D4B0AAF17F8015B9CF8000019780446C9B201F1FF3E421AC0EB0E0EA2F17F02BEFA8EFEB2FA82F24FEA5E1E5209884238BF7246002AE9D1884200F0038555
:400B000002065ABF421CD2B201227C4948BF00248CF800207A4A0D551278900702D5794A022111600DF12D029742CCD1764B1B6813B1002101209847002302930193734BB0
:400B4000734D0593734B744F0093744B0493059B9DF804201B780392934200F2BC846A7BA97B8A4202EB010340F22B8598B2511AFF28CCB200F22985A24280F05C8504F060
:400B8000CBFE009B1A782B79FF2A2DD0934257D0042A26D8624806FA02F190F800E0C9B211EA0E0F1DD0DFF89CC12EEA01015CF822C0DFF894E101709CF800001EF802E0FB
:400BC000584920EA0E0E895C57488CF800E0425C013AD2B2425422B954490A7822F008020A700099FF220A70FF2B29D0042B25D84B4906FA03F20878D2B202421ED1DFF8A9
:400C000044E102435EF823E0DFF83CC10A709EF800001CF8032043490243C95C42488EF80020425C42B9DFF804E19EF8002042F008028EF80020425C01324254009A13703F
:400C4000049B1B78002B40F08D8403F0BFFE2B6920469847364805F0F7F82B4B1B6843B303992D209847AB681A46274B03921B68110EF3B12A20984723490B68CBB1039A53
:400C80002A20C2F3074198471F49039A0B68C2F3072173B12A2098471B490B689DF80C103BB12A209847184B1B6813B1214613209847204A4EF66023117801F0FE01117081
:400CC00010781D4940F00100107009E00A78D2B2013B9BB2002A40F0D982002B00F05F843A78002AF2D1154A127802F00102EFE748370020493700204B3700204C37002053
:400D00006A64004000E200E0103800207681FF1F94670000CC80FF1F00370020DC370020CC37002020680000D0370020005B004080FC0A00004E0040F9360020014E004018
:400D40004A3700203068000028680000A3783A20003318BF01232374217C03F0E5F9237C974D002B00F03D8403F030FD9549964A0B78AD8803F0FE030B701378934903F044
:400D80007F03934813706A1E4023B2F5007F00780B6028BF4FF400758E4F05F05DF88E49002326748D4AE38023723B800B808C491370E3600B808B4B02221A7005F050F809
:400DC000A388B3F5007F03D9FF213E2003F0ACF9FF2D94BFE9B2FF21352003F0A5F9794A137843F001031370FFF77DB9392004F041FB7D4BAB21C2221B788DF828108DF885
:400E00002920B42177228DF82B608DF82A108DF82C20002B36D0DFF8E4C1744B0DF1280E00941EF8017B9CF8004018782546C0B2411E221A091BA2F17F02B1FA81F1B2FAB8
:400E400082F249095209A04288BF0A46002AECD1A04200F0D18220065ABF621CD2B20122634948BF00258CF80020624A4F551278910702D5604A022111600DF12D02724581
:400E8000CFD1009C03F0A2FC4E494F4A0B78A58803F0FE030B7013784C4903F07F034C4813706A1E4023B2F5007F00780B6028BF4FF40075474F04F0CFFF47490023237435
:400EC000464AE38023723B800B8045491370E3600B80444B02221A7004F0C2FFA388B3F5007F03D9FF213E2003F01EF9FF2D94BFE9B2FF21352003F017F9324A137843F0D1
:400F000001031370FFF79DBA012003F0B7FA354B1B78022B7FF49AAAFFF7E5B8314B1220197803F001F9304BAB22C2218DF828201B78B8228DF829108DF82A2000217A22B3
:400F40008DF82B108DF82C20002B3FF4CCA8DFF8ACC0264B0AAF17F8015B9CF8000019780446C9B201F1FF3E421AC0EB0E0EA2F17F02BEFA8EFEB2FA82F24FEA5E1E520972
:400F8000814288BF7246002AE9D1814200F08B8202065ABF421CD2B20122154948BF00248CF80020134A0D551278900702D5124A022111600DF12D029742CCD1FFF793B8ED
:400FC0005481FF1F004E00407565004080E200E0676500408681FF1F8881FF1FAA81FF1FAC81FF1F48370020493700204B3700204C3700206A64004000E200E04A37002033
:40100000994B1220197803F08FF8984BAB22C2218DF828201B78B5228DF829108DF82A20002177228DF82B108DF82C20002B3FF45AA8DFF854C28E4B0AAF17F8015B9CF80F
:40104000000019780446C9B201F1FF3E421AC0EB0E0EA2F17F02BEFA8EFEB2FA82F24FEA5E1E5209814288BF7246002AE9D1814200F0298202065ABF421CD2B201227D4950
:4010800048BF00248CF800207B4A0D551278900702D57A4A022111600DF12D02BA42CCD1FFF721B86178122003F03EF863786F4ADBB2127883F0C204AB208DF82A30C221B0
:4010C00000238DF82C408DF828008DF829108DF82B30002A3FF407A8DFF8ACC1644B0AAF17F8015B9CF8000019780446C9B201F1FF3E421AC0EB0E0EA2F17F02BEFA8EFEDA
:40110000B2FA82F24FEA5E1E5209814288BF7246002AE9D1814200F0CE8102065ABF421CD2B20122534948BF00248CF80020524A0D551278900702D5504A022111600DF124
:401140002D02BA42CCD1FEF7CEBF3B2004F092F9464B00931B78002B3EF4C5AF484FDFF828C1434B17F8015B9CF8000019780446C9B201F1FF3E421AC0EB0E0EA2F17F0223
:40118000BEFA8EFEB2FA82F24FEA5E1E5209814288BF7246002AE9D1814200F07C8102065ABF421CD2B20122324948BF00248CF80020314A0D551278900702D52F4A022184
:4011C0001160304ABA42CDD1009AAB21C3208DF828101278B8218DF829008DF82A100B2070218DF82B008DF82C10002A3EF47BAF0AAF17F8015B9CF8000019780446C9B2D3
:4012000001F1FF3E421AC0EB0E0EA2F17F02BEFA8EFEB2FA82F24FEA5E1E5209814288BF7246002AE9D1814200F02D8102065ABF421CD2B201220F4948BF00248CF8002080
:401240000D4A0D551278900702D50C4A022111600DF12D029742CCD1FEF745BF6178122002F062FFFEF73FBF48370020493700204B3700204C3700206A64004000E200E092
:40128000DC640000E06400004A370020A24B1B7803F00303012B40F2C681022B00F090839E4B9F4A1B8812889BB243EA02433A7812B19C4A002111709B499C480A781C4644
:4012C00002F0FE020A700278012A00F083811A46190E974B03921B68BBB12E209847944B039A1B68C2F307417BB12E209847904B1B6853B1039A2E20C2F3072198478C4B9A
:40130000E1B21B680BB12E209847019B029A01330C32042B019305F1140502927FF417AC04F0FAFA009B1878FF2800F0CF8303283ED004287F4B1ED806FA00F11C78CAB2C6
:40134000224219D07C4924EA020251F820407B491A7022780D5C7A4922EA0502095C79482270425C013AD2B2425422B976490A7822F008020A701C780099FF220A7022072B
:4013800013D444F0080271491A700A786D4B62F07F020A701A7832B991F8C32942F0080281F8C3291A7801321A70009A03231370049B674C1B781BB104F0E0F800232370E5
:4013C00003F004FB584A6349137803F0FE0313700B7802F5B352003302F11B0218BF01231370FFF72EB85C4A127851073FF525AB5A4A1570FFF733BB574A127852073FF53E
:401400002AAD564A177038E5534A127851073FF5B8A8524A1570FFF7C6B84F4A127851073FF55CA84D4A1570FFF76AB84A4A127852073EF5F0AF494A1570FEF7FEBF464A5F
:40144000127851073FF596AA444A1570FFF7A4BA414A127851073FF546AA404A1570FFF754BA3D4A127851073FF5C0A93B4A1570FFF7CEB9384A127851073FF5D0A8374AED
:401480001570FFF7DEB8344A127851073FF5CEAE324A1570DCE6304A127851073FF57FAE2E4A15708DE62C4A127851073FF570AD2A4A15707EE5284A127851073FF52DAEB3
:4014C000264A15703BE6244A127851073FF5D2AD224A1570E0E56A7BA97B214B02988A42C05C02EB010363D9521A99B2FF29D4B262D8A042FFF443ABDBB2984228BF1846EB
:401500000446FFF73CBB144A127851073FF5F8AA124A1570FFF706BB144E0040104E0040124E0040F9360020004E0040C880FF1F10380020CC3700203068000028680000F0
:4015400020680000D0370020005B00403D510040DC370020A881FF1F6A6400404A640040E03700208D4A1378D90613D523F0100313708B4B8A491B788A4A03F07F030B70D4
:401580001378013BDBB2137023B9874A137823F008031370049A00231370FFF756BB194682481A4603780C4603F0FE03037090E69AB2FF2AA0D90024844238BF0446FFF7EE
:4015C000DEBA99B2FF2936D90024944238BF1446FFF7D5BA002BB8BF1F335A111446110E77E6724A724D137803F0FE03137003F0EDF87049704A0B78704803F07F030B70D9
:4016000010602B78002B00F046826A496C480A78002342F080020A706A4AE380237203701370FEF760BD684B1A88023B1B889BB243EA02433BE6DBB29A4228BF1A461446A7
:40164000FFF79DBA1978122002F06EFD5F4BAB22C2218DF828201B78B8228DF829108DF82A2000217A228DF82B108DF82C20002B3EF4E7AEDFF880C1554B0AAF17F8015BC0
:401680009CF8000019780446C9B201F1FF3E421AC0EB0E0EA2F17F02BEFA8EFEB2FA82F24FEA5E1E5209814288BF7246002AE9D1814217D002065ABF421CD2B20122454962
:4016C00048BF00248CF80020434A0D551278900702D5424A022111600DF12D02BA42CDD1FEF7AFBE3C4A12785107E3D43C4A1570F2E72A4A1378D80612D523F0100328498D
:4017000013700B78274A03F07F030B701378013BDBB2137023B9244A137823F008031370049A00231370FFF708B81C4B1A78FEF7E5BF2C4A06AC174610685168157A03C45D
:4017400057F80C0F0AAA79683F7A03C2264827492570274D177003700B702A780EA802F08002D2B22A70034413F8104C2A7813F8200CA40004F00C04024322431D482A70CE
:40178000027802F0F3020270027813F8104C42F00C0323430370FEF76CBE00BFCC3700201D510040D0370020005B0040004E00407F81FF1F756500402465004080A903002F
:4017C000AA81FF1F48370020124E0040493700204B3700204C3700206A64004000E200E04A64004084620000CB80FF1FC480FF1F02580040015800404A3700204FF6FF7283
:401800001B788DF81C108DF81930CA2100238DF81B4006A88DF81A508DF82A308DF82B308DF82C308DF81D308DF82D308DF81E308DF82E308DF81F308DF82F308DF8203074
:401840008DF830308DF821308DF831308DF822308DF832308DF823308DF833308DF824308DF834308DF825308DF835308DF826308DF836308DF827308DF837308DF8181088
:401880000AAC10F8013B510883EA020581F4044215F0010F82F0080218BF11464D0881EA530111F0010F85F4044282F0080208BF2A46510881F4044582EA930212F0010F26
:4018C00085F0080518BF29464A0882F4044581EAD30111F0010F85F0080514BF294611464A0882F4044581EA131111F0010F85F0080514BF294611464A0882F4044581EA5C
:40190000531111F0010F85F0080514BF294611464A0882F4044581EA931111F0010F85F008050CBF114629464A0881EAD31382F4044113F0010F81F0080118BF0A46A042DF
:401940009FD1D343C3F3072242EA0323C3F307228DF828308DF8292004F07EFA9349944A0B78944D43F008030B70137843F00803137004F075FA04F06FFA2B780146002BC2
:4019800000F0DE8004F06CFA04F066FA8749884A0B7843F008030B70137843F00803137004F05EFA04F058FA2B780146814A002B00F08F8004F054FA74230020FEF7F9BCED
:4019C0007D4B7E4A7E491B8809781278120242EA03430B436BE47B4A7B4F13787B4943F01003137097F800E03A78794B3F2002F0FE023A7008704FF40072187075495FFA6C
:401A00008EF37548009304F02BFC4FF400727349734804F025FC6E4B724A0020F82118701170009BDB0703D53B7843F001033B70644A654F1378654943F01003137097F8E5
:401A400000E03A78624B3F2002F0FE023A7008704FF4007218705F495FFA8EF35E48009304F0FEFB5A4B5F4A0020F82118701170009BD80703D53B7843F001033B7004F064
:401A8000EBF9594B00221A7004F0EAF9574B10221A60FEF791BFFF23136041F8713C04F0DBF9534A137843F01003137004F0D8F9504B1A78120704D54F490A681A781707B6
:401AC000FBD44E4B00221A702E709EE54C4B1C7855E44C4B16701A68D00708D51A6822F001021A6000BF00BF00BF474B1E60084604F0B6F906A8002103F060FE00287EF4F1
:401B000056AC04F0A9F92949294A0B7843F008030B70137843F00803137004F0A1F903F09FFD00287EF443AC2046012103F046FEB0FA80F0400980F07403DBB2FEF739BC7A
:401B4000304B2E701A68D00708D51A6822F001021A6000BF00BF00BF2B4B1E60084604F07FF92A4B1A7890071CD5294AB6211170E0200D21107011701A78910706D41F4628
:401B8000182004F061F93B789B07F9D51F4B1A78920707D51B789B0804D103F043FD03F081FDF1E603F03EFDEEE600BFA0430040B0430040D1370020124E0040114E004007
:401BC000104E0040A643004080C7004088C700408CC700404468000000C00040446A000000C2004084C70040A081FF1F80E200E097650040676500404465004087650040B0
:401C0000CC37002004000840D437002022470040204700402DE9804883B062B6B04B1A78002A01F0638004F017F9AE49AE4D0B78AE4A43F020030B702B78012443F01003B6
:401C40002B7014608B78AA4E43F010038B700225A1F503513639356015600B78A54A2B430B7013782B43137004F0FAF8A24BA34A20461A6003F0FEFB04F0EEF8A049A14A7E
:401C80000B7843F008030B70137843F00803137004F0E6F803F0E4FC002801F0058004F0DBF89749974A0B78974C43F008030B701378C82543F00803137025700B7B43F02B
:401CC00010030B73137B01F5587143F0100313730B789D06FCD58D4D04F0C2F88C4E2B78347853B98B4B01222A701A7802F0FC021A701A7842F003021A708749874A0B7870
:401D0000874843F060030B7013786F7843F00403137003787D4943F004030370002F00F04E878049804A0B787B4843F002030B701378A97843F0020313700378734F43F04F
:401D400080030370002900F01F877649764A0B78714843F004030B701378E97843F0040313700378694F43F080030370002900F0F0866C486C490378674A43F00803037064
:401D80000B7843F008030B70137843F08003137003F030FC03F016FC2B795C4943B9634A01201378087103F0CF0343F0300313706B79564943B95E4A01201378487103F0BB
:401DC000CF0343F030031370AA79DFF84081002A00F0A7865349544A0B784F4F43F001030B701378534943F0010313703B78204643F080033B700C7003F050FDEB79434912
:401E000053B94D4B01201A78C87102F0FC021A701A7842F003021A703F4840490378404A43F0600303700B78287A43F001030B701378364943F00103137050B93F4B0120D8
:401E40001A78087202F0FC021A701A7842F003021A70314831490378314A43F0600303700B78687A43F002030B701378274943F00203137050B9324B01201A78487202F0E4
:401E8000FC021A701A7842F003021A70224823490378234A43F0600303700B78294F43F008030B70137843F0080313703B78DC0740F1348623F00103234A3B701378234CD6
:401EC00003F07F0313702378013BDBB22370002B3ED112F8583C23F0080302F8583C37E049370020986400409865004000E100E080E200E0B2430040103800202941000035
:401F0000A0430040B0430040014700406881FF1FC480FF1F5C58004077580040A4430040B4430040A9430040B9430040785800407A580040CB80FF1F585800405A58004024
:401F40005E580040CC370020585B0040D03700203B78B949980712D523F00203B74A0B70137823F0080313702378013BDBB223702BB992F8033923F0080382F803393B780B
:401F8000AD495A0712D523F00403AD4A0B70137823F0400313702378013BDBB223702BB992F8C33923F0080382F8C3393B78A249180712D523F00803A14A0B70137803F058
:401FC0007F0313702378013BDBB223702BB992F8C33923F0080382F8C3393B789649DA0612D523F01003974A0B70137803F07F0313702378013BDBB223702BB992F8E33908
:4020000023F0080382F8E339DFF89482DFF84092FF22002388F8002089F8003003F07CFC98F80020FF2A00F07685032A3FD001239340042AD8B23B7820D818427E491DD0EE
:40204000DFF860E223EA00035EF82200DFF858E20B7003781EF802C0DFF850E223EA0C031EF802200370A35C013BDBB2A35423B9754A137823F0080313700B781A0713D4FF
:4020800043F008036E4A3B701378704963F07F031370237833B992F8C33943F0080382F8C3390B7801332370032388F8003099F80030674C002B40F0288502F087FC654963
:4020C000AA7A0B78644803F0FE030B70002A00F0F984624A62491378624C43F0010313700B78EA7A43F001039C270B705A482770002A00F0C184594A594913785A4C43F0A0
:40210000040313700B782A7B43F004039C270B7051482770002A00F08984504A50491378524C43F0080313700B786A7B43F008039C270B7048482770002A00F0E5834749E4
:40214000474A0B784A4843F002030B701378494F43F002039C21DFF85891137007F1300B017000224FF0010A99F80D1099F80E000B180C1A81421FFA83FEE4B240F29E82C0
:4021800098B2FF2800F29F82A14280F0A383D9F81030204601929847019A3C707A6087F808A00C375F4509F114094FF00108DBD1EF7B0423AB73DFF8A0A0002F00F0E683B1
:4021C0002D4B2E481A782E4C42F010021A7002782C4942F0100202702278DFF8D88042F0010222701A783F2042F010021A70277823784FF4007203F0FE03237008702249CA
:4022000088F80000214804F02BF84FF400722049204804F025F8FFB21F4B0021F822F80788F800101A7003D5237843F00103237041F6FF71194C3FE0CC370020FD5100407F
:402240003D5100401D510040005B0040D0370020DC370020004E00406881FF1FA8430040B8430040805B0040825B0040835B0040815B0040E0370020A6430040B6430040E7
:4022800080C7004088C700404468000000C00040446A000000C2004084C700407881FF1FCC80FF1F306800002868000020680000946700008CC70040BE4B220C8A4208BF98
:4022C0004FF4005200204FF4804183271F70707058709870D8709980DA8003F03FF902F0E9FD010602460ED444F61060D30003F1804303F5F043A1B203241C8007249A70A3
:40230000DC709880D9807078172803D8AA4B01010B445A7203F010F9A84B0022022183204FF4804418705A7008469A70DA709C80DC80B17003F012F902F0BCFD0306024667
:402340000ED444F610644CF2A070D30003F1804303F5F043032119809A70D9709C80D880B078172803D8944B01010B445A7203F0E3F841F6FF71924C924B220C8A4208BF17
:402380004FF4005283271F70012100204FF4804759709870D8709F800846DA80F17003F0DDF802F087FD070602460ED44CF2A871C30003F1804303F5F04303201880A4B240
:4023C00007209A70D8709980DC80F078172803D8794B01010B445A7203F0AEF87A4B00221A7002F0F3F9022003F044F8774878490368784A0826784F0E60DA64774BE02241
:402400003A70774C1E60066810270F603465754C754E22701F60076840240C60BE65734FDFF8F8E13A7006681C6020240C60C6F854E06F4E07F8012C1C603478A7F1A027F5
:4024400044F004043470543F3C78D0F800E006F1A02644F00400DFF8C881DFF8C8C13870644C04206036C8F800000860CEF848C0327018602378604A604903F07F03237000
:402480001160EB7D002B00F065825A4A5C4C1378A24643F08003137003F0DEFCD5F8188003F0DEFC2378202003F0FD0343F00203237002F0DFFF4646524CDFF86CB1DFF8EC
:4024C0006C916A7F504B002A60D1197F002940F0E18000F04BFC03F0BFFCAF6903F0C0FCC8EB0703002BC0F2C380484B1B78002B35D0DFF83CE10EF104081EF8016B9BF8BB
:40250000001099F800200846D2B202F1FF3C8B1AC1EB0C0CA3F17F03BCFA8CFCB3FA83F34FEA5C1C5B098A4288BF6346002BE8D18A4200F0A7800B065ABF4B1CDBB2012320
:40254000334A48BF00208BF80030324B16541B78990702D5304B02221A60C645CDD19AF8003007F1460803F0FD0343F002038AF800309AF800303E4603F0FD0343F00203FB
:402580008AF800306A7F204B002A9ED01E46052301934FF0000A1A4B194A1B7803F0FD03137003F059FCAF6903F05AFC0837B84642E000BF00760040107000401076004040
:4025C0007C81FF1F087600407B64004008ED00E080E100E0D93F000003E400E000E100E0913E000004E400E0B943000006E400E0A2430040756500402465004080A903009C
:4026000020510040483700206881FF1F493700204C3700206A64004000E200E00942000080E200E0793E00004A3700204B370020DC64000000F09AFB03F00EFCAF6903F0DC
:402640000FFCC8EB0707002F45DA337F002BF1D086F81CA03C20217801F066FD23783D2003F0FF029BB39E4B197801F05DFDE1E7BF1B3B2F1DD99AF8003003F0FD038AF8E7
:4026800000301EE7974B1B785A073FF554AF964B1E7062E71A773C20217801F045FD23788F4A03F0FF0033B111783D2001F03CFD0FE737465DE701F0E1FE0AE7BEF1FF0FD8
:4026C00040F2088100248C4238BF0C465FE5104601F0D4FEAEE7854B844A1B7803F0FD0343F00203137003F0B7FB814B9F6903F0B7FB0837B84601E000F038FB03F0ACFB1A
:40270000AF6903F0ADFBC8EB0707002F16DA337F002BF1D086F81CA03C20217801F004FD23783D2003F0FF0223B16D4B197801F0FBFCE1E7104601F0A1FEDDE7019B03F154
:40274000FF3818F0FF0301937FF425AFDFF890A1DFF89C8100272B7F654E002B79D100F005FB2378022BF3D0F28B338C92B29BB29A42EDD303F070FBB76903F071FB9AF8F5
:4027800000300BB9F38B338C2378002B75D1EA8B2B8C92B29BB29A4255496ED34B6A13B907F164034B62FB1A002B3ADB514B07F164021B786A62002B33D0DFF848E10EF1FC
:4027C00004081EF8016B9BF8001099F800200846D2B202F1FF3C8B1AC1EB0C0CA3F17F03BCFA8CFCB3FA83F34FEA5C1C5B09914238BF6346002BE8D1914262D00B063E4B0C
:4028000055BF01310020C9B201211E54354B8BF800101B78990702D5384B02221A60F045CFD12378022B2DD0AB6A314A63B3FB1A8ED0D16A97628B4228D32C4B2B481B78B9
:40284000002103F0FD0343F002030370D16211637EE788F81C703C20217801F065FC23783D2003F0FF0223B19AF8001001F05CFC71E7104601F002FE6DE700236B62237811
:40288000022BD1D1AF6263E7976261E7106BC91A0344042BD1621BD99AF800300021022B11633FF455AF164B1A78013B1B7802F0020282F0020203F0FD0313430B4A1370A8
:4028C00046E7084B1B785A0798D4074B1E70A6E713633DE7DBB2994228BF19460C4656E4483700206A6400404A640040205100406881FF1F493700204C37002000E200E05F
:4029000021510040DC640000C04B01F5A3510D311A700A701A78A1F5905102F0F3021A701A781C3942F004021A701A780124C2F3810202F19242063292F830214473D2B247
:402940000A701A7802F0FD021A701A78D2B21A70FFF7F5BBAE49FF2313600B6003F07CFAAC4A137843F01003137003F079FAAA4B1A78100704D5A94A116819780907FBD427
:40298000A74A002101231170EB757EE5A548A64A0378A64943F0100303701378DFF8F09203F0FE033F20137008704FF48072A04989F800009F4803F053FC4FF480729C4989
:4029C0009D4803F04DFC4FF480729C499C4803F047FC4FF400729B499B4803F041FC4FF400729A499A4803F03BFC9A4CDFF8A4E2DFF8A4C2BEE80F000FC4BEE80F000FC4A2
:402A0000BEE80F000FC49EE80F00DFF890E284E80F00914BF82289F800708AF80F808CF800708EF800801A70FFF7CABB8B4B01F5A35115311A700A701A78A1F5915102F0B8
:402A4000F3021A701A78023942F004021A701A780124C2F3810202F19242063292F838210473D2B20A701A7802F0FD021A701A78D2B21A70FFF751BB794B01F5A351113163
:402A80001A700A701A78A1F5905102F0F3021A701A781F3942F004021A701A780124C2F3810202F19242063292F82821C472D2B20A701A7802F0FD021A701A78D2B21A704A
:402AC000FFF719BB674B01241A7081F8212A1A78A1F5FF6102F0F3021A701A7842F004021A701A788472C2F3810202F19242063292F82021D2B20A701A7802F0FD021A7005
:402B00001A78D2B21A70FFF7E4BA02F037FD00232370FFF7D2BA3B78FFF7B0BA524CFFF717BA524B524F0C2119703B78514943F020033B7002200A7002F0B0FE3B78012237
:402B400003F0FC0343F003033B7088F80620FFF741B9494BDFF848810C221A7098F80030464A43F0200388F80030117002F02AFD98F80030012203F0FC0343F0030388F87F
:402B80000030FA70FFF7F5B83D4BDFF818810C221A7098F800303B4A43F0200388F80030117002F027FD98F80030012203F0FC0343F0030388F80030BA70FFF7C6B8324B6D
:402BC00002F5A3520C2010701A78304842F0200280271A7007700278012702F08002D2B2027002784F703A4302701A7802F0F3021A701A7842F00C021A701A7802F0FC0222
:402C000042F003021A70FFF78CB800BF245800400465004097650040676500404465004087650040A643004080C7004088C700409C62000000C4004000C500409C630000D3
:402C400000C600404468000000C00040E064000000C2004000C7004084C700402C5800402858004020580040D03700200058004001580040025800400C5800400E58004052
:402C8000085800400A58004005580040065800408CC700409C64000098C700409CC700400D58004009580040244B1A78910740D5234AB624E0200D211470107011701A7842
:402CC000920706D41C46182003F0BEF823789E07F9D51A4B1A7897072BD51B789B0828D102F0A0FC02F0DEFCFEF7D9BF154B164E1D68164C1648E0212E6421700270154869
:402D0000154A72251C68154E057020201070A3F60713134D1348666419700626472402212E70047002F8FE1C0F4A01231370FEF77ABF02F077FCFEF7B2BF00BF224700407F
:402D40002047004008ED00E05549000000E400E0D03600208864004088650040ED4800002B6400403B640040493700202DE9F04FA04DA9B02B78032B00F009812B78022BBD
:402D800000F0CB80DFF87092DFF884829A49B8F80020B9F8003092B29BB29A4280F09D80B8F800309BB2002B00F0E580DFF894A2B8F80030BAF80C609BB25A24AB2204FB45
:402DC00003A4310A1E238DF840208DF841308DF842608DF843100DF147020023581C991CE518204421442D7C0333007C097C5A2B02F8020C02F8035C02F8011C02F10302A8
:402E0000ECD1002210AB27A853F8041B834282EA0102F9D19DF89D109DF89C3077484B405340C2F307215940C2F307434B400178013683EA1262AAF80C608DF89E20002936
:402E400036D06F4F6F4DDFF800B2DFF800C20DF13F060DF19E0A16F8014F39782A780846D2B202F1FF3E8B1AC1EB0E0EA3F17F03BEFA8EFEB3FA83F34FEA5E1E5B098A4245
:402E800088BF7346002BE9D18A423FD00A0659BF0131C9B2012100200BF8004039709CF800309B0702D5584B02221A605645D2D1B8F80030554901339BB2A8F80030B8F814
:402EC0000020B9F8003092B29BB232209A4208604F4910D229B0BDE8F08F4E4B93F8602A22B1002283F8602A83F8612A29B0BDE8F04FFDF7EDB80B889BB2FF2B45D8D9B27D
:402F0000382029B0BDE8F04F01F00EB99CF800305B07BBD4404B1C70C8E7DFF828A19AF80A30002BD6D03D493D4A0B783D4803F0FE030B7013783C4903F07F033B4C1370F9
:402F400001602378002B00F0E984354ADFF8A8901378362043F080031370B9F800309BB2FF2B94BFD9B2FF2101F0DEF800238AF80A302B7008E70B8837209BB2FF2B94BFEB
:402F8000D9B2FF2101F0D0F810E7FF21B8E7284B5B78002BAAD002F05FFF264B1C6802F05FFF49F63F42224B9B68E31A9342204B15D8DB68E31A312B07D91F4B1C4A1B684E
:402FC000D46013B111791A2098471C4C2378032B8CD8DFE813F003033601790171001C79032C00F2F185164BDFF864904FF000089A464AE0483700208881FF1F49370020A0
:403000004A3700204B37002000E200E09481FF1F8681FF1F502B00204A640040004E0040756500402465004080A903007F81FF1F083700208081FF1F10380020183700209A
:4030400094670000A081FF1F4C3700206A640040E037002088B2FF2800F25384BA4225D223440AEB83031B693846984704EB44020134E4B209EB8203042C09F82270C3F857
:40308000048083F8088000F08384A30019190AEB81014A7B887B8118171A82421FFA81FEFFB2D7D8BEF1FF0F00F22A84C9B28A4228BF0A461746D3E7744BDFF8F0A11F7947
:4030C00002F0CAFE9AF80030002B00F0C1844FF00009DAF804808AF8009002F0C1FE238BC4F82C90C4F80880694A002B40F0A884684ABB0011460592DA1901EB8202916838
:40310000226AC8EB01010029B8BF49429142DFF880E107DA88EAE872A2EBE872B2F5802F40F3A784059A3B4402EB83031B6994F82400984794F82400E369014684F8290044
:403140001A4694F82600A36002F0B4FD00283FF4CDAE002350492B700B78504A50484B4D03F07F034F4CED780B7010602378002B00F0F183484A4C4C1378294643F08003B9
:4031800013709AF808301120003318BF0123237000F0CAFF9AF80930444C002B3FF4A6AE434B85F077071B780026AB20C221B5228DF843508DF8447066728DF840008DF8D8
:4031C00041108DF84220002B3FF490AE394F3A4DDFF8E890DFF8E8C0DFF8E8B010AE0DF145084FF0020A16F8014B39782A780846D2B202F1FF3E8B1AC1EB0E0EA3F17F0329
:40320000BEFA8EFEB3FA83F34FEA5E1E5B098A4288BF7346002BE9D18A4200F077830A0659BF4B1CDBB20123002009F800403B709CF800309B0748BFCBF800A0B045D2D1F3
:4032400054E6DFF868A002F007FE9AF8003003F0FF07002B00F0AC830025DAF804608AF8005002F0FDFD238BE562A660084A002B40F0DF83002302226360A382E38284F806
:403280002730E3602361227030E600BF083700201837002094670000756500402465004080A903007F81FF1F7B640040A081FF1F493700204A3700204B3700204C370020AF
:4032C0006A64004000E200E0B54BDFF8F4A21B791E4602F0C1FD9AF8003003F0FF07002B00F06683AF49B20006960E464FF00008DAF804700C9205918AF8008002F0B0FD2E
:403300000C9A069BA848D31806EB83039B68C4F82C80DB1B83FB0001002871F10003A760C0F21B8410F1FF5041F100014FF07F52002302F0CDFD0A90994B1879002800F096
:4033400002849A4B41F28732194601EB401000690621002801900493B8BF40420023C1FB00231046194641F28832002302F0B0FD002800F02B8401280246B8BF01220A9FA1
:403380003B46B946002FB8BF7B428342D8BF4FF000099342CDF82C9040F33F839B1A013B93FBF2F3002F03F10103C0F2098407930C9B069A9A18059B03EB8202517B937BF2
:4033C00094F829209942089240F23083C3EB010B5FFA8BFB5F460B449AB2FF2A94BFDBB2FF230D93019B23B10B9B002B40F0148463601A460698089940010990B942C0F208
:4034000076830D9F8F42C0F270830F465FFA81FB0123089A511CB94202F1FF3280F269835FFA81FB73B1019B63B10B9951B162685F4B0A449A42B8BF1A465E4B9342A8BFEE
:4034400013466360099A049B1344B3F8149094F8273009F1FF32B2F5805F28BF4FF48059554A23B1136907998B4200F09D830123E382A38A01220A9913449BB2E160079944
:403480009342216184F828B0A38284F8272002D013F0FF0F6ED1494F3B68002B00F04D83089913209847A3681E463B68310E002B00F043831D2098473B68C6F30741002B61
:4034C00000F03B831D2098473B68C6F30721002B00F033831D2098473B68F1B2002B00F02C831D2098470A9E3B68310E002B00F02483412098473B68C6F30741002B00F01A
:403500001C83412098473B68C6F30721002B00F01483412098473B68F1B2002B00F00D8341209847079E3B68310E002B00F00583422098473B68C6F30741002B00F0FD825C
:40354000422098473B68C6F30721002B00F0F582422098473B68F1B2002B00F0EE8242209847E38A3A68FF2B00F2BB82D9B20AB143209047069A0C9B84F829B01344059A27
:40358000584602EB83031B699847E28A0A4B4A45C0F09282079A002A40F08B8212E000BF0837002094670000787413000467000000EE85FF00127A00183700201038002031
:4035C000A081FF1F9B68002BB8BF5B42B3F5802F00F36F82012001F0A1FEB7E5B04BB14F93F80480B04B4FEA880A0AEB08093D68059303EB89031E460193EDB141461520E3
:40360000A847D6F808B03D684FEA1B61A5B12A20A8473D68CBF3074175B12A20A8473D68CBF3072145B12A20A8473D685FFA8BF115B12A20A8473D68994B1979002900F0BB
:403640002B829A4B41F28732184600EB41110E69049386EAE6700621A0EBE6700023C1FB00231046194641F28832002302F030FCB3468146310EB9F1000F08BF4FF00109A8
:40368000002D00F004823F20A8473D68CBF30741002D00F083823F20A847824BCBF307211D68002D00F0F3813F20A8477D4BF1B21A68002A00F072823F209047794BB9F148
:4036C000FF0F1D6800F3E1815FFA89F10DB14020A84705990AEB080301EB8303049A019902EB4812887B597BD28A0023814222836360A382E38284F82730E360236184F852
:403700002830A360E362E361236284F8243084F8253084F8263001EB000240F2768193B2081AFF2BC0B200F274818142D2B280F07881059B0AEB080603EB860684F829003A
:403740003569A84702F0E8F8594A31791078FF282CD0814253D0012383400428DBB223D8DFF860C19CF8006033421DD0DFF888E126EA03035EF820E04E4E8CF800309EF891
:40378000003016F800C04C4E23EA0C03305C4B4E8EF80030335C013BDBB2335423B94848037823F008030370FF231370FF2926D001238B400429DBB220D8424E3078034242
:4037C0001CD1DFF834E103435EF821E0394833709EF80060435C38483343465C37488EF80030835D43B9DFF8D8E09EF8003043F008038EF80030835D013383551170324ABF
:403800001378002B00F0E6803B68264E33B119209847336813B104214420984701F0D6F894F82900A847294B294A012119701378284D43F0100313702E782B78264F2749B6
:4038400003F0FE033F202B704FF40072087038702349244802F004FDF6B2234B00213970F822F7071A7003D52B7843F001032B7002F0F2FA1D4B00221A7002F0F1FA228B6F
:403880001B4B002A4FF010001A4A1860137814BF0121022143F00103137021702EE000BF08370020103800209467000004670000CC80FF1F2868000020680000D0370020BC
:4038C000005B0040CC370020DC3700207B640040A643004080C700408CC7004088C700404468000000C0004084C70040A081FF1F80E200E0004E004030680000FFF7F6BA62
:403900000027974238BF1746FFF7AABB9CF800305B073FF584ACAF4B1C708FE4FF23036042F8713C02F098FAAB4A137843F01003137002F095FAA94A13781E0704D5A8492E
:403940000B6813781807FBD4A64A0021012311702370FFF7FABAFF23136041F8713C02F07BFA9D4A137843F01003137002F078FA9A4A13781E0704D599490B68137818077B
:40398000FBD4984A0021012311702370FFF7F2BB954B1979954B94481B680022C2700BB11B20984702F04EF8DFF868A2FFF7D1BB02F056FAE36A8E4A01339342E3628D4959
:4039C0007FF694AA8A68384691F8291002F072F9FFF7BCBB88480378DE0613D443F01003864E03703378864863F07F033370037833B996F8E33943F0080386F8E339037820
:403A00000133037001231370FEE690B2FF2807D91846884238BF08468BE600230793C7E4D2B2914228BF1146084682E60027BB46D1E4013B9BB21383002B7FF457AA19E4E2
:403A4000013B9BB21383002B7FF450AAFFF750BB02F006FAE36A664A01339342E362654C7FF644AA674B07EB870703EB8703FFF75DBB9EF82530424619469EF826008EF871
:403A8000293002F017F9FFF761BBFF211EE6B9F1FF0F7FF719AE1CE65B4B1B78013BDBB2072B2BD908468B460E46584B81460493E1E5019B002B38D0099A049BA18A134479
:403AC0001A8B4C4B9142FFF411AA079A5AB998680028B8BF4042B0F5802FCCBF0020012079E5FF2143E5002075E5BB4691E413468FE4BA42C8BF5FFA82FB93E441F28730F8
:403B0000434A002132F813600623C6F57A7686EAE672A2EBE672C3FB020141F28832002302F0D6F9B346310EBFE71846A26894F8291002F0BFF8FFF709BBE38AFF2B3FF6ED
:403B400019AD002212E5304B1B78013BDBB2072B0FD901902D4B04930AE4B0F1FF5041F1FF314FF07F52002302F0B2F90A90FFF7E3BB41F28730264A002132F81380062336
:403B8000C8F57A72002A0192B8BF5242C3FB020141F28832002302F09BF9DBE7B9F1FF0F3FF797AD00258FE5089B5B457FF45FAC4FF6FF71D38A8B421CBF0133D38258E470
:403BC0005B420793FFF7F4BB2146E3E601200246FFF7D5BB4A6400409765004067650040446500408765004008370020103800207F841E0018370020CC3700201D51004057
:403C0000D037002094670000CB80FF1F0467000084670000A081FF1F069B04985B0119460993C3185A684158002A00F01F8190464FEAE279019B0B98002BA8BF9C4680FB48
:403C40000101CDE90201039EB8BFC3F1000C4FEA860E029EB8BF4FF0FF334FEA8600A8BF01234EEA967142010E934B01121A43EAD06363EB0103DDE9020180185941CDE914
:403C800002016146039B0CFB09F0CA17D900029B08FB020041EA5371DB000293ACFB08230344039152EA030100F0DB80002A73F10001C0F2C78059104FEA32004FF0000E20
:403CC000DDE90289BEEBD97F00F0B380B8EB000869EB01094046494602F0FAF80E99099A049B00FB01F11344DA680F9198686168002A00F0998090464FEAE279019B81FBC0
:403D00000001002BA8BF9C46CDE90201039EB8BFC3F1000C4FEA860E029EB8BF4FF0FF334FEA8600A8BF01234EEA967142010E934B01121A43EAD06363EB0103DDE90201C8
:403D400080185941CDE902016146039B0CFB09F0CA17D900029B08FB020041EA5371DB000293ACFB08230344039152EA030156D0002A73F1000143DB59104FEA32004FF085
:403D8000000EDDE90289BEEBD97F30D0B8EB000869EB01094046494602F09AF80F9A0E9B069900FB03230C9A5118059A02EB810191F90C20497B02FB03118AB10B9B002B3B
:403DC000D5BF0120002000230123002A02DB1A4603461046019A002A05DB0246FFF70EBB1346FFF70BBB1A460346FFF707BB18EB000849EB01094046494602F069F8CDE71A
:403E00004FEAD37E12EB0E0043F1000149104FEA300040424FF0010E61EB4101B1E71046194601220023AAE7012200239046994664E718EB000849EB01094046494602F0DE
:403E400047F84BE74FEAD37E12EB0E0043F1000149104FEA300040424FF0010E61EB41012EE7104619460122002327E70122002390469946DEE600BF0349044B0420012269
:403E800008601A70704700BF80E200E08481FF1F2DE9F04F444A117853789278120442EA03230B431A02414A48BF43F07F431278012A03D1002BB8BF1F335B113C4A3D4CA3
:403EC00001203D49236010700A8892B242B93B4A12781AB13A4A1278022A07D0BDE8F08F0B88013B9BB20B80BDE8F08F354E327802F0FF0E002AF1D1334A344C1588218812
:403F00006A1E92B2B2F5007F34BF2F464FF4007789B2B942E2D22E4F398889B21D29DDD83988B4F80080DFF8ACC04FF05A091FFA88F809FB08C801EB410189B25FFA83FA91
:403F400008F801A0B4F8008001F1010A1FFA88F809FB08C8C3F3072B08F80AB0B4F80080C3F307431FFA88F809FB08CC02310CF801303B8801339BB23B803B889BB21D2B0C
:403F8000ACD9A7F800E02388B2F5007F03F101039BB22380238828BF4FF400759BB2AB4228BF30709AE700BF7C81FF1FC880FF1FA081FF1FA481FF1F6681FF1FA881FF1FAA
:403FC00048370020AA81FF1F5881FF1F8881FF1F5A81FF1FB081FF1F47490A7848788B781B0443EA002313431A02444A48BF43F07F431278012A03D1002BB8BF1F335B114A
:404000003F4A0121136010683E4B506011721B781BB93D4B1B78022B00D070472DE9F0433A4C2378002B5BD1394B3A4D18882988431E9BB2B3F5007F34BF06464FF400760E
:4040400089B2B1424CD2344E318889B21D2947D8324F31883F7801EB410189B2002F41D11268B5F800E02E4F4FF05A0C1FFA8EFE0CFB0E7E5FFA82F80EF80180B5F800E036
:4040800001F101081FFA8EFE0CFB0E7EC2F307290EF80890B5F800E002311FFA8EFE0CFB0E77C2F307427A5432881A49013292B232803288184E92B21D2A11D9B3F5007F8B
:4040C0004FF0000333800B8828BF4FF4007001339BB20B802B889BB2834224BF01232370BDE8F0830F4F3A6802F1010EC7F800E022F07F42B5E700BF7881FF1FC880FF1FCF
:40410000B4350020A881FF1F48370020AA81FF1F5881FF1F8881FF1F5A81FF1F6481FF1FB081FF1F6081FF1F2DE9F04F2E4A2F4B12781C78D2B282F0C4034B4083B043407C
:40414000AB26C4258DF802008DF803108DF804208DF805308DF800608DF80150002C38D06E46DFF894E0224DDFF89090DFF890C0DFF890B00DF106084FF0020A16F8014BC0
:404180009EF800102A780846D2B2571E8B1A7F1AA3F17F03B7FA87F7B3FA83F37F095B098A4288BF3B46002BECD18A4214D00A0659BF0131C9B20121002009F800408EF8D4
:4041C00000109CF800309B0748BFCBF800A04645D4D103B0BDE8F08F9CF800305F07E6D4044B1C70F3E700BF48370020493700204B3700204A6400404A3700204C3700206D
:404200006A64004000E200E02DE9F041534B544C1B78580708D533202178FFF785FF2378012B48D0BDE8F08134202178FFF77CFF4C494D4A0B784D4803F0FE030B70137863
:404240004B4903F07F034B4D137001602B78B3B1454A494F1378494E43F08003137001F0FBFD474D4749484A00233B8033702B800B8013702370BDE8F04101F0F1BDFF232D
:40428000036042F8713C01F0E7FD404A137843F01003137001F0E4FD3D4A1378190704D53C490B6813781B07FBD43B4A0021012311702B70CCE7394B1B7813B1384B3F2258
:4042C0001A802849DFF8EC80364F98F800600B78254A03F0FE033D880B7013782C4803F07F031370304B691E02784022B1F5007F1A60F6B228BF4FF4007501F0ADFD003649
:404300001D494FF0000318BF01261C4A88F800600B801B4E1B4913701B4A33800B80234E23491370022233600B80227001F098FD3B88B3F5007F03D9FF213E20FFF7F4FE2D
:40434000FF2D94BFE9B2FF213520FFF7EDFE054A137843F001031370BDE8F081C151004048370020004E0040756500402465004080A903007F81FF1F5A81FF1F5C81FF1F83
:404380008681FF1F8881FF1FAA81FF1F97650040676500404465004087650040A881FF1F6681FF1F5881FF1F80E200E06081FF1FAC81FF1F6481FF1F10B5244A244B254929
:4043C0001B781368013313600B78BBB1224A13780133DBB213701378ABB9204A20491378204803F07F03204C13700860237883B11A4A137843F08003137010BD03F0FF02A5
:40440000154B1A70E9E7194B0020012110701970E3E7FF230B6042F8713C01F01DFD144A137843F01003137001F01AFD084A1378190704D50F490B6813781B07FBD40E4A9B
:404440000021012311702370D2E700BF8081FF1F67650040B13500205481FF1F756500402465004080A903007F81FF1FB03500209765004044650040876500402DE9F04F6F
:40448000B54F83B03B7806465BB139781220FFF74BFE002E40F0F6800025284603B0BDE8F08F03F0FF05AD49AD4AAE4B0120AE4C0D8015801D7000F0DDFF102000F0DAFFEE
:4044C00094F80180A946B8F1000F50D0112000F0D1FF002EE0D0A54BAB241B78C220B52177228DF803908DF800408DF801008DF802108DF80420002BCFD0EE469C4F9D4C01
:40450000DFF8B0A2DFF8B082DFF8B0B20DF105091EF8016B397822780846D2B202F1FF3C8B1AC1EB0C0CA3F17F03BCFA8CFCB3FA83F34FEA5C1C5B09914238BF6346002BA4
:40454000E9D1914200F0FF800A0659BF0131C9B2012100200AF80060397098F800309B0744BF0223CBF80030CE45D1D195E7824B20221A6001F0D0F901F0CEF900F026FA64
:404580007E4A45461378DFF838A203F0FE03137001F0C2F97A4A0123042184F8028084F8049084F8058011706370E37001F054FC744BDFF81092D3F8008001F051FCC4F8C8
:4045C0000880C4F80C8009F130089AF80D309AF80E20D1189C1A934288B2E4B240F2A0808AB2FF2A00F29F80A34280F0A780DAF810302046984709F10C0909F80C4C49F8A2
:40460000085C09F8045CC8450AF1140A4FF0000BDBD15D4A5D4C13785D4943F01003137025782378DFF8A08103F0FE033F2023704FF400720870574988F80000564801F05D
:404640000FFE4FF400725549554801F009FE554BF822EDB288F800B01A70EA0703D5237843F00103237000364F4818BF01260125067028464D4A0021032311703B7003B072
:40468000BDE8F08F394BAB251B78C224B520002177228DF800508DF801408DF802008DF803108DF80420002B3FF4F6AE6E46304F304CDFF80091DFF800C1DFF800B10DF1E0
:4046C00005084FF0020A16F8015B397822780846D2B202F1FF3E8B1AC1EB0E0EA3F17F03BEFA8EFEB3FA83F34FEA5E1E5B098A4288BF7346002BE9D18A4218D00B0659BF1A
:404700000131C9B201210020397009F800509CF80030990748BFCBF800A0B045D3D1BBE6FF280BD900249C4238BF1C465FE79CF800305A07E2D41E4B1D70EEE7CCB29C42DA
:4047400028BF1C4653E798F800305B073FF5FCAE174B1E7008E700BF483700208681FF1F8881FF1FAA81FF1F08370020493700204A3700204B37002080E100E0004E0040D3
:404780007681FF1F8081FF1FA643004080C7004088C700404468000000C00040E064000000C2004084C70040A981FF1F183700204A6400404C3700206A64004000E200E0F1
:4047C00094670000E03700208CC7004070B53C4C237803F0FE03237001F09EF800F0F6F8237803F0FE03237001F096F835490B78FF2B40D0032B33D0042B33483CD80124D0
:404800009C400278E4B2144219D0304D22EA040255F823602E4C0270E55C32782D4C22EA0502E45C2C4D32702B5D013BDBB22B5513BB2A4A137823F008031370027813075D
:404840000CD442F00802264C02702378224A63F07F03237013785BB30133137003230B70204B1A7852B900F0B1F8154A137803F0FE03137070BD14480278E0E712490A782F
:40488000D00612D522F0100217480A700278124902F07F0202700A78013AD2B20A7022B90E490A7822F008020A7000221A70DAE70A48037843F0080303701378CCE700BF97
:4048C000004E0040CC80FF1FCC370020306800002868000020680000D0370020005B00403D510040DC3700201D510040144A154813780178994221D0F0B513490B7803F07A
:40490000040303F0FF06C3B91746104D104C02E00B785B0711D413781B0648BF3E701378DBB2EB5CDBB22370137890F800E00133DBB2137013789E45EAD1F0BD704700BFD7
:404940004B3700204A3700206A6400404C3700204A640040164AF0B517461648164C012500260378DBB213F01E0E03D011784EEA010111709B0600D4F0BD21785378C9B298
:404980001344197192F824300BB187F8255053780133DBB2537053781F2B88BF5670517892F826309942DCD182F82450D9E700BFD0360020686500404865004008B501F0AB
:4049C00053FA03680C2B00D0FEE7FEE72DE9F04FC54C83B094F82730002B62D194F8283003F0FF06002B5ED0C04D012384F8273001F032FABE4A2B781178BE4B41F001018E
:404A000011701178064641F0100111701A78BA4D42F001021A701A78B84C42F010021A702B78B74943F002032B702378482043F0020323700B7843F003030B7001F004FA37
:404A40002B78B04903F0FD032B702378AE4803F0FD0323700B787A2443F006030B7004703046AA4AA1F5A6511378063943F0010313700B78A64D43F001030B705378013109
:404A800043F0010353700B78A24C4FF0005243F001030B702A60226003B0BDE8F04F01F0DFB9924DA4E749F25B10904D0123DFF8BC822B7084F8296098F80030964A43F083
:404AC000100388F800301378944943F010031370E0230B70DFF898E2914F924B02F5D05204218EF8001005323E701E701378AEF1030E43F0180313708B4B8EF80060A2F293
:404B000087221E7087F8F2620A271770874FA3F207331E703E705B271772854F5E221A72A3F5286314223E701A702B780F2284F82E2004EB830393F82A707E4BA0851F70A1
:404B40002B787D4804EB83031B8D03802F7884F83060FFB2012F7FF448AF784B6FF4296CE644DFF810B2DFF810A24FF0F80C83F800C0DFF80892DFF808C28EF8001000F80A
:404B8000091C8BF800208AF800604FF03F0A83F806A001F1804189F800608CF800608EF808604FF0030E80F808E001F5B141644A50200870DFF8CCA1132111702B2283F84D
:404BC000862ADFF8C4E18AF800605E484FF0440A89F882AA5C494FF002095C4A4FF0480A8CF882AA8EF800904FF0120C4FF0280E80F80090EB2081F800C082F800E083F8E8
:404C0000910A01F029F93C4B00901A78ABF20B7B42F003021A7001939BF800204C494FF0520C42F0030250468BF8002081F800C001F00AF9019B00981A78DFF850A102F0A3
:404C4000FC021A709BF8003003F0FC038BF8003001F006F94CF6CD433E4A5820DFF830C1DFF830E13C4910703C488AF800608CF800908EF800900E705672636398F8002001
:404C8000038802F007029BB2012B0FD0A1F5A7511A390978C9B2002A7ED1002B7CD1078098F8003003F0BF0388F800301A482C4E0278338802F007029BB2072B0ED01349D7
:404CC0000978C9B2002A40F09F80002B40F09C8007233380037803F0BF030370214B224A1B68C3F8B42080E6D0360020C880FF1FAA430040BA430040F8460040F946004005
:404D0000915800407758004082580040A143004080E200E000E100E0024100401DE400E0975800409E580040885B0040835800408D5800400E4E00400C4E0040004E00400A
:404D4000855800408E5800408F5800409058004092580040945800409C580040804000400041004008ED00E0155900008240004096580040044E0040054E0040084E004068
:404D8000094E0040875800408C580040955800409A5800409B58004011F0010123D03D483D4F3E4E00224FF0010E327080F800E03A7010F8082C6E3702F07F0200F8082C60
:404DC0003A7810070FD43046072227F8803C32700378324A13F00103FAD1314E307800F0FE00307013702E4B1A78D20744D56FF468773B441A462B480126032106801970FF
:404E00001378DE07FCD451E711F0010124D02248204F224E00224FF0010E327080F800E03A7010F80C2CF23702F07F0200F80C2C3A78100710D43046A7F5807707223B8000
:404E400032700378154A13F00103FAD1164E307800F0FE0030701370134B1A78D20712D5A3F568731A460F4807260321068019701378DB07FCD431E70C4A012010801A789F
:404E80001143197012E70A4A072010801A781143197023E7104000401440004001400040A243004002400040A1430040804000400041004010B500F0CFFF0A4B5A78182ABB
:404EC00004D8FF2400F0CCFF204610BD9C78013AE10001F1804101F5F04109785A709970F0E700BFC880FF1F2DE9F8436F4A704B70491A600B68704A43F400736F480B607A
:404F00000023032B94BF50F823106D490133302B42F8041FF5D16B4B6B4A6C4909781A6072B66B4E6B4A35461378002443F00403137004EB4403AA8856F813000134002133
:404F400000F0BEFF062C05F10605F2D1624E634F002556F8043F13F0FF0E23F0FF0413D005F110530EF1FF3E03F145005FFA8EFE7044443340005B001A7859780233984282
:404F80001155F9D101357544BE42E2D1544B554A0A2119701378544943F0020313700B78A2F5863243F002030B70633A1378A1F5863143F04003137051394C4B0A781F682D
:404FC0004B4E42F010020A70376043F6972741F25126484C4848494A002525603C3B0560A4F5105403CB3E3C1060516003CB2060616003CBB23CC2F8F000C2F8F41093E8D1
:40500000070003C43E4B3F49228007C903C3A4F6F6541A8022783C4B42F00802DFF80CE103CB227061228EF80020384AA4F2A2242580AEF27E7E10605160354D50228EF877
:4050400000203448192234492A801825A57107800A70196826270322304B84F8807280F878211B782E4FDBB23B702E4B0827A4F8A2712D4AA0F898611C784FF4F0701160A2
:4050800004F001041E4600F0DFFE01E0032C4FD033784FF4F07003F0010343EA440400F0D3FE013D04F00304F0D1FEE70004FA050CED00E014ED00E0FC7FFF1F00000000E7
:4050C000BD49000008ED00E00080FF1FBC760040E0660000E8460040FCFFFF4784000048835800400350014013500140940600480876004000760040107600400251004002
:40510000205100407C060048880600483251004084400040884000408A40004008010049A14600402542004000410040004800404DF2200E40F20447614B6249624A4FF4EC
:40514000807007251880DFF8B0811D700020DFF8ACC1482510700D7002220425187088F800208CF8005091F89A33584843F0070381F89A330178564B7F2641F001010170F3
:40518000344619780CF5F72C41F08001197001200CF2F97C4FF081094E4988F8FF978CF800000978ACF5F42CC9B2DFF85491ACF2967C01F007088CF80080E940DFF8448105
:4051C0008CF80110A9F800E043494FF0080E88F800E0ACF2027CDFF830E1ACF800700A700527092189F8601788F83C778EF800708CF8960880274FF0400C89F8F8C888F83A
:40520000CC788EF8981110214FF0200E89F80CE988F8E41889F81A2988F8EC0889F8245988F8F82889F82C1988F8442989F87F0988F8565988F85E59284D4FF0420885F8F8
:4052400000804FF0C80885F80880DFF8C08088F800C02873DFF8B8C02148DFF8B8808CF80010AA761F4980F800E0CCF868804FF48C7CA5F884C01C4A4FF0060C81F800C0A5
:40528000DFF894E04FF00E0C0A21A5F5B85580F854C0103D11704FF0440C0FCB8EF800C007C51249124A2B804F708E70013CE4B202F80849002CF9D10E4B1C70BDE8F8836B
:4052C000044000400840004006400040A1430040A0430040CF010049FD510040C05A0040045B0040475B00405A5B0040C880FF1FF87B004000780040014000400B40004081
:405300000C5100403C5100407A580040CB5A0040D85A004007060706765800402DE9F843504C514D94F83C305E01A91991F83E20002A72D0002870D0226D82EAE277A7EBAD
:40534000E277B7F5802F69DC002B72D0D1F834C0BCF1000F62D04FEA830E0EEB030705EB8707D7F8BC10891A58D097F9C070002F54D00029D5BF01214FF0FF314FF0FF3993
:405380004FF0010939EA270928BF89463749BCF1000F0EEB030C01EB8C0C9CF80D709CF80E10B8BFC9F100098F423DD84FF0000839448FB2FF2F94BFCFB2FF27B9F1010F09
:4053C00094F8711042D1B94247D201F101085FFA88F8DCF808702E44BF1AB6F840C07344002FB8BF7F42002605EB8305D5F8C43084F86E00A7664046A4F860C084F86C10B2
:4054000084F86D80626684F8718066679847032384F848303046BDE8F883226D94F87110BDE8F84300F046BCC1EB07085FFA88F8BEE70F49C9780139C9B20729EED805EB97
:405440004101B1F8A4C0CCF57A7C81E7414504D901F1FF385FFA88F8BBE7BDE8F84300F029BC00BFD0360020E066000094670000C880FF1F2DE9F0472B4C82B0237861780C
:40548000DBB283F0C402AB274240C42600258DF802008DF804308DF805208DF800708DF801608DF80350002934D06E46DFF87CE0DFF87C90DFF87CA00DF1060C4FF00208E3
:4054C00016F8017BA078E3780546DBB2591EC21A091AA2F17F02B1FA81F1B2FA82F249095209834288BF0A46002AECD1834214D0020648BF002525442F719EF800305ABF5B
:405500000130C0B201209B07A07048BFC9F80080B445D5D102B0BDE8F0879EF800305907E6D48AF80070F3E7483700206A64004000E200E04A64004017280BD8064A0301C1
:40554000995C002041F020019954995C41F00101995470470120704710700040172809D8054903015A5C002002F0F10242F004025A54704701207047107000400E4A92F82F
:405580008410CB0616D510B40C4C92F888302078013B21F0100100F07F00DBB282F88410207082F8883023B9054A137823F00803137010BC704700BF483700201D51004095
:4055C000005B004009490A4A0B7803F08003DBB20B700B7843F015030B70137803F0F3031370137843F00D03137070470E5800400D58004009490A4A0B7803F08003DBB2AA
:405600000B700B7843F015030B70137803F0F3031370137843F00D03137070470A5800400958004010B500F017FC0B4B0022D3F88C1083F88920012909D1084C216841F087
:405640000101216000BF00BF00BFC3F88C20BDE8104000F005BC00BF483700200400084038B500F0F9FB0D4A92F8893023B1042400F0F6FB204638BD094901250C6882F8AA
:4056800089502C40F4D00C6824F001040C6000BF00BF00BFC2F88C501C46E9E7483700200400084038B500F0D7FB3E493E4A0B783E4D43F008030B70137843F00803137027
:4056C00000F0CEFB00F0C8FB95F8893023B1042400F0C6FB204638BD354B024618680121C40785F8891008D5186820F00100186000BF00BF00BFC5F88C102E4C104600F069
:40570000AFFB23789B0733D52B4BB6200E22E121187019701A702278900729D401221A702378D90705D4182000F08EFB2378DB07F9D5214B1F4C1A78237885F89020DA0724
:4057400005D4182000F080FB2378D907F9D51A4A184B11781A7885F89110900706D41C46182000F071FB23789A07F9D5002401E04FF0FF3400F070FBD5F88C200023012A5A
:4057800085F88930094909D1094D2A6842F001022A6000BF00BF00BFC1F88C3000F060FB204638BDA0430040B04300404837002004000840224700402047004070B5334C53
:4057C00023789B071FD5324BB6260222D5251E701D701A702278960715D440221A70421E0F3012F8015F82421D70FAD12078274A8507FBD51078800705D51078800802D1FA
:405800001078800716D44FF0FF3400F025FB214B0021D3F88C2083F88910012A31D11E4D2A6842F001022A6000BF00BF00BFC3F88C1026E0B626D82505201E701D701870B1
:405840001278144B02F0020293F8905093F8910002F0FF060E4B002AD5D140221A701E7019701D7018702278084B9607FBD51A789507C8D51B789B0814BF4FF0FF340024C6
:40588000C3E700F0EDFA204670BD00BF2247004020470040483700200400084070B41A4D87B02C466B4606466968286803AA03C254F80C0F2D7A6168082E03C3217A1570E3
:4058C00019701ED8114C06AB1E442378104803F08003DBB2237016F8181C237816F80C2C8900134301F00C010B432370037803F0F3030370037816F8182C43F00C03134313
:40590000037007B070BC7047086800000258004001580040704700BFF8B500F09DFA3349334A0B78334D03F0FE030B701378324C43F0040313702B78064643F002032B701A
:405940002378482043F00203237091F8913A2B4F03F0FC0381F8913A92F8913AA5F2473503F0F70382F8913A00F06EFA95F84733234A03F0FD0385F847332178214B01F00F
:40598000FD0121701178204801F0EF011170117804F58C5401F0FE0111701A78093402F0FE021A701A78194902F0EF021A703B78174A03F0F9033B70037803F0FE030370F6
:4059C0002B78304603F0FE032B70237803F0F70323700B7803F0FE030B70137803F0FE031370BDE8F84000F03BBA00BF004E0040014E0040F8460040F94600407758004046
:405A0000AA430040BA430040A1430040A2430040B2430040014B1870704700BF815B0040014B1870704700BF835B0040014B1870704700BF825B0040014B1870704700BFFF
:405A4000805B0040F8B5854EFFF766FF3378844CFF2B22D0042B1ED801229A402178D2B20A4218D07F4821EA020250F823507E492270C85C2A787D4922EA0002C95C7C48B9
:405A80002A70435C013BDBB2435423B9794A137823F008031370FF233370774D2B78002B00F0B7804BF6803000F0CEF923786C4AD80612D523F01003704913700B786C4AAB
:405AC00003F07F030B701378013BDBB2137023B9684A137823F00803137000232B70FFF71BFF3378FF2B78D0032B36D0042B74D8012199402278C9B2114259481BD0594FF4
:405B000022EA010257F823E057490270CF5C9EF80020564922EA0702C95C554F8EF800207B5C013BDBB27B5423B9524A137823F008031370027813070DD442F00802504991
:405B400022700A784A4B62F07F020A701A78002A73D001321A70032333702B78002B3ED1FEF734FF4749484A0B78484C03F0FE030B70137801F5F34143F0100313702578E2
:405B80002378434E03F0FE033F20083123704FF4007208703F4930703F4800F061FB4FF400723E493E4800F05BFB3E4BF822EDB2002131701A70EA0703D5237843F0010341
:405BC0002370394B394D3A4C2021012200202960216058709A701A70F8BD2278ABE723781F4AD90612D523F01003244913700B781F4A03F07F030B701378013BDBB2137024
:405C000023B91C4A137823F00803137000232B70A6E72378124ADF060CD443F01003174913700A78124B62F07F020A701A7862B101321A7001232B7034E791F8C32942F0B7
:405C4000080281F8C3291A7883E791F8E32942F0080281F8E3291A78EAE700BFCC80FF1FCC370020306800002868000020680000D0370020005B0040DC3700201D51004061
:405C80003D510040004E0040A643004080C700408CC700404468000000C00040446A000000C2004084C700400837002080E200E000E100E02DE9F0475D4FDFF884C13D7931
:405CC0000646AB0058190CEB800090F80DE0847B9246A6450EEB040240F2848090B2C4EB0E04FF28E4B240F28C808C4238BF0C462B440CEB83031B69204698474FEA450809
:405D0000DFF834917A7908EB050309EB8303FF2A1C71C3F808A01E73454B78D0002E6ED00126D9F83430DFF810A123B1214613209847DAF8343008EB050209EB820294689C
:405D4000B4F5004F4ADA14F5004F67DA394C8021002B32D014209847D9F83430E1B2DFF8D8A0002B5DD01420984708EB0503DAF834200AEB83039C68FAB1210E1D209047F8
:405D8000DAF83430C4F30741BBB11D209847DAF8343093B1C4F307211D209847D9F83430E1B2254C4BB11D209847636B2BB1454404EB8504217B162098473B791C4A0133B6
:405DC000DBB2032B3B7115D91EBB53791B490133167153710E703046BDE8F0877F2147F6FF74B5E790B2FF280FD8D4B28C4228BF0C467DE7114B00201870BDE8F087DE701B
:405E00008EE7A142FFF474AFEFE700246DE7002687E7FFF717FE0120BDE8F087C4F3072196E70C2303FB05AADAF80840B6E700BF083700200080FFFFDC370020183700209D
:405E400094670000000000000230800803D000BF01380046FCD17047EFF3108072B6704780F31088704700BF014B1868704700BF3081FF1F0E4B70B51E460E4C0025E41A96
:405E8000A410A54204D056F8253098470135F8E700F0DEFE084B094C1E46E41AA4100025A54204D056F8253098470135F8E770BD5C6C00005C6C00005C6C0000646C000086
:405EC00003460244934202D003F8011BFAE770477BB972B90029BEBF00204FF0004106E008BF00281CBF6FF000414FF0FF3000F0B5B9ADF1080C6DE904CE002909DB002BEA
:405F00001ADB00F035F8DDF804E0DDE9022304B07047404261EB4101002B1BDB00F028F8DDF804E0DDE9022304B0404261EB4101524263EB43037047524263EB430300F0A0
:405F400017F8DDF804E0DDE9022304B0404261EB41017047524263EB430300F009F8DDF804E0DDE9022304B0524263EB430370472DE9F04F8C460C460546099E002B4FD1ED
:405F80008A4217466BD9B2FA82FEBEF1000F0BD0CEF1200520FA05F501FA0EF345EA030C02FA0EF700FA0EF5390CBCFBF1F0BAB201FB10C300FB02F84FEA154C4CEA03445B
:405FC000A04509D9E41900F1FF3380F02881A04540F2258102383C44C8EB0404B4FBF1F301FB134C03FB02F2ACB244EA0C418A4209D9C91903F1FF3480F00F818A4240F201
:406000000C81023B39448A1A43EA00400021002E63D022FA0EF2002386E80C00BDE8F08F8B4207D9002E56D0002186E811000846BDE8F08FB3FA83F1002940F09380A34224
:4060400002D3824200F2FE80851A64EB03039C460120002E41D086E82010BDE8F08F12B90127B7FBF2F7B7FA87FEBEF1000F36D1E41B4FEA17481FFA87F90121B4FBF8F3AA
:4060800008FB134409FB03F24FEA154C4CEA0444A24207D9E41903F1FF3002D2A24200F2D3800346A41AB4FBF8F008FB104809FB00F9ACB244EA0842914507D9D21900F136
:4060C000FF3402D2914500F2BA802046C9EB020240EA03409BE731463046BDE8F08F07FA0EF7CEF1200C24FA0CF34FEA1748B3FBF8FA1FFA87F908FB1A3520FA0CFC04FA28
:406100000EF40AFB09FB4CEA040C4FEA1C4242EA05439B4500FA0EF50AD9DB190AF1FF3280F08B809B4540F28880AAF1020A3B44CBEB0303B3FBF8F008FB103300FB09F4D8
:406140001FFA8CFC4CEA03439C4207D9DB1900F1FF326ED29C426CD902383B441C1B40EA0A418BE7C1F1200E8B4022FA0EFC4CEA030C24FA0EF74FEA1C49B7FBF9FA1FFA5F
:406180008CF309FB1A7720FA0EF88C400AFB03F548EA04044FEA144848EA0747BD4202FA01F200FA01FB09D917EB0C070AF1FF3041D2BD423FD9AAF1020A67447F1BB7FBC6
:4061C000F9F509FB157705FB03F3A4B244EA0747BB4208D917EB0C0705F1FF3027D2BB4225D9023D674445EA0A40A0FB0289FF1A4F4545464C4614D329D066B3BBEB050353
:4062000067EB040707FA0EFECB40CF404EEA030386E888000021BDE8F08F2346F3E61846DAE6B8EB020569EB0C040138E5E70546D9E7104692E78246C0E7924678E7023834
:406240003A4443E7084604E7023B3C442AE7C345E7D33C46D1E73146BDE8F08F704700BF10B5431E0A44914204D011F8014B03F8014FF8E710BD000000000000F4FCFF7F8D
:4062800001000000011121314161536373000000080901010507070404000000201300256117802601008026E00E8026C20C8026020080066587186D6409183E00008026F9
:4062C000032080262102187F00000000000000000000000000000000000000000000000000000000000000000000000000000000000000000000000000000000000000001B
:40630000000000000000000000000000000000000000000000000000000000000000000000000000000000000000000000000000000000000000000000000000000000005D
:40634000000000000000000000000000000000000000000000000000000000000000000000000000000000000000000000000000000000000000000000000000000000001D
:406380000000000000000000000000000000000000000000000000000000000021F805014210864064F8150181F8050143518E210000000000000000000000000000000072
:4063C000000000000000000000000000000000000000000000000000000000000000000000000000000000000000000000000000000000000000000000000000000000009D
:40640000000000000000000000000000000000000000000000000000000000000000000000000000000000000000000000000000000000000000000000000000000000005C
:40644000000000000000000000000000000000000000000000000000000000000000000000000000000000000000000000000000000000000000000000000000000000001C
:4064800000000000000000000000000000000000000000000000000000000000FF3F000000000000000000000000000000000000000000000000000000000000000000009E
:4064C00000000000000000000000000000000000000000000000000000000000ABC000C02E260000732600004127000098280000772A0000DD2C0000C82F00003733000051
:4065000027370000963B000081400000E5450000BF4B00000A520000C4580000E85F0000716700005B6F0000A07700003C8000002989000062920000E09B00009EA500009F
:4065400096AF0000C1B900001AC4000099CE000038D90000F0E30000BBEE000092F900006E040100480F01001A1A0100DD240100892F0100193A010085440100C84E01000F
:40658000DA580100B6620100556C0100B1750100C57E01008A870100FC8F010014980100CE9F010025A7010014AE010098B40100ABBA01004AC0010073C5010020CA010037
:4065C00050CE010000D201002DD50100D6D70100F8D9010093DB0100A6DC01002FDD01002FDD0100A6DC010093DB0100F8D90100D6D701002DD5010000D2010050CE0100B3
:4066000020CA010073C501004AC00100ABBA010098B4010014AE010025A70100CE9F010014980100FC8F01008A870100C57E0100B1750100556C0100B6620100DA580100B6
:40664000C84E010085440100193A0100892F0100DD2401001A1A0100480F01006E04010092F90000BBEE0000F0E3000038D9000099CE00001AC40000C1B9000096AF00000E
:406680009EA50000E09B000062920000298900003C800000A07700005B6F000071670000E85F0000C45800000A520000BF4B0000E545000081400000963B0000273700001E
:4066C00037330000C82F0000DD2C0000772A00009828000041270000732600002E26000040510040300000000140001000140140000800400140000A004C01400002005061
:406700000140200001000000E8030000030000001027000000000000000200023075010000040000010000001027000001000000D0070000E8030000001000023075010071
:4067400000040000010000001027000001000000D0070000B80B0000000200023075010000040000010000001027000001000000D007000070170000001000023075010045
:4067800000080000D007A00F401F803EC05D007D80BB50C3E46700000000000000000000FF9CFF00395A0000EC6700000100000000000000019CFF002D5A0000F4670000FC
:4067C0000200000000000000019CFF00215A0000006800000300000000000000019CFF00155A000047454F5F5047410047454F5F4250000047454F5F414444455200000092
:4068000047454F5F4C50000001112131416153637300000008090101050707040418000000000000000000008008408080000000585B0040FD5100403D5100403D51004028
:406840001D5100400000000000000000000000000000000000000000000000000000000000000000000000000000000000000000000000000000000000000000000000006A
:4068800000000000000000000000000000000000000000000000000000000000000000000000000000000000000000000000000000000000000000000000000000000000D8
:4068C0000000000000000000000000000000000000000000000000000000000000000000000000000000000000000000000000000000000000000000000000000000000098
:406900000000000000000000000000000000000000000000000000000000000000000000000000000000000000000000000000000000000000000000000000000000000057
:406940000000000000000000000000000000000000000000000000000000000000000000000000000000000000000000000000000000000000000000000000000000000017
:4069800000000000000000000000000000000000000000000000000000000000000000000000000000000000000000000000000000000000000000000000000000000000D7
:4069C0000000000000000000000000000000000000000000000000000000000000000000000000000000000000000000000000000000000000000000000000000000000097
:406A00000000000000000000000000000000000000000000000000000000000000000000000000000000000000000000000000000000000000000000000000000000000056
:406A400000000000D40A0000EF0C0000EB0C0000900A0000EE0500006EFFFF00E4F7FF0087F0FF00D1EAFF0046E8FF0023EAFF0006F1FF009DFCFF00810B00003C1B000099
:406A80009E280000473000005B2F000046240000550F000009F3FF00F3D3FF001AB8FF00F5A5FF0014A3FF00CAB2FF0014D5FF0007060000033E0000AF720000B798000040
:406AC000FCA50000DC9300001A610000ED120000E3B4FF008157FF009E0DFF00FDE8FE008FF6FE003A3BFF00B0B1FF00074A000048EB0000F47601000FCE0100F1D6010026
:406B0000EA820100A0D200004BD8FF0026B7FE00E79FFD008ACAFC003F6EFC00A2B8FC00A3C5FD007899FF00A81D0200F421050011610800C6880B0040440E003347100062
:406B40001D5811001D5811003347100040440E00C6880B0011610800F4210500A81D02007899FF00A3C5FD00A2B8FC003F6EFC008ACAFC00E79FFD0026B7FE004BD8FF00F5
:406B8000A0D20000EA820100F1D601000FCE0100F476010048EB0000074A0000B0B1FF003A3BFF008FF6FE00FDE8FE009E0DFF008157FF00E3B4FF00ED1200001A61000096
:406BC000DC930000FCA50000B7980000AF720000033E00000706000014D5FF00CAB2FF0014A3FF00F5A5FF001AB8FF00F3D3FF0009F3FF00550F0000462400005B2F00002C
:406C0000473000009E2800003C1B0000810B00009DFCFF0006F1FF0023EAFF0046E8FF00D1EAFF0087F0FF00E4F7FF006EFFFF00EE050000900A0000EB0C0000EF0C000078
:406C4000D40A0000C05D00000000E02E43000000F8B500BFF8BC08BC9E46704799000000E94E0000F8B500BFF8BC08BC9E46704775000000886C0000C080FF1F78000000BB
:406C8000E0B60000000000000000000002FFFFFF01807F02FF00000000000000000000000000000000000000000000000000000000000000000000004C6C00000000000086
:406CC0000000000000000000000000000000000000000000000000000000000000000000000000000000000000000000000000000000000000000000D080FF1F0000000026
:406D00000000000000000000000000000000000000000000000000000000000000000000000000000000000000000000000000000000000000000000000000000000000053
:406D40000000000000000000000000000000000000000000000000000000000000000000000000000000000000000000000000000000000000000000000000000000000013
:406D800000000000000000000000000000000000000000000000000000000000000000000000000000000000000000000000000000000000000000000000000000000000D3
:406DC0000000000000000000000000000000000000000000000000000000000000000000000000000000000000000000000000000000000000000000000000000000000093
:020000040003F7
:0200000480007A
:400000000152004002640040026500400101014005030140020501400307014045080140380901405B0A01403E0B0140070D0140010F01403A1401402D1501403E16014034
:40004000201701405318014049190140011B01400D4001400C4101400742014008430140024401400445014004460140024701400A48014005490140074C0140024D0140BE
:4000800008500140035101400C2088728A0F870D8838E601A601B601E210E602EA04A601E801A601E820EE0C0110022304030508087309180A0C0FE6100211FF1401153943
:4000C00017C4181C1A631B011C1F1D801E60207F211923E2240425C0280C29E72B182C082D4130403210331F340F3538362C37C038023AA03B083E045602571158045904CF
:400100005B045C115D105F0186038701940C961198149C099E10A010A410A502A60CA81CAA02B302B41FB501BF04D804D904DC11DF0100040538068007400A010B280D843E
:400140000E8811011208130414801602172418041B101D901E601F4022242408260427022B102C102DA82F4036E539083EAA5E206E146F01762A772486049101930C94022E
:4001800097209A01A540A608AB20AF01B088B301C074C2F7C4FECAF2CCF0CEF2D620E408E82003080513070C09030B1410011206150A1714180219131A011B042315280866
:4001C000300332083404350F37103B203E053F4040214106450B46C0470E481949FF4AFF4BFF4EF04F44500C54015604580459045A045B045C195D115F0166C06A406B0251
:400200008304850C8E038F0390019508A50CA604AA08AD02AE08AF01B002B201B30CB408B501B604B702B908BE10BF54C002C540C9FFCA07CBFFCC40CD20CEF0CF05D008FB
:40024000D608D804D904DA04DB04DC02DD91DF01E040E1A8E240E3200420056008010A040E4010081544172019041A041B011D401E401F28200422402304240827122A0203
:400280002C102D402F1030103208360838263D803E023F044004420247104B284D015018560359245A805B015C80610164016D40910494089B209D019F02A708AB20B10442
:4002C000C080C21AC4E2CA51CC46CED7D02CD204D61FD81187088F0294089D01A901E210E81080040E012E013001404549FF4AFF4BFF4F0150185608580B5A0B5B045C09D7
:400300005D995F016040624064406540668068806A806C806E808201830789078D019102AD04B001B107C015C9FFCAFFCBFFCD83CE03CF01D018D280D80BD90BDA0BDB0A86
:40034000DC99DD99DF01E040E240E440E540E680E880EA80EC80EE800302068010021A801D011F02244027402C0235013C423E104040474048024C02588059A0600262A0D0
:400380007401768078027EA0824084808520921099809C029F40A002A680A702AD80C011C401CA10CC80CEB0D011D218D60CD80CDEC10201100122012E013001320139028A
:4003C0003A0A3F01401549FF4AFF4BFF4D834E034F015018580B59045A0B5C095D095F016040624064406540668068806A806C806E809301AF01B701BF40C015C5ECC7209B
