:4000000000800020110000000D6F00000D6F0000144A80B5144B1268144F1A60F7B1144E002556F80C4C56F8080C56F8102C234638B1043A52F8041F43F8041B191B8142BF
:40004000F8D156F8040C1A4620B142F8045BD11A8842FAD1013F06F11006E2D108F03AFB02F028F8FA460040BC760040010000007894000010B5054C237833B9044B13B121
:400080000448AFF300800123237010BD5081FF1F00000000D88A0000084B10B51BB108490848AFF300800848036803B910BD074B002BFBD0BDE81040184700BF00000000B7
:4000C0005481FF1FD88A0000C080FF1F000000002DE9F04F0126B046DFF8E0B2DFF8E0A2DFF81C938FB0C9F800809BF800009AF8001001248842B14AB14B00F001811078FE
:4001000019781B788842127828BF20339B1AAD4ADBB21660002B00F00281AB49C9F800609BF800209AF800300878D2B2DBB210B99A4200F0EE80531CDBB2202BA34828BF89
:400140000023875C8BF800300B789F4CFFB20BB1002323709B4A9E4B16601C78E4B2052C00F2D480DFE804F0C5958C110A03994903228F701A7005F099FEB4E795490522D5
:400180004F701A7005F092FEADE7934D029308F093FA2A78914B02F0FE022A701A78904902F0FE021A700A78DFF84CE202F0FE020A70E97808228B49CEF8002000220A701E
:4001C000019208F07DFA019A029B824D1A702B786A78A97853404B40BB4284D1824B1A785AB92A78C12A03D02A78A52A7FF47BAF297821201E7005F06DF82B78754AC12B5E
:4002000003D01178302005F065F8784B1B78032B2B7800F09180A33B162B3FF664AF01A252F823F041090000E7000000E109000001080000E7000000E70000008D100000A2
:400240002F0C0000E7000000E7000000E7000000E7000000E7000000E7000000110D0000E7000000590B0000830B00001F140000331100004113000005040000F50A00000F
:40028000544A0020032157709070197005F00EFE29E7019305F00AFE07F15D02D2B21E2A019B07D8524906FA02F00140002939D1002A3CD0484C019308F0FEF92278474B52
:4002C00002F0FE0222701A78454902F0FE021A700A78484D02F0FE020A70474C2A780821404A21600024147008F0EAF9019B1C70F9E6AB2F7FF4F7AE1E7005F0D7FDF2E647
:4003000031490B784BB12F4B1E6007E700221A70E9E63A4B1F78FFB21CE72A4B1C600FB0BDE8F08F2B4902220F701A70DBE6294904220F701A70D6E6A53B1C2B01F2548210
:4003400001A252F823F000BFDF1600003D160000E9170000E91700003D1600003D160000E9170000E9170000E9170000E9170000E9170000E91700003D160000E91700007D
:400380003D1600003D16000067150000E9170000E9170000C7140000E9170000E9170000E9170000E9170000E9170000E9170000E9170000E9170000E7000000FE36002005
:4003C000D936002000E100E0FC360020DC360020A33500206C81FF1F004F0040A3430040B3430040A23500208F81FF1F51370020CC407F40034F004080E200E04964004042
:4004000080E100E0A54B1A78002A41F08683A44BA4491A78A44C02F0AF021A700A701A78A24842F008020A701B78A14A0B702378AB24DBB2037013789E4ADBB2137011F86F
:400440001E3C9D4A9D49DBB212780B70C220B8217B238DF82B608DF828408DF829008DF82A108DF82C30002A34D0954D954B0DF1280E1EF8017B287819780446C9B201F181
:40048000FF3C421AC0EB0C0CA2F17F02BCFA8CFCB2FA82F24FEA5C1C5209884238BF6246002AE9D1884201F0128202065ABF421CD2B20122844948BF00242A70834A0F55DF
:4004C0001278910702D5824A022111600DF12D029645CED17F4F3B6813B10121084698477D4B7E4D01937E4B02937E4B059300230393059B9DF80C201B7804929342A97B56
:400500006A7B01F207828A4202EB010341F23F8498B2511AFF28CCB201F23D84A24281F0788406F0FBFC019B1A782B79FF2A31D093425FD0022A2AD86B4806FA02F100780F
:40054000C9B2014223D0DFF8B4E120EA010166485EF822E0DFF8ACC101709EF800101CF802C0624821EA0C01805C614A8EF80010125C5F49013AD2B20A5442B95D495E4AC0
:4005800051F82010105C0A7822EA00020A700199FF220A70FF2B2DD0022B29D8524906FA03F20978D2B20A4222D154480A434E4950F82300DFF84CE10A7001781EF80320D3
:4005C000DFF828E1114301701EF803204849895C59B94848484950F82200895C90F800E04EEA010101704249895C414801318154019A1370029B1B78002B41F00B8206F0E5
:400600000BFD2B69204698473D4808F04DF83B6843B304992D209847AB681A462D4B04921B68110EF3B12A2098472A490B68CBB1049A2A20C2F3074198472649049A0B681F
:40064000C2F3072173B12A20984722490B689DF810103BB12A2098471E4B1B6813B121461320984707F0AEFF3B680446002B4FD0010E2E209847174BC4F307411B68002B59
:4006800046D02E209847134B1B68002B40D0C4F307212E2098470F4BE1B235E051370020D03600207F6400406F640040D880FF1F6B640040D136002052370020D23600204C
:4006C0005337002054370020583700206B65004000E200E02C380020E580FF1FC08F0000283800200C3800200D3800200C90000010380020049000000090000014900000B9
:4007000080FC0A00109000001B680BB12E209847039B14350133022B03937FF4EAAE06F0FDFB019B1878FF2801F07A83012840D002288B4B22D806FA00F11A78C9B211428B
:400740001DD0884C22EA010254F8204086491A7022780D5C854922EA0502095C84482270425C013AD2B2425442B98248824A50F82100515C027822EA010202701A7801983D
:40078000FF210170910712D442F002021A707B4B7A491B78764A43F001030B70537823B97748017841F01001017001335370019B1E70029B734C1B781BB107F0ADFB0023AC
:4007C000237006F029FC704A70481378704903F0FE03137002780B78D2B2002B41F0B682002A01F0FB826B4A6B49137823F0030343F019031370694A0B70694B1A608CE0CA
:400800006B78DBB2082B01F2DF81664F07AD3C46386879680AAA03C554F80C0F97F808E06168277A03C2604C6048614985F800E017700370257823700A780EA802F080029C
:40084000D2B20A70C71817F810EC0A7817F81C0C4FEA8E0E02430EF00C0E56484EEA02020A700278AB4202F0F3020270027817F8101C42F00C0242EA0102027004D04E4B8E
:4008800000221A7007F02AFA23784C4A83F064018DF82B301278AB238DF82C108DF82830C221A6238DF829108DF82A30002A34D0434D444B0DF1280E1EF8017B2878197805
:4008C0000446C9B201F1FF3C421AC0EB0C0CA2F17F02BCFA8CFCB2FA82F24FEA5C1C5209814288BF6246002AE9D1814200F0A68702065ABF421CD2B20122334948BF002426
:400900002A70324A0F551278900702D5304A022111600DF12D027245CED12E4B1B78022B3FF4E1AB2C4B2D491A780B7802F0020282F0020203F0FD0313430B70FFF7D3BB06
:400940006B78A978312043EA012109B28BB2FF2B94BFC9B2FF21AB8004F0BCFCFFF7C3BB0D38002014900000109000000C9000001038002004900000009000000D51004009
:40098000005B004028380020004E0040D3360020D4360020D980FF1F77640040F5510000DC80FF1FE48A0000E480FF1FE380FF1F0658004005580040C1360020523700207D
:4009C0005337002054370020583700206B65004000E200E05137002021510040205100400121084604F076FC3B2007F015F9B64B01931B78002B3FF476ABDFF810E3B34D6F
:400A0000B34B1EF8017B287819780446C9B201F1FF3C421AC0EB0C0CA2F17F02BCFA8CFCB2FA82F24FEA5C1C5209814288BF6246002AE9D1814200F0F88602065ABF421C20
:400A4000D2B20122A34948BF00242A70A24A0F551278900702D5A14A02211160A04A7245CFD1019AAB21C3208DF82810127871218DF829008DF82A100B20B9218DF82B00D1
:400A80008DF82C10002A3FF42EAB0DF1280E1EF8017B287819780446C9B201F1FF3C421AC0EB0C0CA2F17F02BCFA8CFCB2FA82F24FEA5C1C5209814288BF6246002AE9D123
:400AC000814200F0A08602065ABF421CD2B20122804948BF00242A707F4A0F551278900702D57E4A022111600DF12D027245CED1FFF7F9BA7B497C4A7C4B28200E70108015
:400B000000217B4A1970137803F0FD0343F00203137007F0D1FD44F620610446754A76481378A2F6653203F0FE0382F8653B724B1B7803F0FB0303701378704803F0FB0316
:400B40001370032303706E4B196005F0ABF8204607F0B6FDFFF7C7BA6B786A4C003318BF0123237021783A2004F0B4FB2378002B00F0748705F014FB012004F0EFFDFFF76C
:400B8000B2BA392007F048F84F4BAB21C2221B788DF828108DF82920B42177228DF82B608DF82A108DF82C20002B34D0474D484B0DF1280E1EF8017B287819780446C9B2B1
:400BC00001F1FF3C421AC0EB0C0CA2F17F02BCFA8CFCB2FA82F24FEA5C1C5209814288BF6246002AE9D1814200F0168602065ABF421CD2B20122374948BF00242A70364A5B
:400C00000F551278900702D5344A022111600DF12D029645CED105F0C3FA002004F09EFD394B1B78022B7FF47DAEFFF75CBA6B78254ADBB283F068018DF82B301278AB235D
:400C40008DF82C108DF82830C221AA238DF829108DF82A30002A3FF460AE1C4D1C4B0DF1280E1EF8017B287819780446C9B201F1FF3C421AC0EB0C0CA2F17F02BCFA8CFCF4
:400C8000B2FA82F24FEA5C1C5209814288BF6246002AE9D1814200F0EA8502065ABF421CD2B201220B4948BF00242A700A4A0F551278940702D5094A022111600DF12D0249
:400CC0009645CED129E600BF523700205337002054370020583700206B65004000E200E0408D0000CC360020CE360020CD36002020510040184F0040A3430040C43600205F
:400D0000C8360020D4360020513700203C8D0000AB88B34F19463B784A1E03F0FE033B700B46B2F5007F28BF4FF40073039306F0F5F806F071F93B78AA4A03F0FE03019291
:400D40003B7006F0EBF8A74A1278FF2A01F01280012A3ED0022AA44B23D806FA02F71978FFB20F421ED0A14821EA070150F822009F4F197090F800E0B95C9E4F2EEA01019E
:400D8000BA5C9D4F0170B95C0139C9B2B95441B99A499B4851F82210805C0A7822EA00020A701978880712D441F002011970954B94491B78904A43F001030B70537823B982
:400DC0009148017841F01001017001335370854B1E708E4B02931B78002B40F0478706F01BF97F4A8A4913788A4803F0FE03137003780A78DBB202F0FF010191002A40F08D
:400E0000A485002B40F0D887FF230C4601930121039B5A22581E80B2C3B2070A039802FB00F2002002907C4804930392017007F043FCDFF848C2039ADFF844E20021AEF848
:400E4000001002EB0C03DFF83CE2744AAEF800101170DFF834E2724A8EF800101180A981704AA9607049C2F800C00B60BDF80830AB816E4B1E7007F023FC049B6C496D48A2
:400E80006D4A90F800C00B7092F800E06B4B4EF0200E83F800E092F800E0032C83F800E00F7092F800E04EF0800E83F800E092F800E083F800E081F800C0037823F003033B
:400EC00043F0180343EA040303700B7000F04F875B4B5C49019801288CBF1F460F465A481378076059495548594C43F0500313700C6003701378574C43F0080303701378E0
:400F0000A98803702378544DDBB22B7014F8043C524DDBB22B700E3C24781378504D43F00103E4B22C70037013782D4A03701378FF2943F00103137094BFC9B2FF2132208A
:400F400004F0C8F9394B474A1B781278DBB283F073018DF82B30AB238DF82C108DF82830C221B1238DF829108DF82A30002A3FF4D4AC3D4D3D4B0DF1280E1EF8017B287821
:400F800019780446C9B201F1FF3C421AC0EB0C0CA2F17F02BCFA8CFCB2FA82F24FEA5C1C5209884238BF6246002AE9D1884200F0218402065ABF421CD2B201222C4948BFC3
:400FC00000242A702B4A0F551278900702D52A4A022111600DF12D029645CED19DE400BF004E0040E580FF1F0D38002014900000109000000C900000103800200490000021
:40100000009000000D510040005B004028380020D4360020D3360020D080FF1FC0360020A0350020CC80FF1FD480FF1F5137002077640040D980FF1FD03600207F6400403C
:40104000AD51000079520000C480FF1FDC80FF1FA15400006F640040D880FF1FD1360020D2360020523700205337002054370020583700206B65004000E200E0A081FF1F40
:40108000BC360020BE3600209C81FF1F6B78AB20DBB2082B8BBF9C4B9B4A1B7813709B4A8DF82B30127883F06B038DF82C30C221A9238DF828008DF829108DF82A30002A01
:4010C0003FF42BAC924D934B0DF1280E1EF8017B287819780446C9B201F1FF3C421AC0EB0C0CA2F17F02BCFA8CFCB2FA82F24FEA5C1C5209814288BF6246002AE9D181424A
:4011000000F0A58302065ABF421CD2B20122824948BF00242A70814A0F551278900702D57F4A022111600DF12D027245CED1FFF7F4BB7C4A7C4B1078117B1C7800238DF858
:401140001C008DF81D108DF81E308DF81F30002C00F00F84754C2478012C40F23385147A002C00F00684147D002C00F00284704C2278082A019200F225858DF82B200322C4
:401180008DF82D204FF6FF72CA248DF830308DF831308DF832308DF833308DF834308DF835308DF836308DF8373002238DF82E008DF828408DF82A608DF82F108DF82930FF
:4011C0008DF82C300AA80DF1360410F8013B510881F404455A4012F0010F85F0080518BF29464A0882F4044581EA530111F0010F85F0080514BF294611464A0882F4044548
:4012000081EA930111F0010F85F0080514BF294611464A0882F4044581EAD30111F0010F85F0080514BF294611464A0882F4044581EA131111F0010F85F0080514BF294692
:4012400011464A0882F4044581EA531111F0010F85F0080514BF294611464A0882F4044581EA931111F0010F85F008050CBF114629464A0881EAD31382F4044113F0010F56
:4012800081F0080118BF0A46A0429ED1D243C2F3072343EA0222C2F307238DF836208DF8373007F009FA2349234A0B78234D43F008030B70137843F00803137007F000FA95
:4012C00007F0FAF92B780146002B00F0B08507F0F7F907F0F1F91749174A0B7843F008030B70137843F00803137007F0E9F907F0E3F92C780146114A002C00F0158607F019
:40130000DFF97422002336E39181FF1F523700205337002054370020583700206B65004000E200E0DC370020C13600200C380020E480FF1FA0430040B04300401238002064
:401340006B78B14A003318BF012313701378002B40F0A984AD4AAC4B1B781278DBB2002A40F0F882002B00F01B85A94AA949137823F0030343F019031370A74A0B70A74BEB
:40138000A7491A60A04B0A781B78AB20DBB283F075048DF82B30C221B7238DF82C408DF828008DF829108DF82A30002A3FF4B5AA9C4D9D4B0DF1280E1EF8017B2878197823
:4013C0000446C9B201F1FF3C421AC0EB0C0CA2F17F02BCFA8CFCB2FA82F24FEA5C1C5209884238BF6246002AE9D1884200F0378202065ABF421CD2B201228C4948BF002478
:401400002A708B4A0F551278900702D5894A022111600DF12D027245CED1FFF77EBA864B1A78002A00F015831978122003F052FF7B4BAB22C2218DF828201B78B5228DF87B
:4014400029108DF82A20002177228DF82B108DF82C20002B3FF461AA724D734B0DF1280E1EF8017B287819780446C9B201F1FF3C421AC0EB0C0CA2F17F02BCFA8CFCB2FA2D
:4014800082F24FEA5C1C5209814288BF6246002AE9D1814200F0248202065ABF421CD2B20122624948BF00242A70614A0F551278940702D55F4A022111600DF12D029645D7
:4014C000CED1FFF72ABA5C4B1220197803F002FF534BAB22C2218DF828201B78B8228DF829108DF82A2000217A228DF82B108DF82C20002B3EF4F7AD4A4D4B4B0DF1280E50
:401500001EF8017B287819780446C9B201F1FF3C421AC0EB0C0CA2F17F02BCFA8CFCB2FA82F24FEA5C1C5209814288BF6246002AE9D1814200F0C38102065ABF421CD2B2C9
:4015400001223A4948BF00242A70394A0F551278900702D5374A022111600DF12D027245CED1FEF7C0BD344B1220197803F0B2FE2B4BAB22C2218DF828201B78B5228DF850
:4015800029108DF82A20002177228DF82B108DF82C20002B3EF4A7AD224D234B0DF1280E1EF8017B287819780446C9B201F1FF3C421AC0EB0C0CA2F17F02BCFA8CFCB2FA44
:4015C00082F24FEA5C1C5209814288BF6246002AE9D1814200F06B8102065ABF421CD2B20122124948BF00242A70114A0F551278900702D50F4A022111600DF12D02724568
:40160000CED1FEF770BD00BFD3360020D4360020D980FF1F77640040F5510000DC80FF1F523700205337002054370020583700206B65004000E200E051370020297812208B
:4016400003F048FE2B78AA4ADBB2127883F0C204AB208DF82A30C22100238DF82C408DF828008DF829108DF82B30002A3EF43BADA04DA14B0DF1280E1EF8017B287819784A
:401680000446C9B201F1FF3C421AC0EB0C0CA2F17F02BCFA8CFCB2FA82F24FEA5C1C5209814288BF6246002AE9D1814200F0F78002065ABF421CD2B20122904948BF0024B1
:4016C0002A708F4A0F551278900702D58D4A022111600DF12D027245CED1FEF704BD3B2006F09AFA824B01931B78002B3EF4FBACDFF81CE27F4D804B1EF8017B287819786B
:401700000446C9B201F1FF3C421AC0EB0C0CA2F17F02BCFA8CFCB2FA82F24FEA5C1C5209814288BF6246002AE9D1814200F0AF8002065ABF421CD2B20122704948BF002498
:401740002A706F4A0F551278900702D56D4A022111606D4A9645CFD1019AAB21C3208DF82810127871218DF829008DF82A100B20B9218DF82B008DF82C10002A3EF4B3AC7C
:401780000DF1280E1EF8017B287819780446C9B201F1FF3C421AC0EB0C0CA2F17F02BCFA8CFCB2FA82F24FEA5C1C5209814288BF6246002AE9D1814262D002065ABF421C99
:4017C000D2B201224D4948BF00242A704C4A0F551278900702D54B4A022111600DF12D029645CFD1FEF77FBC2978122003F072FDFEF779BC424A127851073FF5DAAB434AE1
:401800001770FFF7E7BB3E4A127851073FF55BA93E4A1770FFF768B9394A127851073FF5E5A93A4A1770FFF7F2B9354A127851073FF503A9354A1770FFF710B9304A1278E4
:4018400051073FF555A8314A1770FFF762B82C4A127851073FF556AC2C4A177063E4284A127851073FF5C4AD284A1770D1E5244A127851073FF511AA244A1770FFF71EBA51
:401880001F4A1278510798D4204A1770A6E71C4A127851073FF54CAF1C4A177059E7184A127851073FF504AF184A177011E7144A127851073FF590AE144A17709DE6104ACF
:4018C000127851073FF538AE104A177045E60C4A127851073EF5E9AD0C4A1770FEF7F6BD074A127851073FF5D7AD084A1770E4E55237002053370020543700205837002020
:401900006B65004000E200E0408D00004B6500403C8D0000039BAE4803EB43038A4210F8230002EB010340F22882521A99B2FF29D4B200F22782A042FEF4F3ADDBB28342FD
:4019400028BF03461C46FEF7ECBD022300210193FFF75EBA9F48A049A04A002B08BF02460B789F4823F0030343F01B030B70037005E5234674229B498DF82B300B78AB209E
:401980008DF82C20C221B6228DF828008DF829108DF82A20002B3EF4C0AF934D934B0DF1280E1EF8017B287819780446C9B201F1FF3C421AC0EB0C0CA2F17F02BCFA8CFC7D
:4019C000B2FA82F24FEA5C1C5209814288BF6246002AE9D1814216D002065ABF421CD2B20122834948BF00242A70824A0F551278970702D5804A022111600DF12D02964530
:401A0000CFD1FEF78ABF7B4A12785107E4D47B4A1770F2E77A4B1B785A0715D5784A23F004031370774A784B12785B78754922F010020A70013B744ADBB2537023B9734A22
:401A4000137823F010031370029A00231370FEF7D6BD012004F03AFCFEF75FBF6C4A6D49137803F0FE0313700B78042B00F0DC81694BDFF8ECE11A786849694C694802F0AA
:401A8000AF02002727701A70C0F800E00A701A78654842F008020A701B78644A0B700378DBB2137011F8143C6149DBB2614A0B701378614ADBB2137004F072FB5F4A604B2E
:401AC00017701E7006F006F806F0F6FDAA885D4F531EB3F5007F3CBF5A235A434FF000033B80DFF880E1584F5849AEF8003028BF4FF434423B70DFF870E12370544C0A4422
:401B0000AB81544FCEF800102260534AAB603B80137006F0D5FDFEF7E6BA1978122003F0D9FB304BAB22C2218DF828201B78B8228DF829108DF82A2000217A228DF82B1042
:401B40008DF82C20002B3EF4E8AE274D274B0DF1280E1EF8017B287819780446C9B201F1FF3C421AC0EB0C0CA2F17F02BCFA8CFCB2FA82F24FEA5C1C5209884238BF6246CC
:401B8000002AE9D1884216D002065ABF421CD2B20122174948BF00242A70164A0F551278900702D5144A022111600DF12D029645CFD1FEF7B2BE0F4A12785107E4D40F4A3F
:401BC0001770F2E77422D6E6244CFEF75DBE00BFDC37002039520000D980FF1FF551000077640040523700205337002054370020583700206B65004000E200E04B650040EF
:401C00000D3800200D51004010380020005B0040004E0040C4360020D03600207F6400409C81FF1FDC80FF1F6F640040D880FF1FD136002061640040D2360020C236002003
:401C4000C3360020BC360020C0360020A081FF1FD480FF1FA035002051370020E480FF1F15510000BE360020CC80FF1F97490B78580713D5964A23F004030B7095495378A7
:401C80000978013B934821F01001DBB20170537023B9914A137823F010031370029A00231370FFF79CB88D4A8D4C13788D4943F010031370257823788B4F03F0FE033F20F3
:401CC00023704FF40072087088493870884806F0F7FE4FF400728749874806F0F1FEEDB2864B0021F822ED0739701A7003D5237843F001032370794A794C1378794943F0A0
:401D00001003137025782378774F03F0FE033F2023704FF40072087074493870744806F0CFFEEDB2754B0021F822E80739701A7003D5237843F00103237006F0BDFC704BB5
:401D400000221A7006F0BCFCFFF704BB6D4B6E486E49002A0CBF1A4602460B786C4823F0030343F01B030B700370FEF746BD694FFFF7B5B8554BFFF714B89AB2FF2A7FF6A4
:401D8000DDAD0024844238BF0446FEF7CABB99B2FF293ED90024944238BF1446FEF7C1BB5A4A5B49137823F0030343F0180313700B70544AFFF7E3BA0398B0F5FF7F19D29C
:401DC000811C89B2CBB2090A0F465A2202FB00F201213F200C460290FFF725B84B4A4C49137823F0030343F0180313700B70454AFEF703BDA9883E204B1EFE2B94BFC9B236
:401E0000FF2103F067FA01231F464BF2F222FF23DEE7DBB29A4228BF1A461446FEF781BB2A4B1A78FEF7AEBC04F012F820E63A4B2E701A68D00740F131811A6822F00102D2
:401E40001A6000BF00BF00BF344F3E60084606F037FC334B1A78900740F11E81314AB6211170E0200D21107011701A78910706D41C46182006F018FC23789B07F9D5284B74
:401E80001A78920703D51C78A40800F0F680072406F012FC3A680021012A034629707FF416AA1D490A6842F001020A6000BF00BF00BF002218463A6006F002FC002C7FF4E6
:401EC00008AA06F06FF8FFF704BA00BF0D380020103800200D510040005B0040A643004080C7004088C700408CC700403890000000C000403892000000C2004084C7004069
:401F00009481FF1F39520000F5510000D980FF1F7764004061510000040008401438002022470040204700405D4B16701A68D00740F1B0801A6822F001021A6000BF00BFDA
:401F400000BF584F3E60084606F0BAFB564A1378990740F19D80554BB6211970D5200221187019701178890700F19280402119709DF82800114618709DF829201A709DF883
:401F80002A201A709DF82B201A709DF82C201A709DF82D201A709DF82E201A709DF82F201A709DF830201A709DF831201A709DF832201A709DF833201A709DF834201A70FC
:401FC0009DF835201A709DF836201A709DF837201A700B78344A9B07FBD51378980757D513789B0854D13249137891F800C049789B0702914CD52D4BD82005214FF0B60E67
:4020000083F800E018701970117801F0020101F0FF0000293CD14021197018709DF80410197083F800C09DF80810197011781E4B8907FBD51A7890072AD51B789B080BBF02
:402040000124002475227422019206F035FB3B680021012B2970134F019A08D1104D2B6843F001032B6000BF00BF00BF3960019206F026FB2346019A7DE406F01DFB3A688B
:402080000346012A2C703FF40CAF06F019FB18E77422D9E7034F56E70424F9E6014FD5E604000840143800202247004020470040183800202DE9804887B062B6B44B1978ED
:4020C000002901F0CE8506F0F7FAB249B24D0B78B24A43F020030B702B78012443F010032B7014604B78AE4E43F010034B700225A1F507513560383915600B78A94A43F02C
:4021000020030B701378A84E43F02003137006F0D7FAA64BA64A214620461A6003F0DAF806F0CAFAA349A44A0B7843F008030B70137843F00803137006F0C2FA06F0BCFA79
:4021400033780146002B01F0458506F0B9FA06F0B3FA9849984A0B78984C43F008030B701378C82543F00803137025700B7B43F010030B73137B01F5587143F01003137327
:402180000B789D06FCD58E4D06F09AFA8D488E492B78012202700E784BB98C4B2A701A7802F0FC021A701A7842F003021A70884888490378884A43F0600303700B7868782B
:4021C00043F002030B7013787D4943F00203137050B902F5A65206321378012003F0CF0343F0300348701370AB78754953B97B4B01201A78887002F0FC021A701A7842F042
:4022000003021A70724A73481378734943F0600313700378EA7843F0080303700B78684F43F008030B70002A01F072846C486D490378674A43F0020303700B786A4C43F0F9
:4022400002030B701378304643F080031370267005F030FF2B795A4953B9644B01201A78087102F0FC021A701A7842F003021A70574858490378584A43F0600303700B7806
:402280005B4E43F004030B70137843F0040313703378DC0741F1398423F00103554A33701378554C23F0200313702378013BDBB223702BB912F8583C23F0200302F8583C80
:4022C00033784B49980712D523F002034B4A0B70137823F0010313706378013BDBB263702BB992F8F33923F0100382F8F33933783F495A0712D523F00403404A0B701378CA
:4023000023F0100313706378013BDBB263702BB992F8F33923F0100382F8F339384FDFF8EC80FF2200233A7088F8003004F0F6FD3A78FF2A01F0E683012A00F0888001234C
:402340009340022AD9B233786CD81942284869D0DFF8BCE023EA01035EF82210DFF8B4E003700B781EF802C0DFF8ACE023EA0C031EF802200B70A35C013BDBB2A354002B7F
:402380004FD12049204B51F822109A5C0B7845E0523700209A6500409964004000E100E080E200E0B2430040123800202C380020D5520000A0430040B043004001470040C0
:4023C0007C81FF1FD8370020E480FF1F5A58004077580040A4430040B44300405E580040A9430040B9430040E380FF1F5C5800400D380020585B0040103800200D51004081
:40240000E580FF1F04900000009000002838002014900000109000000C90000023EA02030B7003789A0710D443F00203C44A3370137843F001031370637823B9C1490A7897
:4024400042F010020A700133637001233B7098F80030BD4C002B41F04F8304F0DDFDBB496A790B78BA4803F0FE030B70002A01F02083B84AB8491378B84C43F0020313701D
:402480000B78AA7943F002038F260B70B0482670002A01F0E882AF49AF4A0B78B04843F001030B701378AF4E43F001038321AE4F137006F1180B01704FF0000A4FF00109DD
:4024C0007A7BB97B8B18541A8A4298B2E4B241F2708299B2FF29DBB201F26E82A24281F071823B69204698470C3606F80C4C46F808AC06F8049CB34507F114074FF0010842
:40250000DED19A4B02221A7005F0E8FBEF79DFF840A2002F01F05C82954B96481A78964C42F010021A700278944942F0100202702278934F42F0010222701A783F2042F0EF
:4025400010021A70267823784FF4007203F0FE03237008708B4938708B4806F0B1FA4FF400728A498A4806F0ABFA8A4BF6B20021F82239701A70F30703D5237843F001035E
:40258000237041F6FF72844E844C330C934214BF1A464FF40052824B01208327207000211F704FF4804758709970D9709F80DA8005F0E8FC04F0C2FF070602460ED444F6EE
:4025C0001061C30003F1804303F5F04303201880B6B207209A70D8709980DE802078172803D8704B01010B445A7205F0B9FC6E4B00224FF4804183201870627010465A7082
:402600009A70DA709980D98005F0BCFC04F096FF024610060ED444F610664CF2A070D30003F1804303F5F043032119809A70D9709E80D8806078172803D85A4B01010B443D
:402640005A7205F08DFC41F6FF71584E584B320C8A4208BF4FF4005283271F70022100204FF4804759709870D8709F800846DA80A17005F087FC04F061FF010602460ED446
:402680004CF2A871C30003F1804303F5F04303201880B6B207209A70D8709980DE80A078172803D83F4B01010B445A7205F058FCDFF810E13F4A9EF800401378002C14BF38
:4026C0000324002423F003033B493C48DFF8F8C03B4F43F0180301262343DFF8F080002413703B7008608CF800608CF8004098F80030DFF8DC80DBB288F800301CF8103C41
:40270000DFF8D090DFF8D080DBB289F80030ACF11A0C9CF800C098F80030DFF8C0A0DFF8C0905FFA8CFC03F0AF038AF800C088F8003089F800309EF800E0137852E000BFAD
:402740000D510040005B004028380020004E00407C81FF1FA8430040B8430040815B0040805B0040DC370020C08F00000C380020A6430040B643004080C7004088C70040FC
:402780008CC700403890000000C000403892000000C2004084C700408481FF1FC880FF1F0876004010700040007600408881FF1F10760040D980FF1FDC80FF1F3952000041
:4027C00077640040D43600207B6400406F640040D880FF1FD1360020D0360020D23600207F640040A64514BF4FF0030EA64623F0030343F018034EEA030313703B7008601F
:4028000003F0CEFC022005F007FA954840F2E73703789449334003700A78934B02F0FC020A700278DFF87CE242F0040202701A78DFF874C202F0CF021A701A78A9F5AB5915
:4028400042F030021A701A78DFF8608202F0F0021A701A78A9F11B0942F00F021A709EF80030A1F65F3133438EF80030A9F80070A8F800708CF8004003787C4A03F0FE0361
:4028800003700B787A4F03F0FE030B701078794B00F0FE0010709CF800003878EE73304038709EF80D004FF0FF0A00F0FC008EF80D003878DFF8F8B140F00400387018786D
:4028C00000F0CF001870187840F030001870187800F0F0001870187840F00F0018709CF80A30654833438CF80A30644BA9F80CA0A8F80CA08EF80E401E703B7803F0FE03CA
:402900003B700F785E4B07F0FD070F70177807F0FD0717709EF80E700778DFF898E1374007709CF8177007F0FC078CF81770077847F0040707701F7807F0CF071F701F787E
:4029400047F030071F7093F800C04E4F0CF0F00C83F800C093F800C02E744CF00F0C83F800C098F813C04CEA060C88F813C023F807AC23F805AC89F8174090F800C0424B7B
:402980000CF0FE0C80F800C008784FF0080800F0FB00087011784FF0100C01F0FB01117099F81720DEF800202020DFF80CA1CBF80080CBF800C0CBF80000C7F80080D364D4
:4029C000324BE0228AF80020DEF80010C3F80080DFF8E890DFF8E880C7F800C0C1F8509088F80020DEF80010DFF8D8A0DFF8D890C3F800C0DFF8D4803860DFF8D4C0C1F879
:402A000054A089F800201860DEF8009020494FF0040EC7F800E0C9F848808CF80020C3F800E00B781B4A43F040030B7013781A4F43F040031370194BDFF898A01E706C745B
:402A40003B783E4603F0FD0343F002033B7005F0E3F8134CDFF880B0DFF8809060E000BF004F0040024F00400B4F0040B34300400C4F0040174F0040184F004050370020AE
:402A8000234F004080E100E01951000000E100E0A2430040B243004020510040D536002051370020014F0040034F0040064F004080E200E008ED00E003E400E0BD60000068
:402AC00004E400E0B15D000005E400E0B553000002E400E0C3360020C23600205437002001F010F9EB7C002B33D123786BB9854B1B7853B9844B1A783AB99AF8002022B9EE
:402B00009BF800200AB901221A707F4B7E4A1B78002B40F0EF826A7C7C4B002A40F0ED83EB7C7A4AABB9917C0029D9D0937421783C2002F0CFFB2278754B002A00F0EC8301
:402B400019783D2002F0C6FB01F0DCF8EB7C002BCBD005F0B1FD6F4A6F4913786F4F03F0FE0313700B78DFF8DC8103F0FD030B7000913B78033203F0FD033B7010231278F5
:402B8000C8F80030664B00261E605E4B1E7005F097FD03F05DF95C4B624A1E706E741378009903F0FD0343F00203CDF8088001910097DFF894811370052304920393049ADE
:402BC0000026137803F0FD0313702E7505F074FD98F80030022103F0FE0388F80030019F4FF4FA523B7803F0FB033B70009F3B7803F0FB033B704C4B19704C4B4B491A60ED
:402C00001B68002B75D04EF66027BB4240F2C986A3F56A423B46603A0A6098F80010DFF8ECE001F0FE0188F80010019F40493E7806F0FB063E70009A2E7C177807F0FB077C
:402C400017703C4A13800B8012F8017C029A20231360002E3DD198F80030DFF8F0C003F0010388F800309CF80070334B07F0FC078CF8007098F800C0304F4CF0040C88F81B
:402C800000C093F800C02B4A0CF0CF0C83F800C093F800C04CF0300C83F800C093F800C00CF0F00C83F800C093F800C04CF00F0C83F800C03B784FF0FF0C43F001033B704A
:402CC0000123A2F800C08EF810301D4BA1F800C01E70019A137843F004031370009A137843F00403137098F8003043F0010388F8003005F0E5FC2B7D03F0FF06002B41D122
:402D0000034F29E048370020D53600207C81FF1F513700200C4F0040A3430040B34300404C37002020510040C4360020C83600201E4F00401C4F0040234F0040194F004076
:402D40001B4F004080E200E0184F00401A4F004000F0D8FF2B7DABB9AB7C002BF8D06A4B3C209E74217802F0B5FA23783D20002B00F0E382397802F0ADFA00F0C3FF2B7DB1
:402D8000002BE9D000272F7505F096FC98F80030202203F0FE0388F8003001995B4E0B7803F0FB030B7000990B7803F0FB030B70574B1B78029B1A60564A3760177005F07E
:402DC0007FFC0498037803F0FD0343F0020303702F7505F071FC059098F80030022203F0FE0388F8003001990B7803F0FB030B7000984FF4FA51037803F0FB030370454B62
:402E00001A7031603368002B74D04EF660218B4240F2C385A3F56A420B46603A326098F800103D4A01F0FE0188F8001001983B490678DFF8D4E006F0FB06067000982E7C24
:402E4000077807F0FB070770314813800B800778029820230360002E3CD198F80030DFF8CCC003F0010388F800309CF800702C4B07F0FC078CF8007098F800C0294F4CF09B
:402E8000040C88F800C093F800C00CF0CF0C83F800C093F800C04CF0300C83F800C093F800C00CF0F00C83F800C093F800C04CF00F0C83F800C03B784FF0FF0C43F00103D8
:402EC0003B700123A2F800C08EF81030104BA1F800C01E70019A137843F004031370009A137843F00403137098F8003043F0010388F80030059805F0E3FB2B7D03F0FF0625
:402F0000002B2FD1084F17E07C81FF1FC83600201B4F0040C43600201C4F00401E4F0040234F0040194F0040513700201A4F004000F0E8FE2B7DABB9AB7C002BF8D05F4B72
:402F40003C209E74217802F0C5F923783D20002B00F0FE81397802F0BDF900F0D3FE2B7D002BE9D000262E7505F0A6FB98F80030202203F0FE0388F8003001990B7803F04D
:402F8000FB030B7000990B7803F0FB030B704C4B1B78029B1A604B4B1E604B4B1E7005F08FFB039B013B13F0FF0303937FF407AE9DF80C2001238BF800208AF8003004F04D
:402FC00089FD424EDFF8F4800027AB7C002B65D100F098FE2378022B00F0C5813C4B3D4A1B8812889BB292B29A423949394800F2BA813378002B40F0CC810B8802889BB298
:4030000092B29A4200F2C5819AF80030324A3BB99BF80030314903F0FF07002B00F00C849BF800302D4A002B40F0EC822C4B1B78002BC7D02B4B2B4A1B78002BC2D00023F8
:403040001370294B284A1B889BB293B11388013B9BB213802378022B0BD0244B24491A780B7802F0020282F0020203F0FD0313430B701D4B1B889BB2002B40F0EB811849B8
:403080001B4A0B701378DFF8348003F0FD0343F002031370AB7C0027002B99D088F812703C20217802F016F923783D20002B00F06581317802F00EF987E700BF7C81FF1FAF
:4030C0001B4F0040C8360020C436002051370020BC360020BE360020C3360020C2360020CC360020CD360020CE3600202151004020510040BF4B00211B781170002B35D0B4
:40310000DFF840E30EF10408BB4B1EF8017B197899F800200846D2B202F1FF3C8B1AC1EB0C0CA3F17F03BCFA8CFCB3FA83F34FEA5C1C5B09914238BF6346002BE8D1914291
:4031400000F0E2800B06AD4A4CBF00204B1C1754A94A54BFDBB201231370A94B1B78990702D5A84B02221A60C645CDD13378A64F03F0FD0343F00203337005F09DFAA34B9E
:4031800000901B78A14A03F0FE0313703B78DFF8AC8203F0FD033B7098F80030012103F0FD0388F800309A4B9A4A19709A4B01911A6002F0FDFE009805F082FA05F07CFA0B
:4031C00000904EF66020954A137803F0FE0313703B78934A03F0FB033B7098F8003003F0FB0388F8003001998E4B197010601368002B7AD0834240F29B808446A3F56A4390
:40320000603B1360854A80481378DFF830E203F0FE0313700378844903F0FB0303709EF8003000F67B3003F0FB038EF8003095F810E07E4F7E4BA1F800C0A0F800C04FF041
:40324000200C97F80080C3F800C0BEF1000F3CD11378DFF8F48103F00103137098F800C0744B0CF0FC0C88F800C092F80080DFF8DCC148F0040882F8008093F80080FF2241
:4032800008F0CF0883F8008093F8008048F0300883F8008093F8008008F0F00883F8008093F8008048F00F0883F800809CF800304FF0010843EA08038CF800305E4B83F867
:4032C00010800A80028087F800E04F4A5B49137843F0040313700B7843F004030B7092F8753B43F0010382F8753B009805F0E8F96A7C514B002A3FF413AC00225A743378D4
:4033000003F0FD0333700BE43D4B1B785A073FF519AF4B4B1F7027E71A7802F0FF00002A00F043831978122001F0D4FFFFF7D8BB00211FFA83FC116064E73B78122003F09D
:40334000FF02002B7FF416AD104602F0BFFFFFE43B78122003F0FF02002B7FF4FBAD104602F0B4FFE4E52A4B294F1B78022B1CD000238BF800308AF8003023E63378122018
:4033800003F0FF02002B7FF494AE104602F09EFF1BE61F4B1E4F1B78022B00F0F28000238BF800308AF8003040E605F085F9174B16491B78214A03F0FE030B70124BA1F617
:4033C00069311B78DFF888C003F0FD030B701378DFF85CE003F0FD0313709CF8002010230D4ACEF80030002313603B7005F068F9BEE700BF523700205337002058370020CE
:403400006B65004000E200E0A34300400C4F004048370020701101004C370020184F0040C8360020C43600201C4F00401B4F004080E200E0234F00407C81FF1FB3430040BC
:403440004B6500403C8D00001A4F0040194F00400F4F004005F030F944F620625B495C4F0B78A1F6653103F0FE0381F8653B584B1B7803F0FB033B700B78032703F0FB034E
:403480000B70544B1F70544B1A601B68524A002B74D04EF6602C634540F2A281A3F56A43603B1360494B4A4F1A78DFF844E102F0FE021A70464A4949127802F0FB023A7020
:4034C0009EF8002007F6783702F0FB028EF80020434A95F810E0A2F800C0424AA1F800C04FF0200C97F80080C2F800C0BEF1000F33D11A78DFF8088102F001021A7098F8D5
:4035000000C0394A0CF0FC0C88F800C093F800C04CF0040C83F800C013784FF0FF0C03F0CF031370137843F030031370137803F0F0031370137843F00F03137018F8013C0D
:403540000122134308F8013C284B1A74244BA3F800C0A1F800C087F800E01D4B1C4A1B78234943F0040313700B7843F004030B7092F8753B43F0010382F8753B05F0A0F828
:4035800020E505F099F81B4B1A491B78184A03F0FE030B700E4BA1F669311B78DFF85CC003F0FD030B701378DFF838E003F0FD0313709CF8002010230F4ACEF8003000238C
:4035C00013603B7005F07CF8E9E600BF184F0040A3430040C4360020C83600201E4F00401C4F004080E200E0234F00407C81FF1FB34300400C4F00404C3700200F4F004038
:403600001A4F0040794B00211B781170002B35D0DFF818E20EF10408754B1EF8017B197899F800200846D2B202F1FF3C8B1AC1EB0C0CA3F17F03BCFA8CFCB3FA83F34FEA2F
:403640005C1C5B09914238BF6346002BE8D1914200F0BE800B06674B4CBF002001311F54634B54BFC9B201211970634B1B78980702D5624B02221A60C645CDD101230027A6
:403680008BF800708AF8003005F016F85C4B00901B785B4903F0FE030B705A4B59481B78594A03F0FD03037013784FF0020E03F0FD031370554B564983F800E0554B1960A0
:4036C0001B685449002B7FD04EF6602E734540F25E81A3F56A427346603A0A60484A48491278484802F0FE020A70464ADFF818C11178494F01F0FD0101709CF800E0474926
:403700000EF0FD0E8CF800E002F66D32DFF820E113800B80102397F800C0CEF80030404B93F800E0BEF1000F3DD1354B34481B78DFF8008103F00103037098F800C0394B30
:403740000CF0FC0C88F800C090F800C04CF0040C80F800C093F800C00CF0CF0C83F800C093F800C04CF0300C83F800C093F800C00CF0F00C83F800C093F800C04CF00F0CBE
:4037800083F800C018F8013C4FF0FF0C43F0010308F8013CA2F800C0214A0123A1F800C087F800E01370174B16491B78164A43F002030B70137843F002031370104B1B7804
:4037C00043F0010382F8593B009804F079FF2DE4094B1B785A073FF53DAF134B1F704BE700211FFA83FC11605CE600BF5237002053370020583700206B65004000E200E0E9
:403800000C4F0040A3430040B343004048370020A08601004C3700200F4F0040124F004050370020174F00404B6500403C8D000080E200E00E4F004001230F70137004F0EA
:403840003BFFBF4B00901B78BD4903F0FE030B70BC4BBC481B78BC4A03F0FD03037013784FF0020E03F0FD031370B84BB84983F800E0B84B19601B68B649002B00F0828098
:403880004EF6602E734540F28580A3F56A427346603A0A60AA4AAA491278AA4802F0FE020A70A84ADFF8A0C21178AB4F01F0FD0101709CF800E0A9490EF0FD0E8CF800E096
:4038C00002F66D32DFF8F8E213800B80102397F800C0CEF80030A24B93F800E0BEF1000F3FD1974B96481B78DFF8D88203F00103037098F800C09B4B0CF0FC0C88F800C05C
:4039000090F80080DFF8C0C248F0040880F8008093F8008008F0CF0883F8008093F8008048F0300883F8008093F8008008F0F00883F8008093F8008048F00F0883F8008054
:403940009CF800304FF0FF0843F001038CF80030A2F80080824A0123A1F8008087F800E01370784B77491B78774A43F002030B70137843F002031370714B1B7843F00103F7
:4039800082F8593B009804F09BFEFFF749BB0F609BB2A3E60F609BB27CE737609BB2FFF73EBA0E609BB2FFF738B902F08FFCFFF797B8FF2805D90024944238BF1446FEF7FB
:4039C00090BDDBB29A4228BF1A461446FEF789BD6548664A0378664943F0100303701378DFF8E89103F0FE033F20137008704FF48072604989F800005F4805F061F84FF435
:403A000080725C495D4805F05BF84FF480725C495C4805F055F85C4E4FF400725B495C485C4C05F04DF84FF400725B495B4805F047F80FCE0FC40FCE0FC40FCE0FC496E8FB
:403A40000F00DFF88CE184E80F00554E554BF82289F800708AF807808EF8007086F800801A70FEF759BD504B01F5A35109311A700A701A78A1F5905102F0F3021A701A78C9
:403A8000193942F004021A701A780124C2F3810202F19242063292F820218471D2B20A701A7802F0FD021A701A78D2B21A70FEF7F2BC3E4B01241A7081F8252A1A78A1F2D1
:403AC000F77102F0F3021A701A7842F004021A701A784471C2F3810202F19242063292F83021D2B20A701A7802F0FD021A701A78D2B21A70FEF7BDBC04F00EFA0023237075
:403B0000FEF7ABBC3378FEF78DBC294CFEF7D8BB284B294C0C2119702378284943F02003237003200A7004F0C5FA2378012203F0FC0343F003032370FA70FEF777BB00BF94
:403B40000C4F0040A3430040B343004048370020A08601004C3700200F4F0040124F004050370020174F0040A643004080C7004088C70040FC8A000000C4004000C500408B
:403B8000FC8B000000C60040FC8C00003890000000C0004000C70040408D000000C200409CC7004084C7004020580040245800401038002004580040055800400658004071
:403BC00080E200E00E4F00400D4F00408CC7004098C700403C4B34701A68D00772D51A6822F001021A6000BF00BF00BF374D2C60084604F065FD364B1A78910760D5354AEC
:403C00000D21B624E0201470107011701A78910706D41C46182004F047FD23789F07F9D52B4B1A78920702D51C78A4083BD0072404F042FD2B680021012B024631707EF4B6
:403C400084AA21490B6843F001030B6000BF00BF00BF002310462B6004F032FD64B3FEF776BA1D4A1D4E15681D4C1E48E0232E64237001701C48146872251C4A05701C4E84
:403C80001C49202010701C4D1C4866640B700626472402212E70047082F80211184A01231370FEF710BA04F007FD2B680246012B3470C6D004F004FD04F074F9FEF747BA27
:403CC0000424B5E7014D93E70400084014380020224700402047004008ED00E0A56E000000E400E0D83600208A650040896400403D6E000001E400E02865004038650040E0
:403D0000523700202DE9F04F7B4FA7B03B78032B00F0AB813B78022B00F00A81DFF8DC91DFF8F8817549B8F80020B9F8003092B29BB29A4280F0BE80B8F800309BB2002B96
:403D400000F08081DFF8D8E1B8F800306C49BEF85C2A9BB25A2404FB0314100AAB211E238DF83B00674D8DF83A20674F8DF838108DF839300DF13F000DF199061EE02278B3
:403D80006178A3781B0443EA012313431A023A7848BF43F07F43012A03D1002BB8BF1F335B1119121A1400F8033C00F8021C00F8012C0330B04204F1030410D02B79002B85
:403DC000DDD121786278A37800F8031C00F8022C00F8013C0330B04204F10304EED100220EAB25A853F8041B834282EA0102F9D19DF895109DF89430C2F307204B40534098
:403E0000424C5840BEF85C1AC2F307434340207883EA12624B1C8DF89620AEF85C3A002836D03B4F3B4DDFF800B1DFF800C10DF137060DF1960A16F8014F39782A7808461F
:403E4000D2B202F1FF3E8B1AC1EB0E0EA3F17F03BEFA8EFEB3FA83F34FEA5E1E5B098A4288BF7346002BE9D18A423DD00A0659BF0131C9B2012100200BF8004039709CF86A
:403E800000309B0702D5244B02221A605645D2D1B8F80030214901339BB2A8F80030B8F80020B9F8003092B29BB29A4210D227B0BDE8F08F1A4B93F85E2A22B1002283F890
:403EC0005E2A83F85F2A27B0BDE8F04FFCF700B90B889BB2FF2B00F2BF80D9B2382027B0BDE8F04F01F0F6B99CF800305B07BDD40C4B1C70CAE700BF51370020BE36002090
:403F0000A081FF1FCC80FF1FE080FF1F52370020533700205437002000E200E0BC360020442B00204B650040583700206B650040A84C237803F0FF02002B40F08F80A64E69
:403F4000337A002BB3D0A54DA5492B78DFF8F082DFF8F09243F004033272C8F800900B702A78A04B0A701978452001F0B3F9012323709D4ADFF8D0A2137803F0FE03137095
:403F80009AF80030042B00F0B1852B78944A002103F0AF0331722B70C8F8009013702B78924E43F0080313702B78914813703378904DDBB2037012F8143C8F48DBB2037096
:403FC00012F81E3C8D4ADBB213702A688C4B8D48D31A5B08A0FB0323DFF870928A4A8B4DC3F34F130120A9F800302970107004F063FB05468649874A0B78874803F0FE03FC
:404000000B701378854903F0FD0313700378844A03F0FD03834E037002233370116001F0C7FF284604F04CFBB9F8003036209BB2FF2B94BFD9B2FF2101F04CF90023237085
:404040003B706DE60B8837209BB2FF2B94BFD9B2FF2101F03FF975E6FF213FE7DFF8E0815D4EDFF8E0915D4D83E76F4B5B78002B3FF429AF04F020FB6C4B4FF000081C7876
:4040800083F80080E4B204F01BFBE4B904F014FB674A13781470DCB204F012FB44B1654E3368002B00F050855F4A1A2011799847614C2378032B3FF606AFDFE813F0990232
:4040C0007102CB003F00584B1C79012C00F20B865A4BDFF87C911D461AE081B2FF2929D8B24280F03E84234405EB83031B693046984704EB44020134E4B209EB8203022C96
:4041000009F82260C3F8048083F8088000F03084A300191905EB81014A7B897B5018561A8A421FFA80FEF6B2D7D8BEF1FF0F40F218840026964238BF1646D4E73A4B1E79C1
:4041400004F0BAFA244B1A78002A00F0ED850025D3F804801D7004F0B3FA238BE562C4F80880354A2BB1013B9BB21383002B7FF4AAAE324AB1008B1902EB830388EAE870B1
:404180009B68A0EBE8701B1A002B0292226AB8BF5B429342DFF8A0E003DAB0F5802F40F35787029B0E4403EB86052B6994F82400984794F82450E36929461A4694F82600BF
:4041C00084F82A50A36004F02FF9002840F0DC8379E600BFC03600209481FF1FD03600207F64004061640040004E00406F640040D880FF1FCC80FF1FD1360020D23600206E
:40420000A081FF1FB7600BB6C3360020C23600200C4F0040A3430040B3430040A08601004C37002048370020103700201E3800201D3800202C38002018370020C08F000042
:40424000DC80FF1F15510000C4360020BE360020DC370020B54B1B79049304F02DFAB44B1A7802F0FF05002A00F088844FF000085E6883F8008004F023FA049BAD499A00C2
:404280000A921A4401EB820286EAE6709368A0EBE6701B1AA848029183FB0001002871F10003C4F82C80A660C0F2F98610F1FF5041F100014FF07F52002304F039FA08901A
:4042C0009A4B1879002800F0FA869C4B41F28732194601EB4010D0F81080062188EAE870A0EBE87003930023C1FB00231046194641F28832002304F01BFA002800F0DB8637
:4043000001288346B8BF4FF0010B08990B4689460029B8BF4B428342D8BF4FF000095B45CDF8249040F33F84CBEB0303013B93FBFBFB00290BF1010BC0F26A86CDF814B050
:404340000A9B049A9A18029B03EB8202517B937B94F82A209942069240F2CF84CA1A5FFA82FB5E460B449AB2FF2A94BFDBB2FF230B93B8F1000F00F0B884099B002B40F0EC
:40438000FE841A4604990698490163600791B04207DB0B9E8642C0F29D8606465FFA80FB0123069A511CB14202F1FF3280F24A865FFA81FB7BB1B8F1000F0CD0099951B13E
:4043C00062685F4B0A449A42B8BF1A465D4B9342A8BF13466360079A039B1344B3F8149094F8273009F1FF32B2F5805F28BF4FF48059554A23B1136905998B4200F0B0844E
:404400000123E382A38A0122089913449BB2E16005999342216184F828B0A38284F8272002D013F0FF0F6ED1484E3368002B00F09084069913209847A26833681546002B8E
:4044400000F08784110E1D2098473368002B00F08084C5F307411D2098473368002B00F07884C5F307211D2098473368002B00F07084E9B21D2098473368002B00F069847E
:40448000089D4120290E98473368002B00F06184C5F30741412098473368002B00F05984C5F30721412098473368002B00F05184E9B2412098473368002B00F04A84059DC6
:4044C0004220290E98473368002B00F04284C5F30741422098473368002B00F03A84C5F30721422098473368002B00F03284E9B242209847E38A3268FF2B00F22784D9B251
:404500000AB143209047049A0A9B84F82AB01344029A584602EB83052B699847E28A0A4B4A4521D3059ADAB912E000BF103700209481FF1FC08F000078741300708F000066
:4045400000EE85FF00127A00183700202C3800209B68002BB8BF5B42B3F5802F40F35D85B8F1000F00F05C85079A039BA18A13441A8B1D4B9142FFF4A6AC059A002A40F034
:40458000FC8398680028B8BF4042B0F5802FCCBF0020012003F0EAF9002840F0F58192E404F08AF8114B1A7802F0FF05002A00F0E58200255E681D7004F082F8238BE5626B
:4045C000A660094A2BB1013B9BB21383002B7FF47AAC002302226360A382E38284F82730E360236122706EE4183700209481FF1FAF4BB04E93F804903368002B00F0B782E9
:404600004FEA890217461546AB4A4946152002929847A94A07EB090302EB8303D3F8088037684FEA1861A7B12A20B847376887B1C8F307412A20B8473768C8F3072147B18C
:404640002A20B847376827B15FFA88F12A20B8473768974B1979002900F05883974B41F28732184600EB4111D1F81080039388EAE8700621A0EBE8700023C1FB00231046D4
:40468000194641F28832002304F052F8424683464FEA1861BBF1000F009208BF4FF0010B002F00F02E833F20B847009A3768C2F30741002F00F0BF843F20B8477D4B1F6878
:4046C000002F00F01E83009A3F20C2F30721B847784B5FFA88F11A68002A00F0AC843F209047744BBBF1FF0F1F6800F3D5825FFA8BF10FB14020B847039B714A03EB4913AD
:40470000D98A6B4B12781B7900209A4221836060A082E08284F82700E060206184F82800A060E062E061206284F8240084F8250084F8260000F29282029A03EB830302EB6B
:404740008303597B9A7B914201EB020340F233829FB28A1AFF2FD0B200F229828142DBB203D3994228BF194608462B464B449946029B84F8290003EB890584F82A002F696D
:40478000B84702F0CBFB4F4A29791578FF2D30D0A9425BD0022D2AD8DFF840C10123AB409CF80000DBB2034221D0DFF858E120EA03035EF825E044488CF800309EF8003048
:4047C00010F805C0414823EA0C03405D404D8EF800302B5C013BDBB22B5443B93D4D3E4B55F82050185C2B7823EA00032B70FF231370FF292AD001238B400229DBB224D8A0
:40480000364D2878034220D1DFF8F8E003435EF821E02D482B709EF80050435C2B482B43455C2B488EF80030435D63B9DFF8A4E0294B5EF825E05B5D9EF800C04CEA030363
:404840008EF80030435D013343551170244D2B78002B00F02C823368164D33B1192098472B6813B102214420984702F0D5FB94F82A00B8471B491C4B1C4E1A780B78002A16
:4048800023F0030314BF032201221948194D43F018031343184A0B70337005601378174D43F0100313702E782B7815492CE000BF103700202C380020C08F0000708F000011
:4048C0000C380020E580FF1F109000000C9000001038002004900000009000000D38002028380020D980FF1FD436002077640040DC80FF1FF5510000A643004080C70040F8
:4049000088C7004014900000AD4F03F0FE033F202B704FF400720870AA493870AA4804F0CFF8F6B20021A94B3970F822F1071A7003D52B7843F001032B7003F0BDFEA44BF9
:4049400000221A7003F0BCFEA24A137843F001031370238B002B14BF012302232370FFF7B2BAC0B2824228BF02461646FFF7BBBB994B1979994B98481B680022C2700BB1C9
:404980001B20984703F0DEFB934B954ADC789548261C954D18BF0126002301213B702E700370117003F088FE0646904D90492B78904A03F0FE032B700B788F4803F0FD03AB
:4049C0000B7013788D4903F0FD038D4D137002232B70086001F0ECFA304603F071FE894B894A1B781278DBB2002A70D1002B00F0A080864986480B78864A23F0030343F081
:404A000019030B700370844B214611201A6000F061FC824B1A78002A3FF455AA804A84F0770712780026AB25C220B5218DF83B408DF83C701E708DF838508DF839008DF880
:404A40003A10002A3FF43FAA764F774DDFF8F891DFF8F8C1DFF8F8B1DFF8F8A10EAE0DF13D0816F8014B39782A780846D2B202F1FF3E8B1AC1EB0E0EA3F17F03BEFA8EFEC8
:404A8000B3FA83F34FEA5E1E5B098A4288BF7346002BE9D18A4213D00B0659BF4B1CDBB20123002009F800403B709CF80030990744BF0223CBF80030B045D2D1FFF703BA43
:404AC0009CF800305A07E7D48AF80040F4E757484E49504A002B08BF02460B784C4823F0030343F01B030B7003708CE703F0E4FD4F4A3F491378A2F6653203F0FE0382F830
:404B0000653B0B78DFF850E103F0FB030B701378202103F0FB031370464B9EF80020464A1960002313608AF8003003F0C9FDFFF72CBA364936480B783C4A23F0030343F01F
:404B400018030B7003705EE73C4C2378032B3FF6BAA901A252F823F0694B0000A1450000554200003D4100001B4B93F80490344B002702934FEA89031D466AE503F0A0FD88
:404B8000E36A304A01339342E3622C497FF69BA98A68284691F82A1003F046FC00287FF4F3AEFFF790B900230593FFF7C9BB884238BF0846D9E59AB2FF2AF8D8DBB2D0E556
:404BC0008CC700403890000000C0004084C700409481FF1F004E0040103700202C380020C3360020C2360020C13600200C4F0040A3430040B3430040A08601004C3700201A
:404C000048370020D3360020D4360020D980FF1F77640040F5510000DC80FF1FD636002052370020533700205437002039520000184F004080E200E0C83600201837002005
:404C4000C08F00007F841E00583700206B65004000E200E04B6500401B4F0040029A03EB830102EB81014A7B897BBB4F03EB43038A4217F8237002EB010313D9521A99B223
:404C8000FF29D0B20AD88742DBB2FFF46EAD9F42384628BF184668E5FF212AE5B84238BF384662E59AB2FF2AF8D8DBB2EFE7AB4803785A0714D443F00403A94A03701378A4
:404CC000A84843F01003137043783BB9DFF8ACE29EF8002042F010028EF800200133437001232B70B7E5214644E6049906984901424643460791FFF74ABB0026B346FFF736
:404D000031BBBBF1FF0F7FF7F2ACF5E4964B1B78013BDBB2072B40F2AA8108460A468846924B83460393B5E403F0CAFCE36A904A01339342E3628F4C7FF6C5A88E4B06EB1E
:404D4000860603EB86031B69FFF730BAFF21FFF7D7BBE38AFF2B3FF6D6AB0022FFF7CFBB069B5B457FF44CAB4FF6FF71D38A8B421CBF0133D382FFF745BB00200AE4049BA4
:404D800003985B0119460793C3185A680B464158002A00F0388191464FEAE27AB8F1000FA8BFC4460998B8BF4FF0FF3380FB0101CDE90001019DA8BF01234FEA850E009DC5
:404DC0000C934FEA85004EEA95714FEA41134FEA4012B8BFC8F1000C43EAD063121A63EB0103DDE9000180185941CDE900016146019B0CFB0AF0CA17D900009B09FB020097
:404E000041EA5371DB000093ACFB09230344019152EA030100F0F280002A73F10001C0F2DE8059104FEA32004FF0000EDDE9009ABEEBDA7F00F0CA80B9EB00096AEB010A5E
:404E40004846514603F074FC0C99079A039B00FB01F11344DA680D9198686168002A00F0B08091464FEAE27AB8F1000FA8BFC44681FB0001CDE90001019DB8BF4FF0FF3340
:404E80004FEA850E009DA8BF01234FEA85004EEA95714FEA40120C934FEA4113B8BFC8F1000C43EAD063121A63EB0103DDE9000180185941CDE900016146019B0CFB0AF03D
:404EC000CA17D900009B09FB020041EA5371DB000093ACFB09230344019152EA03015ED0002A73F100014BDB59104FEA32004FF0000EDDE9009ABEEBDA7F55D0B9EB0009D6
:404F00006AEB010A4846514603F012FC0D9A0C9B049900FB03230A9A94F829000A44029901EB820292F90C2002FB03008AB1099B002BD5BF0021012101230023002A02DB47
:404F40001A460B461146B8F1000F36DB0A46FFF71EBA1346FFF71BBADC3700200D3800200D51004010380020E380FF1F708F00007F841E0018370020C08F0000005B004086
:404F80004FEAD37E12EB0E0043F1000149104FEA300040424FF0010E61EB4101A9E71046194601220023A2E719EB00094AEB010A4846514603F0BCFBA8E71A460B46FFF7A1
:404FC000E6B90122002391469A464DE719EB00094AEB010A4846514603F0AAFB34E74FEAD37E12EB0E0043F1000149104FEA300040424FF0010E61EB410117E7104619461F
:405000000122002310E70122002391469A46C5E6CBF100030593FFF793B90120FFF7BABA4046A26894F82A1003F0FEF900287FF4ABACFEF748BFBBF1FF0F3FF75DAB00271A
:40504000FFF755BBB242C8BF5FFA82FBFFF7B2B99EF82530424619469EF826008EF82A3003F0E2F900287FF48FACFEF72CBF41F28730254A002132F813800623C8F57A7877
:4050800088EAE872A2EBE872C3FB020141F28832002303F04DFB42464FEA186140E6B0F1FF5041F1FF314FF07F52002303F040FB0890FFF705B901208346FFF726B9134BB5
:4050C0001B78013BDBB2072B08D98046104B0393FFF713B91346B346FFF763B941F28730094A002132F813800623C8F57A7888EAE872A2EBE872C3FB020141F288320023ED
:4051000003F016FBE2E700BFB08F0000E380FF1F708F0000704700BF0C4A0D4B0D491B781378A2F64D3203F0FE0382F84D3B0B7803F0FE030B701378074903F0FE0313703B
:405140000B7813B1054B01221A707047004F0040034F0040A3430040A3350020A2350020F0B40E480E4C23680268934214D20D4EDD1C316821F07F4201313160D7B2C2F33A
:405180000721120C1F7059709A70256003689D4202D3054B01221A70F0BC7047D480FF1FCC80FF1F7481FF1FC03600200D490E4A0B681068834213D230B40C48DD1C04784E
:4051C000E4B21C704478E4B25C708078C0B298700D6013689D4202D3054B01221A7030BC704700BFCC80FF1FD480FF1F8481FF1FC03600200C490A7848788B781B0443EA07
:40520000002313431A02094A48BF43F07F431278012A03D1002BB8BF1F335B110448054A01210360117070478881FF1FE080FF1F9881FF1F9481FF1F0C490A7848788B78A0
:405240001B0443EA002313431A02094A48BF43F07F431278012A03D1002BB8BF1F335B11044A012113601171704700BF8481FF1FE080FF1FA4350020114A13889BB2D3B9D1
:405280001049114A0B681068834213D230B40F48DD1C0478E4B21C704478E4B25C708078C0B298700D6013689D4202D3084B01221A7030BC70471388013B9BB21380704796
:4052C0007881FF1FCC80FF1FD480FF1F8881FF1FC03600202DE9F04F2E4A2F4B12781C78D2B282F0C4034B4083B04340AB26C4258DF802008DF803108DF804208DF80530DF
:405300008DF800608DF80150002C38D06E46DFF894E0224DDFF89090DFF890C0DFF890B00DF106084FF0020A16F8014B9EF800102A780846D2B2571E8B1A7F1AA3F17F0347
:40534000B7FA87F7B3FA83F37F095B098A4288BF3B46002BECD18A4214D00A0659BF0131C9B20121002009F800408EF800109CF800309B0748BFCBF800A04645D4D103B022
:40538000BDE8F08F9CF800305F07E6D4044B1C70F3E700BF5137002052370020543700204B65004053370020583700206B65004000E200E02D4A1378DBB213F0980F32D01F
:4053C0002B4918062DE9F0410B702FD4DA0613D41B0701D4BDE8F081264C23689847264A264B22601A78012A04BF02221A70244B01221A70BDE8F081224B234A1B781D4811
:405400001D4C1E49DBB2137004600B783620022B1CBF02230B701A4B012119701178BDE8F041FFF757BF134B1B681847174D184C2878184E40F008000127377020702878E7
:40544000104D207012781048D2B20A702A781249D2B202700A781149D2B213F0180F0A70B4D1BDE8F041034B1B6818476F640040D880FF1FDC80FF1F1551000051370020CC
:40548000C03600206B640040D1360020D03600207F6400408E81FF1F61640040D23600202DE9F04103F008F98D4A8E4D13788E4C03F0FE0313702B788C4903F0FE032B702D
:4054C0002378DFF8688203F0FE0323700822884B884F09780026C8F800201E7003F0F0F83B78022B00F0E080834B844A0024844E14701C703378032B00F08680814D824BC9
:40550000824F1988824C83484A1E0023B2F5007F3B702370038064D37F4F804B00241C7003F0CAF87E4A6F491378A2F6653203F0FE0382F8653B0B7803F0FB030B701378F7
:40554000042103F0FB03137031702F602B686D49002B32D04EF66025AB423CD80C609BB26F4D604C2A78604902F0FE022A7022786C4E02F0FB0222700A7804F67B3402F038
:40558000FB020A70684F69493380694A2380202397F800E00B601178002951D0514C524923785F4A43F0040323700B7843F004030B70137843F00103137003F081F85D4A39
:4055C0005D4B022111701A685C4B3320BDE8F0411A60FFF77FBEA3F56A42603A0A602B46BEE747F2305303FB01F1554A6420A2FB0132891A02EB5103DF0A07F2DC5707EB78
:40560000133300FB03F788E7454D03F055F82B78344903F0FE032B700B78334A03F0FB030B701378404F414903F0FB031370354D20233A780B602C60347003F041F85EE738
:405640002B78DFF810C103F001032B709CF800E03C4B0EF0FC0E8CF800E095F800C0DFF8F8E04CF0040C85F800C01D784FF0FF0C05F0CF051D701D7845F030051D701D780B
:4056800005F0F0051D701D7845F00F051D709EF8003001252B438EF80030A6F800C0A4F800C03970157079E703F006F8264A274913784FF0100E03F0FE0313702B78244A6F
:4056C00003F0FD032B70237803F0FD0323700B78C8F800E016603E7002F0F2FF04E700BF004F0040A3430040B3430040034F0040A235002048370020C3360020C2360020E3
:40570000C4360020C83600207081FF1FCC360020CD360020CE360020984A0E009C81FF1F184F00401C4F00401B4F004080E200E08C81FF1F51370020C480FF1FDC80FF1FA1
:40574000C179FF65234F00400C4F00400F4F00404C3700201A4F0040194F00402DE9F04FC74F83B03C880646631E9BB2B3F5007F80F077815A2505FB04F5DAB21B0A0092E6
:405780000193C04ADFF880931378DFF8888303F0FE03137002F090FFBB4ABC491378DFF878B303F0FE03137099F80030082203F0FE0389F8003098F80030DFF860E303F091
:4057C000FE0388F800300B784FF0000ACBF800208EF800A002F074FFAD4B1A78022A00F02382AC4BAC4A4FF00008DFF834A382F8008083F800809AF80030032B00F0B48187
:40580000DFF80893A549A64AA64B4FF0000881F80080DFF810B382F80080A3F8008002F04BFFB6EB0806A04918BF01268BF800609E4AA1F80080DFF8F0E29D499D4EA2F86E
:4058400000809D4B8EF800809C4A86F80080A1F800809B49A2F800800B609A4A1D44DFF8CCE2994B02211560CEF80080197002F027FF964B1A789BF80030D2B2002B40F012
:40588000EE80B2EB080218BF01224FF00108904B904983F8008090489DF800308F4D90F800C00B7095F800E08D4B4EF0200E83F800E095F800E0032A83F800E09DF80460AC
:4058C0000E7095F800E04EF0800E83F800E095F800E083F800E081F800C0037823F0030343F0180343EA020303700B7000F03A817C4B7D49013A012A8CBF1A460A467B4936
:405900002B780A6009687A4A23F010031160744A43F040032B7013702B78764943F0080313702B7813700B787349DBB20B7012F8143C7249DBB20B7012F81E3CB7F800B0CC
:405940006F4ADBB213700BF1FF33B3F5007FC0F0F580DFF8DCB1574B4FF0000883F8008002F0AAFE674A684E1378A2F6653203F0FE0382F8653B3378014603F0FB0333704D
:405980001378042603F0FB0313708AF80060C9F800B0D9F800305D4E002B40D04EF66020834267D8C6F800809BB2564E56483278DFF860E102F0FE0232700278DFF874C113
:4059C00002F0FB0202709EF8002000F67B3002F0FB028EF80020DFF86081DFF83CE1ACF800304B4A0380202398F80090CEF8003092F800E0BEF1000F00F0D8800846424A1F
:405A0000444E137843F004031370337843F00403337092F8753B43F0010382F8753B02F04FFE2B782E4A43F0020313702B7813703B88B3F5007F03D9FF213E20FFF74AFCAE
:405A4000FF2C94BFE1B2FF213520FFF743FC0D4A137843F00103137003B0BDE8F08F032215E7FF2201238DE80C004FF434454FF4007486E6A3F56A42603A3260034694E7FE
:405A80007081FF1F004E0040004F0040034F004048370020C3360020C2360020CC360020CD360020CE360020BC360020BE3600207881FF1F9C81FF1FA081FF1FA035002043
:405AC000CC80FF1FD480FF1F51370020D3360020D080FF1F77640040D980FF1FD03600207F640040AD51000079520000C480FF1FDC80FF1F6F640040D880FF1FD13600205B
:405B0000D2360020184F0040A3430040C83600208C81FF1FB343004080E200E0A2350020C4360020D4360020C03600207481FF1F984A0E001C4F00401B4F004047F230534A
:405B400003FB0BF34A4A6421A2FB03029B1A02EB53034FEAD32B0BF2DC5B0BEB133301FB03FBF8E6434ACAE602F0A6FD424A43491378A2F6653203F0FE0382F8653B0B78C2
:405B8000DFF8109103F0FB030B70137801F6783103F0FB0313703A4B202209781A60C9F800808AF8008002F08BFD2BE63378DFF8E8A003F0010333709AF80090314B09F097
:405BC000FC098AF8009096F800A0DFF8D0904AF0040A86F800A093F800A0FF260AF0CF0A83F800A093F800A04AF0300A83F800A093F800A00AF0F00A83F800A093F800A066
:405C00004AF00F0A83F800A099F800304FF0010A43EA0A0389F80030ACF80060068088F800E082F800A0E9E602F046FD1649DFF870C00A78102302F0FE020A7099F80020C0
:405C4000124902F0FD0289F8002098F8002002F0FD0288F800209CF80020CBF800300C4BC1F800A083F800A002F02AFDB9E500BFC179FF6561510000184F0040A3430040F1
:405C800080E200E0234F00400C4F00404C37002048370020C83600201A4F0040194F00400F4F004037490B68002B33D04EF660208342F0B52FD800229BB20A60324C3348DE
:405CC0002278334902F0FE0222700278314D02F0FB0202700A7800F67B3002F0FB022E4E2E4F0A702B80202103802D4A337839601178B1B1254826490378234A43F0040319
:405D000003700B7843F004030B70137843F001031370F0BD7047A3F56A42603A0A600346CCE72378DFF884E003F0010323709EF800701C4B07F0FC078EF8007094F800E0A2
:405D4000194F4EF0040E84F800E01C784FF0FF0E04F0CF041C701C7844F030041C701C7804F0F0041C701C7844F00F041C703B78012423433B70A5F800E0A0F800E0317066
:405D80001470B7E7C8360020184F0040A3430040B34300401C4F00401B4F004080E200E08C81FF1F234F0040194F00401A4F00401E4A1F4B1F491B781378A2F6653203F061
:405DC000FE0382F8653B0B7803F0FB030B701378194903F0FB0313700B68ABB9174B1A78D2B2012A0BD01A78022A0FD01A78032A12D01A78042A15D000221A707047104944
:405E00000A7000221A707047FFF74CBF0D4A0121117000221A7070470B4A0121117000221A707047094A01211170E5E7184F00401B4F0040A3430040C8360020C43600205B
:405E40008D81FF1F9081FF1FCD3600209C81FF1F70B50F4C02F030FC23780E4903F0FE0323700B780C4A03F0FB030B7013780B4E03F0FB0313700A4C0A490B4A33782025C7
:405E8000002325600B601370BDE8704002F018BC184F0040A3430040B34300401B4F004080E200E0C8360020C4360020F8B502F003FC334A0021334B11701A78324902F0D0
:405EC000FE021A700A78314C02F0FE020A7022782F4F02F0FE022F4E22704FF47A712E4D2E4A3980082431802D4995F800E014600C7894BB40F2E73E1A78DFF8ACC002F095
:405F000001021A709CF8002002F0FC028CF8002093F800C0234A4CF0040C83F800C01378DFF888C003F0CF031370137843F030031370137803F0F0031370137843F00F0323
:405F400013709CF80030012213438CF80030A7F800E0A6F800E02C700A700B4C0B492378084A43F0010323700B7843F001030B70137843F001031370BDE8F84002F0A0BB94
:405F8000A2350020004F0040A3430040B3430040044F0040064F0040034F004080E200E08B81FF1F0B4F0040024F0040014F004037490B68002B33D04EF660208342F0B5CF
:405FC0002FD800229BB20A60324C33482278334902F0FE0222700278314D02F0FD0202700A7800F66F3002F0FD022E4E2E4F0A702B80102103802D4A337839601178B1B153
:40600000254826490378234A43F0020303700B7843F002030B70137843F001031370F0BD7047A3F56A42603A0A600346CCE72378DFF884E003F0010323709EF800701C4B01
:4060400007F0FC078EF8007094F800E0194F4EF0040E84F800E01C784FF0FF0E04F0CF041C701C7844F030041C701C7804F0F0041C701C7844F00F041C703B780124234348
:406080003B70A5F800E0A0F800E031701470B7E74C3700200C4F0040A3430040B3430040104F00400F4F004080E200E050370020174F00400D4F00400E4F0040F0B52B4AC4
:4060C0002B4B2C491B781378A2F6593203F0FE0382F8593B0B78284803F0FD030B70137803F0FD031370016861BB244B1A78D2B2012A2BD01A78022A2CD01A78D2B2032AE3
:4061000001D01970F0BD1E4C19702578002DF9D0DFF888E001271B4D1B4E8EF80070D5F800C0D6F800E0F4451BD937682C686421E41B2C601A70336801FB03F3002B08BFF0
:4061400001230360BDE8F040FFF732BF0F4802701970F0BD0E480F4A0124047011701970F0BD0D4B29601F702170F0BD0C4F00400F4F0040A34300404C370020483700208F
:406180001C3800202438002020380020D5360020C2360020C33600201E3800201D38002070B53E4C237803F0FE03237000F0B6FE00F032FF237803F0FE03237000F0AEFEDC
:4061C00037490B78FF2B44D0012B37D0022B354840D801249C400278E4B214421DD0324D22EA040255F82360304C02703278E45C2F4D22EA0404EA5C2E4D3470AB5C013BA4
:40620000DBB2AB5433BB2C4C2C4B54F822409A5C237823EA02032370027893070CD442F00202274C027023482278437842F0010222705BB30133437001230B70214B1A78E9
:4062400052B900F0E9FE154A137803F0FE03137070BD14480278E0E712490A78500712D5144822F00402164C0A7042782178013A21F01001D2B22170427022B912490A7877
:4062800022F010020A7000221A70DAE794F8F32942F0100284F8F329CCE700BF004E0040E580FF1F0D38002014900000109000000C900000103800200490000000900000FB
:4062C0000D51004028380020005B00402DE9F04FDFF8F8828BB000240590A1210120A8F8004088F80540A8F8024088F80440FEF7F1FFB54B1B78022B00F0E583002488F87C
:40630000064088F8074098F80830B04D032B00F0BC830024A221012088F8104088F81140A8F81240FEF7D6FF98F81430A84A03F0AF0343F00805A74813701570137002782A
:40634000A548A649D2B202700A780120D2B288F8152011F80A2CA321D2B288F8143088F81620FEF7B7FF01210846FEF7B3FF102001F052FC9A4B5B78002B40F00383994BC0
:406380001B6813B1A4210120984700F0C7FD00F0C5FD00F041FE944A924C137803F0FE03137000F0BBFD2368904A002B00F0DE8215460692A521012098472A782368002AE6
:4063C00000F0D9828A4907910978002938BF0021012A8DF8201040F2D382079A127B002A38BF00228DF8212023B10121084698477C4B1B6802210A467E487F4C02900698E6
:406400004DF2B715017000210191012103919DF80410DFF8DCA18A42DFF8C8B1DFF80492627B00F26281A07B824202EB000640F274811FFA86FE101ABEF1FF0FC7B200F257
:406440007181BA4280F0C382E3B115209847654BA6681B68310EABB12A209847DBF8003083B1C6F307412A209847DBF80030C6F307213BB12A209847DBF80030E9B20BB118
:406480002A20984700F04AFD5C4B1A782379FF2A2CD093424CD0022A25D85948012191400078C9B201421ED0564D554E20EA010155F82250544831702978805C534E21EA39
:4064C0000000B15C524A2870525C5148013AD2B2425442B94F48504A50F82100515C027822EA010202704549FF220A70FF2B1FD0022B1BD8424901229A400978D2B20A4247
:4065000014D140483E4D0A4350F823003E492A700578CA5C3D492A430270C95C3C4A525C002A00F059823A4801324254334A13703A4B1B78002B40F0E78100F06DFD236928
:4065400038469847364802F0AFF802F03BF880EAE075A5EBE0750646A068401B80FB0901002871F10003C0F2F68110F1FF5041F100014FF07F52002302F0DAF80490019B4A
:40658000002B00F0DF8141F28730029B06221B690021002BB8BF5B42C2FB030141F28832002302F0C5F8049B002808BF0120002BB8BF5B42834200F37781B5F5802FCCBFCB
:4065C0000025012530E000BF48370020BC3600207F6400406F640040D880FF1F6B640040103700202C380020004E00400C380020DC370020708F0000C08F0000E580FF1F34
:406600000D38002014900000109000000C9000001038002004900000009000002838002080FC0A0078741300A04B8AF800701B68CAF804608AF8085033B1394613209847AF
:40664000DBF80030DAF80460B6F5004F6EDA16F5004F80F2AC83964E802153B314209847924BF1B21B6823B314209847DBF80030DAF80460EBB1310E1D209847DBF80030E7
:40668000C6F30741ABB11D209847DBF8003083B1C6F307211D209847DBF80030F1B243B11D209847DBF800301BB19AF8081016209847039A002D08BF0022019B0392029A69
:4066C00001332032022B019304F114040AF10C0A02922FD0069A9DF804101278734B8A421B68A568627B7FF69EAEA77B9AF80060BA4202EB070040F2CE801FFA80FED21B0F
:40670000BEF1FF0FD7B200F2CB80BE42FFF49CAEC7B2B74228BF374696E6B0B2FF2840F256810027974238BF17468DE67F2147F6FF7692E700F0F2FB5E4B1B78FF2B29D0E7
:40674000012B41D0022B5C4925D8012098400A78C0B2104220D0594C22EA000254F82340574D0A702078ED5C564A20EA0505D25C55482570835C013BDBB283545BB953483B
:40678000534B50F822009A5C037823EA020303700A7801E048490A78930712D442F002024C480A70484902784B7842F0010202702BB990F8F32942F0100280F8F329013398
:4067C0004B703C4A01231370434B1B78002B40F0E38000F021FC414A137803F0FE031370324B1B6813B1A62101209847039B002B00F0CC813A490123002288F806204A707E
:406800008B70CB7088F8053088F8073001F054FF0446344A34491378A2F6593203F0FE0382F8593B0B78314803F0FD030B7013782F4903F0FD0313702E4B022202700B6020
:40684000FFF7B6FB204601F03BFF98F8173098F81820DBB2002A00F03482274A27495278274822F00302002B0CBF0B4603462549214842F01B0242700A701F4A0121112015
:406880005360FEF727FD059B002B40F03B8201200BB0BDE8F08F82B2FF2A7FF639AF0027B74238BF3746CFE50025BDE62C3800200080FFFFE580FF1F0D38002014900000FC
:4068C000109000000C9000001038002004900000009000000D51004028380020004E0040103700200C4F0040A3430040483700204C370020A0860100D880FF1F3952000092
:40690000F551000077640040894B1B785D0715D5874A23F004031370864A874B12785B78844922F010020A70013B834ADBB2537023B9824A137823F010031370804A002347
:406940001370FAE57F4B1B78013BDBB2072B40F2DA80019827E6B0F1FF5041F1FF314FF07F52002301F0E4FE049008E606921278002A7FF427AD7449412207918DF8202041
:4069800050222FE5112001F047F9059B002B2ED118460BB0BDE8F08F65490B78580712D5654A23F0040363480B7053780178013B21F01001DBB20170537023B95F4A13780F
:4069C00023F0100313705E4A0023137001E7F7B2974228BF174637E55C485D4A50F82100525C05782A430270534A525C9BE5594BAB251B78C220B52177228DF823408DF888
:406A000020508DF821008DF822108DF82420002B39D0514F514CDFF86891DFF868C1DFF868B108AE0DF125084FF0020A16F8015B397822780846D2B202F1FF3E8B1AC1EB5B
:406A40000E0EA3F17F03BEFA8EFEB3FA83F34FEA5E1E5B09914238BF7346002BE9D1914200F048810B0659BF0131C9B20121002009F8005039709CF800309A0748BFCBF82F
:406A800000A0B045D2D1002083E701F015FE344A34491378A2F6653203F0FE0382F8653B0B7803F0FB030B70137801F6783103F0FB0313702C4B202209781A60EC602C7221
:406AC00001F0FEFD25E401F0F7FD284A25491378A2F6593203F0FE0382F8593B0B78244D03F0FD030B701378102103F0FD0313702B781D4A1F4B11601C601F4B1C7001F050
:406B0000DFFDFFF7FBBB41F287301C4A002132F813300622C3F57A73002BB8BF5B42C2FB030141F28832002301F002FE3BE500BF0D3800200D51004010380020005B00403C
:406B400028380020E380FF1FDC3700200490000000900000523700205337002054370020184F0040A343004080E200E00C4F00400F4F00404C37002048370020B08F0000F6
:406B8000583700206B65004000E200E01E46894A0223967016715671069A01241370854B5C70DC7001F088FD834A8449844B16700E704FF4FA711960824A8349834B116093
:406BC00005461C7088F8066088F8076088F8196001F072FD4CF2503206467D497D480B78A1F6593103F0FE0381F8593B037803F0FD0303700B78784803F0FD030B7077490A
:406C000003230B700260FFF7D3F9304601F058FD284601F055FD724B1B6813B12046A72198479DF820600024304601F085FA079A9DF821501670164628465460147201F0D0
:406C400075FA684A3573346134751378664D43F0100313702E782B786449654F03F0FE033F202B704FF40072087062493870624801F026FF4FF400726049614801F020FF17
:406C8000F6B2604BF822F1073C701A7003D52B7843F001032B70524B5B4A1B680021117013B1A82101209847059B0322181C18BF0120564B88F81A0001201A700BB0BDE8C1
:406CC000F08F5BB1524B534A5B78514923F0030343F019034B7013704F4BCEE54C4B4D4A5B784B4923F0030343F018034B7013704A4BC2E59CF800305A073FF5B3AE484BAC
:406D00001D70BEE6474BAB251B78C224B520012176228DF820508DF821408DF822008DF823108DF82420002B3FF4B1AD3E4F3F4CDFF8FC90DFF8FCC0DFF8FCB008AE0DF1B4
:406D400025084FF0020A16F8015B397822780846D2B202F1FF3E8B1AC1EB0E0EA3F17F03BEFA8EFEB3FA83F34FEA5E1E5B098A4288BF7346002BE9D18A4211D00B0659BF5A
:406D80004B1CDBB20123002009F800503B709CF80030990748BFCBF800A04645D3D176E59CF800305A07E9D41D4B1D70F5E7C6F3072152E4103700201D3800201E3800202B
:406DC0002038002024380020801A06001C3800200C4F0040A34300404C370020483700202C380020A643004080C7004088C700408CC700403890000000C00040408D00009D
:406E000000C2004084C700401837002051370020D880FF1F77640040F5510000395200004B650040523700205337002054370020583700206B65004000E200E0144A154822
:406E400013780178994221D0F0B513490B7803F0040303F0FF06C3B91746104D104C02E00B785B0711D413781B0648BF3E701378DBB2EB5CDBB22370137890F800E0013387
:406E8000DBB2137013789E45EAD1F0BD704700BF54370020533700206B650040583700204B650040164AF0B517461648164C012500260378DBB213F01E0E03D011784EEA39
:406EC000010111709B0600D4F0BD21785378C9B21344197192F824300BB187F8255053780133DBB2537053781F2B88BF5670517892F826309942DCD182F82450D9E700BF90
:406F0000D8360020696400404964004008B501F0DBFB03680C2B00D0FEE7FEE7F8B501F0CBFB3349334A0B78334D03F0FE030B701378324C43F0040313702B78064643F0B2
:406F400002032B702378482043F00203237091F8913A2B4F03F0FC0381F8913A92F8913AA5F2473503F0F70382F8913A01F09CFB95F84733234A03F0FD0385F84733217886
:406F8000214B01F0FD0121701178204801F0EF011170117804F58C5401F0FE0111701A78093402F0FE021A701A78194902F0EF021A703B78174A03F0F9033B70037803F0F7
:406FC000FE0303702B78304603F0FE032B70237803F0F70323700B7803F0F7030B70137803F0F7031370BDE8F84001F069BB00BF004E0040014E0040F8460040F9460040A9
:4070000077580040AA430040BA430040A1430040A2430040B24300402DE9F04F354C85B094F82730002B62D194F8283003F0FF06002B77D0304D012384F8273001F03CFB23
:407040002E4A2B7811782E4B41F0010111701178064641F0100111701A782A4D42F001021A701A78284C42F010021A702B78274943F002032B702378482043F00203237057
:407080000B7843F003030B7001F00EFB2B78204903F0FD032B7023781E4803F0FD0323700B787A2443F006030B70047030461A4AA1F5A6511378063943F0010313700B78C4
:4070C000164D43F001030B705378013143F0080353700B78124C4FF0005243F008030B702A60226005B0BDE8F04F01F0E9BA024DA4E700BFD8360020E080FF1FAA430040A7
:40710000BA430040F8460040F9460040915800407758004082580040A143004080E200E000E100E048F6F052B44D0123DFF834832B7084F8296098F80030B14943F01003C9
:4071400088F800300B78DFF820E343F010030B70AC4FAD48AD4BE0218EF800104FF0040AAB4987F800A006701E700B78DFF8FCE243F018030B70A74B8EF80060133F87F8B4
:40718000056381F882600A2100F8171C1E703E705B2700F80F7CA04F5E201872A3F5286314203E7018702B784FF00F0C84F82EC004EB830393F82A00984BA28518702B782B
:4071C000974A04EB83031B8D13802F7884F83060FFB2012F7FF42FAF9248934BDFF890924FF0F80B80F800B0AEF68E2E83F800A0032302F8093CDFF87CA289F800C0DFF811
:4072000078B28EF800604FF03F0E80F806E0DFF86CC2DFF86CE28BF800608AF8006002F8026C89F810304FF0500903938CF800908EF800102C2180F8861ADFF848928BF8CB
