:400000000080002011000000393A0000393A0000144A80B5144B1268144F1A60F7B1144E002556F80C4C56F8080C56F8102C234638B1043A52F8041F43F8041B191B8142D1
:40004000F8D156F8040C1A4620B142F8045BD11A8842FAD1013F06F11006E2D105F0CAFE00F036F8FA460040BC76004001000000F460000010B5054C237833B9044B13B13D
:400080000448AFF300800123237010BD3081FF1F00000000505E0000084B10B51BB108490848AFF300800848036803B910BD074B002BFBD0BDE81040184700BF000000008B
:4000C0003481FF1F505E0000C080FF1F000000002DE9804887B062B6AC4C2278002A01F06B8105F079FEAA49AA4D0B78AA4A43F020030B702B78012643F010032B7016609C
:4001000091F80331A54F43F0100381F803310225A1F503513D60363915600B78A04A2B430B7013782B43137005F05AFE9D4B9E4A30460021136004F017FCA378934A6578B4
:400140004BB99A4B96701A7802F0FC021A701A7842F003021A70964896490378964A43F0600303700B78E07843F004030B701378864943F004031370002801F0F6808F4803
:400180008F4903788A4A43F0020303700B78207943F002030B7013787C4E43F080031370002801F0CC80854885490378804A43F0040303700B78607943F004030B70137882
:4001C000724E43F080031370002801F0A2807B487B490378764A43F0010303700B7843F001030B70137843F08003137003F044FC03F02AFCA379654943B9724A01201378EC
:40020000887103F0CF0343F030031370E3795F4943B96D4A01201378C87103F0CF0343F030031370207A594F002801F05C806348634903785E4A43F0080303700B7828467A
:4002400043F008030B70137843F08003137003F085FC637A4D4953B95C4B01201A78487202F0FC021A701A7842F003021A70504850490378504A43F0600303700B78A07A41
:4002800043F001030B701378404943F00103137050B94F4B01201A78887202F0FC021A701A7842F003021A70414842490378424A43F0600303700B78E07A43F002030B70ED
:4002C0001378324943F00203137050B9414B01201A78C87202F0FC021A701A7842F003021A70334833490378334A43F0600303700B7843F008030B70137843F0080313706E
:40030000354B1B78DD0740F1EA87334923F00103324A0B701378324923F00103019113700B78013BDBB20B702BB992F8353023F0080382F83530284B27491B78980712D5D5
:40034000284A23F002030B70137823F008031370019A1378013BDBB2137023B9224A137823F0080313701C4B1B491B785A0745D51E4A23F004030B70137823F0400313702C
:40038000019A1378013BDBB2137031E04C81FF1F986400409865004000E100E080E200E0B243004069490000283800205C58004077580040A4430040B4430040A94300405F
:4003C000B9430040785800407A580040585800405A5800405E58004043360020CB5A004044360020FD510040005B00403D51004023B9B24A137823F008031370B04BB04940
:400400001B781F0712D5AF4A23F008030B70137803F07F031370019A1378013BDBB2137023B9A64A137823F008031370A44BA4491B78DE0612D5A44A23F010030B70137849
:4004400003F07F031370019A1378013BDBB2137023B99A4A137823F0080313709B4AFF23137003F0B7FB994B1878042800F22D87934B012181401B78C9B21942904A00F0BD
:400480002687934D23EA01030295924955F8205013702B78904E0491095C039623EA0103315C01982B70435C013BDBB2435423B982490B7823F008030B7013781D0716D4AB
:4004C0007F4A43F008037F4913700B78834A63F07F030B70019B1B7833B991F8C33943F0080381F8C3391378019A01331370774A0323137003F0ECFB794A217B13787948EB
:4005000003F0FE031370002900F08F86764A77491378744843F0010313700B78744A43F001030B70637B9C211170002B00F058866D4A6E4913786B4843F0040313700B78A1
:4005400002F5BE5243F004030B70A37B1A329C211170002B00F09486634A64491378614843F0080313700B7802F5BE5243F008030B70E37B1B329C211170002B00F0EA85DD
:4005800059495A480B785B4E43F002030B700378594A9C2143F00203584F037006F1300811704FF000094FF0010A7A7BB97B8B18551A8A4298B2EDB240F28E8199B2FF2905
:4005C00000F28E81AA4280F09685BB6D284698470C3606F80C5C46F8089C06F804AC464507F15C07E1D1464B4FF0040883F8008004F09CFC0021022004F0B6F9414A424BDD
:400600001168424810251D60086541481168DFF834E1E0273F4E07704020CEF8005018603D4D8E6511683D4E2F70CEF80000202018604E653A4905F8017CCEF800000D7818
:40064000384845EA08050D700178126841EA08010170354D00F1A020344E50303449C6F80080C3F8008095640770CEF800800B78207C304A304D03F07F030B701560002825
:4006800000F04B852A4A2D4D1378AB4643F08003137005F0A1FB2A4BDFF8ACA01E6805F09FFB2B78002103F0FD0343F002032B70202004F059F9B14648E000BF005B004010
:4006C000433600203D5100401D510040C480FF1F785E00008C5E0000945E000044360020004E00404C81FF1FA8430040B8430040805B0040F8370020815B0040D85E00009C
:40070000A038002008ED00E080E100E0C547000004E400E0D14B000006E400E0494A0000A2430040B2430040AD47000080E200E0746500402465004080A90300205100400F
:400740009C38002000E100E06B650040844DE37CDFF82C82002B61D198F81120002A40F0A98000F085FE05F037FB7E4B1F6805F037FBBB1B002BC0F28A802378002B35D0C5
:40078000794E4FF0020806F1040C784B16F801EB19782A780846D2B202F1FF398B1AC1EB0909A3F17F03B9FA89F9B3FA83F34FEA59195B098A4288BF4B46002BE9D18A4200
:4007C00070D00A066A4A4CBF00204B1C02F800E0664A54BFDBB2012313709AF800309B0744BF644BC3F800806645CED1B9469BF8003007F1460603F0FD0343F002038BF843
:4008000000309BF80030DFF8788103F0FD0343F002038BF80030E37C002B9DD0564B4FF0000983F8009004F0DBFDDFF858A14FF0050B9AF8003003F0FD038AF8003005F0E5
:40084000CBFA484B1F6805F0CBFA083701E000F00FFE05F0C1FA434B1E6805F0C1FAF61B002E48DA637C002BF1D088F811903C2098F8121004F078F898F812303D2003F06D
:40088000FF02A3B398F8121004F06EF8DFE7C9EB07073B2FB5D99BF8003003F0FD038BF8003054E79AF800305B078AD4334B83F800E099E788F811303C2098F8121004F013
:4008C00053F898F8123003F0FF006BB198F812103D2004F049F844E7FF2840F20C840025954238BF154670E604F0D4F939E7104604F0D0F9ABE79AF8003003F0FD0343F063
:4009000002038AF8003005F067FA164B1F6805F067FA083701E000F0ABFD05F05DFA114B1E6805F05DFAF61B002E2DDA637C002BF1D088F811903C2098F8121004F014F8FA
:4009400098F812303D2003F0FF0223B198F8121004F00AF8DFE7104604F09CF9DBE700BF983500209C3800205C5E0000993500209C35002000E200E02C3800204B65004002
:400980004C81FF1F205100400BF1FF3B1BF0FF0B7FF44FAFAB4E4FF00008637CA94F002B40F07A8100F064FDBB7C022BF2D0BA8AFB8A92B29BB29A42ECD305F00DFAA24B1D
:4009C0001E6805F00DFABB7C9F49002B40F0CF80BA8AFB8A92B29BB29A42C0F0C8809B4BDFF868821B78002B00F0C180984B059193F80290B9F1000F40F0B98098F801306F
:400A0000002B40F0898105F0E7F905990F6805F0E7F9D8F82030FF1A002FC0F2A8808D4B98F802701B788C4ABB424FF05C0303FB07235A7B997B00F2C5828A4202EB01036B
:400A400040F2DB8298B2511AFF285FFA81F900F2D0824A4580F0D4827C4A0023022F53609360D3601361938298BF7C4B774982F8039094BF33F8172036220023CA820B763B
:400A80004B76CB6103F0A6F8734A5C2303FB0723734A1B791178042924D8724801228A400078D2B20242DFF8BCE11BD020EA020202988EF8002050F82100049A90F800C06E
:400AC00012F801E0039A515C2CEA0E0202700198425C013AD2B2425422B963490A7822F008020A70042B26D85E4901229A400978D2B20A42DFF86CE11DD10A4302998EF85C
:400B0000002051F82300049A90F800E0D25C03994EEA02020270C95C019ADFF870E1525C32B95148027842F0080202701EF801200198013242544A4A137003F0C9F84B4B6F
:400B400010221A6005F048F9494A0023137005F047F9484A137843F001031370464B1B6813B139461E209847384A01235370A27C344B002A40F0A380998ADA8A89B292B251
:400B80009142C0F09C80DA6912B906F16402DA61B21A002A3BDB237806F16402E261002B35D0DFF8ECE0DFF8ECA00EF104084FF00209324B1EF801CB187829780746C9B2C6
:400BC0004A1E431A121AA3F17F03B2FA82F2B3FA83F352095B09884238BF1346002BECD1884200F08E800206254B4CBF0027013003F807C0214B54BFC0B201201870214B7F
:400C00001B789B0748BFCAF80090C645D1D1A27C0C4B022A59D01A6A002A56D0B21A3FF4B9AE596A1E628A4251D3174A16481278002102F0FD0242F0020202705962996289
:400C4000A8E600BF4C81FF1F9C3800202C38002054360020A0380020D85E0000545E0000C480FF1F43360020005B004080E200E0EC370020004E0040283800209935002023
:400C80009C3500206B65004020510040443600205C5E000000E200E086F811803C20B17C03F062FEB37C3D2003F0FF021BB1B17C03F05AFE71E6104603F0ECFF6DE6A27CC1
:400CC0000023022AE361824BA5D11E6262E6986A891A0244042A59621CD99A7C0021022A99623FF457AE7B4B1A78013B1B7802F0020282F0020203F0FD031343764A1370D8
:400D000048E6764B1B7859073FF56DAF744B83F800C07AE79A623DE698F802A005F05CF8704B1A78002A00F0F180BF6983F8009005F056F8B8F81630C8F81C90002B40F081
:400D40005481694B9A8A5B68013292B21F44664B1F2A9A825F607FF60AAF9968DA680F442032597E9F60DA6097FBF2F700225A609A82002900F04A811A69BA1A002AB8BFDF
:400D80005242322A00F34281584AD9781268DFF85C811AB113209047D8F80020B7F5004F80F2A18117F5004FC0F2AC81B846C7F3072122B3142090474C4B5FFA88F11B6832
:400DC000DFF82881DBB114209847D8F80030390EABB11D209847D8F80030C7F3074173B11D209847D8F80030C7F307213BB11D209847D8F80030F9B20BB11D2098473A4BE1
:400E00003A46D978504604F0B5FB074602F0E2FE374B1978042900F27981364B01228A401B78D2B21A4233481CD023EA0203029A037052F821E0049A9EF8003012F801C079
:400E4000039A23EA0C038EF80030525C01998B5C013BDBB28B5423B9274A137823F0080313700378180716D4224943F00803234A0B701378224963F07F031370019B1B7821
:400E800033B992F8C33943F0080382F8C3390B78019A01331370164A0323137002F018FF184A137803F0FE0313702FB10AF101030D4A03F00303937004F08EFF124B1F682A
:400EC00004F08EFF084A19370023176253704EE64C81FF1F21510040205100406B6500404B650040EC3700202C38002028380020C480FF1F43360020005B00403D51004043
:400F000044360020004E00409C38002004F068FFD8F81C30A24A01339342C8F81C307FF626AEA04A0023537002F054FE9E4B1978042900F2D5809D4B01228A401B78D2B2E6
:400F40001A429A481AD023EA0203029A037052F82170049A3B7812F801E0039A23EA0E03525C01993B708B5C013BDBB28B5423B98F4A137823F00803137003781F0716D468
:400F80008A4943F008038B4A0B7013788A4963F07F031370019B1B7833B992F8C33943F0080382F8C3390B78019A013313707E4A0323137002F08CFE804A137803F0FE03BA
:400FC0001370D4E57E4807EB47038A4210F8230002EB01037BD9521A99B2FF295FFA82F971D84845FFF438AD74E06E4A013BD382BDE5914538BF91462EE599B2FF29F8D8DD
:40100000DBB29A4228BF1A46914625E5654B01221B7E64491344DBB2072B0F610B764A767FF6A5AD674BC9781B68DFF898811BB113209847D8F80030B7F5004F57DA17F5FC
:40104000004F66DADFF89481802123B3142098475C4B5FFA88F11B68DFF86881DBB114209847D8F80030390EABB11D209847D8F80030C7F3074173B11D209847D8F800300F
:40108000C7F307213BB11D209847D8F80030F9B20BB11D209847434B3A46D978504604F069FA074602F096FD3F4B197801238B40DAB23E4B04291B783FF6D4AE1A423B4830
:4010C0007FF4B3AECEE6814538BF8146C4E49AB2FF2AF8D8DBB2984228BF18468146BBE4324B1B784AE77F2147F6FF7861E67F2147F6FF78A9E7DBB29A4228BF1A4615461A
:40110000FFF763BADFF8D480802152E6274B1B78A8E6C7F30721B84697E7FF23136041F8703C04F059FE284A137843F01003137004F056FE254B1A78100704D5244A1168FB
:4011400019780907FBD4234A0021012311702374FFF798BA2049A2F25F3213700B701378A1F5905103F0F303137013781C3943F00403137013780125C3F3810303F19243A2
:40118000063393F83031C573DBB20B70137803F0FD0313701378DBB21370FFF7F1B900BF7F841E002C380020C480FF1F43360020005B00403D51004044360020004E00409E
:4011C000F83700202838002097650040676500404465004087650040255800400080FFFF8649A2F5567213700B701378A1F5905103F0F303137013781F3943F0040313704E
:4012000013780125C3F3810303F19243063393F828314573DBB20B70137803F0FD0313701378DBB21370FFF783B9754B82F8201A197092F8203A734903F0F30382F8203AF5
:4012400092F8203A012543F0040382F8203A92F8203A0573C3F3810303F19243063393F82031DBB20B7092F8203A03F0FD0382F8203A92F8203ADBB282F8203AFFF746B9F5
:401280006149A2F2563213700B701378A1F5915103F0F30313701378023943F00403137013780125C3F3810303F19243063393F838318573DBB20B70137803F0FD03137096
:4012C0001378DBB21370FFF747B9504B1B78504A0292504A0492504A0392FFF7EFB84F4B0193FFF728B84E4B4E4E0C221A7033784D4A43F020033370107002F02FFC337891
:40130000012203F0FC0343F0030333703A72FEF78EBF464B464F0C221A703B78454A43F020033B70107002F08FFB3B78012203F0FC0343F003033B707271FEF748BF3E4B9D
:401340003E4F0C221A703B783D4A43F020033B70107002F091FB3B78012203F0FC0343F003033B703271FEF71EBF02F5A252354B10320C2010701A78334842F0200280266E
:401380001A7006700278012602F08002D2B202700278CE70324302701A7802F0F3021A701A7842F00C021A701A7802F0FC0242F003021A70FEF7E3BE244B254F1E68254D70
:4013C0002548E0213764297002702448244A72261D68244F067020201070A3F60713224E22486F641970062747250221012337700570D1702370FEF774BE00BF29580040D9
:4014000021580040084600402D58004043360020785E00008C5E0000945E0000443600200C5800400D5800400E5800400058004001580040025800400858004009580040C0
:401440000A580040055800400658004008ED00E0C139000000E400E01C36002088640040886500406939000029650040396500402DE9F04FA54E9BB03378032B00F0038103
:401480003378022B00F0C880DFF88492DFF89C829F49B8F80020B9F8003092B29BB29A4280F09A80B8F800309BB2002B00F0DF80984DB8F800306F889BB25A24AB2204FBB0
:4014C0000354390A1E238DF808208DF809308DF80A708DF80B100DF10F020023581C991CE6182044214436790333007909795A2B02F8020C02F8036C02F8011C02F1030200
:40150000ECD1002202AB19A853F8041B834282EA0102F9D19DF865109DF864307E484B405340C2F307215940C2F307434B400178013783EA12626F808DF86620002936D024
:40154000764F774DDFF818B2DFF818C20DF107060DF1660A16F8014F39782A780846D2B202F1FF3E8B1AC1EB0E0EA3F17F03BEFA8EFEB3FA83F34FEA5E1E5B098A4288BF4E
:401580007346002BE9D18A423FD00A0659BF0131C9B2012100200BF8004039709CF800309B0702D55F4B02221A60B245D2D1B8F800305D4901339BB2A8F80030B8F80020E9
:4015C000B9F8003092B29BB232209A420860574910D21BB0BDE8F08F554B93F8542A22B1002283F8542A83F8552A1BB0BDE8F04F01F0D6BA0B889BB2FF2B42D8D9B23820AA
:401600001BB0BDE8F04F03F0AFB99CF800305B07BBD4484B1C70C8E73E4D6B78002BD8D04549464A0B78464803F0FE030B701378444903F07F03444C137001602378002B77
:4016400000F065853D4ADFF8C8901378362043F080031370B9F800309BB2FF2B94BFD9B2FF2103F081F900236B7033700EE70B8837209BB2FF2B94BFD9B2FF2103F074F9A8
:4016800016E7FF21BBE7314CA378002BADD004F0A3FB2F4B1D6804F0A3FB49F63F42D4F89031EB1A93421DD8D4F89431EB1A312B07D9284BC4F894511B6813B161791A20AB
:4016C00098472378013B0A2B8FD8DFE813F015057204BF039803BA02890231029F01980103017F002378073B042B40F2478594F80590B9F1030F88BF494600F24085164DD4
:40170000164F4FF05C0B4FF0000A4AE05E81FF1F6281FF1F7C81FF1F4C81FF1F993500209835002000E200E07081FF1F6081FF1F2C2B00204B650040004E0040746500406E
:401740002465004080A903005C81FF1F543600209C38002028380020D85E0000F83700209C3500206B65004099B2FF292AD8424580F0EA840BFB095340469B6D984709EB38
:40178000490209F101095FFA89F907EB8203B9F1040F07F82280C3F804A083F808A000F0ED840BFB09535A7B997B5318C1EB02088A4298B25FFA88F8D6D8FF2840F2C4849D
:4017C0004FF00008904538BF9046D3E76779CF4D5C2303FB0753D86941F28833226900284FEAA22203FB02F340F30187002BC849C0F2F38603F5FF6281FB02611144D21709
:40180000C2EBE12641F28831801201FB00F186EAE672A2EBE672BE4E01F5FF6186FB01060E44C917C1EBE6218A42B4BF0026012641F288325C2101FB07518968891202FB3A
:4018400001F2002AB249C1F28A8002F5FF6281FB02011144D217C2EBE122002BAC49C1F2748003F5FF6381FB03011944DB17C3EBE123DFF8A8A2D31ADAF8002083EAE37864
:40188000A8EBE37812B131462320904794F87B21A04B002A01F032804EB993F88821002A41F03A80D3F884319845C1F235805C2303FB075594F87D01AB6D9847DAF8003015
:4018C00013B1002128209847002384F87B3103F001FC8AE694F80580DFF838C2B8F1030F01F27880894D5C2303FB085393F83C20002A01F0C4805A7B997B4FEA4806864F70
:4019000006EB080300208A4217F823E08CF87B018CF87C0102EB010340F2B385521A99B2FF29D0B200F2A8858645DBB203D39E45704628BF18465C2306EB080203FB0853F2
:4019400007EB82077E6800226FF000419B6D84F8882184F88921C4F8806184F87D01C4F8841198476D4B6B4A1B6813B151792520984702F02FF95C2303FB08F6AF1938797A
:4019800002F092F802F0A4F9654B10221A603B466449B7F846000A78002642F0010294F87DE14C330A700B270125A4F8720131464FF480725C48636684F806E02666C4F8B3
:4019C0006861A4F87061A4F8746184F8766184F8776184F8786184F87961C4F86C61C4F88C61677084F87A5104F02AFA04F0F4F94E4B1E7004F0F4F902232370F5E502F019
:401A0000E9F800220A2362712370EEE541F2883394F805803D4D5C2101FB08518A684FEA4806921203FB02F33B4F06EB0802206907EB8202002B5060354AC0F2AE8703F515
:401A4000FF6382FB03E21A44DB17C3EBE22241F28833801203FB00F3002B2D48C0F2898703F5FF6380FB03E01844DB17C969C3EBE020121A82EAE2790029A9EBE27914DDEB
:401A800041F28832891202FB01F2214902F5FF6280EAE073A3EBE07381FB02011144D217C2EBE122934280F2F487DFF870A0DAF8003013B100212320984741F288335C22C3
:401AC00002FB08556A69921203FB02F3002B104AC0F26D8703F5FF6382FB03121A44DB17C3EBE2234B4580F24785DAF800304644002107EB8607397221710BB118209847FE
:401B0000637907220133637122706EE5D85E00008180808054360020F83700202838002080E200E0004E0040BC360020EC3700206579BD4B032D00F2A887BC4B1B6813B159
:401B400029461720984702F045F85C2303FB05F6B74F002507EB060898F8040001F0A4FF02F0B6F8B34AB44B102111601978627941F001011970B14902EB420211F822E04A
:401B8000B8F822C006F130033B4429464FF480720826AB486366A4F872C184F806E02566C4F86851A4F87051A4F8745184F8765184F8775184F8785184F87951C4F86C51E2
:401BC000C4F88C5184F87A51667004F039F904F003F99C4B1D7004F003F90223237004E56779934D5C2606FB07563046DFF8388203F0A2FE002800F0CA848C4B1B681BB14E
:401C000098F806102220984741F288335C2202FB07556A69E069921203FB02F3002B8A49C0F2278603F5FF6381FB0321DA170B44C2EBE3239842CCBF0020012003F0BEFACA
:401C4000D3E467797A4D5C2000FB07506689038AB34240F2238641F2883283689B1202FB03F2002AC0F20F86774902F5FF6381FB031C9C44DB17C3EBEC2C41F28831236940
:401C8000DFF8C4E19B1201FB03F3002BC0F22C8603F5FF618EFB018E8E44C917C1EBEE2E41F288314FF05C0808FB0758D8F81880CEEB0C0E4FEAA82C01FB0CF18EEAEE7880
:401CC0000029A8EBEE78DFF880C1C0F2038601F5FF618CFB01EC8C44C917C1EBEC21884540F3E185617A002900F0C584002B5649C0F2F68403F5FF6381FB03E11944DB179A
:401D0000C3EBE121002A504BC0F2E08402F5FF6283FB02E31344D217C2EBE3238B4240F3C58490F80DE0817BA0790EEB01039AB2FF2A40F29D84FF23984280F0AF85431CD3
:401D4000DBB2227AE371934200F2A885D21A03EB52038E45DAB20EEB010340F2AF861FFA83FCC1EB0E01BCF1FF0F5FFA81F800F2AA864245DBB203D39A4228BF1A4690461B
:401D8000804500F08B855C2303FB07F705EB07094B46B9F82000002739464FF480722433A4F872010136062525486366668184F806802766C4F86871A4F87071A4F874719F
:401DC00084F8767184F8777184F8787184F87971C4F86C71C4F88C7184F87A71657004F02FF8D9F858304046984703F0F5FF154B1F7003F0F5FF02232370FFF7F6BB6779EE
:401E00000B4D5C2606FB0756304603F095FD0649002800F09582054B1B68002B3FF4F4AE897922209847EFE65436002028380020D85E000080E200E0004E0040F8370020A7
:401E4000BC360020EC370020818080806779C24D5C2606FB075623693046636103F06CFD41F288337269E169921203FB02F3002BBA4AC0F2E78403F5FF6382FB03021A44EB
:401E8000DB17C3EBE223994240F30D855C2303FB075396F80EE05A7B724540F2418202EB0E00CEEB02031FFA80F8D9B2B8F1FF0F0E4600F2D0838A42C6B209D3B242114679
:401EC00028BF31467245C9B240F2C884CEEB0203DBB2C6B24FF05C0C0CFB075C9CF90C90B9F1000FC0F2AE839CF80FC001EB0C09B14540F3A483994240F29D838C4502D2AD
:401F0000CCEB0103DBB2724540F2CE85CEEB0202B8F1FF0FD6B200F2CB859E42C0B203D8834228BF03461E46237BA671B342DFF8388200F0B3844FF05C0909FB07F798F8C1
:401F400005A0EB1909FB0A551A8C002421462433A8F8722104274FF4807208F16800C8F86430C8F86040C8F86841A8F87041A8F8744188F8764188F8774188F8784188F8EE
:401F80007941C8F86C41C8F88C4188F87A4188F8017003F055FFAB6D3046984703F01CFF6F4B1C7003F01CFF022388F80030FFF71CBBD4F8648098F8006098F80130002EFA
:401FC00040F0D582002B40F0C88201263746B146B8F80230019303F0FFFE614B1A7802F0FF0A002A00F080825E4A4FF0000BD2F800A083F800B003F0F3FEB4F87231C4F8E9
:402000008CB15949002B40F02F84B1F870210B6E013292B21FFA86FE53447245A1F870210B66FFF4E2AA91F8770191F876C1484580F0E082D1F868210130C0B20CF11A0A4E
:402040001A4481F8770141F82A30C1F868210CF10103DBB24B45444984F8763124BF002381F8763100FB06F192FBF1F1B4F874614FF0000C7644B6B281452161A4F8746140
:40208000C4F860C0A4F870C1374A22D892F87931002B00F0C882D2F86C31D8F80400CD1A85EAE573A3EBE573834200F3B38292F878310133DBB282F8783198F80820624531
:4020C00008BF01229A420BD90123C4F86C1184F87931019BBB4238BF3B46B3423FF685AA94F87A31A079002B00F0918203F008FE63782370FFF779BA66791B4B032E40F293
:40210000FD820021072259711A70FFF76EBAFF23036042F8703C03F05FFE144A137843F01003137003F05CFE114A13781F0704D510490B6813781807FBD40F4A00210123E2
:4021400011702370FFF77EBADBB29A4228BF1A469046FFF70FBB00BFD85E000081808080EC3700206481FF1F54360020976500406765004044650040876500406179C44BAB
:4021800000221B6822710BB11B209847C14FC24D01F020FD03F094F92023002001210C223B602B60A070E1702270BC4B1B78032B40F28F8041F28833B94ABA49926A9212FB
:4021C00003FB02F3002BC0F2A28003F5FF6381FB0321DA170B44C2EBE32282EAE273A3EBE2731F2BCCBF002501250023AE4933700B78AE4AAE4803F07F03AE4C0B701060B5
:402200002378002B67D0A84A29461378112043F08003137002F0A8FBA74B1A78002A3FF4E4A9A64A85F0770712780026AB24C220B5218DF80B508DF80C701E708DF80840F2
:402240008DF809008DF80A10002A3FF4CEA99C4F9C4DDFF88892DFF888C2DFF888B202AE0DF10D084FF0020A16F8014B39782A780846D2B202F1FF3E8B1AC1EB0E0EA3F1A8
:402280007F03BEFA8EFEB3FA83F34FEA5E1E5B098A4288BF7346002BE9D18A4212D00A0659BF4B1CDBB20123002009F800403B709CF800309B0748BFCBF800A04645D3D172
:4022C000FFF793B99CF800305B07E8D47E4B1C70F4E7257989E7FF23136041F8703C03F07BFD7A4A137843F01003137003F078FD774A13781E0704D576490B6813781807F1
:40230000FBD4754A00210123117023707BE7C3F5FF6381FB0321DA170B44A2EBE3225CE702EB0E001FFA80F8B8F1FF0F40F29982002A11464FF0000338BF0021FF26C9E547
:4023400041F288337269C969921203FB02F3002B544AC0F2018403F5FF6382FB03E21A44DB17C3EBE223994240F39D8241F2883223699B1202FB03F2002AC0F2E3834949F3
:4023800002F5FF6381FB031E9E44DB17C3EBEE2E41F2883C61698B120CFB03F3002BDFF804C1C0F2C68303F5FF618CFB018C8C44C917C1EBEC21714500F0AE83002A394914
:4023C000C0F29D8302F5FF6281FB02E11144D217C2EBE121002B334AC0F2888303F5FF6382FB032EDA179E44C2EBEE235C2202FB075596F80EE06F7B8B42B4BF00230123A5
:40240000774594F806C01FFA8EF140F26783CD19CEEB0702FF2DD2B200F2648307EB0E059742EDB203D3AF423A4628BF2A46944588BF83F0010363726579727B2544724537
:4024400085F85A3001EB02039BB284BFCEEB0200C0B2FF2B98BF02EB0E034FF0010694BFDBB2FF230021052285F85660E071237261812270FFF7B9B8704538BF7046FFF74C
:402480005ABA9AB2FF2AF7D8DBB2FFF750BA00BF2838002080E200E000E100E0A0380020F837002081808080746500402465004080A903005C81FF1F7C81FF1F4C81FF1F9E
:4024C00099350020983500204B650040976500406765004044650040876500409C3500206B65004000E200E003F07AFCD4F88C31C84901338B42C4F88C31C74A7FF675A8D1
:4025000047F6FF7192F87A3111619079002B7ED0C24D2B68002B3FF4EBAD0146262098472B68002B3FF4E4AD5146272098472B68002B3FF4DDAD5146272098472B68002B8C
:402540003FF4D6AD7F21272098472B68002B3FF4CFADFF2127209847CAE5402B28BF402301269946334609FB03F39FB230E54BBBB7B24FF001092BE5464407EB86073B7A63
:4025800033B30121DAF800303972FFF7B6BA41F288337269D8F81C00921203FB02F3002B9F49C0F20E8203F5FF6381FB0321DA170B44C2EBE323984240F3758105232370B4
:4025C000FFF713B8402B28BF40239946B3B2CAE7DAF800300121FFF790BAC3F5FF6281FB02611144D217A2EBE126FFF70BB90026FFF71EB90CF11A0A51F82A20D1F868515F
:4026000041F82A30AA1A1A44C1F868211FE503F09BFB6DE582F878C198F80820002A3FF453AD63464EE582F8783198F80820002A7FF448AD48E58E4298BF1E4674E45FFA4A
:4026400089F671E499420CD99CF80F608E423CBF8B1BDBB257E49142334638BF1146FF2638E49CF80F200A44B242E4DCD6B25BE4DBB2FFF761BB002B6949C0F2228103F55A
:40268000FF6381FB03E11944DB17C3EBE121002A634BC0F20D8102F5FF6283FB02E31344D217C2EBE3238B42FFF63BAB90F80DE0817BA0798E451DD80023984240F2EE80FC
:4026C000421ED2B2E3792272FFF73DBBC2F5FF6283FB02E31344D217A2EBE323FFF71EBBC3F5FF6381FB03E11944DB17A3EBE121FFF708BBC1EB0E03DBB2DEE7474A494DB3
:40270000D2F8008000226FF000415C271A739A6183F8212083F8222083F8232083F84C2083F84D205A629A62C3F84E20C3F85220DA621A635A6301204FF0013207FB065706
:40274000D9619963D9631964596483F820009A64B8F1000F02D031461520C0474FF05C0808FB065801F036FA98F8040001F09CF901F0AEFA2C4B2D4910221A600B7898F853
:402780000D2043F001030B70B97B8A4202EB010350D998B2511AFF28CFB24FD8BA42DBB203D39A4228BF1A4617464FF05C0808FB06F694F80590AB1908FB09551A8C002609
:4027C00024334FF0030EA4F8722131464FF4807217486366A7712666C4F86861A4F87061A4F8746184F8766184F8776184F8786184F87961C4F86C61C4F88C6184F87A614D
:4028000084F801E003F01CFB3846AB6D9847FFF7EDB800BF7F841E00543600202838002081808080D85E000080E200E0004E0040BC36002099B2FF290ED90027974238BFAD
:402840001746B2E7C3F5FF6382FB03021A44DB17A3EBE223FFF717BBDBB2A2E70023FFF739BBC6B2FFF72ABB013BA1F87231FEF7BCBEC3F5FF6381FB0321DA170B44A2EB37
:40288000E323FFF7D7B9B94BC2F5FF6183FB01E30B44C917A1EBE32CFFF7EFB9002002F08DFCFEF7A2BE012002F088FCFEF79DBEC2F5FF6283FB02E31344D217A2EBE32382
:4028C000F1E6C3F5FF6381FB03E11944DB17A3EBE121DCE6C1F5FF618CFB01EC8C44C917A1EBEC21FFF7FBB9C3F5FF618EFB018E8E44C917A1EBEE2EFFF7D2B999791A69C9
:40290000C3F8848183F8886183F87D11C3F8802101F054FEFEF769BE2169A079DAF800300022C4F88011C4F8848184F87D0184F8882194F889110BB128209847002384F813
:402940007B3101F03BFEFEF750BEC3F5FF6381FB03011944DB17A3EBE123FEF78ABFC2F5FF6281FB02011144D217A2EBE122FEF774BFC3F5FF6380FB03E01844DB17C96940
:40298000C3EBE0231A4482EAE2790029A9EBE2797FF78BA85842FFF773B8C3F5FF6382FB03E21A44DB17A3EBE222FFF750B8C3F5FF6382FB03121A44DB17A3EBE223FFF7E4
:4029C00091B8C3F5FF6381FB0321DA170B44A2EBE323F0E501F0FEF801F0FCF8644901230D786448AB40042DDAB203781CD81A421AD0614F23EA020357F825705F4A03703F
:402A00003B7812F805E05E4A23EA0E03525D5D4D3B70AB5C013BDBB2AB5423B95A4A137823F00803137003781F0712D443F00803564D03702B78534A63F07F032B70137899
:402A40002BB95148037843F00803037013780133137003230B7001F03BF94D494D4F0B784D4D03F0FE030B702022002001210C233A602A60A070E1702370FFF796BB08F1DC
:402A800001068CF80560FEF7B0BD09221A70FEF7ACBD424D2B68002B3FF429A80121232098472B68FFF723B8B8F1FF0F10D900269E4238BF1E46F6B2FFF736BA99B2FF29B6
:402AC00009D94FF00008904538BF9046FFF758B9C0B2FFF725BADBB2FFF74EB9CA19FF2A16D90022BA4238BF3A46A0E4C3F5FF6382FB032EDA179E44A2EBEE2376E4C2F5D5
:402B0000FF6281FB02E11144D217A2EBE12161E407EB0E05EDB286E45C2303FB07552B7B96F80EE0DB43C3F3C01363721FFA8EF182E4C3F5FF618CFB018C8C44C917A1EBD8
:402B4000EC2138E4094BC2F5FF6183FB01E30B44C917A1EBE32E1BE4C3F5FF6382FB03E21A44DB17A3EBE223FFF7FDBB81808080C480FF1F43360020785E00008C5E0000CB
:402B8000945E000044360020005B00403D510040004E004080E200E000E100E0283800202DE9F04F4FF0010B5F46DFF87882DFF87892DFF8A4A289B0CAF8007098F8000000
:402BC00099F8001001248842964A974B00F0CE80107819781B788842127828BF20339B1A924ADBB2C2F800B0002B00F0CF809049CAF800B098F8002099F800300878D2B259
:402C0000DBB210B99A4200F0BB80531CDBB2202B884828BF0023805C88F800300A78844CC3B20AB100222270804A8349C2F800B00A78052A00F2A180DFE802F08D786E154F
:402C40000C037E4A7E48D37003230B70002313700370B1E7794A7A48937005230B70002313700370A8E7754C75480022227002700A706278A178E0784A4042409A429BD192
:402C8000704B1A785AB96278C12A02D06278A52A92D16178212083F800B001F065FE6378664AC12B03D05178302001F05DFE664B664A1B783221032B1160637871D0A33BE9
:402CC000122B3FF679AF01A252F823F03F300000B92B0000A1300000932F0000B92B0000B92B00003533000053320000B92B0000B92B0000B92B0000B92B0000B92B00002B
:402D0000B92B0000DD330000B92B0000BB3100005D2E0000B33100004848494C837000220323C2700B700270227045E703F15D02424C434DD2B200201E2A2070287005D8C1
:402D400043480BFA02F6304018BB32B3002323702B700B7030E7AB2B7FF42EAF3748384A002381F800B00370137025E730490B7853B12E4BC3F800B03AE700230B701BE7A6
:402D8000344B1B78DBB24FE7284B1C6009B0BDE8F08F022263700A700EE7042263700A700AE7A53B1C2B00F2DC8401A252F823F051360000773500006337000063370000C8
:402DC000773500007735000063370000633700006337000063370000633700006337000077350000633700007735000077350000D33400006337000063370000633700006C
:402E00006337000063370000633700006337000063370000633700006337000063370000B92B0000423600201D36002000E100E04036002020360020813500208435002057
:402E4000803500205F81FF1F5E81FF1F7081FF1FCC4007404865004080E100E00021392001F082FD7D4BAB21C2221B788DF814108DF81520B42177228DF817B08DF8161035
:402E80008DF81820002B36D0DFF810C2744B0DF1140E01941EF8016B9CF8004018782546C0B2411E221A091BA2F17F02B1FA81F1B2FA82F249095209A04288BF0A46002AE4
:402EC000ECD1A04200F0638422065ABF621CD2B20122644948BF00258CF80020624A4E551278900702D5614A022111600DF119027245CFD1019C02F019F8A5885C496B1E88
:402F0000B3F5007F0B785B4A03F0FE030B70137801F5BB5103F07F031370574B4FF0400201F1070109781A6028BF4FF4007502F053FF524A524900232374E38023721380D7
:402F40000B80504A50491370E3600B804F4B02221A7002F045FFFF2D00F28284E9B2352001F002FD424A137843F001031370474B1B78022B3FF420AE454B46491A780B7868
:402F800002F0020282F0020203F0FD0313430B7012E6A378DBB2082B40F265843E490B782E4A83F064018DF817301278AB238DF818108DF81430C221A6238DF815108DF824
:402FC0001630002A36D0DFF8D4C0254B05AE16F8015B9CF8000019780446C9B201F1FF3E421AC0EB0E0EA2F17F02BEFA8EFEB2FA82F24FEA5E1E5209814288BF7246002AB3
:40300000E9D1814200F0BB8302065ABF421CD2B20122144948BF00248CF80020124A0D551278900702D5114A022111600DF11902B242CCD1154B1B78022B9DD1BCE5A378FA
:40304000E178312043EA012109B28BB2FF2B94BFC9B2FF21A38001F087FCADE54C81FF1F983500209C3500206B65004000E200E0004E00407465004080E200E06081FF1F9B
:403080006281FF1F7D81FF1F7E81FF1F5E81FF1F21510040205100404D81FF1F9935002000213B2001F060FC914B01931B78002B3FF482AD8F4EDFF878C28F4B16F8015B11
:4030C0009CF8000019780446C9B201F1FF3E421AC0EB0E0EA2F17F02BEFA8EFEB2FA82F24FEA5E1E5209814288BF7246002AE9D1814200F03C8302065ABF421CD2B20122CE
:403100007E4948BF00248CF800207D4A0D551278900702D57B4A022111607B4AB242CDD1019AAB21C3208DF814101278B8218DF815008DF816100B2070218DF817008DF8B0
:403140001810002A3FF438AD05AE16F8015B9CF8000019780446C9B201F1FF3E421AC0EB0E0EA2F17F02BEFA8EFEB2FA82F24FEA5E1E5209814288BF7246002AE9D181429B
:4031800000F0268302065ABF421CD2B201225B4948BF00248CF80020594A0D551278900702D5584A022111600DF11902B242CCD102E5012001F06EFD3CE7A3783A200033D1
:4031C00018BF01232374217C01F0CEFB237C4F4D002B00F0248301F0A9FEAD884C496B1EB3F5007F0B784B4A03F0FE030B70137801F5BB5103F07F031370474B4FF04002B8
:4032000001F1070109781A6028BF4FF4007502F0E3FD424A4249002384F810B0E380237213800B803F4A404913700B80E3603F4B02221A7002F0D4FDFF2D94BFE9B2FF2104
:40324000352001F091FB324A137843F001031370B2E4A378264ADBB283F068018DF817301278AB238DF818108DF81430C221AA238DF815108DF81630002A3FF4DBAEDFF8B5
:40328000B0C01D4B05AE16F8015B9CF8000019780446C9B201F1FF3E421AC0EB0E0EA2F17F02BEFA8EFEB2FA82F24FEA5E1E5209814288BF7246002AE9D1814200F08082FA
:4032C00002065ABF421CD2B201220C4948BF00248CF800200A4A0D551278900702D5094A022111600DF11902B242CCD1A2E600BF4C81FF1F5C5E0000983500209C3500207B
:403300006B65004000E200E0605E000084350020004E00407465004080E200E06081FF1F6281FF1F7D81FF1F7E81FF1F5E81FF1F99350020A378AB20DBB2082B8BBFB74B25
:40334000B64A1B781370B64A8DF81730127883F06B038DF81830C221A9238DF814008DF815108DF81630002A3FF464AEDFF8DCC2AC4B05AE16F8015B9CF80000197804460F
:40338000C9B201F1FF3E421AC0EB0E0EA2F17F02BEFA8EFEB2FA82F24FEA5E1E5209814288BF7246002AE9D1814200F0018202065ABF421CD2B201229B4948BF00248CF823
:4033C00000209A4A0D551278900702D5984A022111600DF11902B242CCD12BE6954D01F0FFFF2B7803F0FE032B7000F0F3FB00F06FFC2B7803F0FE032B7002F061F88E4DAA
:4034000002F0EAFC8D4A0023E3808D4923722B8013808C4A0B701380E3608B4B83F800B002F0DEFCA1883220FF2994BFC9B2FF2101F09AFA844B7A4A1B781278DBB283F0F4
:4034400073018DF81730AB238DF818108DF81430C221B1238DF815108DF81630002A3FF4E9ADDFF8E8C16F4B05AE16F8015B9CF8000019780446C9B201F1FF3E421AC0EB32
:403480000E0EA2F17F02BEFA8EFEB2FA82F24FEA5E1E5209884238BF7246002AE9D1884200F07E8102065ABF421CD2B201225E4948BF00248CF800205C4A0D55127890078D
:4034C00002D55B4A022111600DF11902B242CCD1B0E55D4B1220197801F046FA504BAB22C2218DF814201B78B5228DF815108DF81620002177228DF817108DF81820002BC0
:403500003FF45AABDFF844C1464B05AE16F8015B9CF8000019780446C9B201F1FF3E421AC0EB0E0EA2F17F02BEFA8EFEB2FA82F24FEA5E1E5209814288BF7246002AE9D15F
:40354000814200F0648102065ABF421CD2B20122354948BF00248CF80020344A0D551278900702D5324A022111600DF119029642CCD1FFF721BB6178122001F0F5F9637833
:40358000274ADBB2127883F0C204AB208DF81630C22100238DF818408DF814008DF815108DF81730002A3FF407ABDFF8A0C01D4B05AE16F8015B9CF8000019780446C9B20D
:4035C00001F1FF3E421AC0EB0E0EA2F17F02BEFA8EFEB2FA82F24FEA5E1E5209814288BF7246002AE9D1814200F0098102065ABF421CD2B201220C4948BF00248CF80020C4
:403600000A4A0D551278900702D5094A022111600DF11902B242CCD1FFF7CEBA7881FF1F4C81FF1F983500209C3500206B65004000E200E0004E00406081FF1F6281FF1F8D
:403640007D81FF1F7E81FF1F5E81FF1F9935002000213B2001F088F9AA4B01931B78002B3FF4AAAAA84EDFF8F8C2A84B16F8015B9CF8000019780446C9B201F1FF3E421A11
:40368000C0EB0E0EA2F17F02BEFA8EFEB2FA82F24FEA5E1E5209814288BF7246002AE9D1814200F0A48002065ABF421CD2B20122974948BF00248CF80020964A0D5512789D
:4036C000900702D5944A02211160944AB242CDD1019AAB21C3208DF814101278B8218DF815008DF816100B2070218DF817008DF81810002A3FF460AA05AE16F8015B9CF8C2
:40370000000019780446C9B201F1FF3E421AC0EB0E0EA2F17F02BEFA8EFEB2FA82F24FEA5E1E5209814288BF7246002AE9D1814256D002065ABF421CD2B20122744948BFE0
:4037400000248CF80020734A0D551278900702D5714A022111600DF11902B242CDD1FFF72BBA6178122001F0FFF8FFF725BA694A127851073FF5BFAC694A1570CDE4654A01
:40378000127851073FF540AC654A15704EE4614A127851073FF598AB614A1670FFF7A6BB5C4A127851073FF57DAE5D4A15708BE6584A127851073FF5FAAD594A157008E61C
:4037C000544A127851073FF57BAD554A157089E5504A127851073FF5D5AC514A1570E3E44C4A12785107A4D44D4A1570B3E7494A127851073FF557AF494A157065E7454AFB
:40380000127851073FF5F2AE454A157000E7414A127851073FF597AE414A1570A5E6414A414D137803F0FE03137001F07FFB3F493F4A0B783F4803F07F030B7010602B78B2
:40384000002B42D039493C480A78002342F080020A703A4AE380237203701370FFF7ACB9FF21FFF77CBB364A02AC154610685168167A03C455F80C0F05AA69682D7A03C2B3
:4038800030493148267015700B70027808ACE61802F08003DBB2037016F80C5C027816F8184CAD00224305F00C05284C2A430270237803F0F3032370237816F80C2C43F0E7
:4038C0000C0313432370FFF76ABBFF23136041F8703C02F081FA1E4A137843F01003137002F07EFA1B4B1A78110704D51A4A12681A781207FAD4194B00221A7085F800B02B
:40390000A0E700BF4C81FF1F5C5E0000983500209C3500206B65004000E200E0605E00004B650040004E00405C81FF1F746500402465004080A903007D81FF1F5E81FF1F8E
:40394000605E00004D81FF1F0E5800400D5800409765004067650040446500408765004099350020704700BF124B1A78597891421FD070B41048027802F0040202F0FF052B
:40398000B2B91E460D4C02E00278520710D41A78110648BF35701A7859781A441279D2B222701A780132D2B21A701A789142EBD170BC7047983500206B6500404B650040CB
:4039C0001A4AF0B517461A481A4C012500260378DBB213F01E0E05D092F884104EEA010182F884109B0600D4F0BD217892F88530C9B2134483F8881092F8A8300BB187F85F
:403A0000A95092F885300133DBB282F8853092F885301F2B88BF82F8856092F8851092F8AA309942D3D182F8A850D0E798350020686500404865004008B502F0D5F9036835
:403A40000C2B00D0FEE7FEE709490A4A0B7803F08003DBB20B700B7843F015030B70137803F0F3031370137843F00D0313707047025800400158004009490A4A0B7803F037
:403A80008003DBB20B700B7843F015030B70137803F0F3031370137843F00D03137070470A58004009580040F0B4284A1378042B22D8274D0121994095F8AB40C9B2214261
:403AC0001AD0244E24EA010156F8234085F8AB10334421781E7D1B7F21EA060121701D4495F8AC30013BDBB285F8AC3023B91A490B7823F008030B70042823D8144901239A
:403B0000834091F8AB40DBB223421BD1114D234355F8206081F8AB302B1837781D7D1C7F47EA050333700D1995F8AC3033B90A4E337843F00803337095F8AC302144013327
:403B400081F8AC301070F0BC704700BFC480FF1F98350020785E0000005B004070B41A4D87B02C466B4606466968286803AA03C254F80C0F2D7A6168082E03C3217A157097
:403B800019701ED8114C06AB1E442378104803F08003DBB2237016F8181C237816F80C2C8900134301F00C010B432370037803F0F3030370037816F8182C43F00C03134370
:403BC000037007B070BC70479C5E00000E5800400D580040F8B502F0FFF83349334A0B78334D03F0FE030B701378324C43F0040313702B78064643F002032B7023784820E7
:403C000043F00203237091F8913A2B4F03F0FC0381F8913A92F8913AA5F2473503F0F70382F8913A02F0D0F895F84733234A03F0FD0385F847332178214B01F0FD0121707E
:403C40001178204801F0EF011170117804F58C5401F0FE0111701A78093402F0FE021A701A78194902F0EF021A703B78174A03F0F9033B70037803F0FE0303702B783046C9
:403C800003F0FE032B70237803F0F70323700B7803F0FE030B70137803F0FE031370BDE8F84002F09DB800BF004E0040014E0040F8460040F946004077580040AA4300402D
:403CC000BA430040A1430040A2430040B24300402DE9F04FC74C83B094F8AD30002B62D194F8AE3003F0FF06002B5ED0C24D012384F8AD3002F070F8C04A6B781178C04B85
:403D000041F0010111701178064641F0100111701A78BC4D42F001021A701A78BA4C42F010021A702B78B94943F002032B702378482043F0020323700B7843F003030B70FA
:403D400002F042F82B78B24903F0FD032B702378B04803F0FD0323700B787A2443F006030B7004703046AC4AA1F5A6511378063943F0010313700B78A84D43F001030B70DF
:403D80005378013143F0010353700B78A44C4FF0005243F001030B702A60226003B0BDE8F04F02F01DB8944DA4E749F25B10924D0123DFF8C4826B7084F8AF6098F8003094
:403DC000984A43F0100388F800301378964943F010031370E0230B70DFF8A0E2934F944B02F5D05204218EF8001005323E701E701378AEF1030E43F0180313708D4B8EF86F
:403E00000060A2F287221E7087F8F2620A271770894FA3F207331E703E705B271772874F5E221A72A3F5286314223E701A706B780F2284F8B22004EB830393F8AE70804B20
:403E4000A4F8B0001F706B787E4804EB8303B3F8AC3003806F7884F8B460FFB2012F7FF446AF794B6FF4296CE644DFF814B2DFF814A24FF0F80C83F800C0DFF80C92DFF8A5
:403E80000CC28EF8001000F8091C8BF800208AF800604FF03F0A83F806A001F1804189F800608CF800608EF808604FF0030E80F808E001F5B141654A50200870DFF8D0A176
:403EC000132111702B2283F8862ADFF8C8E18AF800605F484FF0440A89F882AA5D494FF002095D4A4FF0480A8CF882AA8EF800904FF0120C4FF0280E80F80090EB2081F806
:403F000000C082F800E083F8910A01F065FF3D4B00901A78ABF20B7B42F003021A7001939BF800204D494FF0520C42F0030250468BF8002081F800C001F046FF019B0098E1
:403F40001A78DFF854A102F0FC021A709BF8003003F0FC038BF8003001F042FF4CF6CD433F4A5820DFF834C1DFF834E13D4910703D488AF800608CF800908EF800900E70AF
:403F80005672C4F8B83098F80020038802F007029BB2012B0FD0A1F5A7511A390978C9B2002A7FD1002B7DD1078098F8003003F0BF0388F800301B482C4E0278338802F087
:403FC00007029BB2072B0ED013490978C9B2002A40F0A080002B40F09D8007233380037803F0BF030370224B224A1B68C3F8B4207DE600BF98350020C480FF1FAA43004008
:40400000BA430040F8460040F9460040915800407758004082580040A143004080E200E000E100E0024100401DE400E0975800409E580040885B0040835800408D580040A1
:404040000E4E00400C4E0040004E0040855800408E5800408F5800409058004092580040945800409C580040804000400041004008ED00E06539000082400040965800403C
:40408000044E0040054E0040084E0040094E0040875800408C580040955800409A5800409B58004011F0010123D03D483D4F3E4E00224FF0010E327080F800E03A7010F82A
:4040C000082C6E3702F07F0200F8082C3A7810070FD43046072227F8803C32700378324A13F00103FAD1314E307800F0FE00307013702E4B1A78D20744D56FF468773B44C1
:404100001A462B4801260321068019701378DE07FCD450E711F0010124D02248204F224E00224FF0010E327080F800E03A7010F80C2CF23702F07F0200F80C2C3A781007B2
:4041400010D43046A7F5807707223B8032700378154A13F00103FAD1164E307800F0FE0030701370134B1A78D20712D5A3F568731A460F4807260321068019701378DB075C
:40418000FCD430E70C4A012010801A781143197011E70A4A072010801A781143197022E7104000401440004001400040A243004002400040A1430040804000400041004036
:4041C000C64BC74AC7491A600B68C74A43F40073C6480B600023032B94BF50F82310C4490133302B42F8041FF5D12DE9F041C14BC14AC24909781A6072B6C14AC14D13785E
:40420000A5F13C0643F004031370002404EB440306EB4303AA88D86B0134002101F010FE062C05F10605F1D1B74EB84F002556F8043F23F0FF0413F0FF0313D003F1FF3EA8
:4042400005F1105303F13F005FFA8EFE70443E3340005B001A785978023398421155F9D101357544BE42E2D1A94BAA4A0A2119701378A94943F0020313700B7843F697277B
:40428000A2F5863243F002030B70633A1378A1F5863143F040031370513941F251260A789E4B9F481C6842F010020A709D4A04603C3B9D4C03CB1060516003CB206061601D
:4042C00003CBB23CC2F8F000C2F8F41093E8070003C4964B9649228007C903C3954D1A802A78954B42F00802DFF8B4C203CBDFF8B4E22A70C4F81E106121C4F81A008F4AE2
:404300008CF800100021AEF80010502111708C4C8C481922A5F29E258B492A801825257007800A70196826270322884B84F87A7280F878211B78864FDBB23B70854B0827B0
:40434000A4F89C71844AA0F898611C784FF4F070116004F001041E4601F036FD01E0032C0DD033784FF4F07003F0010343EA440401F02AFD013D04F00304F0D1FEE740F23C
:404380000115764A76487749774F0024774E4FF4807E0723A2F800E013704FF0480E04700223042081F800E014703B70307091F89A236F4C42F0070281F89A2321786D4A56
:4043C00041F001012170117806F5F72641F080011170012406F2F9764FF0810E664987F8FFE73470097807F5C357C9B2A6F5F4260D3701F0070EA6F29576C14087F800E0FF
:404400003170A7F26277DFF8A0E14FF4E1413980A6F272665949AEF800503370584D09260E70DFF888C1052187F86C172970202540218CF8005087F8F8188EF8CE3887F801
:404440000669504E8CF8185010258EF8E45887F81A3934708EF8F40887F8283935744A4D8EF84439DFF8488187F87E3986F86A00464B8CF89A002870C8208EF88649DFF818
:4044800034C187F8BC0986F8A310422188F800403F481970DFF820E1802185F844103D4CC7F834CA4FF484710E27C6F81CE1A5F24A2507704426A3F88A100FCA2E7007C449
:4044C000354A23807F23013BDBB202F80839002BF9D1324A1370BDE8F08100BF0CED00E00004FA0514ED00E0FC7FFF1F00000000393A000008ED00E00080FF1FBC7600407D
:40450000E8460040B45E0000FCFFFF4778000048835800400350014013500140540600484076004002510040C2510040205100403C060048224300404806004882400040B1
:4045400086400040884000408A40004008010049A14600402542004000410040044000400640004008400040014000400B400040A1430040A0430040CF0100496C58004080
:404580007A580040285A0040C05A0040D05A0040585B0040B0430040F87B00400078004000480040804000403C510040005A0040CC5A004007060706280106062DE9F843DD
:4045C000754C94F8443294F8C100002B00F0928072495C2303FB001394F8387293F8A5506D4ABD4240F2A18093F8A450002D00F09C80024492F81261002E00F0A88092F8A9
:404600001631002B40F0A8805C2303FB0013D4F83C229B6E9A4200F3A8806B421BB2604A4FF05C0E0EFB002E94F839829EF80DC09EF80E6008EB03052DB2B445AE4678D92C
:40464000C6EB0C095FFA89F94D4574DA66441FFA86FCBCF1FF0FCE464D4676D8F6B2B64573DDB04561D05C2505FB00F001EB000810440025B8F8A8E000F14C0201372946AF
:4046800084F8387284F84532C4F8202101234FF480720B274348A4F82EE284F8373284F8363284F8C260C4F81C51C4F82452A4F82C52A4F8305284F8325284F8335284F8AB
:4046C000345284F83552C4F82852C4F8485284F8BD7001F0B5FBD8F8B8303046984701F07BFB84F8545201F07BFB022384F8BC30BDE8F88341F2883228495C2303FB0013C3
:40470000D3F8A030D4F840529B1202FB03F3002B254E2CDB03F5FF6386FB0326DA173344C2EBE3239D423FF754AFBDE8F84300F0D1BC002D24DB66441FFA86FCBCF1FF0F7B
:404740008CD9FF2DC8BFFF268BDCEEB289E793F96C30002BFFF658AF5C2303FB0013D4F83C229B6E9A42BFF658AF2BB257E7C3F5FF6386FB0326DA173344A2EBE323D1E749
:4047800066441FFA86FC4FF0000EBCF1FF0F75467FF664AFD9E700BF98350020785E0000D85E0000BC360020818080800349044B0420012208601A70704700BF80E200E052
:4047C0005D81FF1F2DE9F043554B1B7803F00303012B40F28880022B00F08D80514B524A1B8812889BB243EA0243504A127812B14F4A002111704F491A460978012903D1EB
:40480000002BB8BF1F335A114B4B4C4C1A601D684B4901204B4A256008701278022A01D0BDE8F083484C2278002AF9D1474A484D10882988421E92B2B2F5007F34BF06466C
:404840004FF4007689B2B142EAD2424E318889B21D29E5D8404F31883F7801EB410189B2002F53D11B68B5F800E03C4F4FF05A0C1FFA8EFE0CFB0E7E5FFA83F80EF8018080
:40488000B5F800E001F101081FFA8EFE0CFB0E7EC3F307290EF80890B5F800E002311FFA8EFE0CFB0E77C3F307437B543388284901339BB233803388264E9BB21D2BAFD948
:4048C000002333800B88B2F5007F03F101039BB20B802B8828BF4FF400709BB2834224BF012323709CE7104A0E4B12881B889BB243EA024379E70C4B0A49194A1B8809789D
:404900001278120242EA03430B436EE7154F3B6803F1010EC7F800E023F07F43A3E700BF144E0040104E0040124E00404C36002047360020C580FF1FF03700206481FF1F31
:40494000EC3700205E81FF1F7D81FF1F883500206281FF1F8A350020943500208081FF1F114E0040903500202DE9F04F2E4A2F4B12781C78D2B282F0C4034B4083B043402F
:40498000AB26C4258DF802008DF803108DF804208DF805308DF800608DF80150002C38D06E46DFF894E0224DDFF89090DFF890C0DFF890B00DF106084FF0020A16F8014B78
:4049C0009EF800102A780846D2B2571E8B1A7F1AA3F17F03B7FA87F7B3FA83F37F095B098A4288BF3B46002BECD18A4214D00A0659BF0131C9B20121002009F800408EF88C
:404A000000109CF800309B0748BFCBF800A04645D4D103B0BDE8F08F9CF800305F07E6D4044B1C70F3E700BF5E81FF1F4C81FF1F983500204B650040993500209C35002093
:404A40006B65004000E200E0F8B54C4B4C4C1B78580607D533202178FFF786FF2378012B47D0F8BD34202178FFF77EFF4549464A0B78464803F0FE030B701378444903F0B8
:404A80007F03444D137001602B78B3B13E4A424F1378424E43F08003137001F09DF9404D4049414A00233B8033702B800B8013702370BDE8F84001F093B9FF23036042F8BD
:404AC000703C01F089F9394A137843F01003137001F086F9364A1378190704D535490B6813781B07FBD4344A0021012311702B70CCE7324F23493E780B783148224A03F04F
:404B0000FE0305880B7013782E4903F07F03284813706A1E4023B2F5007F0078F6B20B6028BF4FF4007501F057F90036DFF868C0DFF868E01A494FF0000318BF0126194A2C
:404B40003E70ACF80030184F8EF800301E4E0B801E49138002220B803B703360227001F03FF9FF2D94BFE9B2FF213520FFF7FCFE044A137843F001031370F8BDC1510040E4
:404B80005E81FF1F004E0040746500402465004080A903005C81FF1F8A3500208C3500206081FF1F6281FF1F7D81FF1F97650040676500404465004087650040943500203F
:404BC0008835002080E200E0903500207E81FF1F10B5244A244B25491B781368013313600B78BBB1224A13780133DBB213701378ABB9204A20491378204803F07F03204C0F
:404C000013700860237883B11A4A137843F08003137010BD03F0FF02154B1A70E9E7194B0020012110701970E3E7FF230B6042F8703C01F0D1F8144A137843F010031370BF
:404C400001F0CEF8084A1378190704D50F490B6813781B07FBD40E4A0021012311702370D2E700BF9C380020676500408135002084350020746500402465004080A903007A
:404C80005C81FF1F803500209765004044650040876500402DE9F04F924F83B03B7806465BB139781220FFF75FFE002E40F0B4800025284603B0BDE8F08FDFF85C8203F085
:404CC000FF0598F8013088488849894A012B05800D80157000F0EE80DFF840A24FF0000988F8019001F078F8DAF800B0814C01F077F80BF1190349461020C8F82030FFF75B
:404D000033FE94F80280B8F1000F51D049461120FFF72AFE002ECBD0774BAB241B78C220B52177228DF803908DF800408DF801008DF802108DF80420002BBAD0EE466F4FF5
:404D40006F4CDFF8DCA1DFF8DC81DFF8DCB10DF105091EF8016B397822780846D2B202F1FF3C8B1AC1EB0C0CA3F17F03BCFA8CFCB3FA83F34FEA5C1C5B098A4288BF634602
:404D8000002BE9D18A4200F0A4800A0659BF0131C9B2012100200AF80060397098F800309B0744BF0223CBF80030F145D1D180E7544B20221A60FEF70DFFFEF70BFFFEF700
:404DC00087FF514A0125137803F0FE031370FEF701FF4E4B04221A7084F8038084F80580A5702571257000F0F7FFDAF8009000F0F7FF28460036464A18BF012603231670E0
:404E0000C4F89091C4F89491C4F85680C4F85A803B7003B0BDE8F08F374BAB251B78C224B520002177228DF800508DF801408DF802008DF803108DF80420002B3FF438AF08
:404E40006E462E4F2E4CDFF8D890DFF8D8C0DFF8D8B00DF105084FF0020A16F8015B397822780846D2B202F1FF3E8B1AC1EB0E0EA3F17F03BEFA8EFEB3FA83F34FEA5E1ECE
:404E80005B098A4288BF7346002BE9D18A4219D00B0659BF0131C9B20121002009F8005039709CF800309A0748BFCBF800A0B045D3D1FDE6144A137803F0FE03137000F07B
:404EC000FFFA09E79CF800305A07E1D4114B1D70EDE798F800305B073FF557AF0D4B1E7063E700BF5E81FF1F6081FF1F6281FF1F7D81FF1F543600204C81FF1F993500204B
:404F00009835002080E100E0004E0040A03800207C81FF1F4B6500402C3800209C3800209C3500206B65004000E200E02DE9F0415D4D6C78012C66D05C4FDFF87C8100239D
:404F40005B4C6B7000F048FF5A4B1E6800F048FF2378193603F0FE0323702E62FEF73AFEFEF7B6FE237803F0FE032370FEF732FE3A78042A44D80121914098F80030C9B2CE
:404F800019424D4819D04D4C23EA010354F822404B49037023788D5C4A4923EA05038A5C494923708B5C013BDBB28B5423B9474A137823F00803137003781A070DD443F0AA
:404FC0000803434988F800300B783F4A63F07F030B70137863B10133137003233B70FEF777FE334A137803F0FE031370BDE8F08191F8C33943F0080381F8C3391378EAE754
:4050000098F80030D9E72A4A284F1378DFF8A88003F0FE031370FEF7DDFD3A78042A1FD8944098F80030E4B21C421BD0234923EA040451F82200224988F8004003788C5C71
:40504000204923EA04038A5C1F4903708B5C013BDBB28B5423B91D4A137823F00803137098F80030190714D443F00803184988F800300B78144A63F07F030B70137833B935
:4050800091F8C33943F0080381F8C33913780133137003233B70FEF71BFE054A137803F0FE0313704BE700BF2C380020C480FF1F004E00409C38002043360020785E00007E
:4050C0008C5E0000945E000044360020005B00403D510040F8B5354C354E657994F888315C2000FB0560BBB941F28832036CD4F884719B1202FB03F3002B4CDB2D4A03F52F
:40510000FF6382FB03121A44DB17C3EBE2239F42CCBF0027012700E00027437B807B94F87D11834203EB000228D9181A93B2FF2BC0B22DD9884238BF08465C2303FB05661D
:4051400084F87D01B36D984705EB45051A4BAD0094F87D01D4F880115A19177251605855124A07B917711B6B13B139462920984763790A22013363712270F8BD93B2FF2BCE
:4051800004D8D0B2884228BF0846D6E70020D1E78142D2D3F5E70749C3F5FF6281FB02131344D217A2EBE323B1E700BF54360020D85E000081808080F837002041F2883278
:4051C0002DE9F84F814CDFF814A265794FF05C0808FB05A8D8F8143007469B1202FB03F3002B94F80CB0D4F81890E169C0F2D280774A03F5FF6382FB03021A44DB17C3EBF6
:40520000E22394F820209942D8BF01276F4B22B193F82220002A00F09F806E4E41F288334FEAA92203FB02F3002BC0F2A980684A03F5FF6382FB03121A44DB17C3EBE22328
:40524000002BB8BF5B421F2B04DD6179032900F0AB80002798F80D3098F80E80434503EB080170D9C8EB03088BB2FF2B5FFA88F840F28280D84538BFD8465C2303FB05AA39
:405280004046DAF858304FEA450A98470AEB05039B00F21806F80380C2F80490177207B92771336B4B4F1BB14146132098473B6B0AEB050206EB82025768B7F5004F3EDACF
:4052C00017F5004F79DA444F8021002B30D014209847336BF9B2DFF8FC80002B70D0142098470AEB0503D8F8302008EB83035F68F2B1390E1D209047D8F83030C7F30741E7
:40530000B3B11D209847D8F830308BB1C7F307211D209847336BF9B22E4E4BB11D209847336B2BB1554406EB8506317A1620984763790122134463712270BDE8F88F7F21CF
:4053400047F6FF77C1E78BB2FF2B12D85FFA81F8D84528BFD84690E793F821301D4E002B3FF45CAF336B33B3294624201746984754E74FF000087DE7C345FFF47EAFE5E719
:405380001349C3F5FF6281FB02139918D317A3EBE12355E70E48C3F5FF6280FB02039818D317A3EBE0232CE7376B002F3FF452AF1C20B8474DE71F4630E7C7F3072184E714
:4053C0000C2303FB0588D8F80470A3E75436002081808080F83700200080FFFFD85E0000F8B52D4C94F83550012D0BD0002384F8353000F0F1FCD4F8A45000F0F1FC19356B
:405400006565F8BD254A137803F0FE031370FEF7E1FB234923480A78042A1DD895400378EDB21D4219D0204E23EA050556F822601E4F05703378BF5C1D4D23EA0703AA5C74
:405440001C4D3370AB5C013BDBB2AB5423B91A4A137823F00803137003781A0712D443F00803164D03702B78124A63F07F032B7013782BB91048037843F008030370137862
:405480000133137003230B70FEF722FC034A137803F0FE031370A9E7F8370020004E0040C480FF1F43360020785E00008C5E0000945E000044360020005B00403D51004015
:4054C00070B5FEF787FB224922480A78042A1ED8012494400378E4B21C4219D01E4D23EA040355F822501D4C03702B78A65C1C4C23EA0603A25C1B4C2B70A35C013BDBB23F
:40550000A35423B9184A137823F00803137003781A070CD443F00803144C03702378114A63F07F03237013785BB10133137003230B70FEF7CDFB0E4A137803F0FE03137019
:4055400070BD0948037843F0080303701378ECE7C480FF1F43360020785E00008C5E0000945E000044360020005B00403D510040004E00402DE9F04FDFF838835C2404FB7F
:405580000084A368D4F814909B1A83EAE37EC64D440087B0AEEBE37EF14502940444B4BF0027012705EB84042E18277296F858706260002F40F0D98000F10A078600DFF885
:4055C000F8C234180CEB8404E468744580F20981044603922A18019192F878105C20049100FB0480DFF8C0B2B1B304F1120A0BEB8A01896B01F1FA0BF3452DDA92F990B09C
:40560000BBF1000F28D0032C92F85C6040F25681029B05EB870789452344B96B04F11802D5F8308005EB83034FF00007B4BF4FF000094FF0010905EB82022C44596083F861
:405640000890576384F87870B8F1000F02D031462220C047012085E004F1180205EB820A0592DAF8342091491A448A42B8BF0A468F4906EB04098A42A8BF0A464FEA89096D
:405680000CEB0901D1F808B04968BBF1000F01FB02F108BF4FF0010B91FBFBF15CF809B0CAF834200BFB03112A1992F87090002918BF0B46B9F1000F76D092F87420002AE1
:4056C00079D1002B79DD4FF6FF734FF0FF3B46F26662264496450CEB8606CCBF717C317C019A01FB0321427B837B09B29A420E4666D9D01AC0B28142C0F2A280D0181FFA2E
:4057000080FCBCF1FF0F65D9FF29C8BF4FF0FF0964DD039E05EB8707BE634FF00107019E29194E4581F8587081F85C605E4F00F08A80049E002E6FD19DF804702919012623
:4057400081F87C70032C05EB840781F890B081F87860C7F880E07DD92E6B16B149461F20B047002007B0BDE8F08F96F85C4000F10A078C423FF422AF05EB870CDCF838C02E
:4057800062453FF41BAFD4BF4FF0010C4FF0000C8C422CBF64468CF001044FF0010C86F8744086F870C009E75C2202FB048292F90C20002A85DB002B85DD01239B4686E7DA
:4057C00000299BDA0026314698181FFA80FCBCF1FF0F03D85FFA80F94E459ADC5FFA81F997E72C18012600F1180E002084F87800304605EB8E0EDEF8343005EB870703EB29
:40580000D3735B10BA6384F85C10CEF8343084F8586007B0BDE8F08F91F87CA0CA458BD1059B3A6B07EB830700237B6381F87830002A3FF40FAF222049469047012091E72A
:4058400006460146C0E70023012081F8783007B0BDE8F08F9A421AD8BCF1FF0F1ED900264E4538BF4E465C2303FB04883046D8F858309847029A95F8A8302244032B05F8A2
:405880002260094A9CBF042382F8A83064E7D31ABCF1FF0FDEB2E3D84E45E4D8C6B24E4528BF4E46DFE700BFF8370020A099F9FF60660600D85E00006C600000437B90F813
:4058C0000EB05B4503EB0B0220D991B2CBEB0303FF295FFA83FB1ED85E4524D25C2303FB04885846D8F85830984795F8A820029B032A234405F823B00E4B10D803EB8A0AD2
:405900000422DAF8381083F8A82081E693B2FF2B09D94FF0000BB34538BFB346DEE703EB8A03996B74E65FFA82FBB34528BFB346D4E700BFF837002041F288322DE9F84F9B
:405940008368CB499B1202FB03F3002BC0F25D8103F5FF6381FB0321DA170B44C2EBE32641F28832C34C2769BB1202FB03F3002BC0F24181BE4903F5FF6281FB025111446E
:40598000D217C2EBE122B21A94F84C5082EAE276A6EBE276A179B74AF5B392F84EE08E4500F02781012D40F2228192F84FE08E4500F01F81022D00F01A8192F850E08E4561
:4059C00000F01781032D00F0128192F851E08E4500F00F81042D00F00A8192F852208A4200F00781052D00F0028194F853E0A14A8E4500F0FE80062D00F0F98092F854E088
:405A00008E4500F0F680072D00F0F18092F855506D1AB5FA85F56D09D0F81CE0BEF1000F21DD002BC0F2FA80914A03F5FF6382FB03021A44DB17C3EBE22341F288304FEA8E
:405A4000AE2200FB02F28A4802F5FF6280FB02E0002B10444FEAE272B8BF5B42C2EBE022934280F2A380844B1B6B23B1002123209847A179276994F82020012384F82230D3
:405A80007C4B002A00F0AE800022E6612173A76184F8202094F82300764B002800F0E68093F824E08E4500F0E980012840F2CC8093F825E08E4500F00181022800F0C48093
:405AC00093F826E08E4500F0FB80032800F0BC8093F82700884200F0EF80D3F838E0D3F83C8093F848C00EF1805093F849A0BCF1000F18BF864608F18050BAF1000F14BFB0
:405B00008246C2464EEAEE7C186CE24593F84A9000F1805ED4BF4FF000084FF00108D445B8BFD446B9F1000F18BF7046D3F8449093F84BB08445ACBFC6464FF0020E09F154
:405B4000805A84456346B8BF0346BBF1000F0CBFCC46D4469C45D4BF704603206345B8BF6346002A64D1B6469E450BDA231800F10A0E0E3083F8241083F8482044F82E7041
:405B800044F820607DB994F84C20A079072A394B51D993F84D20511C01F007011A4483F84D1082F84E002846BDE8F88F324B1B6B002B40F0878094F82230012284F82120EA
:405BC0002C48002B7FF466AF90F820301BB9C3699E42BFF65FAF0122E6612173A76184F8202057E7DB699E42FFF64EAF52E7002512E7012510E71E4AC3F5FF6182FB015229
:405C00000A44C917A1EBE222BDE6C3F5FF6381FB0321DA170B44A2EBE326A1E61448C3F5FF6280FB02039818D317A3EBE02304E706F1805E98E79918013281F84E0083F867
:405C40004C202846BDE8F88F431CDBB204EB000E84F8233000F10A030E308EF824108EF8482044F8237044F820608BE70123EDE78180808054360020F83700200023E11877
:405C800091F848108AB9A1B903F10E0154F821008642BFF677AF03F10A00234444F8216044F8207083F848206CE701297FF46AAFEAE703F10E01EEE70323E0E70123DEE7FA
:405CC0000223DCE7012123209847A179276972E7014B1870704700BF815B0040014B1870704700BF835B0040014B1870704700BF825B0040014B1870704700BF805B0040DB
:405D000070B5104D2B68DBB10C460146262098472B68210EA3B1272098472B68C4F3074173B1272098472B68C4F3072143B1272098472B68E1B21BB1BDE870402720184773
:405D400070BD00BF2838002070B51D4D0C462B681BB10146132098472B68B4F5004F25DA14F5004F28DA174E802123B3142098472B68F1B2124E9BB1142098473368D3B137
:405D8000210E1D2098473368C4F307419BB11D20984733687BB1C4F307211D2098472B68E1B243B1BDE870401D2018477F2147F6FF76002BDAD170BDC4F307212646D4E76E
:405DC000283800200080FFFF0230800803D000BF01380046FCD17047EFF3108072B6704780F31088704700BF014B1868704700BF2881FF1F0E4B70B51E460E4C0025E41A1C
:405E0000A410A54204D056F8253098470135F8E700F056F9084B094C1E46E41AA4100025A54204D056F8253098470135F8E770BDCC600000CC600000CC600000D460000003
:405E400003460244934202D003F8011BFAE7704700000000BC07010002000000ABC000C0011121314161536373000000080901010507070404000000CB5A0040FD510040FC
:405E80003D5100403D5100401D51004001084080800000000000000000000000011121314161536373000000080901010507070404000000405100403000000001400010A0
:405EC00000140140000800400140000A004C01400002005001402000486000000000000000000000019C4020100000007B1400007B140000C0D40100BC07BC074010000834
:405F00000A00000003000000401000100A00000003000000010000007B1400000103BC07BC070000404000200A00000003000000F55C00005060000001000000000000001E
:405F4000019C4020100000007B1400007B140000C0D4010001000100401000080A00000003000000401000100A00000003000000010000007B1400000103010001000000F7
:405F8000404000200A00000003000000E95C0000586000000200000000000000019C4020100000007B1400007B140000C0D4010002000200401000080A000000030000000C
:405FC000401000100A00000003000000010000007B1400000103020002000000404000200A00000003000000DD5C0000646000000300000000000000019C402010000000E2
:406000007B1400007B140000C0D4010036003600401000080A00000003000000401000100A00000003000000010000007B1400000103360036000000404000200A000000C5
:4060400003000000D15C000047454F5F5047410047454F5F4250000047454F5F414444455200000047454F5F4C5000000100000001000000080000008813000001010000FB
:406080000100000001000000080000008813000001010000010000000100000008000000D0070000010100000100000001000000080000008813000001010000430000006C
:4060C000F8B500BFF8BC08BC9E46704799000000C1410000F8B500BFF8BC08BC9E46704775000000F8600000C080FF1F7000000078B700000000000000000000FF0100003D
:406100000000000000000000000000000000000000000000000000000000000000000000BC6000000000000000000000000000000000000000000000000000000000000043
:406140000000000000000000000000000000000000000000000000000000000000000000C880FF1F00000000000000000000000000000000000000000000000000000000B9
:4061800000000000000000000000000000000000000000000000000000000000000000000000000000000000000000000000000000000000000000000000000000000000DF
:4061C000000000000000000000000000000000000000000000000000000000000000000000000000000000000000000000000000000000000000000000000000000000009F
:40620000000000000000000000000000000000000000000000000000000000000000000000000000000000000000000000000000000000000000000000000000000000005E
:40624000000000000000000000000000000000000000000000000000000000000000000000000000000000000000000000000000000000000000000000000000000000001E
:020000040003F7
:0200000480007A
:4000000002520040016400400365004002070140400801402D090140030B0140040C0140010D0140391401402B15014039160140201701405C18014043190140521A014090
:400040004D1B01400640014009410140054201400A430140024401400345014006460140014701400B48014007490140074C0140074D0140095001400251014009200C04D4
:400080008872870D88388B0F8540E6010002011004020508080809180C100D390FC411FF1204141915E716041718180519D91A181B221C191DC01E04201D2180240225416C
:4000C00028182B012FE63002311F321C33D8340135383A083B8A3E1056025712580459045B045C115D105F0180109001920298029A019E14AA08AF01B004B203B410B501B9
:40010000B608BE04D804D904DC92DF010102040A0705080209200A010E6A100415041722181019021A091C041D021E60212024402550260D274228022C802E402F183580E6
:40014000361437023C403E2A5C046C056D046E10762A772580109804C0F8C2FBC472CAF8CCF0CEF0D6409804B004B44038023E0158045F011C4004010C04120714021701C2
:400180001C071D0123012701340737013B80402549FF4AFF4BFF4F0150185280580B590B5A0B5B0A5C995D995F016040624064406540668068806A806C806E80C065C9FFD4
:4001C000CAFFCBFFCD83CE03CF01D018D608DA08DB04DD99DF01E040E240E440E540E680E880EA80EC80EE800004020109880A4018041B1021802A012B103188400448028A
:400200004C024F205E805F206405670272C078057F01940497029A019B209C019E80A002A108A240A710AE40AF20C005C20DCA03CC0AD004D238D630D830DE13E602406123
:4002400049FF4AFF4BFF4D834E034F0150185A085D095F016040624064406540668068806A806C806E80830296019702AE01AF01B102B301B601BF01C025C5ECC720C8232B
:40028000C9FFCAFFCBFFCD83CE03CF01D018D401D80BD90BDA0BDB0BDC99DD99DF01E040E240E440E540E680E880EA80EC80EE80090810021940210823802A8031083A01D5
:4002C00040044601480249054F205002520159055B8078017F019D40C204C401CA08CC02CE01D014D228D60BDE11E480E604EA8000030302070108820A440B010C430D0404
:400300000EA8120314E0150418031B041F042021225424E027022A032E0330E031043210340C35023603370139023E103F504064410142034402450C470E481149FF4AFFBE
:400340004BFF4C624DA04EF04F41500C54185604580459045A045B045C115D115F016640670269106A306B106D106E106F128402880390039404AA01B204B403B820BE14E0
:40038000C002C540C9FFCA07CBFFCC40CD20CEF0CF05D008D608D804DA04DB04DD91DF01E040E1A8E240E32000280460058006800A200B800D020E181008150617501814D6
:4003C0001C401D201E011F082408250126802E08314032803614375038083B083DA23EA03F0440044562462048404E084F045008560858805E0160026540660267088202A8
:400400009104921097209B409C029D80A152A21CA480A708B204C0D6C27CC4F2CA40CC70CEF0D0F4D220D688D8B8E480EA80041C06020703091C0A030B030C100D010F163D
:400440001501170E1C101E0C1F1C2009221023082414280C2A11321F331A350F3B28580459045C115F01820884138503860489038D109102930195049615980399089A1407
:400480009C139E0CA104A501A702A80AAA14AB04B010B303B510B60FB70CB980BA80BE01BF10C016C102C50CC6CEC70BC81DC9FFCAFFCBFFCEF0CF44D00CD401D604D804C4
:4004C000D904DA04DB04DC11DD11DF01E6C0EA40EB02009802010640072009800C080D800F08110812C8153018101A201D801E401F4020282110220823202420268027189E
:400500002A012D102F50328835213608380839203B803D043E103F80458047204C0C4D204F08550457505D015E405F186330674079017B4080808101831087408880910441
:40054000921093209420962097809C80A048A494A810B101B310C037C2E1C44ECAE1CCEACE7ED030D220D6F0D880EC013214362037083B40CCF0CE10130833403440962836
:4005800097409F08A620C410CC30962897409C409F40A620134083408440962897409C409F40A620C440E6907C20DE0100209C20C0024620B010B420D001E802EE019E202C
:4005C00025202A102B08821089209620A620B204C820CA10E6208620A620AE10AF08E640E840EC40030863208A209E20C002D802E40110108810AB10B308C408E204EA0474
:40060000000601010C060D01100211011B011C021D0100FF013E0000000000000000FF0040000000000000000000000000000A002000040B2B00200080000000040000068B
:400640000200000000000000000000000000FC0007001801000800000000000000000000000000000000000000000000000000000000000000000000000000000000000054
:40068000000000000000000000000000000000000000000000000000000000000000000000000000000000000000000000000000000000000000000000000000000000003A
:4006C00000000000000000000000000000000000000000000000000000000000000000000000000000000000000000000000000000000000000000000000000000000000FA
:4007000000000000000000000000000000000000000000000000000000000000000000000000000000000000000000000000000000000000000000000000000000000000B9
:400740000000000000000000000000000000000000000000000000000000000000000000000000000000000000000000000000000000000000000000000000000000000079
:0200000490006A
:0400000000004005B7
:0200000490105A
:04000000BC90ACAF55
:0200000490303A
:020000002EFAD6
:0200000490402A
:4000000000000000000000000000000000000000000000000000000000000000000000000000000000000000000000000000000000000000000000000000000000000000C0
:400040000000000000000000000000000000000000000000000000000000000000000000000000000000000000000000000000000000000000000000000000000000000080
:400080000000000000000000000000000000000000000000000000000000000000000000000000000000000000000000000000000000000000000000000000000000000040
:4000C0000000000000000000000000000000000000000000000000000000000000000000000000000000000000000000000000000000000000000000000000000000000000
:0200000490501A
:0C00000000012E16106900012E3F3F6326
:00000001FF