:4000000000800020110000007941000079410000144A80B5144B1268144F1A60F7B1144E002556F80C4C56F8080C56F8102C234638B1043A52F8041F43F8041B191B814243
:40004000F8D156F8040C1A4620B142F8045BD11A8842FAD1013F06F11006E2D106F03EFD03F02AF8FA460040BC76004001000000F478000010B5054C237833B9044B13B1BA
:400080000448AFF300800123237010BD3881FF1F00000000E06E0000084B10B51BB108490848AFF300800848036803B910BD074B002BFBD0BDE81040184700BF00000000E3
:4000C0003C81FF1FE06E0000C080FF1F000000002DE9F04F0126B046DFF878B2DFF87892DFF8A0A28FB0CAF800809BF8000099F8001001248842974A974B00F0D0801078DD
:4001000019781B788842127828BF20339B1A934ADBB21660002B00F0D1809149CAF800609BF8002099F800300878D2B2DBB210B99A4200F0BD80531CDBB2202B894828BF3A
:400140000023805C8BF800300A78854CC3B20AB100222270814A844916600A78052A00F2A480DFE802F0927D73150C037F4A8048D37003230B70002313700370B3E77B4A75
:400180007B48937005230B70002313700370AAE7764C77480022227002700A706278A178E0784A4042409A429DD1724B1A7852B96278C12A02D06278A52A94D16178212051
:4001C0001E7004F031FE6378684AC12B03D05178302004F029FE684B1B78032B637878D0A33B162B3FF67FAF01A252F823F000BF8F0A0000E7000000050B0000410600001F
:40020000E7000000E70000007F07000021080000E7000000E7000000E7000000E7000000E7000000E7000000F9080000E7000000230C00004B0C000015100000210D000016
:40024000170F000089030000170C00004748484C837000220323C2700B700270227042E703F15D02414C424DD2B200201E2A2070287005D8414806FA02F7384008BB22B37F
:40028000002323702B700B702DE7AB2B7FF42BAF3648374A00230E700370137023E730490B784BB12D4B1E6038E700230B701AE7334B1B78DBB24DE7284B1C600FB0BDE8CA
:4002C000F08F022263700A700DE7042263700A7009E7A53B1C2B01F2798001A252F823F02112000063110000CD130000CD1300006311000063110000CD130000CD13000095
:40030000CD130000CD130000CD130000CD13000063110000CD1300006311000063110000C3100000CD130000CD1300002D130000CD130000CD130000CD130000CD130000AE
:40034000CD130000CD130000CD130000CD130000E700000006380020E137002000E100E004380020E4370020793500205481FF1F78350020933500209C370020CC407F40F4
:400380004865004080E100E0964B1A78002A41F00583954BAB21C2221B788DF828108DF82920B8217B228DF82B608DF82A108DF82C20002B34D08D4D8D4B0DF1280E1EF8CA
:4003C000017B287819780446C9B201F1FF3C421AC0EB0C0CA2F17F02BCFA8CFCB2FA82F24FEA5C1C5209884238BF6246002AE9D1884201F0358102065ABF421CD2B20122DD
:400400007C4948BF00242A707B4A0F551278900702D57A4A022111600DF12D029645CED1774B1B6813B1002101209847002302930193744B744D0093744B754F0493754BAF
:400440000593059B9DF804201B780392934201F2EF806A7BA97B8A4202EB010341F25E8198B2511AFF28CCB201F25D81A24281F0588205F0FDFA009B1A782B79FF2A2DD017
:40048000934257D0042A26D8634806FA02F190F800E0C9B211EA0E0F1DD0DFF89CC12EEA01015CF822C0DFF894E101709CF800001EF802E0594920EA0E0E895C58488CF8F0
:4004C00000E0425C013AD2B2425422B955490A7822F008020A700099FF220A70FF2B29D0042B25D84C4906FA03F20878D2B202421ED1DFF844E102435EF823E0DFF83CC1E6
:400500000A709EF800001CF8032044490243C95C43488EF80020425C42B9DFF808E19EF8002042F008028EF80020425C01324254009A1370049B1B78002B41F0C18005F013
:400540007DFB2B6920469847374806F0B1FA2C4B1B6843B303992D209847AB681A46284B03921B68110EF3B12A20984724490B68CBB1039A2A20C2F3074198472049039A43
:400580000B68C2F3072173B12A2098471C490B689DF80C103BB12A209847194B1B6813B1214613209847214A4EF66023117801F0FE01117010781E4940F00100107009E027
:4005C0000A78D2B2013B9BB2002A40F01787002B01F093803A78002AF2D1164A127802F00102EFE79C37002018370020193700201A3700201C3700206B65004000E200E069
:40060000AC350020C780FF1FE0750000B035002010380020D0370020D137002048760000D4370020005B004080FC0A00004E004009380020014E0040587600005076000027
:40064000A378DBB2082B01F2FE819B4F07AD3C46386879680AAA03C554F80C0F97F808E06168277A03C2954C9548964985F800E017700370257823700A780EA802F0800233
:40068000D2B20A70C71817F810EC0A7817F81C0C4FEA8E0E02430EF00C0E8B484EEA02020A700278AB4202F0F3020270027817F8101C42F00C0242EA0102027004D0834BE6
:4006C00000221A7004F046FF2378814A83F064018DF82B301278AB238DF82C108DF82830C221A6238DF829108DF82A30002A34D0784D794B0DF1280E1EF8017B287819780A
:400700000446C9B201F1FF3C421AC0EB0C0CA2F17F02BCFA8CFCB2FA82F24FEA5C1C5209814288BF6246002AE9D1814200F0118702065ABF421CD2B20122684948BF002447
:400740002A70674A0F551278900702D5654A022111600DF12D027245CED1634B1B78022B3FF4C1AC614B62491A780B7802F0020282F0020203F0FD0313430B70B3E4A378B0
:40078000AB20DBB2082B8BBF5A4B5A4A1B7813704F4A8DF82B30127883F06B038DF82C30C221A9238DF828008DF829108DF82A30002AD2D0474D484B0DF1280E1EF8017B8E
:4007C000287819780446C9B201F1FF3C421AC0EB0C0CA2F17F02BCFA8CFCB2FA82F24FEA5C1C5209814288BF6246002AE9D1814200F0E48602065ABF421CD2B201223749E0
:4008000048BF00242A70364A0F551278900702D5344A022111600DF12D027245CED19CE7A3782B4ADBB283F068018DF82B301278AB238DF82C108DF82830C221AA238DF8FB
:4008400029108DF82A30002A87D0224D224B0DF1280E1EF8017B287819780446C9B201F1FF3C421AC0EB0C0CA2F17F02BCFA8CFCB2FA82F24FEA5C1C5209814288BF6246CB
:40088000002AE9D1814200F0A28602065ABF421CD2B20122114948BF00242A70104A0F551278940702D50F4A022111600DF12D027245CED151E700BFEC6E0000C980FF1F52
:4008C000C880FF1F02580040015800407081FF1F18370020193700201A3700201C3700206B65004000E200E09C3700202151004020510040A83500206D4B6E4D1F460093FD
:400900002B7803F0FE032B7005F0B2F805F096F92B7803F0FE032B7005F0AAF83878FF2801F0C38003283ED00428634B1ED806FA00F11A78C9B2114219D0604D22EA01028F
:4009400055F820505E491A702A780F5C5D4922EA0702095C5C482A70425C013AD2B2425422B95A490A7822F008020A701A780098FF210170100713D442F0080254491A7079
:400980000A78514B62F07F020A701A7832B991F8C32942F0080281F8C3291A7801321A70009A032313704B4B04931B78002B41F04D8005F043F93F4A474D137803F0FE03F1
:4009C000137006F07DF8454A0023E380444923722B801380434A0B701380E360424B1E7006F072F8A1883220FF2994BFC9B2FF2104F01AFA3C4B3D4A1B781278DBB283F077
:400A000073018DF82B30AB238DF82C108DF82830C221B1238DF829108DF82A30002A3FF49CAE334D334B0DF1280E1EF8017B287819780446C9B201F1FF3C421AC0EB0C0CF5
:400A4000A2F17F02BCFA8CFCB2FA82F24FEA5C1C5209814288BF6246002AE9D1814200F0A48502065ABF421CD2B20122224948BF00242A70214A0F551278900702D5204AFF
:400A8000022111600DF12D027245CED165E6A378E178312043EA012109B28BB2FF2B94BFC9B2FF21A38004F0BFF9FFF71CBB00BFC780FF1F004E0040D1370020587600006C
:400AC0005076000048760000D4370020005B00403D510040B035002094350020963500207381FF1F7481FF1F9C37002018370020193700201A3700201C3700206B6500401A
:400B000000E200E0012004F0C1FC3B2004F0BEFC794B00931B78002B3FF4E5AADFF8FCE1764D774B1EF8017B287819780446C9B201F1FF3C421AC0EB0C0CA2F17F02BCFA6A
:400B40008CFCB2FA82F24FEA5C1C5209814288BF6246002AE9D1814200F01E8502065ABF421CD2B20122674948BF00242A70664A0F551278900702D5644A02211160644A3E
:400B80007245CFD1009AAB21C3208DF82810127871218DF829008DF82A100B20B9218DF82B008DF82C10002A3FF49DAA0DF1280E1EF8017B287819780446C9B201F1FF3C4C
:400BC000421AC0EB0C0CA2F17F02BCFA8CFCB2FA82F24FEA5C1C5209884238BF6246002AE9D1884200F0C68402065ABF421CD2B20122444948BF00242A70434A0F55127814
:400C0000900702D5414A022111600DF12D027245CED1FFF768BA3F4B4FF448721A60FFF762BAA3783A20003318BF01232374217C04F0FAF8237C002B00F0DA8504F050FB64
:400C4000012004F027FAFFF74EBA392004F01EFC294BAB21C2221B788DF828108DF82920B42177228DF82B608DF82A108DF82C20002B34D0214D224B0DF1280E1EF8017BB9
:400C8000287819780446C9B201F1FF3C421AC0EB0C0CA2F17F02BCFA8CFCB2FA82F24FEA5C1C5209814288BF6246002AE9D1814200F0698402065ABF421CD2B201221149BE
:400CC00048BF00242A70104A0F551278900702D50E4A022111600DF12D027245CED104F0FFFA002004F0D6F90B4B1B78022B7FF439ADFFF7F8B900BF183700201937002086
:400D00001A3700201C3700206B65004000E200E048710000A03500209C37002044710000AD4DAE4C2878297B2A7E95F8243024788DF81C008DF81D108DF81E208DF81F3060
:400D4000002C00F00585A64C2478032C40F211872C7A002C00F0FC842C7D002C00F0F88495F82040002C00F0F38495F82C40002C00F0EE849B4C2478082C2546009400F214
:400D8000F8868DF8302004228DF82C204FF6FF7200248DF82E008DF82F10CA2002218DF831300F238DF82A408DF832408DF833408DF834408DF835408DF836408DF83740AB
:400DC0008DF828008DF82B508DF829108DF82D300AA80DF1360410F8013B510881F404455A4012F0010F85F0080518BF29464A0882F4044581EA530111F0010F85F008058A
:400E000014BF294611464A0882F4044581EA930111F0010F85F0080514BF294611464A0882F4044581EAD30111F0010F85F0080514BF294611464A0882F4044581EA1311C1
:400E400011F0010F85F0080514BF294611464A0882F4044581EA531111F0010F85F0080514BF294611464A0882F4044581EA931111F0010F85F008050CBF114629464A08A4
:400E800081EAD31382F4044113F0010F81F0080118BF0A46A0429ED1D243C2F3072343EA0222C2F307238DF836208DF8373005F007FE4D494D4A0B784D4D43F008030B7039
:400EC000137843F00803137005F0FEFD05F0F8FD2B780146002B00F0C38605F0F5FD05F0EFFD4149414A0B7843F008030B70137843F00803137005F0E7FD05F0E1FD2C78C9
:400F000001463B4A002C00F0F98605F0DDFD0024742300F01EBCA378364D003318BF01232B702B78002B40F0C4852B78324A003318BF012313702B780BB1002363822B786E
:400F40002E4ADBB283F075018DF82B301278AB238DF82C108DF82830C221B7238DF829108DF82A30002A3FF4F8AB254D254B0DF1280E1EF8017B287819780446C9B201F1C3
:400F8000FF3C421AC0EB0C0CA2F17F02BCFA8CFCB2FA82F24FEA5C1C5209884238BF6246002AE9D1884200F0DD8202065ABF421CD2B20122144948BF00242A70134A0F55EA
:400FC0001278900702D5124A022111600DF12D027245CED1FFF7C1BBA03700207081FF1FD0370020C980FF1FA0430040B0430040D53700207181FF1F796400401837002062
:40100000193700201A3700201C3700206B65004000E200E07B4B1A781C4602F0FF03002A00F055842178122003F0FEFE764BAB22C2218DF828201B78B5228DF829108DF844
:401040002A20002177228DF82B108DF82C20002B3FF483AB6D4D6E4B0DF1280E1EF8017B287819780446C9B201F1FF3C421AC0EB0C0CA2F17F02BCFA8CFCB2FA82F24FEA29
:401080005C1C5209884238BF6246002AE9D1884200F03C8302065ABF421CD2B201225D4948BF00242A705C4A0F551278940702D55A4A022111600DF12D027245CED1FFF74F
:4010C0004CBB504B1220197803F0AEFE4E4BAB22C2218DF828201B78B5228DF829108DF82A20002177228DF82B108DF82C20002B3EF4F9AF454D464B0DF1280E1EF8017BA6
:40110000287819780446C9B201F1FF3C421AC0EB0C0CA2F17F02BCFA8CFCB2FA82F24FEA5C1C5209814288BF6246002AE9D1814200F0668202065ABF421CD2B2012235491A
:4011400048BF00242A70344A0F551278900702D5324A022111600DF12D027245CED1FEF7C2BF6178122003F05FFE6378264ADBB2127883F0C204AB208DF82A30C221002321
:401180008DF82C408DF828008DF829108DF82B30002A3EF4A8AF1D4D1D4B0DF1280E1EF8017B287819780446C9B201F1FF3C421AC0EB0C0CA2F17F02BCFA8CFCB2FA82F2F4
:4011C0004FEA5C1C5209814288BF6246002AE9D1814200F00D8202065ABF421CD2B201220C4948BF00242A700B4A0F551278900702D50A4A022111600DF12D027245CED1AF
:40120000FEF771BF9C37002018370020193700201A3700201C3700206B65004000E200E03B2004F033F96C4B00931B78002B3EF45AAFDFF8C4E1694D694B1EF8017B28782B
:4012400019780446C9B201F1FF3C421AC0EB0C0CA2F17F02BCFA8CFCB2FA82F24FEA5C1C5209814288BF6246002AE9D1814200F0B78102065ABF421CD2B20122594948BFFE
:4012800000242A70584A0F551278900702D5574A02211160564A7245CFD1009AAB21C3208DF82810127871218DF829008DF82A100B20B9218DF82B008DF82C10002A3EF4E5
:4012C00012AF0DF1280E1EF8017B287819780446C9B201F1FF3C421AC0EB0C0CA2F17F02BCFA8CFCB2FA82F24FEA5C1C5209814288BF6246002AE9D1814200F09181020644
:401300005ABF421CD2B20122364948BF00242A70354A0F551278900702D5344A022111600DF12D029645CED1FEF7DDBE314B1220197803F079FD284BAB22C2218DF828208F
:401340001B78B8228DF829108DF82A2000217A228DF82B108DF82C20002B3EF4C4AE1F4D1F4B0DF1280E1EF8017B287819780446C9B201F1FF3C421AC0EB0C0CA2F17F0264
:40138000BCFA8CFCB2FA82F24FEA5C1C5209814288BF6246002AE9D1814200F0398102065ABF421CD2B201220E4948BF00242A700D4A0F551278900702D50C4A02211160E1
:4013C0000DF12D027245CED1FEF78DBE6178122003F02AFDFEF787BE18370020193700201A3700201C3700206B65004000E200E0487100009C370020447100009D4B1B785A
:4014000003F00303012B40F23D83022B00F04283994B9A4A1B8812889BB243EA02433A7812B1974A00211170964997480A7802F0FE020A7002780393012A00F082811C46BB
:40144000190E924B1B68B3B12E2098478F4BC4F307411B687BB12E2098478C4B1B6853B1C4F307212E209847884B9DF80C101B680BB12E209847019B029A01330C32042B6C
:40148000019305F1140502927EF4DBAF04F0F0FA009B1878FF2800F07C8303283ED004287B4B1ED806FA00F11A78C9B2114219D0784C22EA010254F8204077491A7022781C
:4014C0000D5C764922EA0502095C75482270425C013AD2B2425422B972490A7822F008020A701A780098FF210170110713D442F008026D491A700A78694B62F07F020A70A3
:401500001A7832B991F8C32942F0080281F8C3291A7801321A70009A03231370049B634C1B781BB104F08AF90023237004F086FB544A5F49137803F0FE0313700B7802F575
:40154000B352003302F1190218BF01231370FFF704B9584A127851073FF5EAA8564A1770FFF7F7B8534A127851073FF51EAD524A17702BE54F4A127851073FF535AB4E4A06
:401580001770FFF742BB4B4A127851073FF592AB494A1770FFF79FBB464A127851073FF5DDAA454A1770FFF7EABA424A127851073FF557AA404A1770FFF764BA3D4A1278A9
:4015C00051073FF517A93C4A1770FFF724B9394A127851073FF559A9374A1770FFF766B9344A127851073FF544AE334A177051E6304A127851073FF5EEAD2F4A1770FBE53B
:401600002C4A127851073FF595AD2B4A1770A2E5284A127851073FF5C2AE274A1770CFE6244A127851073FF56AAE234A177077E66A7BA97B214B02988A42C05C02EB0103DF
:4016400076D9521A99B2FF29D4B275D8A042FEF410AFDBB2834228BF03461C46FEF709BF144A127851073EF5C6AE134A1770FEF7D3BE00BF144E0040104E0040124E004045
:4016800009380020004E0040CA80FF1FAC350020D1370020587600005076000048760000D4370020005B00403D510040B03500207181FF1F6B6500404B650040A0370020B8
:4016C0009B4A1378D90613D523F010031370994B98491B78984A03F07F030B701378013BDBB2137023B9954A137823F008031370049A00231370FEF722BF194690481C466F
:40170000037803F0FE03037003919AE68D4A127851073FF5BFAC8C4A1770CCE499B2FF2940F2FF800024944238BF1446FEF7A1BE9AB2FF2A8DD90024844238BF0446FEF790
:4017400098BE002BB8BF1F335C110394210E78E674237E4AAB2012788DF82C30C221B6238DF82B408DF828008DF829108DF82A30002A3EF4F2AF764D764B0DF1280E1EF838
:40178000017B287819780446C9B201F1FF3C421AC0EB0C0CA2F17F02BCFA8CFCB2FA82F24FEA5C1C5209814288BF6246002AE9D1814216D001065ABF421CD2B201226649DA
:4017C00048BF00242A705F4A0F551278920702D5624A022111600DF12D027245CFD1FEF7BCBF584A12785207E4D4574A1770F2E7534A5B4F137803F0FE03137003F070FD02
:40180000584A59481378594903F0FE031370037803F0FE0303700B784FF47A7003F0FE030B70534938800878C0BB137842F20F75DFF860E103F0010313709EF8003003F0E3
:40184000FC038EF8003092F800E04A4B4EF0040E82F800E093F800E00EF0CF0E83F800E093F800E04EF0300E83F800E093F800E00EF0F00E83F800E093F800E04EF00F0E9F
:4018800083F800E05378DFF810E143F001035370394B3D80AEF8005018700E70324A3349137843F0010313700B7843F001030B7092F85D3B314943F0010382F85D3B304A32
:4018C0000023E38023720B701370FEF70CBC2D4A2D4913802D4D294A01200B802B70137003F0D4FD102003F0D1FD294B5B78002B00F04281112003F0C9FDAB23C2228DF8E0
:401900002830B5238DF829208DF82A30002277230AA88DF82B208DF82C3003F071FDFEF71CBFDBB29A4228BF1A461446FEF7A1BDD13700201D510040D4370020005B004081
:40194000004E00406B6500404B65004018370020193700201A3700201C37002000E200E0044F0040004F0040A3430040B3430040183800200B4F0040034F00407381FF1F28
:401980009C37002094350020963500207081FF1FB4350020024F0040064F00401978122003F042FA904BAB22C2218DF828201B78B8228DF829108DF82A2000217A228DF89C
:4019C0002B108DF82C20002B3EF4C7AE874D884B0DF1280E1EF8017B287819780446C9B201F1FF3C421AC0EB0C0CA2F17F02BCFA8CFCB2FA82F24FEA5C1C5209884238BF1B
:401A00006246002AE9D1884216D002065ABF421CD2B20122774948BF00242A70764A0F551278900702D5754A022111600DF12D027245CFD1FEF791BE6F4A12785107E4D435
:401A40006F4A1770F2E76F4CFEF73EBE6E4A1378D80612D523F010036C4913700B786C4A03F07F030B701378013BDBB2137023B9684A137823F008031370049A002313703D
:401A8000FEF797BF644B1A88023B1B889BB243EA0243C4E4604B614A61491B8809781278120242EA03430B43B9E4574B1A78FEF761BF5C4A5C4F13785C4943F01003137091
:401AC00097F800E03A785A4B3F2002F0FE023A7008704FF40072187056495FFA8EF35648009305F0F1F94FF400725449544805F0EBF94F4B534A0020F82118701170009B0C
:401B0000DB0703D53B7843F001033B70454A464F1378464943F01003137097F800E03A78434B3F2002F0FE023A7008704FF40072187040495FFA8EF33F48009305F0C4F9C1
:401B40003B4B404A0020F82118701170009BD80703D53B7843F001033B7004F0B1FF3A4B00221A7004F0B0FF384B10221A60FFF7DCB974230024ECE502F006FB02280BD076
:401B800000283FF4B7AE324A032316702370FEF7E4BD1D4B1A78A8E42E7004F0C3FA2D4B4FF47A721A8004F0D3FA2B4B2B4A1B780121003318BF01231370112003F034F99B
:401BC000AB23C221B5228DF828300AA876238DF82B608DF829108DF82A208DF82C3003F00FFCFEF7BABD00BF18370020193700201A3700201C3700206B65004000E200E0F9
:401C00004B650040C980FF1FD13700201D510040D4370020005B0040124E0040114E0040104E0040A643004080C7004088C700408CC70040D871000000C00040BC76000087
:401C400000C2004084C700406881FF1F80E200E07281FF1F044F00407181FF1F79640040844B2E701A68D00740F101811A6822F001021A6000BF00BF00BF7F4F3E6008463C
:401C800004F022FF7D4B1A78900740F1EE807C4AB6211170E0200D21107011701A78910706D41C46182004F003FF23789B07F9D5724B1A78920703D51C78A40800F0C6805D
:401CC000072404F0FDFE3A680021012A034629707FF403A967490A6842F001020A6000BF00BF00BF002218463A6004F0EDFE002C7FF4F5A803F0F6FDFFF7F1B85D4B1670F5
:401D00001A68D00740F1AF801A6822F001021A6000BF00BF00BF584F3E60084604F0D4FE564A1378990740F19C80554BB6211970D5200221187019701178890700F19180E7
:401D4000402119709DF82800114618709DF829201A709DF82A201A709DF82B201A709DF82C201A709DF82D201A709DF82E201A709DF82F201A709DF830201A709DF831209B
:401D80001A709DF832201A709DF833201A709DF834201A709DF835201A709DF836201A709DF837201A700B78344A9807FBD513789B0756D513789B0853D13249137891F83B
:401DC00000C049789B0701914BD52D4BD82005214FF0B60E83F800E018701970117801F0020101F0FF0000293BD14021197018709DF80010197083F800C09DF8041019705A
:401E000011781E4B8807FBD51A78910729D51B789B080BBF0124002475237423009304F04FFE3A680021012A2970134F009B08D1104D2A6842F001022A6000BF00BF00BF95
:401E40003960009304F040FE009B82E404F038FE3A680346012A2C703FF43CAF04F034FE48E77423DAE7044F57E7042429E7024F05E700BF04000840D83700202247004073
:401E800020470040DC3700202DE9F04FA74DA9B02B78032B00F078812B78022B00F0C980DFF88C92DFF89C82A149B8F80020B9F8003092B29BB29A4280F09A80B8F8003087
:401EC0009BB2002B00F02581DFF8ACA2B8F80030BAF80C609BB25A24AB2204FB03A4310A1E238DF840208DF841308DF842608DF843100DF147020023581C991CE518204429
:401F000021442D7C0333007C097C5A2B02F8020C02F8035C02F8011C02F10302ECD1002210AB27A853F8041B834282EA0102F9D19DF89D109DF89C307E484B405340C2F35A
:401F400007215940C2F307434B400178013683EA1262AAF80C608DF89E20002936D0764F764DDFF818B2DFF818C20DF13F060DF19E0A16F8014F39782A780846D2B202F1CC
:401F8000FF3E8B1AC1EB0E0EA3F17F03BEFA8EFEB3FA83F34FEA5E1E5B098A4288BF7346002BE9D18A423DD00A0659BF0131C9B2012100200BF8004039709CF800309B07EE
:401FC00002D55F4B02221A605645D2D1B8F800305C4901339BB2A8F80030B8F80020B9F8003092B29BB29A4210D229B0BDE8F08F554B93F8602A22B1002283F8602A83F887
:40200000612A29B0BDE8F04FFEF762B80B889BB2FF2B00F28880D9B2382029B0BDE8F04F02F002BF9CF800305B07BDD4474B1C70CAE7DFF844A19AF80B30002BD5D0444A85
:4020400044481378444903F0FE0313700378A2F64D2203F0FE0303700B78404C03F0FE030B7013784FF47A7603F0FE033C49137026800A786ABB037842F20F76394F03F028
:40208000010303703B78DFF8FCE003F0FC033B700778354B47F0040707701878334F00F0CF001870187840F030001870187800F0F0001870187840F00F0018703B782C48A7
:4020C00043F001033B7001232680AEF8006002700B702148274903781E4A43F0010303700B78DFF84C9043F001030B701378362043F001031370B9F800309BB2FF2B94BFAD
:40210000D9B2FF2102F090FE00238AF80B302B70C8E60B8837209BB2FF2B94BFD9B2FF2102F082FED0E6FF2176E700BF9C3700209635002018370020193700201A3700205A
:4021400000E200E094350020182B00204B650040004E0040004F0040A3430040044F004018380020024F00400B4F0040014F0040034F0040B34300406881FF1F1C3700201E
:402180006B650040064F0040B74B5B78002B3FF438AF04F095FCB54B1C6804F095FC49F63F42B14B9B68E31A9342AF4B16D8DB68E31A312B07D9AE4BAB4A1B68D46013B174
:4021C00011791A209847AB4C2378032B3FF619AFDFE813F02A0300037A0141001C79032C00F2DE85DFF8C8B2DFF8C8924FF000081AE088B2FF2800F2BA84BA4225D2234402
:402200000BEB83031B693846984704EB44020134E4B209EB8203042C09F82270C3F8048083F8088000F0B084A30019190BEB81014A7B887B1118171A82421FFA81FEFFB223
:40224000D7D8BEF1FF0F00F29184C9B28A4228BF0A461746D3E7844BDFF844A21F7904F02FFC9AF80030002B00F02C854FF00009DAF804808AF8009004F026FC238BC4F855
:402280002C90C4F808807B4A002B40F0F884BB00DFF81CB2DA190BEB82029168226AC8EB01010029B8BF49429142DFF8C8E107DA88EAE872A2EBE872B2F5802F40F331852A
:4022C0003B440BEB83031B6994F82400984794F82400E369014684F82A001A4694F82600A36004F017FB00283FF48BAE5E4B624ADC780023E11A18BF01218AF808102B7043
:4023000013785E4903F0FE0313700B785C4803F0FE030B7003785B4E03F0FE034FF47A75594903703580087868BB137842F20F75564F03F0010313703B78DFF87CE103F06B
:40234000FC033B701778524B47F0040717701A78504F02F0CF021A701A7842F030021A701A7802F0F0021A701A7842F00F021A703B78494A43F001033B7001233580AEF8BA
:40238000005010700B703D483D4903783A4A43F0010303700B78414D43F001030B701378214643F0010313709AF809301120003318BF01232B7002F037FD9AF80A30384D73
:4023C000002B3FF41EAE374B84F077071B780026AB20C221B5228DF843408DF84470AE728DF840008DF841108DF84220002B3FF408AE2D4F2D4DDFF8C490DFF8C4C0DFF8B7
:40240000C4B010AE0DF145084FF0020A16F8014B39782A780846D2B202F1FF3E8B1AC1EB0E0EA3F17F03BEFA8EFEB3FA83F34FEA5E1E5B098A4288BF7346002BE9D18A42A5
:4024400000F09A830B0659BF4B1CDBB20123002009F800403B709CF800309A0748BFCBF800A0B045D2D1CCE5B4350020C4350020AC350020C8350020004F0040A3430040F5
:40248000B3430040044F004018380020024F00400B4F0040014F0040034F0040796400406881FF1F18370020193700201A370020E0750000A0370020064F00401C370020CE
:4024C0006B65004000E200E0B34BDFF8E8A21B791E4604F0F5FA9AF8003003F0FF07002B00F06283B200069616464FF00008DAF804700C928AF8008004F0E6FA069BDFF8F2
:40250000B8B2F3180BEB83039B68A448DB1B83FB0001002871F10003C4F82C80A760C0F2698410F1FF5041F100014FF07F52002304F002FB0A90984B1879002800F0258435
:40254000974B41F28732194601EB401000690621002801900593B8BF40420023C1FB00231046194641F28832002304F0E5FA002800F0508401280246B8BF01220A9F3B465D
:40258000B946002FB8BF7B428342D8BF4FF000099342CDF82C9040F33E839B1A013B93FBF2F3002F03F10103C0F2308407930C9B069A9A180BEB8202517B937B94F82A201D
:4025C0009942089240F20283CA1AD2B2174604920B449AB2FF2A94BFDBB2FF230D93019B23B10B9B002B40F0378463601A460699089849010991B84207DB0D9F8742C0F279
:402600003B830746C3B204930123089A511CB94202F1FF3280F28083CAB2049273B1019B63B10B9951B162685E4B0A449A42B8BF1A465D4B9342A8BF13466360099A059B79
:402640001344B3F8149094F8273009F1FF32B2F5805F28BF4FF48059544A23B1136907998B4200F0B4830123E3820A99A38A0122E160079913449BB221619DF8101093428E
:4026800084F82810A38284F8272002D013F0FF0F6ED1474F3B68002B00F0A683089913209847A3681E463B68310E002B00F09C831D2098473B68C6F30741002B00F09483AF
:4026C0001D2098473B68C6F30721002B00F08C831D2098473B68F1B2002B00F085831D2098470A9E3B68310E002B00F07D83412098473B68C6F30741002B00F07583412072
:4027000098473B68C6F30721002B00F06D83412098473B68F1B2002B00F0668341209847079E3B68310E002B00F05E83422098473B68C6F30741002B00F0568342209847C4
:402740003B68C6F30721002B00F04E83422098473B68F1B2002B00F0478342209847E38A3A68FF2B00F2BF82D9B20AB143209047069A0C9B049813440BEB83031B6984F89A
:402780002A009847E28A094B4A45C0F0B082079A002A40F0AA8211E0B4350020787413004871000000EE85FF00127A00C8350020AC3500206881FF1FE07500009B68002B60
:4027C000B8BF5B42B3F5802F00F38F82012002F09FF888E5DFF84CA004F072F99AF8003003F0FF07002B00F0DF810025DAF804608AF8005004F068F9238BE562A660084A2C
:40280000002B40F04482002302226360A382E38284F82730E36023612270FFF7F2BB00BFC83500206881FF1FB34FB44B3D6893F80490002D00F0F2814FEA89031E46494624
:402840001520A8473346DFF804B34B440BEB8303D3F808803D684FEA1861A5B12A20A8473D68C8F3074175B12A20A8473D68C8F3072145B12A20A8473D685FFA88F115B1EE
:402880002A20A8473D689D4B1979002900F00D829B4B41F28732184600EB4111D1F81080059388EAE8700621A0EBE8700023C1FB00231046194641F28832002304F03CF9F6
:4028C000424682464FEA1861BAF1000F019208BF4FF0010A002D00F0E3813F20A847019A3D68C2F30741002D00F029823F20A847814B019A1D68C2F30721002D00F0D0811F
:402900003F20A8477C4B5FFA88F11A68002A00F016823F209047784BBAF1FF0F1D6800F3BD815FFA8AF10DB14020A847059B754A03EB4913D98A714B12781B7900209A4251
:4029400021836060A082E08284F82700E060206184F82800A060E062E061206284F8240084F8250084F8260000F2388103EB83030BEB8303597B9A7B914201EB020340F205
:4029800028819DB28A1AFF2DD0B200F271818142DBB203D3994228BF1946084633464B440BEB830684F8290084F82A003569A84703F05EF8544A31791678FF2E2CD0B142BA
:4029C00053D00123B340042EDBB223D8DFF84CC19CF8000003421DD0DFF874E120EA03035EF826E049488CF800309EF8003010F806C0474823EA0C03805D464E8EF80030F6
:402A0000335C013BDBB2335423B94348037823F008030370FF231370FF2926D001238B400429DBB220D83D4E307803421CD1DFF820E103435EF821E0344833709EF80060F1
:402A4000435C33483343465C32488EF80030835D43B9DFF8C4E09EF8003043F008038EF80030835D0133835511702D4A1378002B00F0E3803B68204E33B11920984733684E
:402A800013B104214420984703F0D8F894F82A00A847244B244A012119701378234D43F0100313702E782B782149224F03F0FE033F202B704FF4007208701F4938701F4880
:402AC00004F002FAF6B200211D4B3970F822F1071A7003D52B7843F001032B7003F0F0FF184B00221A7003F0EFFF228B164B002A4FF010002EE000BFAC350020B4350020F3
:402B000048710000D0370020C780FF1F5076000048760000D4370020005B0040D1370020B035002079640040A643004080C7004088C700408CC70040D871000000C00040A1
:402B400084C700406881FF1F80E200E0E075000058760000B14A1860137814BF0121022143F0010313702170FFF74BBA0027974238BF1746FFF743BB9CF800305A073FF561
:402B800061ACA74B1C706CE4A64B1979A64BA5481B680022C2700BB11B20984703F082FDDFF8B0A2FFF7A2BB03F08EFFE36A9F4A01339342E3629E497FF623AA8A683846A1
:402BC00091F82A1003F0A6FEFFF78DBB00270497FEE49AB2FF2A4BD8DBB2DBE603EB83010BEB81014A7B897B924D03EB43038A4215F8235002EB01031AD9521A99B2FF29DE
:402C0000D0B211D88542DBB2FFF4C8AE9D42284628BF1846C2E600230793C8E44FEA8903DFF828B21E462EE6A84238BF2846B5E69AB2FF2AF8D8DBB2E8E77F480378DE062A
:402C400013D443F010037D4E037033787C4863F07F033370037833B996F8E33943F0080386F8E3390378013303700123137001E7884238BF084691E613460497C5E4013B09
:402C80009BB21383002B7FF4BCA9FFF700BB013B9BB21383002B7FF4B4A9B4E5FF2142E6BAF1FF0F7FF73DAE40E6664B1B78013BDBB2072B51D908460A468846624B8246F8
:402CC000059301E603F000FFE36A584A01339342E362574C7FF695A95C4B07EB870703EB8703FFF7F0BAFF213FE5019B6BB3099A059BA18A13441A8B4D4B9142FFF481A9A1
:402D0000079AD2B998680028B8BF4042B0F5802FCCBF002001205AE5BA42C4BFD2B204927CE49EF82530424619469EF826008EF82A3003F0EFFDFFF7D6BA002047E5BAF124
:402D4000FF0F3FF7F3AD0025EBE51846A26894F82A1003F0DFFDFFF7C6BA41F287303C4A002132F813800623C8F57A7888EAE872A2EBE872C3FB020141F28832002303F06A
:402D8000DBFE42464FEA186198E72E4B1B78013BDBB2072B06D901902B4B0593FFF7E7BB2146F3E641F28730294A002132F813800623C8F57A72002A0192B8BF5242C3FB91
:402DC000020141F28832002303F0B6FEE4E7089B04998B427FF447AC4FF6FF71D38A8B421CBF0133D38240E4E38AFF2B3FF6C0AC0022B9E4B0F1FF5041F1FF314FF07F521B
:402E0000002303F099FE0A90FFF795BB5B420793FFF7CDBB01200246FFF7B0BB004E00404B650040B4350020AC3500207F841E00C8350020A0370020D13700201D510040F3
:402E4000D4370020C880FF1F48710000E0750000C87100006881FF1F069B05985B0119460993C3185A684158002A00F01F8190464FEAE279019B0B98002BA8BF9C4680FB56
:402E80000101CDE90201039EB8BFC3F1000C4FEA860E029EB8BF4FF0FF334FEA8600A8BF01234EEA967142010E934B01121A43EAD06363EB0103DDE9020180185941CDE9E2
:402EC00002016146039B0CFB09F0CA17D900029B08FB020041EA5371DB000293ACFB08230344039152EA030100F0DB80002A73F10001C0F2C78059104FEA32004FF0000EEE
:402F0000DDE90289BEEBD97F00F0B380B8EB000869EB01094046494603F00EFE0E99099A059B00FB01F11344DA680F9198686168002A00F0998090464FEAE279019B81FB71
:402F40000001002BA8BF9C46CDE90201039EB8BFC3F1000C4FEA860E029EB8BF4FF0FF334FEA8600A8BF01234EEA967142010E934B01121A43EAD06363EB0103DDE9020196
:402F800080185941CDE902016146039B0CFB09F0CA17D900029B08FB020041EA5371DB000293ACFB08230344039152EA030156D0002A73F1000143DB59104FEA32004FF053
:402FC000000EDDE90289BEEBD97F30D0B8EB000869EB01094046494603F0AEFD0F9A0E9B069900FB03230C9A94F829000A440BEB820292F90C2002FB03008AB10B9B002BBD
:40300000D5BF0021012101230023002A02DB1A460B461146019A002A05DB0A46FFF7EBBA1346FFF7E8BA1A460B46FFF7E4BA18EB000849EB01094046494603F07DFDCDE71E
:403040004FEAD37E12EB0E0043F1000149104FEA300040424FF0010E61EB4101B1E71046194601220023AAE7012200239046994664E718EB000849EB01094046494603F0AB
:403080005BFD4BE74FEAD37E12EB0E0043F1000149104FEA300040424FF0010E61EB41012EE7104619460122002327E70122002390469946DEE600BF2DE9884862B6B24B05
:4030C0001978002900F0EB8703F0FAFCAF49B04D0B78B04A43F020030B702B78012443F010032B70146091F80331AB4E43F0100381F803310225A1F5035135603639156038
:403100000B78A64A43F004030B701378A44E43F00403137003F0D8FCA24BA34A20461A6002F0B4F903F0CCFCA049A14A0B7843F008030B70137843F00803137003F0C4FC43
:4031400003F0BEFC33780146002B00F0618703F0BBFC03F0B5FC9549954A0B78954C43F008030B701378C82543F00803137025700B7B43F010030B73137B01F5587143F0ED
:40318000100313730B789C06FCD58B4C03F09CFC8A488B492378012202700D784BB9894B22701A7802F0FC021A701A7842F003021A70854885490378854A43F0600303700C
:4031C0000B78667843F004030B7013787A4843F004031370002E00F0F5867E4A7E481378794943F0020313700378A27843F0020303700B78704F43F080030B70002A00F0B3
:40320000CB86744A744813786F4943F0040313700378E27843F0040303700B78664F43F080030B70002A00F0A1866A486A490378654A43F0080303700B7843F008030B701B
:40324000137843F08003137002F034FB02F01AFB2379594943B9614A01201378087103F0CF0343F0300313706379534943B95C4A01201378487103F0CF0343F0300313707D
:40328000A2794D4F002A00F05A865248524903784D4A43F0010303700B78524E43F001030B701378284643F080031370357002F0A1FBE379404953B94B4B01201A78C871BF
:4032C00002F0FC021A701A7842F003021A703E483E4903783E4A43F0600303700B78207A43F001030B701378334943F00103137050B93E4B01201A78087202F0FC021A701F
:403300001A7842F003021A702F4830490378304A43F0600303700B78607A43F002030B701378254943F00203137050B9304B01201A78487202F0FC021A701A7842F0030254
:403340001A70214821490378214A43F0600303700B78284E43F008030B70137843F0080313703378D90740F1E78523F00103224A33701378214D03F07F0313702B78013BE5
:40338000DBB22B703CE000BF18370020986400409865004000E100E080E200E0B2430040D5370020AC350020294E0000A0430040B0430040014700407C3500209D370020A3
:4033C000C980FF1F5C58004077580040A4430040B4430040A9430040B9430040785800407A580040C880FF1F585800405A5800405E580040D1370020585B0040D4370020F7
:403400002BB912F8583C23F0080302F8583C3378B6499A0712D523F00203B54A0B70137823F0080313702B78013BDBB22B702BB992F8033923F0080382F803393378AB494A
:403440005F0712D523F00403AA4A0B70137823F0400313702B78013BDBB22B702BB992F8C33923F0080382F8C33933789F49180712D523F008039F4A0B70137803F07F03F2
:4034800013702B78013BDBB22B702BB992F8C33923F0080382F8C33933789449DA0612D523F01003944A0B70137803F07F0313702B78013BDBB22B702BB992F8E33923F08F
:4034C000080382F8E3398D4FDFF83C82FF2200233A7088F8003002F0CBFA3A78FF2A00F02885032A3ED001239340042AD9B2337820D819427D481DD0DFF86CE223EA01031C
:403500005EF82210DFF864E203700B781EF802C0DFF85CE223EA0C031EF802200B70AB5C013BDBB2AB5423B9754A137823F00803137003781A0713D443F008036D4A337083
:403540001378704963F07F0313702B7833B992F8C33943F0080382F8C3390B7801332B7003233B7098F80030674D002B40F0DB8402F064FB6549A27A0B78654803F0FE0356
:403580000B70002A00F0AC84624A63491378634D43F0010313700B78E27A43F001039C260B705B482E70002A00F07484594A5A4913785B4D43F0040313700B78227B43F0CA
:4035C00004039C260B7052482E70002A00F03C84504A51491378534D43F0080313700B78627B43F008039C260B7049482E70002A00F07F834749484A0B784B4843F00203BF
:403600000B701378494E43F002039C21484F137006F1300B01704FF0000A4FF001097A7BB97B8B18551A8A4298B2EDB240F2258399B2FF2900F22483AA4280F025833B692B
:40364000284698470C3606F80C5C46F808AC06F8049CB34507F114074FF00108DFD1354B04221A7001F076FFA77BDFF8A4A0002F00F06483304B31481A78314D42F01002A1
:403680001A7002782F4942F0100202702A782E4F42F001022A701A783F2042F010021A702E782B784FF4007203F0FE032B70087026493870264803F007FC4FF40072254988
:4036C000254803F001FC254BF6B20021F82239701A70F30703D52B7843F001032B7041F6FF721F4E1F4D330C44E000BFD1370020FD5100403D5100401D510040C780FF1F66
:40370000005B0040D4370020B0350020004E00407C350020A8430040B8430040805B0040825B0040835B0040815B0040A0370020E0750000D0370020A6430040B6430040B2
:4037400080C7004088C700408CC70040D871000000C00040BC76000000C2004084C700408C350020C480FF1F587600005076000048760000934214BF1A464FF40052C84B53
:4037800000204FF48041832728701F7058709870D8709980DA8002F041F802F033FD070602460ED444F61061C30003F1804303F5F04303201880B6B207209A70D870998000
:4037C000DE802878172803D8B64B01010B445A7202F012F8B44B00224FF48041022083261E7068705A709A70DA709980D98002F015F802F007FD024610060ED444F61066CC
:403800004CF2A070D30003F1804303F5F043032119809A70D9709E80D8806878172803D8A04B01010B445A7201F0E6FF41F6FF719E4E9F4B320C8A4208BF4FF4005283279A
:403840001F70012100204FF4804759709870D8709F800846DA80A97001F0E0FF02F0D2FC010602460ED44CF2A871C30003F1804303F5F04303201880B6B207209A70D8701B
:403880009980DE80A878172803D8864B01010B445A7201F0B1FF874B00221A7001F020FD022001F0F3FD844884490368844A0827DFF840C20F60DA64824BE0228CF800203F
:4038C000814D1F60076810260E603D658CF801207E4D1E60DFF82092066840270F60B56589F80020DFF814821F60794D07682026DFF80CE20E60C7F854802A701E609EF875
:403900000050744F45F008058EF800503D78D0F800C0DFF8F0810EF1A02E0EF1600E0420A9F5C37945F008053D70C9F800000860CCF848808EF80020186002F0F3FB664B4C
:403940004FF47A721A80654DDFF8BCB102F000FC03F0B6F8DBF8008003F0B6F82B78304603F0FD0343F002032B70AA4601F08EFD45465B4FDFF89491E37D002B5DD101F0DF
:40398000C3FAFEF781FA03F09BF8DBF8006003F09BF8C8EB0603002BC0F25B81514B1B78002B34D0DFF868E10EF104084E4B1EF8015B19783A780846D2B202F1FF3C8B1AAA
:4039C000C1EB0C0CA3F17F03BCFA8CFCB3FA83F34FEA5C1C5B09914238BF6346002BE9D1914200F040810B06404A4CBF00204B1C15543D4A54BFDBB20123137099F8003076
:403A0000990702D53A4B02221A60C645CED19AF8003006F1460803F0FD0343F002038AF800309AF80030354603F0FD0343F002038AF80030E37D002BA1D0DFF8A080DFF87A
:403A4000C890052698F8003003F0FD0388F8003003F036F8DBF8005003F036F805F1080A03E001F051FAFEF70FFA03F029F8DBF8005003F029F8CAEB0505002DF1DB98F843
:403A8000003003F0FD0343F0020388F8003003F017F8D9F8005003F017F805F1080A3DE000760040107000401076004090350020087600407964004008ED00E080E100E09F
:403AC000D94C000000E100E0914B0000754A000005E400E0B2430040044F0040205100401A37002018370020193700201C37002000E200E003E400E006E400E07D5100001F
:403B0000A24300405D4A0000C43500206B6500404471000001F0F8F9FEF7B6F902F0D0FFDBF8005002F0D0FFCAEB0505002DF1DB013E16F0FF0685D1A54DDFF8FCA201F000
:403B4000E3F90028FBD1FEF79FF92B78A04E022BF5D0228B638B92B29BB29A42DFF87492EDD302F0ADFFDBF8008002F0ADFF33781BB9B9F81830B9F81A302B78002B40F0C0
:403B80008980228B638B92B29BB29A429149C0F08180CB6913B908F16403CB61C3EB0803002B3ADB8C4B08F164021B78E261002B33D0DFF888E20EF10409884B1EF8016B08
:403BC00019783A780846D2B202F1FF3C8B1AC1EB0C0CA3F17F03BCFA8CFCB3FA83F34FEA5C1C5B09914238BF6346002BE9D1914276D00B067A4B4CBF002001311E54774BB5
:403C000054BFC9B2012119709AF80030980702D5744B02221A60F145CFD12B786C4E022B3ED0236A6B4A002B3DD0B8EB030386D0516AC2F820808B4238D36B4B6A481B78E7
:403C4000002103F0FD0343F0020303705162916275E7761B3B2E0ED99AF8003003F0FD038AF8003088E699F800305A073FF5BBAE5E4B1D70C9E62E46D3E6FF2804D90025D3
:403C8000954238BF1546DAE4DBB2934228BF13461D46D4E40023E3612B784D4E022BC0D1C4F820804BE7C2F8208048E7906AC91A0344132B51621AD933780021022B9162F2
:403CC0003FF43DAF4A4B1A78013B1B7802F0020282F0020203F0FD031343434A13702EE79AF800305A0784D4404B1E7093E7936225E7404B01F5A3510D311A700A701A787D
:403D0000A1F5905102F0F3021A701A781C3942F004021A701A780125C2F3810202F19242063292F830214573D2B20A701A7802F0FD021A701A78D2B21A705BE42E482F4A97
:403D400003782F4943F0100303701378DFF8F09003F0FE033F20137008704FF48072294989F80000284803F0AFF84FF480722549264803F0A9F84FF480722549254803F08D
:403D8000A3F8254E4FF4007224492548254D03F09BF84FF400722449244803F095F80FCE0FC50FCE0FC50FCE0FC596E80F00DFF894E085E80F001E4E1E4BF82289F8007019
:403DC0008AF80E808EF8007086F800801A7051E49C3700207C35002018370020193700201C37002000E200E0205100404B6500402151004024580040A643004080C7004069
:403E000088C70040046F000000C4004000C500400470000000C6004004710000D871000000C0004000C70040D873000000C200409CC7004084C700406B65004044710000F8
:403E40008CC7004098C70040AE4B01F5A35115311A700A701A78A1F5915102F0F3021A701A78023942F004021A701A780125C2F3810202F19242063292F838210573D2B20B
:403E80000A701A7802F0FD021A701A78D2B21A70FFF79EBB9C4B01F5A35111311A700A701A78A1F5905102F0F3021A701A781F3942F004021A701A780125C2F3810202F16C
:403EC0009242063292F82821C572D2B20A701A7802F0FD021A701A78D2B21A70FFF766BB8A4B01251A7081F8212A1A78A1F5FF6102F0F3021A701A7842F004021A701A78C2
:403F00008572C2F3810202F19242063292F82021D2B20A701A7802F0FD021A701A78D2B21A70FFF731BB01F089FC00232B70FFF71FBB3378FFF7FEBA754DFFF768BA754B04
:403F4000754E0C2119703378744943F02003337002200A7001F04EFD3378012203F0FC0343F003033370BA71FFF78FB96C4B6D4E0C21197033786C4943F0200333700A708F
:403F800001F080FC3378012203F0FC0343F003033370FA70FFF749B9644B654E0C2119703378644943F0200333700A7001F082FC3378012203F0FC0343F003033370BA707E
:403FC000FFF71FB902F5A2525B4B10320C2111701978802641F02001197096709178012601F08001C9B2917091784670314391701A7802F0F3021A701A7842F00C021A70A9
:404000001A7802F0FC0242F003021A70FFF7E5B84A4B34701A68D00771D51A6822F001021A6000BF00BF00BF454D2C60084602F04BFD444B1A7891075FD5434A0D21B6245C
:40404000E0201470107011701A78910706D41C46182002F02DFD23789F07F9D5394B1A78920702D51C78A4083AD0072402F028FD2B680021012B024631707FF468A82F491C
:404080000B6843F001030B6000BF00BF00BF002310462B6002F018FD5CB3FFF75AB82B4A2B4E15682B4C2C48E0232E64237001702A48146872252A4A05702A4E2A49202004
:4040C00010702A4D2A4866640B700626472402212E700470D170274A01231370FEF7F4BF02F0EEFC2B680246012B3470C7D002F0EBFC01F0F7FBFFF72CB80424B6E7104D6F
:4041000094E700BF2C5800402858004020580040D43700200058004001580040025800400C5800400D5800400E58004008580040095800400A580040055800400400084058
:40414000D8370020224700402047004008ED00E0D55B000000E400E0E037002088640040886500406D5B000001E400E029640040396400401837002008B502F0A9FC036802
:404180000C2B00D0FEE7FEE72DE9F04F7D4B20221A6089B001F06CFC01F06AFC01F04EFD794A137803F0FE03137001F061FC774B1B78002B00F0D98275490A78002A38BFF1
:4041C0000022012B8DF81C2040F2D3820A7B002A38BF0022022B8DF81D2040F2C1820A7E6B49002A38BF0022032B8DF81E2040F2BA8291F82430002B38BF00238DF81F3029
:40420000644B1A6822B1002101209047614B1A685F49614B084604931F46604B0591042102930B4681465948002401940170012103919DF804105A4E9942DFF858A1DFF82E
:4042400088817B7BC0F09A81B87B834203EB000E40F2F5811FFA8EFC181ABCF1FF0FC5B200F2F281AB4280F09F81F2B115209047484BD7F808B01B684FEA1B61ABB12A2048
:404280009847DAF8003083B1CBF307412A209847DAF80030CBF307213BB12A209847DAF80030E1B20BB12A20984701F0E1FB3D4B1A783B79FF2A2AD0934248D0042A23D86F
:4042C0003948012191400478C9B221421CD0DFF8E8E024EA0101DFF8E4C05EF82240017020781CF802E0314920EA0E0E895C304884F800E0425C013AD2B2425422B92D4986
:404300000A7822F008020A702649FF220A70FF2B1DD0042B19D8244801229A400178D2B20A4212D1244C0A4354F82340234902702078CA5C1D490243C95C1D482270425C22
:40434000002A00F0188201324254164A1370114B1B79002B40F03B8101F070FC3B6928469847174802F0A4FB074B4EF660241A7802F0FE021A701978124A41F001011970C7
:404380002CE000BF80E100E0004E0040D0370020A0370020AC350020E07500004871000010380020C780FF1FD137002048760000D4370020005B0040587600005076000029
:4043C00080FC0A0009380020014E00401378013CDBB2A4B26BB9002C00F0F3803378002BF4D198F80030013C03F00103A4B2002BF1D0974B1B7803F00303012B40F29D812E
:40440000022B00F0A281934B934A1B8812889BB243EA0243327812B1904A00211170904990480A781C4602F0FE020A700278012A03D1002BB8BF1F335C11BB688A481B1B96
:4044400083FB0001002871F10003C0F2E58010F1FF5041F100014FF07F52002302F06CFB8346019B002B00F0CE8041F28730029B00211B69002BB8BF5B420622C2FB0301E8
:4044800041F28832002302F057FB002808BF0120BBF1000FB8BFCBF1000B834500F38E8084EAE47BABEBE47BBBF5802FCCBF4FF0000B4FF0010B6D4B89F800501B68C9F8C8
:4044C000044089F808B033B1294613209847DAF80030D9F80440B4F5004F6BDA14F5004F80F2DE81624C802153B3142098475F4BE1B21B6823B314209847DAF80030D9F879
:404500000440EBB1210E1D209847DAF80030C4F30741ABB11D209847DAF8003083B1C4F307211D209847DAF80030E1B243B11D209847DAF800301BB199F808101620984775
:40454000039ABBF1000F08BF0022019B0392029A01332032042B019307F1140709F10C09029200F09380434B9DF804101B783F4A9942BC6812687B7BBFF466AEBD7B99F8D9
:4045800000E0AB4203EB050051D91FFA80FC5B1BBCF1FF0FDDB24ED8AE45FFF466AEC5B2754528BF754660E65FFA8EF59D4228BF1D465AE67F2147F6FF7495E74FF0000B28
:4045C00079E7274A137803F0FE03137035E72A4A1378D80613D523F010031370274B27491B78274A03F07F030B701378013BDBB2137023B9234A137823F0080313701B4AD7
:4046000000231371A8E6204B5B78013BDBB2072B40F2D680019838E7B0F1FF5041F1FF314FF07F52002302F087FA834619E783B2FF2BB4D90025754538BF754615E61FFA7A
:404640008EF0FF28B0D900259D4238BF1D460CE6144E0040104E0040124E004009380020004E0040CA80FF1F78741300AC3500200080FFFFD0370020D13700201D5100400A
:40468000D4370020005B0040C780FF1F01F0F0F9854B1B78FF2B75D0032B36D0042B834971D8012098400A78C0B210421AD0804C22EA000254F823507E480A70C45C2A78E7
:4046C0007D4822EA0402C05C7C4C2A70235C013BDBB22354002B56D1794A137823F0080313700A7813070DD442F0080275480A700378724A63F07F0303701378002B6AD006
:4047000001331370684A032313706F4B1B79002B3BD101F093FA6D4A137803F0FE031370039B002B5ED068490123002202204A728B72CB7209B0BDE8F08F654B1A88023B39
:404740001B889BB243EA024364E6614B614A62491B8809781278120242EA03430B4359E69C238DF81E309C2348E59C225B498DF81C209C222EE5524C227842F00802227052
:40478000425CE0E549490A78ACE7484A1378D90612D523F01003524913700B78474A03F07F030B701378013BDBB2137023B9444A137823F008031370434A00231371A8E794
:4047C000484A41F2873002EB4303B3F880300021C3F57A734EE63A490B7843F008030B7013788DE71846404904221D46364B0A70354A98721873587301235372D37202F08D
:404800005FF9314B08AE9F6902F05EF92E4BDDF81090DDF8148007AC1F615F6114F8017BD9F8103038469847B44288F80070C8F8045088F8085009F114094FF0000708F135
:404840000C08EBD1294A2A4C13782A4943F01003137025782378284E03F0FE033F2023704FF40072087025493070254802F02CFB4FF400722349244802F026FB234BF8223B
:40488000EDB237701A70EA0703D5237843F0010323700D4A00230120137709B0BDE8F08FC4F3072120E600BFC780FF1FD1370020587600005076000048760000D43700204A
:4048C000005B00403D510040AC350020004E0040124E0040114E0040104E0040A03700201D51004048710000D0370020A643004080C7004088C700408CC70040D871000043
:4049000000C00040D873000000C2004084C700402DE9F0474D4C4E4E237B5D0171198A7E002A6FD000286DD0626A82EAE277A7EBE277B7F5802F66DC002B6FD0D1F81080E5
:40494000B8F1000F5FD04FEA830CDFF80CE10CEB03070EEB8707B968891A54D097F90C70002F50D00029D5BF01214FF0FF314FF0FF3A4FF0010A3AEA270A28BF8A46B8F134
:40498000000F0CEB03080EEB880898F80D7098F80E10B8BFCAF1000A8F423AD84FF0000939448FB2FF2F94BFCFB2FF27BAF1010F94F846103FD1B94244D201F101095FFA42
:4049C00089F9D8F808703544BF1AAE8B6344002FB8BF7F420EEB830E0025DEF8103084F84200E7634846A68684F8401084F84190A26384F84690A564984703232377284647
:404A0000BDE8F087626A94F84610BDE8F04701F081BFC1EB07095FFA89F9C1E70D4949780139C9B20729EED806EB4101B1F88080C8F57A7884E7494504D901F1FF395FFABA
:404A400089F9BEE7BDE8F04701F064BFAC35002048710000C780FF1FE07500000349044B0420012208601A70704700BF80E200E0F8350020F0B4384A384B39491B78136899
:404A8000013313600B78002B5AD0364A13780133DBB213701378002B57D1334B33481A78334902F0FE021A700278324C02F0FE0202700A784FF47A7502F0FE022E480A70D5
:404AC0002580017859BB1A7842F20F752B4F02F001021A703E782A4A06F0FC063E701F78284E47F004071F701378274F03F0CF031370137843F030031370137803F0F00365
:404B00001370137843F00F031370337843F001033370012325803D8002F8081C0370134813490378104A43F0010303700B7843F001030B70137843F001031370F0BC7047F0
:404B400003F0FF02074B1A70A7E7104B0020012110701970A1E700BFC4350020034F0040793500205481FF1F004F0040A3430040B3430040044F004018380020024F0040FF
:404B80000B4F0040014F0040064F0040783500202DE9F04F444A117853789278120442EA03230B431A02414A48BF43F07F431278012A03D1002BB8BF1F335B113C4A3D4CD7
:404BC00001203D49236010700A8892B242B93B4A12781AB13A4A1278022A07D0BDE8F08F0B88013B9BB20B80BDE8F08F354E327802F0FF0E002AF1D1334A344C1588218805
:404C00006A1E92B2B2F5007F34BF2F464FF4007789B2B942E2D22E4F398889B21D29DDD83988B4F80080DFF8ACC04FF05A091FFA88F809FB08C801EB410189B25FFA83FA84
:404C400008F801A0B4F8008001F1010A1FFA88F809FB08C8C3F3072B08F80AB0B4F80080C3F307431FFA88F809FB08CC02310CF801303B8801339BB23B803B889BB21D2BFF
:404C8000ACD9A7F800E02388B2F5007F03F101039BB22380238828BF4FF400759BB2AB4228BF30709AE700BF90350020CA80FF1F6881FF1F6C81FF1F6681FF1F7181FF1F78
:404CC0009C3700207381FF1F5881FF1F963500205A81FF1F7881FF1F47490A7848788B781B0443EA002313431A02444A48BF43F07F431278012A03D1002BB8BF1F335B1194
:404D00003F4A0121536050683E4B906011731B781BB93D4B1B78022B00D070472DE9F0433A4C2378002B5BD1394B3A4D18882988431E9BB2B3F5007F34BF06464FF4007640
:404D400089B2B1424CD2344E318889B21D2947D8324F31883F7801EB410189B2002F41D15268B5F800E02E4F4FF05A0C1FFA8EFE0CFB0E7E5FFA82F80EF80180B5F800E0E9
:404D800001F101081FFA8EFE0CFB0E7EC2F307290EF80890B5F800E002311FFA8EFE0CFB0E77C2F307427A5432881A49013292B232803288184E92B21D2A11D9B3F5007F7E
:404DC0004FF0000333800B8828BF4FF4007001339BB20B802B889BB2834224BF01232370BDE8F0830F4F3A6802F1010EC7F800E022F07F42B5E700BF8C350020CA80FF1FF6
:404E0000F83500207181FF1F9C3700207381FF1F5881FF1F963500205A81FF1F6481FF1F7881FF1F6081FF1F2DE9F04F2E4A2F4B12781C78D2B282F0C4034B4083B04340B9
:404E4000AB26C4258DF802008DF803108DF804208DF805308DF800608DF80150002C38D06E46DFF894E0224DDFF89090DFF890C0DFF890B00DF106084FF0020A16F8014BB3
:404E80009EF800102A780846D2B2571E8B1A7F1AA3F17F03B7FA87F7B3FA83F37F095B098A4288BF3B46002BECD18A4214D00A0659BF0131C9B20121002009F800408EF8C7
:404EC00000109CF800309B0748BFCBF800A04645D4D103B0BDE8F08F9CF800305F07E6D4044B1C70F3E700BF9C370020183700201A3700204B650040193700201C370020CD
:404F00006B65004000E200E0F8B54F4A137803F0FF0003B9F8BD00234C4C137021783C20FFF782FF23782BB121783D20FFF77CFF0120F8BD227802F0FF032AB121781220D9
:404F4000FFF772FF0120F8BD4149424A424D434E01202B8033700B80137000F097FA102000F094FA3E4B5D7825B1112000F08EFA0120F8BDFFF708F9022807D00028F4D07B
:404F8000384A0323157023700120F8BD364B012434701A78354802F0FE021A700278344902F0FE0202700A78324D02F0FE024FF47A7631480A702E80017841BB1A7842F229
:404FC0000F762E4F22401A703A7802F0FC023A701F782B4A47F004071F701378294F03F0CF031370137843F030031370137803F0F0031370137843F00F0313703B7823437B
:405000003B70214B2E8022F8056C19700470174817490378144A43F0010303700B781B4843F001030B701378194C43F00103137003780121003318BF012311202370FFF71A
:40504000F3FE0120F8BD00BFF83500209C370020963500207381FF1F943500207081FF1FB43500207281FF1F004F0040A3430040B3430040044F004018380020024F0040DC
:405080000B4F0040014F0040034F00407181FF1F79640040F8B505462A492B4E0B782B4A03F0FE0334880B701378A1F65D2103F0FE0313700B78A2F64D3203F0FE030B70E0
:4050C0001378234903F0FE0322481370621E4023B2F5007F00780B6028BF4FF4007401F0EFFC00351C4B18BF01251C491D701C4F0023DFF884E01B4A0B801B493B701B4DB7
:40510000AEF800301A4F13801A4A0B7002213B602B80117001F0D8FC3388B3F5007F03D9FF213E20FFF780FEFF2C94BFE1B2FF213520FFF779FE034A137843F001031370DA
:40514000F8BD00BF004E00405881FF1F004F004080E200E0034F00406481FF1F5A81FF1F5C81FF1F963500207381FF1F7481FF1F6081FF1F9C37002094350020F8B5444BB5
:40518000444C1B785B0707D533202178FFF74CFE2378012B70D0F8BD34202178FFF744FE3D493E4B0A783E4802F0FE020A701A78A1F64D2102F0FE021A700278394D02F0F9
:4051C000FE0202700A784FF47A7602F0FE0236480A702E80017801B33148344903782F4A43F0010303700B78314F43F001030B701378304E43F00103137001F061FC2E4DEE
:405200002E492F4A00233B8033702B800B8013702370BDE8F84001F057BC1A7842F20F76284F02F001021A703A78DFF8B0E002F0FC023A701F78244A47F004071F7013787B
:40524000224F03F0CF031370137843F030031370137803F0F0031370137843F00F0313703B7843F001033B7001232E80AEF8006002F8081C0370AFE7154B1B7813B1154B0F
:405280003F221A80144B1878BDE8F840FFF702BFC15100409C370020004E0040004F0040A3430040044F004018380020B34300405A81FF1F5C81FF1F9435002096350020E7
:4052C0007381FF1F024F00400B4F0040014F00407181FF1F6681FF1F6481FF1F064F004070B53C4C237803F0FE03237000F0C0FB00F0A4FC237803F0FE03237000F0B8FB65
:4053000035490B78FF2B40D0032B33D0042B33483CD801249C400278E4B2144219D0304D22EA040255F823602E4C0270E55C32782D4C22EA0502E45C2C4D32702B5D013B12
:40534000DBB22B5513BB2A4A137823F008031370027813070CD442F00802264C02702378224A63F07F03237013785BB30133137003230B70204B1A7852B900F05FFC154A0C
:40538000137803F0FE03137070BD14480278E0E712490A78D00612D522F0100217480A700278124902F07F0202700A78013AD2B20A7022B90E490A7822F008020A700022A9
:4053C0001A70DAE70A48037843F0080303701378CCE700BF004E0040C780FF1FD1370020587600005076000048760000D4370020005B00403D510040B03500201D51004033
:405400001E4A1378002B38D02DE9F043DFF874C01B4FDFF87480461E4FF0020E043016F8019F53789178C9B24D1E5C1A9D4214BF002501257F2C14BF002401248B4238BF70
:405440002C46002CEED18B4205D13978490702D48CF800900DE013F0800F18BF0023D11881F804903978013353708B0748BFC8F800E08642D3D1BDE8F08370471837002047
:405480006B6500404B65004000E200E02DE9F0472C4C82B094F884302178DBB283F0C402AB274240C42600258DF802008DF804308DF805208DF800708DF801608DF8035094
:4054C000002934D06E46DFF880E0DFF88090DFF880A00DF1060C4FF0020816F8017B6078A3780546DBB2591EC21A091AA2F17F02B1FA81F1B2FA82F249095209834288BF88
:405500000A46002AECD1834214D0020648BF002525442F719EF800305ABF0130C0B201209B07607048BFC9F80080B445D5D102B0BDE8F0879EF800305907E6D48AF80070B2
:40554000F3E700BF183700206B65004000E200E04B6500402DE9F04FA24F87B097F8850090B3A14B93F800A0BAF1080F2FD99F4DDFF880A205F130094FF0000801269AF898
:405580000D309AF80E20D1189C1A934288B2E4B240F20D818AB2FF2A00F20C81A34280F00D81DAF81030204698470C3505F80C4C45F8088C05F8046CA9450AF1140ADED142
:4055C000042387F8B830002007B0BDE8F08F884C02AEA0464FEA0A150DF1180901F070FA237843F00103237023789B07FCD505F1804303F5004393F800B098F800305FFA2B
:405600008BFB03F0FE0388F8003001F05DFA06F801BB0135B145ADB2E0D19DF80830CA2BA5D19DF80930022BA1D19DF80A30002B9DD19DF80B30534599D19DF80C30042B23
:4056400095D14FF6FF7206AD15F8021D9DF8174002AB41EA042413F8011B500880F404464A4012F0010F86F0080618BF3046420882F4044680EA510010F0010F86F0080640
:4056800014BF30461046420882F4044680EA910010F0010F86F0080614BF30461046420882F4044680EAD10010F0010F86F0080614BF30461046420882F4044680EA111006
:4056C00010F0010F86F0080614BF30461046420882F4044680EA511010F0010F86F0080614BF30461046420882F4044680EA911010F0010F86F008060CBF104630464208E5
:4057000080EAD11182F4044011F0010F80F0080018BF0246AB429ED1D243C2F3072343EA022293B29C427FF422AF9DF80D3003F00F030F2B7FF41BAF9DF80E009DF80F100E
:405740009DF810209DF81130DFF8A0B0294D8DF804008DF805108DF806208DF80730ABF188090DF1040A00264FF004086B7BAC7B1AF8011BA34226D91A1990B21B1BFF28CC
:40578000DCB225D8A14227D22B692046984797F8B8300BF80640032B06F10C0698BF89F8B880302E05F11405E0D101200CE7FF2804D900249C4238BF1C46F2E6CCB29C42DD
:4057C00028BF1C46EDE6E21893B2FF2B04D900248C4238BF0C46D7E7D2B2914228BF11460C46D1E718370020C980FF1FA037002002470040E075000017280BD8064A03018E
:40580000995C002041F020019954995C41F00101995470470120704710700040172809D8054903015A5C002002F0F10242F004025A54704701207047107000400E4A92F86C
:40584000B910CB0616D510B40C4C92F8BC302078013B21F0100100F07F00DBB282F8B910207082F8BC3023B9054A137823F00803137010BC704700BF183700201D51004030
:40588000005B004009490A4A0B7803F08003DBB20B700B7843F015030B70137803F0F3031370137843F00D03137070470E5800400D58004009490A4A0B7803F08003DBB2E7
:4058C0000B700B7843F015030B70137803F0F3031370137843F00D03137070470A5800400958004038B501F0EBF83C493C4A0B783C4D43F008030B70137843F008031370C5
:4059000001F0E2F801F0DCF895F8BD3023B101F0DBF80424204638BD334B024618680121C00785F8BD1008D5186820F00100186000BF00BF00BFC5F8C0102C4C104601F05A
:40594000C3F823789B0730D5294BE1210E22B620187019701A702278910726D401221A702378DA0705D4182001F0A2F82378D807F9D51F4B1D4C1A78237885F8C420DB0797
:4059800005D4182001F094F82378D907F9D5184B164C1B7885F8C53001E001F089F8237818209A07F9D5002401E04FF0FF3401F087F8D5F8C0200023012A85F8BD30094913
:4059C00009D1094D2A6842F001022A6000BF00BF00BFC1F8C03001F077F89BE7A0430040B04300401837002004000840224700402047004070B41A4D87B02C466B460646CC
:405A00006968286803AA03C254F80C0F2D7A6168082E03C3217A157019701ED8114C06AB1E442378104803F08003DBB2237016F8181C237816F80C2C8900134301F00C0128
:405A40000B432370037803F0F3030370037816F8182C43F00C031343037007B070BC7047307600000258004001580040704700BFF8B501F025F83349334A0B78334D03F003
:405A8000FE030B701378324C43F0040313702B78064643F002032B702378482043F00203237091F8913A2B4F03F0FC0381F8913A92F8913AA5F2473503F0F70382F8913A76
:405AC00000F0F6FF95F84733234A03F0FD0385F847332178214B01F0FD0121701178204801F0EF011170117804F58C5401F0FE0111701A78093402F0FE021A701A78194979
:405B000002F0EF021A703B78174A03F0F9033B70037803F0FE0303702B78304603F0FE032B70237803F0F70323700B7803F0FE030B70137803F0FE031370BDE8F84000F0E4
:405B4000C3BF00BF004E0040014E0040F8460040F946004077580040AA430040BA430040A1430040A2430040B2430040144A154813780178994221D0F0B513490B7803F0D1
:405B8000040303F0FF06C3B91746104D104C02E00B785B0711D413781B0648BF3E701378DBB2EB5CDBB22370137890F800E00133DBB2137013789E45EAD1F0BD704700BF45
:405BC0001A370020193700206B6500401C3700204B650040164AF0B517461648164C012500260378DBB213F01E0E03D011784EEA010111709B0600D4F0BD21785378C9B294
:405C00001344197192F824300BB187F8255053780133DBB2537053781F2B88BF5670517892F826309942DCD182F82450D9E700BFE037002068650040486500402DE9F04F60
:405C4000C54C83B094F82730002B62D194F8283003F0FF06002B5ED0C04D012384F8273000F02EFFBE4A2B781178BE4B41F0010111701178064641F0100111701A78BA4D27
:405C800042F001021A701A78B84C42F010021A702B78B74943F002032B702378482043F0020323700B7843F003030B7000F000FF2B78B04903F0FD032B702378AE4803F0A9
:405CC000FD0323700B787A2443F006030B7004703046AA4AA1F5A6511378063943F0010313700B78A64D43F001030B705378013143F0010353700B78A24C4FF0005243F0F6
:405D000001030B702A60226003B0BDE8F04F00F0DBBE924DA4E749F25B10904D0123DFF8BC822B7084F8296098F80030964A43F0100388F800301378944943F0100313702B
:405D4000E0230B70DFF898E2914F924B02F5D05204218EF8001005323E701E701378AEF1030E43F0180313708B4B8EF80060A2F287221E7087F8F2620A271770874FA3F2C7
:405D800007331E703E705B271772854F5E221A72A3F5286314223E701A702B780F2284F82E2004EB830393F82A707E4BA0851F702B787D4804EB83031B8D03802F7884F811
:405DC0003060FFB2012F7FF448AF784B6FF4296CE644DFF810B2DFF810A24FF0F80C83F800C0DFF80892DFF808C28EF8001000F8091C8BF800208AF800604FF03F0A83F8F6
:405E000006A001F1804189F800608CF800608EF808604FF0030E80F808E001F5B141644A50200870DFF8CCA1132111702B2283F8862ADFF8C4E18AF800605E484FF0440A26
:405E400089F882AA5C494FF002095C4A4FF0480A8CF882AA8EF800904FF0120C4FF0280E80F80090EB2081F800C082F800E083F8910A00F025FE3C4B00901A78ABF20B7B1C
:405E800042F003021A7001939BF800204C494FF0520C42F0030250468BF8002081F800C000F006FE019B00981A78DFF850A102F0FC021A709BF8003003F0FC038BF800309B
:405EC00000F002FE4CF6CD433E4A5820DFF830C1DFF830E13C4910703C488AF800608CF800908EF800900E705672636398F80020038802F007029BB2012B0FD0A1F5A751F3
:405F00001A390978C9B2002A7ED1002B7CD1078098F8003003F0BF0388F800301A482C4E0278338802F007029BB2072B0ED013490978C9B2002A40F09F80002B40F09C80C4
:405F400007233380037803F0BF030370214B224A1B68C3F8B42080E6E0370020CA80FF1FAA430040BA430040F8460040F9460040915800407758004082580040A1430040D5
:405F800080E200E000E100E0024100401DE400E0975800409E580040885B0040835800408D5800400E4E00400C4E0040004E0040855800408E5800408F580040905800405C
:405FC00092580040945800409C580040804000400041004008ED00E06D5A00008240004096580040044E0040054E0040084E0040094E0040875800408C5800409558004008
:406000009A5800409B58004011F0010123D03D483D4F3E4E00224FF0010E327080F800E03A7010F8082C6E3702F07F0200F8082C3A7810070FD43046072227F8803C32700C
:406040000378324A13F00103FAD1314E307800F0FE00307013702E4B1A78D20744D56FF468773B441A462B4801260321068019701378DE07FCD451E711F0010124D022485B
:40608000204F224E00224FF0010E327080F800E03A7010F80C2CF23702F07F0200F80C2C3A78100710D43046A7F5807707223B8032700378154A13F00103FAD1164E3078ED
:4060C00000F0FE0030701370134B1A78D20712D5A3F568731A460F4807260321068019701378DB07FCD431E70C4A012010801A781143197012E70A4A072010801A781143A0
:40610000197023E7104000401440004001400040A243004002400040A14300408040004000410040074808490378084A03F0FE0303700B7803F0FE030B70137803F0FE0396
:4061400013707047004F0040A3430040B3430040F0B4224991F8382072BB214842F20F740378204E03F00103037035781E4B05F0FC05357006781D4D46F00406067018788B
:406180001B4F00F0CF00187018781A4E40F030001870187800F0F0001870187840F00F0018702B78144843F001032B7001233C8081F8383034800270104811490378084AC8
:4061C00043F0010303700B7843F001030B70137843F001031370F0BC704700BFE0370020004F0040024F00400B4F0040014F0040044F0040064F0040034F0040A3430040F8
:40620000B343004010B500F05BFC0A4B5A78182A04D8FF2400F058FC204610BD9C78013AE10001F1804101F5F04109785A709970F0E700BFCA80FF1F2DE9F843714A724B18
:4062400072491A600B68724A43F4007371480B600023032B94BF50F823106F490133302B42F8041FF5D16D4B6D4A6E4909781A6072B66D4E6D4A35461378002443F0040344
:40628000137004EB4403AA8856F813000134002100F04AFC072C05F10605F2D1644E654F002556F8043F23F0FF0413F0FF0313D003F1FF3E05F1105303F13F005FFA8EFE53
:4062C00070443E3340005B001A785978023398421155F9D101357544BE42E2D1564B574A0A2119701378564943F0020313700B78A2F5863243F002030B70633A1378A1F57C
:40630000863143F04003137051394E4B0A781F684D4E42F010020A70376043F6972741F251264A4C4A4800254A4A25603C3B0560A4F5105403CB3E3C1060516003CB2060FA
:40634000616003CBB23CC2F8F000C2F8F41093E8070003C4404B4149228007C903C3A4F6F6541A8022783E4B42F00802DFF814E103CB227061228EF800203A4AA4F2A22490
:406380002580106051603848384A5021A1701B210580117036491922AEF5EF6E1825AEF80020A57207810A70196826270322314B84F8807280F87C211B782F4FDBB23B7040
:4063C0002E4B0827A4F8A2712D4AA0F89C611C784FF4F070116004F001041E4600F068FB01E0032C50D033784FF4F07003F0010343EA440400F05CFB013D04F00304F0D1B7
:40640000FEE700BF0004FA050CED00E014ED00E0FC7FFF1F000000007941000008ED00E00080FF1FBC76004090760000E8460040FCFFFF477800004883580040035001409F
:40644000135001402C050048087600400076004010760040025100402051004014050048200500483251004084400040864000408E40004008010049A146004025420040B8
:4064800000410040004800404DF2200E40F20447614B6249624A4FF4807007251880DFF8B0811D700020DFF8ACC1482510700D7002220425187088F800208CF8005091F8BA
:4064C0009A33584843F00F0381F89A330178564B7F2641F001010170344619780CF5F72C41F08001197001200CF2F97C4FF081094E4988F8FF978CF800000978ACF5F42C07
:40650000C9B2DFF85491ACF2967C01F007088CF80080E940DFF844818CF80110A9F800E043494FF0080E88F800E0ACF2027CDFF830E1ACF800700A700527092189F8601774
:4065400088F83C778EF800708CF8960880274FF0400C89F8F8C888F8CC788EF8981110214FF0200E89F80CE988F8E41889F81A2988F8EC0889F8245988F8F82889F82C193E
:4065800088F8442989F87F0988F8565988F85E59284D4FF0420885F800804FF0C80885F80880DFF8C08088F800C02873DFF8B8C02148DFF8B8808CF80010AA761F4980F823
:4065C00000E0CCF868804FF48C7CA5F884C01C4A4FF0060C81F800C0DFF894E04FF00E0C0A21A5F5B85580F854C0103D11704FF0440C0FCB8EF800C007C51249124A2B8046
:406600004F708E70013CE4B202F80849002CF9D10E4B1C70BDE8F883044000400840004006400040A1430040A0430040CF010049FD510040C05A0040045B0040475B004029
:406640005A5B0040CA80FF1FF87B004000780040014000400B4000400C5100403C5100407A580040CB5A0040D85A00400706070676580040014B1870704700BF815B004065
:40668000014B1870704700BF835B0040014B1870704700BF825B0040014B1870704700BF805B0040F8B5854EFFF7E2F93378844CFF2B22D0042B1ED801229A402178D2B27F
:4066C0000A4218D07F4821EA020250F823507E492270C85C2A787D4922EA0002C95C7C482A70435C013BDBB2435423B9794A137823F008031370FF233370774D2B78002B3E
:4067000000F0B7804BF6803000F0D2F923786C4AD80612D523F01003704913700B786C4A03F07F030B701378013BDBB2137023B9684A137823F00803137000232B70FFF7A0
:4067400097F93378FF2B78D0032B36D0042B74D8012199402278C9B2114259481BD0594F22EA010257F823E057490270CF5C9EF80020564922EA0702C95C554F8EF80020AF
:406780007B5C013BDBB27B5423B9524A137823F008031370027813070DD442F00802504922700A784A4B62F07F020A701A78002A73D001321A70032333702B78002B3ED124
:4067C000FFF73CFA4749484A0B78484C03F0FE030B70137801F5F34143F01003137025782378434E03F0FE033F20083123704FF4007208703F4930703F4800F065FB4FF4F0
:4068000000723E493E4800F05FFB3E4BF822EDB2002131701A70EA0703D5237843F001032370394B394D3A4C2021012200202960216058709A701A70F8BD2278ABE72378DD
:406840001F4AD90612D523F01003244913700B781F4A03F07F030B701378013BDBB2137023B91C4A137823F00803137000232B70A6E72378124ADF060CD443F01003174905
:4068800013700A78124B62F07F020A701A7862B101321A7001232B7034E791F8C32942F0080281F8C3291A7883E791F8E32942F0080281F8E3291A78EAE700BFC780FF1FFE
:4068C000D1370020587600005076000048760000D4370020005B0040B03500201D5100403D510040004E0040A643004080C700408CC70040D871000000C00040BC7600008B
:4069000000C2004084C70040B435002080E200E000E100E02DE9F84FDFF884815E4F98F804508146AB00581907EB8000467B847B9246A64206EB040240F2878090B2341B5E
:40694000FF28E4B240F291808C4238BF0C462B4407EB83031B6920466E0098474F4F731998F805209B00FC54FF2A3B44C3F804A083F808904A4B7ED0B9F1000F72D04FF0E1
:406980000109DFF824A1DAF8003023B1214613209847DAF80030721907EB82025468B4F5004F4EDA14F5004F6DDA3E4C8021002B30D014209847DAF80030E1B23A4C002BB5
:4069C00064D0142098477319226807EB8303D3F804B0FAB14FEA1B611D2090472368CBF30741BBB11D20984723689BB1CBF307211D209847DAF800305FFA8BF12A4C4BB194
:406A00001D20984723682BB1354407EB8507397A1620984798F80430214A0133DBB2032B88F8043019D9B9F1000F27D153791F49013382F80490537181F800904846BDE829
:406A4000F88F7F2147F6FF74B1E790B2FF2810D8D4B28C4228BF0C4679E7144B00201870BDE8F88F83F8039089E7A142FFF46FAFEEE7002468E74FF0000982E7FFF712FEC5
:406A80000120BDE8F88FC4F3072190E70C2303FB0573D3F804B0ADE7E0750000A0370020B43500200080FFFFAC350020C83500200230800803D000BF01380046FCD170473B
:406AC000EFF3108072B6704780F31088704700BF014B1868704700BF3081FF1F0E4B70B51E460E4C0025E41AA410A54204D056F8253098470135F8E700F0E2FE084B094CD6
:406B00001E46E41AA4100025A54204D056F8253098470135F8E770BDCC780000CC780000CC780000D478000003460244934202D003F8011BFAE770477BB972B90029BEBF99
:406B400000204FF0004106E008BF00281CBF6FF000414FF0FF3000F0B5B9ADF1080C6DE904CE002909DB002B1ADB00F035F8DDF804E0DDE9022304B07047404261EB410116
:406B8000002B1BDB00F028F8DDF804E0DDE9022304B0404261EB4101524263EB43037047524263EB430300F017F8DDF804E0DDE9022304B0404261EB41017047524263EB35
:406BC000430300F009F8DDF804E0DDE9022304B0524263EB430370472DE9F04F8C460C460546099E002B4FD18A4217466BD9B2FA82FEBEF1000F0BD0CEF1200520FA05F547
:406C000001FA0EF345EA030C02FA0EF700FA0EF5390CBCFBF1F0BAB201FB10C300FB02F84FEA154C4CEA0344A04509D9E41900F1FF3380F02881A04540F2258102383C4481
:406C4000C8EB0404B4FBF1F301FB134C03FB02F2ACB244EA0C418A4209D9C91903F1FF3480F00F818A4240F20C81023B39448A1A43EA00400021002E63D022FA0EF20023D2
:406C800086E80C00BDE8F08F8B4207D9002E56D0002186E811000846BDE8F08FB3FA83F1002940F09380A34202D3824200F2FE80851A64EB03039C460120002E41D086E804
:406CC0002010BDE8F08F12B90127B7FBF2F7B7FA87FEBEF1000F36D1E41B4FEA17481FFA87F90121B4FBF8F308FB134409FB03F24FEA154C4CEA0444A24207D9E41903F1AB
:406D0000FF3002D2A24200F2D3800346A41AB4FBF8F008FB104809FB00F9ACB244EA0842914507D9D21900F1FF3402D2914500F2BA802046C9EB020240EA03409BE731463C
:406D40003046BDE8F08F07FA0EF7CEF1200C24FA0CF34FEA1748B3FBF8FA1FFA87F908FB1A3520FA0CFC04FA0EF40AFB09FB4CEA040C4FEA1C4242EA05439B4500FA0EF5EF
:406D80000AD9DB190AF1FF3280F08B809B4540F28880AAF1020A3B44CBEB0303B3FBF8F008FB103300FB09F41FFA8CFC4CEA03439C4207D9DB1900F1FF326ED29C426CD931
:406DC00002383B441C1B40EA0A418BE7C1F1200E8B4022FA0EFC4CEA030C24FA0EF74FEA1C49B7FBF9FA1FFA8CF309FB1A7720FA0EF88C400AFB03F548EA04044FEA14485B
:406E000048EA0747BD4202FA01F200FA01FB09D917EB0C070AF1FF3041D2BD423FD9AAF1020A67447F1BB7FBF9F509FB157705FB03F3A4B244EA0747BB4208D917EB0C07CC
:406E400005F1FF3027D2BB4225D9023D674445EA0A40A0FB0289FF1A4F4545464C4614D329D066B3BBEB050367EB040707FA0EFECB40CF404EEA030386E888000021BDE881
:406E8000F08F2346F3E61846DAE6B8EB020569EB0C040138E5E70546D9E7104692E78246C0E7924678E702383A4443E7084604E7023B3C442AE7C345E7D33C46D1E7314604
:406EC000BDE8F08F704700BF10B5431E0A44914204D011F8014B03F8014FF8E710BD000000000000F4FCFF7F010000000111213141615363730000000809010105070704C9
:406F000004000000201300256117802601008026E00E8026C20C8026020080066587186D6409183E00008026032080262102187F0000000000000000000000000000000043
:406F40000000000000000000000000000000000000000000000000000000000000000000000000000000000000000000000000000000000000000000000000000000000011
:406F800000000000000000000000000000000000000000000000000000000000000000000000000000000000000000000000000000000000000000000000000000000000D1
:406FC0000000000000000000000000000000000000000000000000000000000000000000000000000000000000000000000000000000000000000000000000000000000091
:407000000000000021F805014210864064F8150181F8050143518E2100000000000000000000000000000000000000000000000000000000000000000000000000000000E5
:407040000000000000000000000000000000000000000000000000000000000000000000000000000000000000000000000000000000000000000000000000000000000010
:4070800000000000000000000000000000000000000000000000000000000000000000000000000000000000000000000000000000000000000000000000000000000000D0
:4070C0000000000000000000000000000000000000000000000000000000000000000000000000000000000000000000000000000000000000000000000000000000000090
:4071000000000000FF3F0000000000000000000000000000000000000000000000000000000000000000000000000000000000000000000000000000000000000000000011
:4071400000000000ABC000C001000000E8030000030000001027000000000000000200023075010000040000010000001027000001000000D0070000E8030000000400020F
:40718000C8AF010000040000010000001027000001000000D0070000B80B0000000200023075010000040000010000001027000001000000D0070000701700000004000235
:4071C000C8AF010000080000D007A00F401F803EC05D007D80BB50C30000000000000000000000000000000000000000000000000000000000000000000000000000000084
:40720000000000000000000000000000000000000000000000000000000000000000000000000000000000000000000000000000000000000000000000000000000000004E
