:400000000080002011000000C57A0000C57A0000144A80B5144B1268144F1A60F7B1144E002556F80C4C56F8080C56F8102C234638B1043A52F8041F43F8041B191B814239
:40004000F8D156F8040C1A4620B142F8045BD11A8842FAD1013F06F11006E2D108F006FA01F0D8FFFA460040BC760040010000001092000010B5054C237833B9044B13B10A
:400080000448AFF300800123237010BD3881FF1F0000000070880000084B10B51BB108490848AFF300800848036803B910BD074B002BFBD0BDE81040184700BF0000000039
:4000C0003C81FF1F70880000C080FF1F000000002DE9F04FDFF8E8A2DFF8E882DFF824938FB04FF0010B0123C9F800309AF8000098F800101C468842B14AB24B00F00281E2
:40010000107819781B788842127828BF20339B1AAD4ADBB2C2F800B0002B00F00381AB48C9F800B09AF8002098F800300178D2B2DBB211B99A4200F0EF80531CDBB2202B97
:40014000A34928BF00238E5C8AF8003003789F4CF6B20BB1002323709B4B9E4FC3F800B03C78E4B2052C00F2D480DFE804F0C3948B110A03984A032396703B7005F022FDE6
:40018000B1E7954A052356703B7005F01BFDAAE708F05EF99149924D0B78924A03F0FE030B708F4B1B7803F0FE032B7013788E4D03F0FE031370CA7808238C4A2B600023F1
:4001C0001370019308F048F9019B834D3B702B786A78A97853404B40B34284D1844B1A7862B92A78C12A03D02A78A52A7FF47BAF2978212083F800B004F0ACFF2B78764A91
:40020000C12B03D01178302004F0A4FF794B1B78032B2B7800F09380A33B162B3FF663AF01A252F823F000BF37090000E7000000D1090000F9070000E7000000E700000070
:40024000F90F00002D0C0000E7000000E7000000E7000000E7000000E7000000E7000000150D0000E70000004F0B00007F0B00008F1300009F100000AD12000009040000C9
:40028000E90A0000544B002103225E7099703A7005F098FC27E705F095FC06F15D03DBB21E2B07D8544A0BFA03F10A40002A3CD1002B3FD008F0CCF848494A4A0B78A1F66F
:4002C0005D3103F0FE0381F85D3B454B4B4C1B7803F0FE030B701378434903F0FE03137023780822414B0A6000241C7008F0B4F83C70F8E6AB2E7FF4F6AE87F800B005F007
:4003000061FCF0E63148037853B12F4BC3F800B006E700233B70E6E6394B1E78F6B21BE7294B1C600FB0BDE8F08F2B4A022316703B70D8E6284A042316703B70D3E6A53BA3
:400340001C2B01F20C8201A252F823F051160000AD1500005F1700005F170000AD150000AD1500005F1700005F1700005F1700005F1700005F1700005F170000AD15000096
:400380005F170000AD150000AD150000DD1400005F1700005F1700003B1400005F1700005F1700005F1700005F1700005F1700005F1700005F1700005F170000E700000080
:4003C0000E380020E937002000E100E00C380020EC3700208D3500205481FF1F004F0040A3430040B343004080E200E08C3500207D81FF1FA4370020CC407F40034F004098
:400400004B65004080E100E0A44B1A78002A41F05B83A34BA3491A78A34D02F0AF021A700A701A78A14842F008020A701B78A04A0B702B78AB25DBB2037013789D4ADBB233
:40044000137011F80B3C9C4A9C49DBB212780B70C220B8217B238DF82BB08DF828508DF829008DF82A108DF82C30002A34D0944D944B0DF1280E1EF8017B28781978064617
:40048000C9B201F1FF3C421AC0EB0C0CA2F17F02BCFA8CFCB2FA82F24FEA5C1C5209884238BF6246002AE9D1884201F0CB8102065ABF421CD2B20122834948BF00262A70EA
:4004C000824A8F551278910702D5814A022111600DF12D027245CED17E4F3B6813B10121084698477C4B7D4E01937D4B059402937C4B049300230393049B9DF80C501B7898
:40050000727BAB4201F2AF81B17B8A4202EB010341F2938398B2511AFF28CCB201F29183A24281F00B8407F0E7F9019B1A783379FF2A31D093425FD0022A2AD86A480BFA83
:4005400002F10078C9B2014223D0DFF8B0E120EA010165485EF822E0DFF8A8C101709EF800101CF802C0614821EA0C01805C604A8EF80010125C5E49013AD2B20A5442B9AF
:400580005C495D4A51F82010105C0A7822EA00020A700199FF220A70FF2B2DD0022B29D851490BFA03F20978D2B20A4222D153480A434D4950F82300DFF848E10A700178C2
:4005C0001EF80320DFF824E1114301701EF803204749895C59B94748474950F82200895C90F800E04EEA010101704149895C404801318154019A1370029B1B78002B41F038
:40060000118207F067FA3369204698473C4807F017FF3B681BB329462D2098472D4BB5681B68290EDBB12A2098472A4B1B68B3B1C5F307412A209847264BC5F307211B68F4
:400640006BB12A209847234BE9B21B683BB12A209847204B1B6813B121461320984705F0CBFF3B680446002B50D0010E2E209847184BC4F307411B68002B47D02E209847E2
:40068000144B1B68002B41D0C4F307212E209847104BE1B21B68CBB336E000BFA4370020C0360020726400406C640040C780FF1F63640040C136002021370020C236002002
:4006C0002237002023370020243700206A64004000E200E0C8360020C980FF1F30910000CC360020D8370020D93700207C910000DC3700207491000070910000849100009A
:4007000080FC0A00809100002E209847039B14360133022B03937FF4EFAE059C07F0ECF8019B1878FF2801F00583012841D00228894B22D80BFA00F11A78C9B211421DD049
:40074000864D22EA010255F8205085491A702A780E5C844922EA0602095C83482A70425C013AD2B2425442B98048814A50F82100515C027822EA010202701A780198FF21EE
:400780000170910712D442F002021A70794B79491B78754A43F001030B70537823B97648017841F01001017001335370019B83F800B0029B714D1B781BB106F091FF00234E
:4007C0002B7007F087F96E4A6E4813786E4903F0FE03137003780A78DBB212B91C1C18BF01246A4A6A49137823F0030343F018031C4314700C708BE06B78DBB2082B01F27E
:40080000B781644E07AD3446306871680AAA03C554F80C0F377A616894F808E003C25E4C5E495F4E2F7082F800E00B702078237032780EA902F08002D2B23270CD1815F80F
:40084000107C327815F81C1CBF000A4307F00C0754493A4332700A78834202F0F3020A700A7815F8105C42F00C0242EA05020A7004D04D4B00221A7006F014FE23784B4A4B
:4008800083F064018DF82B301278AB238DF82C108DF82830C221A6238DF829108DF82A30002A35D0424D434BDFF820C10AAF17F8016B287819780446C9B201F1FF3E421A88
:4008C000C0EB0E0EA2F17F02BEFA8EFEB2FA82F24FEA5E1E5209814288BF7246002AE9D1814200F05D87020658BF421C324952BFD2B2012200240E552A709CF80020900750
:4009000002D52E4A022111600DF12D02BA42CED12B4B1B78022B3FF4E6AB2A4B2A491A780B7802F0020282F0020203F0FD0313430B70FFF7D8BB6B78A978312043EA0121B8
:4009400009B28BB2FF2B94BFC9B2FF21AB8004F001FCFFF7C8BB00BFD937002084910000809100007C910000DC37002074910000709100000D510040005B0040CC3600201C
:40098000004E0040C3360020C4360020C880FF1F746500407C880000CB80FF1FCA80FF1F0658004005580040B13600202137002022370020233700202437002000E200E038
:4009C000A437002021510040205100406A6400400121084604F0BEFB3B2006F0FFFCBA4B01931B78002B3FF47EABB84FB84DB94BDFF81CC317F8016B287819780446C9B238
:400A000001F1FF3E421AC0EB0E0EA2F17F02BEFA8EFEB2FA82F24FEA5E1E5209884238BF7246002AE9D1884200F0B186020658BF421CA94952BFD2B2012200240E552A7046
:400A40009CF80020900702D5A44A02211160A44ABA42CFD1019AAB21C3208DF82810127871218DF829008DF82A100B20B9218DF82B008DF82C10002A3FF435ABDFF890C2DC
:400A80000AAF17F8016B287819780446C9B201F1FF3E421AC0EB0E0EA2F17F02BEFA8EFEB2FA82F24FEA5E1E5209814288BF7246002AE9D1814200F07C86020658BF421C5A
:400AC000854952BFD2B2012200240E552A709CF80020900702D5814A022111600DF12D02BA42CED1FFF7FFBA7E497F4A7F4B282081F800B0108000217D4A1970137803F00D
:400B0000FD0343F00203137007F0A2FC44F620610446784A78481378A2F6653203F0FE0382F8653B744B1B7803F0FB0303701378724803F0FB03137003230370704B1960DA
:400B400005F0ACF9204607F087FCFFF7CCBA6B786C4C003318BF0123237021783A2004F0F9FA2378684D03F0FF04002B00F0798705F062FA012004F0BBFEFFF7B4BA39200C
:400B800006F02CFC504BAB21C2221B788DF828108DF82920B42177228DF82BB08DF82A108DF82C20002B35D0494D4A4BDFF860C10AAF17F8016B287819780446C9B201F1E1
:400BC000FF3E421AC0EB0E0EA2F17F02BEFA8EFEB2FA82F24FEA5E1E5209884238BF7246002AE9D1884200F0F585020658BF421C394952BFD2B2012200240E552A709CF810
:400C00000020900702D5354A022111600DF12D029742CED105F010FA002004F069FE3B4B1B78022B7FF479AEFFF75DBA6B78264ADBB283F068018DF82B301278AB238DF88E
:400C40002C108DF82830C221AA238DF829108DF82A30002A3FF45CAE1D4D1E4BDFF8B0C00AAF17F8016B287819780446C9B201F1FF3E421AC0EB0E0EA2F17F02BEFA8EFEB9
:400C8000B2FA82F24FEA5E1E5209814288BF7246002AE9D1814200F07185020658BF421C0D4952BFD2B2012200240E552A709CF80020940702D5094A022111600DF12D02CF
:400CC0009742CED124E600BF21370020D48A000022370020233700202437002000E200E0D88A0000BC360020BE360020BD36002020510040184F0040A3430040B43600208A
:400D0000B8360020C43600205481FF1FA43700206A640040974B984E1F460193337803F0FE03337006F0E8FD06F0D4FE337803F0FE03337006F0E0FD3878FF2800F0E7879F
:400D4000012841D002288D4B22D80BFA00F11A78C9B211421DD08A4E22EA010256F8206088491A7032780F5C874922EA0702095C86483270425C013AD2B2425442B9844861
:400D8000844A50F82100515C027822EA010202701A780198FF210170900712D442F002021A707D4B7C491B78784A43F001030B70537823B97948017841F0100101700133FF
:400DC0005370019B83F800B0754B02931B78002B40F0168706F07EFE674A724E137803F0FE03137007F034FB6F4A0023EB806F492B72338013806E4A0B701380EB606D4BD3
:400E00006D4E83F800B007F027FBAA886B48013A92B2B2F5007F38BFD1B2694B28BFFF210778317093F800E066494EF0200E81F800E093F800E034BF120A012281F800E0FF
:400E400032701A78DFF8A4C142F080020A701A78DFF89CE10A7037709CF800209EF80010D2B211B9141C18BF01240278A98822F0030242F01802504D144304702C701A7855
:400E8000504842F050021A7002701A784E4C42F0080202701A784D4D02702278053CD2B22A7014F8042C4A4DD2B22A7024781A78484D42F00102E4B22C7002701B782E4A11
:400EC00003701378FF2943F00103137094BFC9B2FF21322004F03EF9364B3F4A1B781278DBB283F073018DF82B30AB238DF82C108DF82830C221B1238DF829108DF82A306C
:400F0000002A3FF405AD354D354BDFF8E8C00AAF17F8016B287819780446C9B201F1FF3E421AC0EB0E0EA2F17F02BEFA8EFEB2FA82F24FEA5E1E5209884238BF7246002A7A
:400F4000E9D1884200F01184020658BF421C254952BFD2B2012200240E552A709CF80020900702D5204A022111600DF12D029742CED1CDE4C980FF1F004E0040D937002009
:400F800084910000809100007C910000DC37002074910000709100000D510040005B0040CC360020AC360020AE360020B03600208881FF1FA437002074650040C880FF1FBD
:400FC000C0360020726400406C640040C780FF1FC1360020C23600202137002022370020233700202437002000E200E0C3360020C43600206A6400406B78AB20DBB2082BCA
:401000008BBF9C4B9B4A1B7813709B4A8DF82B30127883F06B038DF82C30C221A9238DF828008DF829108DF82A30002A3FF470AC924D934BDFF870C20AAF17F8016B287867
:4010400019780446C9B201F1FF3E421AC0EB0E0EA2F17F02BEFA8EFEB2FA82F24FEA5E1E5209814288BF7246002AE9D1814200F0A983020658BF421C824952BFD2B20122BB
:4010800000240E552A709CF80020900702D57E4A022111600DF12D029742CED138E47B4A7B4B1078117B1C7800238DF81C008DF81D108DF81E308DF81F30002C00F00484DC
:4010C000744C2478012C40F25685147A002C00F0FB83147D002C00F0F7836F4C2678082E00F2498503228DF82D204FF6FF72CA248DF830308DF831308DF832308DF8333087
:401100008DF834308DF835308DF836308DF8373002238DF82E008DF828408DF82AB08DF82B608DF82F108DF829308DF82C300AA80DF1360410F8013B510881F404455A406F
:4011400012F0010F85F0080518BF29464A0882F4044581EA530111F0010F85F0080514BF294611464A0882F4044581EA930111F0010F85F0080514BF294611464A0882F495
:40118000044581EAD30111F0010F85F0080514BF294611464A0882F4044581EA131111F0010F85F0080514BF294611464A0882F4044581EA531111F0010F85F0080514BF69
:4011C000294611464A0882F4044581EA931111F0010F85F008050CBF114629464A0881EAD31382F4044113F0010F81F0080118BF0A46A0429ED1D243C2F3072343EA02223D
:40120000C2F307238DF836208DF8373007F020F92249234A0B78234D43F008030B70137843F00803137007F017F907F011F92B780146002B00F0B18507F00EF907F008F9EF
:401240001649174A0B7843F008030B70137843F00803137007F000F907F0FAF82C780146104A002C00F0148607F0F6F8742600232CE300BF7F81FF1F2137002022370020D3
:40128000233700202437002000E200E0A8370020B1360020D8370020CB80FF1FA0430040B0430040DE3700206A6400406B78B44A003318BF012313701378002B40F0D08474
:4012C000B04AAF4B1B781278DBB212B91C1C18BF0124AD4AAD49137823F0030343F018031C43A74B14700C701B780BB100232B82A34BA74A1B781278DBB283F075018DF80B
:401300002B30AB238DF82C108DF82830C221B7238DF829108DF82A30002A3FF4F9AA9D4D9D4BDFF884C20AAF17F8016B287819780446C9B201F1FF3E421AC0EB0E0EA2F18E
:401340007F02BEFA8EFEB2FA82F24FEA5E1E5209884238BF7246002AE9D1884200F04382020658BF421C8D4952BFD2B2012200240E552A709CF80020900702D5884A022159
:4013800011600DF12D02BA42CED1FFF7C1BA854B1A78194602F0FF03002A00F0E7820978122003F0D7FE7A4BAB22C2218DF828201B78B5228DF829108DF82A2000217722DD
:4013C0008DF82B108DF82C20002B3FF4A1AA714D714B0AAF0DF12D0C17F8016B287819780446C9B201F1FF3E421AC0EB0E0EA2F17F02BEFA8EFEB2FA82F24FEA5E1E5209FE
:40140000814288BF7246002AE9D1814200F0238202065ABF421CD2B20122604948BF00242A70614A0E551278940702D55C4A022111606745D0D1FFF76BBA5A4B1220197806
:4014400003F088FE524BAB22C2218DF828201B78B8228DF829108DF82A2000217A228DF82B108DF82C20002B3EF43DAE494D4A4BDFF834C10AAF17F8016B287819780446A3
:40148000C9B201F1FF3E421AC0EB0E0EA2F17F02BEFA8EFEB2FA82F24FEA5E1E5209814288BF7246002AE9D1814200F0B481020658BF421C394952BFD2B2012200240E550B
:4014C0002A709CF80020900702D5354A022111600DF12D02BA42CED1FEF705BE314B1220197803F037FE2A4BAB22C2218DF828201B78B5228DF829108DF82A200021772293
:401500008DF82B108DF82C20002B3EF4ECAD214D214BDFF894C00AAF17F8016B287819780446C9B201F1FF3E421AC0EB0E0EA2F17F02BEFA8EFEB2FA82F24FEA5E1E52091B
:40154000814288BF7246002AE9D1814200F05B81020658BF421C114952BFD2B2012200240E552A709CF80020900702D50C4A022111600DF12D02BA42CED1FEF7B4BD00BF8D
:40158000C3360020C4360020C880FF1F746500402137002022370020233700202437002000E200E0A43700206A6400402978122003F0D0FD2B78BA4ADBB2127883F0C2043E
:4015C000AB208DF82A30C22100238DF82C408DF828008DF829108DF82B30002A3EF483ADB04DB14BDFF8D8C20AAF17F8016B287819780446C9B201F1FF3E421AC0EB0E0E8D
:40160000A2F17F02BEFA8EFEB2FA82F24FEA5E1E5209814288BF7246002AE9D1814200F0EA80020658BF421CA04952BFD2B2012200240E552A709CF80020900702D59C4A18
:40164000022111600DF12D02BA42CED1FEF74BBD3B2005F0C3FE924B01931B78002B3EF442AD944F8F4D904BDFF854C217F8016B287819780446C9B201F1FF3E421AC0EB82
:401680000E0EA2F17F02BEFA8EFEB2FA82F24FEA5E1E5209814288BF7246002AE9D1814200F0C880020658BF421C804952BFD2B2012200240E552A709CF80020900702D5A4
:4016C0007B4A022111607C4ABA42CFD1019AAB21C3208DF82810127871218DF829008DF82A100B20B9218DF82B008DF82C10002A3EF4F9ACDFF8C8C10AAF17F8016B2878F4
:4017000019780446C9B201F1FF3E421AC0EB0E0EA2F17F02BEFA8EFEB2FA82F24FEA5E1E5209814288BF7246002AE9D181427AD0020658BF421C5D4952BFD2B201220024C7
:401740000E552A709CF80020900702D5584A022111600DF12D02BA42CFD1FEF7C4BC2978122003F0F7FCFEF7BEBC9CF8002051073FF5EAAB514A1670FFF7F7BB9CF800205C
:4017800051073FF58AAA4D4A1670FFF797BA9CF8002051073FF54AA9484A1670FFF757B99CF8002051073FF59EA8444A1670FFF7ABB89CF8002051073FF57FA93F4A16704A
:4017C000FFF78CB99CF8002051073FF552AC3B4A16705FE49CF8002051073FF506AA374A1670FFF713BA9CF8002051073FF5B8AD324A1670C5E59CF8002051073FF511AF17
:401800002E4A16701EE79CF8002051073FF5A0AE2A4A1670ADE69CF8002051073FF547AE264A167054E69CF80020510780D4234A16708EE79CF8002051073FF533AF1F4AD2
:40184000167040E71E4A127851073EF530AE1B4A1770FEF73DBE1A4A127851073FF5D8AD164A1670E5E5B47B039B164903EB4303A24211F8231002EB040340F2E78198B27D
:40188000121BFF28D4B200F2E681A142FEF44BAEDBB2994228BF19460C46FEF744BE00BF2137002022370020233700202437002000E200E0D48A0000D88A00004A6400401B
:4018C0006A640040A837002023467426AB4A8DF82B301378AB22C2218DF82820B6228DF82C608DF829108DF82A20002B3FF410A8A34DA44BDFF800C30AAF17F8016B287822
:4019000019780446C9B201F1FF3E421AC0EB0E0EA2F17F02BEFA8EFEB2FA82F24FEA5E1E5209814288BF7246002AE9D1814216D0010658BF421C944952BFD2B201220024F3
:401940000E552A709CF80020920702D58F4A022111600DF12D029742CFD1FEF7D9BF9CF800205207E4D48A4A1670F2E7894A8A488A4913808A4A03800B701278894D022A45
:401980002B7000F00782884E884C0023884A337023701378032B00F0FA81864B864F87491A78002038700870854F864902F0AF0238801A700A701A78834F42F008020A70B6
:4019C0001B7882480B703B78814ADBB2037013788049DBB20B70137901217F4ADBB20846137003F0B7FB102005F0F8FC7B4B5F78002F00F09081112005F0F0FCAB23C22211
:401A00008DF82830B5238DF829208DF82A30002277230AA88DF82B208DF82C3005F098FCFEF776BF6E4B1B785A0715D56C4A23F0040313706B4A6C4B12785B78694922F0FB
:401A400010020A70013B684ADBB2537023B9674A137823F010031370029A00231370FEF7D0BD6348534A0378564903F0FE030370137800F5B35003F0AF0313700B7013789D
:401A80000C3043F008030B701378504E0B7003784F4ADBB2337013784E49DBB20B7013794D4ADBB2137004F0C7FA404B3E4A147083F800B005F0AAFB384BEC802C721C70C2
:401AC0004C4B1C70FEF70FBB1978122003F042FB2A4BAB22C2218DF828201B78B8228DF829108DF82A2000217A228DF82B108DF82C20002B3EF40CAF214D224B0AAF0DF12D
:401B00002D0C17F8016B287819780446C9B201F1FF3E421AC0EB0E0EA2F17F02BEFA8EFEB2FA82F24FEA5E1E5209814288BF7246002AE9D1814214D002065ABF421CD2B2D1
:401B40000122114948BF00242A702B4A0E551278900702D50D4A022111606745D1D1FEF7D7BE254A12785107E6D4094A1670F4E7224CFEF783BE7426A8E600BF21370020CE
:401B800022370020233700202437002000E200E04A640040AC360020AE360020B036002018370020B1360020B2360020B3360020B4360020C0360020BC360020BD3600202F
:401BC000BE360020726400406C640040C780FF1F63640040C1360020C2360020D0360020D93700200D510040DC370020005B0040004E0040A43700206A640040CB80FF1F4E
:401C00008E490B78580713D58D4A23F004030B708C4953780978013B8A4821F01001DBB20170537023B9884A137823F010031370029A00231370FFF7CDB899B2FF297DD91D
:401C40000024944238BF1446FEF76DBC9AB2FF2A7FF61EAE00248C4238BF0C46FEF763BC7A4A7B4E13787B4943F01003137037783278794B3F2002F0FE02327008704FF486
:401C80000072187075497648019306F0E5FD4FF400727449744806F0DFFDFFB2019B734A0020F821FF071870117003D5337843F001033370654A664E1378664943F01003B0
:401CC000137037783278644B3F2002F0FE02327008704FF40072187060496148019306F0BBFD019B0020FFB2604A1870F821F807117003D5337843F00103337006F0A8FBEF
:401D00005B4B00221A7006F0A7FBFFF7D9BA4B4B1A78FFF741B804F06BFE022815D000283FF469AE534A032382F800B0524A1370FEF7EEBD414B1A78FEF723BDDBB29A4233
:401D400028BF1A461446FEF7EEBB377085F800B084F800B005F05AFA484BAB24187803F051FD0121112003F0F5F9C221B52276230AA88DF82BB08DF828408DF829108DF8DF
:401D80002A208DF82C3005F0E3FAFEF7C1BD03F053FD02E603F07EFDF5E5394B85F800B01A68D00740F12A811A6822F001021A6000BF00BF00BF334FC7F800B0084606F0D7
:401DC0004BFB314B1A78900740F116812F4AB6211170E0200D21107011701A78910706D41C46182006F02CFB23789B07F9D5264B1A78920703D51C78A40800F0EE8007242D
:401E000006F026FB3B680021012B024629707FF413AA1B490B6843F001030B6000BF00BF00BF002310463B6006F016FB002C7FF405AA05F09BFCFFF701BA00BFD93700203F
:401E4000DC3700200D510040005B0040A643004080C7004088C700408CC70040288D000000C00040D88A000000C2004084C700408081FF1FC5360020A4370020C336002032
:401E800004000840E037002022470040204700405B4B82F800B01A68D00740F1AB801A6822F001021A6000BF00BF00BF554FC7F800B0084606F0D0FA534A1378990740F162
:401EC0009780524BB6211970D5200221187019701178890700F18C80402119709DF82800114618709DF829201A709DF82A201A709DF82B201A709DF82C201A709DF82D2081
:401F00001A709DF82E201A709DF82F201A709DF830201A709DF831201A709DF832201A709DF833201A709DF834201A709DF835201A709DF836201A709DF837201A700B7825
:401F4000314A9807FBD513789B0751D513789B084ED12F4B117893F800C05B7801938B0746D52A4BD82005214FF0B60E83F800E018701970117801F0020101F0FF000029DD
:401F800036D14021197018701E7083F800C09DF80410197011781C4B8807FBD51A78910726D51B789B080BBF012400247526742606F04EFA3B680022012B2A70114D08D1BB
:401FC0000F490B6843F001030B6000BF00BF00BF2A6006F041FA234678E406F039FA3B680246012B2C703FF414AF06F035FA20E77426DDE7034F5CE7042401E7014FDDE6A3
:4020000004000840E03700202247004020470040E43700202DE9804883B062B6B54B1978002901F06C8606F013FAB349B34D0B78B34A43F020030B702B78012443F010036E
:402040002B70146011F8FE3CAE4E43F0100301F8FE3C0225A1F507513560363915600B78A94A43F020030B701378A84E43F02003137006F0F1F9A64BA64A214620461A6062
:4020800003F068F806F0E4F9A349A44A0B7843F008030B70137843F00803137006F0DCF906F0D6F933780146002B01F0E18506F0D3F906F0CDF99849984A0B78984C43F0B9
:4020C00008030B701378C82543F00803137025700B7B43F010030B73137B01F5587143F0100313730B789D06FCD58E4D06F0B4F98D488E492B78012202700E784BB98C4B6F
:402100002A701A7802F0FC021A701A7842F003021A70884888490378884A43F0600303700B78687843F002030B7013787D4943F00203137050B902F5A652063213780120B1
:4021400003F0CF0343F0300348701370AB78754953B97B4B01201A78887002F0FC021A701A7842F003021A70724A73481378734943F0600313700378EA7843F00803037069
:402180000B78684F43F008030B70002A01F00F856C486D490378674A43F0020303700B786A4C43F002030B701378304643F080031370267005F062FB2B795A4953B9644B2C
:4021C00001201A78087102F0FC021A701A7842F003021A70574858490378584A43F0600303700B785B4E43F004030B70137843F0040313703378DC0741F1D68423F0010326
:40220000554A33701378554C23F0200313702378013BDBB223702BB912F8583C23F0200302F8583C33784B49980712D523F002034B4A0B70137823F0010313706378013B11
:40224000DBB263702BB992F8F33923F0100382F8F33933783F495A0712D523F00403404A0B70137823F0100313706378013BDBB263702BB992F8F33923F0100382F8F339ED
:40228000384FDFF8EC80FF2200233A7088F8003005F032FB3A78FF2A01F08384012A00F0898001239340022AD9B233786DD8194228486AD0DFF8BCE023EA01035EF82210EE
:4022C000DFF8B4E003700B781EF802C0DFF8ACE023EA0C031EF802200B70A35C013BDBB2A354002B50D12049204B51F822109A5C46E000BF21370020986500409B65004049
:4023000000E100E080E200E0B2430040DE370020C836002055510000A0430040B0430040014700406881FF1FA5370020CB80FF1F5A58004077580040A4430040B4430040C3
:402340005E580040A9430040B9430040CA80FF1F5C580040D9370020585B0040DC3700200D510040C980FF1F7491000070910000CC36002084910000809100007C910000ED
:402380000B7823EA02030B7003789A0710D443F00203C14A3370137843F001031370637823B9BE490A7842F010020A700133637001233B7098F80030B94C002B41F0EB837F
:4023C00005F088FBB7496A790B78B74803F0FE030B70002A01F0BC83B44AB5491378B54C43F0020313700B78AA7943F002038F260B70AD482670002A01F08483AB49AC4A4F
:402400000B78AD4843F001030B701378AB4E43F001038321AA4F137006F1180B01704FF0000A4FF001097A7BB97B8B18541A8A4298B2E4B241F2FF8299B2FF29DBB201F2ED
:40244000FD82A24281F00D833B69204698470C3606F80C4C46F808AC06F8049CB34507F114074FF00108DED1964B02221A7005F019F8EF79DFF830A2002F01F0F882924BC8
:4024800092481A78924C42F010021A700278914942F01002027022788F4F42F0010222701A783F2042F010021A70267823784FF4007203F0FE0323700870884938708848C6
:4024C00006F0CAF94FF400728649874806F0C4F9864BF6B20021F82239701A70F30703D5237843F00103237041F6FF72804E814C330C934214BF1A464FF400527E4B0120F6
:402500008327207000211F704FF4804758709970D9709F80DA8005F019F905F06DFD070602460ED444F61061C30003F1804303F5F04303201880B6B207209A70D870998072
:40254000DE802078172803D86C4B01010B445A7205F0EAF86A4B00224FF4804183201870627010465A709A70DA709980D98005F0EDF805F041FD024610060ED444F61066E5
:402580004CF2A070D30003F1804303F5F043032119809A70D9709E80D8806078172803D8564B01010B445A7205F0BEF841F6FF71544E554B320C8A4208BF4FF4005283273E
:4025C0001F70022100204FF4804759709870D8709F800846DA80A17005F0B8F805F00CFD010602460ED44CF2A871C30003F1804303F5F04303201880B6B207209A70D870A2
:402600009980DE80A078172803D83C4B01010B445A7205F089F8002003F0F4F83B4B01264FF0000B3A4A1E7083F800B013783949DBB20B7012F8093C37483849DBB2037040
:40264000053A0B7812783648364F03F0AF03D2B202700B7058463B7003F0D4F803F0ECFC022004F0BBFE304940F2E7370B782F4833400B7003782E4A03F0FC0303700B78B7
:40268000DFF8B0E043F004030B701378DFF8A8C003F0CF0352E000BF0D510040005B0040CC360020004E00406881FF1FA8430040B8430040815B0040805B0040A8370020F2
:4026C00030910000D8370020A6430040B643004080C7004088C700408CC70040288D000000C00040D88A000000C2004084C700407081FF1FC480FF1F08760040107000404C
:40270000007600407481FF1F10760040746400406C640040C780FF1FC1360020C0360020C236002072640040004F0040024F00400B4F0040014F0040034F00401370137838
:40274000DFF83C9343F0300313701378DFF8348303F0F00313701078B94B40F00F0010709EF80020B74832438EF80020A9F80070A8F800708CF800B00A78B34F02F0FE0262
:402780000A701A78B14C02F0FE021A700178B04A01F0FE0101709CF800103978EE73314039709EF80D100EF10E0E01F0FC010EF8011C397841F004013970117801F0CF0137
:4027C0001170117841F030011170117801F0F001117092F800A0FF214AF00F0A82F800A09CF80AA04AEA060A8CF80AA0A9F80C10A8F80C108EF800B0267097F80080DFF86E
:4028000088A208F0FE0887F8008093F8008008F0FD0883F8008090F80090DFF8708209F0FD0980F800909EF800E092F80190DFF860E209EA060982F801909CF8179009F09B
:40284000FC098CF8179092F801C0DFF848924CF0040C82F801C097F817C00CF0CF0C87F817C097F817C04CF0300C87F817C097F817C00CF0F00C87F817C097F817C02E7422
:402880004CF00F0C87F817C098F80070DFF808C2374388F80070AEF80010AAF8001089F800B092F801E06B4F0EF0FE0E82F801E093F800E00EF0FB0E83F800E090F800E008
:4028C0000EF0FB0E80F800E099F800E09CF800E00EEA060E8CF800E097F800E00EF0FC0E87F800E09CF800E04EF0040E8CF800E092F818E00EF0CF0E82F818E092F818E0D5
:402900004EF0300E82F818E092F818E00EF0F00E82F818E092F818E04EF00F0E82F818E098F80C20DFF874E1324388F80C20A9F80D10AAF80C1087F801B09CF80010464A81
:4029400001F0FE018CF8001093F800C04FF008090CF0F70C83F800C090F800C04FF010080CF0F70C80F800C0374420204FF0400C3F783A49C2F80090394BC2F80080106030
:40298000C2F800C0DEF80020364FC1F80090D364E0223A70DEF80040334B344FDFF800A1C3F80090C1F8008027658AF80020DEF800402F4FC3F80080086067656E748AF84E
:4029C0000120DEF80040DFF8DC902A4F1860DFF8D880C1F800C0C4F858903A70DFF8CC90C3F800C0DEF800C0A7F1A0274FF0040EC1F800E0643FCCF8489088F80020C3F84F
:402A000000E03B781C4A43F040033B7013781B4C43F040031370AE7485F813B097F87E3DDFF88CB003F0FD0343F0020387F87E3D07F67E5704F0D2FC0197034E48E000BF09
:402A4000A3430040B34300400C4F004020370020174F0040264F004080E200E080E100E00D51000003E400E000E100E0954F0000A95F000006E400E0B2430040A43700203E
:402A8000044F0040064F00401E4F0040194F00401C4F00401B4F0040244F004008ED00E004E400E0D55D000002E400E0355200002337002001F076F96A7D724B12BB997C15
:402AC000002940F0E382EA7C6E4B002A40F053846B7D6C4AB3B9117D0029EBD0137521783C2002F037FB2278674B002A00F0558419783D2002F02EFB01F054F96A7D614B92
:402B0000002ADCD002F0C6FE02F096FE00235F4AAB74EB741378DFF8989103F0FD0343F002031370DFF88CA10523DFF88C810193564B564A1B78002603F0FD031370AE75C9
:402B400005F086FC99F80030022103F0FE0389F800309AF800304FF4FA5203F0FB038AF8003098F8003003F0FB0388F80030484B1970484B47491A601B68002B78D04EF60D
:402B80006027BB4240F25387A3F56A423B46603A0A6099F80010404A01F0FE0189F800109AF800603D4906F0FB068AF8006098F800702E7C07F0FB0788F80070384F138012
:402BC0000B803F78374F20233B60DFF8B8E0002E3CD199F80030DFF8E4C003F0010389F800309CF80070304B07F0FC078CF8007099F800C02D4F4CF0040C89F800C093F84F
:402C000000C00CF0CF0C83F800C093F800C04CF0300C83F800C093F800C00CF0F00C83F800C093F800C04CF00F0C83F800C03B784FF0FF0C43F001033B700123A2F800C00C
:402C40008EF81030164BA1F800C01E709AF8003043F004038AF8003098F8003043F0040388F8003099F8003043F0010389F8003005F0F2FBAB7D03F0FF06002B3AD1024FBC
:402C800022E000BF6881FF1FA437002020510040B4360020B83600201C4F00401E4F00401B4F004080E200E0234F0040194F0040184F0040A3430040B34300401A4F00403E
:402CC00001F070F8AB7DABB92B7D002BF8D06E4B3C201E75217802F03DFA23783D20002B00F0A083397802F035FA01F05BF8AB7D002BE9D00027AF7505F0AAFB99F80030EC
:402D0000202203F0FE0389F800309AF800305F4E03F0FB038AF8003098F8003003F0FB0388F800305A4B1B785A4B1A605A4B37601F7005F091FB594B584A1B7803F0FD03CA
:402D400043F002031370AF7505F082FB99F80030022203F0FE0389F800309AF800304FF4FA5103F0FB038AF8003098F8003003F0FB0388F80030484B1A7031603368002BB0
:402D800078D04EF660218B4240F24D86A3F56A420B46603A326099F80010414A01F0FE0189F800109AF800603E4906F0FB068AF8006098F800702E7C07F0FB0788F80070E1
:402DC000334F13800B803F78324F20233B60DFF8B8E0002E3CD199F80030DFF8D8C003F0010389F800309CF800702F4B07F0FC078CF8007099F800C02C4F4CF0040C89F896
:402E000000C093F800C00CF0CF0C83F800C093F800C04CF0300C83F800C093F800C00CF0F00C83F800C093F800C04CF00F0C83F800C03B784FF0FF0C43F001033B70012319
:402E4000A2F800C08EF81030114BA1F800C01E709AF8003043F004038AF8003098F8003043F0040388F8003099F8003043F0010389F8003005F0F0FAAB7D03F0FF06002BC4
:402E800034D10B4F1CE000BF6881FF1FB83600201B4F004080E200E0B4360020205100401C4F00401E4F0040234F0040194F0040A43700201A4F004000F074FFAB7DABB9F7
:402EC0002B7D002BF8D0624B3C201E75217802F041F923783D20002B00F0AF82397802F039F900F05FFFAB7D002BE9D00026AE7505F0AEFA99F80030202203F0FE0389F805
:402F000000309AF8003003F0FB038AF8003098F8003003F0FB0388F800304E4B1B784E4B1A604E4B1E604E4B1E7005F095FA019B013B13F0FF0301937FF4FAAD9DF8042056
:402F4000DFF83091DFF828A1012389F800208AF8003004F05BF9434EDFF8F48000272B7D002B65D100F01EFF2378022B00F070823D4B3E4A1B8812889BB292B29A423A495A
:402F80003A4800F265823378002B40F077820B8802889BB292B29A4200F270829AF80030334A3BB999F80030324903F0FF07002B00F0888499F800302E4A002B40F068833B
:402FC0002D4B1B78002BC7D02C4B2C4A1B78002BC2D0002313702A4B294A1B889BB293B11388013B9BB213802378022B0BD0254B25491A780B7802F0020282F0020203F059
:40300000FD0313430B701E4B1B889BB2002B40F0658219491C4A0B701378DFF8348003F0FD0343F0020313702B7D0027002B99D088F814703C20217802F08CF823783D2053
:40304000002B00F01082317802F084F887E700BF6881FF1F1B4F004080E200E0B8360020B4360020A4370020AC360020AE360020B3360020B2360020BC360020BD3600201D
:40308000BE3600202151004020510040C9499A740978002938D0C84FDFF86C9307F1040C4FF00208C54B17F801EB19789BF800200846D2B202F1FF3A8B1AC1EB0A0AA3F143
:4030C0007F03BAFA8AFAB3FA83F34FEA5A1A5B09914238BF5346002BE8D1914200F054810B06B74A4CBF00204B1C02F800E0B34A54BFDBB201231370B24B1B78990748BF0A
:40310000C9F800806745CDD1019A137803F0FD0343F00203137005F09BF93378AA4903F0FE0333700B78A94A03F0FD030B701378A74903F0FD031370A64A01231370A64B15
:4031400019601B68A449002B76D04EF66027BB4240F28184A3F56A423B46603A0A603278994902F0FE0232700A78DFF860C202F0FD020A709CF80020984F02F0FD028CF817
:40318000002001F66D31964ADFF880E20B803B8010239EF800C01360924B1A789846EABB3378DFF86C9203F00103337099F800C08D4B0CF0FC0C89F800C096F80090DFF890
:4031C00054C249F0040986F8009093F8009009F0CF0983F8009093F8009049F0300983F8009093F8009009F0F00983F8009093F8009049F00F0983F800909CF800304FF044
:40320000FF0943F001038CF800300123A1F80090A7F800908EF8002088F800306A496B4A0B7843F002030B70137843F002031370337843F00103337005F00EF905F008F96E
:403240004EF66021694A604F1378A2F6653203F0FE0382F8653B3B7803F0FB033B701378012703F0FB031370614B1F70614B614F19601B68002B77D08B4240F2E483A3F5E6
:403280006A420B46603A3A60584ADFF83CC111784E4F01F0FE0111709CF80010DFF878E101F0FB018CF8001039780CF67B3C01F0FB013970297CDFF86481494FAEF80030AC
:4032C000ACF80030202398F800903B60DFF83091D1BB1378DFF848A103F0010313709AF80070454B07F0FC078AF8007092F800A0424F4AF0040A82F800A093F800A0FF222C
:403300000AF0CF0A83F800A093F800A04AF0300A83F800A093F800A00AF0F00A83F800A093F800A04AF00F0A83F800A03B784FF0010A43EA0A033B7089F810A0AEF8002039
:40334000ACF8002088F800101F4A2049137843F0040313700B7843F004030B7092F8753B43F0010382F8753B05F076F8EA7C244B002A3FF4ADAB0022DA74019A137803F096
:40338000FD031370FFF759BB0E4B1B785A073FF5A7AE1C4B83F800E0B4E61A7802F0FF00002A00F054831978122001F0D3FEFFF781BB00BF21370020D48A00002237002015
:4033C000243700206A640040A3430040B343004070110100183700201C370020124F004080E200E020370020174F0040184F0040B4360020B8360020234F0040194F00406B
:403400006881FF1F4A64004000E200E00F4F00400E4F00400D4F00401C4F00401B4F00401A4F00403B78122003F0FF02002B7FF459AC104603F052F942E43B78122003F0F2
:40344000FF02002B7FF44AAD104603F047F933E5804B804F1B78022B1CD0002389F800308AF8003078E53378122003F0FF02002B7FF4E9AD104603F031F970E5754B754F9B
:403480001B78022B00F0C180002389F800308AF8003095E504F0DCFF6F4B6F491B786F4A03F0FE030B706E4BA1F669311B78DFF8D8C103F0FD030B701378DFF8C0E103F0CE
:4034C000FD0313709CF800201023664ACEF80030002313603B7004F0BFFFBEE704F0B8FF44F6206260495E4F0B78A1F6653103F0FE0381F8653B5A4B1B7803F0FB033B70D6
:403500000B78032703F0FB030B70584B1F70584B1A601B68564A002B74D04EF6602C634540F2A581A3F56A43603B13604E4B4C4F1A78DFF828E102F0FE021A70484A4D4924
:40354000127802F0FB023A709EF8002007F6783702F0FB028EF80020474A95F810E0A2F800C0464AA1F800C04FF0200C97F80080C2F800C0BEF1000F33D11A78DFF80C8134
:4035800002F001021A7098F800C03D4A0CF0FC0C88F800C093F800C04CF0040C83F800C013784FF0FF0C03F0CF031370137843F030031370137803F0F0031370137843F05C
:4035C0000F03137018F8013C0122134308F8013C2C4B1A74284BA3F800C0A1F800C087F800E01F4B1E4A1B781C4943F0040313700B7843F004030B7092F8753B43F0010378
:4036000082F8753B04F028FFA6E404F021FF124B11491B78114A03F0FE030B70104BA1F669311B78DFF860C003F0FD030B701378DFF848E003F0FD0313709CF80020102328
:40364000084ACEF80030002313603B7004F004FF1AE700BF183700200C4F0040B3430040A34300401C370020184F0040B4360020B83600201E4F00401C4F004080E200E0D8
:40368000234F00406881FF1F0F4F00401A4F0040794B00211B781170002B35D0DFF818E20EF10408754B1EF8017B19789BF800200846D2B202F1FF3C8B1AC1EB0C0CA3F172
:4036C0007F03BCFA8CFCB3FA83F34FEA5C1C5B09914238BF6346002BE8D1914200F0BF800B06674B4CBF002001311F54634B54BFC9B201211970634B1B78980702D5624B9B
:4037000002221A60C645CDD10123002789F800708AF8003004F09CFE5C4B01901B785B4903F0FE030B705A4B59481B78594A03F0FD03037013784FF0020E03F0FD031370B6
:40374000554B564983F800E0554B19601B685449002B7FD04EF6602E734540F25E81A3F56A427346603A0A60484A48491278484802F0FE020A70464ADFF818C11178494F56
:4037800001F0FD0101709CF800E047490EF0FD0E8CF800E002F66D32DFF820E113800B80102397F800C0CEF80030404B93F800E0BEF1000F3DD1354B34481B78DFF800818A
:4037C00003F00103037098F800C0394B0CF0FC0C88F800C090F800C04CF0040C80F800C093F800C00CF0CF0C83F800C093F800C04CF0300C83F800C093F800C00CF0F00CDD
:4038000083F800C093F800C04CF00F0C83F800C018F8013C4FF0FF0C43F0010308F8013CA2F800C0214A0123A1F800C087F800E01370174B16491B78164A43F002030B70DA
:40384000137843F002031370104B1B7843F0010382F8593B019804F0FFFDFFF7B1BB094B1B785A073FF53CAF124B1F704AE700211FFA83FC116059E6213700202237002006
:40388000243700206A64004000E200E00C4F0040A3430040B343004018370020A08601001C3700200F4F0040124F004020370020174F00404A640040D48A000080E200E0D3
:4038C0000E4F004001230F70137004F0C1FDC34B01901B78C14903F0FE030B70C04BC0481B78C04A03F0FD03037013784FF0020E03F0FD031370BC4BBC4983F800E0BC4BD4
:4039000019601B68BA49002B00F082804EF6602E734540F28580A3F56A427346603A0A60AE4AAE491278AE4802F0FE020A70AC4ADFF8B0C21178AF4F01F0FD0101709CF814
:4039400000E0AD490EF0FD0E8CF800E002F66D32DFF808E313800B80102397F800C0CEF80030A64B93F800E0BEF1000F3FD19B4B9A481B78DFF8E88203F00103037098F855
:4039800000C09F4B0CF0FC0C88F800C090F80080DFF8D0C248F0040880F8008093F8008008F0CF0883F8008093F8008048F0300883F8008093F8008008F0F00883F800802B
:4039C00093F8008048F00F0883F800809CF800304FF0FF0843F001038CF80030A2F80080864A0123A1F8008087F800E013707C4B7B491B787B4A43F002030B70137843F020
:403A000002031370754B1B7843F0010382F8593B019804F021FDFFF7CDBA0F609BB2A3E60F609BB27CE737609BB2FFF7B4B90E609BB2FFF7AEB8FF2812D90024944238BF79
:403A40001446FEF701BD00229BB23A601CE402F045FEFFF72FB800229BB20A60FFF77FBBDBB29A4228BF1A461446FEF7EDBC6548654A0378654943F0100303701378DFF8CD
:403A8000E89103F0FE033F20137008704FF480725F4989F800005F4804F0DEFE4FF480725B495D4804F0D8FE4FF480725B495C4804F0D2FE5B4E4FF400725B495B485C4C94
:403AC00004F0CAFE4FF400725A495B4804F0C4FE0FCE0FC40FCE0FC40FCE0FC496E80F00DFF888E184E80F00544E554BF82289F800708AF807808EF8007086F800801A702D
:403B0000FEF7BDBC4F4B01F5A35109311A700A701A78A1F5905102F0F3021A701A78193942F004021A701A780124C2F3810202F19242063292F820218471D2B20A701A78F7
:403B400002F0FD021A701A78D2B21A70FEF756BC3D4B01241A7081F8252A1A78A1F2F77102F0F3021A701A7842F004021A701A784471C2F3810202F19242063292F8302179
:403B8000D2B20A701A7802F0FD021A701A78D2B21A70FEF721BC03F0A3FD00232370FEF70FBC3378FEF7F1BB284CFEF73BBB284B284C0C2119702378274943F02003237043
:403BC00003200A7003F05AFE2378012203F0FC0343F003032370FA70FEF7DABA0C4F0040A3430040B343004018370020A08601001C3700200F4F0040124F004020370020B8
:403C0000174F0040A643004080C7004088C700409488000000C4004000C500409489000000C60040948A0000288D000000C0004000C70040288F000000C200409CC7004021
:403C400084C700402058004024580040DC37002004580040055800400658004080E200E00E4F00400D4F00408CC7004098C700403D4B34701A68D00774D51A6822F0010229
:403C80001A6000BF00BF00BF384D2C60084604F0E3FB374B1A78910762D5364A0D21B624E0201470107011701A78910706D41C46182004F0C5FB23789F07F9D52C4B1A78C2
:403CC000920702D51C78A4083DD0072404F0C0FB2B680021012B024631707EF4E8A922490B6843F001030B6000BF00BF00BF002310462B6004F0B0FB74B3FEF7DAB91E4AEA
:403D00001E4E15681E4C1F48E0232E64237001701D48146872251D4A05701D4E1D49202010701D4D1D486FF4807766643A440B700626472402212E7004701170184A01238C
:403D40001370FEF770B904F083FB2B680246012B3470C4D004F080FB03F008FDFEF7A9B90424B3E7014D91E704000840E0370020224700402047004008ED00E05D7A00002C
:403D800000E400E0E8370020886500408B650040F579000001E400E02964004039640040213700202DE9F04FDFF80C83A9B098F80070FFB2032F00F0158198F80030022BE4
:403DC00000F0C580DFF88C92DFF8A082A149B8F80020B9F8003092B29BB29A4280F09780B8F800309BB2002B00F0F0809A4FB8F800303E899BB25A24AB2204FB0374310A80
:403E00001E238DF840208DF841308DF842608DF843100DF147020023581C991CE518204421442D7B0333007B097B5A2B02F8020C02F8035C02F8011C02F10302ECD100225D
:403E400010AB27A853F8041B834282EA0102F9D19DF89D109DF89C3080484B405340C2F307215940C2F307434B400178013683EA12623E818DF89E20002936D0784F794D78
:403E8000DFF838B2DFF838C20DF13F060DF19E0A16F8014F39782A780846D2B202F1FF3E8B1AC1EB0E0EA3F17F03BEFA8EFEB3FA83F34FEA5E1E5B098A4288BF7346002BDA
:403EC000E9D18A423CD00A0659BF0131C9B2012100200BF8004039709CF800309B0702D5614B02221A605645D2D1B8F800305F4901339BB2A8F80030B8F80020B9F80030DE
:403F000092B29BB29A4210D229B0BDE8F08F584B93F85C2A22B1002283F85C2A83F85D2A29B0BDE8F04FFCF7D3B80B889BB2FF2B56D8D9B2382029B0BDE8F04F01F00AB9C2
:403F40009CF800305B07BED44A4B1C70CBE74A4C2378002BD8D04949494B0A78494802F0FE020A701A7801F5B35102F0AF021A7002701A780C3142F0080202701B78424D43
:403F800003700B78414ADBB22B7013784049DBB20B7013793F4D4049404ADBB2DFF8B4902B70002001230870137003F02FF9B9F8003036209BB2FF2B94BFD9B2FF2101F0D7
:403FC000C9F80023237088F80030FDE60B8837209BB2FF2B94BFD9B2FF2101F0BBF805E7FF21A7E72E4B5B78002B99D004F030FA2C4B4FF000091C7883F80090E4B204F034
:404000002BFAE4B904F024FA274A13781470DCB204F022FA44B1254E3368002B00F0F2841F4A1A2011799847214C2378032B3FF677AFDFE813F09B027302CD007A00184BD7
:404040001C79012C00F280851A4BDFF878A01D4655E000BFAE3600208081FF1F21370020223700202337002000E200E0AC360020302B00204A640040B0360020004E00408D
:40408000C036002072640040C780FF1F63640040C1360020C2360020B2360020B3360020D0360020D7360020D6360020C8360020E836002030910000A43700202437002016
:4040C0006A640040A837002081B2FF2929D8B24280F0FF83234405EB83031B693046984704EB44020134E4B20AEB8203022C0AF82260C3F8049083F8089000F0F183A30026
:40410000191905EB81014A7B897B5018561A8A421FFA80FEF6B2D7D8BEF1FF0F40F2D9830026964238BF1646D4E7254B1E7904F08FF9244B1A78002A00F0F4840025D3F823
:4041400004901D7004F088F9238BE562C4F808901D4A2BB1013B9BB21383002B7FF4E0AE1A4AB1008B1902EB830389EAE9709B68A0EBE9701B1A002B0192226AB8BF5B4260
:404180009342DFF844E003DAB0F5802F40F39D86019B0E4403EB86052B6994F82400984794F82400E369014684F82A001A4694F82600A36002F052F9002840F09D83AFE6D6
:4041C000D03600208081FF1FE836002030910000B44B1B79069304F03BF9B34B1A7802F0FF05002A00F028844FF000095E6883F8009004F031F9069BAC499A000C921A4478
:4042000001EB820286EAE6709368A0EBE6701B1AA748019183FB0001002871F10003C4F82C90A660C0F2608610F1FF5041F100014FF07F52002304F047F90A90994B18799B
:40424000002800F0FD859B4B41F28732194601EB4010D0F81090062189EAE970A0EBE97005930023C1FB00231046194641F28832002304F029F9002800F0BE8401280246B8
:40428000B8BF01220A9E3346B246002EB8BF73428342D8BF4FF0000A9342CDF82CA040F3A7849B1A013B93FBF2F3002E03F10103C0F2A68407930C9B069A9A18019B03EB05
:4042C0008202517B937B94F82A209942089240F28984CA1AD2B2164604920B449AB2FF2A94BFDBB2FF230D93B9F1000F00F031840B9B002B40F0A0841A46069908984901AA
:4043000063600991B042C0F221840D9E8642C0F27D840646C3B204930123089A511CB14202F1FF3280F29785CAB204927BB1B9F1000F0CD00B9951B162685F4B0A449A426A
:40434000B8BF1A465D4B9342A8BF13466360099A059B1344B3F814A094F827300AF1FF32B2F5805F28BF4FF4805A554A23B1136907998B4200F056850123E3820A99A38A54
:404380000122E160079913449BB221619DF81010934284F82810A38284F8272002D013F0FF0F6ED1474E3368002B00F03284089913209847A26833681546002B00F029840F
:4043C000110E1D2098473368002B00F02284C5F307411D2098473368002B00F01A84C5F307211D2098473368002B00F01284E9B21D2098473368002B00F00B840A9D41206A
:40440000290E98473368002B00F00384C5F30741412098473368002B00F0FB83C5F30721412098473368002B00F0F383E9B2412098473368002B00F0EC83079D4220290E2C
:4044400098473368002B00F0E483C5F30741422098473368002B00F0DC83C5F30721422098473368002B00F0D483E9B242209847E38A3268FF2B00F2B983D9B20AB14320D8
:404480009047069A0C9B04981344019A84F82A0002EB83052B699847E28A094B524521D312E000BFD03600208081FF1F3091000078741300D88C000000EE85FF00127A005F
:4044C000E8360020C8360020079A3AB99B68002BB8BF5B42B3F5802F40F3A183B9F1000F00F09F83099A059BA18A13441A8B1D4B9142FFF415AD079A002A40F085839868B4
:404500000028B8BF4042B0F5802FCCBF0020012002F0CEFD002840F0EF8101E503F098FF114B1A7802F0FF05002A00F0858200255E681D7003F090FF238BE562A660094AF8
:404540002BB1013B9BB21383002B7FF4E9AC002302226360A382E38284F82730E36023612270DDE4E83600208081FF1FB14BB24E93F804903368002B00F057824FEA8902C1
:4045800017461546AD4A4946152001929847AB4A07EB090302EB8303D3F8088037684FEA1861A7B12A20B847376887B1C8F307412A20B8473768C8F3072147B12A20B84785
:4045C000376827B15FFA88F12A20B8473768994B1979002900F08F82994B41F28732184600EB4111D1F81080059388EAE8700621A0EBE8700023C1FB00231046194641F2D0
:404600008832002303F060FF424682464FEA1861BAF1000F049208BF4FF0010A002F00F065823F20B847049A3768C2F30741002F00F02C843F20B8477F4B1F68002F00F0AD
:404640005582049A3F20C2F30721B8477A4B5FFA88F11A68002A00F019843F209047764BBAF1FF0F1F6800F33F825FFA8AF10FB14020B847059B734A03EB4913D98A6D4B1A
:4046800012781B7900209A4221836060A082E08284F82700E060206184F82800A060E062E061206284F8240084F8250084F8260000F2FC81019A03EB830302EB8303597B43
:4046C0009A7B914201EB020340F2EB819FB28A1AFF2FD0B200F2E1818142DBB203D3994228BF194608462B464B449946019B84F8290003EB890584F82A002F69B84703F0E9
:40470000FBF8514A29791578FF2D30D0A9425BD0022D2AD8DFF848C10123AB409CF80000DBB2034221D0DFF85CE120EA03035EF825E046488CF800309EF8003010F805C0AF
:40474000434823EA0C03405D424D8EF800302B5C013BDBB22B5443B93F4D404B55F82050185C2B7823EA00032B70FF231370FF292AD001238B400229DBB224D8384D2878C0
:40478000034220D1DFF8FCE003435EF821E02F482B709EF80050435C2D482B43455C2D488EF80030435D63B9DFF8ACE02B4B5EF825E05B5D9EF800C04CEA03038EF800303D
:4047C000435D013343551170264D2B78002B00F048813368184D33B1192098472B6813B102214420984703F075F994F82A00B8471D491E4B1E481A780B78002A23F0030376
:4048000014BF0327012743F018031F43194A0F7007701378184D43F0100313702E782B781649174F03F0FE033F202B704FF40072087029E0D0360020C8360020309100005A
:40484000D88C0000D8370020C980FF1F809100007C910000DC3700207491000070910000D9370020CC360020C880FF1FC436002074650040A643004080C7004088C70040BD
:404880008CC7004084910000B6493870B64803F0E3FFF6B20021B54B3970F822F1071A7003D52B7843F001032B7003F0D1FDB04B00221A7003F0D0FDAE4A137843F0010399
:4048C0001370238B002B14BF012302232370FFF727BBC0B2824228BF02461646FFF7FABBA54B1979A54BA4481B680022C2700BB11B20984701F042FC9F4BA14ADC78A1481D
:40490000251CA14E4FF0000318BF0125012188F8003005703370117002F078FC9B4B9C4A1B781278DBB212B91F1C18BF0127994A994D1378214623F0030343F018031F4338
:40494000177011202F7000F005FC944B1A78002A3FF4E6AA924A84F0770712780026AB25C220B5218DF843408DF844701E708DF840508DF841008DF84210002A3FF4D0AA33
:40498000884F894DDFF84C92DFF84CC2DFF84CB210AE0DF145084FF0020A16F8014B39782A780846D2B202F1FF3E8B1AC1EB0E0EA3F17F03BEFA8EFEB3FA83F34FEA5E1E39
:4049C0005B098A4288BF7346002BE9D18A4212D00B0659BF4B1CDBB20123002009F800403B709CF800309A0748BFCBF800A0B045D3D1FFF795BA9CF800305A07E8D46B4B63
:404A00001C70F4E76A4C2378032B3FF689AA01A252F823F0254A00001D450000D14100002B410000544B93F80490624B002701934FEA89031D46CAE503F00EFDE36A5E4AE9
:404A400001339342E3625A497FF66AAA8A68284691F82A1001F002FD00287FF44DAFFFF75FBA564803785A0714D443F00403544A03701378534843F01003137043783BB9B8
:404A8000DFF85CE19EF8002042F010028EF800200133437001232B709BE6884238BF084621E69AB2FF2AF8D8DBB218E6019A03EB830102EB81014A7B897B434F03EB43032A
:404AC0008A4217F8237002EB010326D9521A99B2FF29D0B21DD88742DBB2FFF404AE9F42384628BF1846FEE5FF21C0E5BAF1FF0F7FF7BBADBEE5354B1B78013BDBB2072B73
:404B000040F2CB8108460A468846314B824605937EE5B84238BF3846E5E59AB2FF2AF8D8DBB2DCE703F098FCE36A234A01339342E3621F4C7FF6F4A91E4B06EB860603EB9E
:404B400086031B69FFF729BB2146CBE61346FFF7E4BB0699089849014A464B460991FFF7D1BB00BF288D000000C0004084C700408081FF1F004E0040D0360020C836002092
:404B8000B3360020B1360020B2360020C3360020C4360020C880FF1F74650040C53600202137002022370020233700204A640040E8360020309100007F841E00D937002067
:404BC0000D510040DC370020A8370020CA80FF1FD88C0000243700206A64004000E200E0005B004000260496FFF777BBFF2145E400230793FFF75FBB01200246FFF742BBD9
:404C00005B420793FFF757BB002081E40496FFF784BBE38AFF2B3FF634AC00222DE4012076E44846A26894F82A1001F017FC00287FF462AEFFF774B9069B05985B0119465E
:404C40000993C3185A680B464158002A00F0E58092464FEAE27BB9F1000FA8BFCC460B98B8BF4FF0FF3380FB0101CDE90201039DA8BF01234FEA850E029D0E934FEA85003C
:404C80004EEA95714FEA41134FEA4012B8BFC9F1000C43EAD063121A63EB0103DDE9020180185941CDE902016146039B0CFB0BF0CA17D900029B0AFB020041EA5371DB0060
:404CC0000293ACFB0A230344039152EA030100F03481002A73F10001C0F2208159104FEA32004FF0000EDDE902ABBEEBDB7F00F00C81BAEB000A6BEB010B5046594603F05C
:404D0000E3FB0E99099A059B00FB01F11344DA680F9198686168002A00F0F28092464FEAE27BB9F1000FA8BFCC4681FB0001CDE90201039DB8BF4FF0FF334FEA850E029D67
:404D4000A8BF01234FEA85004EEA95714FEA40120E934FEA4113B8BFC9F1000C43EAD063121A63EB0103DDE9020180185941CDE902016146039B0CFB0BF0CA17D900029B86
:404D80000AFB020041EA5371DB000293ACFB0A230344039152EA030100F0E380002A73F10001C0F2CF8059104FEA32004FF0000EDDE902ABBEEBDB7F00F0D880BAEB000A2D
:404DC0006BEB010B5046594603F07EFB0F9A0E9B069900FB03230C9A94F829000A44019901EB820292F90C2002FB030092B10B9B002BD5BF0121002100230123002A02DBFB
:404E00001A460B461146B9F1000FC0F2B8800A46FFF778BA1346FFF775BA0122002392469B4618E7089B04998B427FF4A5AA4FF6FF71D38A8B421CBF0133D382FFF79EBA73
:404E4000514B1B78013BDBB2072B0AD981464F4B0593FFF710BAB242C4BFD2B20492FFF765BA41F287304A4A002132F813900623C9F57A7989EAE972A2EBE972C3FB020109
:404E800041F28832002303F01FFBE0E7BAF1FF0F3FF7F0AB0027FFF7E8BB41F287303C4A002132F813800623C8F57A7888EAE872A2EBE872C3FB020141F28832002303F027
:404EC00003FB42464FEA18611FE69EF825304A4619469EF826008EF82A3001F0BFFA00287FF40AADFFF71CB8B0F1FF5041F1FF314FF07F52002303F0E7FA0A90FFF79EB9F9
:404F00000122002392469B460BE71AEB000A4BEB010B5046594603F0D7FAF2E64FEAD37E12EB0E0043F1000149104FEA300040424FF0010E61EB4101D5E6104619460122E1
:404F40000023CEE64FEAD37E12EB0E0043F1000149104FEA300040424FF0010E61EB410126E710461946012200231FE71AEB000A4BEB010B5046594603F0A6FA26E71A46DC
:404F80000B46FFF7BFB900BFCA80FF1FD88C0000188D0000F0B54E4A4E4B4F491B781378A2F6593203F0FE0382F8593B0B7803F0FD030B701378494903F0FD03137008685D
:404FC00078B9474A1378DBB2012B05D01378022B40D000231370F0BD42490B7000231370F0BD0B68002B34D04EF66020834239D9A3F56A420346603A0A60354C36482278FB
:40500000394902F0FE0222700278384D02F0FD0202700A7800F66F3002F0FD022D4E344F0A702B8010210380324A337839601178E1B129482C490378254A43F002030370D3
:405040000B7843F002030B70137843F001031370F0BDF0BD284B294901240C70187000231370F0BD00229BB20A60C6E72378DFF898E003F0010323709EF80070204B07F098
:40508000FC078EF8007094F800E01E4F4EF0040E84F800E01C784FF0FF0E04F0CF041C701C7844F030041C701C7804F0F0041C701C7844F00F041C703B78012423433B705F
:4050C000A5F800E0A0F800E031701470B1E700BF0C4F00400F4F0040A34300401C370020183700207A81FF1FB3430040104F004080E200E020370020B3360020B236002046
:40510000174F00400D4F00400E4F00400C4A0D4B0D491B781378A2F64D3203F0FE0382F84D3B0B7803F0FE030B701378074903F0FE0313700B7813B1054B01221A70704722
:40514000004F0040034F0040A34300408D3500208C3500202DE9F04F2E4A2F4B12781C78D2B282F0C4034B4083B04340AB26C4258DF802008DF803108DF804208DF8053086
:405180008DF800608DF80150002C38D06E46DFF894E0224DDFF89090DFF890C0DFF890B00DF106084FF0020A16F8014B9EF800102A780846D2B2571E8B1A7F1AA3F17F03C9
:4051C000B7FA87F7B3FA83F37F095B098A4288BF3B46002BECD18A4214D00A0659BF0131C9B20121002009F800408EF800109CF800309B0748BFCBF800A04645D4D103B0A4
:40520000BDE8F08F9CF800305F07E6D4044B1C70F3E700BFA437002021370020233700204A64004022370020243700206A64004000E200E02DE9F04FBA4DDFF848E32B7852
:405240009EF80020B84CD2B2B84822700278B84ED2B2B84932700A78B74FD2B23A70227883B01206DBB200F13D812278AE49D00600F1C180022B06D00A78D20740F1BB807D
:40528000012B00F02B81AD4A127802F00302013A012A40F28F81AA48017890F801E08278120442EA0E220A431102A64948BF42F07F420978012903D1002AB8BF1F325211A9
:4052C000DFF8C4820121C8F80020D8F800009E4AC8F8040088F80810127822B19B4A1278002A00F088802A78022A40F08480984A00921278002A7ED1964ADFF890B2B2F871
:4053000000E0BBF800100EF1FF3292B2B2F5007F34BFF4464FF4007C89B2614501926AD2DFF86CC2BCF8001089B21D2963D8DFF81C92BCF8001099F8009001EB410189B23C
:40534000B9F1000F00F03482DFF84892D9F8008028F07F42104608F1010AC9F800A0BBF800807D4A4FF05A091FFA88F809FB08285FFA80FA08F801A0BBF8008001F1010A2B
:405380001FFA88F809FB0828C0F3072208F80A20BBF80080704A1FFA88F809FB08280231C0F3074A08F801A0BCF80010DFF8DC81013189B2ACF80010BCF80010DFF8D0C143
:4053C00089B21D2917D9019AB2F5007F4FF00002ACF80020B8F8002028BF4FF4007E013292B2A8F80020BBF8002092B2724502D3009901220A70227850071ED42378190750
:4054000008D52B78474A012B04BF02231370504B01221A702378DA065DD52B78414A022B1CBF022313704A4B01221A703178362003B0BDE8F04FFFF78DBE012BDED103F00A
:4054400007F8464ADFF850A11378DFF8508103F0FE0313709AF80030414903F0FE038AF8003098F800303F4A03F0FE0388F8003009783D490823DFF828B10B604FF00009B7
:4054800082F8009002F0E8FF9BF80020022A00F06D81364B364A4FF00008DFF8089182F8008083F8008099F80030032B00F03C81304A0023304831491370234A03700B8086
:4054C00012780AB12E4A138002232B7039783320FFF740FE92E703B0BDE8F08F0B785B07ADD48BE7DFF8C080DFF8C0C098F80020DFF8BC9042F008024FF0010A89F800A054
:405500008CF8002098F800208CF800209EF80020D2B222700278D2B232700A78D2B23A70A3E600BFA4370020C780FF1F63640040C136002067640040C2360020C880FF1F08
:405540007081FF1FCC80FF1FC3360020C4360020B03600205881FF1F8C81FF1F004F0040034F00408C35002080E200E0B3360020B2360020BC360020BD360020BE360020C9
:405580006481FF1F6C64004090350020AE3600205A81FF1F6081FF1FA3430040B343004018370020B4360020C0360020726400407C81FF1F804908784A788978090441EA97
:4055C00002227E4902430978100248BF42F07F42012903D1002AB8BF1F3252114FF001017748DFF804C2DFF804E2CCF800200170BEF8000080B2002840F08F80714800786C
:4056000000283FF4F8AE287802287FF4F4AE6E4991F800E000910EF0FF0ABEF1000F7FF4EAAEDFF8CCE1DFF8CCB1BEF800E0BBF800C00EF1FF381FFA88F1B1F5007F34BF48
:40564000F0464FF400781FFA8CFCC4450091BFF4D2AEDFF8A4C1BCF800801FFA88F8B8F11D0F3FF6C8AEBCF80010BBF80080084656494FF05A091FFA88F809FB08180146B8
:4056800001EB41091FFA89F949465FFA82F908F80190BBF80080481C01914C494FF05A091FFA88F809FB08180199C2F30729023108F800900846BBF8008044491FFA88F81F
:4056C0004FF05A0909FB0818C2F3074208F80020BCF80020013292B2ACF80020BCF8002092B21D2A7FF687AEACF800A0BBF800200099013292B2ABF80020BBF80020B1F54B
:40570000007F28BF4FF4007E92B27245FFF473AE4FF001022C490A706DE6BEF80020013A92B2AEF8002066E602F092FE284A29491378A2F6653203F0FE0382F8653B0B7897
:40574000DFF8B8E003F0FB030B701378202103F0FB031370204A9EF80030204B1160C3F8008089F8008002F077FEA1E602F070FE1B49DFF88CE00A781A4B02F0FE020A707E
:405780009AF80020102102F0FD028AF8002098F8002002F0FD0288F800209EF800200E4A1160C3F800908BF8009002F055FE70E6D8F800201046D2E57481FF1FCC80FF1F40
:4057C0008081FF1FC3360020B03600208C81FF1F184F0040A343004080E200E0B83600200C4F00401C3700208481FF1F6481FF1F5881FF1FAE3600205A81FF1F1B4F004051
:405800000F4F0040094B1B786BB9003018BF0120074A0849137823F0030343F0180318431070087070470320F2E700BFC4360020C880FF1F7465004070B50F4C02F008FE2D
:4058400023780E4903F0FE0323700B780C4A03F0FB030B7013780B4E03F0FB0313700A4C0A490B4A33782025002325600B601370BDE8704002F0F0BD184F0040A3430040CD
:40588000B34300401B4F004080E200E0B8360020B436002070B50F4C02F0DAFD23780E4903F0FE0323700B780C4A03F0FD030B7013780B4E03F0FD0313700A4C0A490B4A4D
:4058C00033781025002325600B601370BDE8704002F0C2BD0C4F0040A3430040B34300400F4F004080E200E01C370020183700202DE9F84F8C4A8D4E1378358803F0FE0369
:40590000691EB1F5007F137028BF4FF40075074602F09EFD864ADFF880821378854C03F0FE03137098F80030834903F0FE0388F800302378DFF8649203F0FE0323700822FA
:405940007E4BDFF868B209784FF0000AC9F8002083F800A002F080FD9BF80030022B00F0C480774B774A0024DFF8448214701C7098F80030032B00F097807349734A744B93
:4059800000240C7014701C8002F062FD3B1B7149714F18BF0123DFF81CE2704A3B700C806F4B70498EF8004014806F4A0C806F491C706F4B146002220C801A7002F04CFD4C
:4059C00033886C4C013B9BB2B3F5007F6A483ABFD9B21A0AFF21694B90F800C0217093F800E067494EF0200E81F800E093F8008028BF012281F8008022701A78DFF8B8E1FB
:405A000042F080020A701A780A7084F800C09EF800203978D2B2002944D1111C18BF01210278544C22F0030242F018020A43027022701A78524922F0100242F040021A7084
:405A40000A701A784F4842F008020A701A784E4C0A7002780538D2B2227010F8042C4B4CD2B2227000781A78494CC0B242F0020220700A701B780B703388B3F5007F03D958
:405A8000FF213E20FFF766FBFF2D94BFE9B2FF213520FFF75FFB244A137843F001031370BDE8F88F0321BBE702F0D2FC394A3A491378A2F6653203F0FE0382F8653B0B787C
:405AC000DFF8F8E003F0FB030B701378202103F0FB031370314A9EF80030314B11601C6088F8004002F0B8FC47E702F0B1FC2D4A2D491378DFF8C8E003F0FE03137098F870
:405B00000030102203F0FD0388F80030237803F0FD0323700B78C9F80020CEF800A08BF800A002F099FC1CE7004E00405881FF1F004F0040B3430040034F00408C3500200B
:405B4000B3360020B2360020BC360020BD360020BE3600205A81FF1FC4360020AC360020B0360020AE3600206081FF1F8881FF1FA437002074650040C880FF1FC036002006
:405B8000726400406C640040C780FF1FC1360020C2360020184F0040A343004080E200E0B83600200C4F00400F4F004018370020B43600205C81FF1FC33600201B4F00409E
:405BC0001C370020F8B502F043FC334A0021334B11701A78324902F0FE021A700A78314C02F0FE020A7022782F4F02F0FE022F4E22704FF47A712E4D2E4A398008243180F3
:405C00002D4995F800E014600C7894BB40F2E73E1A78DFF8ACC002F001021A709CF8002002F0FC028CF8002093F800C0234A4CF0040C83F800C01378DFF888C003F0CF0399
:405C40001370137843F030031370137803F0F0031370137843F00F0313709CF80030012213438CF80030A7F800E0A6F800E02C700A700B4C0B492378084A43F00103237080
:405C80000B7843F001030B70137843F001031370BDE8F84002F0E0BB8C350020004F0040A3430040B3430040044F0040064F0040034F004080E200E07781FF1F0B4F004088
:405CC000024F0040014F004037490B68002B33D04EF660208342F0B52FD800229BB20A60324C33482278334902F0FE0222700278314D02F0F70202700A7800F6873002F04B
:405D0000F7022E4E2E4F0A702B80402103802D4A337839601178B1B1254826490378234A43F0080303700B7843F008030B70137843F001031370F0BD7047A3F56A42603A8A
:405D40000A600346CCE72378DFF884E003F0010323709EF800701C4B07F0FC078EF8007094F800E0194F4EF0040E84F800E01C784FF0FF0E04F0CF041C701C7844F0300451
:405D80001C701C7804F0F0041C701C7844F00F041C703B78012423433B70A5F800E0A0F800E031701470B7E7E4360020244F0040A3430040B3430040284F0040274F004091
:405DC00080E200E07981FF1F2F4F0040254F0040264F00402DE9F0412648274B27491B780378274A03F0FE0303700B78254C03F0F7030B70137803F0F70313702368002B98
:405E000033D1214D2E78A6B1DFF88CC04FF0010E1E4E1F4F8CF800E0D6F80080D7F800C0E04508D81B4A336082F800E02B70BDE8F081BDE8F081D7F800E035686423CEEBBD
:405E4000050535603E68057803FB06F305F0FE0505700878002B00F0F7000870117808BF012301F0F70111702360BDE8F041FFF72BBF00BF244F0040274F0040A34300408D
:405E8000B3430040E4360020E0360020DC360020D8360020D7360020D636002037490B68002B33D04EF660208342F0B52FD800229BB20A60324C33482278334902F0FE0253
:405EC00022700278314D02F0FB0202700A7800F67B3002F0FB022E4E2E4F0A702B80202103802D4A337839601178B1B1254826490378234A43F0040303700B7843F00403EF
:405F00000B70137843F001031370F0BD7047A3F56A42603A0A600346CCE72378DFF884E003F0010323709EF800701C4B07F0FC078EF8007094F800E0194F4EF0040E84F89C
:405F400000E01C784FF0FF0E04F0CF041C701C7844F030041C701C7804F0F0041C701C7844F00F041C703B78012423433B70A5F800E0A0F800E031701470B7E7B836002068
:405F8000184F0040A3430040B34300401C4F00401B4F004080E200E07881FF1F234F0040194F00401A4F00401B4A1C4B1C491B781378A2F6653203F0FE0382F8653B0B781E
:405FC00003F0FB030B701378164903F0FB0313700B6893B9144A1378DBB2012B08D01378022B0CD01378032B0FD00023137070470E490B70002313707047FFF74FBF0C4B8B
:40600000012119700023137070470A4B0121197000231370704700BF184F00401B4F0040A3430040B8360020B43600207B81FF1F7E81FF1FBD36002070B53E4C237803F026
:40604000FE03237001F058FC01F044FD237803F0FE03237001F050FC37490B78FF2B44D0012B37D0022B354840D801249C400278E4B214421DD0324D22EA040255F82360CB
:40608000304C02703278E45C2F4D22EA0404EA5C2E4D3470AB5C013BDBB2AB5433BB2C4C2C4B54F822409A5C237823EA02032370027893070CD442F00202274C0270234809
:4060C0002278437842F0010222705BB30133437001230B70214B1A7852B901F0FBFC154A137803F0FE03137070BD14480278E0E712490A78500712D5144822F00402164CE3
:406100000A7042782178013A21F01001D2B22170427022B912490A7822F010020A7000221A70DAE794F8F32942F0100284F8F329CCE700BF004E0040C980FF1FD937002090
:4061400084910000809100007C910000DC37002074910000709100000D510040CC360020005B0040014B1870704700BF805B0040014B1870704700BF815B0040F8B502F0EE
:4061800067F9974E974D984C984A994F002399493B7033702B70236013600A78964C02F0FE020A7022786FF4376E02F0F702227071440A78914C02F0F702914D0A70914EFF
:4061C0004021914A2D782160136002F045F901F093FB33788D4CFF2B26D0022B22D801229A402178D2B20A421CD0894821EA020250F82350874922702A78C95C864822EA60
:406200000101C25C85482970835C013BDBB2835443B98349834B51F822109A5C0B7823EA02030B70FF2333707F4D2B78002B00F0B6804BF6803002F003F92378734A580727
:4062400012D5764923F00403784813704B780278013B22F01002DBB202704B7023B9744A137823F01003137000232B7001F044FB3378FF2B77D0012B3AD0022B73D801211C
:4062800099402278C9B2114260481FD0604F22EA010257F823E05F4902709EF80020C95C5D4F22EA0101FA5C5C4F8EF80010BB5C013BDBB2BB5443B959495A4B51F8221003
:4062C0009A5C0B7823EA02030B70027893070DD442F00202554922700A78504B42F001020A705A78002A6ED001325A70012333702B78002B39D101F0EDFB4E494E4A0B7810
:406300004E4C03F0FE030B70137801F5F34143F01003137025782378494E03F0FE033F20083123704FF40072087046493070464802F092FA4FF400724449454802F08CFA39
:40634000444BF822EDB2002131701A70EA0703D5237843F0010323703F4B0122002159709A701A70F8BD2278B0E72378274A590712D52A4923F004032C4813704B78027836
:40638000013B22F01002DBB202704B7023B9284A137823F01003137000232B70ABE723781A4A5F070CD443F00403204913700A781A4B42F010020A705A7852B101325A700F
:4063C00001232B7035E71A48017841F0100101708AE71748017841F010010170EEE700BFD6360020D7360020D8360020DC360020E0360020244F0040A343004080E200E09A
:40640000274F0040C980FF1FE4360020D937002084910000809100007C910000DC3700207491000070910000CC3600200D510040005B0040004E0040A643004080C70040D0
:406440008CC70040288D000000C00040D88A000000C2004084C70040D03600202DE9F84FDFF884815E4F98F804508146AB00581907EB8000467B847B9246A64206EB040229
:4064800040F2878090B2341BFF28E4B240F28E808C4238BF0C462B4407EB83031B6920466E0098474F4F731998F805209B00FC54FF2A3B44C3F804A083F808904A4B79D01E
:4064C000B9F1000F6FD04FF00109DFF824A1DAF8003023B1214613209847DAF80030721907EB82025468B4F5004F4EDA14F5004F73DA3E4C8021002B30D014209847DAF8B1
:406500000030E1B23A4C002B61D0142098477319226807EB8303D3F804B0FAB14FEA1B611D2090472368CBF30741BBB11D20984723689BB1CBF307211D209847DAF800302E
:406540005FFA8BF12A4C4BB11D20984723682BB1354407EB8507397A1620984798F80430214A0133DBB2012B88F8043025D9B9F1000F27D153791F49013382F804905371D9
:4065800081F800904846BDE8F88F7F2147F6FF74B1E790B2FF2804D8D4B28C4228BF0C4679E7002474E783F803908CE7A142FFF472AFF1E74FF0000987E70E4B0020187078
:4065C000BDE8F88FFFF7DAFD0120BDE8F88F0C2303FB0573D3F804B0B0E7C4F307218AE730910000A8370020D03600200080FFFFC8360020E836002030B42F4B4EF6602068
:4066000019782E4A01F0FE0119701D782C4C45F001052C491D7006E00B780138DBB280B25BB900282DD01378002BF5D12378013803F0010380B2002BF3D0234B1B7803F099
:406640000303012B2FD9022B22D0204B20491B8808889BB243EA0043127812B1194A0021117015491B4C0A78184602F0FE020A702278012A03D1181EB8BF1F30401130BCC8
:4066800070470D4A137803F0FE03137030BC70470F4B0E4810491B8800780978090241EA03430343D8E70A49084B08881B889BB243EA0043D0E700BF004E004018380020F7
:4066C000014E004011380020144E0040104E0040124E0040CC80FF1F114E00402DE9F04FAD4C0026AD4F2680668026713B7883B0022B0546667100F095800026A671E67158
:40670000237AA54F032B00F0AD80237DA44A03F0AF0343F008070021A24E21746174618213701770137032789F4EA049D2B232700A78D2B262750A790121D2B2084623758B
:40674000A275FEF707FD102000F048FE984B924C5F783FB1112000F041FEADB9284603B0BDE8F08F00F044F9022800F099800028F0D000358F4B18BF01250322012065769B
:406780001A7003B0BDE8F08F8B4BAB251B78C224B520002177228DF800508DF801408DF802008DF803108DF80420002B38D06E46824F834CDFF82892DFF828C2DFF828B2DD
:4067C0000DF105084FF0020A16F8015B397822780846D2B202F1FF3E8B1AC1EB0E0EA3F17F03BEFA8EFEB3FA83F34FEA5E1E5B098A4288BF7346002BE9D18A4271D00A06BB
:4068000059BF0131C9B20121002009F8005039709CF800309B0748BFCBF800A04645D3D100209CE701F014FE664A67491378A2F6593203F0FE0382F8593B0B78DFF8ACE1BB
:4068400003F0FD030B701378102103F0FD0313705E4A9EF800305E4B11601E603E7001F0FBFD4AE701F0F4FD5A4A57491378A2F6653203F0FE0382F8653B0B7803F0FB0348
:406880000B70137801F6783103F0FB0313704F4B202209781A60FE603E7201F0DDFD34E70123A7716371E37100F0B0FCE37D227EDBB2A2B91A1C18BF01227378464923F04E
:4068C000030343F0180313430B70112001217370FEF740FC65B9012003B0BDE8F08F0322EBE79CF800305B0789D43C4B1D7095E7314BAB251B78C224B520012176228DF813
:4069000000508DF801408DF802008DF803108DF80420002BDFD06E46284F294CDFF8C090DFF8C0C0DFF8C0B00DF105084FF0020A16F8015B397822780846D2B202F1FF3E2D
:406940008B1AC1EB0E0EA3F17F03BEFA8EFEB3FA83F34FEA5E1E5B098A4288BF7346002BE9D18A4211D00B0659BF0131C9B20121002009F8005039709CF800309A0748BF38
:40698000CBF800A04645D3D1A5E79CF800305A07E9D4124B1D70F5E7AC36002018370020726400406C640040C780FF1F63640040D0360020A43700202137002022370020FC
:4069C000233700200C4F0040A343004080E200E01C370020184F0040746500404A640040243700206A64004000E200E00F4F00402DE9F04F89B000F07FFF00F07DFF01F0B7
:406A000069F8B14A137803F0FE03137000F074FFAE4B1B78002B00F05582AD4A05921278002A38BF0022012B8DF81C2040F24F82059B1B7B002B38BF0023DFF8C8928DF89B
:406A40001D30D9F8002022B1012108469047D9F80020A04B022102930B469C489E4C017000210191012103919DF804104DF2B7159942DFF85CA2DFF88CB2DFF88C82637BF5
:406A8000C0F06081A07B834203EB000640F270811FFA86FE181ABEF1FF0FC7B200F26D81BB4280F01682E2B115209047A668D9F80030310EABB12A209847DBF8003083B1BB
:406AC000C6F307412A209847DBF80030C6F307213BB12A209847DBF80030E9B20BB12A20984700F009FF7D4B1A782379FF2A2CD0934254D0022A25D879480121914000788F
:406B0000C9B201421ED0774D754E20EA010155F82250754831702978805C744E21EA0000B15C734A2870525C7148013AD2B2425442B97048704A50F82100515C027822EA88
:406B4000010202706549FF220A70FF2B27D0022B23D8634901229A400978D2B20A421CD160485F4D0A4350F823005F492A700578CA5C5E492A430270C95C5D4A525C4AB933
:406B80005C485D4A50F82100525C05782A430270574A525C564801324254504A137099F80430002B40F05D8100F094FF236938469847524801F044FCFFF71EFD80EAE0753F
:406BC000A5EBE0750646A068401B80FB0801002871F10003C0F26B8110F1FF5041F100014FF07F52002301F06FFC0490019B002B00F0558141F28730029B00211B69002BC8
:406C0000B8BF5B420622C2FB030141F28832002301F05AFC049B002808BF0120002BB8BF5B42834200F31B81B5F5802FCCBF00250125D9F800308AF80070CAF804608AF8F4
:406C4000085033B1394613209847DBF80030DAF80460B6F5004F80F2948016F5004F80F20982274E8021002B50D014209847D9F80030F1B2002B49D014209847DBF80030C5
:406C8000DAF80460002B41D0310E1D209847DBF80030C6F30741002B38D01D209847DBF800309BB3C6F307211D209847DBF80030F1B25BB31D209847DBF8003033B39AF81B
:406CC00008101620984721E0004E0040D8370020A8370020D88C000030910000C980FF1FD937002084910000809100007C910000DC370020749100007091000080FC0A00FC
:406D00000080FFFFC836002078741300039A002D08BF0022019B0392029A01332032022B019304F114040AF10C0A02922DD0834B9DF804101B78D9F800209942A568637B81
:406D4000BFF4A0AEA77B9AF80060BB4203EB07007DD91FFA80FEDB1BBEF1FF0FDFB27AD8BE42FFF4A0AEC7B2B74228BF37469AE6B0B2FF2840F2AD8000279F4238BF1F46A6
:406D800091E67F2147F6FF766DE700F0B5FD6C4B1B78FF2B00F0A280012B3DD0022B694900F29D80012098400A78C0B210421FD0654C22EA000254F8235064480A702A78F3
:406DC000C05C634C22EA0000E25C624C2870A35C013BDBB2A354002B40F081805E485F4B50F822009A5C037823EA020303700A7893070ED442F0020259480A705549027806
:406E00004B7842F001020270002B00F0908001334B704B4A0123137099F80430002B60D100F058FE4F4A137803F0FE031370039B002B00F09F8001230022022089F80920A6
:406E400089F80A3089F80B3009B0BDE8F08F83B2FF2B88D90027B74238BF374623E60025E7E6384B1B785A0715D5364A23F0040313703B4A374B12785B78394922F01002E7
:406E80000A70013B334ADBB2537023B9364A137823F010031370002389F8043084E6284B5B78013BDBB2072B36D90198B2E6B0F1FF5041F1FF314FF07F52002301F004FB87
:406EC000049093E6294A412305928DF81C305023B3E5F7B29F4228BF1F46E4E519490A7886E7184A13785E0712D51A4923F004031B4813704B780278013B22F01002DBB285
:406F000002704B7023B9184A137823F010031370002389F8043083E7154A41F2873002EB4303B3F840300021C3F57A7367E690F8F32942F0100280F8F32968E7D8370020CC
:406F4000C980FF1FD937002084910000809100007C910000DC37002074910000709100000D510040004E0040005B0040A8370020D88C00009846414A01240223137089F82D
:406F8000094089F80B4089F80A8089F80C8089F80D8001F05DFA4CF250310546384B394A4FF4FA7089F80E8089F80F80C9F81000C9F8143089F818401378334803F0FE03C9
:406FC000137003786FF4376403F0F7032244037013782E4C03F0F7031370C9F81C10FEF773FE284601F038FA9DF81C70284E3846FFF7BEF8059A9DF81D50134617701746D7
:407000002846C2F8048083F80880FFF7ABF83B46204A3D73C3F8108083F8148013781E4943F010031370257823783F2003F0FE0323704FF40072087018493070184801F0BB
:407040000BFC4FF400721749174801F005FCEDB2164BF822ED0786F800801A7003D5237843F0010323700023012089F8203009B0BDE8F08FC6F30721F5E500BFD837002035
:40708000801A0600244F0040A343004080C700408CC70040A643004088C70040288D000000C00040288F000000C2004084C700402DE9F84F514C524E237B5D0171198A7E64
:4070C000002A77D0002875D0A26A82EAE277A7EBE277B7F5802F6EDC002B77D0D1F81090B9F1000F67D04FEA830CDFF81CE10CEB03080EEB8808D8F80810C91B5BD098F9D7
:407100000C80B8F1000F56D00029D5BF01214FF0FF314FF0FF3A4FF0010A3AEA280A28BF8A460CEB03080EEB880898F80DB098F80E10B9F1000FB8BFCAF1000A8B4540D865
:407140004FF0000959441FFA81FBBBF1FF0F94BF5FFA81FB4FF0FF0BBAF1010F94F84A1041D1594546D201F101095FFA89F9D8F808803544C7EB0807AE8B6344002FB8BF12
:407180007F420EEB830E0025DEF8103084F8460027644846268784F8441084F84590E26384F84A90E5649847032384F820302846BDE8F88FA26A94F84A10BDE8F84FFFF77D
:4071C0004DB9C1EB0B095FFA89F9BBE70D4949780139C9B20729EED806EB4101B1F84090C9F57A797CE7494504D901F1FF395FFA89F9BCE7BDE8F84FFFF730B9C8360020CE
:40720000D88C0000C980FF1F30910000F8B501F01FF9444A444C1378444903F0FE0313702278434B02F0FD0222700A78414C02F0FD0202250A701D705C605A68002A34D0DA
