:4000000000800020110000001D2400001D240000144A80B5144B1268144F1A60F7B1144E002556F80C4C56F8080C56F8102C234638B1043A52F8041F43F8041B191B814235
:40004000F8D156F8040C1A4620B142F8045BD11A8842FAD1013F06F11006E2D104F05AFD00F036F8FA460040BC76004001000000444D000010B5054C237833B9044B13B172
:400080000448AFF300800123237010BD3081FF1F00000000704B0000084B10B51BB108490848AFF300800848036803B910BD074B002BFBD0BDE81040184700BF000000007E
:4000C0003481FF1F704B0000C080FF1F000000002DE9804887B062B6AB4C2178002901F0148004F009FDA949A94D0B78A94A43F020030B702B78012643F010036FF4807716
:400100002B70394416600B78A34F43F010030B700225A1F503513D60363915600B789F4A2B430B7013782B43137004F0E9FC9C4B9C4A30460021136004F02AFB9A4A637810
:400140001578914A4BB9994B56701A7802F0FC021A701A7842F003021A70954895490378954A43F0600303700B78A67843F004030B701378844843F004031370002E00F064
:400180009E878E4A8E481378894943F0080313700378E27843F0080303700B787A4F43F080030B70002A00F07487844A844813787F4943F0040313700378227943F004033C
:4001C00003700B78704F43F080030B70002A00F04A877A487A490378754A43F0020303700B7843F002030B70137843F08003137002F0BCF902F0A2F96379634943B9714A57
:4002000001201378487103F0CF0343F030031370A3795D4943B96C4A01201378887103F0CF0343F030031370E279574F002A00F003876248624903785D4A43F0010303701E
:400240000B78284643F001030B70137843F08003137002F007FA237A4B4953B95B4B01201A78087202F0FC021A701A7842F003021A704F484F4903784F4A43F060030370FB
:400280000B78607A43F001030B7013783E4943F00103137050B94E4B01201A78487202F0FC021A701A7842F003021A70404841490378414A43F0600303700B78A07A43F096
:4002C00002030B701378304943F00203137050B9404B01201A78887202F0FC021A701A7842F003021A70324832490378324A43F0600303700B7843F008030B70137843F0C2
:4003000008031370344B1B78DE0740F19186324923F00103314A0B701378314903F07F03009113700B78013B0B702B4B2A491B789D0712D52B4A23F002030B70137803F013
:400340007F031370009A5378013BDBB2537023B9254A137823F0010313701F4B1E491B78580748D5214A23F004030B70137823F040031370009A5378013BDBB25370D3BB54
:40038000194A137834E000BF4C81FF1F996500409865004000E100E080E200E0B2430040914700004482FF1FC480FF1F5C58004077580040A4430040B4430040A943004033
:4003C000B9430040785800407A580040585800405A5800405E5800404882FF1F005B00404C82FF1F1C510040035B00403C51004023F001031370B44BB3491B781A0712D510
:40040000B24A23F008030B70137803F07F031370009A5378013BDBB2537023B9AC4A137823F001031370AB4BFF21AB4E19703378AA4DAB4823F002032A783370037822F0A5
:4004400020022A7023F02003A64A0370117002F045F901F0EBFF9F4B1878032800F2DA85994B012181401B78C9B21942964A00F0D3859D4D23EA010303959C4955F8205018
:4004800013702B789A4E0491095C059623EA0103315C00982B70435C013BDBB24354002B40F0B1859348944B0546029053F821000193695C037823EA0103037013781F072C
:4004C00013D4814943F00803804A0B70137863F07F031370009B5B7823B97D490A7842F001020A70009A013353707A4A0323137002F072F98149E27A0B78814803F0FE03E3
:400500000B70002A00F05B857E497F4A0B787C4843F004030B70137801F5BE5143F004031370227B1A319C230B70002A00F020857449754A0B78724843F001030B70137896
:40054000724943F001031370627B9C230B70002A00F0E8846B496C4A0B78694843F008030B70137801F5BE5143F008031370A27B1B319C230B70002A00F06F8461496248BD
:400580000B78634E43F002030B700378614A9C2143F00203604F037006F1300811704FF000094FF0010A7A7EB97E8B18551A8A4298B2EDB240F2218399B2FF2900F2218300
:4005C000AA4280F03B84FB69284698470C3606F80C5C46F8089C06F804AC464507F12007E1D14E4B4E495B780422012B0A7000F090844A4B414D00265E7004F07DFA2769B6
:4006000004F07EFA2B78193703F0FE032B70434B1F6202F063F802F0DFF82B78414F03F0FE032B7003F0D4FC3146022004F0B0F83D4A3E49136804253D6099643C491068A4
:40064000E023DFF810E13B4E0B701021CEF800503960066515683848A2F60412374E1370CEF80010082236493A60EE640370CEF800200B78207D334A334D03F07F030B70DC
:400680001560002800F028842D4A304D1378AB4643F08003137004F02FFAD4F8109004F02FFA2B78002103F0FD0343F002032B70202004F06DF8CA46254D637D104E002BA4
:4006C00040F0A68048E000BF4882FF1F3C510040035B0040C680FF1F045B0040585B0040105A0040C580FF1FB84B0000C84B0000CC4B0000D84B0000D04B0000004E00406E
:400700004C81FF1FA8430040B8430040805B0040E0360020815B0040184C0000103700208037002080E100E008ED00E0ED45000002E400E07148000003E400E0354900004D
:40074000746500402465004080A90300205100409881FF1F00E100E002F080FD04F0CCF9376904F0CDF9C9EB0703002BC0F20B823378002B35D0DFF83CE14FF002090EF100
:400780000408464B1EF801CB187829780646C9B24B1EC1EB000A1A1AAAF17F03B2FA82F2B3FA83F352095B09814288BF1346002BEBD1814200F016820306394A4CBF0026FE
:4007C000431C02F806C0354A54BFDBB201231370344B1B78980744BF334BC3F80090C645CFD19BF8003007F1460903F0FD0343F002038BF800309BF80030BA4603F0FD034E
:4008000043F002038BF80030637D284E002BA3D0274B27495B780022012B0A7000F01583234A0023537004F067F9266904F068F91F4B19361E6204F05FF9236904F060F9EB
:40084000DFF87480DFF864A04FF0050998F8003003F0FD0388F8003004F04EF9276904F04FF9083701E002F0F9FC04F045F9266904F046F9F61B002EF5DB98F8003003F05E
:40088000FD0343F0020388F8003004F035F9DAF8107004F035F9083712E000BF9981FF1F9C81FF1F6864004000E200E04C81FF1F103700207C4B00002051004002F0CEFC03
:4008C00004F01AF9266904F01BF9F61B002EF5DB09F1FF3919F0FF09B8D102F0BFFCA37DAE4F022BF9D03A8B7B8B92B29BB29A42F3D304F001F93E6904F002F9BB7D002BDA
:4009000040F0D7803A8B7B8B92B29BB29A42C0F0D080A34BDFF888821B78002B00F0C980A04B93F80290B9F1000F40F0C28098F80130002B40F0968104F0DEF83F6904F066
:40094000DFF8D8F82030FF1A002FC0F2B280964B98F802701B784FEA4718BB42934B43445A7E997E00F231828A4202EB010340F2548298B2511AFF285FFA81F900F249821F
:400980004A4580F04D82864A0023022F53609360D3601361938282F803908CBF40F6B832834B7F4998BF33F817200023CA820B764B76CB6101F092FE01F074FD7D4B1A7802
:4009C0007A4B032A984498F8043029D87A48012191400078C9B20142DFF8DCC120D020EA010103988CF8001050F822E004999EF8000011F802C00599895C20EA0C0200985F
:400A00008EF80020425C013AD2B2425442B9019A52F82100029A515C027822EA01020270032B2BD8644901229A400978D2B20A42DFF884E122D10A4303998EF8002051F8A5
:400A40002300049A90F800E0D15C059A4EEA01010170D25C0099DFF880E1895C59B9019951F82200029990F800C0895C4CEA010101701EF802100098013181544D4A137089
:400A800001F0AAFE4D4B04221A6004F035F80023237704F035F84A4A137843F001031370484B1B6813B139461E2098473C4A01235370A27D394B002A40F0A780198B5A8BFD
:400AC00089B292B29142C0F0A0805A6A12B906F164025A62B21A002A3BDB237806F164026262002B35D0DFF8F4E0DFF8F4A00EF104084FF00209344B1EF801CB1878297837
:400B00000746C9B24A1E431A121AA3F17F03B2FA82F2B3FA83F352095B09884238BF1346002BECD1884200F092800206274B4CBF0027013003F807C0234B54BFC0B2012063
:400B40001870234B1B789B0748BFCAF80090F045D1D1A27D114B022A5DD09A6A002A5AD0B21A3FF4BAAED96A9E628A4255D3194A18481278002102F0FD0242F00202027049
:400B8000D9621963A9E6CAEB07073B2F33D99BF8003003F0FD038BF800308EE54C81FF1F103700206082FF1F80370020184C0000744B0000C680FF1F4882FF1F80E200E000
:400BC000004E00404482FF1F9981FF1F9C81FF1F68640040205100404C82FF1F7C4B000000E200E0B04B1B7859073FF5E5ADAF4B83F800C0F3E55746FDE5FF2840F21E81A6
:400C00000025954238BF1546DDE4A27D0023022A6362A74BA1D19E625FE6186B891A0244042AD9621CD99A7D0021022A19633FF454AEA04B1A78013B1B7802F0020282F036
:400C4000020203F0FD0313439B4A137045E6964B1B7859073FF569AF944B83F800C076E71A633AE698F802A003F046FF3B7F03F0FF0B002B00F09980D7F820B087F81C9041
:400C800003F03EFFB8F81630C8F81C90002B40F0AF80B8F81430D8F8042001339BB20BEB02071F2BA8F81430C8F804707FF601AF824B824A9968DB680F44507E7F49002241
:400CC00020338F604A608A8297FBF3F7CB600A4630B10B69FB1A002BB8BF5B42322B0CDD764B01221B7E75491344DBB2072B4A760F610B760A467FF6DCAE714BDFF8C081F1
:400D00001B6823B1D17813209847D8F80030B7F5004F80F28B8017F5004F80F28B80DFF8B481802123B314209847654B5FFA88F11B68DFF88C81DBB114209847D8F8003093
:400D4000B3B1390E1D209847D8F80030C7F3074173B11D209847D8F800304BB1C7F307211D209847D8F80030F9B20BB11D209847524B3A46D978504603F0D4F980464F4FC5
:400D800003F026F9B8F1000F04D00AF1010303F00303BB7003F0B0FE276903F0B1FE474A193700231762537083E603F0A9FED8F81C30444A01339342C8F81C307FF679AE01
:400DC00088F801B003F004F973E63F4807EB47038A4210F8230002EB010311D9521A99B2FF295FFA82F907D84845FFF4CCAD0AE0013BA8F816305CE6814538BF8146C2E5E0
:400E00009AB2FF2AF8D8DBB2984228BF18468146B9E5914538BF9146B5E599B2FF29F8D8DBB2934228BF13469946ACE57F2147F6FF7877E7C7F30721B84673E7DBB29A4274
:400E400028BF1A461546FFF7BEBB204A137803F0FE03137003F0BCF8E2E41D4BA1F25E311A700A701A78A1F5905102F0F3021A701A781C3942F004021A701A780125C2F36A
:400E8000810202F19242063292F830218573D2B20A701A7802F0FD021A701A7842F002021A70FFF76BBB00BF68640040486400404C81FF1F215100402051004010370020F8
:400EC0004482FF1F7F841E00E0360020004E0040245800400080FFFFFF23136041F8703C03F00AFE9A4A137843F01003137003F007FE984B1A78150704D5974A11681978F5
:400F00000807FBD4954A0021012311702375FFF7BBBB934A137803F0FE03137003F058F8FFF767BB8F4BA1F253311A700A701A78A1F5915102F0F3021A701A78023942F081
:400F400004021A701A780125C2F3810202F19242063292F838214573D2B20A701A7802F0FD021A701A7842F002021A70FFF7F2BA7D4B6FF4587631441A700A701A78A1F5BE
:400F8000905102F0F3021A701A78193942F004021A701A780125C2F3810202F19242063292F820210573D2B20A701A7802F0FD021A701A7842F002021A70FFF7B9BA6B4B8B
:400FC00001251A7081F8292A1A78A1F2F67102F0F3021A701A7842F004021A701A78C572C2F3810202F19242063292F82821D2B20A701A7802F0FD021A701A7842F002027E
:401000001A70FFF781BA1378594A0192594A0292FFF755BA584B1B78584A0392584A0492584A0592524A0192524A0292FFF747BA554B0093FFF779B9544B554E0C21197071
:401040003378544943F02003337008200A7001F009FB3378012203F0FC0343F003033370FA71FFF7E6B84C4B4C4E0C21197033784B4943F0200333700A7001F05FFA33786F
:40108000012203F0FC0343F0030333703A71FFF7A0B8444B444E0C2119703378434943F0200333700A7001F061FA3378012203F0FC0343F003033370FA70FFF776B802F558
:4010C000A2523B4B18320C2111701978802641F02001197096709178012601F08001C9B2917091788670314391701A7802F0F3021A701A7842F00C021A701A7802F0FC02F3
:4011000042F003021A70FFF73CB82A4A2A4F16682A4D2B48E02337642B700170294815687226294A0670294F294920201070294E29486F64A2F580720B7006274725022171
:4011400001233770057011702370FEF7CABF00BF97650040676500404465004087650040004E00402C5800402058004028580040D04B0000D84B00004882FF1FB84B00008E
:40118000C84B0000CC4B00004C82FF1F00580040015800400258004004580040055800400658004008580040095800400A5800400D58004008ED00E0A523000000E400E08E
:4011C0001C82FF1F89650040886500404D23000001E400E029640040396400402DE9F04F01273E46DFF874A2DFF87482DFF8A092DFF8A0B28BB0C9F800609AF8001098F87E
:401200000020012491429548954B00F0CB8001781A781B789142027828BF20339B1A914ADBB21760002B00F0CC808F49C9F800709AF8002098F800300878D2B2DBB210B9A9
:401240009A4200F0B880531CDBB2202B874828BF0023805C8AF800300A78834CC3B20AB1002222707F4A824917600A78052A00F29F80DFE802F08D776D150C037D4A7E48DF
:40128000D37003230B70002313700370B3E7794A7948937005230B70002313700370AAE7744C75480022227002700A706278A178E0784A4042409A429DD1704B1A7852B9AD
:4012C0006278C12A02D06278A52A94D1617821201F7003F05DFA6378664AC12B03D05178302003F055FA664B664A1B783221032B1160637870D0A33B122B3FF67CAF01A292
:4013000052F823F0C9160000F7110000351700001F160000F7110000F7110000D11B0000151A0000F7110000F7110000F7110000F7110000F7110000F7110000AF1A0000C4
:40134000F7110000EB18000099140000431800004848494C837000220323C2700B700270227048E703F15D02424C434DD2B200201E2A2070287006D8434807FA02FE0EEA33
:40138000000008BB22B3002323702B700B7032E7AB2B7FF430AF3748374A00230F700370137028E730490B784BB12E4B1F603DE700230B701FE7354B1B78DBB252E7294BDC
:4013C0001C600BB0BDE8F08F022263700A7012E7042263700A700EE7A53B1C2B00F2928501A252F823F000BFF71D0000531D0000051F0000051F0000531D0000531D000025
:40140000051F0000051F0000051F0000051F0000051F0000051F0000531D0000051F0000531D0000531D0000B11C0000051F0000051F0000051F0000051F0000051F0000DF
:40144000051F0000051F0000051F0000051F0000051F0000051F0000F71100004282FF1F1D82FF1F00E100E04082FF1F2082FF1FDD3600208481FF1FDC3600206181FF1F04
:401480006281FF1F7881FF1FCC4007404865004080E100E0686400400021392003F078F9914BAB21C2221B788DF81C108DF81D20B42177228DF81F708DF81E108DF820201D
:4014C000002B37D0894B0DF11C0C0193884B0294019A1CF801EB147818782546C0B2411E221A091BA2F17F02B1FA81F1B2FA82F249095209A04288BF0A46002AECD1A04230
:4015000000F02A8520067B494CBF0025621C01F805E0019954BFD2B201220A709BF80020910702D5744A022111600DF121029445CED1029C714B5A78012A00F08186002548
:401540005D70039303F0D8FA6D496E4A09680292019103F0D5FA0199039B1931029A1962137803F0FE031370019201F0B7F801F033F9019A137803F0FE031370019202F06F
:4015800027FD02F0B5FFA388019A591E1078B1F5007F28BF4FF400735B4900F0FE000193029310700A78594802F07F020A70584A10210078116003F09FFA5649564A25746F
:4015C000DFF86CE1E580554B25720D805449158002220D808EF80050E5601A7003F090FA019B3520FF2B94BFD9B2FF2103F0D0F8444A137843F001031370484B1B78022B9F
:401600003FF4F9AD474B48491A780B7802F0020282F0020203F0FD0313430B70EBE5A378DBB2082B40F2D88540490B782E4A83F064018DF81F301278AB238DF820108DF86D
:401640001C30C221A6238DF81D108DF81E30002A35D0264B0DF11C0E0193254B019A1EF801CB147818782546C0B2411E221A091BA2F17F02B1FA81F1B2FA82F249095209EE
:40168000A04288BF0A46002AECD1A04200F07784200618494CBF0025621C01F805C0019954BFD2B201220A709BF80020910702D5114A022111600DF121027245CED1174B52
:4016C0001B78022B9ED196E5A378E178312043EA012109B28BB2FF2B94BFC9B2FF21A38003F056F887E500BF4C81FF1F9981FF1F9881FF1F9C81FF1F00E200E010370020CF
:401700005C81FF1F004E0040746500406765004080E200E06481FF1F6681FF1F6281FF1FDA82FF1F2151004020510040C480FF1FD982FF1F00213B2003F02AF8A34B0293E4
:401740001B78002B3FF457ADA14BDFF8C0E20193A04B019A1EF801CB147818782546C0B2411E221A091BA2F17F02B1FA81F1B2FA82F249095209A04288BF0A46002AECD1FD
:40178000A04200F0F383200693494CBF0025621C01F805C0019954BFD2B201220A709BF80020910702D58D4A022111608C4A7245CFD1029AAB21C3208DF81C101278B8218C
:4017C0008DF81D008DF81E100B2070218DF81F008DF82010002A3FF40EAD0DF11C0E019A1EF801CB147818782546C0B2411E221A091BA2F17F02B1FA81F1B2FA82F2490967
:401800005209A04288BF0A46002AECD1A04200F09A83200670494CBF0025621C01F805C0019954BFD2B201220A709BF80020910702D56A4A022111600DF121029645CED1E0
:40184000D9E4684B1A78002A00F0E2831978122002F09EFF5D4BAB22C2218DF81C201B78B5228DF81D108DF81E20002177228DF81F108DF82020002B3FF421AF544B0DF19F
:401880001C0C0193534B019A1CF801EB147818782546C0B2411E221A091BA2F17F02B1FA81F1B2FA82F249095209A04288BF0A46002AECD1A04200F0A283220646494CBF64
:4018C0000025621C01F805E0019954BFD2B201220A709BF80020940702D5404A022111600DF121026245CED1E9E6A3783A20003318BF01232374217C02F04AFF237C002B44
:4019000000F0F283384B5A78012A00F0068500255D70039303F0F0F83449354A09680292019103F0EDF80199039B1931029A1962137803F0FE031370019200F0CFFE00F09E
:401940004BFF019A137803F0FE031370019202F03FFB02F0CDFDA388019A591E1078B1F5007F28BF4FF40073224900F0FE000193029310700A78204802F07F020A701F4A3C
:4019800010210078116003F0B7F81D491D4A2774DFF87CE0E580134B25720D801A49158002220D808EF80050E5601A7003F0A8F8019B3520FF2B94BFD9B2FF2102F0E8FE17
:4019C0000B4A137843F00103137014E44C81FF1F9981FF1F9881FF1F9C81FF1F00E200E0804B00006281FF1F103700205C81FF1F004E0040746500406765004080E200E0DB
:401A00006481FF1F6681FF1FDA82FF1F7C4B0000D982FF1FA378984ADBB283F068018DF81F301278AB238DF820108DF81C30C221AA238DF81D108DF81E30002A3FF43FAE4D
:401A40008E4B0DF11C0E01938D4B019A1EF801CB147818782546C0B2411E221A091BA2F17F02B1FA81F1B2FA82F249095209844238BF0A46002AECD1844200F05B82200619
:401A800080494CBF0025621C01F805C0019954BFD2B201220A709BF80020910702D57A4A022111600DF121027245CED107E6774B5A78012A00F0CF8300255D70039303F0C9
:401AC0001BF87349734A09680292019103F018F80199039B1931029A1962137803F0FE031370019200F0FAFD00F076FE019A137803F0FE03137002F06BFA00F097FC02F0DE
:401B0000FBFF654A6549664BE580DFF8A0E125720D8015801D70634BAEF800501F70E56002F0EEFFA1883220FF2994BFC9B2FF2102F02EFE5B4B504A1B781278DBB283F037
:401B400073018DF81F30AB238DF820108DF81C30C221B1238DF81D108DF81E30002A3FF4AEAD464B0DF11C0E0193454B019A1EF801CB147818782546C0B2411E221A091BC3
:401B8000A2F17F02B1FA81F1B2FA82F249095209A04288BF0A46002AECD1A04200F0C181200638494CBF0025621C01F805C0019954BFD2B201220A709BF80020910702D5B0
:401BC000314A022111600DF121027245CED176E5A378AB20DBB2082B8BBF334B324A1B781370254A8DF81F30127883F06B038DF82030C221A9238DF81C008DF81D108DF8FA
:401C00001E30002A3FF45BAD1C4B0DF11C0E01931B4B019A1EF801CB147818782546C0B2411E221A091BA2F17F02B1FA81F1B2FA82F249095209A04288BF0A46002AECD1D5
:401C4000A04200F0658120060E494CBF0025621C01F805C0019954BFD2B201220A709BF80020910702D5084A022111600DF121027245CED123E500BF4C81FF1F9981FF1F8C
:401C80009881FF1F9C81FF1F00E200E0103700205C81FF1F004E00406681FF1F6481FF1FD982FF1F6281FF1F8081FF1FDA82FF1FB84B1220197802F06BFDB74BAB22C22113
:401CC0008DF81C201B78B5228DF81D108DF81E20002177228DF81F108DF82020002B3FF48AAAAE4B0DF11C0C0193AD4B019A1CF801EB147818782546C0B2411E221A091B81
:401D0000A2F17F02B1FA81F1B2FA82F249095209A04288BF0A46002AECD1A04200F066812006A0494CBF0025621C01F805E0019954BFD2B201220A709BF80020910702D501
:401D4000994A022111600DF121029445CED1FFF752BA6178122002F01BFD63788E4ADBB2127883F0C204AB208DF81E30C22100238DF820408DF81C008DF81D108DF81F3089
:401D8000002A3FF438AA854B0DF11C0C0193844B019A1CF801EB147818782546C0B2411E221A091BA2F17F02B1FA81F1B2FA82F249095209A04288BF0A46002AECD1A042F8
:401DC00000F00B81200677494CBF0025621C01F805E0019954BFD2B201220A709BF80020910702D5704A022111600DF121026245CED1FFF700BA00213B2002F0C9FC664BBC
:401E000002931B78002B3FF4F6A9644BDFF8A4E10193634B019A1EF801CB147818782546C0B2411E221A091BA2F17F02B1FA81F1B2FA82F249095209A04288BF0A46002A5A
:401E4000ECD1A04200F0C080200656494CBF0025621C01F805C0019954BFD2B201220A709BF80020910702D54F4A022111604F4A7245CFD1029AAB21C3208DF81C101278CF
:401E8000B8218DF81D008DF81E100B2070218DF81F008DF82010002A3FF4ADA90DF11C0C019A1CF801EB147818782546C0B2411E221A091BA2F17F02B1FA81F1B2FA82F262
:401EC00049095209A04288BF0A46002AECD1A04272D0200633494CBF0025621C01F805E0019954BFD2B201220A709BF80020910702D52D4A022111600DF121026245CFD120
:401F0000FFF779B96178122002F042FCFFF773B99BF8002052073FF596AE254A82F800C0A4E69BF8002052073FF53AAE204A82F800C048E69BF8002052073FF5A0AD1C4A78
:401F400082F800C0AEE59BF8002052073FF561AC174A82F800C06FE49BF8002052073FF5D1AA134A82F800E0FFF7DFBA9BF8002052073FF508AC0E4A82F800C016E49BF845
:401F8000002052073FF584AB094A82F800C0FFF792BB00BF6281FF1F4C81FF1F9981FF1F9881FF1F9C81FF1F00E200E0804B0000486400407C4B00009BF80020520788D478
:401FC000B74A82F800E097E79BF8002052073FF53BAFB34A82F800C049E79BF8002052073FF5F0AEAE4A82F800E0FEE69BF8002052073FF595AEAA4A82F800E0A3E69BF876
:40200000002051073FF559ACA54A82F800E067E4A44B5A78012A00F08B8100245C70029302F06AFDA04BA14D1968019102F068FD0199029B01F1190018622146102002F00D
:40204000A7FBAB78002B00F093802146112002F09FFB974BAB221B78C220B5218DF81C2077228DF81F408DF81D008DF81E108DF82020002B3FF423AB8E4B0DF11C0C019338
:402080008D4B019A1CF801EB147818782546C0B2411E221A091BA2F17F02B1FA81F1B2FA82F249095209844238BF0A46002AECD1844200F08880210680494CBF0025621CA7
:4020C00001F805E0019954BFD2B201220A709BF80020920702D57A4A022111600DF121026245CED1FFF7EBBA764A6E4B117801F0FE0111705978012900F0068100225A70E6
:40210000029302F0F9FC68496E4A0D68019202F0F7FC029B019A19351D6213786A4D03F0FE031370019200F0D9FA00F055FB019A137803F0FE03137001F04AFF6349644A48
:402140000B78644803F07F030B7010602B78002B00F08B805D4960480A78002342F080020A705E4AE380237203701370FFF743B808210193C9F8001000F0B0FA00F0AEFA9F
:4021800000F02AFB4F48017801F0FE01017000F0A5FA00F087F95249019B04200870EB706B71AF702F712F7002F0A6FC3E4B1C6802F0A6FC4B49494A03230F702C676C67CB
:4021C0001370FFF77CBA9BF8002050073FF573AF334A82F800E081E7434A04AC15461068516892F808E003C455F80C0F07AA69682D7A03C23D493E48157084F800E00B70D1
:4022000002780AACE51802F08003DBB2037015F80C4C027815F8183CA40004F00C041A432243344C0270237803F0F3032370237815F80C2C43F00C0313432370FFF7F5B99A
:40224000204901930A7802F0FE020A7001F0C0FE019BFFF774B91B4901930A7802F0FE020A7001F0B5FE019B26E4FF23136041F8703C02F041FC204A137843F0100313706E
:4022800002F03EFC1D4B1A78120704D51C490A681A781007FBD41B4B00221A702F7059E748640040103700205C81FF1F6082FF1F4C81FF1F9981FF1F9881FF1F9C81FF1FE3
:4022C00000E200E0004E00406081FF1F746500402465004080A90300D982FF1F6281FF1F80370020D882FF1F804B0000C480FF1F0258004001580040976500406765004010
:4023000044650040876500400193117801F0FE01117001F05DFE019BF0E60A4901930A7802F0FE020A7001F053FE019BFFF7EFBA044901930A7802F0FE020A7001F048FEE4
:40234000019B6AE6004E0040704700BF124B1A78597891421FD070B41048027802F0040202F0FF05B2B91E460D4C02E00278520710D41A78110648BF35701A7859781A4430
:402380001279D2B222701A780132D2B21A701A789142EBD170BC70479881FF1F68640040486400401A4AF0B517461A481A4C012500260378DBB213F01E0E05D092F88410D2
:4023C0004EEA010182F884109B0600D4F0BD217892F88530C9B2134483F8881092F8A8300BB187F8A95092F885300133DBB282F8853092F885301F2B88BF82F8856092F838
:40240000851092F8AA309942D3D182F8A850D0E79881FF1F686500404865004008B502F073FB03680C2B00D0FEE7FEE7F0B41A4A1378012B08D9194B0021D3F8AC30117024
:4024400043B3F0BC192018471548590050F82360034434781F7ACBB200EB830524EA0701ED683170C618591C2C78CBB2377F00EB830624EA0701F46829700344197F2378F6
:4024800023EA01032370054B0021D3F8AC301170002BD6D1F0BC7047C580FF1F9881FF1F984B0000F0B41F480378012B18D91E4E1E4D1F4C31781F4F2A782378D7F8AC7009
:4024C00041F00201317042F0200243F0200301212A70237001701FB33B46F0BC1920184715495A0051F823600B4434781F7AD3B201EB830524EA0702ED683270CE185A1C8B
:402500002C78D3B2377F01EB830624EA0702F4682A700B441A7F237823EA02032370C6E7F0BC7047C580FF1F045B0040585B0040105A00409881FF1F984B000009490A4AA3
:402540000B7803F08003DBB20B700B7843F015030B70137803F0F3031370137843F00D0313707047065800400558004009490A4A0B7803F08003DBB20B700B7843F0150362
:402580000B70137803F0F3031370137843F00D03137070470A58004009580040F0B52E4A5378032B2AD82D4C0121994094F8B050C9B2294222D02A4E25EA010106EB83056C
:4025C0002F6A84F8B01033443D7893F830E093F8341025EA0E033B700C4494F8B430013BDBB284F8B4304BB906EB81039C6B3144237891F8401023EA01032370032829D883
:4026000016490123834091F8B040DBB2234221D1134D234305EB8004266A81F8B0302B18377893F8304093F834303C433470CE1896F8B44054B905EB8304A76B1D4495F8E9
:4026400040403D782C433C7096F8B4401944013481F8B4405070F0BDC580FF1F9881FF1F984B000070B41A4D87B02C466B4606466968286803AA03C254F80C0F2D7A6168C4
:40268000082E03C3217A157019701ED8114C06AB1E442378104803F08003DBB2237016F8181C237816F80C2C8900134301F00C010B432370037803F0F3030370037816F845
:4026C000182C43F00C031343037007B070BC7047DC4B00000258004001580040F8B502F00BFA3349334A0B78334D03F0FE030B701378324C43F0040313702B78064643F0A0
:4027000002032B702378482043F00203237091F8913A2B4F03F0FC0381F8913A92F8913AA5F2473503F0F70382F8913A02F0DCF995F84733234A03F0FD0385F847332178CF
:40274000214B01F0FD0121701178204801F0EF011170117804F58C5401F0FE0111701A78093402F0FE021A701A78194902F0EF021A703B78174A03F0F9033B70037803F07F
:40278000FE0303702B78304603F0FE032B70237803F0F70323700B7803F0FE030B70137803F0FE031370BDE8F84002F0A9B900BF004E0040014E0040F8460040F9460040E4
:4027C00077580040AA430040BA430040A1430040A2430040B24300402DE9F04FC74C83B094F8B630002B62D194F8B73003F0FF06002B5ED0C24D012384F8B63002F07CF9B7
:40280000C04AAB781178C04B41F0010111701178064641F0100111701A78BC4D42F001021A701A78BA4C42F010021A702B78B94943F002032B702378482043F00203237085
:402840000B7843F003030B7002F04EF92B78B24903F0FD032B702378B04803F0FD0323700B787A2443F006030B7004703046AC4AA1F5A6511378063943F0010313700B7857
:40288000A84D43F001030B705378013143F0010353700B78A44C4FF0005243F001030B702A60226003B0BDE8F04F02F029B9944DA4E749F25B10924D0123DFF8C482AB7000
:4028C00084F8B86098F80030984A43F0100388F800301378964943F010031370E0230B70DFF8A0E2934F944B02F5D05204218EF8001005323E701E701378AEF1030E43F02C
:40290000180313708D4B8EF80060A2F287221E7087F8F2620A271770894FA3F207331E703E705B271772874F5E221A72A3F5286314223E701A70AB780F2284F8BE2004EBE7
:40294000830393F8BA70804BA4F8BC001F70AB787E4804EB8303B3F8B8300380AF7884F8C060FFB2012F7FF446AF794B6FF4296CE644DFF814B2DFF814A24FF0F80C83F81C
:4029800000C0DFF80C92DFF80CC28EF8001000F8091C8BF800208AF800604FF03F0A83F806A001F1804189F800608CF800608EF808604FF0030E80F808E001F5B141654AAF
:4029C00050200870DFF8D0A1132111702B2283F8862ADFF8C8E18AF800605F484FF0440A89F882AA5D494FF002095D4A4FF0480A8CF882AA8EF800904FF0120C4FF0280E77
:402A000080F80090EB2081F800C082F800E083F8910A02F071F83D4B00901A78ABF20B7B42F003021A7001939BF800204D494FF0520C42F0030250468BF8002081F800C0CE
:402A400002F052F8019B00981A78DFF854A102F0FC021A709BF8003003F0FC038BF8003002F04EF84CF6CD433F4A5820DFF834C1DFF834E13D4910703D488AF800608CF872
:402A800000908EF800900E705672C4F8C43098F80020038802F007029BB2012B0FD0A1F5A7511A390978C9B2002A7FD1002B7DD1078098F8003003F0BF0388F800301B480D
:402AC0002C4E0278338802F007029BB2072B0ED013490978C9B2002A40F0A080002B40F09D8007233380037803F0BF030370224B224A1B68C3F8B4207DE600BF9881FF1FC1
:402B0000C580FF1FAA430040BA430040F8460040F9460040915800407758004082580040A143004080E200E000E100E0024100401DE400E0975800409E580040885B004066
:402B4000835800408D5800400E4E00400C4E0040004E0040855800408E5800408F5800409058004092580040945800409C580040804000400041004008ED00E04923000073
:402B80008240004096580040044E0040054E0040084E0040094E0040875800408C580040955800409A5800409B58004011F0010123D03D483D4F3E4E00224FF0010E327019
:402BC00080F800E03A7010F8082C6E3702F07F0200F8082C3A7810070FD43046072227F8803C32700378324A13F00103FAD1314E307800F0FE00307013702E4B1A78D207A6
:402C000044D56FF468773B441A462B4801260321068019701378DE07FCD450E711F0010124D02248204F224E00224FF0010E327080F800E03A7010F80C2CF23702F07F02E6
:402C400000F80C2C3A78100710D43046A7F5807707223B8032700378154A13F00103FAD1164E307800F0FE0030701370134B1A78D20712D5A3F568731A460F4807260321F4
:402C8000068019701378DB07FCD430E70C4A012010801A781143197011E70A4A072010801A781143197022E7104000401440004001400040A243004002400040A143004050
:402CC0008040004000410040F8B5B94AB94BBA491A600B68B94A43F40073B9480B600023032B94BF50F82310B6490133302B42F8041FF5D1B44BB54AB54909781A6072B6A7
:402D0000B44AB54D1378A5F15C0643F004031370002404EB440306EB4303AA88D86D0134002101F01DFF062C05F10605F1D1AB4EAB4F002556F8043F13F0FF0E23F0FF0424
:402D400013D005F110530EF1FF3E03F139005FFA8EFE7044383340005B001A785978023383421155F9D101357544BE42E2D19D4B9D4A0A21197013789C4943F00203137032
:402D80000B78A2F5863243F0020341F251260B70633A1378A1F5863143F04003137051390A78934B42F010020A70924A924C03CB1060516003CB2060616003CBB23CC2F8A0
:402DC000F000C2F8F41093E8070003C422808B4A0C3303CBA4F6F6541060516003CB2278874DDFF874C242F00802864F28606960DFF868E2227084488449612200248CF831
:402E0000002018253C80502219278EF80020804C0780804A0D701968262703207E4B277010701B787D4F7E48DBB23B707D4B082724F8DE7C06801C78A2F5807211604FF495
:402E4000F07004F001041E4601F04EFE01E0032C0DD033784FF4F07003F0010343EA440401F042FE013D04F00304F0D1FEE76E4B6E4A6F4FDFF8E8E16E484FF480740726B8
:402E80001C8000211E7002240426482511708EF8005019703C70067092F89C33664943F0030382F89C330B7800F5F72043F001030B7092F89A33012143F0800382F89A33C7
:402EC00000F2F9704FF0810E5C4B87F8FFE701701B7807F5C357DBB203F0070E0D37A0F5F42087F800E0A0F29570F340DFF874E103706FF4CE6C80238EF8003067444FF059
:402F0000290E87F800E0092700F8037CDFF858E14B4FDFF858C105208EF80000387040208CF8001087F88A018EF8903187F8963108238CF8120087F89E318EF8A84187F8DF
:402F4000AA318EF8B01187F8B84110248EF8C04187F808328EF812323A4B87F8164250241E708CF8C240384E384CDFF804C18EF8530287F852123648202183F86A102660F7
:402F80004FF48171CEF8CCC2324EA4F5BC544FF0060E87F8D6E202F29A320570103CA3F8C01044270FCA377007C42380F8BD00BF0004FA050CED00E014ED00E0FC7FFF1FC6
:402FC000000000001D24000008ED00E00080FF1FBC760040E8460040F44B0000FCFFFF476C000048835800400350014013500140EC05004802510040C251004022510040E4
:4030000032510040804000408440004086400040004300400042004008010049A146004020420040254200400440004006400040014000400B400040A1430040CF010049A9
:403040007A5800409A5A004008020702405B0040585B0040765800400048004082400040084000400D51004078580040025A0040160108022DE9F047774BD3F8D87093F8F1
:403080001011C01B80EAE075A5EBE07593F8CE20002900F0C08093F81201904200F0A680012940F2CD8093F81301904200F09E80022900F09D8093F81401904200F0968040
:4030C000032900F0958093F81501904200F08E80042900F08D8093F81601904200F08680052900F0858093F8174194427ED006297ED093F81841944278D0072978D093F8EE
:40310000190190421ABF082100200120D3F8E460514CB54205DAC4F8E45084F8D420C4F8E07093F8E8604C4C002E72D094F8E9E0964572D0012E5DD994F8EAE0964500F09F
:403140008280022E56D094F8EBE0964500F08180032E4FD094F8EC60964277D0D4F80061D4F804E146EAE6767645B246B8BFF246D4F808917645ACBF4FF0000C4FF0010C9F
:40318000CA45D046B8BFC846D4F80C61CA45ACBFE6464FF0020E4645B446B8BFC4464645D4BF76460326654509DA04EB860E04EB060C8CF8E920CEF8F070CEF8005158B942
:4031C00007290BD993F811114C1C04F00704194483F8114181F81221BDE8F0875C18013184F8122183F81011BDE8F08701208DE700208BE7741CE4B203EB060E83F8E840B6
:4032000003EB86048EF8E920C4F8F070C4F80051D5E70124F0E7084678E74FF0000C0CF10E0403EB8404D4F8C860DFF82CE0B542C5DA0EEB8C0ECEF8F070C4F8C850BEE78A
:403240000121002062E74FF0010CE8E74FF0030CE5E74FF0020CE2E79881FF1F2DE9F04FA34E99B03378032B00F005813378022B00F0C880DFF87C92DFF894829D49B8F8EB
:403280000020B9F8003092B29BB29A4280F09A80B8F800309BB2002B00F0E180964DB8F800306F889BB25A24AB2204FB0354390A1E238DF800208DF801308DF802708DF86A
:4032C00003100DF107020023581C991CE6182044214436790333007909795A2B02F8020C02F8036C02F8011C02F10302ECD16B46002217A853F8041B834282EA0102F9D105
:403300009DF85C109DF85D307C484B405340C2F307215940C2F307434B400178013783EA12626F808DF85E20002936D0744F754DDFF80CB2DFF80CC20DF1FF360DF15E0A7D
:4033400016F8014F39782A780846D2B202F1FF3E8B1AC1EB0E0EA3F17F03BEFA8EFEB3FA83F34FEA5E1E5B098A4288BF7346002BE9D18A423FD00A0659BF0131C9B2012114
:4033800000200BF8004039709CF800309B0702D55D4B02221A605645D2D1B8F800305B4901339BB2A8F80030B8F80020B9F8003092B29BB232209A420860554910D219B04A
:4033C000BDE8F08F534B93F8542A22B1002283F8542A83F8552A19B0BDE8F04FFDF7FEBE0B889BB2FF2B44D8D9B2382019B0BDE8F04F01F0CDB99CF800305B07BBD4464B4A
:403400001C70C8E73C4D6B78002BD8D04349444A0B78444803F0FE030B701378424903F07F03424C137001602378002B00F08C823B4ADFF8C0901378362043F080031370F3
:40344000B9F800309BB2FF2B94BFD9B2FF2101F09FF900236B703370FFF724F80CE70B8837209BB2FF2B94BFD9B2FF2101F090F914E7FF21B9E72E4CA378002BABD001F007
:403480003BFB2C4B1D6801F03BFB44F61F62236FEB1A934218D8636FEB1A312B06D9264B65671B6813B161791A2098472378013B072B90D8DFE813F03E02EA0168014D01F6
:4034C000F200DD009F007B002378073B012B40F25D8294F80580B8F1030F88BF414600F25682164DDFF860A04FF000094AE000BF6281FF1F6681FF1FD882FF1F4C81FF1F91
:403500009981FF1F9881FF1F00E200E07881FF1F6481FF1F882C002048640040004E0040746500402465004080A903006081FF1F6082FF1F5C81FF1F4482FF1F184C0000A2
:403540009C81FF1F68640040E036002098B2FF2829D8BA4280F014822944CB693846984708EB480208F101085FFA88F80AEB8203B8F1040F0AF82270C3F8049083F8089018
:4035800000F004824FEA48116B185A7E987E1318171A82421FFA83FEFFB2D7D8BEF1FF0F40F2EE810027974238BF1746D4E76079AF49256901EB40118A68AE4B521B002AED
:4035C0004969B8BF524200EB400603EB86038A425D60A94D00F3B6831A7A012102B11972A64B1B6813B11820984760790130072360712370EFE665799F4F032D00F2AF83EB
:403600009E4B1B6813B1294617209847FFF766F8974B002603EB45152879FEF7BFFFFFF7DBF8974B974904221A600A78637942F0010290480A7003EB430310F82320298A9B
:403640000823A4F86610A27163706665A665E665A4F8646084F8686084F869602666E66601F04AFA884B1E7001F04AFA02232370B1E666797E4D760105EB0608D8F8080034
:403680007D4FFFF7F7FC002800F060837B4B1B6813B1B9792220984735446CE06679744D7601AA19518AB4F80AE0734B714540F27D83597A002900F0198219699368994265
:4036C000C0F21982537E907EA779834240F21C831A1AD2B2974240F26983791EC9B2E27921729142C0F06283891A02EB51028342D1B203EB000240F21D831FFA82FC181A1B
:40370000BCF1FF0FC0B200F219838142D2B203D3914228BF11460846B84200F047833544EB890EF1010E06220026A4F80AE0A071A4F86630EB6962706665A665E665A4F8A9
:40374000646084F8686084F869602666E666984786E76779464D7F01EE19B068FFF78AFC454A002800F02E82444B1B6813B19179222098473D44E0696B699842CCBF0020CF
:40378000012000F059FB26E66779394D7F012369EE19B0686361FFF76DFC7369E2699A4240F3138396F81980B67EB04540F2BA8108EB060EC6EB08021FFA8EFCD3B2BCF1C4
:4037C000FF0F194600F2A88198455FFA8EF080F0B281D2B25FFA8EF0E91991F918100029C0F2FD8203F11F018142C0F2F5829A4280F0FC82202B84BFA3F12002D2B2B045FA
:4038000040F2C482C6EB0806BCF1FF0FF0B200F2C18290425FFA8EF303D89A4228BF1A461046237BA0718342134E00F0BF8273792F44F9890024042205EB4315A6F8661032
:40384000EB6972707465B465F465A6F8644086F8684086F869403466F466984701F04CF9094B1C7001F04CF902233370B3E500BF184C0000E03600206082FF1F4482FF1F7C
:4038800080E200E0004E00406881FF1F94F8059001F032F9B24BB34D1A78002A00F03682B14A4FF00008176883F8008001F028F9B5F86660C5F86C80002E40F06282AB4874
:4038C000B5F8643000EB49106A6D0133007B9BB2B9188342A5F864306965FFF47CADAA6DEB6D0A44034492FBF3F195F869006E65A5F86460AA652961EB6538B12B6ECB1AD0
:40390000002BB8BF5B420A2B40F3498294F8683001221344DBB2272B216684F8683084F86920904C7FF657ADA07900F01FFE6378237050E561798B4B032940F288810021A2
:40394000072259711A7046E5FF23036042F8703C01F0D2F8864A137843F01003137001F0CFF8844A13781F0704D583490B6813781807FBD4814A002101231170237057E52D
:40398000DBB29A4228BF1A461746E5E561797C4B00221B6822710BB11B209847794F7A4DFEF79CFE00F014FB08230020012109223B602B60A070E1702270744B1B78032B33
:4039C00000F2908025790023714933700B78714A714803F07F03714C0B7010602378002B64D06B4A29461378112043F08003137000F0CEFE6A4B1A78002A3FF4ECAC694AD5
:403A000085F0770712780026AB24C220B5218DF803508DF804701E708DF800408DF801008DF80210002A3FF4D6AC6E465E4F5F4DDFF88491DFF884C1DFF884B10DF1050810
:403A40004FF0020A16F8014B39782A780846D2B202F1FF3E8B1AC1EB0E0EA3F17F03BEFA8EFEB3FA83F34FEA5E1E5B098A4288BF7346002BE9D18A4211D00A0659BF4B1C5C
:403A8000DBB20123002009F800403B709CF800309B0748BFCBF800A0B045D3D19BE49CF800305B07E9D4424B1C70F5E7FF23136041F8703C01F020F82D4A137843F01003BE
:403AC000137001F01DF82B4A13781E0704D52A490B6813781807FBD4284A00210123117023707EE7334B93F82C506CE71969936899427FF7E7AD537E907E1A1891B2FF29FA
:403B00002BD8D2B2A7791749974280F04F817A1CD2B2CA71097AE4E5434538BF43460A46FF2059E608EB060E1FFA8EFCBCF1FF0F0CD85FFA8EF04045034628BF4346B045BB
:403B4000DBB240F24781C6EB080242E64346002B38BF00230022FF203EE6FF22D2E700BF6881FF1F6082FF1F6C81FF1F184C0000976500406765004044650040876500403C
:403B80004482FF1F80E200E000E100E080370020746500402465004080A903006081FF1FD882FF1F4C81FF1F9981FF1F9881FF1F48640040E03600209C81FF1F68640040FF
:403BC00000E200E0D1697369994240F3FE8011695369994200F00E8196F81980B17ED4BF4FF0010E4FF0000E8FB2884592F806C007EB080540F2DF80C1EB0802FF2DD3B2F8
:403C000000F2DC8008EB01029845D2B203D39045434628BF13469C4594BF73468EF001036372737E8B4207EB030288BF581A92B288BFC0B2FF2A9ABF5B18DBB2FF230021F7
:403C40000522E071237261812270FFF7C4BB714A714DD2F800806FF0004000224E01AF191A739A6183F8202083F8482083F84920C3F821209A62C3F84A20C3F84E20DA6227
:403C80001A635A63D8619863D86318645864B8F1000F01D01520C04705EB0608FEF71EFD98F80400FEF77AFCFEF796FD5B4B5C4A04211960137898F8191043F001031370E1
:403CC000BB7E994201EB030216D997B2CB1AFF2FD8B215D88142D2B203D3914228BF114608462E44F1896379032205EB43150026A4F86610A0711DE593B2FF2B63D9002036
:403D0000884238BF0846ECE70022E3E400F0F8FEEB6E444A01339342EB667FF65CAB47F6FF73A87919462B6100F020FC6B782B70FFF751BB93B2FF2B21D90020884238BF84
:403D40000846E9E400211972297149E4D8F81430FA699A4239DD05233B70FFF73CBBFEF7BDFC00F035F92D4A08232F4D13600020012109222B60B870F9703A701DE6D2B275
:403D8000C6E4013EA5F86660FFF725BBBCF1FF0F3CD90020904238BF1046C0B241E5A87900F0E4FB6B782B70FFF715BB002000F043F8FFF710BBFF2D24D90346434538BF09
:403DC0004346DBB227E7D2B287E7012000F034F8FFF701BB0022FFE42033D8B221E59A42FFF408AD03F11F068642F5DB984298BF104616E5337EB17EDB43C3F3C0135372D3
:403E00008FB20EE708EB0102D2B200E75FFA8EF303E500BF4482FF1F184C000080E200E0004E00407F841E0000E100E0014B1870704700BF815B004046F266612DE9F04FB6
:403E40005E4D5F4E6F79D5F818B04FEA471906EB090463698BEAEB7EEA69AEEBEB7E9A42CCBF80464FF001088E4583B02B7B04DD032F00F08C804FF00008DFF84CA1627EBC
:403E8000A47EA24202EB040174D9141B8AB2FF2AE4B279D99C4238BF1C464E44F36920467E009847DFF82491F3199B0009EB030209F80340C2F804B082F80880B8F1000FC1
:403EC00001D185F80480DAF80030DFF8FC8023B1214613209847D8F80030F21909EB82025468B4F5004F41DA14F5004F5EDA354C8021002B32D014209847DAF80030E1B274
:403F0000DFF8C480002B54D014209847F319D8F8002009EB83035C6802B3210E1D209047D8F80030C4F30741C3B11D209847D8F800309BB1C4F307211D209847DAF80030FA
:403F4000E1B2214C53B11D209847236833B13E4409EB860999F80810162098476B79012213446B712A7003B0BDE8F08F7F2147F6FF74BEE78AB2FF2A04D8CCB29C4228BFCB
:403F80001C468AE7002485E7A34286D3F5E7DFF838A0DAF800203AB139461C2001934FF000089047019B6AE7904668E7C4F307219FE70C2303FB07935C68BFE76082FF1FE3
:403FC000184C00000080FFFF4482FF1FE0360020F8B5FEF783FB40480378012B5ED93F4E3F4D404C31782A78237841F0020143F0200342F020023C4F31702A7023703B68DA
:40400000012101700BB119209847384938480A78032A22D8012494400378E4B21C421DD0344D23EA040355F82250334C03702B78A65C324C23EA0603A25C314C2B70A35C86
:40404000013BDBB2A35443B92E4C2F4B54F822409A5C237823EA0203237003781A070CD443F00803294C037025482278437862F07F0222705BB10133437003230B70FEF75A
:40408000ABFB234A137803F0FE031370F8BD94F8C72942F0010284F8C729ECE71D491E4A51F82360D45C1D4932785B00DBB251F8235022EA04021A4C32702A78E65C013396
:4040C000DBB222EA060251F823102A70E25C0B7823EA02030B7082E7C580FF1F045B0040585B0040105A00404482FF1FC680FF1F4882FF1FB84B0000C84B0000CC4B000056
:404100004C82FF1FD04B0000D84B00003C510040004E0040984B0000A04B0000A44B0000B44B0000C94B4FEA401C2DE9F04F03EB0C04A368D4F814909B1A83EAE37EC44D33
:40414000440087B0AEEBE37EF14501940444B4BF4FF000084FF0010805EB84042E1884F8088096F854806260B8F1000F40F0DD8000F10A08B54F8600341807EB8404D4F86B
:404180008C40BA46744580F20B8102922A188B4692F8741004460F4603910AEB0C00AC49B7B304F1120A01EB8A01496B01F1FA0777452DDA92F98C7057B3032C92F8586040
:4041C00040F25A81A34A019B05EB880889452344D8F83410D2F8008004F1180205EB83034FF00007B4BF4FF000094FF0010905EB82022C44596083F80890176384F87470BD
:40420000B8F1000F02D031462220C047012089E004F1180205EB82090592D9F830208E491A448A42B8BF0A46DFF830A2874F5245A8BF5246311907EB8101C9F83020D1F8F3
:404240008490D1F888A009FB02F2BAF1000F08BF4FF0010A92FBFAF2D1F8801001FB03212A1992F86C90002918BF0B46B9F1000F7AD092F87020002A7CD1002B7CDD4FF60D
:40428000FF734FF0FF32049246F2666296456F4A264402EB8606CCBF96F8911096F89010427E01FB03B1837E09B29A420E4666D9D01AC0B28142C0F2A380D0181FFA80FA1D
:4042C000BAF1FF0F65D9FF29C8BF4FF0FF0964DD029F05EB880829190126CB45C8F8347081F858B081F85460DFF8648100F08B80039F002F6ED19DF810702919012605EBAF
:404300008408032C81F878B081F88C7081F87460C8F87CE07ED94F4B1E6816B149461F20B047002007B0BDE8F08F96F8584000F10A088C423FF41EAF05EB880ADAF834A026
:4043400052453FF417AFD4BF4FF0010A4FF0000A8C422CBF54468AF001044FF0010A86F8704086F86CA005E7384A624492F91820002A82DB002B82DD0123049384E700297C
:404380009BDA0026314698181FFA80FABAF1FF0F03D85FFA80F94E459ADC5FFA81F997E72C18012600F11807002084F87400304605EB87073B6B05EB880803EBD3735B10A4
:4043C000C8F8342084F858103B6384F8546007B0BDE8F08F91F878704F458CD11D4B059A08EB82081A680023C8F8303081F87430002A3FF40BAF222049469047304691E7A7
:4044000006460146BFE73046002381F8743007B0BDE8F08F9A4223D8BAF1FF0F27D900264E4538BF4E46094B304603EB0C07FB699847019A95F8A0302244032B05F82260C5
:40444000034A9CBF042382F8A03064E7184C0000E03600204482FF1FA099F9FF60660600D31ABAF1FF0FDEB2DAD84E45DBD8C6B24E4528BF4E46D6E7437E817E8B4203EB71
:4044800001021ED95B1A91B2FF295FFA83FB1DD85E4523D2144B584603EB0C07FB69984795F8A020019B032A234405F823B00F4B10D803EB8A0A0422DAF8341083F8A020F5
:4044C00080E693B2FF2B09D94FF0000BB34538BFB346DFE703EB8A03596B73E6D3B2B34228BF33469B46D5E7184C0000E036002070B4184A1378012B07D9174B00211B6841
:4045000011702BB370BC192018471448144950F82360CC5C134831785B00DBB250F8235021EA0401104C31702978E65C0133DBB221EA060150F823002970E15C037823EA79
:4045400001030370044B00211B681170002BD9D170BC7047C580FF1F4482FF1F984B0000A04B0000A44B0000B44B000070B51D4D0C462B681BB10146132098472B68B4F5C0
:40458000004F25DA14F5004F28DA174E802123B3142098472B68F1B2124E9BB1142098473368D3B1210E1D2098473368C4F307419BB11D20984733687BB1C4F307211D2020
:4045C00098472B68E1B243B1BDE870401D2018477F2147F6FF76002BDAD170BDC4F307212646D4E74482FF1F0080FFFF2DE9F043554B1B7803F00303012B40F28880022B0C
:4046000000F08D80514B524A1B8812889BB243EA0243504A127812B14F4A002111704F491A460978012903D1002BB8BF1F335A114B4B4C4C1A601D684B4901204B4A256055
:4046400008701278022A01D0BDE8F083484C2278002AF9D1474A484D10882988421E92B2B2F5007F34BF06464FF4007689B2B142EAD2424E318889B21D29E5D8404F318817
:404680003F7801EB410189B2002F53D11B68B5F800E03C4F4FF05A0C1FFA8EFE0CFB0E7E5FFA83F80EF80180B5F800E001F101081FFA8EFE0CFB0E7EC3F307290EF8089070
:4046C000B5F800E002311FFA8EFE0CFB0E77C3F307437B543388284901339BB233803388264E9BB21D2BAFD9002333800B88B2F5007F03F101039BB20B802B8828BF4FF412
:4047000000709BB2834224BF012323709CE7104A0E4B12881B889BB243EA024379E70C4B0A49194A1B8809781278120242EA03430B436EE7154F3B6803F1010EC7F800E03E
:4047400023F07F43A3E700BF144E0040104E0040124E00405882FF1F5082FF1FC780FF1F843700206C81FF1F6881FF1F6281FF1FD982FF1F8881FF1F6681FF1F8A81FF1F32
:404780009481FF1FDC82FF1F114E00409081FF1F2DE9F04F2E4A2F4B12781C78D2B282F0C4034B4083B04340AB26C4258DF802008DF803108DF804208DF805308DF80060F8
:4047C0008DF80150002C38D06E46DFF894E0224DDFF89090DFF890C0DFF890B00DF106084FF0020A16F8014B9EF800102A780846D2B2571E8B1A7F1AA3F17F03B7FA87F749
:40480000B3FA83F37F095B098A4288BF3B46002BECD18A4214D00A0659BF0131C9B20121002009F800408EF800109CF800309B0748BFCBF800A04645D4D103B0BDE8F08F78
:404840009CF800305F07E6D4044B1C70F3E700BF6281FF1F4C81FF1F9881FF1F486400409981FF1F9C81FF1F6864004000E200E010B5244A244B25491B78136801331360CB
:404880000B78BBB1224A13780133DBB213701378ABB9204A20491378204803F07F03204C13700860237883B11A4A137843F08003137010BD03F0FF02154B1A70E9E7194B77
:4048C0000020012110701970E3E7FF230B6042F8703C00F011F9144A137843F01003137000F00EF9084A1378190704D50F490B6813781B07FBD40E4A0021012311702370BF
:40490000D2E700BF5C81FF1F67650040DD3600208481FF1F746500402465004080A903006081FF1FDC360020976500404465004087650040F8B54D4B4D4C1B78580607D567
:4049400033202178FFF724FF2378012B49D0F8BD34202178FFF71CFF4649474A0B78474803F0FE030B701378454903F07F03454D137001602B78C3B13F4A434F1378434EAC
:4049800043F08003137000F0B7F8414D4149424A00233B8033702B800B801370237000F0AFF8BDE8F840FDF77DBDFF23036042F8703C00F0A1F8394A137843F01003137041
:4049C00000F09EF8364A1378190704D535490B6813781B07FBD4344A0021012311702B70CAE7324F23493E780B783148224A03F0FE0305880B7013782E4903F07F03284842
:404A000013706A1E1023B2F5007F0078F6B20B6028BF4FF4007500F06FF80036DFF868C0DFF868E01A494FF0000318BF0126194A3E70ACF80030184F8EF800301E4E0B80A1
:404A40001E49138002220B803B703360227000F057F8FF2D94BFE9B2FF213520FFF798FE044A137843F001031370F8BDC15100406281FF1F004E0040746500402465004058
:404A800080A903006081FF1F8A81FF1F8C81FF1F6481FF1F6681FF1FD982FF1F976500406765004044650040876500409481FF1F8881FF1F80E200E09081FF1FDA82FF1F54
:404AC000014B1870704700BF835B0040014B1870704700BF805B0040014B1870704700BF825B0040000000000230800803D000BF01380046FCD17047EFF3108072B67047E2
:404B000080F31088704700BF014B1868704700BF2881FF1F0E4B70B51E460E4C0025E41AA410A54204D056F8253098470135F8E700F0EEF8084B094C1E46E41AA4100025CD
:404B4000A54204D056F8253098470135F8E770BD1C4D00001C4D00001C4D0000244D000003460244934202D003F8011BFAE7704700000000B0047017B80B0000ABC000C0FC
:404B800001112131416153637300000008090101050707040400000024430040045B0040000200002443004024430040585B0040105A004000002020005B00401C510040DD
:404BC0003C5100403C510040808040800001010124430040035B00400001000001112131416153637300000008090101050707040400000040510040300000000140001063
:404C000000140140000800400140000A004C01400002005001402000E84C000000000000000000002000B80B881310007B140000019C4000D94A0000F04C000001000000BE
:404C4000000000002000983AC05D10007B140000019C4000CD4A0000F84C000002000000000000002000401FE02E10007B140000019C4000C14A0000044D000003000000E4
:404C80000000000020007017282310007B140000019C40002D3E000001000000010000000800000088130000010100000100000001000000080000008813000001010000CD
:404CC000010000000100000008000000D007000001010000010000000100000008000000881300000101000047454F5F5047410047454F5F4250000047454F5F4144444504
:404D00005200000047454F5F4C50000043000000F8B500BFF8BC08BC9E46704799000000C92C0000F8B500BFF8BC08BC9E46704775000000484D0000C080FF1F70000000A4
:404D400060B60000000000000000000008FFFF0100000000000000000000000000000000000000000000000000000000000000000C4D0000000000000000000000000000BD
:404D8000000000000000000000000000000000000000000000000000000000000000000000000000000000000000000000000000C880FF1F0000000000000000000000008D
:404DC00000000000000000000000000000000000000000000000000000000000000000000000000000000000000000000000000000000000000000000000000000000000B3
:404E00000000000000000000000000000000000000000000000000000000000000000000000000000000000000000000000000000000000000000000000000000000000072
:404E40000000000000000000000000000000000000000000000000000000000000000000000000000000000000000000000000000000000000000000000000000000000032
:404E800000000000000000000000000000000000000000000000000000000000000000000000000000000000000000000000000000000000000000000000000000000000F2
:020000040003F7
:0200000480007A
:4000000002520040016400400365004001070140630801403A090140391401402E1501403B1601401C1701404F180140321901404C1A0140481B01400640014003410140C3
:400040000342014007430140024401400145014003460140014701400948014008490140084C01400A4D0140075001400251014009200C04880F870D88388972E602000AC0
:4000800001030304040406080C0A1103120A13041D031E081F0C230824012B052D0A2F04300834013606370F38803B803E114046410146E047CB483849FF4AFF4BFF4EF01D
:4000C0004F44500C54015604580459045A045B045C115D115F0166C06A406B02800C82718410864087268C108EAC90DC9158922293069A039B109D629F0CA009A162A2D066
:40010000A31CA414A901AA20AF18B0E0B11EB360B41FB501B908BA02BB02BF14C003C504C9FFCA07CBFFCC40CD20CEF0CF05D008D804D904DA04DC11DD01DF01E040E1A8C8
:40014000E240E32001020220030104080501070109020A040D020F02100811081240161019231A041D401E881F40200421062680270129612A412C082F42310232A033028C
:400180003501368038083F024104460147014A204C04500C54105504561057015D105E8967408740C0BDC29AC42ECABDCC9DCE82D092D220D6F0D8800401100413011B01E5
:4001C0001C071D01240227012E07340737013B80402549FF4AFF4BFF4F0150185280580B590B5A0B5B0A5C995D995F016040624064406540668068806A806C806E80C06525
:40020000C9FFCAFFCBFFCD83CE03CF01D018D608DA08DB04DD99DF01E040E240E440E540E680E880EA80EC80EE80000409821220134018041B1021802B103002318032208C
:40024000400448024C024F205E805F20640567027280734078057F01940497029B209C019E80A002A102A260A710AE40AF28C004C209C405CA02CC0DD004D238D630D8300F
:40028000DE13EC10EE041B012F013501406449FF4AFF4BFF4D834E034F01501859085A085C905D095F016040624064406540668068806A806C806E809A01AE01AF01B50143
:4002C000B601BE40C025C5ECC720C823C9FFCAFFCBFFCD83CE03CF01D018D401D804D90BDA0BDB0BDC90DD99DF01E040E240E440E540E680E880EA80EC80EE8009201002B3
:4003000019402120222027082A802C02362040044502480249054F2050025102594578017F01C202C401CA18CC20D084D228D60BDE11E220000202040601100412021A01ED
:400340001F013001340637013E114063410542024404450C47E0482149FF4AFF4BFF4C624DA04EF04F41500C54185604580459045A045B045C905D115F01664067026910F7
:400380006A306B106D106E106F128403851389138C039005920894129502960897059A039C0B9D109E14A203A41CA81CA901AB26AE03AF08B003B120B303B510B61CB70C79
:4003C000BF40D602D713D804D904DB04DC11DD10DF010004020204080640071009290A010E800F08115519421A011F21212A230A264029603108324036803914471A4E06B1
:400400004F08560159015D02674A69146A807080710472088B40AC10AE01B110B301B404C035C25FC40FCA0CCC1ACE06D0E0D230D681D8B0E220001C020304130508060C98
:400440000C1F0D190F0210011301140215181A031B061C031D191F0420082110240425072718280C29012C1F2D1F3010340F371F38083A203B803E055608580459045B0434
:400480005C115D905F0180068201850488018A068D0C8E088F039006910F920198029B029C049D08A10EA208A301A503A601A70CA806A90CAC07B007B208B50EB701B98097
:4004C000BA02BB02BE04D804D904DC11DF01008601410340051006010740082009290A010CC00E400F0410851104120214251701180419111A181B201C801E401F0420023A
:40050000240826022701284129202B202C042D012F203004312633403460360239443A083B043C803E08588062C0821088809201940C95419608970899249A099D019E4015
:40054000A080A12BA682AB20B521C0DDC2DFC4FFCAEFCCBFCE5AD608D808E001EC103010320836243B10CCF0CE1097109C10A62C97109C10A62C1208862097109C10A62CD6
:40058000C440E6407D20DE01A5104508A510D001A51825102A102B08881097109C10A604C820CA10AA04AE10AF18B510E840EA10EC40EE20001062019A01A518B601C002BF
:4005C000D802EC02101081108810A510B410B508C408E204EA08EC0800020C02100211011B011C021D0100EF010300000000000000008B00400000000000000000000000D2
:40060000000029002000040B2B002000800000000002020000004000000000000000D60007001801000000000000000000000000000000000000000000000000000000005D
:40064000000000000000000000000000000000000000000000000000000000000000000000000000000000000000000000000000000000000000000000000000000000007A
:40068000000000000000000000000000000000000000000000000000000000000000000000000000000000000000000000000000000000000000000000000000000000003A
:4006C00000000000000000000000000000000000000000000000000000000000000000000000000000000000000000000000000000000000000000000000000000000000FA
:4007000000000000000000000000000000000000000000000000000000000000000000000000000000000000000000000000000000000000000000000000000000000000B9
:0200000490006A
:0400000000004005B7
:0200000490105A
:04000000BC90ACAF55
:0200000490303A
:020000004EC1EF
:0200000490402A
:4000000000000000000000000000000000000000000000000000000000000000000000000000000000000000000000000000000000000000000000000000000000000000C0
:400040000000000000000000000000000000000000000000000000000000000000000000000000000000000000000000000000000000000000000000000000000000000080
:400080000000000000000000000000000000000000000000000000000000000000000000000000000000000000000000000000000000000000000000000000000000000040
:4000C0000000000000000000000000000000000000000000000000000000000000000000000000000000000000000000000000000000000000000000000000000000000000
:0200000490501A
:0C00000000012E16106900012E365F2A48
:00000001FF