:400000000080002011000000254E0000254E0000144A80B5144B1268144F1A60F7B1144E002556F80C4C56F8080C56F8102C234638B1043A52F8041F43F8041B191B8142D1
:40004000F8D156F8040C1A4620B142F8045BD11A8842FAD1013F06F11006E2D105F056FC01F03EFDFA460040BC76004001000000F865000010B5054C237833B9044B13B19C
:400080000448AFF300800123237010BD3081FF1F0000000080590000084B10B51BB108490848AFF300800848036803B910BD074B002BFBD0BDE81040184700BF0000000060
:4000C0003481FF1F80590000C080FF1F000000002DE9F04F0126B346DFF878A2DFF87892DFF8A4828FB0C8F800B09AF8000099F8001001248842974A974B00F0D080107856
:4001000019781B788842127828BF20339B1A934ADBB21660002B00F0D1809149C8F800609AF8002099F800300878D2B2DBB210B99A4200F0BD80531CDBB2202B894828BF3D
:400140000023805C8AF800300A78854CC3B20AB100222270814A844916600A78052A00F2A480DFE802F0927D73150C037F4A8048D37003230B70002313700370B3E77B4A76
:400180007B48937005230B70002313700370AAE7764C77480022227002700A706278A178E0784A4042409A429DD1724B1A7852B96278C12A02D06278A52A94D16178212051
:4001C0001E7002F0C3FD6378684AC12B03D05178302002F0BBFD684B684A1B783221032B1160637875D0A33B152B3FF67CAF01A252F823F095080000E70000001D0900007E
:4002000035060000E7000000E70000008911000033120000E7000000E7000000E7000000E7000000E7000000E7000000FB060000E7000000390F00004D1000007511000059
:400240008D030000390A0000250B00004748484C837000220323C2700B700270227042E703F15D02414C424DD2B200201E2A2070287005D8424806FA02F7384008BB22B350
:40028000002323702B700B702DE7AB2B7FF42BAF3648374A00230E700370137023E730490B784BB12D4B1E6038E700230B701AE7344B1B78DBB24DE7284B1C600FB0BDE8C9
:4002C000F08F022263700A700DE7042263700A7009E7A53B1C2B01F2AA8101A252F823F01D150000591400002F1600002F16000059140000591400002F1600002F160000E5
:400300002F1600002F1600002F1600002F160000591400002F1600005914000059140000B51300002F1600002F160000111300002F1600002F1600002F1600002F16000093
:400340002F1600002F1600002F1600002F160000E70000006283FF1F3D83FF1F00E100E06083FF1F4083FF1F893700204C81FF1F883700207A81FF1F7981FF1F8881FF1FFC
:40038000CC403F404964004080E100E09E4B18787423002800F0EE809C4B01281D7841F2F08202281C7B01F064830328197E01F05D8393F824208DF81C204FF6FF7200230F
:4003C000CA208DF81A408DF818008DF819508DF81B108DF82A308DF82B308DF82C308DF81D308DF82D308DF81E308DF82E308DF81F308DF82F308DF820308DF830308DF8F8
:4004000021308DF831308DF822308DF832308DF823308DF833308DF824308DF834308DF825308DF835308DF826308DF836308DF827308DF8373006A80AAC10F8013B5108F2
:4004400083EA020581F4044215F0010F82F0080218BF11464D0881EA530111F0010F85F4044282F0080208BF2A46510881F4044582EA930212F0010F85F0080518BF294605
:400480004A0882F4044581EAD30111F0010F85F0080514BF294611464A0882F4044581EA131111F0010F85F0080514BF294611464A0882F4044581EA531111F0010F85F08E
:4004C000080514BF294611464A0882F4044581EA931111F0010F85F008050CBF114629464A0881EAD31382F4044113F0010F81F0080118BF0A46A0429FD1D343C3F30722B9
:4005000042EA0323C3F307228DF828308DF8292005F0EEF93E493F4A0B783F4D43F008030B70137843F00803137005F0E5F905F0DFF92B780146002B01F0678205F0DCF986
:4005400005F0D6F93249334A0B7843F008030B70137843F00803137005F0CEF905F0C8F92B7801462C4A002B01F01A8205F0C4F974230020294A8DF82B001278AB208DF847
:400580002C30C221B6238DF828008DF829108DF82A30002A00F09F80DFF894C0204B0AAF17F8015B9CF8000019780446C9B201F1FF3E421AC0EB0E0EA2F17F02BEFA8EFE52
:4005C000B2FA82F24FEA5E1E5209814288BF7246002AE9D1814201F0308002065ABF421CD2B201220F4948BF00248CF800200E4A0D551278900702D50C4A022111600DF1DA
:400600002D029742CCD166E06881FF1FC0390020A0430040B04300406783FF1F6081FF1FB882FF1FBC82FF1F6864004000E200E0B982FF1FA378DBB2082B41F23C819D49C6
:400640000B789D4A83F064018DF82B301278AB238DF82C108DF82830C221A6238DF829108DF82A30002A36D0DFF8ACC2934B0AAF17F8015B9CF8000019780446C9B201F1C6
:40068000FF3E421AC0EB0E0EA2F17F02BEFA8EFEB2FA82F24FEA5E1E5209814288BF7246002AE9D1814201F00D8002065ABF421CD2B20122824948BF00248CF80020814AE0
:4006C0000D551278900702D57F4A022111600DF12D02BA42CCD17D4B1B78022B3FF403AD7B4B7C491A780B7802F0020282F0020203F0FD0313430B70F5E4774B774D1F467E
:4007000002932B7803F0FE032B7003F0B7FA03F033FB2B7803F0FE032B7003F0AFFA3878FF2801F0C48001283FD002286C4B22D806FA00F11A78C9B211421DD0694D22EA40
:40074000010255F8205068491A702A780F5C674922EA0702095C66482A70425C013AD2B2425442B96348644A50F82100515C027822EA010202701A780298FF210170900753
:4007800011D442F002025D491A700A78584B42F001020A705A7822B95948017841F01001017001325A70029B1E70564B1A780AB100221A7003F0E0FA484A534D137803F061
:4007C000FE03137005F094F8504A0023E380504923722B8013804F4A0B701380E3603B4B1E7005F089F8A1883220FF2994BFC9B2FF2102F0ABFA354B2F4A1B781278DBB229
:4008000083F073018DF82B30AB238DF82C108DF82830C221B1238DF829108DF82A30002A3FF459AFDFF8F0C0244B0AAF17F8015B9CF8000019780446C9B201F1FF3E421A3D
:40084000C0EB0E0EA2F17F02BEFA8EFEB2FA82F24FEA5E1E5209814288BF7246002AE9D1814200F0268702065ABF421CD2B20122134948BF00248CF80020124A0D5512788A
:40088000910702D5104A022111600DF12D02BA42CCD120E7A378E178312043EA012109B28BB2FF2B94BFC9B2FF21A38002F04EFA19E400BFC480FF1F6081FF1FB882FF1F18
:4008C000BC82FF1F6864004000E200E07981FF1F2151004020510040C880FF1F004E00406383FF1F4C600000586000005C6000006483FF1F60600000686000000D51004010
:40090000005B00406683FF1F7C81FF1F7E81FF1F8283FF1F8483FF1FB982FF1F0121084602F014FA00213B2002F010FA724B00931B78002B3FF4D7AB704FDFF8E4C1704B9B
:4009400017F8015B9CF8000019780446C9B201F1FF3E421AC0EB0E0EA2F17F02BEFA8EFEB2FA82F24FEA5E1E5209814288BF7246002AE9D1814200F08A8602065ABF421C60
:40098000D2B201225F4948BF00248CF800205E4A0D551278900702D55C4A022111605C4ABA42CDD1009AAB21C3208DF828101278B8218DF829008DF82A100B2070218DF886
:4009C0002B008DF82C10002A3FF48DAB0AAF17F8015B9CF8000019780446C9B201F1FF3E421AC0EB0E0EA2F17F02BEFA8EFEB2FA82F24FEA5E1E5209814288BF7246002AA2
:400A0000E9D1814200F03A8602065ABF421CD2B201223C4948BF00248CF800203A4A0D551278900702D5394A022111600DF12D029742CCD1FFF757BBA278364B003218BFCB
:400A400001221A701A783449003218BF01220A701978324A09B1002151821B78264ADBB283F075018DF82B301278AB238DF82C108DF82830C221B7238DF829108DF82A30B0
:400A8000002A3FF428AEDFF898C01D4B0AAF17F8015B9CF8000019780446C9B201F1FF3E421AC0EB0E0EA2F17F02BEFA8EFEB2FA82F24FEA5E1E5209814288BF7246002A98
:400AC000E9D1814200F0EC8502065ABF421CD2B201220C4948BF00248CF800200A4A0D551278900702D5094A022111600DF12D02BA42CCD1EFE500BF6081FF1FDC5D0000A8
:400B0000B882FF1FBC82FF1F6864004000E200E0E05D00008083FF1F7D6400404C81FF1FB982FF1F954B1A78002A40F06986944B1B6813B10121084698474DF2B7130493A0
:400B4000904B914D0593914B029300230393059B9DF80C401B786A7BA342A97B00F2EF858A4202EB010340F2E586511A98B2C9B2FF28009100F2E3868A4280F0068703F039
:400B80007DF8029B19782B79FF292ED08B4255D0022927D87E4806FA01F20778D2B23A4220D0DFF800E227EA02025EF82170DFF8F8E102703A781EF801E0764822EA0E022A
:400BC000415C3A70744A7448525C013AD2B2425442B97248724A50F82100515C027822EA010202700299FF220A70FF2B26D0022B22D8674906FA03F20878D2B202421BD159
:400C0000684F024357F82300674F0A700178FA5C604F11430170FA5C5F49895C49B95F485F4950F82200895C0778394301705A49895C594801318154029A13705B4B1A785D
:400C40000AB100221A7003F097F8009FAB6D384601939847564804F043FE494B1B6823B321462D209847464BAC681B68210EE3B12A209847424B1B68BBB1C4F307412A20B7
:400C800098473F4BC4F307211B6873B12A2098473B4B9DF810101B683BB12A209847384B1B6813B139461320984704F0B5FD344B04461B68B3B1010E2E209847304BC4F32A
:400CC00007411B6873B12E2098472D4B1B684BB1C4F307212E209847294BE1B21B680BB12E209847334C14F8017BAB6D384698472F4804F0F5FD224B2B201B680BB1394613
:400D0000984704F089FD07461D4B2C201B68390EA3B198471A4B2C201B68C7F307416BB19847174BC7F307211B682C2033B19847134B2C201B68F9B203B198471E4BA3429C
:400D4000D1D1009C019B20469847194804F0C8FD0B4B1B6813B121461320984704F05CFD074B04461B68002B37D0010E2E209847034BC4F307411B687BB31FE07981FF1F35
:400D8000BC3900206881FF1FB8600000C880FF1F6383FF1F5C6000006483FF1F60600000686000004C600000586000006683FF1F80FC0A0084600000876000002E20984763
:400DC000854B1B684BB1C4F307212E209847824BE1B21B680BB12E209847039B5C350133022B039340F0A78402F048FF029B1878FF2800F0D18501283FD00228774B22D85A
:400E000006FA00F11A78C9B211421DD0744C22EA010254F8204073491A7022780D5C724922EA0502095C71482270425C013AD2B2425442B96E486F4A50F82100515C027845
:400E400022EA010202701A780298FF210170910711D442F0020268491A700A78634B42F001020A705A7822B96448017841F01001017001325A70029B1E70614B1A780AB1C1
:400E800000221A7002F078FF5E4A5F49137803F0FE0313700B785D49003318BF01235C4A0B701378AB21C2228DF828108DF82920B8217B228DF82B608DF82A108DF82C2077
:400EC000002B3FF408ACDFF880C1524B0AAF17F8015B9CF8000019780446C9B201F1FF3E421AC0EB0E0EA2F17F02BEFA8EFEB2FA82F24FEA5E1E5209884238BF7246002AA0
:400F0000E9D1884200F00E8401065ABF421CD2B20122414948BF00248CF800203F4A0D551278920702D53E4A022111600DF12D02BA42CCD1FFF7CFBBA3783A20003318BF67
:400F400001232374217C01F001FF237C354D002B00F0118402F078FB2A49334A0B78AD8803F0FE030B701378304903F07F03304813706A1E4023B2F5007F00780B6028BF8C
:400F80004FF400752B4F04F0B3FC2B49002326742A4AE38023723B800B8029491370E3600B80284B02221A7004F0A6FCA388B3F5007F03D9FF213E2001F0C8FEFF2D94BF1D
:400FC000E9B2FF21352001F0C1FE0E4A137843F001031370FFF787B8BC3900206383FF1F4C600000586000005C6000006483FF1F60600000686000000D510040005B004060
:401000006683FF1F004E00408083FF1F7D6400406081FF1FB882FF1FBC82FF1F6864004000E200E04C81FF1F7565004080E200E0676500407C81FF1F7E81FF1F8283FF1FAA
:401040008483FF1F7981FF1FB982FF1F0021392001F07CFE9E4BAB21C2221B788DF828108DF82920B42177228DF82B608DF82A108DF82C20002B36D0DFF890C2954B0DF1F8
:40108000280E00941EF8017B9CF8004018782546C0B2411E221A091BA2F17F02B1FA81F1B2FA82F249095209A04288BF0A46002AECD1A04200F0D28220065ABF621CD2B20F
:4010C0000122854948BF00258CF80020834A4F551278910702D5824A022111600DF12D027245CFD1009C02F0AFFA7E497E4A0B78A58803F0FE030B7013787C4903F07F0337
:401100007B4813706A1E4023B2F5007F00780B6028BF4FF40075774F04F0EAFB764900232374764AE38023723B800B8074491370E3600B80734B02221A7004F0DDFBA3884F
:40114000B3F5007F03D9FF213E2001F0FFFDFF2D94BFE9B2FF21352001F0F8FD614A137843F001031370674B1B78022B7FF4B8AAFEF7B9BF012002F0DDF8624B1B78022B93
:401180007FF4AEAAFEF7AFBFA378AB20DBB2082B8BBF5D4B5C4A1B7813704D4A8DF82B30127883F06B038DF82C30C221A9238DF828008DF829108DF82A30002A3FF48BAA5F
:4011C000DFF848C1434B0AAF17F8015B9CF8000019780446C9B201F1FF3E421AC0EB0E0EA2F17F02BEFA8EFEB2FA82F24FEA5E1E5209814288BF7246002AE9D1814200F040
:40120000258202065ABF421CD2B20122324948BF00248CF80020314A0D551278900702D52F4A022111600DF12D02BA42CCD1FFF752BAA378264ADBB283F068018DF82B3019
:401240001278AB238DF82C108DF82830C221AA238DF829108DF82A30002A3FF43CAADFF8ACC01C4B0AAF17F8015B9CF8000019780446C9B201F1FF3E421AC0EB0E0EA2F14B
:401280007F02BEFA8EFEB2FA82F24FEA5E1E5209814288BF7246002AE9D1814200F0E68102065ABF421CD2B201220B4948BF00248CF80020094A0D551278900702D5084A31
:4012C000022111600DF12D02BA42CCD1FFF703BA6081FF1FB882FF1FBC82FF1F6864004000E200E0004E00407565004080E200E0676500407C81FF1F7E81FF1F8283FF1F0F
:401300008483FF1F7981FF1F9081FF1FB982FF1F7B4B1220197801F019FD7A4BAB22C2218DF828201B78B8228DF829108DF82A2000217A228DF82B108DF82C20002B3EF471
:40134000D2AEDFF8D4C1704B0AAF17F8015B9CF8000019780446C9B201F1FF3E421AC0EB0E0EA2F17F02BEFA8EFEB2FA82F24FEA5E1E5209814288BF7246002AE9D1814275
:4013800000F0B88102065ABF421CD2B201225F4948BF00248CF800205D4A0D551278900702D55C4A022111600DF12D029742CCD1FEF799BE524B1220197801F0C7FC514B8D
:4013C000AB22C2218DF828201B78B5228DF829108DF82A20002177228DF82B108DF82C20002B3EF480AEDFF830C1474B0AAF17F8015B9CF8000019780446C9B201F1FF3E0C
:40140000421AC0EB0E0EA2F17F02BEFA8EFEB2FA82F24FEA5E1E5209814288BF7246002AE9D1814200F0768102065ABF421CD2B20122364948BF00248CF80020344A0D555D
:401440001278900702D5334A022111600DF12D02BA42CCD1FEF747BE6178122001F076FC6378284ADBB2127883F0C204AB208DF82A30C22100238DF82C408DF828008DF8C5
:4014800029108DF82B30002A3EF42DAEDFF888C01D4B0AAF17F8015B9CF8000019780446C9B201F1FF3E421AC0EB0E0EA2F17F02BEFA8EFEB2FA82F24FEA5E1E52098142AA
:4014C00088BF7246002AE9D1814200F01B8102065ABF421CD2B201220C4948BF00248CF800200B4A0D551278900702D5094A022111600DF12D02BA42CCD1FEF7F4BD00BFAF
:401500007981FF1F6081FF1FB882FF1FBC82FF1F6864004000E200E0B982FF1F00213B2001F014FCA54B00931B78002B3EF4DBADA34FDFF8C8C2A34B17F8015B9CF8000001
:4015400019780446C9B201F1FF3E421AC0EB0E0EA2F17F02BEFA8EFEB2FA82F24FEA5E1E5209814288BF7246002AE9D1814200F0B98002065ABF421CD2B20122924948BFA1
:4015800000248CF80020914A0D551278900702D58F4A022111608F4ABA42CDD1009AAB21C3208DF828101278B8218DF829008DF82A100B2070218DF82B008DF82C10002A21
:4015C0003EF491AD0AAF17F8015B9CF8000019780446C9B201F1FF3E421AC0EB0E0EA2F17F02BEFA8EFEB2FA82F24FEA5E1E5209814288BF7246002AE9D181426BD00206E7
:401600005ABF421CD2B201226F4948BF00248CF800206E4A0D551278900702D56C4A022111600DF12D02BA42CDD1FEF75CBD6178122001F08BFBFEF756BD644A12785107BA
:401640003EF5CBAF644A1570FEF7D9BF5F4A127851073FF5D6AD604A1570E4E55B4A127852073FF529AD5C4A177037E5574A127851073FF515AE584A157023E6534A127817
:4016800051073FF5C1A9544A1570FFF7CFB94F4A127851073FF571A94F4A1570FFF77FB94A4A127851073FF50FAA4B4A1570FFF71DBA464A127851073FF5D5A8464A1570FC
:4016C000FFF7E3B8414A127851073EF5EEAF424A1570FEF7FCBF3D4A127851078FD43E4A15709EE7394A127851073FF542AF3A4A157050E7354A127851073FF543AE364A2D
:40170000157051E6314A127851073FF5E0AE324A1570EEE62D4A127851073FF585AE2E4A157093E6294A127852073FF5EDAB2A4A1570FFF7FBBBAB680493FFF708BA039BFC
:40174000264803EB43038A4210F8230002EB010340F2E380521A99B2D2B2FF29009200F2E2809042FFF40BAADBB2834228BF03460093FFF704BA1A4A1A4D137803F0FE0374
:40178000137001F061FF1849184A0B78184803F07F030B7010602B78002B00F0D780124914480A78002342F080020A70124AE380237203701370FEF796BC00BF6081FF1F61
:4017C000DC5D0000B882FF1FBC82FF1F6864004000E200E0E05D00004B640040C0390020004E00407381FF1F756500402465004080A903008283FF1F7981FF1FB982FF1FA6
:401800001978122001F0A2FA9F4BAB22C2218DF828201B78B8228DF829108DF82A2000217A228DF82B108DF82C20002B3EF453AFDFF8A8C2954B0AAF17F8015B9CF8000071
:4018400019780446C9B201F1FF3E421AC0EB0E0EA2F17F02BEFA8EFEB2FA82F24FEA5E1E5209814288BF7246002AE9D1814217D002065ABF421CD2B20122854948BF0024C9
:401880008CF80020834A0D551278910702D5824A022111600DF12D02BA42CDD1FEF71BBF7C4A12785107E3D47C4A1570F2E77C4B1A78FEF764BF7B4A06AC1546106851686F
:4018C000177A03C455F80C0F0AAA69682D7A03C275497648277015700B7002780EACE71802F08003DBB2037017F8105C027817F8204CAD00224305F00C056D4C2A4302705C
:40190000237803F0F3032370237817F8102C43F00C0313432370FEF793BE9AB2FF2A7FF623AF00230093009B834238BF03460093FFF725B999B2FF2927D900230093009BFC
:40194000934238BF13460093FFF719B9FF23136041F8713C03F0CCFF564A137843F01003137003F0C9FF544B1A78120704D553490A681A781707FBD4514B00221A702E7069
:401980000DE774230020FEF7F5BDDBB29A4228BF1A460092FFF7F3B8414B1A78FFF757BA484B16701A68D00708D51A6822F001021A6000BF00BF00BF434B1E60084603F0E3
:4019C0009BFF06A8002102F08FF80028D9D103F08FFF3E493E4A0B7843F008030B70137843F00803137003F087FF01F0B3FF0028C7D12046012102F077F8B0FA80F04009F3
:401A000080F07403DBB2FEF7B5BD2E4B2E701A68D00708D51A6822F001021A6000BF00BF00BF294B1E60084603F066FF294B1A78970717D5284AB6211170E0200D21107090
:401A400011701A78910706D41F46182003F048FF3B789B07F9D51F4B1A78920702D51B789B080AD001F058FFFEF76ABD0022FEF7A2BC00221146FEF79EBC01F04DFF01F09C
:401A80008BFFFEF75DBD00BF6081FF1FB882FF1FBC82FF1F6864004000E200E04B6400406383FF1F84590000C480FF1F0658004005580040976500406765004044650040AF
:401AC00087650040040008406883FF1FA0430040B04300402247004020470040B982FF1F2DE9804887B062B6B44C2278002A00F05F8703F0FDFEB249B24E0B78B24A43F004
:401B000020030B703378012543F010033370156011F8013CAD4F43F0100301F8013C0226A1F503513E60373916600B78A84A43F004030B70137843F00403137003F0DCFE45
:401B4000A44B1A787AB9A448A44972270770A44E20270F7006273770A0F5A7704726067001F8FC2C1D7003F0C3FE9E499E4A0B789E4D43F020030B701378A1F5075143F091
:401B8000100313702B78393943F010032B700B78A2F5075243F00203263A0B70137843F00203137003F0A8FE914801F081FF0121904803F0FBFA02218F4803F0F7FA8F4B50
:401BC0008F4A012108461A6001F0C0F803F090FE8C498D4A0B7843F008030B70137843F00803137003F088FE01F0B4FE002800F0BD8603F07DFE8349834A0B78834D43F0C0
:401C000008030B701378C82643F0080313702E700B7B43F010030B73137B01F5587143F0100313730B789E06FCD503F065FE784F63783D78614953B9764B01201A7848705C
:401C400002F0FC021A701A7842F003021A70724872490378724A43F0600303700B78A07843F002030B701378544943F00203137050B902F5A65206321378012003F0CF0310
:401C800043F0300388701370E3784C4953B9654B01201A78C87002F0FC021A701A7842F003021A705C485D4903785D4A43F0600303700B78207943F008030B7013783F4E7D
:401CC00043F008031370002800F09886564857490378514A43F0020303700B78284643F002030B70137843F08003137001F08AFF6379324953B94E4B01201A78487102F0B2
:401D0000FC021A701A7842F003021A70424943480B78434A43F060030B700378454943F004030370137843F0040313700B78DD0740F1198623F001033F480B7002783F4B3F
:401D400022F0200202701A78013AD2B21A702AB910F8582C22F0200200F8582C0A78354D900712D522F0020235482A70027822F0010202705A78013AD2B25A702AB990F84D
:401D8000F32922F0100280F8F3290A78294851075AD522F004022A4902700A7822F010020A705A78013AD2B25A70002A4CD1254A137823F01003137046E000BF6081FF1F8F
:401DC000996400409A64004000E100E080E200E0B24300406E83FF1F8B650040886500402D6400409B650040986500409C640040E05D0000F05D0000045E0000BC39002035
:401E00004D2D0000A0430040B043004001470040C480FF1F5A58004077580040A4430040B44300405E580040A9430040B94300405C5800406383FF1F585B00406483FF1F3B
:401E40000D510040005B0040C849C94BFF20002208701A7001F012FF01F0FEFC01F08CFFC449A2790B78C44803F0FE030B70002A00F03784C14AC2491378C24D43F0020375
:401E800013700B78E27943F0020340260B70BA482E70002A00F0FF83BB4EB849B0460B78B74A43F001030B701378B84943F001034020DFF83493137006F1180B087000223E
:401EC0004FF0010A99F80D0099F80E104318451A88421FFA83FEEDB240F2CF8399B2FF29DBB200F2CE83A84280F0D083D9F85830284601929847019A88F80050C8F8042092
:401F000088F808A008F10C08D84509F15C09D9D19F4DDFF8D8A2A9460DF108080223C8EB0A0A23720DF1070B03F0E2FC2B7843F001032B702B789A07FCD51AF80B3099F842
:401F40000020DBB202F0FE02019389F8002003F0D3FC019B0BF8013F0DF117039B45E3D19DF80830CA2B00F0198494F80980DFF808A2B8F1000F00F0AB84864A864811785D
:401F8000864B41F0100111700178854E41F010010170197800F5034041F00101197011784FF03F0E41F0100111701D781A78D63002F0FE021A707B4986F800E04FF40072B1
:401FC00080F800E0A0F28C7003F0CEFC7649774BDFF81CE205F00105002651F8042F043322F07F42100C4FEA122C03F8020C03F8016C03F8042C03F803CC73454FF0000051
:40200000EBD16B496B4BF82208701A7025B1634A137843F00103137041F6FF71664D674B2A0C8A4208BF4FF4005200204FF4804183261E70787058709870D8709980DA805E
:4020400001F0FAFB02F028F9030602460ED444F61060D30003F1804303F5F043A9B2032606251E809A70DD709880D9807878172803D8534B01010B445A7201F0CBFB514BA8
:4020800000224FF480418320022518705A7028469A70DA709980D980BD7001F0CDFB02F0FBF8060602460ED444F610604CF2A071D30003F1804303F5F04303261E809A702A
:4020C000DD709880D980B878172803D83C4B01010B445A7201F09EFB41F6FF713A4E3B4B320C8A4208BF4FF4005283211970012500204FF480415D709870D8709980284674
:40210000DA80FD7001F098FB02F0C6F8050602460ED44CF2A870D30003F1804303F5F043B1B2072503261E809A70DD709880D980F878172803D8224B01010B445A7201F041
:4021400069FB234B0025234F1D7001F07DFA2946022000F0FBFD3B681F49204A0820204D0860DA641F4BE0222A7043E0C880FF1F6683FF1F004E00406081FF1FA84300408A
:40218000B8430040815B0040C0390020805B004002470040A6430040B643004080C7004088C70040A06100009C63000000C200408CC7004084C700406C81FF1F00760040B2
:4021C00010700040107600407081FF1F087600407D64004008ED00E080E100E0FD2B000003E400E000E100E0B86000000180004000C40040A64E1860386810250D600665AF
:40220000A448A54E02701D603D6840200860AE65A24DA34E2A703D681860DFF8B4E2202008606E659F4E8EF80020186030789E4D40F00800307028783F6840F0080006F1E5
:40224000A026DFF890C2DFF890E228706036042005F50755CCF8000003350860C7F848E0327018602B78914A914903F07F032B701160E37C002B00F057828E4A8E4E1378AE
:40228000B24643F08003137003F032FB656903F033FB3378002103F0FD0343F002033370202000F053FDA846DFF830B2834EDFF83092A37E824F002B5CD13A7E002A40F057
:4022C0009D8002F003F803F013FB676903F014FB7A1B002A7A4B7FDB1B78002B33D0DFF804E20EF104081EF8015B9BF8001032780846D2B202F1FF3C8B1AC1EB0C0CA3F1DE
:402300007F03BCFA8CFCB3FA83F34FEA5C1C5B09914238BF6346002BE9D1914267D00B0658BF4B1C674A52BFDBB20123002015548BF8003099F800309A0702D5624B0222FB
:402340001A60C645CFD19AF8003007F1460503F0FD0343F002038AF800309AF80030B84603F0FD0343F002038AF80030A37E544F002BA2D03D460523DFF83CA101934FF026
:4023800000099AF8003003F0FD038AF8003003F0AFFA676903F0B0FA083701E001F096FF03F0A6FAD4F8148003F0A6FAC7EB0803002B3ADA2B7E002BF0D085F818903C2067
:4023C000697E00F0C3FC6B7E3D2003F0FF0243B3697E00F0BBFCE1E7C8EB07073B2F1BD99AF8003003F0FD038AF8003061E799F800305A0793D4354B1D70A2E73B763C20C7
:40240000797E00F0A3FC7B7E03F0FF0033B1797E3D2000F09BFC54E747469EE700F08AFF4FE7104600F086FFB8E79AF8003003F0FD0343F002038AF8003003F059FA204BB6
:402440005F6903F059FA083701E001F03FFF03F04FFAD4F8148003F04FFAC7EB0803002B42DA2B7E002BF0D085F818903C20697E00F06CFC6B7E3D2003F0FF021BB1697EE2
:4024800000F064FCE1E7104600F054FFDDE700BFD12A000004E400E07132000006E400E0C1300000A2430040B24300402465004080A903007565004020510040B882FF1F55
:4024C0006081FF1FBC82FF1F00E200E04B64004005E400E080E200E0B92A0000B982FF1F68640040DC5D0000019B03F1FF3818F0FF0301937FF445AFDFF894A2984F4FF045
:402500000008237E964D002B79D101F0DFFE6B7E022BF3D0AA8BEB8B92B29BB29A42EDD303F0E6F96F6903F0E7F96B7E0BB9AB8BEB8B627E8A4B002A74D1998BDA8B89B25D
:4025400092B291426ED31A6A12B907F164021A62BA1A002A3BDB237807F164022262002B35D0DFF830E2DFF830920EF104081EF8015B9BF8001032780846D2B202F1FF3CCD
:402580008B1AC1EB0C0CA3F17F03BCFA8CFCB3FA83F34FEA5C1C5B09914238BF6346002BE9D1914260D00A066E4B54BF013100201D5454BFC9B201216B4B8BF800101B78A0
:4025C0009B0744BF0223C9F80030C645CFD1627E634B022A2CD05A6A52B3BA1A8ED0996A5F628A4226D39AF80020002102F0FD0242F002028AF800209962D9627EE787F885
:4026000018803C20797E00F0A1FB7B7E3D2003F0FF021BB1797E00F099FB72E7104600F089FE6EE7627E0023022A23624C4BD2D15F6263E7D86A891A0244042A99621AD9D7
:402640005A7E0021022AD9623FF458AF474B1A789AF8003002F0020282F0020203F0FD0313438AF8003049E73F4B1B785B079AD43F4B1D70A9E7DA6240E7BEF1FF0F04D9B2
:402680000025854238BF054630E4DBB2984228BF184605462AE4374B01F5A35109311A700A701A78A1F5905102F0F3021A701A78193942F004021A701A780125C2F3810219
:4026C00002F19242063292F82021C571D2B20A701A7802F0FD021A701A78D2B21A70FFF7DBBB254B01251A7081F8252A1A78A1F2F77102F0F3021A701A7842F004021A7069
:402700001A788571C2F3810202F19242063292F83021D2B20A701A7802F0FD021A701A78D2B21A70FFF7A6BB1449FF2313600B6003F0DEF8124A137843F01003137003F034
:40274000DBF8104B1A78100704D50F4A116819780907FBD40D4A002101231170E3748CE56081FF1FBC82FF1F68640040215100404B6400402058004024580040046500405D
:402780009765004067650040446500408765004020510040DC5D000000E200E0102001F013FA8146112001F00FFA45464FF6FF7249EA002080B215F8013B510881F4044EC1
:4027C0005A4012F0010F8EF0080E18BF71464A0882F4044E81EA530111F0010F8EF0080E14BF714611464A0882F4044E81EA930111F0010F8EF0080E14BF714611464A08BB
:4028000082F4044E81EAD30111F0010F8EF0080E14BF714611464A0882F4044E81EA131111F0010F8EF0080E14BF714611464A0882F4044E81EA531111F0010F8EF0080E4E
:4028400014BF714611464A0882F4044E81EA931111F0010F8EF0080E0CBF114671464A0881EAD31382F4044113F0010F81F0080106AB18BF0A469D429DD1D243C2F30723CC
:4028800043EA022293B298427FF46FAB9DF809509DF80A80284602F0B9FF227A654B012A98BF02224046357098BF1A7202F0A8FF227A86F80C80012A5E4B94F809809CBF73
:4028C00002221A72DFF86CA1B8F1000F7FF455AB59495A4A0B785A4D43F010030B701378DFF8C89103F0FE033F201370554928704FF4807289F80000534803F035F84FF46D
:4029000080725049514803F02FF84FF480725049504803F029F8504E4FF400724F49504803F022F8883D4FF400724E494E4803F01BF80FCE0FC50FCE0FC50FCE0FC596E811
:402940000F00DFF86CE185E80F00484E484A0123F82189F800808EF800808AF8093033701170FFF70ABB434BFFF7F8B9424B1A7890073FD5414A0D21B625E020157010700A
:4029800011701A78910706D41D46182002F0A8FF2B789F07F9D5384B1A7892072AD51B789B0827D100F0B8FF00F0F6FFFFF721B9334B344F1E68344D3448E0213764297057
:4029C00002703348334A72261D68334F067020201070A3F60713314E31486F64197006274725022101233770057002F8021C2370FFF77FB800F090FFFFF7FBB8294BDFF84A
:402A0000B4800C221A7098F80030274A43F0200388F800301070032001F0F4F898F80030012203F0FC0343F0030388F800303271FFF74CB96081FF1FA643004080C70040E8
:402A400088C700409C59000000C4004000C500409C5A000000C600409C5D0000A061000000C000409C5B000000C200409CC7004084C700406483FF1F224700402047004057
:402A800008ED00E09D37000000E400E03C83FF1F896400408A640040453700002A6400403A64004004580040065800408CC7004098C70040055800400349044B042001225E
:402AC00008601A70704700BF80E200E07881FF1F404A0120117853789278120442EA03230B431A023C4A48BF43F07F433B49136010710A8892B23AB9394A12781AB1394A1C
:402B00001278022A05D070470B88013B9BB20B8070472DE9F04F344E327802F0FF0E002A55D1324A324C158821886A1E92B2B2F5007F34BF2F464FF4007789B2B94246D283
:402B40002C4F398889B21D2941D83988B4F80080DFF8A4C04FF05A091FFA88F809FB08C801EB410189B25FFA83FA08F801A0B4F8008001F1010A1FFA88F809FB08C8C3F31C
:402B8000072B08F80AB0B4F80080C3F307431FFA88F809FB08CC02310CF801303B8801339BB23B803B889BB21D2B10D9A7F800E02388B2F5007F03F101039BB22380238801
:402BC00028BF4FF400759BB2AB4228BF3070BDE8F08F00BF7081FF1F9481FF1F5E81FF1F8083FF1F7981FF1F8283FF1F5081FF1F7E81FF1F5281FF1F8883FF1F47490A78BF
:402C000048788B781B0443EA002313431A02444A48BF43F07F431278012A03D1002BB8BF1F335B113F4A0121936090683E4BD06011741B781BB93D4B1B78022B00D0704773
:402C40002DE9F0433A4C2378002B5BD1394B3A4D18882988431E9BB2B3F5007F34BF06464FF4007689B2B1424CD2344E318889B21D2947D8324F31883F7801EB410189B2E9
:402C8000002F41D19268B5F800E02E4F4FF05A0C1FFA8EFE0CFB0E7E5FFA82F80EF80180B5F800E001F101081FFA8EFE0CFB0E7EC2F307290EF80890B5F800E002311FFA7C
:402CC0008EFE0CFB0E77C2F307427A5432881A49013292B232803288184E92B21D2A11D9B3F5007F4FF0000333800B8828BF4FF4007001339BB20B802B889BB2834224BF18
:402D000001232370BDE8F0830F4F3A6802F1010EC7F800E022F07F42B5E700BF6C81FF1FC980FF1F9481FF1F8083FF1F7981FF1F8283FF1F5081FF1F7E81FF1F5281FF1FF7
:402D40005C81FF1F8883FF1F5881FF1F2DE9F04FA64B8BB01B78A64ADBB21E46019383F0C4034B4012784340AB25C4248DF816008DF817108DF818608DF819308DF814502A
:402D80008DF81540002A00F0E880DFF89C82994FDFF898B2DFF898920DF1140E0DF11A0A1EF8016B98F800403A782546D2B202F1FF3CA31AC4EB0C0CA3F17F03BCFA8CFC7D
:402DC000B3FA83F34FEA5C1C5B09A24288BF6346002BE9D1A24200F0B880230659BF0134E4B2012400250BF8056088F8004099F800309A0702D5804B02221A60D645CFD1FB
:402E00007E4B7F4C020900F00F009D5C185C237800228DF80C508DF80D008DF80E20002B33D0784F784A794E0025452013785B07FCD40135ADB23070785D0028F6D123784B
:402E4000002B00F09B809DF80C507DB16E4A6F4E13785F07FCD4013080B20AAB3570034413F81C5C002DF3D1237873B1684F664A664E0020202513785B07FCD4013080B2F0
:402E800035703D5C002DF6D1237800297AD130228DF8102001220AA90A44002102F8181C0BB39DF8100078B1574A584D13785B07FCD4013189B20AAB28700B4413F8180C90
:402EC0000028F3D1237873B1524E4F4A4F4D0021202013785F07FCD4013189B22870705C0028F6D12378019A002A40F0A38030228DF8102001220AA90A44002102F8181C43
:402F000003B39DF8100078B13F4A404D13785E07FCD4013189B20AAB28700B4413F8180C0028F3D123786BB13B4D374A374C00210D2013785B07FCD4013189B22070685C04
:402F40000028F6D10BB0BDE8F08F99F800305A073FF543AF314B1E7050E7284B284C050900F00F005D5D185C23788DF80E208DF80C508DF80D00002B7FF453AF09B90B4664
:402F800085E700232648A0FB0152D20802EB8205A1EB450530358DF81C50002A00F08280A0FB02501F4DC008A5FB015100EB8000A2EB4002303249098DF81D2078D001F193
:402FC00030028DF81E2003220AA9114411F80D5C11F80E0C032A8DF810508DF811007FF45AAF11F80F1C8DF8121054E77981FF1F6081FF1FB882FF1F00E200E0205E000031
:403000006E83FF1F306000006C6400404C6400403860000040600000486000004B640040CDCCCCCC1F85EB51B982FF1FBC82FF1F6864004015462049A1FB0202D20802EB25
:403040008200A5EB400030308DF81C0022B3A1FB02011A48C908A0FB055001EB8101A2EB410230328DF81D20420923D030328DF81E2003220AA9114411F80D5C11F80E0CDF
:40308000032A8DF810508DF811007FF434AF11F80F1C8DF812102EE79DF81C1001228DF8101028E79DF81C1001228DF81010F2E6022289E70222DDE7CDCCCCCC1F85EB519C
:4030C0002DE9F041534B544C1B78580708D533202178FFF73BFE2378012B48D0BDE8F08134202178FFF732FE4C494D4A0B784D4803F0FE030B7013784B4903F07F034B4D7A
:40310000137001602B78B3B1454A494F1378494E43F08003137002F0EBFB474D4749484A00233B8033702B800B8013702370BDE8F04102F0E1BBFF23036042F8713C02F005
:40314000D7FB404A137843F01003137002F0D4FB3D4A1378190704D53C490B6813781B07FBD43B4A0021012311702B70CCE7394B1B7813B1384B3F221A802849DFF8EC80B9
:40318000364F98F800600B78254A03F0FE033D880B7013782C4803F07F031370304B691E02784022B1F5007F1A60F6B228BF4FF4007502F09DFB00361D494FF0000318BF7A
:4031C00001261C4A88F800600B801B4E1B4913701B4A33800B80234E23491370022233600B80227002F088FB3B88B3F5007F03D9FF213E20FFF7AAFDFF2D94BFE9B2FF2120
:403200003520FFF7A3FD054A137843F001031370BDE8F081C15100407981FF1F004E0040756500402465004080A903007381FF1F5281FF1F5481FF1F7C81FF1F7E81FF1FC4
:403240008283FF1F976500406765004044650040876500408083FF1F5E81FF1F5081FF1F80E200E05881FF1F8483FF1F5C81FF1F10B5244A244B25491B78136801331360A3
:403280000B78BBB1224A13780133DBB213701378ABB9204A20491378204803F07F03204C13700860237883B11A4A137843F08003137010BD03F0FF02154B1A70E9E7194B8D
:4032C0000020012110701970E3E7FF230B6042F8713C02F00DFB144A137843F01003137002F00AFB084A1378190704D50F490B6813781B07FBD40E4A0021012311702370D4
:40330000D2E700BF7481FF1F67650040893700204C81FF1F756500402465004080A903007381FF1F883700209765004044650040876500402DE9F04FA84F83B03B7806465C
:403340005BB139781220FFF701FD002E40F0E8800025284603B0BDE8F08F03F0FF05A04AA04B0121A04C0846DFF8C882258015801D70FFF7EBFC29461020FFF7E7FC98F845
:403380000240A946002C51D029461120FFF7DEFC002EDDD0954BAB241B78C220B52177228DF803908DF800408DF801008DF802108DF80420002BCCD0EE468D4F8D4CDFF887
:4033C00078A2DFF87882DFF878B20DF105091EF8016B397822780846D2B202F1FF3C8B1AC1EB0C0CA3F17F03BCFA8CFCB3FA83F34FEA5C1C5B09914238BF6346002BE9D1BB
:40340000914200F0E2800A0659BF0131C9B2012100200AF80060397098F800309B0744BF0223CBF80030F145D1D192E7724B20221A6000F023FC00F021FC00F09DFC6F4AA0
:40344000137803F0FE03137000F018FC6C4A02210123117088F8055088F8023088F8043088F8034088F8064002F042FA654B1D6802F042FA6449654B0A78C8F8905142F0C1
:4034800010020A7093F800E01A7801F5034102F0FE021A705E4A3F23E231C8F894515D480B7013705C494FF40072C8F85640C8F85A400EF0010502F057FA20465749584B6E
:4034C000DFF880C151F8042F043322F07F424FEA122E140C03F8042C03F8010C03F803EC03F8024C63454FF00002EBD148484D4BF8210270197025B1444A137843F0010328
:4035000013700036484818BF0126012506702846464A0021032311703B7003B0BDE8F08F324BAB251B78C224B520002177228DF800508DF801408DF802008DF803108DF8CC
:403540000420002B3FF404AF6E46294F294CDFF8E890DFF8E8C0DFF8E8B00DF105084FF0020A16F8015B397822780846D2B202F1FF3E8B1AC1EB0E0EA3F17F03BEFA8EFE64
:40358000B3FA83F34FEA5E1E5B098A4288BF7346002BE9D18A4211D00B0659BF0131C9B20121002009F8005039709CF800309A0748BFCBF800A04645D3D1C9E69CF80030EE
:4035C0005A07E9D41A4B1D70F5E798F800305B073FF519AF164B1E7025E700BF7981FF1F7E81FF1F8283FF1F7C81FF1F6081FF1FB982FF1FB882FF1F80E100E0004E004015
:403600006881FF1F7481FF1FA643004080C700408CC7004000C00040A06100002C5E000000C2004084C700408183FF1F243900204B6400408C370020BC82FF1F686400403C
:4036400000E200E000C4004070B5324C237803F0FE03237000F012FB00F08EFB237803F0FE03237000F00AFB2B490B78FF2B46D0012B37D0022B294842D801249C40027895
:40368000E4B214421DD0264D22EA040255F82360244C02703278E45C234D22EA0404EA5C224D3470AB5C013BDBB2AB5443BB204C204B54F822409A5C237823EA02032370AB
:4036C000027893070CD442F002021B4C027017482278437842F0010222709BB10133437001230B70154B1A780AB100221A7000F043FB084A137803F0FE03137070BD074823
:403700000278DEE794F8F32942F0100284F8F329E4E700BF004E0040C880FF1F6383FF1F4C600000586000005C6000006483FF1F60600000686000000D5100406683FF1FF2
:40374000704700BF124B1A78597891421FD070B41048027802F0040202F0FF05B2B91E460D4C02E00278520710D41A78110648BF35701A7859781A441279D2B222701A7863
:403780000132D2B21A701A789142EBD170BC7047B882FF1F686400404B6400401A4AF0B517461A481A4C012500260378DBB213F01E0E05D092F884104EEA010182F8841085
:4037C0009B0600D4F0BD217892F88530C9B2134483F8881092F8A8300BB187F8A95092F885300133DBB282F8853092F885301F2B88BF82F8856092F8851092F8AA30994298
:40380000D3D182F8A850D0E7B882FF1F6A6400404964004017280BD8064A0301995C002041F020019954995C41F00101995470470120704710700040172809D805490301C8
:403840005A5C002002F0F10242F004025A5470470120704710700040F0B42B482B4A0378FF2B47D0012B3CD0022B43D801249C4092F8AB10E4B20C4220D0254D21EA0401F4
:4038800055F8236082F8AB102B4434781F7B197C24EA07033370541894F8AC30013BDBB284F8AC3033BB05EB81035C692944097F237823EA0103237092F8AB108B070ED4F5
:4038C000144C41F0020182F8AB10237843F00103237092F8AD3083B1013382F8AD300123037092F8AE30094A13B1002382F8AE30F0BC704792F8AB10E0E794F8F31941F0AB
:40390000100184F8F319E7E7C880FF1FB882FF1F4C6000000D51004010B501F0E9FF0B4B0022D3F8B01083F8AF20012909D1084C216841F00101216000BF00BF00BFC3F8A0
:40394000B020BDE8104001F0D7BF00BFB882FF1F0400084038B501F0CBFF0D4A92F8AF3023B1042401F0C8FF204638BD094901250C6882F8AF502C40F4D00C6824F00104FF
:403980000C6000BF00BF00BFC2F8B0501C46E9E7B882FF1F0400084038B501F0A9FF3E493E4A0B783E4D43F008030B70137843F00803137001F0A0FF01F09AFF95F8AF30A0
:4039C00023B1042401F098FF204638BD354B024618680121C40785F8AF1008D5186820F00100186000BF00BF00BFC5F8B0102E4C104601F081FF23789B0733D52B4BB62005
:403A00000E22E121187019701A702278900729D401221A702378D90705D4182001F060FF2378DB07F9D5214B1F4C1A78237885F8B420DA0705D4182001F052FF2378D907B3
:403A4000F9D51A4A184B11781A7885F8B510900706D41C46182001F043FF23789A07F9D5002401E04FF0FF3401F042FFD5F8B0200023012A85F8AF30094909D1094D2A6808
:403A800042F001022A6000BF00BF00BFC1F8B03001F032FF204638BDA0430040B0430040B882FF1F0400084022470040204700400A4B93F8B6307BB130B404785CB1084AF9
:403AC000084D002113785B07FCD4013189B22C70445C002CF6D130BC704700BFB882FF1F6C6400404C64004070B5334C23789B071FD5324BB6260222D5251E701D701A704C
:403B00002278960715D440221A70421E0F3012F8015F82421D70FAD12078274A8507FBD51078800705D51078800802D11078800716D44FF0FF3401F0DBFE214B0021D3F896
:403B4000B02083F8AF10012A31D11E4D2A6842F001022A6000BF00BF00BFC3F8B01026E0B626D82505201E701D7018701278144B02F0020293F8B45093F8B50002F0FF064E
:403B80000E4B002AD5D140221A701E7019701D7018702278084B9607FBD51A789507C8D51B789B0814BF4FF0FF340024C3E701F0A3FE204670BD00BF224700402047004022
:403BC000B882FF1F0400084010B5044601F090FE0B4B19461A7842F001021A700B78084A9B07FBD504F1804303F500431C781378E4B203F0FE03137001F07EFE204610BD87
:403C00000247004070B41A4D87B02C466B4606466968286803AA03C254F80C0F2D7A6168082E03C3217A157019701ED8114C06AB1E442378104803F08003DBB2237016F87E
:403C4000181C237816F80C2C8900134301F00C010B432370037803F0F3030370037816F8182C43F00C031343037007B070BC70476C6000000658004005580040F8B501F083
:403C800037FE3349334A0B78334D03F0FE030B701378324C43F0040313702B78064643F002032B702378482043F00203237091F8913A2B4F03F0FC0381F8913A92F8913AB5
:403CC000A5F2473503F0F70382F8913A01F008FE95F84733234A03F0FD0385F847332178214B01F0FD0121701178204801F0EF011170117804F58C5401F0FE0111701A78ED
:403D0000093402F0FE021A701A78194902F0EF021A703B78174A03F0F9033B70037803F0FE0303702B78304603F0FE032B70237803F0F70323700B7803F0FE030B70137899
:403D400003F0FE031370BDE8F84001F0D5BD00BF004E0040014E0040F8460040F946004077580040AA430040BA430040A1430040A2430040B24300402DE9F04F354C85B091
:403D800094F8B730002B62D194F8B83003F0FF06002B77D0304D012384F8B73001F0A8FD2E4A6B7811782E4B41F0010111701178064641F0100111701A782A4D42F00102D3
:403DC0001A701A78284C42F010021A702B78274943F002032B702378482043F0020323700B7843F003030B7001F07AFD2B78204903F0FD032B7023781E4803F0FD032370F1
:403E00000B787A2443F006030B70047030461A4AA1F5A6511378063943F0010313700B78164D43F001030B705378013143F0010353700B78124C4FF0005243F001030B7098
:403E40002A60226005B0BDE8F04F01F055BD024DA4E700BFB882FF1FC880FF1FAA430040BA430040F8460040F9460040915800407758004082580040A143004080E200E024
:403E800000E100E048F6F052B34D0123DFF830836B7084F8B96098F80030B04943F0100388F800300B78DFF81CE343F010030B70AB4FAC48AC4BE0218EF800104FF0040A11
:403EC000AA4987F800A006701E700B78DFF8F8E243F018030B70A64B8EF80060133F87F8056381F882600A2100F8171C1E703E705B2700F80F7C9F4F5E201872A3F5286394
:403F000014203E7018706B784FF00F0C84F8BEC004EB830393F8BA00974BA4F8BC2018706B78964A04EB8303B3F8B83013806F7884F8C060FFB2012F7FF42DAF9048914B7F
:403F4000DFF888924FF0F80B80F800B0AEF68E2E83F800A0032302F8093CDFF874A289F800C0DFF870B28EF800604FF03F0E80F806E0DFF864C2DFF864E28BF800608AF890
:403F8000006002F8026C89F810304FF0500903938CF800908EF800102C2180F8861ADFF840928BF87F6A4FF0440B8AF881BA482275494FF0020B89F8002002924FF01209D8
:403FC0008CF808708EF809B04FF0280C4FF0EB0E80F88F9A81F800C08AF888EA01F088FC6FF4E262019092449AF80000DFF8F49140F003008AF8000099F800E0029A63492E
:404000004FF0520C4EF0030E89F800E0104681F800C001F065FC9AF80020019802F0FC028AF8002099F800200AF58D5A02F0FC0289F8002001F060FC4CF6CD4254484FF0D4
:40404000C00E80F800E0039B524909F58D590AF1020ADFF894C1DFF894E10B7009F102098AF800B04C4990F86F3289F800B08CF800608EF80060C4F8C42098F800200E882D
:4040800023F04003B6B243F04003012E02F0070280F86F320BD0414B1B78DBB22ABB26BB0F8098F8003003F0BF0388F800302B483B4E0278338802F007029BB2072B0ED0FF
:4040C00038490978C9B2002A40F09280002B40F08F8007233380037803F0BF030370324B324A1B68C3F8B42055E613F0010223D02F48304F304900234FF0010E0B7080F8DB
:4041000000E03B7010F8083C6E3703F07F0300F8083C3B781B070FD40846072327F8806C0B700378244913F00103FAD11B4E307800F0FE0030700B7018490B78DF0740F1CD
:404140008F801D4B1D481A4601260321068019701378DE07FCD4AAE7C880FF1F0241004096580040975800409E580040075B0040815800408D5800400E4E00400C4E004046
:40418000004E0040024E00409058004092580040945800409558004080400040A243004000410040A143004008ED00E04137000010400040144000400140004002400040F8
:4041C000824000401DE400E093580040044E0040094E0040084E004084580040855800408B580040F94600409C5800409D58004011F0010124D02148214F224E00224FF00D
:40420000010E327080F800E03A7010F80C2CF23702F07F0200F80C2C3A78100710D43046A7F5807707223B8032700378154A13F00103FAD1144E307800F0FE0030701370BC
:40424000114B1A78D20712D5A3F568731A460F4807260321068019701378DB07FCD43EE70B4B012018800B7813430B701FE7094A072010801A781143197030E71440004017
:404280001040004001400040A143004002400040804000400041004010B501F029FB0A4B9A78182A04D8FF2401F026FB204610BDDC78013AE10001F180419A7001F5F041AB
:4042C0000A78DA70F0E700BFC880FF1F2DE9F04F844C9DB02378032B00F028812378022B00F0C880DFF80092DFF818827E49B8F80020B9F8003092B29BB29A4280F09A80D9
:40430000B8F800309BB2002B00F0DF80774DB8F80030AF889BB25A24AB2204FB0354390A1E238DF810208DF811308DF812708DF813100DF117020023581C991CE61820449A
:404340002144367A0333007A097A5A2B02F8020C02F8036C02F8011C02F10302ECD1002204AB1BA853F8041B834282EA0102F9D19DF86D109DF86C305D484B405340C2F37C
:4043800007215940C2F307434B400178013783EA1262AF808DF86E20002936D0554F564DDFF880B1DFF880C10DF10F060DF16E0A16F8014F39782A780846D2B202F1FF3E0C
:4043C0008B1AC1EB0E0EA3F17F03BEFA8EFEB3FA83F34FEA5E1E5B098A4288BF7346002BE9D18A423FD00A0659BF0131C9B2012100200BF8004039709CF800309B0702D5EE
:404400003E4B02221A60B245D2D1B8F800303C4901339BB2A8F80030B8F80020B9F8003092B29BB232209A420860364910D21DB0BDE8F08F344B93F8582A22B1002283F8DF
:40444000582A83F8592A1DB0BDE8F04FFBF740BE0B889BB2FF2B42D8D9B238201DB0BDE8F04FFEF773BC9CF800305B07BBD4274B1C70C8E71D4DAB78002BD8D02449254AA1
:404480000B78254803F0FE030B701378234903F07F03234F137001603B78002B00F036821C4ADFF844901378362043F080031370B9F800309BB2FF2B94BFD9B2FF21FEF7DF
:4044C00045FC0023AB7023700EE70B8837209BB2FF2B94BFD9B2FF21FEF738FC16E7FF21BBE700BF7981FF1F7E81FF1F8083FF1F6081FF1FB982FF1FB882FF1F00E200E0E7
:404500008881FF1F7C81FF1F302D00204B640040004E0040756500402465004080A903007381FF1FBC82FF1F68640040BB4EB378002B88D001F0DCF9B94B1D6801F0DCF9EA
:4045400049F63F42D6F89031EB1A934200F29C81D6F89431EB1A312B07D9B24BC6F894511B6813B171791A209847AF4D95F800A0BAF1000F00F01E82BAF1010F7FF463AF92
:4045800096F80580A94F01F047F9B5F88E304FF05C09002209FB0879C5F89420002B40F0D88395F89330002B40F00D84A86085F893A00028B8BF404201464FF05C0E0EFBD4
:4045C000087E4FEA480303EB080C0293984B4FEACC0C03EB0C0253F80CC0DEF80830D2F804A00390D5F804B0D0689268591A02FB0BF201910CFB01F1BAF1000F08BF4FF099
:40460000010A002808BF012091FBFAF392FBF0F09EF90CC099F80E2099F80DE095F89210034496450CFB031C40F2CA83C2EB0E035FFA83FA504672441FFA82FEBEF1FF0FAD
:4046400094BFD2B2FF228445C0F26583944500F361835FFA8CFA0120514580F03F834A1C1FFA8AFE724500F24583D2B210B1924500F043839246B5F88C20013292B2012A4A
:40468000A5F88C2001D0130724D1DFF89891D9F80020FAB113209047D5F808B0D9F800204FEA1B61B2B11D209047D9F800208AB1CBF307411D209047D9F80020CBF307216C
:4046C00042B11D209047D9F800201AB15FFA8BF11D2090475C2202FB08725046936D85F892A0984795F890204F49531CDBB21F2B88BF002381F8903095F89130039805EB5E
:4047000082021F2BD060484A00F228830133DBB2202B82F8913000F02183029B444A434402EBC30ABAF81430B5F88C209A42FFF48AAE5C2303FB087701987B690028B8BF97
:4047400040429842CCBF0020012000F01BFE00283FF479AE0023374923700B78364A374803F07F03364F0B7010603B783579002B00F0EF802F4A334C1378334E43F0800344
:40478000137023782946003318BF012333701120FEF7DCFA6378002B3FF455AE2B4B85F077071B780026AB20C221B5228DF813508DF8147066708DF810008DF811108DF835
:4047C0001220002B3FF43FAE214F224DDFF88890DFF888C0DFF888B004AE0DF115084FF0020A16F8014B39782A780846D2B202F1FF3E8B1AC1EB0E0EA3F17F03BEFA8EFEB2
:40480000B3FA83F34FEA5E1E5B098A4288BF7346002BE9D18A4200F0958023E08C3700207481FF1FBC39002024390020B860000070610000756500402465004080A9030037
:404840007381FF1F8083FF1F7D6400406081FF1FB982FF1FB882FF1FBC82FF1F6864004000E200E00A0659BF4B1CDBB20123002009F800403B709CF800309B0748BFCBF88E
:4048800000A0B045ADD1DEE53378073B042B40F28F8196F80580B8F1010F88BF414600F288813D4FDFF808B14FF05C0A4FF000091BE099B2FF2925D8AA4266D20AFB087317
:4048C00028469B6D984708EB480208F101085FFA88F80BEB8203B8F1020F0BF82250C3F8049083F8089000F063810AFB08735A7B997B5318551A8A4298B2EDB2D9D8FF289B
:4049000043D90025954238BF1546D7E7FF23036042F8713C00F0ECFF204A137843F01003137000F0E9FF1E4A13781E0704D51D490B6813781807FBD41B4A00210123117004
:404940003B70ADE59CF800305B078BD4174B1C7097E7FF23136041F8713C00F0C9FF0F4A137843F01003137000F0C6FF0C4A13781C0704D50B490B6813781807FBD40A4A03
:404980000021012311703B70F4E6DBB29A4228BF1A46154692E700BFB8600000976500406765004044650040876500404B640040C0390020DFF8E8827479AD4FD8F80030C2
:4049C0004FF05C0909FB047903B3214615209847D9F808A0D8F800304FEA1A61B3B12A209847D8F80030CAF307417BB12A209847D8F80030CAF3072143B12A209847D8F87B
:404A000000305FFA8AF10BB12A209847994A7379127800209A426860A5F88C0085F8900085F89100A86085F89300C5F8940000F274815C2202FB03735A7B997B8A4202EB49
:404A4000010340F2DA819EB2511AFF2EC8B200F2D0818242DBB280F0D4815C2303FB047485F89200A76DB847238CA5F88E30FFF705F9814823790278FF2A2CD0934254D0D8
:404A8000022A26D87D4E012191403478C9B221421FD0DFF800E224EA01015EF822E0784C31709EF80010A45C764E21EA0404B15C754E8EF80040725C013AD2B2725442B9AE
:404AC000724C734A54F82140515C227822EA01022270FF220270FF2B27D0022B24D8674C01229A402178D2B20A421DD1694E0A4356F82360DFF888E1227031781EF8032039
:404B0000604C1143E25C604C3170A15C51B95F4E5F4956F82260895C96F800E04EEA01013170A15C0131A15403705B4B1A780AB100221A70FFF720F9584C594E04F1030AFE
:404B400014F801BBD9F8583058469847554800F0C7FED8F800302B200BB15946984700F05BFE8346D8F800302C204FEA1B6193B1984733682C20CBF3074163B1984733680F
:404B80002C20CBF3072133B1984733682C205FFA8BF103B198475445D2D195F89200B847414A0121137803F0FE03137029704AE471793B4B00221B6832710BB11B20984753
:404BC000FFF75CF8FFF75AF8FEF746FEFFF7D4F8354836490278364B02F0FE0202700A78DFF8F0E042F010020A701F781A78314D3F2002F0FE021A702F498EF800004FF423
:404C0000007228702D4800F0AFFE2D492D4BDFF8C8C007F001074FF0000E51F8042F043322F07F42150A100C03F8042C03F801EC03F8035C03F8020C63454FF00002ECD1E2
:404C40001C48214BF8210270197027B1184A137843F0010313701D4F1D4D2023002001210C223B602B60B070F170327072E500BFB86000006881FF1FC880FF1F6383FF1F60
:404C8000586000005C6000006483FF1F60600000686000004C6000006683FF1F84600000BC39002080FC0A00004E0040A643004080C700408CC70040A061000000C00040EF
:404CC0009C63000000C2004084C7004080E200E000E100E088C7004000C400400AD9012986BF01F1FF3292B200221FFA8AFE96457FF6BBAC00283FF4BEAC019B434A03EB83
:404D00000B009042B8BF1046414A8242A8BF02466A60B0E4924600209EE45C2101FB03714A7B897B3B4E03EB43038A4216F8236002EB010358D9521A99B2FF29D0B24FD879
:404D40008642DBB2FFF489AE9E42304628BF184683E6013BA5F88E30FFF775BBEB682E4A184602F17C0E52F8041F8842A8BF08468B42B8BF0B469645F5D1029A2749424499
:404D800001EBC20212692649012AB8BF012281FB021ED117C1EBAE011B1A0A4493423FF7BCAC5C2303FB0873019A5B69002AB8BF52429A423FF7B1AC012000F0E3FAC6E42C
:404DC0000020824637E4AB68C01A55BF0430C0F1040003EBE000A3EBE000A860FFF7E9BBB04238BF304638E69AB2FF2AF8D8DBB2AAE7904238BF10462FE699B2FF29F8D891
:404E0000DBB29A4228BF1A46104626E6A099F9FF60660600C039002030390020706100006766666608B500F06BFD03680C2B00D0FEE7FEE7F8B5A94AA94BAA491A600B6892
:404E4000A94A43F40073A9480B600023032B94BF50F82310A6490133302B42F8041FF5D1A44BA54AA54909781A6072B6A44EA54A35461378002443F00403137004EB44038C
:404E8000AA8856F813000134002100F065FD082C05F10605F2D180229B499C4800F064FD9B4E9C4F002556F8043F13F0FF0E23F0FF0413D005F110530EF1FF3E03F14700A1
:404EC0005FFA8EFE7044463340005B001A785978023398421155F9D101357544BE42E2D18D4B8E490A221A700B788D4A43F002030B701378A1F5863143F002031370633920
:404F000043F6972E0B78A2F5863243F040030B70513A1378834941F251260D68824C8348834943F0100313700027824B25600760814D0F6003CBC2F8400DC2F8441D93E8F9
:404F4000070003C5A4F513542A800C33383C93E8070003C4794B7A49228007C903C3A4F6F6541A802278774B42F0080203CBA5F6C815227061222A70734AA4F2A224278032
:404F8000106051605022A270704819227049A5F27C752A80182505700A80A572A0F806E08A711968262703226A4B84F8807280F87A211B78684FDBB23B70684B0827A4F879
:404FC000A271674AA0F89A611C784FF4F070116004F001041E4600F083FC01E0032C0DD033784FF4F07003F0010343EA440400F077FC013D04F00304F0D1FEE7594B40F227
:4050000009154FF480721A80574F07221A70574900223A70564848270F701A700227554A04230770CB7013787F2643F00F031370344691F89923504B42F0010281F899234B
:405040001A784E4F00F5F82042F080021A70012103304FF0810E4A4A87F800E001701278A0F5F420D2B2A0F2967002F0070707701209444F427034223A70434A05270773D6
:4050800010271770402780F8A67120271772DFF814E1082780F8147282F878100FCB3B4FAEF80050DFF800E1394DC7F800E044272F70A5F5A655063D07C5364F36498020E8
:4050C000364A2B803E700870013CE4B202F80849002CF9D1324B1C70F8BD00BF0004FA050CED00E014ED00E0FC7FFF1F00000000254E000008ED00E00080FF1FBC76004020
:4051000088600000E8460040EC08004880080140FCFFFF4788000048835800400350014013500140A40900480876004000760040107600406C090048C051004020510040C2
:405140008C0900489809004832510040864000408840004008010049A1460040254200400041004004400040064000400840004001400040A2430040A04300400048004014
:40518000CF0100493D510040105A0040445B004076580040CB80FF1FCA80FF1FF87B004000780040425B00400802050330B589B091B930238DF810300124FEF779FC08AB84
:4051C0002344002204A803F8102CFEF771FC6748FEF76EFC09B030BD0A23B1FBF3F503FB151230328DF80420002D00F0A780B5FBF3F26424B1FBF4F403FB125230328DF8FE
:405200000520002C00F0A180B4FBF3F24FF47A75B1FBF5F503FB124430348DF80640002D00F0958042F21074B5FBF3F2B1FBF4F403FB125530358DF80750002C00F089804F
:40524000B4FBF3F24A4D03FB1244B1FBF5F230348DF80840002A7ED0B2FBF3F4454D03FB1422B1FBF5F430328DF80920002C74D0B4FBF3F2404D03FB1244B1FBF5F2303498
:405280008DF80A40002A6AD0B2FBF3F43B4D03FB1422B1FBF5F430328DF80B20002C60D0B4FBF3F5364A03FB1543B1FBF2F130338DF80C30002956D030318DF80D100A23C9
:4052C00008AA1A4412F81D4C12F81E1C022B8DF810408DF811102FD012F81F1C032B8DF8121029D012F8201C042B8DF8131023D012F8211C052B8DF814101DD012F8221CC8
:40530000062B8DF8151017D012F8231C072B8DF8161011D012F8241C082B8DF817100BD00A2B12F8251C08BF12F8262C8DF818100CBF8DF8192009231C463EE79DF804205B
:4053400001238DF810201C4637E70223B8E70323B6E70423B4E70523B2E70623B0E70723AEE70823ACE70923AAE700BF48600000A086010040420F008096980000E1F50528
:4053800000CA9A3B2DE9F04FAA4B83B05B79AA4A194600935C2303FB0122517B937BA54A9942019088BFC81A0B4492F82A629AB28CBFC0B20020FF2A94BFDBB2FF2306F169
:4053C0001002102E88BFA6F1100492B28CBFE4B20024FF2A98BFD7B2009A88BFFF271146844238BF0446954A9F4228BF1F465C2303FB0123D3F88850D3F838906FF000482A
:405400002046A8478E4800F06BFA4FF0040B4FF0000A00F001FA0BF1FF3B1BF0FF0B8244F7D1BAF1000FB8BF0AF1030A4FEAAA03002BB8BF5B42C3EB0903002BB8BF5B423A
:405440004345BCBF98462646A74202D90134E4B2D6E73046A8477B4800F042FA1024002500F0DAF9013C14F0FF040544F8D100982B1E05467148B8BF0F335C211B1101FB8A
:40548000050183EAE372A2EBE372C2EB0902002A486CB8BF52426749824281F82A62674F78DC8A790132D2B2022A00F2A680009A012102FA01F55F48AA1800EB8202C0F8E2
:4054C000A03182F83462C2F8383282F83C120027584BDFF86081D3F8303223B1314613209847D8F83032009A5249AA1801EB8202D2F83862B6F5004F80F28E8016F5004F02
:4055000080F24B81504E802183B314209847494BF1B2D3F83032474E43B314209847009B1D44D6F8303206EB8508D8F83852EBB1290E1D209847D6F83032C5F30741ABB124
:405540001D209847D6F8303283B1C5F307211D209847D6F83032E9B243B11D209847D6F830321BB198F83C1216209847314B314A5B790133DBB2012B537151D9002F65D1DA
:40558000204693795771013382F89871937103B0BDE8F08F019AC2B9009A5500254A254992790132D2B2022A41D9009A0020AA1801EB8202C1F8A03182F83462C2F838328B
:4055C00082F83C020871012782E7009AB1F824025500AA1807EBC207B7F8FC209042DDD220460022C1F8A03181F8282281F82922C1F89C2103B0BDE8F08F009A0127550065
:40560000AA1801EB8202C1F8A03182F83462C2F8383282F83C725BE77F2147F6FF7673E72046002382F8983103B0BDE8F08F0021009A40E78C370020B860000088600000FC
:40564000C0D4010080FC0A000080FFFF544CFEF715FBFEF713FB2178FF2900F0948001293AD002294F4A00F28F80012088401378C0B218421ED04C4D23EA000355F8215096
:405680004A4813702B78465C494823EA0603415C48482B70435C013BDBB24354002B73D14548464B50F82100595C037823EA01030370137899070DD443F002034048137029
:4056C0003C4902784B7842F001020270002B5DD001334B70012323703A4B1A780AB100221A70FEF749FB384838490278384B02F0FE0202700A78374E42F010020A701D78D0
:405700001A78354C3F2002F0FE021A70334930704FF400722070324800F026F9314F3249324B05F00105002651F8042F043322F07F42140A100C03F8042C03F8016C03F8AA
:40574000034C03F8020CBB424FF00002ECD12248274BF8210270197025B11D4A137843F001031370234C2022012322601C46224D00202A60214A0C2190702046D3701170D0
:4057800003B0BDE8F08F074A137893E790F8F32942F0100280F8F3299AE7C6F30721B3E6C880FF1F6383FF1F4C600000586000005C6000006483FF1F60600000686000002E
:4057C0000D5100406683FF1F004E0040A643004080C7004088C700408CC70040A061000000C0004000C400409C63000000C2004084C7004080E200E000E100E08C3700202D
:40580000014B1870704700BF805B0040014B1870704700BF815B004010B4284B284A1978284801F0FE0119701C78274944F001041C7003E00B78DBB2012B07D01378002B05
:40584000F8D1037803F00103012BF7D11F4B1B7803F00303012B1DD9022B23D01C4B1D491B8809889BB243EA0143127812B1164A002111701149184C0A78184602F0FE0223
:405880000A702278012A03D1002BB8BF1F33581110BC70470F490E4B09881B889BB243EA0143E2E70B4B0A480C491B8800780978090241EA03430343D7E700BF004E004023
:4058C0007883FF1F014E00407183FF1F144E0040104E0040124E0040C980FF1F114E00400230800803D000BF01380046FCD17047EFF3108072B6704780F31088704700BFE7
:40590000014B1868704700BF2C81FF1F0E4B70B51E460E4C0025E41AA410A54204D056F8253098470135F8E700F04CFE084B094C1E46E41AA4100025A54204D056F825307A
:4059400098470135F8E770BDD0650000D0650000D0650000D865000003460244934202D003F8011BFAE7704710B5431E0A44914204D011F8014B03F8014FF8E710BD0000DE
:4059800000000000011121314161536373000000080901010507070404000000201300256117802601008026E00E8026C20C8026020080066587186D6409183E0000802603
:4059C000032080262102187F000000000000000000000000000000000000000000000000000000000000000000000000000000000000000000000000000000000000000024
:405A00000000000000000000000000000000000000000000000000000000000000000000000000000000000000000000000000000000000000000000000000000000000066
:405A40000000000000000000000000000000000000000000000000000000000000000000000000000000000000000000000000000000000000000000000000000000000026
:405A80000000000000000000000000000000000000000000000000000000000021F805014210864064F8150181F8050143518E21000000000000000000000000000000007B
:405AC00000000000000000000000000000000000000000000000000000000000000000000000000000000000000000000000000000000000000000000000000000000000A6
:405B00000000000000000000000000000000000000000000000000000000000000000000000000000000000000000000000000000000000000000000000000000000000065
:405B40000000000000000000000000000000000000000000000000000000000000000000000000000000000000000000000000000000000000000000000000000000000025
:405B800000000000000000000000000000000000000000000000000000000000D40A0000EF0C0000EB0C0000900A0000EE0500006EFFFF00E4F7FF0087F0FF00D1EAFF0012
:405BC00046E8FF0023EAFF0006F1FF009DFCFF00810B00003C1B00009E280000473000005B2F000046240000550F000009F3FF00F3D3FF001AB8FF00F5A5FF0014A3FF0086
:405C0000CAB2FF0014D5FF0007060000033E0000AF720000B7980000FCA50000DC9300001A610000ED120000E3B4FF008157FF009E0DFF00FDE8FE008FF6FE003A3BFF00C8
:405C4000B0B1FF00074A000048EB0000F47601000FCE0100F1D60100EA820100A0D200004BD8FF0026B7FE00E79FFD008ACAFC003F6EFC00A2B8FC00A3C5FD007899FF000C
:405C8000A81D0200F421050011610800C6880B0040440E00334710001D5811001D5811003347100040440E00C6880B0011610800F4210500A81D02007899FF00A3C5FD00C3
:405CC000A2B8FC003F6EFC008ACAFC00E79FFD0026B7FE004BD8FF00A0D20000EA820100F1D601000FCE0100F476010048EB0000074A0000B0B1FF003A3BFF008FF6FE000A
:405D0000FDE8FE009E0DFF008157FF00E3B4FF00ED1200001A610000DC930000FCA50000B7980000AF720000033E00000706000014D5FF00CAB2FF0014A3FF00F5A5FF006F
:405D40001AB8FF00F3D3FF0009F3FF00550F0000462400005B2F0000473000009E2800003C1B0000810B00009DFCFF0006F1FF0023EAFF0046E8FF00D1EAFF0087F0FF0023
:405D8000E4F7FF006EFFFF00EE050000900A0000EB0C0000EF0C0000D40A0000FF3F0000000000000000000000000000000000000000000000000000000000000000000002
:405DC00000000000000000000000000000000000000000000000000000000000ABC000C00D0A5B50435D20626F6F740D0A0000005B50435D2050534F435F48575F434C415E
:405E000053533D005B50435D2050534F435F43414C5F53544147455F434F554E543D000030313233343536373839414243444546D40A0000EF0C0000EB0C0000900A0000AC
:405E4000EE0500006EFFFFFFE4F7FFFF87F0FFFFD1EAFFFF46E8FFFF23EAFFFF06F1FFFF9DFCFFFF810B00003C1B00009E280000473000005B2F000046240000550F000082
:405E800009F3FFFFF3D3FFFF1AB8FFFFF5A5FFFF14A3FFFFCAB2FFFF14D5FFFF07060000033E0000AF720000B7980000FCA50000DC9300001A610000ED120000E3B4FFFFC9
:405EC0008157FFFF9E0DFFFFFDE8FEFF8FF6FEFF3A3BFFFFB0B1FFFF074A000048EB0000F47601000FCE0100F1D60100EA820100A0D200004BD8FFFF26B7FEFFE79FFDFFFC
:405F00008ACAFCFF3F6EFCFFA2B8FCFFA3C5FDFF7899FFFFA81D0200F421050011610800C6880B0040440E00334710001D5811001D5811003347100040440E00C6880B0051
:405F400011610800F4210500A81D02007899FFFFA3C5FDFFA2B8FCFF3F6EFCFF8ACAFCFFE79FFDFF26B7FEFF4BD8FFFFA0D20000EA820100F1D601000FCE0100F47601009A
:405F800048EB0000074A0000B0B1FFFF3A3BFFFF8FF6FEFFFDE8FEFF9E0DFFFF8157FFFFE3B4FFFFED1200001A610000DC930000FCA50000B7980000AF720000033E0000D8
:405FC0000706000014D5FFFFCAB2FFFF14A3FFFFF5A5FFFF1AB8FFFFF3D3FFFF09F3FFFF550F0000462400005B2F0000473000009E2800003C1B0000810B00009DFCFFFF49
:4060000006F1FFFF23EAFFFF46E8FFFFD1EAFFFF87F0FFFFE4F7FFFF6EFFFFFFEE050000900A0000EB0C0000EF0C0000D40A00004556543D307800002076616C3D000000F1
:406040002073746174653D000D0A0000585B00400D5100400D5100402001100000010100005B0040005B00402010000001112131416153637300000008090101050707046A
:40608000041800000080FF00405100403000F0510040100000000140800800090140000700140140000800400140000A004C01400002005001402000A86500000000000064
:4060C000B7D10000FF20FF20100000007017000070170000C0D4010058028403200800020A00000002000000200800040A0000000200000000000000701700000100000050
:4061000000000000200800020A000000020000000D580000B465000001000000B7D100000120FF20100000007017000070170000C0D401008403B004200800020A000000C0
:4061400002000000200800040A0000000200000000000000701700000100000000000000200800020A000000020000000158000001000000E80300000300000010270000A8
:40618000701700007017000001000000E80300000300000010270000701700007017000000000000000000000000000000000000000000000000000000000000000000009D
:4061C000000000000000000000000000000000000000000000000000000000000000000000000000000000000000000000000000000000000000000000000000000000009F
:40620000000000000000000000000000000000000000000000000000000000000000000000000000000000000000000000000000000000000000000000000000000000005E
:40624000000000000000000000000000000000000000000000000000000000000000000000000000000000000000000000000000000000000000000000000000000000001E
:4062800000000000000000000000000000000000000000000000000000000000000000000000000000000000000000000000000000000000000000000000000000000000DE
:4062C000000000000000000000000000000000000000000000000000000000000000000000000000000000000000000000000000000000000000000000000000000000009E
:40630000000000000000000000000000000000000000000000000000000000000000000000000000000000000000000000000000000000000000000000000000000000005D
:40634000000000000000000000000000000000000000000000000000000000000000000000000000000000000000000000000000000000000000000000000000000000001D
:406380000000000000000000000000000000000000000000000000000000000000000000D40A0000EF0C0000EB0C0000900A0000EE0500006EFFFFFFE4F7FFFF87F0FFFFC7
:4063C000D1EAFFFF46E8FFFF23EAFFFF06F1FFFF9DFCFFFF810B00003C1B00009E280000473000005B2F000046240000550F000009F3FFFFF3D3FFFF1AB8FFFFF5A5FFFF83
:4064000014A3FFFFCAB2FFFF14D5FFFF07060000033E0000AF720000B7980000FCA50000DC9300001A610000ED120000E3B4FFFF8157FFFF9E0DFFFFFDE8FEFF8FF6FEFF86
:406440003A3BFFFFB0B1FFFF074A000048EB0000F47601000FCE0100F1D60100EA820100A0D200004BD8FFFF26B7FEFFE79FFDFF8ACAFCFF3F6EFCFFA2B8FCFFA3C5FDFFA9
:406480007899FFFFA81D0200F421050011610800C6880B0040440E00334710001D5811001D5811003347100040440E00C6880B0011610800F4210500A81D02007899FFFF12
:4064C000A3C5FDFFA2B8FCFF3F6EFCFF8ACAFCFFE79FFDFF26B7FEFF4BD8FFFFA0D20000EA820100F1D601000FCE0100F476010048EB0000074A0000B0B1FFFF3A3BFFFF29
:406500008FF6FEFFFDE8FEFF9E0DFFFF8157FFFFE3B4FFFFED1200001A610000DC930000FCA50000B7980000AF720000033E00000706000014D5FFFFCAB2FFFF14A3FFFF85
:40654000F5A5FFFF1AB8FFFFF3D3FFFF09F3FFFF550F0000462400005B2F0000473000009E2800003C1B0000810B00009DFCFFFF06F1FFFF23EAFFFF46E8FFFFD1EAFFFF01
:4065800087F0FFFFE4F7FFFF6EFFFFFFEE050000900A0000EB0C0000EF0C0000D40A0000C05D00000000E02E48414D4D45525F504741000048414D4D45525F4C50000000F4
:4065C00043000000F8B500BFF8BC08BC9E46704799000000354E0000F8B500BFF8BC08BC9E46704775000000F8650000C080FF1F70000000C0B800000000000003FFFFFF26
:40660000FF01807F0000000000000000000000000000000000000000000000000000000000000000C065000000000000000000000000000000000000000000000000000036
:40664000000000000000000000000000000000000000000000000000000000000000000000000000CC80FF1F000000000000000000000000000000000000000000000000B0
:4066800000000000000000000000000000000000000000000000000000000000000000000000000000000000000000000000000000000000000000000000000000000000DA
:4066C000000000000000000000000000000000000000000000000000000000000000000000000000000000000000000000000000000000000000000000000000000000009A
:406700000000000000000000000000000000000000000000000000000000000000000000000000000000000000000000000000000000000000000000000000000000000059
:406740000000000000000000000000000000000000000000000000000000000000000000000000000000000000000000000000000000000000000000000000000000000019
:020000040003F7
:0200000480007A
:40000000045200400464004003650040010101400103014004050140040701400F0801403B090140650A01403F0B01405C0C0140360D0140010F0140461401403D150140F8
:400040004E160140301701405818014045190140431A0140501B01400E4001400C4101400E4201400A430140024401400345014005460140034701400D480140094C01402A
:40008000084D0140085001400351014008040C2061806440880F89728A388C0F870D88388B72E202E608E220E601EA03EC0883408610E408E804280129012C0230013101CE
:4000C00034023E113F0154015604580459045B045D205F010124024108011110130A1402160A19621A421B041C401E042141220423082602280129222F04319839163A0169
:40010000414442404840495052405A085C025E845F10674069146B027080722073048A408B109338944097409A0A9B409D019E80A705C00FC208C4CECA2DCC0ECE07D00BFC
:40014000D20CD6F2D880E408E8040001020E0715081C09030A030B040E08100111331216130C2133221C2304292A2A032B042F08301A310F3330340F39083A223B023F0492
:400180004003454049FF4A074BFF4C404D204EF04F05500854185604580459045A045B045C225D225F01604061A86240632080658288840285108604870C88E089098A158A
:4001C0008B108C488E80910C93119618991C9B029C809F03A085A260A514A604A8A0A910B11FB2F8B404B603B880BE10C016C104C6C0C7EBC838C9FFCAFFCBFFCEF0CF4408
:40020000D00CD804D904DA04DC12DD02DF01E6C0EA40EB02008001220408056209020C800D08100812401502162419221D481F14210727C0284029622A402F28300131026A
:400240003610378138083A203B103D284104444148C04C04500C562659016080630A80808B4094409A089B019E80A114A210A328A840AC20AE04B110B301B449C0FBC2A86B
:40028000C47ACA6DCCB1CE66D092D220D601D80DE2200103030406080B080CB10E0E11201305146C168319131B0C1D131E801F042293264C28B1290A2A462B143080320F88
:4002C000330F34303530364A382039203A883B083E114025410445E046B047CE483A49FF4AFF4BFF4EF04F44500C5401580459045A045B045C115D115F0166C06A406B02C7
:4003000082049102930194019A089E03AE08AF03B008B102B202B301B401B604BE01BF05C002C704C9FFCA07CBFFCC40CD20CEF0CF05D008D804D904DA04DB04DC03DD0185
:40034000DF01E040E1A8E240E320000104080540070108200A110E200F0210021502172818801A151C041D401E601F0421022204251427282A802F043002354036023720C2
:400380003D203F02400447214D014E025004510152025308560857215C085D115E4068028604A502C0A8C2A7C471CA28CCB1CEA0D0A4D210D6F08502000113011C01200146
:4003C00028012F01310134013A023E10404549FF4AFF4BFF4F01501856085804590B5A0B5B045C915D995F016040624064406540668068806A806C806E80820783018F01BC
:4004000090019C029D01A004AC07AF01B007B101BB02C045C9FFCAFFCBFFCD83CE03CF01D018D280D80BD90BDA0BDB0ADC99DD99DF01E040E240E440E540E680E880EA8018
:40044000EC80EE800102068008800E400F0210841502174019221D021E40234027402B032C02300237403E403F024240450248024C025A105B80600262A0768078027EA052
:400480008080852088048C8C8D028E108F8091029210940497409C8E9E80A002A302A502A680B102C018C291C49ACA18CC11CE90D081D218D60CD80CDEC1E402E6010201EE
:4004C000300139203F10404549FF4AFF4BFF4D834E034F0150185608580B59045A0B5B045C095D995F016040624064406540668068806A806C806E8086088A048F029301EF
:40050000940898029A019C08A001A202A604AA08AF01B004B101B208B502B603B808BE41BF01C045C5ECC720C823C9FFCAFFCBFFCD83CE03CF01D018D401D804D904DA0BB7
:40054000DB0BDC91DD99DF01E040E240E440E540E680E880EA80EC80EE80001406800888092010041260181019021B401F022120238026102B0230023A40410245024802D6
:4005800049054C025002510159055B805D40664078027E80823087409140A610A740B540C016C207C40ECA08CC01CE08D081D218D61BD810DE81E601E84207180B180D086A
:4005C0000E010F03171819181A012510270229182B042D1830013101350637183E013F104062410542044403450C47E0482149FF4AFF4BFF4C624DA04EF04F41500C54186F
:40060000580459045A045B045C105D115F016640670269106A306B106D106E106F12807F811983228473860C886389188C428F0190219326941C9519966397249D109E7306
:40064000A008A13FA404A508A80CA927AB18AC0FAD01AE70B060B31FB40FB61CB738BA20BB88D804D904DC22DF01012202110701080109080A020F081090111013441911F8
:400680001A011F01218823012601270A281129122A102D402F283080310832013408362039903A203B013C203D083E804408452047094C044D404F0855015F02670A81011D
:4006C000880189808B4092029304950899229A219B409C019D11A0C0A588A701AE80B602C08FC24DC40FCA7FCC6BCE7DD0E0D230D680D8300414060A0E2013021402160576
:400700001D011E2020092212241F281F302032073301341837023E013F04580459045C215F01800E8121840C85048804890C8C088D0290019320940C952F960297509801CF
:4007400099FF9C029D089E0CA1F3A202A30CA40CA602A7D3A801A903AD3CAF83B20EB3ECB401B50FB71CBA08BB28D602D710D804D904DB04DC11DD10DF01008003200402C1
:40078000060107140A210C600D800E50102813011510164017081A201B291C201D241E101F10214824082504262027012C422F18300133403420354436013C403E283F01AC
:4007C0005F406C286D106E40754076297714804081808220832085288640874088108A808C238D448F099201940895C098019B409E809F01A040A201A410A524A620A72976
:40080000B104B201B304C0F5C2F5C47ECAF0CCF9CEF0D610E042E6C0E8801308168032403301341037083A843C803F028440C430CCF0CEF0E2402820312036408701968002
:400840009C109E049F01A701CA40CC30E61003208240881096809C10A520A640AA04AC20AF01C010E680EAC0EC10132081209404A320A520A640A804C440E220E8207F04DF
:40088000DE0102049708C00247089708B604D001EE0887049708AB0824042A80828086409404A640AF20B720C820CA10E080E640E8400C08560488089A04B604C204D40286
:4008C000E604EC0810207102850288208C20C408DC01E60C000E0C060E0A100611011A021B011C0600FF013F102A0000002001141E30000004300A000800040002000400FB
:4009000000010002000300000001000210030000000001001E00000800100024003001010E02100C00200200000004446504030001C00E0006FFFFFF62A0F0410C000000FB
:4009400000000212040404042222000100000000000040020010301000101012000000000000000000000000000000000000000000003900800044808000800000000000CD
:400980000400200B0F000400000000000400000602000000000000000000000000007000070018010001000000000000000000000000000000000000000000000000000058
:4009C00000000000000000000000000000000000000000000000000000000000000000000000000000000000000000000000000000000000000000000000000000000000F7
:400A000000000000000000000000000000000000000000000000000000000000000000000000000000000000000000000000000000000000000000000000000000000000B6
:400A40000000000000000000000000000000000000000000000000000000000000000000000000000000000000000000000000000000000000000000000000000000000076
