:400000000080002011000000598F0000598F0000144A80B5144B1268144F1A60F7B1144E002556F80C4C56F8080C56F8102C234638B1043A52F8041F43F8041B191B8142E7
:40004000F8D156F8040C1A4620B142F8045BD11A8842FAD1013F06F11006E2D109F066FA00F036F8FA460040BC760040010000004CA3000010B5054C237833B9044B13B106
:400080000448AFF300800123237010BD4881FF1F0000000030990000084B10B51BB108490848AFF300800848036803B910BD074B002BFBD0BDE81040184700BF0000000058
:4000C0004C81FF1F30990000C080FF1F000000002DE9804887B062B6B14B1978002901F0B48709F015FAAF49AF4D0B78AF4A43F020030B702B78012443F010032B70146079
:4001000011F8053CAA4E43F0100301F8053C0225A1F507513560383915600B78A54A43F020030B701378A44E43F02003137009F0F3F9A24BA24A20461A6008F0FDFB09F04D
:40014000E7F9A049A04A0B7843F008030B70137843F00803137009F0DFF909F0D9F933780146002B01F02A8709F0D6F909F0D0F99449954A0B78954C43F008030B701378FB
:40018000C82543F00803137025700B7B43F010030B73137B01F5587143F0100313730B789C06FCD58A4E09F0B7F98A488A493378012202700C784BB9884B32701A7802F0BC
:4001C000FC021A701A7842F003021A70844885490378854A43F0600303700B78757843F004030B7013787A4843F004031370002D01F0BE867D4A7E481378794943F0020394
:4002000013700378B27843F0020303700B78704F43F080030B70002A01F09486734A744813786F4943F0040313700378F27843F0040303700B78664F43F080030B70002AA5
:4002400001F06A8669486A490378654A43F0080303700B7843F008030B70137843F08003137008F049FE08F02FFE3379584943B9604A01201378087103F0CF0343F03003B7
:4002800013707379524943B95B4A01201378487103F0CF0343F030031370B2794C4F002A01F023865148524903784D4A43F0010303700B78514D43F001030B701378204642
:4002C00043F0800313702C7007F0D0FBF379404953B94B4B01201A78C87102F0FC021A701A7842F003021A703D483E4903783E4A43F0600303700B78307A43F001030B7020
:400300001378334943F00103137050B93D4B01201A78087202F0FC021A701A7842F003021A702F482F4903782F4A43F0600303700B78707A43F002030B701378244943F03A
:400340000203137050B9304B01201A78487202F0FC021A701A7842F003021A70204821490378214A43F0600303700B78274D43F008030B70137843F0080313702B78D907F7
:4003800041F1B08523F00103214A2B701378214C03F07F0313702378013BDBB223703BE03A3700209A6500409964004000E100E080E200E0B24300400F37002014380020A0
:4003C000D55B0000A0430040B0430040014700406481FF1FC0370020E180FF1F5C58004077580040A4430040B4430040A9430040B9430040785800407A580040E380FF1FEA
:40040000585800405A5800405E580040F5370020585B0040F83700202BB912F8583C23F0080302F8583C2B78B6499A0712D523F00203B54A0B70137823F0080313702378A5
:40044000013BDBB223702BB992F8033923F0080382F803392B78AB495F0712D523F00403AA4A0B70137823F0400313702378013BDBB223702BB992F8C33923F0080382F8D8
:40048000C3392B789F49180712D523F008039F4A0B70137803F07F0313702378013BDBB223702BB992F8C33923F0080382F8C3392B789449DA0612D523F01003944A0B70EF
:4004C000137803F07F0313702378013BDBB223702BB992F8E33923F0080382F8E3398D4FDFF83C82FF2200233A7088F8003007F077FD3A78FF2A01F0F284032A3ED0012329
:400500009340042AD9B22B7820D819427D481DD0DFF86CE223EA01035EF82210DFF864E203700B781EF802C0DFF85CE223EA0C031EF802200B70A35C013BDBB2A35423B95F
:40054000754A137823F00803137003781A0713D443F008036D4A2B701378704963F07F031370237833B992F8C33943F0080382F8C3390B780133237003233B7098F8003045
:40058000674C002B41F0A58407F0A8FD6549B27A0B78654803F0FE030B70002A01F07684624A63491378634C43F0010313700B78F27A43F001039C250B705B482570002AC9
:4005C00001F03E84594A5A4913785B4C43F0040313700B78327B43F004039C250B7052482570002A01F0C483504A51491378534C43F0080313700B78727B43F008039C254E
:400600000B7049482570002A01F08C834749484A0B784B4843F002030B701378494D43F002039C21484F137005F1300B01704FF0000A4FF001097A7BB97B8B18541A8A429A
:4006400098B2E4B241F20B8099B2FF2901F20B80A24281F011833B69204698470C3505F80C4C45F808AC05F8049CAB4507F114074FF00108DFD1354B04221A7008F0BEF91B
:40068000B77BDFF8A4A0002F01F00183304B31481A78314C42F010021A7002782F4942F01002027022782E4F42F0010222701A783F2042F010021A70257823784FF4007246
:4006C00003F0FE032370087026493870264809F023F94FF400722549254809F01DF9254BEDB20021F82239701A70EB0703D5237843F00103237041F6FF721F4D1F4C2B0C60
:4007000044E000BFF5370020FD5100403D5100401D510040E280FF1F005B0040F837002008380020004E00406481FF1FA8430040B8430040805B0040825B0040835B004069
:40074000815B0040C4370020E49D0000F4370020A6430040B643004080C7004088C700408CC700407C9E000000C000407CA0000000C2004084C700407481FF1FC480FF1F33
:40078000449E00003C9E0000349E0000934214BF1A464FF40052D14B01208327207000211F704FF4804758709970D9709F80DA8008F07AFB07F0A2FD070602460ED444F6D6
:4007C0001061C30003F1804303F5F04303201880ADB207209A70D8709980DD802078172803D8BF4B01010B445A7208F04BFBBD4B00224FF4804183201870627010465A7078
:400800009A70DA709980D98008F04EFB07F076FD024610060ED444F610654CF2A070D30003F1804303F5F043032119809A70D9709D80D8806078172803D8A94B01010B4499
:400840005A7208F01FFB41F6FF71A74DA74B2A0C8A4208BF4FF4005283271F70022100204FF4804759709870D8709F800846DA80A17008F019FB07F041FD010602460ED4C6
:400880004CF2A871C30003F1804303F5F04303201880ADB207209A70D8709980DD80A078172803D88E4B01010B445A7208F0EAFAF07DE378002814BF0320002023F0030310
:4008C0008B498C4ADFF868E243F0180301270025034389480B7062608EF800708EF8005035760078DFF84CC2C0B28CF800001EF81F0CDFF84482C0B288F80000AEF11B0EDC
:400900009EF800E0DFF834C2DFF834829CF800005FFA8EFE88F800E0DFF828E200F0AF008CF800008EF80000F07DDBB2A84214BF0320284623F0030343F0180303430B7014
:40094000E370626006F044F8022007F0F5FF6B4940F2E7320B786A4C3B400B702078694B00F0FC0020700C78674844F004040C701C78DFF8D4E104F0CF041C701C7877764E
:4009800044F030041C701C78DFF8C0C104F0F0041C701C78DFF8B88144F00F041C7003785A4C3B430370ACF80020AEF8002025700B78574A03F0FE030B701178554B01F08E
:4009C000F70111701978DFF88C9101F0F7011970217810F80D1C394000F80D1C1EF8104C4D4904F0FC040EF8104C10F80DEC4B4C4EF0040E00F80DEC91F800C0DFF858E193
:400A00000CF0CF0C81F800C091F800C04CF0300C81F800C091F800C00CF0F00C81F800C091F800C04CF00F0C81F800C02178DFF82CC1394321703A49FF24AEF80040ACF8BF
:400A4000004088F800500F7010F80D1C01F0FE0100F80D1C117801F0FB011170197801F0FB01197098F800101EF8100C2D4938400EF8100C1CF8100C00F0FC000CF8100C89
:400A80001EF8100C40F004000EF8100C087800F0CF000870087840F030000870087800F0F00008700878B77640F00F0008701CF8111C1D4839430CF8111C1C4904800C809B
:400AC00008F80C5C1EF8101C01F0FE010EF8101C117801F0FD01117042E000BF0876004010700040007600407881FF1F107600407B640040195B00006B650040244F0040E9
:400B0000264F00402F4F0040254F0040274F0040A3430040B3430040234F0040194F004038370020174F0040104F0040124F00407F640040DC80FF1FE1360020E0360020A3
:400B4000E2360020786400402A4F0040284F00401B4F0040044F00401C4F00401E4F0040197801F0FD01197018F80C1C10F810EC47490EEA070E00F810EC1CF81CEC0EF02C
:400B8000FC0E0CF81CEC10F810ECDFF834C14EF0040E00F810EC91F800E00EF0CF0E81F800E091F800E04EF0300E81F800E091F80080E64608F0F00881F8008091F8008009
:400BC00048F00F0881F80080DFF8F88098F80010394388F800102F49A9F800400C8088F8025010F8101CF77601F0FE0100F8101C107804F1E02400F0FE0010701A78264F50
:400C000002F0FE021A7098F80220DCF8002003F1A02304208134214920604F339764E0241F4A1C7008601D7013781E4943F0400313700B781C4843F040031C4CDCF8002009
:400C40000B704023D158814208BFD45003F1040308BFDEF80020C02BF4D11548154D1649002301242C70D06033770B78202003F0FD0343F002030B70104D0191DFF848A064
:400C800007F05AFEDFF844B0DFF8449027E000BF0B4F0040064F00406559000000E100E0A2430040B2430040598F0000B55C0000E95C0000E43600202051004039370020E8
:400CC00008ED00E0014F0040D3360020D23600203C370020327FB94B002A40F0E181B37FB64A002B40F0E881517F99B153772B78B34C012B0ED02378022B0BD021783C201C
:400D000004F068FF2378002B00F09D8421783D2004F060FF03F058FAB37F002B40F0CC812B786BB9A74B1B7853B9A74B1A783AB99AF8002022B99BF800200AB901221A709A
:400D4000A14BA14A1B78002BC4D0A04B00211B781170002B36D09E4FDFF8BC8207F1040C9C4B17F8014B197899F800200846D2B202F1FF3E8B1AC1EB0E0EA3F17F03BEFA2E
:400D80008EFEB3FA83F34FEA5E1E5B09914238BF7346002BE8D1914200F04C840B068E4A4CBF00204B1C14548A4A54BFDBB2012313708A4B1B78990744BF0223C8F8003053
:400DC000BC45CDD1019A137803F0FD0343F00203137008F09DFB824B814A1B78814903F0FE0313700B78A2F6653203F0FB030B7013787D4903F0FB031370724A012313703E
:400E00007A4B19601B687949002B74D04EF66024A34240F23184A3F56A422346603A0A606F4A6F4C12786F4902F0FE0222700A786F4F02F0FB020A703A7801F6793106340B
:400E400002F0FB023A700B8023806A4B1F789C46694B1B78002F3ED1614B614A1B78DFF8BC8103F00103137098F800E0634B0EF0FC0E88F800E092F80080DFF8A4E148F05C
:400E8000040882F8008093F8008008F0CF0883F8008093F8008048F0300883F8008093F8008008F0F00883F8008093F8008048F00F0883F800809EF800304FF0FF0843F057
:400EC00001038EF800300123A1F80080A4F80080D7708CF800304349454A0B7843F004030B70137843F0040313703D4B1B7843F0010382F8653B08F00FFB08F009FB4EF69B
:400F000060213F4A374C1378A2F6593203F0FE0382F8593B237803F0FD0323701378012403F0FD031370374B1C70374B364C19601B68002B00F0AD808B4240F29983A3F524
:400F40006A420B46603A22602D4A264F1178DFF8A0C001F0FE0111703C782C4904F0FD043C709CF800E02A4C0EF0FD0E8CF800E096F81AE007F66C370B8023803B78BEF162
:400F8000000F76D11378DFF89C8003F00103137098F800C01F4B0CF0FC0C88F800C092F80080DFF884C048F0040882F8008093F80080FF2208F0CF0838E000BF6481FF1FAD
:400FC0003937002030370020E43600203A3700207C9B00003B3700204037002065650040184F0040A34300407011010034370020B3430040383700201B4F0040234F0040CA
:401000000C4F0040D4360020D8360020104F0040124F0040174F004000E200E01A4F0040194F00400E4F00400D4F004083F8008093F8008048F0300883F8008093F800800F
:4010400008F0F00883F8008093F8008048F00F0883F800809CF800304FF0010843EA08038CF800307D4B83F81A800A80228087F800E07B4A7B49137843F0020313700B787E
:4010800043F002030B7092F8693B43F0010382F8693B08F041FA327F704B002A3FF41FAE00221A77019A137803F0FD031370B37F6A4A002B3FF418AEDFF8D48104F0F4FEC6
:4010C00008F026FA98F80030654F03F0FE0388F800303B78634A03F0FD033B70614B62491B78002403F0FD0313700B785F4B03911C605F4B1C7008F00FFA5E4B5E4A1C70ED
:4011000034771378574903F0FD0343F00203029701911370052305920493059A0024137803F0FD031370F47708F0F2F998F80030022203F0FE0388F8003002990B7803F0FF
:40114000FD030B70019F4FF4FA513B7803F0FD033B70474B1A70454B19601B68002B73D04EF660218B4240F28285A3F56A423F4B603A1A600B4698F80010DFF8E0E001F039
:40118000FE0188F80010029F3C493C7804F0FD043C70019AB47E177807F0FD071770384A13800B80039B1B78002C3DD198F80030DFF8E0C003F0010388F800309CF800705A
:4011C000304B07F0FC078CF8007098F800C02E4F4CF0040C88F800C093F800C0284A0CF0CF0C83F800C093F800C04CF0300C83F800C093F800C00CF0F00C83F800C093F857
:4012000000C04CF00F0C83F800C03B784FF0FF0C43F001033B700123A2F800C08EF81A30039BA1F800C01C70029A137843F002031370019A137843F00203137098F8003029
:4012400043F0010388F8003008F066F9F37F03F0FF07002B48D10D4C25E000BF6481FF1FA3430040B34300400F4F0040D8360020D4360020E436002020510040124F004083
:40128000104F0040174F00400D4F0040393700200C4F00400E4F0040217804F09BFC02F093FFF37F03BB737F002BF8D06C4B3C205F772B78012BF2D02378022BEFD021782E
:4012C00004F088FC23783D20002BE5D12378122003F0FF02002BDFD1104605F0B5FC02F073FFF37F002BDED00024F47708F010F998F8003003F0FE0388F80030029F3B780E
:4013000003F0FD033B70019A137803F0FD03137003990B7853490C6053490C7008F0FCF80598037803F0FD0343F002030370F47708F0EEF898F80030022203F0FE0388F8F1
:4013400000303B784FF4FA5103F0FD033B70019F3B7803F0FD033B70434B1A70414B19601B68002B73D04EF660218B4240F27A84A3F56A423B4B603A1A600B4698F80010CE
:40138000DFF8DCE001F0FE0188F80010029F37493C7804F0FD043C70019AB47E177807F0FD071770324A13800B80039B1B78002C3DD198F80030DFF8C8C003F0010388F82B
:4013C00000309CF800702B4B07F0FC078CF8007098F800C0284F4CF0040C88F800C093F800C0234A0CF0CF0C83F800C093F800C04CF0300C83F800C093F800C00CF0F00CF7
:4014000083F800C093F800C04CF00F0C83F800C03B784FF0FF0C43F001033B700123A2F800C08EF81A30039BA1F800C01C70029A137843F002031370019A137843F00203A4
:40144000137098F8003043F0010388F8003008F063F8F37F03F0FF07002B3BD1074C18E06481FF1FD8360020D4360020124F0040104F0040174F00400D4F00403937002095
:401480000E4F0040217804F0A5FB02F09DFEF37F03BB737F002BF8D09A4B3C205F772B78012BF2D02378022BEFD0217804F092FB23783D20002BE5D12378122003F0FF02DD
:4014C000002BDFD1104605F0BFFB02F07DFEF37F002BDED00024F47708F01AF898F8003003F0FE0388F80030029A137803F0FD031370019A137803F0FD031370039B1B78ED
:40150000814B1C60814B1C7008F006F8049B013B13F0FF0304937FF400AE9DF8102001238BF800208AF8003007F06CF9784CDFF8D4810027737FB3B188F81D702B783C206A
:40154000012B10D02378022B0DD0217804F042FB23783D20002B00F09F80217804F03AFB737F002BE8D102F02FFE2B78012B00F088802378022B00F08480664B664A1B8880
:4015800012889BB292B29A426249634879D82378002B40F08C800B8802889BB292B29A4200F285809AF800305C4A3BB99BF800305B4903F0FF07002B00F06A829BF8003074
:4015C000574A002B40F08181564B1B78002BAED0554B554A1B78002BA9D000231370534B524A1B889BB2ABB11388013B9BB213802B78012B0ED02378022B0BD04C4B4D493A
:401600001A780B7802F0020282F0020203F0FD0313430B70454B1B889BB2002B40F09C804049444A0B70137803F0FD0343F0020313707CE7404B1B785A073FF5AFAB3F4BA9
:401640001C70FFF7BDBB237803F0FF00002B00F01A832178122004F0BDFAFFF75BBBFF2840F20A830024944238BF1446FEF7F3BF00229BB2226067E400229BB20A60FFF7C6
:40168000CFBB2F4B2E4F1B78022B1CD000238BF800308AF800304AE72378122003F0FF02002B7FF45AAF104605F0CEFA42E7244B234F1B78022B00F0E98000238BF80030D0
:4016C0008AF8003080E707F023FF1E4B1D491B781D4A03F0FE030B701C4BA1F675311B78DFF870E003F0FB030B70137803F0FB0313709EF80020164A002313603B7007F069
:401700000BFFC3E76481FF1FD8360020D436002039370020CC360020CE360020D3360020D2360020DC360020DD360020DE3600202151004020510040656500404665004082
:4017400030370020184F0040B3430040A3430040343700201B4F004007F0DAFE44F62062B149B24F0B78A1F6593103F0FE0381F8593BAE4B1B7803F0FD033B700B780327A8
:4017800003F0FD030B70AA4B1F70AA4B1A601B68A84A002B77D04EF6602E734540F23E81A3F56A43603B13609F4BDFF8A0C21A78DFF8D08202F0FE021A709C4A117801F059
:4017C000FD0111709CF800709B4907F0FD078CF80070B77EA8F800E0A2F86FEB91F800E0002F3FD193F800E0944A0EF0010E83F800E092F800C0DFF890E20CF0FC0C82F880
:4018000000C093F800C04CF0040C83F800C09EF800304FF0FF0C03F0CF038EF800309EF8003043F030038EF800309EF8003003F0F0038EF800309EF8003043F00F038EF8B6
:4018400000307F4B4FF0010E1B7843EA0E0302F8013C7C4B83F81AE07B4BA8F800C0A3F800C00F70714B714A1B78784943F0020313700B7843F002030B7092F8693B43F0BF
:40188000010382F8693B07F047FE50E607F040FE6F4B6F491B786D4A03F0FE030B70634BA1F675311B78DFF8D4E103F0FB030B70137803F0FB0313709EF80020654A002337
:4018C00013603B7007F028FEF7E6634B00211B781170002B34D0DFF8B4E10EF104085F4B1EF8017B197899F800200846D2B202F1FF3C8B1AC1EB0C0CA3F17F03BCFA8CFC0C
:40190000B3FA83F34FEA5C1C5B09914238BF6346002BE8D191427AD00B06514B4CBF002001311F544D4B54BFC9B2012119704D4B1B78980702D54C4B02221A60C645CED12D
:40194000012300278BF800708AF8003007F0E0FD3F4B01901B783E4903F0FE030B70334B32481B78394A03F0FB03037013784FF0020E03F0FB0313703C4B3D4983F800E0D7
:40198000344B19601B683349002B3CD04EF6602E734540F2DF80A3F56A427346603A0A602B4A2B491278214802F0FE020A701F4ADFF898E0117802F6793201F0FB01017053
:4019C0009EF800702B4907F0FB078EF8007013800B80294B294F93F800E03B78BEF1000F00F0BB80114B11491B78184A43F004030B70137843F004031370154B1B7843F09F
:401A0000010382F8653B019807F086FDDCE5154B1B785A0780D41A4B1F708FE700211FFA83FE1160C0E600BF0C4F0040A3430040D4360020D83600200F4F00400E4F0040BD
:401A40000D4F00406481FF1F124F0040B3430040184F0040343700203A3700203B370020403700206565004000E200E030370020A08601001E4F0040383700201B4F0040A4
:401A800046650040104F0040174F00407C9B000001230F70137007F03BFDC84B01901B78C64903F0FE030B70C54BC5481B78C54A03F0FB03037013784FF0020E03F0FB03E7
:401AC0001370C14BC14983F800E0C14B19601B68BF49002B3AD04EF6602E73457ED9A3F56A427346603A0A60B44AB4491278B44802F0FE020A70B24ADFF8C8E2117802F6E0
:401B0000793201F0FB0101709EF80070B14907F0FB078EF8007013800B80AF4BAF4F93F800E03B78BEF1000F5BD0A54BA4491B78A44A43F004030B70137843F00403137035
:401B40009E4B1B7843F0010382F8653B019807F0E3FC33E50F609BB222E7984B97481B78DFF8CC8203F00103037098F800C09C4B0CF0FC0C88F800C090F80080DFF8B4C298
:401B800048F0040880F8008093F8008008F0CF0883F8008093F8008048F0300883F8008093F8008008F0F00883F8008093F8008048F00F0883F800809CF800304FF0FF0849
:401BC00043F001038CF80030A2F80080824A0123A1F8008087F800E0137003E70F609BB282E7764B75481B78DFF8448203F00103037098F800C07A4B0CF0FC0C88F800C075
:401C000090F80080DFF82CC248F0040880F8008093F8008008F0CF0883F8008093F8008048F0300883F8008093F8008008F0F00883F8008093F8008048F00F0883F8008005
:401C40009CF800304FF0FF0843F001038CF80030A2F80080604A0123A1F8008087F800E0137062E75F4A9BB21460FFF787BB5D4A9BB21460FFF77FBADBB29A4228BF1A465A
:401C80001446FEF7E8BC04F0DFFFFFF743B85648564A0378564943F0100303701378DFF8989103F0FE033F20137008704FF48072504989F80000504807F02EFE4FF4807245
:401CC0004C494E4807F028FE4FF480724C494D4807F022FE4C4D4FF400724C494C484D4C07F01AFE4FF400724B494C4807F014FE0FCD0FC40FCD0FC40FCD0FC495E80F0088
:401D0000DFF838E184E80F00454D464BF82289F800708AF80E808EF8007085F800801A70FEF7B4BC404B01F5A3510D311A700A701A78A1F5905102F0F3021A701A781C3900
:401D400042F004021A701A780124C2F3810202F19242063292F830214473D2B20A701A7802F0FD021A701A78D2B21A70FEF74EBC2E4B01F5A35115311A700A701A78A1F5A2
:401D8000915102F0F3021A701A78023942F004021A701A780124C2F3810202F19242063292F838210473D2B20A701A7802F0FD021A701A78D2B21A70FEF716BC184F0040E0
:401DC000A3430040B343004030370020A0860100343700201E4F0040383700201B4F0040234F0040D8360020A643004080C7004088C700403C99000000C4004000C500406B
:401E00003C9A000000C600403C9B00007C9E000000C0004000C70040989B000000C200409CC7004084C70040245800402C5800401A4F0040194F00408CC7004098C7004068
:401E40009B4B01F5A35111311A700A701A78A1F5905102F0F3021A701A781F3942F004021A701A780124C2F3810202F19242063292F82821C472D2B20A701A7802F0FD02AE
:401E80001A701A78D2B21A70FEF79CBB894B01241A7081F8212A1A78A1F5FF6102F0F3021A701A7842F004021A701A788472C2F3810202F19242063292F82021D2B20A7090
:401EC0001A7802F0FD021A701A78D2B21A70FEF767BB06F0B3FF00232370FEF755BB2B78FEF734BB744CFEF79EBA744B744D0C2119702B78734943F020032B7002200A7005
:401F000005F0B4FD2B78012203F0FC0343F003032B70BA71FEF7C6B96B4B6C4D0C2119702B786B4943F020032B700A7006F0CCFF2B78012203F0FC0343F003032B70FA7032
:401F4000FEF780B9634B644D0C2119702B78634943F020032B700A7006F0CEFF2B78012203F0FC0343F003032B70BA70FEF756B902F5A2525A4B10320C2111701978802531
:401F800041F02001197095709178012501F08001C9B2917091784570294391701A7802F0F3021A701A7842F00C021A701A7802F0FC0242F003021A70FEF71CB9494B347055
:401FC0001A68D00772D51A6822F001021A6000BF00BF00BF444D2C60084607F09DFA434B1A78910760D5424A0D21B624E0201470107011701A78910706D41C46182007F05F
:402000007FFA23789F07F9D5384B1A78920702D51C78A4083BD0072407F07AFA2B680021012B024631707EF49FA82E490B6843F001030B6000BF00BF00BF002310462B6063
:4020400007F06AFA64B3FEF791B82A4A2A4E15682A4C2B48E0232E6423700170294814687225294A0570294E294920201070294D294866640B700626472402212E700470B8
:4020800082F8FC10254A01231370FEF72AB807F03FFA2B680246012B3470C6D007F03CFA05F05EFCFEF762B80424B5E70E4D93E72858004020580040F837002000580040B9
:4020C00001580040025800400C5800400D5800400E58004008580040095800400A580040055800400400084010370020224700402047004008ED00E0F978000000E400E031
:40210000E83600208A650040896400409178000001E400E025650040356500403A3700202DE9F04F0127B846DFF8E8B2DFF8E892DFF818A38FB0CAF800809BF8000099F88E
:40214000001001248842B34AB34B00F00681107819781B788842127828BF20339B1AAF4ADBB21760002B00F00781AD49CAF800709BF8002099F800300878D2B2DBB210B969
:402180009A4200F0F380531CDBB2202BA54828BF0023865C8BF800300B78A14CF6B20BB1002323709D4AA04B17601C78E4B2052C00F2D980DFE804F0CA9990110A039B49E4
:4021C00003228E701A7004F0FBF8B4E7974905224E701A7004F0F4F8ADE7954D029307F097F92A78934902F0FE022A700A786FF4376E02F0F7020A7075442A788E4B02F0D0
:40220000F7022A7001F68431002209781A70019207F082F9019A029B844D1A702B786A78A97853404B40B34285D1844B1A785AB92A78C12A03D02A78A52A7FF47CAF297807
:4022400021201F7003F0C6FC2A78784BC12A06D01A78B12A03D01978302003F0BBFC784B1B78032B2B7800F09480A33B172B3FF662AF01A252F823F0CB2D00003721000007
:4022800055320000192900003721000037210000352A0000D92A0000372100003721000037210000372100003721000037210000712B000037210000A9260000FD2600004D
:4022C000EB2D00003D2F000033310000F9320000C727000027280000544A0020032156709070197004F06CF825E7019304F068F806F15D02D2B21E2A019B09D807FA02F17E
:4023000021F0BF2121F03301002938D1002A3BD0019307F0FDF84649464C0A786FF4376C02F0FE020A702278614402F0F70222700A78444D02F0F7020A703F4A00242978E9
:40234000147007F0E9F8019B1C70F4E6AB2E7FF4F2AE1F7004F034F8EDE631490B784BB12E4B1F6002E700221A70E4E6364B1E78F6B217E7294B1C600FB0BDE8F08F2B493D
:4023800002220E701A70D6E6284904220E701A70D1E6A53B1C2B01F2F68001A252F823F02D2600008D25000087350000873500008D2500008D2500008735000087350000F6
:4023C000873500008735000087350000873500008D250000873500008D2500008D250000EF240000873500008735000051240000873500008D250000873500008735000035
:4024000087350000873500008735000087350000372100000E370020E936002000E100E00C370020EC3600209981FF1F8881FF1F244F0040A34300409A81FF1F8281FF1FB8
:4024400039370020274F00404965004080E100E0A04B1220197803F0BDFB9F4BAB22C2218DF828201B78B8228DF829108DF82A2000217A228DF82B108DF82C20002B3FF481
:402480005AAE9649964B0DF1280E1EF8016B0C7818782546C0B200F1FF3C221AC4EB0C0CA2F17F02BCFA8CFCB2FA82F24FEA5C1C5209A04288BF6246002AE9D1A04201F078
:4024C000A48122065ABF621CD2B20122854848BF00250A70844A46551278940702D5834A022010600DF12D027245CED123E6794B1220197803F06EFB774BAB22C2218DF8B4
:4025000028201B78B5228DF829108DF82A20002177228DF82B108DF82C20002B3FF40BAE6E496F4B0DF1280E1EF8016B0C7818782546C0B200F1FF3C221AC4EB0C0CA2F120
:402540007F02BCFA8CFCB2FA82F24FEA5C1C5209A04288BF6246002AE9D1A04201F04C8122065ABF621CD2B201225E4848BF00250A705D4A46551278940702D55B4A022064
:4025800010600DF12D029645CED1D4E52978122003F020FB2B78504ADBB2127883F0C204AB208DF82A30C22100238DF82C408DF828008DF829108DF82B30002A3FF4BBAD2C
:4025C0004649474B0DF1280E1EF8016B0C7818782546C0B200F1FF3C221AC4EB0C0CA2F17F02BCFA8CFCB2FA82F24FEA5C1C5209A04288BF6246002AE9D1A04201F00E814F
:4026000022065ABF621CD2B20122364848BF00250A70354A46551278940702D5334A022010600DF12D029645CED184E53B2006F083F9294B1B78002B33D0DFF8BCE02749F6
:40264000274B1EF8016B0C7818782546C0B200F1FF3C221AC4EB0C0CA2F17F02BCFA8CFCB2FA82F24FEA5C1C5209A04288BF6246002AE9D1A04201F0B68022065ABF621C4B
:40268000D2B20122174848BF00250A70164A46551278940702D5154A02201060144A7245CFD104F069FA46E56B78124C003318BF0123237021783A2003F08CFA237803F053
:4026C000FF04002B01F0AD8104F082F9012003F0CBFC30E5393700203A3700203B3700203C370020403700206565004000E200E0809B00007B81FF1F7C9B0000392006F0EA
:402700001BF9754BAB21C2221B788DF828108DF82920B42177228DF82B708DF82A108DF82C20002B34D06D496D4B0DF1280E1EF8016B0C7818782546C0B200F1FF3C221A2D
:40274000C4EB0C0CA2F17F02BCFA8CFCB2FA82F24FEA5C1C5209A04288BF6246002AE9D1A04201F0148022065ABF621CD2B201225C4848BF00250A705B4A465512789407E3
:4027800002D55A4A022010600DF12D029645CED104F01EF9002003F067FC554B1A78012A3FF4C9AC1B78022B3FF4C5AC514B52491A780B7802F0020282F0020203F0FD03D0
:4027C00013430B70B7E44D494D4A4E4B28200F7010800021484A1970137803F0FD0343F00203137006F094FE44F620610446464A46481378A2F6593203F0FE0382F8593B80
:40280000037803F0FD0303701378414803F0FD031370032303703F4B196003F04DFE204606F07AFE87E4324B1B7803F0FF012BB96B78DBB25A1E012A41F2F682264BAB2231
:40284000C2218DF828201B78BA228DF829108DF82A20002178228DF82B108DF82C20002B34D01E491E4B0DF1280E1EF8016B0C7818782546C0B200F1FF3C221AC4EB0C0C8B
:40288000A2F17F02BCFA8CFCB2FA82F24FEA5C1C5209844238BF6246002AE9D1844200F0C68722065ABF621CD2B201220D4848BF00250A700C4A46551278940702D50B4AAB
:4028C000022010600DF12D029645CED1084B1A78012A7FF467AF2EE43A3700203B3700203C370020403700206565004000E200E0393700202151004020510040DC360020B6
:40290000DE360020DD3600200C4F0040A3430040D4360020D83600206B78DBB2082B01F20B819B4E07AD3446306871680AAA03C554F80C0F96F808E06168267A03C2954C05
:402940009548964985F800E016700370257823700A780EA802F08002D2B20A70C61816F810EC0A7816F81C0C4FEA8E0E02430EF00C0E8B484EEA02020A700278AB4202F0B7
:40298000F3020270027816F8101C42F00C0242EA0102027004D0834B00221A7006F02EF82378814A83F064018DF82B301278AB238DF82C108DF82830C221A6238DF8291033
:4029C0008DF82A30002A81D07849794B0DF1280E1EF8016B0C7818782546C0B200F1FF3C221AC4EB0C0CA2F17F02BCFA8CFCB2FA82F24FEA5C1C5209A04288BF6246002AA9
:402A0000E9D1A04200F0E68622065ABF621CD2B20122684848BF00250A70674A46551278940702D5654A022010600DF12D027245CED14BE76B78AB20DBB2082B8BBF604B41
:402A40005F4A1B781370584A8DF82B30127883F06B038DF82C30C221A9238DF828008DF829108DF82A30002A3FF430AF4F49504B0DF1280E1EF8016B0C7818782546C0B2BA
:402A800000F1FF3C221AC4EB0C0CA2F17F02BCFA8CFCB2FA82F24FEA5C1C5209A04288BF6246002AE9D1A04200F08B8622065ABF621CD2B201223F4848BF00250A703E4AB6
:402AC00046551278940702D53C4A022010600DF12D027245CED1F9E66B78334ADBB283F068018DF82B301278AB238DF82C108DF82830C221AA238DF829108DF82A30002AAF
:402B00003FF4E4AE29492A4B0DF1280E1EF8016B0C7818782546C0B200F1FF3C221AC4EB0C0CA2F17F02BCFA8CFCB2FA82F24FEA5C1C5209A04288BF6246002AE9D1A042FE
:402B400000F0368622065ABF621CD2B20122194848BF00250A70184A46551278900702D5164A022010600DF12D027245CED1ADE60E490F4B08780194A0F180014FF0020E18
:402B80001E464EF66022DFF83CC00C4629E000BF809B0000E180FF1FE380FF1F0258004001580040D13600203A3700203B3700203C370020403700206565004000E200E070
:402BC0008481FF1F00E100E0317881423178CCF800E034BF411A611AC9B251B1013A92B25AB10221CAF8001019788142ECD1CCF800E0A7490978C907F0D5AE88019C731E54
:402C0000B3F5007F28BF4FF4007606F081FCA14AA14913786FF4376E03F0FE0313700B78724403F0F7030B70137803F0F703137091F8842B994A0023137006F06DFC984BDC
:402C40001B78022B01F0EC804FF00001954B964A11701970954B1B78032B01F0C38094489449954A0023037002930B70138003F0AFFE9249AA790978D2B201F0FF0301935D
:402C80008F48029B002940F04B87002A41F037800122019CFF230192711E89B2CAB24FF05A0E02920A0A874803920EFB06F69DF80420027000220492834A05939DF80430DF
:402CC000137006F025FC814900220A80DFF860C27F49ACF800200A70DFF858C27D49DFF858E28CF800200A80AA81AA607A497B4ABDF810307644C1F800E01660AB81784B65
:402D0000784D1F7006F008FC9DF808307648774A2E78037092F800E075494EF0200E81F800E092F800E0032C81F800E09DF80C30037092F800E04EF0800E81F800E092F8A4
:402D400000E081F800E00670297821F0030141F0180141EA04012970017001F0408065496548059B012B8CBF0B460346634C1178236063485E4B634C41F050011170046088
:402D800019701178604841F00801197011785F4C197001786FF48575C9B22170284401785B4CC9B22170043000781178594C41F00101C0B2207019701178574A1970137889
:402DC00043F001031370FFF7B6B96B78A978312043EA012109B28BB2FF2B94BFC9B2FF21AB8002F0F7FEFFF7A6B93D4B1A78002A00F012861978122002F0ECFE474BAB22CF
:402E0000C2218DF828201B78B5228DF829108DF82A20002177228DF82B108DF82C20002B3FF454AD3E493F4B0DF1280E1EF8016B0C7818782546C0B200F1FF3C221AC4EB72
:402E40000C0CA2F17F02BCFA8CFCB2FA82F24FEA5C1C5209A04288BF6246002AE9D1A04200F0698522065ABF621CD2B201222E4848BF00250A70064A46551278940702D5DE
:402E80002A4A022010600DF12D029645CED11DE565650040244F0040A34300409A81FF1F30370020D3360020D2360020D4360020DC360020DD360020DE3600207B81FF1F92
:402EC0008881FF1FD480FF1FD580FF1FCC360020D0360020AC350020D080FF1FD880FF1F39370020C780FF1F7B640040E0360020786400408D5A0000795B0000CC80FF1F0E
:402F0000C880FF1F1D5D00006B650040DC80FF1FE1360020E2360020004E00403A3700203B3700203C3700204037002000E200E0CE360020A881FF1FAC81FF1FB34DB44C65
:402F40002878297B2A7E95F8243024788DF81C008DF81D108DF81E208DF81F30002C00F00B85AC4C2478032C40F297862C7A002C00F002852C7D002C00F0FE8495F82040C3
:402F8000002C00F0F98495F82C40002C00F0F484A14C2478082C2546019400F27E868DF8302004228DF82C204FF6FF7200248DF82E008DF82F10CA2002218DF831300F23F6
:402FC0008DF82A408DF832408DF833408DF834408DF835408DF836408DF837408DF828008DF82B508DF829108DF82D300AA80DF1360410F8013B510881F404455A4012F0DB
:40300000010F85F0080518BF29464A0882F4044581EA530111F0010F85F0080514BF294611464A0882F4044581EA930111F0010F85F0080514BF294611464A0882F404456F
:4030400081EAD30111F0010F85F0080514BF294611464A0882F4044581EA131111F0010F85F0080514BF294611464A0882F4044581EA531111F0010F85F0080514BF294664
:4030800011464A0882F4044581EA931111F0010F85F008050CBF114629464A0881EAD31382F4044113F0010F81F0080118BF0A46A0429ED1D243C2F3072343EA0222C2F318
:4030C00007238DF836208DF8373006F021FA5349534A0B78534D43F008030B70137843F00803137006F018FA06F012FA2B780146002B00F04E8706F00FFA06F009FA474901
:40310000474A0B7843F008030B70137843F00803137006F001FA06F0FBF92C780146414A002C00F0848706F0F7F90024742300F024BC6B78003318BF0123AB71AB79002B11
:4031400040F0F285384AAB791278DBB2002A40F0D784002B00F0C785344A3549137823F0030343F019031370324A0B70324B33491A60AB790A78DBB283F07504AB208DF884
:403180002B30C221B7238DF82C408DF828008DF829108DF82A30002A3FF498AB2849294B0DF1280E1EF8016B0C7818782546C0B200F1FF3C221AC4EB0C0CA2F17F02BCFA97
:4031C0008CFCB2FA82F24FEA5C1C5209A04288BF6246002AE9D1A04200F0E28222065ABF621CD2B20122184848BF00250A70174A46551278940702D5154A022010600DF1DD
:403200002D027245CED1FFF761BB00BFC4370020D1360020F4370020E180FF1FA0430040B04300400F3700207B81FF1FC780FF1F7B640040D55A0000C880FF1F3A370020AC
:403240003B3700203C370020403700206565004000E200E0012005F06FFB3B2005F06CFB1D4B1B78002B3FF41CAADFF888E01B491B4B1EF8016B0C7818782546C0B200F103
:40328000FF3C221AC4EB0C0CA2F17F02BCFA8CFCB2FA82F24FEA5C1C5209A04288BF6246002AE9D1A04200F06A8222065ABF621CD2B201220B4848BF00250A700A4A465591
:4032C0001278940702D5094A02201060084A7245CFD1FFF7E6B900BF3A3700203B3700203C370020403700206565004000E200E0809B00007C9B0000A64B1A78002A40F0C8
:403300007784A54BA5491A78A54802F0AF021A700A701A78A34C42F008020A701B78A24A0B700378C220DBB2237013789F4ADBB2137011F8143C9E4A9E49DBB212780B70A2
:40334000AB24B8217B238DF82B708DF828408DF829008DF82A108DF82C30002A36D09649964B0DF1280C1CF8012B0E7801921C78B646E4B2601E321B801BA2F17F02B0FAE7
:4033800080F0B2FA82F240095209A64238BF0246002AECD1A64200F06A8234065ABF721CD2B2012286489DF8044048BF4FF0000E0A70844A00F80E401278900702D5824A32
:4033C000022010600DF12D029445CCD17F4B1B6813B10021012098470023029301937C4B7C4E0493049B9DF804201B780392934200F22682727BB17B8A4202EB010340F2FB
:40340000AB8298B2511AFF28CCB200F2AA82A24280F05F8404F0E4FD6F4B1A783379FF2A2DD0934257D0042A26D86C4807FA02F190F800E0C9B211EA0E0F1DD0DFF8C4C1A9
:403440002EEA01015CF822C0DFF8BCE101709CF800001EF802E0624920EA0E0E895C61488CF800E0425C013AD2B2425422B95E490A7822F008020A705749FF220A70FF2BD6
:4034800029D0042B25D8554907FA03F20878D2B202421ED1DFF86CE102435EF823E0DFF868C10A709EF800001CF803204C490243C95C4C488EF80020425C42B9DFF828E161
:4034C0009EF8002042F008028EF80020425C01324254414A1370454B1B78002B40F0068204F0FCFD336920469847414806F008F8364B1B6843B303992D209847B3681A462F
:40350000324B03921B68110EF3B12A2098472F490B68CBB1039A2A20C2F3074198472B49039A0B68C2F3072173B12A20984727490B689DF80C103BB12A209847234B1B6898
:4035400013B12146132098472A4A4EF66023117801F0FE0111701078274940F00100107008E00A78D2B2013B9BB2002A4ED1002B00F0D881214A1278002AF2D1204A127826
:4035800002F00102EFE72978122002F023FBFEF7D2BD00BF39370020E0360020786400406B650040DC80FF1F60640040E13600203A370020E23600203B3700203C37002085
:4035C000403700206565004000E200E014380020F4370020E49D0000E280FF1FF5370020349E0000F8370020005B00400838002080FC0A00004E00401E3700201637002052
:40360000014E0040449E00003C9E00009D4B1B7803F00303012B40F28782022B00F04083994B9A4A1B8812889BB243EA0243984A127812B1974A00211170974997480A78CD
:4036400002F0FE020A7002780393012A00F08D811C46190E924B1B68B3B12E209847904BC4F307411B687BB12E2098478C4B1B6853B1C4F307212E209847894B9DF80C1086
:403680001B680BB12E209847019B029A01330C32042B019306F1140602927FF4A3AE04F09FFC804B1A78FF2A00F01A83032A3DD0042A7D4B00F2158307FA02F41978E4B24E
:4036C0000C421BD0794821EA040150F82200784C19700678A15C774C26EA0101A25C764C0170A15C0139C9B2A154002940F0F98272490A7822F008020A7019780A0712D4B2
:403700006F4841F00801197003786B4A63F07F03037013782BB969490B7843F008030B701378013313705F4A03231370654B654C1B781BB105F082FB0023237004F0CEFC00
:40374000554A6149137803F0FE031370AA790B78D2B2002B00F0AF825C4B5D485D49002A0CBF1A4602460B785B4823F0030343F01B030B700370594B1A60FFF7A7B8584A66
:40378000127850073FF591AD564A16709EE5544A127850073EF5E7AF524A1670FEF7F4BF4F4A127850073FF519AD4E4A167026E54B4A127850073FF5C5A94A4A1670FFF736
:4037C000D2B9474A127850073FF570A9454A1670FFF77DB9424A127850073FF515A9414A1670FFF722B93E4A127850073EF545AF3C4A1670FEF752BF394A127850073EF5C4
:40380000AFAE384A1670FEF7BCBE354A127850073EF557AE334A1670FEF764BE304A127850073EF5EDAE2F4A1670FEF7FABE2C4A127850073FF535A82A4A1670FFF742B8DB
:40384000727BB17B284B02988A42C05C02EB01037AD9521A99B2FF29D4B279D8A042FFF4D9ADDBB2984228BF18460446D2E51C4A127852073FF591AD1A4A9DF80400107000
:40388000A0E500BF144E0040104E0040124E0040163700201E370020004E0040DE80FF1F14380020E280FF1FF5370020449E00003C9E0000349E0000F8370020005B004048
:4038C0003D510040083800207B81FF1F195B0000D55A0000C780FF1F7B640040C880FF1F6565004046650040C4370020944A1378D90613D523F010031370924B91491B78C0
:40390000914A03F07F030B701378013BDBB2137023B98E4A137823F0080313708C4A00231370DDE519468B481C46037803F0FE03037003918EE6884A127850073FF592AA26
:40394000864A1670FFF79FBA9AB2FF2A89D90024844238BF04465DE599B2FF2940F2B9810024944238BF144654E5002BB8BF1F335C110394210E6DE67423794AAB201278D2
:403980008DF82C30C221B6238DF82B408DF828008DF829108DF82A30002A3EF497AF7149714B0DF1280E1EF8016B0C7818782546C0B200F1FF3C221AC4EB0C0CA2F17F022E
:4039C000BCFA8CFCB2FA82F24FEA5C1C5209A04288BF6246002AE9D1A04216D020065ABF621CD2B20122614848BF00250A705A4A46551278920702D55D4A022010600DF1BD
:403A00002D029645CFD1FEF761BF534A12785207E4D4524A1670F2E7012003F015F9FEF755BF4C4A534E137803F0FE03137005F06FFD3378504903F0FE0333700B784F4AD8
:403A400003F0FE030B7013784D4903F0FE031370F3780C6005F060FD4A4BDFF88CE11A7849494A4E4A4802F0AF0204701A70CEF800600A701A78474842F008020A701B7844
:403A8000454A0B700378454EDBB2137011F8183C4349DBB2434A0B701378434ADBB2137002F096FF414A424B14701F7004F0AAFE05F02EFD3F4B404C9A884049531EB3F5F0
:403AC000007F3CBF5A235A434FF0000323803C4C338023702E4C28BF4FF434422370DFF80CE1384C0A44AB81374ECEF800102260364AAB603380137005F00EFDFEF71BBBA7
:403B000033483449344A002B08BF02460B78334823F0030343F01B030B700370FFF726BB01930223FFF7B8B82D4B1A88023B1B889BB243EA02437AE52A4CFEF731BF00BF57
:403B4000F53700201D510040F8370020005B004008380020004E004065650040466500403A3700203B3700203C3700204037002000E200E0004F0040A3430040B343004084
:403B80009C81FF1FE03600207864004061590000A881FF1F6B650040DC80FF1FCE360020E136002064640040E2360020D2360020D33600208881FF1FCC360020AC81FF1F6D
:403BC000D0360020D880FF1FAC35002039370020195B0000C780FF1FD55A00007B640040124E0040E180FF1FC880FF1FD080FF1F1978122001F0EEFFB74BAB22C2218DF8A6
:403C000028201B78B8228DF829108DF82A2000217A228DF82B108DF82C20002B3EF456AEAE49AF4B0DF1280C1CF8016B0C7818782546C0B200F1FF3E221AC4EB0E0EA2F137
:403C40007F02BEFA8EFEB2FA82F24FEA5E1E5209844238BF7246002AE9D1844216D022065ABF621CD2B201229E4848BF00250A709D4A46551278900702D59C4A0220106066
:403C80000DF12D029445CFD1FEF720BE964A12785007E4D4964A1670F2E7742300246CE6944B954A95491B8809781278120242EA03430B43BBE4002A00F05081904A91496A
:403CC000137823F0030343F0190313700B708E4A51E5DBB29A4228BF1A461446FFF79ABB8A4B19780AE5864A8649137823F0030343F0180313700B70854AFFF737BAB6F52B
:403D0000FF7F80F03681B11C5A2389B203FB06F6CAB202920A0A03927E4A002317703F2204920124FEF7C8BF7B4A7C4C13787C4943F01003137094F800E02378794E3F20C9
:403D400003F0FE0323704FF4007208705FFA8EF3307075497548019305F0DEFD4FF400727349744805F0D8FD734B0021F82231701A70019BDB0703D5237843F00103237060
:403D8000654A664C1378674E43F01003137094F800E0237862493F2003F0FE0323704FF4007208705FFA8EF330705F495F48019305F0B2FD604B0021F82231701A70019B26
:403DC000DE0703D5237843F00103237005F0A0FB5A4B00221A7005F09FFBFFF7B3B9584BFEF7C4BF05F094FB564A57491378A2F6593203F0FE0382F8593B0B7803F0FD03CA
:403E00000B70137803F0FD031370504B91F86C2B00221A604E4B1A7005F07EFBFEF71FBF02F042F8FEF710BF4A4C4B4A2370117002F0CEFD284A2378127883F07804AB200E
:403E40008DF82B30C221BA238DF82C408DF828008DF829108DF82A30002A32D01F49204B0DF1280C1CF8016B0C7818782546C0B2421EC0EB040E121BAEF17F0EB2FA82F22F
:403E8000BEFA8EFE52094FEA5E1E844228BF7246002AEAD1844218D022065ABF621CD2B20122104848BF00250A700F4A46551278940702D50D4A022010600DF12D026245A5
:403EC000D0D102F059FEFEF701BD074A12785007E2D4074A1670F0E73A3700203B3700203C370020403700206565004000E200E046650040124E0040114E0040104E0040AE
:403F0000C780FF1F7B640040D55A0000F5370020195B0000D480FF1FA643004080C7004088C700408CC700407C9E000000C000407CA0000000C2004084C70040A081FF1FC8
:403F4000415A00000C4F0040A3430040D8360020D4360020DD80FF1FE3360020924A9349137823F0030343F0180313700B70904A01E481883E204B1EFE2B94BFC9B2FF218B
:403F800001F028FE01230393FF234BF2F2260293C2E6884B2F701A68D00740F102811A6822F001021A6000BF00BF00BF824E3760084605F0B1FA814B1A78940740F1EF80C1
:403FC0007F4AB6211170E0200D21107011701A78910706D41C46182005F092FA23789B07F9D5764B1A78920703D51C78A40800F0C780072405F08CFA32680021012A034637
:4040000029707FF478A86B490A6842F001020A6000BF00BF00BF00221846326005F07CFA002C7FF46AA803F09BFCFFF766B8614B17701A68D00740F1B0801A6822F0010202
:404040001A6000BF00BF00BF5B4E3760084605F063FA5A4A1378980740F19D80584BB6211970D5200221187019701178890700F19280402119709DF82800114618709DF82A
:4040800029201A709DF82A201A709DF82B201A709DF82C201A709DF82D201A709DF82E201A709DF82F201A709DF830201A709DF831201A709DF832201A709DF833201A70E6
:4040C0009DF834201A709DF835201A709DF836201A709DF837201A700B78384A9807FBD513789B0757D513789B0854D13549137891F800C04978029199074CD5304BD820F4
:4041000005214FF0B60E83F800E018701970117801F0020101F0FF0000293CD14021197018709DF80410197083F800C09DF8081019701178214B8807FBD51A7891072AD5B5
:404140001B789B080BBF0124002475237423019305F0DEF932680021012A2970164E019B08D1144D2A6842F001022A6000BF00BF00BF3160019305F0CFF9019BFFF7FDBBF4
:4041800005F0C6F932680346012A2C703FF43BAF05F0C2F947E77423D9E7074E56E7042428E7054E04E700BFC780FF1F7B640040195B000004000840103700202247004035
:4041C00020470040143700202DE9F04FDFF808B3A7B09BF80030012B77D09BF80030022B73D0B44B1B781F0600F1388302220024B14B1B781E0600F1BC82B04B1B781806CD
:4042000000F1CB82002C40F0DA82AD4B1B78190617D5AC48AC490378AC4A03F0FE0303700B7803F0FE030B70137803F0FE03137005F06EF9A64A137843F00803137005F0B0
:404240006BF9A44C0F2002F03BFA2378002B44D005F05EF925780023EDB2237005F05CF9EA0700F1A083AB0700F154836F0700F118832E0731D5944A944B1078914940F027
:404280000100107018788E4D40F0010018700878002640F0010008702878087800F0FE000870117801F0FE0111701A7802F0FE021A702B7866609BF80030022B01F027808B
:4042C0000321462001F086FC07E07D4B1B781B0600F11C81082002F0F3F99BF800207E4B032A00F016821A78012A00F03D811B78022B00F05181DFF8E491DFF80082774947
:40430000B8F80020B9F8003092B29BB29A4280F02E81B8F800309BB2002B00F0E881DFF8E0E1B8F800306E48BEF8642A9BB26D495A2404FB0304150AAB201E238DF83B505B
:404340008DF838000E468DF83A20674F8DF839300DF13F000DF1990525E073792278002B40F0ED8094F801C0A3781B0443EA0C2313431A025C4A48BF43F07F431278012AD1
:4043800003D1002BB8BF1F335B114FEA232C1A1400F8033C00F802CC00F8012C0330A84204F1030411D00B79002BD6D194F800C06278A37800F803CC00F8022C00F8013C3E
:4043C0000330A84204F10304EDD100220EAB25A853F8041B834282EA0102F9D19DF895109DF89430C2F307204B4053403F4C5840BEF8641AC2F307434340207883EA1262F7
:404400004B1C8DF89620AEF8643A002837D0384F384DDFF8F0B0DFF8F0C00DF137060DF1960A16F8014F39782A780846D2B202F1FF3E8B1AC1EB0E0EA3F17F03BEFA8EFE0A
:40444000B3FA83F34FEA5E1E5B098A4288BF7346002BE9D18A4200F054810A0659BF0131C9B2012100200BF8004039709CF800309B0702D5204B02221A605645D1D1B8F888
:4044800000301E4901339BB2A8F80030B8F80020B9F8003092B29BB29A4265D30B889BB2FF2B00F26481D9B2382027B0BDE8F04F01F090BB274F00401B4F00400F4F004005
:4044C000034F0040004F0040A3430040B34300407C81FF1F9881FF1F39370020CE360020AC81FF1FD080FF1FDE80FF1F3A3700203B3700203C37002000E200E0CC3600206A
:40450000482B00204037002065650040B148B2490378B24A03F0FE0303700B7803F0FE030B70137803F0FE03137004F0F1FFAC4A137843F00803137004F0EEFFCAE694F83E
:4045400001A0A37897F800C01B0443EA0A23BCF1020F43EA0203A34A14D013F4000F3FF40DAF43F07F4309E727B0BDE8F08F9E4B9A7812B100229A705A7027B0BDE8F04FA2
:40458000FDF7CEBDC3F3110C9B034ABF6FEA8C3363466FEA9333F1E6944E954F35783B78EAB20092904C03F0FF02002B40F07281237C002BD8D08F49DFF89082084698F8C8
:4045C00000300491DFF888928B4943F004032274C9F800000B7098F80020884B0A701978452001F0F7FA01233B7085497A4D0A78DFF8E8A102F0FE020A7004F089FF754964
:404600000A78033102F0FE0201F8032C2A7802F0FE022A709AF8002002F0FE028AF80020002209786260019204F076FF98F80010019A049B704801F0AF01227488F800107C
:40464000C9F80030017098F800106E4B41F00801017098F800106C4C017019781438C9B2217010F8041C694CC9B2317000786849C0B2207008686749674C411A4908A4FBE0
:4046800001316648664BDFF8CC91C1F34F110124A9F800101A70047004F03AFF04466148DFF8B4E10278604902F0FE0202702A785E4802F0FB022A709AF80030022203F090
:4046C000FB038AF800308EF80020086001F076FF204604F021FF009B002B40F0D180B9F8001089B2FF2900F28481C9B2C9E00B8837209BB2FF2B94BFD9B2FF2101F06AFAE2
:404700000DE69CF800305B073FF5A7AE484B1C70B3E6484B5B78002B3FF42FAF04F0F8FE454B00271C781F70E4B204F0F5FE002C40F0618104F0ECFE404A13781470DCB2F9
:4047400004F0EAFE44B13E4E3368002B00F0F685384A1A20117998473A4C2378032B3FF60CAFDFE813F09D037703F5018901FF219AE62C4C18482378184903F0FE032370E8
:40478000037803F0FB0303700B7803F0FB030B7014F8093C14461D0611D52B480E4903780E4A03F0FE0303700B7844F0040403F0FD030B701378E4B203F0FD03137004F0BB
:4047C000A7FE074A13782343DBB2137004F0A4FE1BE500BF004F0040A3430040B34300407C81FF1FDE80FF1F9881FF1FE1360020D036002061590000786400406464004079
:40480000004E00406B650040DC80FF1FE2360020D080FF1FAC81FF1FB7600BB6D3360020D2360020184F004034370020A0860100466500400C380020FE370020FD370020F5
:4048400014380020183800200C4F0040E0360020C880FF1FCE36002030370020A44AA5481378A54903F0FE0313700378032203F0F70303700B78012403F0F7030B70B7E404
:404880001946362001F0A6F9002333703B708BF8003032E5994BDFF8A8920493DFF8A482A3E6944A944B1078954940F0020010701878944E40F002001870087840F00100B4
:4048C00008703078087800F0FE000870117801F0FD0111701A7802F0FD021A70337804F017FE8949894E0B780022DBB2012B0A70326000F0B980022B00F01B85032B02D1FE
:40490000834B01221A7004F007FE0221462001F061F9AEE4DFF8DCA1DFF8DC919AF80030DFF8248243F004038AF8003099F80030784A43F0040389F8003098F80030764FE7
:4049400043F0010388F80030137898F8003003F0FE0388F800309AF8003003F0FB038AF8003099F8003003F0FB0389F80030137804F0CEFD3E78694AF6B20023012E3B7041
:40498000136074D0022E00F0CB8404F0C5FD032E04D1634B1B78002B40F0FE840121462001F018F962E4534A534B1078504940F00800107018785B4E40F00800187008789A
:4049C00040F0010008703078087800F0FE000870117801F0F70111701A7802F0F7021A70337863780BB10123A370462003F0A4FF39E4FF2145E74C4B1C79032C00F21685C0
:404A00004A4BDFF848811D4618E081B2FF2927D8B24280F0F583234405EB83031B693046984704EB44020134E4B208EB8203042C08F822605F601F7200F0E883A300191950
:404A400005EB81014A7B897B8818561A8A421FFA80FEF6B2D9D8BEF1FF0F40F2D1830026964238BF1646D6E7314A13704BE7314B1E7004F051FD91E72B4B1E7904F048FDA4
:404A80002D4B1A7A002A00F0F4840025DF681D7204F042FD238BE562A760284A002B40F0E084224AB1008B1902EB83039B680492DB1B002B226AB8BF5B429342DFF87CE067
:404AC00080F2B68487EAE773A3EBE773B3F5802F00F3AE849EF825303A4619469EF826008EF82A3004F0A0FB002840F09B8344E5244F0040A3430040B3430040615900007E
:404B00000C4F00400F4F0040D4360020D8360020DD3600201B4F00403037002034370020FC370020274F00400C380020E49D00008081FF1FE43600209881FF1F1838002007
:404B4000C880FF1FE0360020184F0040C4370020B74B1B791E4604F0DBFCB64B1A7A02F0FF05002A00F00384B1000D46B24A002701960891DE6804921F7204F0CDFC019BC9
:404B8000AD4AEB1802EB83039B68AC489B1B83FB0001002871F10003E762A660C0F2B88610F1FF5041F100014FF07F52002304F0EBFC06909E4B1879002800F09E86A04BC8
:404BC00041F28732194601EB40100769062187EAE770A0EBE77000930023C1FB00231046194641F28832002304F0CEFC002840F3808601288246B8BF4FF0010A06990B46D2
:404C00000A460029B8BF4B428342D8BF00225345079240F3C384CAEB0303013B93FBFAFA00290AF1010AC0F2EF84089B019A9A18814B03EB8202517B937B94F82A20994248
:404C4000049240F2AF84C3EB01095FFA89F9C8460B449AB2FF2A94BFDBB2FF230993002F40F0A5843A463B460199049849010591404508DBDDF824808045C0F2D483804622
:404C80005FFA80F90123049A511C414502F1FF3280F253845FFA81F96BB167B1079951B16268684B0A449A42B8BF1A46664B9342A8BF13466360059A009B1344B3F8148000
:404CC00094F8273008F1FF32B2F5805F28BF4FF480585E4A1BB11369534500F0F6850123E382A38A012213449BB206999342E160C4F810A084F82890A38284F8272002D0A0
:404D000013F0FF0F6FD1524E3368002B00F0EA85049913209847A3681D463368290E002B00F0E0851D2098473368C5F30741002B00F0D8851D2098473368C5F30721002BFD
:404D400000F0D0851D2098473368E9B2002B00F0C9851D209847069D3368290E002B00F0C185412098473368C5F30741002B00F0B985412098473368C5F30721002B00F037
:404D8000B185412098473368E9B2002B00F0AA854120984733684FEA1A61002B00F0A285422098473368CAF30741002B00F09A85422098473368CAF30721002B00F092851E
:404DC0004220984733685FFA8AF1002B00F08A8542209847E38A3268FF2B00F2AC83D9B20AB143209047019A089B84F82A901344114A484602EB83052B699847E28A134B60
:404E00004245C0F08283BAF1000F40F07B839B68002BB8BF5B42B3F5802F00F37383012004F0C6FA002840F0FD81FFF7A6BB00BF0C3800209881FF1FE49D000078741300F0
:404E40007CA2000000EE85FF00127A00183800201438002004F05CFB0F4B1A7A02F0FF05002A00F084820025DE681D7204F054FB238BE562A660094A002B40F0A2830023BD
:404E800002226360A382E38284F82730E36023612270FFF772BB00BF9881FF1F18380020B04BB14E93F804903368002B00F05982AE4A4946154615204FEA890A04929847CA
:404EC0000AEB090305EB8303D3F8088037684FEA1861A7B12A20B8473768C8F3074177B12A20B8473768C8F3072147B12A20B84737685FFA88F117B12A20B8473768994B1B
:404F00001979002900F06983994B41F28732184600EB4111D1F81080009388EAE8700621A0EBE8700023C1FB00231046194641F28832002304F028FB424683464FEA1861CE
:404F4000BBF1000F019208BF4FF0010B002F00F03F833F20B847019A3768C2F30741002F00F089843F20B8477F4B019A1F68C2F30721002F00F02C833F20B8477A4B5FFABE
:404F800088F11A68002A00F076843F209047764BBBF1FF0F1F6800F3FF825FFA8BF10FB14020B847009B734A03EB4913D98A6D4B12781B7900209A4221836060A082E08283
:404FC00084F82700E060206184F82800A060E062E061206284F8240084F8250084F8260000F2BC82049A03EB830302EB8303597B9A7B914201EB020340F2AB829FB28A1A0B
:40500000FF2FD0B200F2A1828142DBB203D3994228BF19460846049BD14403EB890584F8290084F82A002F69B84702F0D9FF524A29791578FF2D2CD0A94253D00123AB402A
:40504000042DDBB223D8DFF844C19CF8000003421DD0DFF86CE120EA03035EF825E047488CF800309EF8003010F805C0444823EA0C03405D434D8EF800302B5C013BDBB295
:405080002B5423B94048037823F008030370FF231370FF2926D001238B400429DBB220D83A4D287803421CD1DFF814E103435EF821E032482B709EF80050435C30482B435B
:4050C000455C30488EF80030435D43B9DFF8B8E09EF8003043F008038EF80030435D0133435511702A4A1378002B00F0818133681D4D33B1192098472B6813B10421442032
:40510000984702F0EBFF94F82A00B8472149224B224E1A780B78002A23F0030314BF032201221F481F4D43F0180313431E4A0B703370056013781D4D43F0100313702E787F
:405140002B781B491B4F03F0FE033F202B704FF40072087018493870184804F0DDFBF6B200212FE00C38002014380020E49D00007CA20000F4370020E280FF1F3C9E000082
:40518000349E0000F8370020005B0040F537002008380020C780FF1F7B81FF1F7B640040C880FF1FD55A0000A643004080C7004088C700408CC700407C9E000000C0004068
:4051C000449E0000B34B3970F822F1071A7003D52B7843F001032B7004F09AF9AE4B00221A7204F099F9AD4A137843F001031370238B002B14BF012302232370FFF7BDB959
:40520000C0B2824228BF0246164604E4A44B1979A44BA3481B680022C2700BB11B20984703F0A2FE9E4BA04ADC78A04B211C18BF0121002511701D708BF8005001F0C8FB28
:405240009B4B9C4901220D701A7003F0DBFA2146112000F0BFFC984B1A78002A3FF48DA9964A84F077071278AB26C220B5211D708DF83B408DF83C708DF838608DF83900A8
:405280008DF83A10002A3FF478A98D4F8D4DDFF86892DFF868C2DFF868B20EAE0DF13D084FF0020A16F8014B39782A780846D2B202F1FF3E8B1AC1EB0E0EA3F17F03BEFAF4
:4052C0008EFEB3FA83F34FEA5E1E5B098A4288BF7346002BE9D18A4212D00B0659BF4B1CDBB20123002009F800403B709CF800309A0748BFCBF800A0B045D3D1FFF73DB9E6
:405300009CF800305A07E8D46F4B1C70F4E76F4B1B78002B7EF4D4AF00F0ECFDFEF7D0BF6449634A01260E70137004F0F5F8FFF735BB674B01221A70FFF7E5BA654C237818
:40534000032B3FF61AA901A252F823F05D530000554E0000514B0000794A0000504B93F804905D4B002704934FEA890AC7E504F0D3F8E36A594A01339342E36255497FF6AD
:40538000FCA88A68284691F82A1003F04DFF00287FF448AFFFF7F1B8514A0121514B11701B68019304F0B4F8019B0090642202FB03F398F80020002B02F0FE0288F8002013
:4053C0009AF8002008BF012302F0FB028AF8002099F8002002F0FB0289F80020424A3E70136001F0EBF8009804F096F8FFF7D6BA3E480378DD0613D443F010033C4D037010
:405400002B783C4863F07F032B70037833B995F8E33943F0080385F8E3390378013303700123137063E61346C1462CE42146EFE6049B0E4403EB86052B6994F824009847A3
:4054400094F82450E36929461A4694F8260084F82A50A36003F0E8FE00287FF4E3AEFFF78CB8013B9BB21383002B7FF486A8FFF718BB04F051F8E36A184A01339342E36239
:40548000144C7FF67AA8144B06EB860603EB86031B69D2E784C700409881FF1F004E00400C38002014380020D1360020E3360020D3360020D2360020E53600203A370020C8
:4054C0003B3700203C37002046650040D03600208381FF1F18380020E49D00007F841E00FD3700200038002034370020F53700201D510040F8370020403700206565004021
:4055000000E200E0002F00F0D581059A009BA18A13441A8BB84B9142FFF42FA8BAF1000F11D198680028B8BF4042B0F5802FCCBF0020012074E4FF2152E44245C8BF5FFA41
:4055400082F9FFF7A9BB00206AE4884238BF084661E59AB2FF2AF8D8DBB258E5049A03EB830102EB81014A7B897BA44F03EB43038A4217F8237002EB010340D9521A99B2E6
:40558000FF29D0B237D88742DBB2FFF444AD9F42384628BF18463EE5FF2100E54FF0000AFFF743BB4FF00008C146FFF751BB079B73BB01996360490104981A460591FFF7A0
:4055C00057BB013B9BB21383002B7EF4D6AF56E4BBF1FF0F7FF7E1ACE4E4894B1B78013BDBB2072B40F24E8108460A468846854B83460093A4E4B84238BF38460BE59AB26B
:40560000FF2AF8D8DBB2C2E7CAF1000AFFF70DBB019B00985B0119460593C3185A680B464158002A00F022811546D617CDE90A560798002F80FB010105460E46A8BFBE463A
:40564000CDE90256029D4FEA81064FEA850046EA9571B4BF4FF0FF3301234FEA40120C934FEA4113B8BFC7F1000E43EAD063121A63EB0103DDE90201801859410E467146E9
:40568000CA17F10041EA5071C300DDE90A560EFB06F0029305FB0200AEFB05230344039152EA030100F0DD80002A73F10001C0F2CB8059104FEA32000026039DB6EBD57F59
:4056C000DDE9025600F0B9802D1A66EB01062846314603F059FF0C99059A009B00FB01F11344DA680D9198686168002A00F0A0801546D617CDE90A5681FB000105460E4614
:40570000002FA8BFBE46CDE90256029D4FEA81064FEA850046EA9571B4BF4FF0FF3301234FEA40120C934FEA4113B8BFC7F1000E43EAD063121A63EB0103DDE90201801833
:4057400059410E467146CA17F10041EA5071C300DDE90A560EFB06F0029305FB0200AEFB05230344039152EA03015CD0002A73F100014BDB59104FEA32000026039DB6EB3F
:40578000D57FDDE902562FD02D1A66EB01062846314603F0F9FE0D9A0C9B019900FB0323089A94F829000A44174901EB820292F90C2002FB030082B1079B002BD5BF002120
:4057C000012101230023002A02DB1A460B461146002F05DB0A46FFF74BBA1346FFF748BA1A460B46FFF744BA2D184E412846314603F0CAFECFE700BF18380020C43700206D
:40580000E380FF1F7CA20000E49D0000DE0F901943F1000149104FEA300040424FF0010661EB4101AAE71046194601220023A4E701220023CDE90A235EE72D184E4128469E
:40584000314603F0A1FE46E7DE0F901943F1000149104FEA300040424FF0010661EB41012BE7104619460122002325E701220023CDE90A23DCE6BBF1FF0F3FF793AB0027B6
:40588000FFF78BBB41F28730324A002132F813800623C8F57A7888EAE872A2EBE872C3FB020141F28832002303F06EFE42464FEA18619CE63846A26894F82A1003F0B4FC00
:4058C00000287FF4AFACFEF758BE049B4B457FF406AA4FF6FF71D38A8B421CBF0133D382FFF7FFB9E38AFF2B3FF67DAA0022FFF776BA01208246FFF781B9174B1B78013BDF
:40590000DBB2072B10D90746144B0093FFF76EB9B0F1FF5041F1FF314FF07F52002303F033FE0690FFF746B941F28730094A002132F813700623C7F57A7787EAE772A2EBF7
:40594000E772C3FB020141F28832002303F01CFEDAE700BFFCA20000E380FF1F7CA20000704700BF294A1378DBB213F0980F2AD0274918062DE9F0410B7027D4DA0613D47C
:405980001B0701D4BDE8F081224C23689847224A224B22601A78012A04BF02221A70204B01221A70BDE8F0811E4B1F4C1B7819491948DBB2194A237008601378022BEED0C0
:4059C00002231370EBE7134B1B681847174D184C2878184E40F008000127377020702878104D207012781048D2B20A702A781249D2B202700A781149D2B213F0180F0A7024
:405A0000BCD1BDE8F041034B1B6818476B650040DC80FF1FC880FF1F6159000039370020D036002060640040E1360020E0360020786400408181FF1F64640040E236002086
:405A4000F0B40E480E4C23680268934214D20D4EDD1C316821F07F4201313160D7B2C2F30721120C1F7059709A70256003689D4202D3054B01221A70F0BC7047D880FF1F40
:405A8000D080FF1F9081FF1FD03600200D490E4A0B681068834213D230B40C48DD1C0478E4B21C704478E4B25C708078C0B298700D6013689D4202D3054B01221A7030BCFC
:405AC000704700BFD080FF1FD880FF1F7481FF1FD03600200C490A7848788B781B0443EA002313431A02094A48BF43F07F431278012A03D1002BB8BF1F335B110448054AC5
:405B000001210360117070477881FF1FDE80FF1FA481FF1FA081FF1F10B4144914480A784C788B7801781B0443EA0423022943EA020310D01A0248BF43F07F430278012AE7
:405B400003D1002BB8BF1F335B110A4A01211360117110BC7047C3F3110299034ABF6FEA823313466FEA9333E8E700BF7481FF1FDE80FF1FB03500201148124902680B883C
:405B80009BB2C3B9104B19688A4213D230B40F49D51C0C78E4B214704C78E4B254708978C9B2917005601B689D4202D3084B01221A7030BC70470B88013B9BB20B8070478C
:405BC000D080FF1F9481FF1FD880FF1F7881FF1FD03600202DE9F04F2E4A2F4B12781C78D2B282F0C4034B4083B04340AB26C4258DF802008DF803108DF804208DF80530B2
:405C00008DF800608DF80150002C38D06E46DFF894E0224DDFF89090DFF890C0DFF890B00DF106084FF0020A16F8014B9EF800102A780846D2B2571E8B1A7F1AA3F17F033E
:405C4000B7FA87F7B3FA83F37F095B098A4288BF3B46002BECD18A4214D00A0659BF0131C9B20121002009F800408EF800109CF800309B0748BFCBF800A04645D4D103B019
:405C8000BDE8F08F9CF800305F07E6D4044B1C70F3E700BF393700203A3700203C370020466500403B370020403700206565004000E200E00A4B1968C1F308010F290AD926
:405CC0001039C9B21F2903D80123064A8B4013607E20FFF77FBFFF217E20FFF77BBF00BF04ED00E080E100E008B57F2002F024FE084C2378084803F0FD03237003F000FC56
:405D00002378054803F0FD0343F00203237003F0F7FBEEE72051004000F91500F8B5514B1E88731EB3F5007F57D34F4E4F4B00251D7003F0EDFB4E494E4C0B784E4A03F070
:405D4000FE030B7023784D4903F0FE032370137803F0FE0313700E600B68002B2DD04EF66024A34233D80D609BB2414A414D1178414C01F0FE0111702978414E01F0FE01B2
:405D80002970217805F6633501F0FE013D4F217033802B803C493C780B7874B3354C36492378334A43F0010323700B7843F001030B70137843F00103137003F0ADFB334A5C
:405DC000334B022111701A68324B1A60F8BDA3F56A42603A0A602346C7E747F2305303FB06F32D4E6422A6FB03135E0A06F2DC5606EB932302FB03F698E71378DFF8A0C019
:405E000003F0010313709CF800E0244B0EF0FC0E8CF800E092F800C0DFF888E04CF0040C82F800C01A784FF0FF0C02F0CF021A701A7842F030021A701A7802F0F0021A70E1
:405E40001A7842F00F021A709EF80030012213438EF80030A6F800C0A5F800C00C703A709CE700BF8C81FF1FFCC02400A881FF1F004F0040A3430040B34300409C81FF1F33
:405E8000044F00407F81FF1F034F004039370020CC80FF1FC880FF1F818080800B4F0040024F0040014F004010B50D4C03F030FB23780C4903F0FE0323700B780A4A03F006
:405EC000FB030B701378094903F0FB031370084AE37800230B601370BDE8104003F01CBB184F0040A3430040B34300403437002030370020F8B54E4B1E88731EB3F5007FA2
:405F000051D34C4E4C4B00251D7003F001FB4B494B4C0B784B4A03F0FE030B7023784A4903F0FE032370137803F0FE0313700E600B68002B2DD04EF66024A3422DD80D60DA
:405F40009BB23E4A3E4D11783E4C01F0FE01117029783E4E01F0FE012970217805F6633501F0FE013A4F217033802B8039493C780B7844B3324C33492378304A43F00103FD
:405F800023700B7843F001030B70137843F001031370BDE8F84003F0BFBAA3F56A42603A0A602346CDE747F2305303FB06F32A4E6422A6FB03135E0A06F2DC5606EB932385
:405FC00002FB03F69EE71378DFF894C003F0010313709CF800E0214B0EF0FC0E8CF800E092F800C0DFF87CE04CF0040C82F800C01A784FF0FF0C02F0CF021A701A7842F0BA
:4060000030021A701A7802F0F0021A701A7842F00F021A709EF80030012213438EF80030A6F800C0A5F800C00C703A70A2E700BF8C81FF1FFCC02400A881FF1F004F004046
:40604000A3430040B34300409C81FF1F044F00407F81FF1F034F0040818080800B4F0040024F0040014F00402DE9F04FDFF840A383B0BAF8005007466C1EA4B2B4F5007FF1
:4060800080F083805A2606FB05F30093230A5FFA84FB01939B4ADFF804931378DFF8148303F0FE03137003F033FA974A97491378974C03F0FE03137099F80030954A03F0AC
:4060C000F70389F8003098F80030002603F0F70388F800300B78167003F01EFA2278022A00F0F5808C4B8D4A4FF00008DFF8C89282F8008083F8008099F80030032B00F039
:40610000C9808749874A884B4FF0000881F8008082F80080A3F8008003F0FAF9834B009AB7EB08071A441646DFF890928049814A18BF012789F80070A1F80080A2F80080E4
:406140007D497E4A81F8008082F800807C497D4AA1F80080C2F800807B497C4AA1F8008013607B497B4B02220E601A7003F0D4F9794B1A7899F80030D2B283B9002A00F052
:4061800083804FF0010842460AE0012301934FF434434FF0FF0B00934FF400757AE703226E49002381F800806D496E486E4F6F4E3B7090F800E081F800B037786C4B47F004
:4061C00020071F703778032A1F709DF804400C70347844F080041C7034781C7081F800E0037823F0030343F0180343EA020303700B704DD05F4B6049013A012A8CBF1A4625
:406200000A465E4933780A600968594C5C4A23F0100343F040031160337023703378594A43F00803237033785749237013786FF48570DBB20B70024413785449DBB20B70F5
:406240001379534ADBB21370FFF754FE337843F00203237033782370BAF80030B3F5007F03D9FF213E20FFF7B5FCFF2D94BFE9B2FF213520FFF7AEFC224A137843F0010382
:40628000137003B0BDE8F08F344901230B708BE7404AB6E703F03CF93F4A40491378A2F6593203F0FE0382F8593B0B7803F0FD030B70137803F0FD031370394B91F86C2B4F
:4062C000C3F8008089F8008003F026F919E703F01FF93449344B0A7802F0FE020A7099F80020324902F0FB0289F8002098F8002002F0FB0288F800201A780E60267003F0D7
:406300000BF9EFE6004E0040244F0040274F0040303700209A81FF1FD3360020D2360020DC360020DD360020DE360020AC81FF1FCC360020CE360020D0360020A881FF1FE5
:406340009481FF1F9081FF1FAC350020D080FF1FD880FF1F393700208E81FF1FD480FF1F7B640040C780FF1FD580FF1FE0360020786400408D5A0000795B0000CC80FF1F39
:40638000C880FF1F6B650040DC80FF1FE1360020E2360020415A00000C4F0040A3430040D8360020184F00401B4F0040343700208C81FF1FB3430040D43600207B81FF1F73
:4063C000F8B503F0A5F8314A0021314B11701A78304902F0FE021A700A782F4C02F0F7020A7022782D4F2E4E4FF47A7102F0F7022C4D2270398031802C782B490A7894BBD5
:4064000040F2E73E1A78DFF8A8C002F001021A709CF8002002F0FC028CF8002093F800C0224A4CF0040C83F800C01378DFF884C003F0CF031370137843F030031370137842
:4064400003F0F0031370137843F00F0313709CF80030012213438CF80030A7F800E0A6F800E00C702A700B4C0B492378084A43F0080323700B7843F008030B70137843F0F9
:4064800001031370BDE8F84003F046B89A81FF1F244F0040A3430040B3430040284F00402A4F00407D81FF1F274F00402F4F0040264F0040254F004036490B68002B30D0B9
:4064C0004EF660208342F0B52CD800229BB20A60314C32482278324902F0FE0222700278304D02F0FD0202700A7800F66F3002F0FD022D4E0A702B8003802C4A31781378D2
:40650000B1B1264826490378234A43F0020303700B7843F002030B70137843F001031370F0BD7047A3F56A42603A0A600346CFE72378DFF884E003F0010323709EF80070FD
:406540001B4B07F0FC078EF8007094F800E0194F4EF0040E84F800E01C784FF0FF0E04F0CF041C701C7844F030041C701C7804F0F0041C701C7844F00F041C703B78012443
:4065800023433B70A5F800E0A0F800E011703470B7E700BFD83600200C4F0040A3430040B3430040104F00407E81FF1F0F4F0040174F00400D4F00400E4F004036490B6803
:4065C000002B30D04EF660208342F0B52CD800229BB20A60314C32482278324902F0FE0222700278304D02F0FB0202700A7800F67B3002F0FB022D4E0A702B8003802C4AD2
:4066000031781378B1B1264826490378234A43F0040303700B7843F004030B70137843F001031370F0BD7047A3F56A42603A0A600346CFE72378DFF884E003F001032370CA
:406640009EF800701B4B07F0FC078EF8007094F800E0194F4EF0040E84F800E01C784FF0FF0E04F0CF041C701C7844F030041C701C7804F0F0041C701C7844F00F041C7014
:406680003B78012423433B70A5F800E0A0F800E011703470B7E700BF34370020184F0040A3430040B34300401C4F0040383700201B4F0040234F0040194F00401A4F004005
:4066C0002DE9F041044602F023FFA14B19781A780C4004F00F0122EA01021A7002F01CFFE0076AD4A10743D462071CD4230701D4BDE8F081974898490378984A03F0FE038D
:4067000003700B7803F0FE030B701378944903F0FE031370C3780B68002B69D1914B01221A70BDE8F08190488B4903788B4A03F0FE0303700B7803F0FD030B7013788B49B0
:4067400003F0FD031370C3780B68002B40F0AE80874A1378DBB2012B47D01378022B00F0AC801378032B00F0B38000231370BDE7804879490378794A03F0FE0303700B7894
:406780007D4D03F0FB030B70137803F0FB031370C3782968002940F08680784B1A78D2B2012A00F086801A78022A00F08A801A78D2B2032A54D0197096E771486649037877
:4067C000664A03F0FE0303700B7803F0F7030B7013786C4903F0F7031370C3780B78002B80D0694B01221A707CE768490B70BCE70B68002B3FF47CAF4EF6602083426BD952
:40680000A3F56A420346603A0A60524C52482278524902F0FE02227002785D4D02F0FE0202700A7800F6633002F0FE02594E0A702B800380584A31781378002950D0464855
:4068400046490378434A43F0010303700B7843F001030B70137843F001031370BDE8F0814E4819700678002E3FF43EAFDFF858C14FF0010E4A4E4B4F8CF800E0D6F800803A
:40688000D7F800C0E0455CD9D7F800E030686421CEEB000030601A703B6801FB03F3002B08BF01232B60FFF789FE1DE7FFF704FE1CE73D480270197016E73C4B01211970EF
:4068C00053E73B483B4A01250570117019700BE7394B0121197048E700229BB20A6094E72378DFF8E8E003F0010323709EF80070324B07F0FC078EF8007094F800E0304FEB
:406900004EF0040E84F800E01C784FF0FF0E04F0CF041C701C7844F030041C701C7804F0F0041C701C7844F00F041C703B78012423433B70A5F800E0A0F800E0117034707E
:406940007DE7204B316083F800E00170CCE600BF7C81FF1F004F0040A3430040B34300409C81FF1FA881FF1F0C4F0040D8360020D4360020184F0040343700203037002046
:40698000244F00409981FF1F9A81FF1F8081FF1F044F00407F81FF1F034F0040FC3700200438002000380020E43600208381FF1FD2360020D3360020DD3600200B4F0040D0
:4069C000014F0040FE370020FD370020024F004070B5554A5549137803F0FE0313700B78002B79D1524B1D786C1EE3B2032B6ED8504B1B78002B66D04F4B1D7001F0F0FA1B
:406A0000284601F06FF84D4B4D4903EB840290784C4A087033F8243013804B4A137803F0FC0343F00303137001F058FB3E4A137803F0FE03137001F0D3FA44480378FF2B3B
:406A400047D0032B34D0042B414943D801249C400A78E4B2144219D03E4D22EA040255F823603D4C0A70E55C32783C4C22EA0502E45C3B4D32702B5D013BDBB22B554BBB6A
:406A8000384A137823F0080313700A7813070DD442F00802344C0A702378314A63F07F0323701378002B38D001331370032303702E4B1A78BAB901F011FB1B4A137803F08B
:406AC000FE03137070BD2A4B01221A7094E701BEA3E71F490A78D9E7164B00241B780125002B89D1EFE71A490A78D00612D522F0100220480A700278194902F07F02027053
:406B00000A78013AD2B20A7022B916490A7822F008020A7000221A70CDE712490B7843F008030B701378BFE7004E0040E3360020DD80FF1F1C370020DE80FF1F2037002078
:406B40000E4E00400C4E0040144E0040E280FF1FF5370020449E00003C9E0000349E0000F8370020005B00403D510040083800201D3700201D5100402DE9F04F2B4B83B0AB
:406B80001B78AB25C324FC2003213C228DF800508DF801408DF802008DF803108DF80420002B38D06E46DFF890E0214DDFF88C90DFF88CC0DFF88CB00DF105084FF0020A6F
:406BC00016F8014B9EF800102A780846D2B2571E8B1A7F1AA3F17F03B7FA87F7B3FA83F37F095B098A4288BF3B46002BECD18A4214D00A0659BF0131C9B20121002009F8D6
:406C000000408EF800109CF800309B0748BFCBF800A04645D4D103B0BDE8F08F9CF800305F07E6D4034B1C70F3E700BF3A3700203C370020466500403B3700204037002018
:406C40006565004000E200E02DE9F04FDFF8008100243E4BA8F80040A8F8024088F804401B7889B0022B039088F8054000F07084002488F8064088F8074098F80830344D39
:406C8000032B00F0828498F81410324B01F0AF01002288F8102041F0080488F81120A8F812202D4A19701C70197013782B4FDBB26FF485753B702A441378294EDBB288F820
:406CC000153013793078DBB2012288F8141088F8163088F8172008B9224B1A70224B0124224D1C7001F07CF9204600F0FBFEA9781F4A204B117029881980937903F0FC0392
:406D000043F00303937101F0E9F91B4A2046137803F0FE03137001F00FFE102001F00CFE164B93F80190B9F1000F29D0002488F81740FFF74DFE112001F0FEFD039B002BFC
:406D400040F06E82184609B0BDE8F08F30370020CC360020786400406B650040DC80FF1F1C3700201D370020DE80FF1F203700200E4E00400C4E0040004E00400C38002067
:406D800001F02EF998F817303BB97C7804F1FF395FFA89F3032B00F241823378002B00F03982864B1C7001F01BF9204600F09AFE05EB89039978824A824B117035F8292029
:406DC0001A80814A137803F0FC0343F00303137001F084F97D4A137803F0FE03137001F0FFF87B4B1B78002B00F0058279490A78002A38BF0022012B8DF8182040F2FF81B9
:406E00000A7B002A38BF0022022B8DF8192040F2FC810A7E6F49002A38BF0022032B8DF81A2040F2F58191F82430002B38BF00238DF81B30684B1A6822B1002101209047C5
:406E4000654B1A686349654B08460591042104931F460B4682466248002401905C4800940170012102919DF800105E4E9942DFF8A0917B7BC0F0A781B87B834203EB000EB3
:406E800040F28D821FFA8EFC181ABCF1FF0FC5B200F28A82AB4280F01182F2B1152090474D4BD7F808B01B684FEA1B61ABB12A209847494B1B6883B1CBF307412A20984797
:406EC000454BCBF307211B683BB12A209847424BE1B21B680BB12A20984701F081F8424B1A783B79FF2A2AD093424CD0042A23D83E48012191400478C9B221421CD0DFF8EC
:406F0000FCE024EA0101DFF8F8C05EF82240017020781CF802E0364920EA0E0E895C354884F800E0425C013AD2B2425422B932490A7822F008020A702B49FF220A70FF2B22
:406F400021D0042B1DD8294801229A400178D2B20A4216D1294C0A4354F82340284902702078CA5C22490243C95C22482270425C2AB9214C227842F008022270425C013254
:406F80004254194A13701F4B1B78002B40F0CE8101F0A4F83B69284698471B4802F0B0FA0A4B4EF660241A7802F0FE021A701978164A41F00101197034E000BFDE80FF1F0A
:406FC0000E4E00400C4E0040144E0040004E0040F4370020C437002014380020E49D00007CA2000016370020E280FF1FF5370020349E0000F8370020005B0040449E0000E3
:407000003C9E00000838002080FC0A001E370020014E00401378013CDBB2A4B26BB9002C00F059813378002BF4D199F80030013C03F00103A4B2002BF1D0AA4B1B7803F07A
:407040000303012B40F24282022B00F04782A64BA64A1B8812889BB243EA0243327812B1A34A00211170A3491C460A7802F0FE020A70A14A1278012A03D1002BB8BF1F3385
:407080005C11BB689D481B1B83FB0001002871F10003C0F2708110F1FF5041F100014FF07F52002302F070FA8346009B002B00F0598141F28730019B06221B690021002B8D
:4070C000B8BF5B42C2FB030141F28832002302F05BFA002808BF0120BBF1000FB8BFCBF1000B834500F3F48084EAE47BABEBE47BBBF5802FCCBF4FF0000B4FF0010B804B20
:407100008AF800501B68CAF804408AF808B033B12946132098477A4BDAF804401B68B4F5004F80F2D18014F5004F80F26A83754C802153B314209847714BE1B21B6823B362
:40714000142098476E4BDAF804401B68EBB1210E1D2098476A4BC4F307411B68ABB11D209847674B1B6883B1C4F307211D209847634BE1B21B6843B11D209847604B1B68AE
:407180001BB19AF8081016209847029ABBF1000F08BF0022009B0292019A01332032042B009307F114070AF10C0A019200F00081534B9DF800101A68534BBC681B789942D5
:4071C0007B7BBFF459AEBD7B9AF800E0AB4203EB050040F2DB801FFA80FC5B1BBCF1FF0FDDB200F2D880AE45FFF457AEC5B2754528BF754651E69C2244498DF818209C226E
:40720000022B8DF819203FF604AE9C238DF81A309C230DE63E4B01221A70C2E501BED0E53C4BAB251B78C220B52177228DF81B408DF818508DF819008DF81A108DF81C20D5
