:400000000080002011000000ED250000ED250000144A80B5144B1268144F1A60F7B1144E002556F80C4C56F8080C56F8102C234638B1043A52F8041F43F8041B191B814293
:40004000F8D156F8040C1A4620B142F8045BD11A8842FAD1013F06F11006E2D104F01AFF00F036F8FA460040BC76004001000000BC50000010B5054C237833B9044B13B135
:400080000448AFF300800123237010BD3081FF1F00000000F04E0000084B10B51BB108490848AFF300800848036803B910BD074B002BFBD0BDE81040184700BF00000000FB
:4000C0003481FF1FF04E0000C080FF1F000000002DE9804887B062B6AC4C2178002901F05F8104F0C9FEAA49AA4D0B78AA4A43F020030B702B786FF4807E012643F010037B
:400100002B70714416600B78A44F43F010030B700225A1F503513D60363915600B78A04A2B430B7013782B43137004F0A9FE9D4B9D4A30460021136004F0E4FC9B4A637856
:400140001578924A4BB99A4B56701A7802F0FC021A701A7842F003021A70964896490378964A43F0600303700B78A67843F004030B701378854843F004031370002E01F05D
:40018000E9808F4A8F4813788A4943F0080313700378E27843F0080303700B787B4F43F080030B70002A01F0BF80854A85481378804943F0010313700378227943F00103B2
:4001C00003700B78714F43F080030B70002A01F095807B487B490378764A43F0040303700B7843F004030B70137843F08003137002F012FB02F0F8FA6379644943B9724A59
:4002000001201378487103F0CF0343F030031370A3795E4943B96D4A01201378887103F0CF0343F030031370E279584F002A01F023806348634903785E4A43F002030370FD
:400240000B78284643F002030B70137843F08003137002F059FB237A4C4953B95C4B01201A78087202F0FC021A701A7842F003021A70504850490378504A43F060030370A2
:400280000B78607A43F001030B7013783F4943F00103137050B94F4B01201A78487202F0FC021A701A7842F003021A70414842490378424A43F0600303700B78A07A43F091
:4002C00002030B701378314943F00203137050B9414B01201A78887202F0FC021A701A7842F003021A70334833490378334A43F0600303700B7843F008030B70137843F0BD
:4003000008031370354B1B78DF0740F1B187334923F00103324A0B701378324923F00803019113700B78013BDBB20B702BB992F8E83023F0080382F8E830284B27491B7897
:400340009E0712D5284A23F002030B70137803F07F031370019A1378013BDBB2137023B9224A137823F0080313701C4B1B491B785D0748D51E4A23F004030B70137823F009
:4003800040031370019A137834E000BF4C81FF1F996500409865004000E100E080E200E0B2430040054B00004882FF1FC480FF1F5C58004077580040A4430040B4430040E5
:4003C000A9430040B94300407A58004078580040585800405A5800405E5800404C82FF1F185A00405082FF1F1D510040005B00403C510040013BDBB2137023B9B14A137849
:4004000023F008031370B04BAF491B78180712D5AE4A23F008030B70137803F07F031370019A1378013BDBB2137023B9A54A137823F008031370A649A6480B78FF2202701F
:40044000DA0740F1128723F00103A3480B700378A24A23F0100303701378013BDBB213702BB990F8F33823F0100380F8F3389C4E9C4D30782B7820F0200023F00103307018
:400480002B700B7892489F0711D523F00203924903700B7823F001030B701378013BDBB2137023B9904A137823F0100313708F4A8F49137823F020031370FF230B7002F0F8
:4004C0005FFA02F09BF8834B1878032800F2C3867D4B012181401B78C9B219427A4A00F0BC86844D23EA01030295834955F8205013702B78814E0391095C049623EA0103B5
:40050000315C01982B70435C013BDBB2435423B96C490B7823F008030B7013781E0716D4694A43F00803694913700B78744A63F07F030B70019B1B7833B991F8C43943F029
:40054000080381F8C4391378019A01331370614A0323137002F092FA6A49E27A0B786A4803F0FE030B70002A00F051866749684A0B78654843F001030B701378654943F0F7
:4005800001031370227B9C230B70002A00F019865E495F4A0B785C4843F004030B70137801F5BE5143F004031370627B1A319C230B70002A00F0DE855449554A0B78524873
:4005C00043F002030B70137801F5BE5143F002031370A27B19319C230B70002A00F07E854A494B480B784C4E43F008030B7003784A4A9C2143F00803494F037006F13008FF
:4006000011704FF000094FF0010A7A7EB97E8B18551A8A4298B2EDB240F2CB8199B2FF2900F2CB81AA4280F04185FB69284698470C3606F80C5C46F8089C06F804AC4645EC
:4006400007F12007E1D1374B37495B780422012B0A7000F08685334B2A4D00265E7004F00BFC276904F00CFC2B78193703F0FE032B702C4B1F6202F083F902F0FFF92B7828
:400680002A4F03F0FE032B7003F0F0FD3146022004F038FA264A2749136804253D60996425491068E023DFF89CE0244E0B701021CEF800503960066515682148A2F604126D
:4006C00042E000BF005B00404C82FF1F3C5100404382FF1FC680FF1F0D5100404482FF1F0C510040235A0040005A0040205A0040C580FF1F3C4F00004C4F0000504F000026
:400700005082FF1F004E00404C81FF1FA8430040B8430040805B0040E0360020835B0040904F0000103700208037002080E100E008ED00E06149000002E400E0E54B0000A8
:4007400003E400E000E100E09E4E1370CEF8001008229D493A60EE640370CEF800200B78207D9A4A9A4D03F07F030B701560002800F0DA84944A974D1378AA4643F080039E
:40078000137004F079FBD4F8108004F079FB2B78002103F0FD0343F002032B70202004F0B1F9C146DFF850B28B4D637D8B4F002B5CD102F0A5FE04F05FFB3E6904F060FB7F
:4007C000C8EB0603002BC0F2DF803B78002B36D0834F4FF0020807F1040C17F801EB9BF800102A780846D2B202F1FF398B1AC1EB0909A3F17F03B9FA89F9B3FA83F34FEAB3
:4008000059195B098A4288BF4B46002BE9D18A4200F0C6800B065ABF4B1CDBB20123714A8BF8003048BF00206F4B02F800E01B78990744BF6D4BC3F800806745CDD1B14682
:400840009AF8003006F1460803F0FD0343F002038AF800309AF80030604F03F0FD0343F002038AF80030637D002BA2D0604B60495B780022012B0A7000F023845C4A00237A
:40088000537004F0F9FA266904F0FAFA584B19361E6204F0F1FA26694E4F04F0F1FADFF83C9106F5FA7300934FF005083B7803F0FD033B7004F0E0FA266904F0E1FA06F15C
:4008C000080A01E002F01CFE04F0D6FA266904F0D7FACAEB0606002EF4DB3B7803F0FD0343F002033B7004F0C7FAD9F8106004F0C7FA06F1080A01E002F002FE04F0BCFA69
:40090000266904F0BDFACAEB0606002EF4DB08F1FF3818F0FF08C9D1012702F0F1FDA37D2E4E022BF9D0328B738B92B29BB29A42F3D304F0A1FAD6F810A004F0A1FA002F93
:400940005CD0B37D03F0FF0E002B40F02881328B738B92B29BB29A42C0F02181009BC3EB0A03002BC0F21B81B37D002B00F0D681B17D1220774604F0C5F802F0C1FDA37D8E
:40098000164E022BCFD1C8E7C9EB06063B2E7FF661AF9AF8003003F0FD038AF8003004E7114B1B785A073FF535AF124B83F800E043E7FF2840F27A830025954238BF154669
:4009C00033E600BFA94C0000746500402465004080A90300205100409881FF1F4C81FF1FFC4E00009C81FF1F6864004000E200E010370020486400409981FF1FB37D002B10
:400A000040F0CD80328B738B92B29BB29A42C0F0C680AE4BDFF8B4821B78002B00F0BF80AB4B93F80290B9F1000F40F0B88098F80130002B40F0948104F01EFA366904F024
:400A40001FFAD8F82030F61A002EC0F2A880A14B98F802601B784FEA4618B3429E4B434400F26482597E9A7E914201EB020340F27C8298B28A1AFF285FFA82F900F271822F
:400A8000494580F07582914A0023022E53609360D3601361938282F803908CBF40F6B8328E4B8A4998BF33F8162000230B764B76CB61CA8201F064FF01F01EFE884B197833
:400AC000854B0329984498F8043024D8854801228A400078D2B20242DFF808E21BD020EA020202988EF8002050F82100039A90F800C012F801E0049A515C2CEA0E0202704E
:400B00000198425C013AD2B2425422B976490A7822F008020A70032B26D8724901229A400978D2B20A42DFF8BCE11DD10A4302998EF8002051F82300039A90F800E0D25CB3
:400B400004994EEA02020270C95C019ADFF8C0E1525C32B96448027842F0080202701EF801200198013242545D4A137001F086FF5E4B04221A6004F07FF90023637704F0A6
:400B80007FF95B4A137843F001031370594B1B6813B131461E2098474C4A01235370A27D554B002A65D1198B5A8B89B292B291425FD35A6A12B90AF164025A62C2EB0A0246
:400BC000002A3BDB23780AF164026262002B35D0DFF840E1DFF840910EF104081EF8016B9BF800102A780846D2B202F1FF3C8B1AC1EB0C0CA3F17F03BCFA8CFCB3FA83F373
:400C00004FEA5C1C5B09914238BF6346002BE9D1914251D00A06394B54BF013100201E5454BFC9B20121364B8BF800101B789B0744BF0223C9F80030F045CFD1A27D2E4B69
:400C4000022A1CD09A6AD2B1BAEB02023FF465AED96AC3F828A08A4214D32A4A29481278002102F0FD0242F002020270D962196353E6A27D0023022A63621F4BE2D1C3F849
:400C800028A04AE6186B891A0244042AD9621AD99A7D0021022A19633FF43FAE1A4B1A78013B1B7802F0020282F0020203F0FD031343144A137030E6114B1B785B07A9D434
:400CC000124B1E70B8E71A6327E600BF103700206082FF1F80370020904F0000F44E0000C680FF1F4C82FF1F005B004080E200E0004E00404882FF1F4C81FF1F9C81FF1FF9
:400D0000686400402051004021510040486400405082FF1FFC4E000000E200E0974B5E78012E00F0AE80954B00275F7004F0A4F8266904F0A5F8914B1936394610201E6277
:400D400003F0E0FE8E4BDFF8689293F802801E46B8F1000F56D03946112003F0D3FEDCE598F8029004F088F8737F002B78D0316A7777059104F084F8B8F81630C8F81C70A8
:400D80000599002B40F0E9807C4B9A8A5B68013292B2CE18794B1F2A9A825E607FF6FFAE9968DA680E442032597E9E60DA6096FBF2F600225A609A82002900F0FD801A693D
:400DC000B21A002AB8BF5242322A00F3F5806D4AD9781268DFF8AC811AB113209047D8F80020B6F5004F80F25D8116F5004F80F27181DFF8C0818021002A00F02281142031
:400E00009047FBE0604B08221A6001F0B9FD01F0B7FD01F033FE5D4A4746137803F0FE03137001F0ADFD01F067FC594901230422B370337133700A7086F8038086F805804A
:400E400004F01AF8D9F810A004F01AF8032389F81C80C6F870A0C6F874A089F816305CE504F00EF8D8F81C304A4A01339342C8F81C307FF694AE414A0023537003F0F6F931
:400E80008DE6424A137803F0FE03137001F078FD01F032FC404B1978032900F2FC803F4B06FA01F21B78D2B21A421BD023EA02033A48029A037052F8212003981378405C2B
:400EC000049E23EA0003715C01981370435C334A013BDBB2435423B931490B7823F008030B7013781A0716D42C4943F008032D4A0B7013782C4963F07F031370019B1B78A7
:400F000033B992F8C43943F0080382F8C4390B78019A01331370204A0323137001F0AEFD1A4A137803F0FE031370FCE65A7E997E1E4806EB46038A4210F8230002EB010346
:400F400040F2A080521A99B2FF295FFA82F900F295804845FFF497AD97E0084A013BD3821DE6894538BF89468DE59AB2FF2AF8D8DBB28B4228BF0B46994684E510370020B8
:400F80006082FF1F4882FF1F80E100E0004E0040803700207F841E00C680FF1F4C82FF1F005B00403C5100405082FF1FE03600204C81FF1F0080FFFFBB4B01221B7EBA4976
:400FC0001344DBB2072B0E610B764A767FF6E7ADB64BC9781B68DFF8D4821BB113209847D8F80030B6F5004F58DA16F5004F64DADFF80483802123B314209847AB4B5FFA57
:4010000088F11B68DFF8A482DBB114209847D8F80030310EABB11D209847D8F80030C6F3074173B11D209847D8F80030C6F307213BB11D209847D8F80030F1B20BB11D209B
:401040009847994B3246D978484603F0E1F98046954E03F00BF9B8F1000F04D009F1010303F00303B37003F007FF266903F008FF8D4A193600231662537090E5814538BF0B
:40108000814600E59AB2FF2AF8D8DBB2834228BF03469946F7E4864B1B7823E77F2147F6FF78A8E77F2147F6FF78A5E6DBB2934228BF13461D46FFF7B8BAC6F30721B0468F
:4010C00099E77C4A137803F0FE03137003F0CEF8FFF7D4BBC6F30721B0468DE6764BA1F555711A700A701A78A1F5915102F0F3021A701A78023942F004021A701A7801253D
:40110000C2F3810202F19242063292F838218573D2B20A701A7802F0FD021A701A7842F002021A70FFF75CBAFF23136041F8703C03F0A2FE614A137843F01003137003F035
:401140009FFE5F4B1A78100704D55E4A116819780907FBD45C4A0021012311702375FFF709BB544A137803F0FE03137003F07EF8FFF771BA554B6FF4577529441A700A70ED
:401180001A78A1F5905102F0F3021A701A781C3942F004021A701A780125C2F3810202F19242063292F830214573D2B20A701A7802F0FD021A701A7842F002021A70FFF737
:4011C000FBB9434BA1F257311A700A701A78A1F5905102F0F3021A701A781F3942F004021A701A780125C2F3810202F19242063292F828210573D2B20A701A7802F0FD02AD
:401200001A701A7842F002021A70FFF7C1B9314B01251A7081F8212A1A78A1F5FF6102F0F3021A701A7842F004021A701A78C572C2F3810202F19242063292F82021D2B2D6
:401240000A701A7802F0FD021A701A7842F002021A70FFF78BB9164B1B781F4A02921F4A03921F4A0492FFF759B91E4AFFF7FFB81D4B0193FFF761B81C4B1D4E0C211970BD
:4012800033781C4943F02003337008200A7001F03BFB3378012203F0FC0343F003033370FA71FEF7C6BF00BF103700204882FF1F4C82FF1F004E00402C5800409765004053
:4012C0006765004044650040876500402458004028580040205800403C4F00004C4F0000504F00004482FF1F5082FF1F0458004005580040065800400080FFFF394B3A4E9F
:401300000C2119703378394943F0200333700A7001F06AFA3378012203F0FC0343F0030333703A71FEF755BF314B324E0C2119703378314943F0200333700A7001F06CFA11
:401340003378012203F0FC0343F003033370FA70FEF72BBF02F5A252284B18320C2111701978802641F02001197096709178012601F08001C9B29170917886703143917088
:401380001A7802F0F3021A701A7842F00C021A701A7802F0FC0242F003021A70FEF7F1BE174A184F1668184D1848E02337642B700170174815687226164A0670164F174923
:4013C00020201070164E17486F64A2F580720B7006274725022101233770057011702370FEF77FBE08580040095800400A5800400058004001580040025800400D580040FE
:4014000008ED00E07525000000E400E01C82FF1F89650040886500401D25000001E400E029640040396400402DE9F04F0126B346DFF864A2DFF86482DFF8909289B0C9F8AF
:4014400000B09AF8000098F8001001248842924A924B00F0C080107819781B788842127828BF20339B1A8E4ADBB21660002B00F0C1808C49C9F800609AF8002098F8003024
:401480000878D2B2DBB210B99A4200F0AD80531CDBB2202B844828BF0023805C8AF800300A78804CC3B20AB1002222707C4A7F4916600A78052A00F29480DFE802F0826D99
:4014C00063150C037A4A7B48D37003230B70002313700370B3E7764A7648937005230B70002313700370AAE7714C72480022227002700A706278A178E0784A4042409A422F
:401500009DD16D4B1A78002A7FD06378684AC12B03D05178302003F0F5FA684B684A1B783221032B1160637875D0A33B122B86D801A252F823F000BF9D1700003F140000EA
:40154000BB170000CD1800003F1400003F140000A51900004D1A00003F1400003F1400003F1400003F1400003F1400003F140000E91A00003F140000411C0000191D00000E
:40158000D11600004A484B4C837000220323C2700B700270227052E703F15D02444C454DD2B200201E2A2070287005D8454806FA02F7384008BB22B3002323702B700B702E
:4015C0003DE7AB2B7FF43BAF39483A4A00230E700370137033E733490B784BB1304B1E6048E700230B702AE7374B1B78DBB25DE72B4B1C6009B0BDE8F08F022263700A70E6
:401600001DE7042263700A7019E7617821201E7003F078FA79E7A53B1C2B00F27F8501A252F823F0651F0000792000001D2100001D21000079200000792000001D210000A0
:401640001D2100001D2100001D2100001D2100001D210000792000001D21000079200000792000007B1E00001D2100001D2100001D2100001D2100001D2100001D2100001E
:401680001D2100001D2100001D2100001D2100001D2100003F1400004282FF1F1D82FF1F00E100E04082FF1F2082FF1FDD3600208481FF1FDC3600206181FF1F6281FF1F18
:4016C0007881FF1FCC4007404865004080E100E0A84BA84A1B78002B00F0DC851178122003F010FAA44BAB22C2218DF814201B78B5228DF815108DF81620002177228DF840
:4017000017108DF81820002B36D0DFF894C29B4B05AF17F8015B9CF8000019780446C9B201F1FF3E421AC0EB0E0EA2F17F02BEFA8EFEB2FA82F24FEA5E1E5209814288BF94
:401740007246002AE9D1814200F0478501065ABF421CD2B201228A4948BF00248CF80020884A0D551278920702D5874A022111600DF11902BA42CCD17E4B1B78022B3FF486
:401780005EAE824B82491A780B7802F0020282F0020203F0FD0313430B7050E6A378E278312043EA02231BB29AB2FF2A94BFD9B2FF21A28003F0A6F941E600213B2003F068
:4017C000A1F96D4B00931B78002B3FF438AE714FDFF8CCC1694B17F8015B9CF8000019780446C9B201F1FF3E421AC0EB0E0EA2F17F02BEFA8EFEB2FA82F24FEA5E1E520926
:40180000814288BF7246002AE9D1814200F0BD8402065ABF421CD2B20122594948BF00248CF80020574A0D551278900702D5564A02211160584ABA42CDD1009AAB21C320C3
:401840008DF814101278B8218DF815008DF816100B2070218DF817008DF81810002A3FF4EEAD05AF17F8015B9CF8000019780446C9B201F1FF3E421AC0EB0E0EA2F17F02AB
:40188000BEFA8EFEB2FA82F24FEA5E1E5209814288BF7246002AE9D1814200F06D8402065ABF421CD2B20122354948BF00248CF80020344A0D551278900702D5324A022180
:4018C00011600DF119029742CCD1B8E5A378DBB2082B40F26E8531490B78274A83F064018DF817301278AB238DF818108DF81430C221A6238DF815108DF81630002A3FF4ED
:401900003BAFDFF89CC01D4B05AF17F8015B9CF8000019780446C9B201F1FF3E421AC0EB0E0EA2F17F02BEFA8EFEB2FA82F24FEA5E1E5209814288BF7246002AE9D18142D6
:4019400000F0028402065ABF421CD2B201220C4948BF00248CF800200A4A0D551278900702D5094A022111600DF11902BA42CCD102E700BF6281FF1F4C81FF1F9881FF1F95
:401980009C81FF1F6864004000E200E02151004020510040FC4E0000004F0000C480FF1F9981FF1FA378AB20DBB2082B8BBF954B944A1B781370944A8DF81730127883F01D
:4019C0006B038DF81830C221A9238DF814008DF815108DF81630002A3FF4CEAEDFF85CC28A4B05AF17F8015B9CF8000019780446C9B201F1FF3E421AC0EB0E0EA2F17F02DD
:401A0000BEFA8EFEB2FA82F24FEA5E1E5209814288BF7246002AE9D1814200F0A58302065ABF421CD2B20122794948BF00248CF80020784A0D551278900702D5764A0221FB
:401A400011600DF11902BA42CCD195E6A3786E4ADBB283F068018DF817301278AB238DF818108DF81430C221AA238DF815108DF81630002A3FF480AEDFF8C0C1634B05AF88
:401A800017F8015B9CF8000019780446C9B201F1FF3E421AC0EB0E0EA2F17F02BEFA8EFEB2FA82F24FEA5E1E5209884238BF7246002AE9D1884200F04F8302065ABF421C8F
:401AC000D2B20122524948BF00248CF80020514A0D551278900702D54F4A022111600DF11902BA42CCD147E64C4F7B78012B00F0BC8400257D7003F0BFF9494A494B12688C
:401B00000193009203F0BCF9009A019B19323A621A78454F02F0FE021A70009300F030FF00F0ACFF009B1A7802F0FE021A7002F09DFB00F063FD03F09FF93C493C4A3D4B2A
:401B4000E58025720D8015801D703B4BE5601E703D8003F095F9A3883220FF2B94BFD9B2FF2102F0CFFF344B274A1B781278DBB283F073018DF81730AB238DF818108DF871
:401B80001430C221B1238DF815108DF81630002A3FF4F2ADDFF8A4C01C4B05AF17F8015B9CF8000019780446C9B201F1FF3E421AC0EB0E0EA2F17F02BEFA8EFEB2FA82F244
:401BC0004FEA5E1E5209814288BF7246002AE9D1814200F0B18202065ABF421CD2B201220B4948BF00248CF800200A4A0D551278940702D5084A022111600DF11902BA4253
:401C0000CCD1B9E58081FF1F4C81FF1F9881FF1F9C81FF1F6864004000E200E0103700205C81FF1F004E0040DA82FF1F6481FF1F6681FF1FD882FF1F6281FF1F9981FF1FFC
:401C4000A3783A20003318BF01232374217C02F059FF237C002B00F0DB82B14F7B78012B00F00C8400237B70019303F005F9AD49AD4A0D680092193503F002F9009A3D6291
:401C80001178AA4F01F0FE011170009200F078FE00F0F4FE009A117801F0FE011170009202F0E4FA02F09AFD009AA5881178681EB0F5007F01F0FE019D48117002789D4928
:401CC00002F07F0202709C4A4FF010000978106028BF4FF4007503F0CFF8019B97492674974AE38023720B80964913800B803B70E360954B02221A7003F0C2F8FF2D94BF61
:401D0000E9B2FF21352002F0FDFE874A137843F001031370FFF793BB0021392002F0F2FE8A4BAB21C2221B788DF814108DF81520B42177228DF817608DF816108DF81820A3
:401D4000002B36D0DFF818C2814B0DF1140E00941EF8017B9CF8004018782546C0B2411E221A091BA2F17F02B1FA81F1B2FA82F249095209A04288BF0A46002AECD1A0422F
:401D800000F0D28121065ABF621CD2B20122714948BF00258CF800206F4A4F551278920702D56E4A022111600DF119029645CFD1009C5B4F7B78012B00F04F8300257D7081
:401DC00003F05AF8574A584B12680193009203F057F8009A019B19323A621A7802F0FE021A70009300F0CCFD00F048FE009B1A7802F0FE021A70009302F038FA02F0EEFC8F
:401E0000009BA7881A78791EB1F5007F02F0FE0247491A700B78474A03F07F030B70464B4FF010011278196028BF4FF4007703F023F8424A2574E58025721580414A404B1B
:401E40003A491580404A1D8002230D70E560137003F016F8FF2F94BFF9B2FF21352002F051FE314A137843F001031370364B1B78022B7FF486ACFFF7E2BA334B122019785D
:401E800002F040FE314BAB22C2218DF814201B78B5228DF815108DF81620002177228DF817108DF81820002B3FF4C9AADFF8B0C0274B05AF17F8015B9CF800001978044603
:401EC000C9B201F1FF3E421AC0EB0E0EA2F17F02BEFA8EFEB2FA82F24FEA5E1E5209814288BF7246002AE9D1814200F06E8102065ABF421CD2B20122164948BF00248CF811
:401F00000020154A0D551278900702D5134A022111600DF119029742CCD1FFF790BA00BF103700205C81FF1F004E0040D882FF1F746500406765004080E200E06481FF1F77
:401F40006681FF1FDA82FF1F6281FF1F4C81FF1F9881FF1F9C81FF1F6864004000E200E09981FF1F00213B2002F0CCFD9F4B00931B78002B3FF463AA9D4FDFF890C29D4BCF
:401F800017F8015B9CF8000019780446C9B201F1FF3E421AC0EB0E0EA2F17F02BEFA8EFEB2FA82F24FEA5E1E5209814288BF7246002AE9D1814200F0F88002065ABF421CA2
:401FC000D2B201228C4948BF00248CF800208B4A0D551278900702D5894A02211160894ABA42CDD1009AAB21C3208DF814101278B8218DF815008DF816100B2070218DF8B8
:4020000017008DF81810002A3FF419AA05AF17F8015B9CF8000019780446C9B201F1FF3E421AC0EB0E0EA2F17F02BEFA8EFEB2FA82F24FEA5E1E5209814288BF7246002AED
:40204000E9D1814200F0B98002065ABF421CD2B20122694948BF00248CF80020674A0D551278900702D5664A022111600DF11902BA42CCD1FFF7E3B96178122002F042FD44
:4020800063785A4ADBB2127883F0C204AB208DF81630C22100238DF818408DF814008DF815108DF81730002A3FF4C9A9DFF85CC1504B05AF17F8015B9CF8000019780446DD
:4020C000C9B201F1FF3E421AC0EB0E0EA2F17F02BEFA8EFEB2FA82F24FEA5E1E5209814288BF7246002AE9D1814257D002065ABF421CD2B20122404948BF00248CF800207D
:402100003E4A0D551278900702D53D4A022111600DF11902BA42CDD1FFF791B96178122002F0F0FCFFF78BB9344A127850073FF529AE354A177037E6304A127851073FF56F
:402140004AAD314A157058E52C4A127851073FF5F9AB2D4A157007E4284A127851073FF5ACAC294A1570BAE4244A127851073FF556AC254A157064E4204A127851073FF55C
:402180008EAB214A1570FFF79CBB1C4A127851073FF53EAB1C4A1570FFF74CBB174A12785107A3D4184A1570B2E7144A127851073FF503AF144A157011E7104A12785107E5
:4021C0003FF542AF104A157050E70C4A127851073FF58DAE0C4A15709BE6084A127852073FF5B4AA084A1570FFF7C2BA4C81FF1FFC4E00009881FF1F9C81FF1F68640040DE
:4022000000E200E0004F0000486400409981FF1FA64BA74F1A7802F0FE021A707A78012A00F0358100237B7002F026FEA14A9F4B15680093193502F023FE009B3D621A787B
:402240009D4D02F0FE021A70009300F099FB00F015FC009B1A7802F0FE021A7002F006F89649974A0B78974803F07F030B7010602B78002B00F0D680904993480A78002358
:4022800042F080020A70914AE380237203701370FFF7D5B8864F7B78012B00F0FF8000247C7002F0E9FD834B894D1A68009202F0E7FD009A2146193210203A6202F022FCA3
:4022C000AF78002F4CD02146112002F01BFC814BAB221B78C220B5218DF8142077228DF817408DF815008DF816108DF81820002B3FF442AADFF81CC2774B0DF1140E1EF8C0
:40230000015B9CF8000019780446C9B24F1E421A3F1AA2F17F02B7FA87F7B2FA82F27F095209884238BF3A46002AECD1884272D001065ABF421CD2B20122684948BF0024BA
:402340008CF80020664A0D551278920702D5654A022111600DF119027245D0D1FFF70CBA0822C9F8002000F00BFB00F009FB00F085FB4E490A7802F0FE020A7000F000FB68
:4023800000F0BAF9584A04211170AE70EF702E716F712E7002F070FD464B1C6802F070FD52494A4B03220E702C676C671A70FFF7E3B94F4A02AC154610685168177A03C445
:4023C00055F80C0F05AA69682D7A03C249494A48277015700B70027808ACE71802F08003DBB2037017F80C5C027817F8184CAD00224305F00C05414C2A430270237803F0B6
:40240000F3032370237817F80C2C43F00C0313432370FFF761BA324A1278570788D4384A157097E7FF23136041F8703C02F024FD344A137843F01003137002F021FD324AC5
:4024400013781F0704D531490B6813781807FBD42F4B00221A702E700EE7144A137803F0FE03137001F002FFA8E4104A137803F0FE03137001F0FAFEFFF73BBB0B4A1378C4
:4024800003F0FE03137001F0F1FEFFF7EBBB1A7802F0FE021A7001F0E9FEC3E6034A137803F0FE03137001F0E1FEF8E6004E0040103700205C81FF1F6081FF1F7465004095
:4024C0002465004080A90300D882FF1F6281FF1F6082FF1F4C81FF1F9881FF1F9C81FF1F6864004000E200E0803700206881FF1F004F0000C480FF1F065800400558004079
:4025000048640040976500406765004044650040876500409981FF1F704700BF124B1A78597891421FD070B41048027802F0040202F0FF05B2B91E460D4C02E00278520761
:4025400010D41A78110648BF35701A7859781A441279D2B222701A780132D2B21A701A789142EBD170BC70479881FF1F68640040486400401A4AF0B517461A481A4C012566
:4025800000260378DBB213F01E0E05D092F884104EEA010182F884109B0600D4F0BD217892F88530C9B2134483F8881092F8A8300BB187F8A95092F885300133DBB282F894
:4025C000853092F885301F2B88BF82F8856092F8851092F8AA309942D3D182F8A850D0E79881FF1F686500404865004008B502F04BFC03680C2B00D0FEE7FEE7F0B4374846
:4026000037490378012B2CD991F8AB30344DDA070ED4344E95F8AC20347843F0010344F0100485F8AB303470AAB1013281F8AC202D4D2E4C2A78237842F0200243F0010335
:402640002A702370D1F8B03000210170002B43D0F0BC19201847264C237843F010032370E3E701229A4091F8AB50D2B22A42214C19D025EA020254F8236081F8AB20E518D6
:4026800032782F7A2D7B22EA070232700D4495F8AC20013AD2B285F8AC2022B9144D2A7822F010022A705A00D3B204EB83021669E5180133327895F82070DBB204EB83054C
:4026C00022EA07022D693270234493F820202B7823EA02032B7097E7F0BC7047C580FF1F9881FF1F0D5100400C510040235A0040005A0040184F0000F0B4354C354823785A
:40270000012B27D990F8AB30324D9A070ED4324E95F8AC20317843F0020341F0010185F8AB30317082B1013280F8AC202B4A0121137843F020031370D0F8B0302170002B19
:4027400043D0F0BC1920184725490B7843F010030B70E8E701229A4090F8AB50D2B22A42204919D025EA020251F8236080F8AB20CD1832782F7A2D7B22EA070232700544BD
:4027800095F8AC20013AD2B285F8AC2022B9144D2A7822F010022A705A00D3B201EB83021669CD180133327895F82070DBB201EB830522EA07022D6932700B4493F8202005
:4027C0002B7823EA02032B709CE7F0BC704700BFC580FF1F9881FF1F0D510040205A0040005A0040184F000009490A4A0B7803F08003DBB20B700B7843F015030B70137876
:4028000003F0F3031370137843F00D03137070470A5800400958004009490A4A0B7803F08003DBB20B700B7843F015030B70137803F0F3031370137843F00D0313707047F2
:402840000258004001580040F0B42B4A5378032B25D82A4D0121994095F8B440C9B221421DD0274E24EA010106EB8304646A85F8B4103344217893F8346093F8383021EA1F
:40288000060121701D4495F8B830013BDBB285F8B83023B91B490B7823F008030B70032826D816490123834091F8B440DBB223421ED1134D234305EB8004666A81F8B430EC
:4028C0002B18377893F8345093F8384047EA050333700D1995F8B83033B90A4E337843F00803337095F8B8302144013381F8B8305070F0BC704700BFC580FF1F9881FF1FA2
:40290000184F0000005B004070B41A4D87B02C466B4606466968286803AA03C254F80C0F2D7A6168082E03C3217A157019701ED8114C06AB1E442378104803F08003DBB2B9
:40294000237016F8181C237816F80C2C8900134301F00C010B432370037803F0F3030370037816F8182C43F00C031343037007B070BC7047544F00000658004005580040BC
:40298000F8B502F079FA3349334A0B78334D03F0FE030B701378324C43F0040313702B78064643F002032B702378482043F00203237091F8913A2B4F03F0FC0381F8913A40
:4029C00092F8913AA5F2473503F0F70382F8913A02F04AFA95F84733234A03F0FD0385F847332178214B01F0FD0121701178204801F0EF011170117804F58C5401F0FE017F
:402A000011701A78093402F0FE021A701A78194902F0EF021A703B78174A03F0F9033B70037803F0FE0303702B78304603F0FE032B70237803F0F70323700B7803F0FE039F
:402A40000B70137803F0FE031370BDE8F84002F017BA00BF004E0040014E0040F8460040F946004077580040AA430040BA430040A1430040A2430040B24300402DE9F04F14
:402A8000C74C83B094F8B930002B62D194F8BA3003F0FF06002B5ED0C24D012384F8B93002F0EAF9C04AAB781178C04B41F0010111701178064641F0100111701A78BC4D21
:402AC00042F001021A701A78BA4C42F010021A702B78B94943F002032B702378482043F0020323700B7843F003030B7002F0BCF92B78B24903F0FD032B702378B04803F0DB
:402B0000FD0323700B787A2443F006030B7004703046AC4AA1F5A6511378063943F0010313700B78A84D43F001030B705378013143F0010353700B78A44C4FF0005243F0E1
:402B400001030B702A60226003B0BDE8F04F02F097B9944DA4E749F25B10924D0123DFF8C482AB7084F8BB6098F80030984A43F0100388F800301378964943F01003137042
:402B8000E0230B70DFF8A0E2934F944B02F5D05204218EF8001005323E701E701378AEF1030E43F0180313708D4B8EF80060A2F287221E7087F8F2620A271770894FA3F2A9
:402BC00007331E703E705B271772874F5E221A72A3F5286314223E701A70AB780F2284F8BE2004EB830393F8BA70804BA4F8BC001F70AB787E4804EB8303B3F8B8300380E3
:402C0000AF7884F8C060FFB2012F7FF446AF794B6FF4296CE644DFF814B2DFF814A24FF0F80C83F800C0DFF80C92DFF80CC28EF8001000F8091C8BF800208AF800604FF069
:402C40003F0A83F806A001F1804189F800608CF800608EF808604FF0030E80F808E001F5B141654A50200870DFF8D0A1132111702B2283F8862ADFF8C8E18AF800605F48D7
:402C80004FF0440A89F882AA5D494FF002095D4A4FF0480A8CF882AA8EF800904FF0120C4FF0280E80F80090EB2081F800C082F800E083F8910A02F0DFF83D4B00901A78EB
:402CC000ABF20B7B42F003021A7001939BF800204D494FF0520C42F0030250468BF8002081F800C002F0C0F8019B00981A78DFF854A102F0FC021A709BF8003003F0FC0362
:402D00008BF8003002F0BCF84CF6CD433F4A5820DFF834C1DFF834E13D4910703D488AF800608CF800908EF800900E705672C4F8C43098F80020038802F007029BB2012BF3
:402D40000FD0A1F5A7511A390978C9B2002A7FD1002B7DD1078098F8003003F0BF0388F800301B482C4E0278338802F007029BB2072B0ED013490978C9B2002A40F0A080BC
:402D8000002B40F09D8007233380037803F0BF030370224B224A1B68C3F8B4207DE600BF9881FF1FC580FF1FAA430040BA430040F8460040F94600409158004077580040D5
:402DC00082580040A143004080E200E000E100E0024100401DE400E0975800409E580040885B0040835800408D5800400E4E00400C4E0040004E0040855800408E5800405F
:402E00008F5800409058004092580040945800409C580040804000400041004008ED00E0192500008240004096580040044E0040054E0040084E0040094E00408758004084
:402E40008C580040955800409A5800409B58004011F0010123D03D483D4F3E4E00224FF0010E327080F800E03A7010F8082C6E3702F07F0200F8082C3A7810070FD4304653
:402E8000072227F8803C32700378324A13F00103FAD1314E307800F0FE00307013702E4B1A78D20744D56FF468773B441A462B4801260321068019701378DE07FCD450E709
:402EC00011F0010124D02248204F224E00224FF0010E327080F800E03A7010F80C2CF23702F07F0200F80C2C3A78100710D43046A7F5807707223B8032700378154A13F059
:402F00000103FAD1164E307800F0FE0030701370134B1A78D20712D5A3F568731A460F4807260321068019701378DB07FCD430E70C4A012010801A781143197011E70A4A55
:402F4000072010801A781143197022E7104000401440004001400040A243004002400040A14300408040004000410040F8B5B54AB54BB6491A600B68B54A43F40073B548F3
:402F80000B600023032B94BF50F82310B2490133302B42F8041FF5D1B04BB14AB14909781A6072B6B04AB14D1378A5F1540643F004031370002404EB440306EB4303AA88D4
:402FC000586D0134002101F08BFF062C05F10605F1D1A74EA74F002556F8043F13F0FF0E23F0FF0413D005F110530EF1FF3E03F139005FFA8EFE7044383340005B001A78A9
:403000005978023383421155F9D101357544BE42E2D1994B994A0A2119701378984943F0020313700B78A2F5863243F0020341F251260B70633A1378A1F5863143F0400337
:40304000137051390A788F4B42F010020A708E4A8E4C03CB1060516003CB2060616003CBB23CC2F8F000C2F8F41093E8070003C42280874A0C3303CBA4F6F6541060516087
:4030800003CB2278834DDFF87CC242F00802824F28606960DFF870E2227080488049612200248CF8002018253C80502219278EF800207C4C07807C4A0D70196826270320FA
:4030C0007A4B277010701B78794F7A48DBB23B70794B082724F8DE7C06801C78A2F5807211604FF4F07004F001041E4601F0BCFE01E0032C0DD033784FF4F07003F0010345
:4031000043EA440401F0B0FE013D04F00304F0D1FEE748F28006694B694A6A494FF4807407201C80DFF8E4E118700024664F48200C701070022104201C708EF80010387056
:4031400092F89A33614C43F0030382F89A33237844F2010543F00103237092F8983307F5F72743F0800382F89833012407F2F9774FF0810C564B8EF8FFC73C701B78A7F59E
:40318000F427DBB203F0070EA7F2967787F800E0DFF87CE1C3406FF4EC6C8EF800306744AEF2137E80233B70AEF80060494E87F8F04009273770484F05263E708EF81E67EA
:4031C000464E87F88C01317087F89A41B07287F8A031434BB1761870402387F8B831102786F82E703F4F02F566723970082786F880703D4F86F8880038703C4886F8B630A2
:4032000005803B4B06258EF8684987F82E50DFF804E186F8CE40374D0176374F202018703648C5F800E0364CC6F83A71CA270770A5F2CA2583F8561044260FCA2E7007C412
:403240002380F8BD0004FA050CED00E014ED00E0FC7FFF1F00000000ED25000008ED00E00080FF1FBC760040E84600406C4F0000FCFFFF476C0000488358004003500140DC
:4032800013500140EC05004802510040C25100402251004032510040804000408440004086400040004300400042004008010049A146004020420040254200400440004080
:4032C00008400040064000400B400040A1430040CF0100496C580040785800400A5A0040285A0040805A00409A5A0040C25A0040045B0040405B004013010702585B00404A
:40330000B04300400048004082400040014000406F580040070208022DE9F047774BD3F8D87093F81011C01B80EAE075A5EBE07593F8CE20002900F0C08093F812019042A6
:4033400000F0A680012940F2CD8093F81301904200F09E80022900F09D8093F81401904200F09680032900F0958093F81501904200F08E80042900F08D8093F8160190421F
:4033800000F08680052900F0858093F8174194427ED006297ED093F81841944278D0072978D093F8190190421ABF082100200120D3F8E460514CB54205DAC4F8E45084F84E
:4033C000D420C4F8E07093F8E8604C4C002E72D094F8E9E0964572D0012E5DD994F8EAE0964500F08280022E56D094F8EBE0964500F08180032E4FD094F8EC60964277D038
:40340000D4F80061D4F804E146EAE6767645B246B8BFF246D4F808917645ACBF4FF0000C4FF0010CCA45D046B8BFC846D4F80C61CA45ACBFE6464FF0020E4645B446B8BFCA
:40344000C4464645D4BF76460326654509DA04EB860E04EB060C8CF8E920CEF8F070CEF8005158B907290BD993F811114C1C04F00704194483F8114181F81221BDE8F08739
:403480005C18013184F8122183F81011BDE8F08701208DE700208BE7741CE4B203EB060E83F8E84003EB86048EF8E920C4F8F070C4F80051D5E70124F0E7084678E74FF039
:4034C000000C0CF10E0403EB8404D4F8C860DFF82CE0B542C5DA0EEB8C0ECEF8F070C4F8C850BEE70121002062E74FF0010CE8E74FF0030CE5E74FF0020CE2E79881FF1F8F
:403500002DE9F04FA34E99B03378032B00F005813378022B00F0C880DFF87C92DFF894829D49B8F80020B9F8003092B29BB29A4280F09A80B8F800309BB2002B00F0E18094
:40354000964DB8F800306F889BB25A24AB2204FB0354390A1E238DF800208DF801308DF802708DF803100DF107020023581C991CE6182044214436790333007909795A2BB6
:4035800002F8020C02F8036C02F8011C02F10302ECD16B46002217A853F8041B834282EA0102F9D19DF85C109DF85D307C484B405340C2F307215940C2F307434B40017856
:4035C000013783EA12626F808DF85E20002936D0744F754DDFF80CB2DFF80CC20DF1FF360DF15E0A16F8014F39782A780846D2B202F1FF3E8B1AC1EB0E0EA3F17F03BEFA4B
:403600008EFEB3FA83F34FEA5E1E5B098A4288BF7346002BE9D18A423FD00A0659BF0131C9B2012100200BF8004039709CF800309B0702D55D4B02221A605645D2D1B8F8C2
:4036400000305B4901339BB2A8F80030B8F80020B9F8003092B29BB232209A420860554910D219B0BDE8F08F534B93F8542A22B1002283F8542A83F8552A19B0BDE8F04FA4
:40368000FDF7D2BE0B889BB2FF2B44D8D9B2382019B0BDE8F04F01F035BA9CF800305B07BBD4464B1C70C8E73C4D2B78002BD8D04349444A0B78444803F0FE030B7013784D
:4036C000424903F07F03424F137001603B78002B00F08C823B4ADFF8C0901378362043F080031370B9F800309BB2FF2B94BFD9B2FF2101F007FA00232B703370FEF7FCFF1A
:403700000CE70B8837209BB2FF2B94BFD9B2FF2101F0F8F914E7FF21B9E72E4CA378002BABD001F0A9FB2C4B1D6801F0A9FB44F61F62236FEB1A934218D8636FEB1A312BEF
:4037400006D9264B65671B6813B161791A2098472378013B072B90D8DFE813F03E02EA0168014D01F200DD009F007B002378073B012B40F25D8294F80580B8F1030F88BFC0
:40378000414600F25682164DDFF860A04FF000094AE000BF6281FF1F6681FF1FD882FF1F4C81FF1F9981FF1F9881FF1F00E200E07881FF1F6481FF1F882C002048640040D9
:4037C000004E0040746500402465004080A903006081FF1F6082FF1F5C81FF1F4882FF1F904F00009C81FF1F68640040E036002098B2FF2829D8BA4280F014822944CB69DA
:403800003846984708EB480208F101085FFA88F80AEB8203B8F1040F0AF82270C3F8049083F8089000F004824FEA48116B185A7E987E1318171A82421FFA83FEFFB2D7D854
:40384000BEF1FF0F40F2EE810027974238BF1746D4E76079AF49256901EB40118A68AE4B521B002A4969B8BF524200EB400603EB86038A425D60A94D00F3AA831A7A012103
:4038800002B11972A64B1B6813B11820984760790130072360712370EFE665799F4F032D00F2A3839E4B1B6813B1294617209847FFF766F8974B002603EB45152879FEF70B
:4038C000C3FFFFF7DBF8974B974904221A600A78637942F0010290480A7003EB430310F82320298A0823A4F86610A27163706665A665E665A4F8646084F8686084F8696097
:403900002666E66601F0B8FA884B1E7001F0B8FA02232370B1E666797E4D760105EB0608D8F808007D4FFFF7F7FC002800F054837B4B1B6813B1B9792220984735446CE0F9
:403940006679744D7601AA19518AB4F80AE0734B714540F27183597A002900F01082196993689942C0F21082537E907EA779834240F210831A1AD2B2974240F25D83791E85
:40398000C9B2E27921728A4200F25683891A02EB51029842D1B203EB000280F011831FFA82FC181ABCF1FF0FC0B200F20D838142D2B203D3914228BF11460846B84200F0F5
:4039C0003B833544EB890EF1010E06220026A4F80AE0A071A4F86630EB6962706665A665E665A4F8646084F8686084F869602666E666984786E76779464D7F01EE19B06891
:403A0000FFF78AFC454A002800F02282444B1B6813B19179222098473D44E0696B699842CCBF0020012000F047FB26E66779394D7F012369EE19B0686361FFF76DFC7369AC
:403A4000E2699A4240F3078396F81980B67EB04540F2B18108EB060EC6EB08021FFA8EFCD3B2BCF1FF0F194600F29F8198455FFA8EF080F0A981D2B25FFA8EF0E91991F963
:403A800018100029C0F2F18203F11F018142C0F2E9829A4280F0F082202B84BFA3F12002D2B2B04540F2B882C6EB0806BCF1FF0FF0B200F2B58290425FFA8EF303D89A420D
:403AC00028BF1A461046237BA0718342134E00F0B38273792F44F9890024042205EB4315A6F86610EB6972707465B465F465A6F8644086F8684086F869403466F4669847C5
:403B000001F0BAF9094B1C7001F0BAF902233370B3E500BF904F0000E03600206082FF1F4882FF1F80E200E0004E00406981FF1F94F8059001F0A0F9AD4BAE4D1A78002A0F
:403B400000F02A82AC4A4FF00008176883F8008001F096F9B5F86660C5F86C80002E40F05682A648B5F8643000EB49106A6D0133007B9BB2B9188342A5F864306965FFF452
:403B80007CADAA6DEB6D0A44034492FBF3F195F869006E65A5F86460AA652961EB6538B12B6ECB1A002BB8BF5B420A2B40F33D8294F8683001221344DBB2272B216684F807
:403BC000683084F869208B4C7FF657ADA07900F087FE6378237050E56179864B032940F27C810021072259711A7046E5FF23036042F8703C01F040F9814A137843F01003A7
:403C0000137001F03DF97F4A13781C0704D57E490B6813781807FBD47C4A0021012311703B7057E5DBB29A4228BF1A461746E5E56179774B00221B6822710BB11B209847E3
:403C4000744F754DFEF79CFE00F010FB08230020012109223B602B60A070E170227000236E4933700B786E4A6E4803F07F036E4F0B7010603B782479002B64D0674A214632
:403C80001378112043F08003137000F03BFF674B1A78002A3FF4F1AC654A84F0770712780026AB25C220B5218DF803408DF804701E708DF800508DF801008DF80210002A63
:403CC0003FF4DBAC6E465B4F5B4DDFF87891DFF878C1DFF878B10DF105084FF0020A16F8014B39782A780846D2B202F1FF3E8B1AC1EB0E0EA3F17F03BEFA8EFEB3FA83F325
:403D00004FEA5E1E5B098A4288BF7346002BE9D18A4211D00A0659BF4B1CDBB20123002009F800403B709CF800309B0748BFCBF800A0B045D3D1A0E49CF800305B07E9D4F0
:403D40003E4B1C70F5E73E49FF2313600B6001F093F82B4A137843F01003137001F090F8284A13781D0704D527490B6813781807FBD4264A0021012311703B707EE71969EF
:403D8000936899427FF7F0AD537E907E1A1891B2FF292BD8D2B2A7791649974280F04C817A1CD2B2CA71097AEDE5434538BF43460A46FF2062E608EB060E1FFA8EFCBCF1C2
:403DC000FF0F0CD85FFA8EF04045034628BF4346B045DBB240F24481C6EB08024BE64346002B38BF00230022FF2047E6FF22D2E76981FF1F6082FF1F6C81FF1F904F00004F
:403E0000976500406765004044650040876500404882FF1F80E200E000E100E0746500402465004080A903006081FF1F6881FF1F4C81FF1F9981FF1F9881FF1F48640040E0
:403E4000046500409C81FF1F6864004000E200E0D1697369994240F3FE8011695369994200F00E8196F81980B17ED4BF4FF0010E4FF0000E8FB2884592F806C007EB08057D
:403E800040F2DF80C1EB0802FF2DD3B200F2DC8008EB01029845D2B203D39045434628BF13469C4594BF73468EF001036372737E994207EB030238BF581A92B238BFC0B2D4
:403EC000FF2A9ABF5B18DBB2FF2300210522E071237261812270FFF7D0BB714A714DD2F800806FF0004000224E01AF191A739A6183F8202083F8482083F84920C3F821205A
:403F00009A62C3F84A20C3F84E20DA621A635A63D8619863D86318645864B8F1000F01D01520C04705EB0608FEF72AFD98F80400FEF78AFCFEF7A2FD5B4B5C4A04211960AE
:403F4000137898F8191043F001031370BB7E994201EB030216D997B2CB1AFF2FD8B215D88142D2B203D3914228BF114608462E44F1896379032205EB43150026A4F8661093
:403F8000A07129E593B2FF2B63D90020884238BF0846ECE70022EFE400F072FFEB6E444A01339342EB667FF668AB47F6FF73A87919462B6100F094FC6B782B70FFF75DBB4F
:403FC00093B2FF2B21D90020884238BF0846F5E400211972297155E4D8F81430FA699A4239DD05233B70FFF748BBFEF7C9FC00F03DF92D4A08232F4D1360002001210922BE
:404000002B60B870F9703A7029E6D2B2D2E4013EA5F86660FFF731BBBCF1FF0F3CD90020904238BF1046C0B24DE5A87900F058FC6B782B70FFF721BB002000F03DF8FFF74A
:404040001CBBFF2D24D90346434538BF4346DBB227E7D2B287E7012000F02EF8FFF70DBB00220BE52033D8B22DE59A42FFF414AD03F11F068642F5DB984298BF104622E59D
:40408000337EB17EDB43C3F3C01353728FB20EE708EB0102D2B200E75FFA8EF30FE500BF4882FF1F904F000080E200E0004E00407F841E0000E100E046F266612DE9F04FC3
:4040C000654D664B95F80580D5F818B04FEA481703EB0709D9F814208BEAEB74EE69A4EBEB749642CCBF064601268C4283B02A7B04DDB8F1030F00F095800026DFF864A1E3
:4041000099F8190099F81A40A04200EB040175D9041B88B2FF28E4B27AD9944238BF14461F44FB6920464FEA48079847DFF8389107EB08039B0009EB030209F80340C2F877
:4041400004B0167206B92E71DAF80030DFF814B123B1214613209847DBF8003007EB080209EB82025468B4F5004F43DA14F5004F6EDA3B4C8021002B32D014209847DAF898
:404180000030E1B2374C002B5CD01420984707EB0803226809EB8303D3F804B002B34FEA1B611D2090472368CBF30741C3B11D2098472368A3B1CBF307211D209847DAF87D
:4041C00000305FFA8BF1274C53B11D209847236833B1474409EB870999F8081016209847CEB16B7901221344DBB22A706B7103B0BDE8F08F7F2147F6FF74BCE788B2FF28E0
:4042000004D8CCB2944228BF144689E7002484E7A24285D3F5E7072204232A706B7103B0BDE8F08FDFF83CA0DAF80060002E3FF467AF41461C208DE80C00B0479DE80C0031
:4042400000265DE70C2303FB0893D3F804B0B6E7C4F307218FE700BF6082FF1F904F00000080FFFF4882FF1FE0360020F8B5FEF787FB524A52491378012B6AD90B785049F0
:4042800098070DD443F002034E480B7003784E4943F0010303700B78002B52D001330B704A484B4C0378012143F020030370236811700BB119209847464947480A78032ABE
:4042C0001ED8012494400378E4B21C4219D0434D23EA040355F82250414C03702B78A65C404C23EA0603A25C3F4C2B70A35C013BDBB2A35423B93D4A137823F0080313705B
:4043000003781A070CD443F00803394C03702378354A63F07F03237013785BB10133137003230B70FEF7AAFB324A137803F0FE031370F8BD2D48037843F008030370137861
:40434000ECE790F8F33843F0100380F8F3380B78A4E7012098400C78C0B2204218D0264D24EA000055F82360244C08703078E55C234C20EA0500E45C134D3070285D0138E9
:40438000C0B2285520B91F4C207820F0100020701D4C5B00DBB254F823601C4D3078EF5C0133DBB220EA070054F823403070E85C237823EA0003237060E700BFC580FF1FFA
:4043C0004382FF1F0D5100404482FF1F205A00404882FF1FC680FF1F4C82FF1F3C4F00004C4F0000504F00005082FF1F005B00403C510040004E0040184F0000204F0000E5
:40440000244F0000005A0040284F0000384F0000C94B4FEA401C2DE9F04F03EB0C04A368D4F814909B1A83EAE37EC44D440087B0AEEBE37EF14501940444B4BF4FF0000824
:404440004FF0010805EB84042E1884F8088096F854806260B8F1000F40F0DD8000F10A08B54F8600341807EB8404D4F88C40BA46744580F20B8102922A188B4692F8741072
:4044800004460F4603910AEB0C00AC49B7B304F1120A01EB8A01496B01F1FA0777452DDA92F98C7057B3032C92F8586040F25A81A34A019B05EB880889452344D8F8341016
:4044C000D2F8008004F1180205EB83034FF00007B4BF4FF000094FF0010905EB82022C44596083F80890176384F87470B8F1000F02D031462220C047012089E004F1180236
:4045000005EB82090592D9F830208E491A448A42B8BF0A46DFF830A2874F5245A8BF5246311907EB8101C9F83020D1F88490D1F888A009FB02F2BAF1000F08BF4FF0010A0B
:4045400092FBFAF2D1F8801001FB03212A1992F86C90002918BF0B46B9F1000F7AD092F87020002A7CD1002B7CDD4FF6FF734FF0FF32049246F2666296456F4A264402EB6F
:404580008606CCBF96F8911096F89010427E01FB03B1837E09B29A420E4666D9D01AC0B28142C0F2A380D0181FFA80FABAF1FF0F65D9FF29C8BF4FF0FF0964DD029F05EBBE
:4045C000880829190126CB45C8F8347081F858B081F85460DFF8648100F08B80039F002F6ED19DF810702919012605EB8408032C81F878B081F88C7081F87460C8F87CE031
:404600007ED94F4B1E6816B149461F20B047002007B0BDE8F08F96F8584000F10A088C423FF41EAF05EB880ADAF834A052453FF417AFD4BF4FF0010A4FF0000A8C422CBFEE
:4046400054468AF001044FF0010A86F8704086F86CA005E7384A624492F91820002A82DB002B82DD0123049384E700299BDA0026314698181FFA80FABAF1FF0F03D85FFAA6
:4046800080F94E459ADC5FFA81F997E72C18012600F11807002084F87400304605EB87073B6B05EB880803EBD3735B10C8F8342084F858103B6384F8546007B0BDE8F08F42
:4046C00091F878704F458CD11D4B059A08EB82081A680023C8F8303081F87430002A3FF40BAF222049469047304691E706460146BFE73046002381F8743007B0BDE8F08F7B
:404700009A4223D8BAF1FF0F27D900264E4538BF4E46094B304603EB0C07FB699847019A95F8A0302244032B05F82260034A9CBF042382F8A03064E7904F0000E036002013
:404740004882FF1FA099F9FF60660600D31ABAF1FF0FDEB2DAD84E45DBD8C6B24E4528BF4E46D6E7437E817E8B4203EB01021ED95B1A91B2FF295FFA83FB1DD85E4523D22A
:40478000144B584603EB0C07FB69984795F8A020019B032A234405F823B00F4B10D803EB8A0A0422DAF8341083F8A02080E693B2FF2B09D94FF0000BB34538BFB346DFE781
:4047C00003EB8A03596B73E6D3B2B34228BF33469B46D5E7904F0000E0360020F0B43348334A0378012B2BD91378314AD9070CD443F001032F4913700B782F4A43F0100314
:404800000B701378A3B1013313702C492C4C0B78227843F0010342F020022A4D22700B702B6800210170002B3ED0F0BC1920184791F8F33843F0100381F8F3381378E2E7BA
:40484000012199401478C9B2214218D01E4D24EA010155F823601D4C11703178E55C1C4C21EA0501E45C144D3170295D0139C9B2295521B9174C217821F010012170164C6D
:404880005B00DBB254F82360144D3178EF5C0133DBB221EA070154F823403170E95C237823EA010323709FE7F0BC7047C580FF1F4382FF1F0D5100404482FF1F235A0040D6
:4048C0000C5100404882FF1F184F0000204F0000244F0000005A0040284F0000384F000070B51D4D0C462B681BB10146132098472B68B4F5004F25DA14F5004F28DA174E70
:40490000802123B3142098472B68F1B2124E9BB1142098473368D3B1210E1D2098473368C4F307419BB11D20984733687BB1C4F307211D2098472B68E1B243B1BDE870405B
:404940001D2018477F2147F6FF76002BDAD170BDC4F307212646D4E74882FF1F0080FFFF2DE9F043554B1B7803F00303012B40F28880022B00F08D80514B524A1B88128860
:404980009BB243EA0243504A127812B14F4A002111704F491A460978012903D1002BB8BF1F335A114B4B4C4C1A601D684B4901204B4A256008701278022A01D0BDE8F0832D
:4049C000484C2278002AF9D1474A484D10882988421E92B2B2F5007F34BF06464FF4007689B2B142EAD2424E318889B21D29E5D8404F31883F7801EB410189B2002F53D138
:404A00001B68B5F800E03C4F4FF05A0C1FFA8EFE0CFB0E7E5FFA83F80EF80180B5F800E001F101081FFA8EFE0CFB0E7EC3F307290EF80890B5F800E002311FFA8EFE0CFBF3
:404A40000E77C3F307437B543388284901339BB233803388264E9BB21D2BAFD9002333800B88B2F5007F03F101039BB20B802B8828BF4FF400709BB2834224BF01232370DE
:404A80009CE7104A0E4B12881B889BB243EA024379E70C4B0A49194A1B8809781278120242EA03430B436EE7154F3B6803F1010EC7F800E023F07F43A3E700BF144E004017
:404AC000104E0040124E00405882FF1F5382FF1FC780FF1F843700206C81FF1F6981FF1F6281FF1FD882FF1F8881FF1F6681FF1F8A81FF1F9481FF1FDC82FF1F114E00401E
:404B00009081FF1F2DE9F04F2E4A2F4B12781C78D2B282F0C4034B4083B04340AB26C4258DF802008DF803108DF804208DF805308DF800608DF80150002C38D06E46DFF82D
:404B400094E0224DDFF89090DFF890C0DFF890B00DF106084FF0020A16F8014B9EF800102A780846D2B2571E8B1A7F1AA3F17F03B7FA87F7B3FA83F37F095B098A4288BF38
:404B80003B46002BECD18A4214D00A0659BF0131C9B20121002009F800408EF800109CF800309B0748BFCBF800A04645D4D103B0BDE8F08F9CF800305F07E6D4044B1C7058
:404BC000F3E700BF6281FF1F4C81FF1F9881FF1F486400409981FF1F9C81FF1F6864004000E200E010B5244A244B25491B781368013313600B78BBB1224A13780133DBB260
:404C000013701378ABB9204A20491378204803F07F03204C13700860237883B11A4A137843F08003137010BD03F0FF02154B1A70E9E7194B0020012110701970E3E7FF2363
:404C40000B6042F8703C00F017F9144A137843F01003137000F014F9084A1378190704D50F490B6813781B07FBD40E4A0021012311702370D2E700BF5C81FF1F67650040E7
:404C8000DD3600208481FF1F746500402465004080A903006081FF1FDC360020976500404465004087650040F8B54D4B4D4C1B78580607D533202178FFF724FF2378012B97
:404CC00049D0F8BD34202178FFF71CFF4649474A0B78474803F0FE030B701378454903F07F03454D137001602B78C3B13F4A434F1378434E43F08003137000F0BDF8414D89
:404D00004149424A00233B8033702B800B801370237000F0B5F8BDE8F840FDF7EDBCFF23036042F8703C00F0A7F8394A137843F01003137000F0A4F8364A1378190704D518
:404D400035490B6813781B07FBD4344A0021012311702B70CAE7324F23493E780B783148224A03F0FE0305880B7013782E4903F07F03284813706A1E1023B2F5007F00786C
:404D8000F6B20B6028BF4FF4007500F075F80036DFF868C0DFF868E01A494FF0000318BF0126194A3E70ACF80030184F8EF800301E4E0B801E49138002220B803B7033600D
:404DC000227000F05DF8FF2D94BFE9B2FF213520FFF798FE044A137843F001031370F8BDC15100406281FF1F004E0040746500402465004080A903006081FF1F8A81FF1F62
:404E00008C81FF1F6481FF1F6681FF1FD882FF1F976500406765004044650040876500409481FF1F8881FF1F80E200E09081FF1FDA82FF1F014B1870704700BF835B0040BD
:404E4000014B1870704700BF815B0040014B1870704700BF825B0040014B1870704700BF805B0040000000000230800803D000BF01380046FCD17047EFF3108072B6704760
:404E800080F31088704700BF014B1868704700BF2881FF1F0E4B70B51E460E4C0025E41AA410A54204D056F8253098470135F8E700F0EAF8084B094C1E46E41AA41000254E
:404EC000A54204D056F8253098470135F8E770BD9450000094500000945000009C50000003460244934202D003F8011BFAE7704700000000B0047017B80B0000ABC000C08D
:404F00000111213141615363730000000809010105070704040000000D5100400D51004010010000000000000C510040235A0040205A00402443004020012000185A004019
:404F40001D5100403C5100403C5100400880408000000000011121314161536373000000080901010507070404000000405100403000000001400010001401400008004055
:404F80000140000A004C014000020050014020006050000000000000000000002000B80B88130C0066660000019C4000594E00006850000001000000000000002000983A31
:404FC000C05D0C0066660000019C40004D4E00007050000002000000000000002000401FE02E0C0066660000019C4000414E00007C5000000300000000000000200070173B
:4050000028230C0066660000019C4000354E00000100000001000000080000008813000001010000010000000100000008000000881300000101000001000000010000009D
:4050400008000000D007000001010000010000000100000008000000881300000101000047454F5F5047410047454F5F4250000047454F5F414444455200000047454F5FF6
:405080004C50000043000000F8B500BFF8BC08BC9E467047990000006D2F0000F8B500BFF8BC08BC9E46704775000000C0500000C080FF1F7000000060B600000000000075
:4050C0000000000008FFFF010000000000000000000000000000000000000000000000000000000000000000845000000000000000000000000000000000000000000000D5
:4051000000000000000000000000000000000000000000000000000000000000000000000000000000000000C880FF1F000000000000000000000000000000000000000009
:40514000000000000000000000000000000000000000000000000000000000000000000000000000000000000000000000000000000000000000000000000000000000002F
:4051800000000000000000000000000000000000000000000000000000000000000000000000000000000000000000000000000000000000000000000000000000000000EF
:4051C00000000000000000000000000000000000000000000000000000000000000000000000000000000000000000000000000000000000000000000000000000000000AF
:40520000000000000000000000000000000000000000000000000000000000000000000000000000000000000000000000000000000000000000000000000000000000006E
:020000040003F7
:0200000480007A
:4000000002520040016400400365004001070140630801403A090140391401402E1501403B1601401C1701404F180140321901404C1A0140481B01400640014003410140C3
:400040000342014007430140024401400145014003460140014701400948014008490140084C01400A4D0140075001400251014009200C04880F870D88388972E602000AC0
:4000800001030304040406080C0A1103120A13041D031E081F0C230824012B052D0A2F04300834013606370F38803B803E114046410146E047CB483849FF4AFF4BFF4EF01D
:4000C0004F44500C54015604580459045A045B045C115D115F0166C06A406B02800C82718410864087268C108EAC90DC9158922293069A039B109D629F0CA009A162A2D066
:40010000A31CA414A901AA20AF18B0E0B11EB360B41FB501B908BA02BB02BF14C003C504C9FFCA07CBFFCC40CD20CEF0CF05D008D804D904DA04DC11DD01DF01E040E1A8C8
:40014000E240E32001020220030104080501070109020A040D020F02100811081240161019231A041D401E881F40200421062680270129612A412C082F42310232A033028C
:400180003501368038083F024104460147014A204C04500C54105504561057015D105E8967408740C0BDC29AC42ECABDCC9DCE82D092D220D6F0D8800401100413011B01E5
:4001C0001C071D01240227012E07340737013B80402549FF4AFF4BFF4F0150185280580B590B5A0B5B0A5C995D995F016040624064406540668068806A806C806E80C06525
:40020000C9FFCAFFCBFFCD83CE03CF01D018D608DA08DB04DD99DF01E040E240E440E540E680E880EA80EC80EE80000409821220134018041B1021802B103002318032208C
:40024000400448024C024F205E805F20640567027280734078057F01940497029B209C019E80A002A102A260A710AE40AF28C004C209C405CA02CC0DD004D238D630D8300F
:40028000DE13EC10EE041B012F013501406449FF4AFF4BFF4D834E034F01501859085A085C905D095F016040624064406540668068806A806C806E809A01AE01AF01B50143
:4002C000B601BE40C025C5ECC720C823C9FFCAFFCBFFCD83CE03CF01D018D401D804D90BDA0BDB0BDC90DD99DF01E040E240E440E540E680E880EA80EC80EE8009201002B3
:4003000019402120222027082A802C02362040044502480249054F2050025102594578017F01C202C401CA18CC20D084D228D60BDE11E220000202040601100412021A01ED
:400340001F013001340637013E114063410542024404450C47E0482149FF4AFF4BFF4C624DA04EF04F41500C54185604580459045A045B045C905D115F01664067026910F7
:400380006A306B106D106E106F128403851389138C039005920894129502960897059A039C0B9D109E14A203A41CA81CA901AB26AE03AF08B003B120B303B510B61CB70C79
:4003C000BF40D602D713D804D904DB04DC11DD10DF010004020204080640071009290A010E800F08115519421A011F21212A230A264029603108324036803914471A4E06B1
:400400004F08560159015D02674A69146A807080710472088B40AC10AE01B110B301B404C035C25FC40FCA0CCC1ACE06D0E0D230D681D8B0E220001C020304130508060C98
:400440000C1F0D190F0210011301140215181A031B061C031D191F0420082110240425072718280C29012C1F2D1F3010340F371F38083A203B803E055608580459045B0434
:400480005C115D905F0180068201850488018A068D0C8E088F039006910F920198029B029C049D08A10EA208A301A503A601A70CA806A90CAC07B007B208B50EB701B98097
:4004C000BA02BB02BE04D804D904DC11DF01008601410340051006010740082009290A010CC00E400F0410851104120214251701180419111A181B201C801E401F0420023A
:40050000240826022701284129202B202C042D012F203004312633403460360239443A083B043C803E08588062C0821088809201940C95419608970899249A099D019E4015
:40054000A080A12BA682AB20B521C0DDC2DFC4FFCAEFCCBFCE5AD608D808E001EC103010320836243B10CCF0CE1097109C10A62C97109C10A62C1208862097109C10A62CD6
:40058000C440E6407D20DE01A5104508A510D001A51825102A102B08881097109C10A604C820CA10AA04AE10AF18B510E840EA10EC40EE20001062019A01A518B601C002BF
:4005C000D802EC02101081108810A510B410B508C408E204EA08EC0800020C02100211011B011C021D0100EF01030000000000000000BB00400000000000000000000000A2
:40060000000001002000040B2B002000800000000002020000000000000000000000D4000700180100000000000000000000000000000000000000000000000000000000C7
:40064000000000000000000000000000000000000000000000000000000000000000000000000000000000000000000000000000000000000000000000000000000000007A
:40068000000000000000000000000000000000000000000000000000000000000000000000000000000000000000000000000000000000000000000000000000000000003A
:4006C00000000000000000000000000000000000000000000000000000000000000000000000000000000000000000000000000000000000000000000000000000000000FA
:4007000000000000000000000000000000000000000000000000000000000000000000000000000000000000000000000000000000000000000000000000000000000000B9
:0200000490006A
:0400000000004005B7
:0200000490105A
:04000000BC90ACAF55
:0200000490303A
:02000000BB2D16
:0200000490402A
:4000000000000000000000000000000000000000000000000000000000000000000000000000000000000000000000000000000000000000000000000000000000000000C0
:400040000000000000000000000000000000000000000000000000000000000000000000000000000000000000000000000000000000000000000000000000000000000080
:400080000000000000000000000000000000000000000000000000000000000000000000000000000000000000000000000000000000000000000000000000000000000040
:4000C0000000000000000000000000000000000000000000000000000000000000000000000000000000000000000000000000000000000000000000000000000000000000
:0200000490501A
:0C00000000012E16106900012E37CB966F
:00000001FF