:400000000080002011000000190B0000190B000008B5044B1A6803F53F5302331A6000F083FD00BFFA46004010B5054C237833B9044B13B10448AFF300800123237010BDAF
:400040004881FF1F00000000701F0000084B10B51BB108490848AFF300800848036803B910BD074B002BFBD0BDE81040184700BF000000004C81FF1F701F0000C880FF1FE4
:4000800000000000054B1B78DBB2012B05D10346002801DA00F11F0358117047E080FF1F024B00221A705A70704700BF6481FF1F024B00221A705A70704700BF6481FF1F59
:4000C000411A002901DB012070470020704700BF08B501F013FBFFF7D5FF124B58601B7ADBB2022B1CD10F4B5B7A13F0FF0F17D10C4B5B899BB21D2B12D80A4A53899BB2FC
:40010000516802EB8303D96053899BB201339BB2538153899BB21D2B02D90122014B5A7208BD00BF6481FF1F08B500F0F5FD124BD3F884200132C3F8842093F8883013F08B
:40014000FF0F0ED00C4A13780133DBB21370137813F0FF0F08D0134600221A7001225A7002E00022044B1A7000F0C8FD034800F0D9FD00F00BFE08BD6481FF1F80A9030078
:4001800010B501F0ADFE034BD3F8844001F0ACFE204610BD6481FF1F08B501F069FEA8B1104B1B7ADBB2012B1BD101F099FE0D4B00225A815A72A3F88A20C3F88C200222B4
:4001C0001A7201F091FE01F089FA08BD01F08EFA01F086FE034B00225A815A721A7201F083FE08BD6481FF1F08B501F07FFA01F077FE064B00225A815A72A3F88A20C3F848
:400200008C2001221A7201F06FFE08BD6481FF1F08B501F06BFA01F063FE084B002283F890205A815A72A3F88A20C3F88C2002221A7201F059FE01F051FA08BD6481FF1FE9
:40024000082805D808B5034B187001F0AFFA08BD704700BFCC80FF1F082806D808B5034B83F8910001F026FB08BD70476481FF1F00B583B0AB238DF80030C2238DF80130E3
:400280008DF802008DF80310414059408DF804100521684600F09CFE03B05DF804FB00BF30B599B0AB238DF800301E238DF80130224BB3F892408DF80240230A8DF803300A
:4002C000002201A91CE01D4B93F8903013F0FF0F08D01A4DD5F88C0020F07F430130C5F88C0003E0154B03EB8203DB680B70C3F307204870C3F307438B70013292B20331DF
:400300001D2AE0D90022134606E018A9194411F8601C4A4001339BB25D2BF6D98DF85E20064D0134A5F892405F21684600F050FE3223C5F8943019B030BD00BF6481FF1FA3
:4003400008B50421014800F043FE08BD741F000008B500F035FD80F00100C0B200F024FD08BD00BF10B5F0E000F096FD04467A4B93F88830DBB2052B00F2E380DFE803F03C
:40038000030D3A58464FAB2840F0DF800122724B83F88820FFF784FED7E0FFF781FEA4F1A3031E2B1FD8DFE803F0171E10101E1E10101E1E1E1E1E1E101E10101E1E1E1E9D
:4003C0001E1E1E1E1E1E1E1E1000634B83F89840022283F88820B8E05F4B83F89840042283F88820B1E0FFF763FE00225A4B83F88820AAE0584B83F89900002283F89A206D
:40040000032283F88820FFF74BFE9EE0524B83F89900052283F88820FFF742FE95E04E4B83F89A00032283F88820FFF739FE8CE0FFF73EFE4849002381F8883091F898202A
:4004400091F8993091F89A1053404B409C427CD1414B012283F89B203222C3F8942093F89830A33B112B70D8DFE803F0336F090C6F6F19266F6F6F6F6F6F3D6F4742FFF7FE
:400480005FFF62E0344B93F89900FFF7D9FE334B1978A620FFF7ECFEFFF75AFF55E02E4C94F89900FFF7D8FE94F89110A920FFF7DFFEFFF74DFF48E0274C94F8990000F0CD
:4004C0003DFE94F89910AA20FFF7D2FEFFF740FF3BE0214B93F8992093F89A1042EA0122A3F89C2031E0FFF77FFEFFF731FF2CE0FFF78EFEFFF72CFF27E0174B93F899201B
:4005000012F0FF0F14BF0122002283F890200022C3F88C2093F8903013F0FF0F09D00E4B5A815A72A3F88A2002221A7201F0D6F80BE001F0DBF8084B00225A815A721A729F
:4005400003E00022044B83F8882000F0D7FC00287FF40AAF10BD00BF6481FF1FCC80FF1F08B5164B5B7813F0FF0F04D0134B00225A7083F88820FFF7F5FE104B5B7A13F095
:40058000FF0F19D0FFF78CFE0C4A002353725381B2F88A309BB201339BB2A2F88A30B2F89C304BB1B2F88A2092B2934204D801F09DF80022014B1A7208BD00BF6481FF1F6A
:4005C00070B5FFF7DDFD0546012000F0EDFB2E461AE0FFF7C5FFFFF7D3FD04462946FFF76FFD38B1FFF7ACFE04F14605012000F0DBFB2646A41B3B2C03D9002000F0D4FBBC
:4006000002E0012000F0D0FB024B93F89B30002BDFD070BD6481FF1F10B50446FFF7B0FD044401E0FFF79CFFFFF7AAFD2146FFF747FD0028F6D010BD08B51A4BD3F8A0302D
:400640001BB9184BC3F8A00008BDC31A28D0154AC2F8A000D2F89420934204D2D21A1149C1F8942003E000210E4AC2F894100D4AD2F894206AB10B49D1F8A4201344C1F81E
:40068000A430042B0CD90022C1F8A420FFF760FE08BD012000F088FB0022024BC3F8A42008BD00BF6481FF1F10B562B600F0E6FB01F09CFB01F05CFA01F0D6F9012001F042
:4006C00001FA012001F07AF901F0AAFB01F0C2FB01F0C2F8334B187801F068F800F09EFD00F008FE01F03CF92F4B93F8910001F0E1F800F0C9FD00F057FD942000F01EFD6C
:4007000000F0D8FF00F0F2FF284800F0B9FA284800F0DEFA274801F0CDFB00F0EFFA264800F000FB00F032FBFFF74AFF00240DE0002000F039FB0820FFF76EFF012000F01F
:4007400033FB0820FFF768FF0134E4B2042CEFD9FFF706FFFFF714FD0446134B1B7A13F0FF0F17D1104BD3F8A83023B900F164030D4AC2F8A8300C4BD3F8A8102046FFF77A
:400780009FFC58B104F16403074AC2F8A830FFF7D7FD03E00022044BC3F8A8202046FFF74BFFD5E7CC80FF1F6481FF1FD1000000290100009901000080A90300FEE700BF81
:4007C000F0B40022174611E050F82760F3B226F0FF0608E001EB420511F812406D78A5550132013BDBB2002BF4D101371B2FEBD9F0BC7047F0B5354B1B78DBB203F007012C
:40080000334A11701B090132137042F21002314B1A808023304A137040F6080120321180092102F5E262117005240C32147002321470012102F289121170402001321070F4
:400840000822264D2A7008352A700225244E357020270836377004363370043630700A3635700236337010261E4F3E704837397048F2080E0237A7F800E002373D701A4DBB
:400880002A7009352B7001352E7006352C70174C20701748017017490A70174A137006233D3213700232137040F2271101321180033213700A3213709A2107321170023279
:4008C000137044220D4B1A70F0BD00BFCF0100496E5800400C5100403C5100400A5A0040185A0040385A00408A5A0040CB5A0040CC5A0040005B0040045B004076580040D9
:4009000008B50A46002101F02AFB08BD08B501F01BFB08BD38B500242D4B1C80502202331A70192502331D80182202331A70042228492948FFF7EAFF2622284B1A70032275
:40094000A3F580731A70264B1B78DBB2254A13700822254B1A8041F25122023B1A800CE0224B1B7803F0010343EA440404F003044FF4F07001F0ACFA013D0DB1032CEFD1B6
:4009800015B90320FFF71AFF194B4FF480721A8007221A70002217490A704820023108701A700222033B1A7004220A331A70124A137843F003031370013A137843F001033F
:4009C0001370013A137843F08003137038BD00BF8040004018060048004100400043004008010049A146004022420040254200400440004006400040A243004038B572B64F
:400A0000314A137843F00403137000240CE02F4D630019194A0011462A44084691882858FFF76EFF0134E4B2062CF0D928494FF09040FFF7C5FE0A25264B1D70264A137852
:400A400043F0020313701032137843F002031370224C237843F040032370A2F58632513A137843F01003137008221D491D48FFF74DFF08221C491D48FFF748FF2A461C49B6
:400A80001C48FFF743FF08221B491C48FFF73EFF08221B491B48FFF739FF1B4A137843F008031370194D61232B70FFF733FF81232B700122164B1A70FFF79CFE0E22214684
:400AC0001448FFF723FF38BDE8460040781F0000700000488358004003500140A0430040EC05004802510040F4050048C2510040FC050048105100400806004822510040AB
:400B00001006004832510040224300400048004004000840B043004008B501F0E9F903680C2B00D1FEE7FEE708B5104E104D16E029686B68AC68002204E051F8040B43F89C
:400B4000040B0432A242F8D1E868002203E0002143F8041B04328242F9D11035013E002EE6D101F0CBF9FFF79FFDFEE7010000002820000008B5104A104B1A60104A136850
:400B800043F40073136000230AE0032B03D80D4A52F8231000E00C490C4A42F8231001332F2BF2D90A4B1A780A4B1A70074A0A4B1A60FFF723FF08BD0004FA050CED00E03E
:400BC00014ED00E000000000190B00000080FF1FBC760040C080FF1F08ED00E001BE704708B5034B1B7A00FB03F001F071F908BDD080FF1F70B504460E46074B1D681F283A
:400C000002D90020FFF7EAFF04F01F04103455F8240045F8246070BD08ED00E038B504460D46072902D90020FFF7D8FF1F2C02D90020FFF7D3FF04F01F0000F1604000F522
:400C400064406D01EDB2057038BD00BF014B1B689864704708ED00E04001C0B2014B1870704700BF02E400E00422014B1A60704700E100E00422014B1A60704780E100E038
:400C800010B50446FFF7F6FF2046FFF7DFFF0720FFF7E2FFFFF7E8FF10BD00BF014B1B681865704708ED00E04001C0B2014B1870704700BF04E400E01022014B1A6070474D
:400CC00000E100E01022014B1A60704780E100E010B50446FFF7F6FF2046FFF7DFFF0720FFF7E2FFFFF7E8FF10BD00BF024A137843F080031370704774650040024A1378F1
:400D000003F07F031370704774650040014B1870704700BF87650040014B1878704700BF67650040014B1860704700BF24650040014B1868704700BF44650040014B186025
:400D4000704700BF0465004008B501E0FFF7F0FFFFF7E2FF10F0080FF8D108BD08B5FF20FFF7E0FFFF20FFF7E9FF01F0B9F8064A137843F01003137001F0B6F8FFF7E4FFE9
:400D80000020FFF7C3FF08BD9765004008B5054B1B7823B9FFF7E2FF0122024B1A70FFF7A5FF08BD1082FF1F044A137803F0FD03400000F0020018431070704720510040BD
:400DC000024B1878C0F34000704700BF2151004008B511490020FFF70DFF07210020FFF71DFF00220D4B1A7072220D4B1A702022013B1A700B490120FFF7FCFE0721012038
:400E0000FFF70CFF0622084B1A70472210331A7002224F331A7008BDF90F00001182FF1F89650040911000002964004010B501F057F804460D4A137843F020031370013AE7
:400E4000137843F010031370094A0123136009490B7843F010030B70022307490B60136000F042F9204601F03FF810BD9965004000E100E09864004080E200E008B5054B3B
:400E80005B7823B9FFF7A4FF0122024B5A70FFF7CDFF08BD1182FF1F0122134B1A60134A9378DBB2D178C9B2127912F0FF0F01D18B4211D00E4AD05CC0B20133DBB21F2BA8
:400EC00000D90023094A9370137913F0FF0F06D00022064B1A7102E0064B1878C0B20122054B1A60704700BF80E100E01182FF1F3482FF1F4865004000E100E00122144BA1
:400F00001A60144B9A78D2B2DB78DBB29A4206D1104B1B7913F0FF0F15D0202014E00D4B9A78D2B2DB78DBB29A4205D2094AD3789078181AC0B207E0064AD3789078181A0F
:400F40002030C0B200E000200122034B1A60704780E100E01182FF1F00E100E0174BD9799B79DBB2994205D25A1E914214BF0022012204E0CA1A7F2A14BF00220122002A3D
:400F8000ECD1994207D10E4B1B7813F0040F02D10C4B1870704711F0800F00D000210A4B58540131054BD971054B1B7813F0020F02D00222054B1A60704700BF1182FF1F2A
:400FC00068640040486400405482FF1F00E200E0084B5B7833B97047305DFFF7BFFF0134E4B203E070B50D4606460024AC42F3D370BD00BF1182FF1F1D4B1B78DBB213F0C7
:401000001E0F05D01B4803F01E0201780A43027003F0200303F0FF0233B3174B1978C9B2164B1B78DBB21648C154164B1B7813F0FF0F02D00121144B197010490B780133BD
:40104000DBB20B700B78DBB21F2B02D900210B4B19700A4B1978C9B20C4B1B78DBB2994202D10121074B1970002AC5D1704700BF686500401182FF1F486500401482FF1F1B
:401080003482FF1F1582FF1F1682FF1F1382FF1F13E0104B1B7813F0800F02D000220D4B1A700C4A1378DBB20B49CB5CDBB20B490B7013780133DBB21370064B1B78DBB270
:4010C000074A1278934204D0064B1B7813F0040FDFD070471782FF1F5482FF1F486400401882FF1F68640040054A137843F0020313701032137843F002031370704700BF1E
:40110000A2430040054A137843F0020313701032137843F002031370704700BFA8430040054B1A7802F0FD021A701A7800F0020010431870704700BF24580040014B18700A
:40114000704700BF815B0040064B1B78C3F3810303F19243063393F83031DBB2024A1370704700BF245800400946004008B5064B1A7802F0F3021A701A7800F00C001043C2
:401180001870FFF7E1FF08BD2458004008B50020044B187001331870FFF7E8FF0220FFF7BFFF08BD2458004008B5074B1B7823B9FFF7ECFF0122044B1A70FFF7A3FFFF209A
:4011C000FFF7BCFF08BD00BF1A82FF1F084A137843F060031370A2F5A652133A137843F0010313701032137843F001031370704777580040054B1A7802F0FC021A701A78AE
:4012000000F0030010431870704700BF5858004008B50320FFF7EEFF08BD00BF08B5054B1B7823B90122034B1A70FFF7F1FFFFF7CDFF08BD1B82FF1F084A137843F0600321
:401240001370A2F5A652133A137843F0080313701032137843F008031370704777580040054B1A7802F0FC021A701A7800F0030010431870704700BF5E58004008B5032067
:40128000FFF7EEFF08BD00BF08B5054B1B7823B90122034B1A70FFF7F1FFFFF7CDFF08BD1C82FF1F084A137843F060031370A2F5A652133A137843F0020313701032137842
:4012C00043F002031370704777580040054B1A7802F0FC021A701A7800F0030010431870704700BF5A58004008B50320FFF7EEFF08BD00BF08B5054B1B7823B90122034B15
:401300001A70FFF7F1FFFFF7CDFF08BD1D82FF1F10B59DF80840012C51D1013809282ED8DFE800F0052D2D052D2D0F192D230F2B03D92548007840B222E02448007840B2E6
:401340001EE00F2B03D92248007840B218E02148007840B214E00F2B03D91F48007840B20EE01E48007840B20AE00F2B03D91C48007840B204E01B48007840B200E00020A2
:4013800001EB401101FB02F1C90B8AB20D2B0BD8C3F10E0289B211418AB2611E124800EB810101338B7005E0631E0F4901EB83030F219970013C0C4B23F8242010BD00208B
:4013C000FFF70CFC10BD00BF180100491C010049190100491D0100491A0100491E0100491B0100491F0100492082FF1FF8B5074600F076FD06460D4D2B7843F003032B70FD
:401400000B4C237843F0030323700A4B1F700320FFF7E6FB2B7803F0FC032B70237803F0FC032370304600F05FFDF8BDF8460040F94600409258004038B50022304B1A710D
:4014400001285CD1F8222F4B1A7004232E4A1370013213700F2203F1804303F59C431A70002401331C703F2201331A7002331C7001331C7001331C7003220A331A70502235
:4014800003F527631A70132201331A702B2201331A7001331C70442203331A70482201331A70022501331D7002331D70122201331A70282201331A70EB2201331A70522033
:4014C000FFF794FF5822114B1A7001331C7005331D7001331D7001331C7001331C704CF6CD420B4B1A600121052000F067FB0121162000F0E7FB07491D20FFF77BFB38BD6B
:401500002082FF1F004E0040024E004094580040D482FF1F69170000F0B583B0284D01272F70284E00247471102000F035FB102000F0B6FB07211D20FFF770FB0422224BA0
:401540001A7001331C7007331C70204A137843F0180313701E4B1C7003F2F5231C7001331C700A22A3F209331A7001331C7002331C705B2205331A705E2201331A7004338B
:401580001C701422A3F68C231A70009712234FF4004249F25B110520FFF7BAFE2B78013B06EB83039A780B4B1A702B78013B36F82320094B1A802878FFF73EFF03B0F0BD13
:4015C000E080FF1F2082FF1F96580040075B0040935800400E4E00400C4E004070B500F07FFC06462A4B1B782A4B1A7842F001021A701A7842F010021A7010331A7842F06B
:4016000001021A701A7842F010021A70224D2B7843F002032B70214C237843F0020323701F4A137843F0030313700320FFF7D8FA2B7803F0FD032B70237803F0FD03237018
:40164000184A137843F0060313707A22164B1A70164A137843F0010313701032137843F0010313700F3A137843F0010313701032137843F0010313704FF000530C4A13609B
:40168000A2F5C0721360304600F02EFC70BD00BFE080FF1FAA430040F8460040F9460040915800407758004082580040A143004080E200E008B5084B9B794BB9064BDB7945
:4016C00013F0FF0F01D1FFF727FF0122024B9A71FFF784FF08BD00BF2082FF1F024A137843F0010313707047004E0040024A137803F0FE0313707047004E0040154B1B7857
:4017000003F00303012B07D8134B1888023B1B889BB243EA004013E0022B0AD10E4B1888023B1B7843EA00430C4A107843EA002006E00B4B188883B2074A108843EA004047
:40174000084B1B7913F0FF0F02D00022054B5A71704700BF144E0040124E0040114E0040104E00402082FF1F704700BF084A137843F0080313701032137843F0080313700B
:4017800002F5A5521E32137843F0800313707047A9430040044A137803F0FC0300F0030018431070704700BF0D58004010B487B00446194B03AA1868596803C2197A117020
:4017C0006A4653F80C0F596803C21B7A1370082C1ED812490B7803F08003DBB20B70087806AB1C4414F80C3C14F8182C920002F00C02134303430B70094A137803F0F3030A
:401800001370117814F8183C0B4343F00C03137007B010BC704700BFA41F00000E5800400D58004008B50C22084B1A70084A137843F0200313700022064B1A700520FFF78C
:40184000B5FF0320FFF7A6FF08BD00BF0C5800400D5800400E58004008B5054B1B7823B9FFF7E0FF0122024B1A70FFF77FFF08BD2C82FF1F084A137843F002031370103259
:40188000137843F00203137002F5A5521E32137843F0800313707047A9430040044A137803F0FC0300F0030018431070704700BF0558004010B487B00446194B03AA18687B
:4018C000596803C2197A11706A4653F80C0F596803C21B7A1370082C1ED812490B7803F08003DBB20B70087806AB1C4414F80C3C14F8182C920002F00C02134303430B7036
:40190000094A137803F0F3031370117814F8183C0B4343F00C03137007B010BC704700BFBC1F0000065800400558004008B50C22084B1A70084A137843F020031370802232
:40194000064B1A700020FFF7B5FF0320FFF7A6FF08BD00BF04580040055800400658004008B5054B1B7823B9FFF7E0FF0122024B1A70FFF77FFF08BD2D82FF1F084A13787B
:4019800043F0040313701032137843F00403137002F5A5521E32137843F0800313707047A9430040044A137803F0FC0300F0030018431070704700BF0958004010B487B050
:4019C0000446194B03AA1868596803C2197A11706A4653F80C0F596803C21B7A1370082C1ED812490B7803F08003DBB20B70087806AB1C4414F80C3C14F8182C920002F07F
:401A00000C02134303430B70094A137803F0F3031370117814F8183C0B4343F00C03137007B010BC704700BFD41F00000A5800400958004008B50C22084B1A70084A137867
:401A400043F0200313700022064B1A700120FFF7B5FF0320FFF7A6FF08BD00BF08580040095800400A58004008B5054B1B7823B9FFF7E0FF0122024B1A70FFF77FFF08BD1C
:401A80002E82FF1F084A137843F0010313701032137843F00103137002F5A5521E32137843F0800313707047A9430040044A137803F0FC0300F0030018431070704700BF46
:401AC0000158004010B487B00446194B03AA1868596803C2197A11706A4653F80C0F596803C21B7A1370082C1ED812490B7803F08003DBB20B70087806AB1C4414F80C3CBE
:401B000014F8182C920002F00C02134303430B70094A137803F0F3031370117814F8183C0B4343F00C03137007B010BC704700BFEC1F0000025800400158004008B50C2244
:401B4000084B1A70084A137843F0200313700022064B1A700120FFF7B5FF0320FFF7A6FF08BD00BF00580040015800400258004008B5054B1B7823B9FFF7E0FF0122024B3C
:401B80001A70FFF77FFF08BD2F82FF1F014B188880B2704780400040034B1A7800F0F80010431870704700BF82400040024B187800F00700704700BF8240004070B50546E7
:401BC0000E46FFF7F3FF0446FFF7E0FFA84256D02B4B1B7803F0010294B900B185B938B9284B1D80284A137803F0BF03137070BD254A137843F040031370224B1D8070BDB2
:401C000022B3002321490B7001240F310C7004310B700C390B7803F07F030B701A4B1B7813F0080F00D08DB9194B18800721013B1970164B1B7813F0010FFAD110490B78BF
:401C400003F0FE030B700021104B19700C4B1B7813F0010F0DD00E4B1D800EB1032200E001220A4B1A70094B1B7813F0010FFAD170BD044B1D8002490B7813430B7070BDB0
:401C8000A243004080400040824000400140004002400040014B188880B2704700410040034B1A7800F0F80010431870704700BF02410040024B187800F00700704700BFBE
:401CC0000241004070B505460E46FFF7F3FF0446FFF7E0FFA84256D02B4B1B7803F0010294B900B185B938B9284B1D80284A137803F0BF03137070BD254A137843F0400378
:401D00001370224B1D8070BD22B3002321490B70012413310C7004390B7008390B7803F07F030B701A4B1B7813F0080F00D08DB9194B18800721013B1970164B1B7813F0B3
:401D4000010FFAD110490B7803F0FE030B700021104B19700C4B1B7813F0010F0DD00E4B1D800EB1032200E001220A4B1A70094B1B7813F0010FFAD170BD044B1D80024979
:401D80000B7813430B7070BDA143004000410040024100400140004002400040084A137843F060031370A2F5A652133A137843F0040313701032137843F00403137070471C
:401DC00077580040054B1A7802F0FC021A701A7800F0030010431870704700BF5C58004008B50320FFF7EEFF08BD00BF08B5054B1B7823B90122034B1A70FFF7F1FFFFF714
:401E0000CDFF08BD3082FF1F044A137803F0CF0300F0300018431070704700BF7858004008B5054B1B782BB90122034B1A703020FFF7EAFF08BD00BF3182FF1F044A137846
:401E400003F0CF0300F0300018431070704700BF7A58004008B5054B1B782BB90122034B1A703020FFF7EAFF08BD00BF3282FF1F024B1878C0F38010704700BFC15100402E
:401E8000014B1B68D864704708ED00E04001C0B2014B1870704700BF03E400E00822014B1A60704700E100E00822014B1A60704780E100E010B50446FFF7F6FF2046FFF721
:401EC000DFFF0720FFF7E2FFFFF7E8FF10BD00BF0230800803D000BF01380046FCD17047EFF3108072B6704780F31088704700BF014B1868704700BF4481FF1F0E4B70B5D9
:401F00001E460E4C0025E41AA410A54204D056F8253098470135F8E700F074F8084B094C1E46E41AA4100025A54204D056F8253098470135F8E770BD10200000102000009C
:401F4000102000001820000010B5431E0A44914204D011F8014B03F8014FF8E710BD03460244934202D003F8011BFAE77047000000000000ABC000C0405100403000F05140
:401F80000040100000000140001000140140000800400140000A004C0140000200500140200000000111213141615363730000000809010105070704040000000111213197
:401FC0004161536373000000080901010507070404000000011121314161536373000000080901010507070404000000011121314161536373000000080901010507070432
:4020000004430000F8B500BFF8BC08BC9E4670474D000000750B0000F8B500BFF8BC08BC9E4670472900000038200000C880FF1F8000000090010000000000000500000091
:402040000000E02EC05D00001800000000366E0101000000000000000000000000000000000000000000000000000000000000000000000001200000000000000000000056
:4020800000000000000000000000000000000000000000000000000000000000000000000000000000000000000000000000000000000000E480FF1F00000000000000009E
:4020C00000000000000000000000000000000000000000000000000000000000000000000000000000000000000000000000000000000000000000000000000000000000E0
:40210000000000000000000000000000000000000000000000000000000000000000000000000000000000000000000000000000000000000000000000000000000000009F
:40214000000000000000000000000000000000000000000000000000000000000000000000000000000000000000000000000000000000000000000000000000000000005F
:40218000000000000000000000000000000000000000000000000000000000000000000000000000000000000000000000000000000000000000000000000000000000001F
:020000040003F7
:0200000480007A
:4000000002520040016400400365004001070140630801403A090140391401402E1501403B1601401C1701404F180140321901404C1A0140481B01400640014003410140C3
:400040000342014007430140024401400145014003460140014701400948014008490140084C01400A4D0140075001400251014009200C04880F870D88388972E602000AC0
:4000800001030304040406080C0A1103120A13041D031E081F0C230824012B052D0A2F04300834013606370F38803B803E114046410146E047CB483849FF4AFF4BFF4EF01D
:4000C0004F44500C54015604580459045A045B045C115D115F0166C06A406B02800C82718410864087268C108EAC90DC9158922293069A039B109D629F0CA009A162A2D066
:40010000A31CA414A901AA20AF18B0E0B11EB360B41FB501B908BA02BB02BF14C003C504C9FFCA07CBFFCC40CD20CEF0CF05D008D804D904DA04DC11DD01DF01E040E1A8C8
:40014000E240E32001020220030104080501070109020A040D020F02100811081240161019231A041D401E881F40200421062680270129612A412C082F42310232A033028C
:400180003501368038083F024104460147014A204C04500C54105504561057015D105E8967408740C0BDC29AC42ECABDCC9DCE82D092D220D6F0D8800401100413011B01E5
:4001C0001C071D01240227012E07340737013B80402549FF4AFF4BFF4F0150185280580B590B5A0B5B0A5C995D995F016040624064406540668068806A806C806E80C06525
:40020000C9FFCAFFCBFFCD83CE03CF01D018D608DA08DB04DD99DF01E040E240E440E540E680E880EA80EC80EE80000409821220134018041B1021802B103002318032208C
:40024000400448024C024F205E805F20640567027280734078057F01940497029B209C019E80A002A102A260A710AE40AF28C004C209C405CA02CC0DD004D238D630D8300F
:40028000DE13EC10EE041B012F013501406449FF4AFF4BFF4D834E034F01501859085A085C905D095F016040624064406540668068806A806C806E809A01AE01AF01B50143
:4002C000B601BE40C025C5ECC720C823C9FFCAFFCBFFCD83CE03CF01D018D401D804D90BDA0BDB0BDC90DD99DF01E040E240E440E540E680E880EA80EC80EE8009201002B3
:4003000019402120222027082A802C02362040044502480249054F2050025102594578017F01C202C401CA18CC20D084D228D60BDE11E220000202040601100412021A01ED
:400340001F013001340637013E114063410542024404450C47E0482149FF4AFF4BFF4C624DA04EF04F41500C54185604580459045A045B045C905D115F01664067026910F7
:400380006A306B106D106E106F128403851389138C039005920894129502960897059A039C0B9D109E14A203A41CA81CA901AB26AE03AF08B003B120B303B510B61CB70C79
:4003C000BF40D602D713D804D904DB04DC11DD10DF010004020204080640071009290A010E800F08115519421A011F21212A230A264029603108324036803914471A4E06B1
:400400004F08560159015D02674A69146A807080710472088B40AC10AE01B110B301B404C035C25FC40FCA0CCC1ACE06D0E0D230D681D8B0E220001C020304130508060C98
:400440000C1F0D190F0210011301140215181A031B061C031D191F0420082110240425072718280C29012C1F2D1F3010340F371F38083A203B803E055608580459045B0434
:400480005C115D905F0180068201850488018A068D0C8E088F039006910F920198029B029C049D08A10EA208A301A503A601A70CA806A90CAC07B007B208B50EB701B98097
:4004C000BA02BB02BE04D804D904DC11DF01008601410340051006010740082009290A010CC00E400F0410851104120214251701180419111A181B201C801E401F0420023A
:40050000240826022701284129202B202C042D012F203004312633403460360239443A083B043C803E08588062C0821088809201940C95419608970899249A099D019E4015
:40054000A080A12BA682AB20B521C0DDC2DFC4FFCAEFCCBFCE5AD608D808E001EC103010320836243B10CCF0CE1097109C10A62C97109C10A62C1208862097109C10A62CD6
:40058000C440E6407D20DE01A5104508A510D001A51825102A102B08881097109C10A604C820CA10AA04AE10AF18B510E840EA10EC40EE20001062019A01A518B601C002BF
:4005C000D802EC02101081108810A510B410B508C408E204EA08EC0800020C02100211011B011C021D0100EF01030000000000000000FF0040000000000000002000040B2F
:400600002B002000000000000002020000000000000000000000FC001600180100000000000000000000000000000000000000000000000000000000000000000000000040
:40064000000000000000000000000000000000000000000000000000000000000000000000000000000000000000000000000000000000000000000000000000000000007A
:40068000000000000000000000000000000000000000000000000000000000000000000000000000000000000000000000000000000000000000000000000000000000003A
:4006C00000000000000000000000000000000000000000000000000000000000000000000000000000000000000000000000000000000000000000000000000000000000FA
:4007000000000000000000000000000000000000000000000000000000000000000000000000000000000000000000000000000000000000000000000000000000000000B9
:0200000490006A
:0400000000004005B7
:0200000490105A
:04000000BC90ACAF55
:0200000490303A
:02000000735734
:0200000490402A
:4000000000000000000000000000000000000000000000000000000000000000000000000000000000000000000000000000000000000000000000000000000000000000C0
:400040000000000000000000000000000000000000000000000000000000000000000000000000000000000000000000000000000000000000000000000000000000000080
:400080000000000000000000000000000000000000000000000000000000000000000000000000000000000000000000000000000000000000000000000000000000000040
:4000C0000000000000000000000000000000000000000000000000000000000000000000000000000000000000000000000000000000000000000000000000000000000000
:0200000490501A
:0C00000000012E16106900012E2383C0A1
:00000001FF