:4000000000800020110000002D1100002D11000008B5044B1A6803F53F5302331A6001F08DF800BFFA46004010B5054C237833B9044B13B10448AFF300800123237010BD75
:400040009081FF1F0000000018410000084B10B51BB108490848AFF300800848036803B910BD074B002BFBD0BDE81040184700BF000000009481FF1F18410000C880FF1FC0
:400080000000000010B582B062B600F0CBFB012000F0D4FB002000F0E1FB314803F00EFC304800F053F900F071F82F4B1B788DF804302E4B1B788DF80530022201A91020A2
:4000C00000F0DAFB00221146112000F0D5FB00F04BF900F021FB00221146132000F0CCFB00F0C6F8002400F081FA5CB900F0AAFA40B100221146122000F0BEFB00F07EF99C
:40010000012404E01CB100F09DFA00B90024184B1B7813F0FF0FE6D00022154B1A7000F095FA0028DFD013490B7803F00102124B1B785B0003F0020313430A7812F0FF0F66
:4001400004D00E4A107840B200B202E00C4A108800B20C4A11680C4A126800F01BF9C2E759060000D480FF1FCD80FF1FCC80FF1FB081FF1F928DFF1F918DFF1F908DFF1FB0
:40018000968DFF1FB881FF1FB481FF1F38B54FF480431A460121032003F058FB2E4D287002F0BAFE02462D4C20700723032102F0CDFE4CF2A07244F61061207802F0DAFE00
:4001C0002178287802F07AFE41F6FF734FF480420121032003F066FC214D287002F09CFE024660700323194602F0B0FE1D4A92B244F61061607802F0BDFE6178287802F0FF
:400200005DFE41F6FF734FF480420121032001F0BDF8154D287002F07FFE0246A0700723032102F093FE114A92B24CF2A871A07802F0A0FEA178287802F040FE0021084642
:4002400001F060F80021012001F080F80021042001F07CF838BD00BF2581FF1FAC81FF1F2781FF1FB881FF1FEC80FF1FB481FF1F08B501F039F801210C4B187802F0B0FD9C
:4002800001210B4B187802F0ABFD0121094B187802F0A6FD0121042003F09EFA032003F087FA03F0FFF903F08FFA08BD2581FF1F2781FF1FEC80FF1F70B50446431EDBB2FC
:4002C000032B00D90424012C00D10121022C09D0032C03D0012C03D1012004E0032002E0042000E00220072906D8032907D8012908D90126022507E00326082504E00226BA
:40030000042501E000260125012103F065FA304603F04EFA024B1C70024B1D7070BD00BFCD80FF1FCC80FF1F072905D8032905D8012905D8002304E0032302E0022300E09D
:40034000012300F00F0040EA03107047054B1B78032B05D8034A591C117002EB83035860704700BFBC81FF1F10B5094B00241C755C7508E0064B03EB84035B681B6803B1F2
:4003800098470134E4B2024B1B789C42F2D310BDBC81FF1F2DE9F04782B0154C247D24B3994690460F468246124B1878124B1978FFF7BAFF0646002413E00D4D05EB8405FE
:4003C0006D682B7C5BB1AB684BB1984738B1ED682DB100964B46424639465046A8470134E4B2034B1B789C42E7D302B0BDE8F087BC81FF1FCD80FF1FCC80FF1FF0B585B09C
:400400000D4B1C78E4B20D4B1D78EDB20C4B1E7D00F01EFA074600F029FA0A4B1B780A4A12780292019300903B4632462946204600F004FB05B0F0BDCD80FF1FCC80FF1FE2
:40044000BC81FF1F928DFF1F918DFF1F70B582B004460E46154602A901F8040D0122302000F00AFA013C072C54D8DFE804F0040D151B21354A4F0122284B1A750022114617
:40048000202000F0F9F945E00021244B19750A46212000F0F1F93DE0002D3BD0307800F07FF937E0002D35D0307800F08DF931E0012D2FD971783078FFF7FEFE184B1B78E0
:4004C0008DF80430174B1B788DF80530022201A9602000F0D1F91DE06B1E9BB240F6B732934217D82946304600F07AF92B0A8DF804308DF80550022201A9502000F0BCF9E3
:4005000008E03DB1307800F099F903E015B1307800F0A4F9FFF772FF02B070BDBC81FF1FCD80FF1FCC80FF1F10B52F4B5B7D042B59D8DFE803F003090E2B3D00BB2852D1AE
:400540000122294B5A7510BD274B987502225A7510BD254B9B7D062B04D1234BD87503225A7510BD48B9204C002204F118011846FFF76CFF0023637510BD1B4BA3F8D00BFF
:400580000022A3F8D22B04225A7510BD164AD37D40EA0320A2F8D00B0023A2F8D23B18B91A46114B5A7510BD04220F4B5A7510BD0D4BB3F8D22B40F6B7339A4202D80A4B13
:4005C00013441876013292B2074BA3F8D22BB3F8D03B9A4207D3044C04F11801A07DFFF735FF0023637510BDBC81FF1F30B591B0002408E0124B03EB84035B685B6803B143
:4006000098470134E4B20E4B1B789C42F2D301F06BF990B101F09AFB78B1684601F0AEFB0546002407E010AB234413F8400CFFF77BFF0134A4B2AC42F5D311B030BD00BF07
:40064000BC81FF1F08B500F02BFA08BD014B187D704700BFBC81FF1F0122014B1A707047B081FF1F704700BF70B503F083FB124B1B78DBB2012B1ED1104D2B889BB2104A7C
:40068000D45C6642F6B2204600F0EAFE304600F07DFF803C64B20B4B1C702B889BB201339BB22B802A8892B2074B1B889BB29A4201D300222A8070BD928DFF1F948DFF1F5D
:4006C000CC8DFF1F908DFF1FCE80FF1F38B541F6FF734FF480420121022003F0C5F90B4D287002F019FC0246094C20700723022102F02CFC074A92B245F6A031207802F096
:4007000039FC2178287802F0D9FB38BD2681FF1F988DFF1F968DFF1F38B500F055FE00F0E9FE002000F06CFE002000F0FFFE0024134B1C70134B1C7000F0CAFE00F05EFFBC
:40074000802000F08DFE802000F020FF80220E4B1A7001250D4B1D800D4B1C80FFF7B6FF0C4803F0D7F903F06FF929460A4B187802F036FB094803F077FB03F049FB38BDA5
:40078000928DFF1F918DFF1FCC8DFF1FCE80FF1F948DFF1F650600002681FF1F6906000001280DD810B5044600F02AFE054B1C702CB9802000F054FE802000F0E7FE10BDE5
:4007C000704700BF928DFF1F012806D810B5044600F0ACFE014B1C7010BD7047918DFF1F38B505460C4603F037FB40F6B8339C4200D91C46002304E0E95C074AD15401331F
:400800009BB29C42F8D8054B1C800022044B1A8003F01AFB38BD00BFCC8DFF1FCE80FF1F948DFF1F0022034B1A700122024B1A70704700BF998DFF1FD080FF1F08B10122F0
:4008400000E00022014B1A70704700BF998DFF1F014B1878704700BF998DFF1F022801D8014B1870704700BFD080FF1F014B1878704700BFD080FF1F0E4B1B78CBB170B548
:4008800015460E4604460C4B1B780BB1022B04D12A463146204600F0A3F8074B1B78013BDBB2012B04D82A463146204600F014F870BD7047998DFF1FD080FF1F10B44840DE
:4008C00080F0DD00002303E0D45C60400133DBB28B42F9D310BC704770B582B006460C461546DD238DF804308DF805008DF80620032101A803F07CFB25B11CB1294620460B
:4009000003F076FB0CB901AA00E0224629463046FFF7D4FF03F060FB02B070BD10B400231A4603E0C45C62400133DBB28B42F9D3104610BC704700BF10B4484080F0DD0049
:40094000002303E0D45C60400133DBB28B42F9D310BC7047704700BF08B500F0C5FF034620B101F0FFF9034600B10123184608BD10B584B0AA248DF804408DF805308DF8CA
:400980000600C0F307208DF807008DF80810C1F307238DF80930C1F307418DF80A108DF80B20C2F307238DF80C30C2F307428DF80D209DF818308DF80E300B2101A8FFF78C
:4009C000ADFF8DF80F000C2101A801F097F904B010BD00BF08B50121002000F04DFF08BD70B582B006460C46154600F07DFF10B301F0B8F9F8B1DD238DF804308DF80560B3
:400A00008DF80650032101A801F078F925B11CB12946204601F072F90CB901AA00E0224629463046FFF788FF02AB03F8050D0121184601F063F902B070BD00BFF0B585B0BF
:400A400007460E4615461C4600F04EFF30B301F089F918B3CC238DF8043007238DF805308DF806708DF807608DF808508DF809409DF828308DF80A309DF82C308DF80B303F
:400A80009DF830308DF80C30092101A8FFF746FF8DF80D000A2101A801F030F905B0F0BD08B500F021FF034600B10123184608BDFEE700BFF0B40022174611E050F82760FB
:400AC000F3B226F0FF0608E001EB420511F812406D78A5550132013BDBB2002BF4D10137222FEBD9F0BC704708B50A46002103F00AFB08BDF8B5394B1B78DBB2384E3478D7
:400B0000E4B2384F3D78EDB203F00701364A11701B090132137044F00303337045F003033B7046F21002314B1A80142211331A70C02210331A70A42210331A7048F2800249
:400B40001F331A800C2203F5E2631A70802295331A700423264A13700732137009321370012224490A7008200A31087007310B7009310A702021204A1170022002321070BE
:400B80004022DFF884E08EF800200EF1020E8EF800301A4B1A700133187024331A700433197041F204021E331A80154A1E331A60262204331A7040F2054202331A8092228E
:400BC00012331A70062202331A700A2002F0E2F93D70347044220B4B1A70F8BDCF010049F8460040F94600406E5800400C510040005A0040165A0040345A0040DB5A0040B6
:400C00000501050276580040CC5A004008B503F06FFA08BD38B500242F4B1C80502202331A70332202331A80182202331A7008222A492B48FFF7EAFF06222A4B1A70522256
:400C4000A3F580731A70284B1B78DBB2274A13704FF4E162264B1A8041F25122023B1A8019250CE0234B1B7803F0010343EA440404F003044FF4F07003F0CEF9013D0DB1DF
:400C8000032CEFD115B90320FFF712FF1A4A4FF48073138007231370002318490B704820023108701370053213700222144B1A7004220A331A70134A137843F00303137086
:400CC000013A137843F003031370013A137843F08003137038BD00BF804000406406004800410040004300400F010049A14600402242004025420040044000400640004034
:400D000001400040A24300400123834001281FD8DBB2104A127813421AD110B40D4913430B700D4B53F820201844047A137823431370037B19440A7922B908490A7842F0FB
:400D400002020A70034A13441A7901321A7110BC704700BF9C8DFF1F244100002D5100400123834001281FD8DBB2104A127813421AD010B40D4922EA03030B700C4B53F854
:400D800020201844047A137823EA04031370037BCA181379013BDBB2137123B9054A137823F00203137010BC704700BF9C8DFF1F244100002D510040012818D810B44000A4
:400DC000C0B20B4B03EB800211691A1892F820400A7822430A700130C0B203EB80021269184490F8201013780B43137010BC70472441000001281AD810B44000C0B20C4BF6
:400E000003EB800211691A1892F820400A7822EA04020A700130C0B203EB80021269184490F82010137823EA0103137010BC704724410000012818D810B44000C0B20B4B10
:400E400003EB8002516A1A1892F834400A7822430A700130C0B203EB8002526A184490F8341013780B43137010BC70472441000001281AD810B44000C0B20C4B03EB800223
:400E8000516A1A1892F834400A7822EA04020A700130C0B203EB8002526A184490F83410137823EA0103137010BC70472441000001238340012822D8DBB2114A5279134229
:400EC0001DD110B40E4913434B710E4B03EB8002926B184490F8404013782343137090F8443019440A7A22B907490A7842F001020A70034A13441A7A01321A7210BC704786
:400F00009C8DFF1F244100003D51004001238340012822D8DBB2114A527913421DD010B40E4922EA03034B710D4B03EB8002926B184490F84040137823EA0403137090F87C
:400F40004430CA18137A013BDBB2137223B9054A137823F00103137010BC70479C8DFF1F244100003D51004038B572B64D4A137843F00403137000240CE04B4863001A19C6
:400F8000510001440A46B1F84C10906CFFF7ACFD0134E4B2052CF0D900240BE04249A3001819420088180622016FC06EFFF72EFE0134E4B2002CF1D03C494FF09040FFF76C
:400FC00079FD0A253A4B1D70012203F521731A7004213848FFF788FD042237493748FFF715FE042236493748FFF710FE042236493648FFF70BFE042235493648FFF706FE4D
:40100000042235493548FFF701FE042234493548FFF7FCFD344A137843F0020313701032137843F002031370304C237843F040032370A2F58632513A137843F010031370F1
:4010400008222B492B48FFF7E1FD2A462A492B48FFF7DCFD2A462A492A48FFF7D7FD082229492A48FFF7D2FD082229492948FFF7CDFD082228492948FFF7C8FD284A1378E3
:4010800043F008031370274D61232B70FFF7C2FD81232B70FFF72EFD0E2221462248FFF7B5FD38BDE8460040244100008C00004883580040007600406C06004850760040F1
:4010C0007006004808760040740600481076004078060048187600407C06004820760040800600484076004003500140A04300402C0600480251004034060048C05100405D
:4011000040060048F05100404C0600481251004054060048225100405C060048325100402243004000480040B043004008B502F0B3FF03680C2B00D1FEE7FEE708B5104E88
:40114000104D16E029686B68AC68002204E051F8040B43F8040B0432A242F8D1E868002203E0002143F8041B04328242F9D11035013E002EE6D102F095FFFEF783FFFEE73A
:40118000010000008049000008B5114A114B1A60114A136843F40073136000230AE0032B03D80E4A52F8231000E00D490D4A42F8231001332F2BF2D90B4B1A780B4B1A707E
:4011C000084A0B4B1A60FFF7CFFE01F0EFFD08BD0004FA050CED00E014ED00E0000000002D1100000080FF1FBC760040C080FF1F08ED00E0F8B5244A137843F010031370BB
:4012000002F50342DA32137803F0FE0313703F2308321370043213701C4D4FF48074224629461B4802F064FF22462946194802F05FFF22461849194802F05AFF4FF40074A9
:4012400022461749174802F053FF22461649174802F04EFF164C174E04F14007354620686168A268E3680FC510342E46BC42F5D10020114B187000F079F8012000F07EF83E
:40128000F8220E4B1A70F8BDA6430040DC46000000C4004000C500409C41000000C60040DC44000000C00040DC42000000C200409C42000000C700408CC7004084C7004002
:4012C000084A137843F0100313701032137843F01003137002F50342CA32137843F0010313707047A643004008B5054B1B7823B9FFF780FF0122024B1A70FFF7E1FF08BDCF
:40130000A58DFF1F68B9104B1A7802F0CC021A701A780A431A701A780901C9B211431970704701280ED1084B1A7802F033021A7018788A00D2B202431A701A788901C9B24F
:4013400011431970704700BFB0C70040012904D1054B1A7810431870704721B9024A137823EA000010707047B4C7004000F01F00014B1870704700BF98C7004000F00F0049
:40138000014B1870704700BF9CC70040F0B583B016461F460B4C082525700023019300932B460A460146284601F094FD3A463146207801F069FD0221207801F053FD2078D2
:4013C00003B0F0BDEC80FF1F10B5002407E02046FFF7C6FC2046FFF70DFD0134E4B2012CF5D9FF22014B1A7010BD00BFED80FF1F10B50446FFF7B4FC2046FFF7FBFC10BD06
:4014000010B50446074B1878FF2801D0FFF7F0FF2046FFF779FC2046FFF7CEFC014B1C7010BD00BFED80FF1F054A137843F0020313701032137843F002031370704700BF65
:40144000A8430040054B1A7802F0FD021A701A7800F0020010431870704700BF24580040014B1870704700BF815B0040064B1B78C3F3810303F19243063393F83031DBB254
:40148000024A1370704700BF245800400946004008B5064B1A7802F0F3021A701A7800F00C0010431870FFF7E1FF08BD2458004010B50024054B1C7001331C702046FFF7EA
:4014C000E7FF2046FFF7BEFF10BD00BF2458004008B5074B1B7823B9FFF7EAFF0122044B1A70FFF7A1FF6420FFF7BAFF08BD00BFA68DFF1F10B5002407E02046FFF7B8FCCE
:401500002046FFF703FD0134E4B2012CF5D9FF22014B1A7010BD00BFEE80FF1F10B50446FFF7A6FC2046FFF7F1FC10BD10B50446074B1878FF2801D0FFF7F0FF2046FFF793
:4015400079FC2046FFF7B4FC014B1C7010BD00BFEE80FF1F054A137843F0010313701032137843F001031370704700BFA8430040054B1A7802F0FD021A701A7800F002005D
:4015800010431870704700BF20580040014B1870704700BF805B0040064B1B78C3F3810303F19243063393F82031DBB2024A1370704700BF205800400846004008B5064B9B
:4015C0001A7802F0F3021A701A7800F00C0010431870FFF7E1FF08BD2058004010B50024054B1C7001331C702046FFF7E7FF2046FFF7BEFF10BD00BF2058004008B5074BF9
:401600001B7823B9FFF7EAFF0122044B1A70FFF7A1FF6420FFF7BAFF08BD00BFA78DFF1FF8B502F001FD0546494A137843F0010313701032137843F0010313700127454BC2
:401640001F700226943B1E7002F5E2521B32137803F07F031370002001F09CFC3E4C237803F0F90323703D4A137803F0DF03137023783B432370384601F08CFC282001F0C5
:4016800089FC374B1A7802F07F021A701A7802F0BF021A70237833432370304601F07AFC237843F00403237000232E4A13700132137006E0FF222C49CA542C49CA540133A7
:4016C0009BB2082BF6D9284602F0B2FC0721172001F07EFC2649172001F066FC0721182001F076FC2349182001F05EFC0721152001F06EFC2049152001F056FC0721022035
:4017000001F066FC1D49022001F04EFC0721032001F05EFC1A49032001F046FC0721042001F056FC1749042001F03EFC0021162001F04EFC1449162001F036FC07210C206A
:4017400001F046FC11490C2001F02EFCF8BD00BFA54300409D6000409443004012600040F851004084600040E099FF1FD499FF1F15230000FD200000112300007122000008
:40178000A1220000D52200001D2300004524000010B50C46294B18700023294A1370294A1370294A1370294A1370294A1370294A1370294A1370294B4FF400021A604FF064
:4017C00080721A604FF400121A6004221A6008221A6010221A600721214A11704FF480021A6050221F4B1A701F4802F0D3FB02F06DFB02F0E3FB14B1012C06D00BE01B4A9C
:40180000137803F0FE0313700AE0184A137843F00103137004E0154A137843F0010313700322134B1A708022203B1A70012002F0F3FB04220F4B1A7010BD00BF189AFF1F92
:401840001E9AFF1F1C9AFF1F1D9AFF1F199AFF1F049AFF1F1B9AFF1F949AFF1F00E100E09E6000409C600040C123000009600040286000401260004038B504460D46064B20
:401880001B7823B9FFF7CCFE0122034B1A7029462046FFF77DFF38BDA88DFF1F00230A4A13700A4A13700A4A13700A4A13700A4A13700A4A13700A4A13700322094B1A7068
:4018C0008022203B1A7070471E9AFF1F1C9AFF1F1D9AFF1F199AFF1F049AFF1F1B9AFF1F949AFF1F28600040014B1878704700BF1D9AFF1F00EB40008300024A134458786F
:40190000704700BF289AFF1F10B5044600EB400398001A4B1844037913F0800F03D00A0C4FF4804302E00B0C4FF48042022C0AD0032C0FD0012C13D10121202002F0F2FA59
:401940000F4B18550CE00121202002F0CDFA0C4B185505E00121202002F094FA084B1855631EDBB2072B07D801F0D6FA054B185501F0D2FA044B185510BD00BF289AFF1FCC
:40198000A899FF1FE099FF1FD499FF1FE9B91E490B5CDB0003F1804303F5F0431B4A32F8102092B2203A92B21A800B5CDB0003F1804303F5F043164A52F82020203292B29A
:4019C0009A800122134B1A5414E00F4A135CDB0003F1804303F5F04302211980135CDB0003F1804303F5F043094A52F820201E3292B29A80084B1A5C084B03EB0213024A87
:401A0000125C5A72704700BFE099FF1FB499FF1F8499FF1FC899FF1FA899FF1F10700040431EDBB2072B00F2A7802DE9F04715460E46044600EB40029300504A1344DB7898
:401A400043EA15234E49020188188B54EBB243704C4B1B5DFF2B03D131462046FFF754FF002E43D0484F385D01F0D6F9474B23F81450474B43F82460DFF80881DFF82491EA
:401A8000112319F804202946202D28BF202118F8040001F05BFA4FEA041A0AF108023D4D2A4492B2B1B218F8040001F063FA19F80400394B1B5D0246012101F047FA0AEB80
:401AC000050292B2354989B219F8040001F052FA385D01F0B3F918F80410385D01F0EEF90121385D01F07CF9BDE8F08704EB44029300224A134400225A70002D30D0234B82
:401B000023F81450264B1A551F4E305D01F084F91C4F1123234A125D2946202D28BF2021385D01F013FA220108321A4D2A4492B2174B33F82410385D01F01CFA305D01F09B
:401B40007DF9395D305D01F0B9F90121305D01F047F924012B5D43F001032B55BDE8F08704EB44029300054A13445A79D2B224010D4B1A55BDE8F087704700BF289AFF1FA6
:401B8000FC5F0040E099FF1FA899FF1FB499FF1F8499FF1F70600040DC470000EF80FF1FC899FF1FD499FF1FFE5F00402DE9F04171B3044615460F4660B308282CD8184B78
:401BC0001B5CFF2B01D1FFF79FFE164E305D01F023F9DFF84C8018F8040012230246294601F0B4F923011049194489B2BAB218F8040001F0BFF9305D01F020F918F80410A7
:401C0000305D01F05BF90121305D01F0E9F804E0002502E0002500E000252846BDE8F081E099FF1FA899FF1F7860004010B4FF2400230EE0094AD25C02EB42029100084A1D
:401C400011448A7AD2B2824201D11C4602230133DBB2012BEED9204610BC7047FC99FF1F289AFF1F10B5204C2079FFF7DFFF237813F0800F0ED06378DBB2212B2FD11B4B77
:401C800007221A80C0EBC000194A1044586000F0A3FA10BD144B5B78DBB2202B02D0222B10D01EE0114A07231380C0EBC00310490B4453600F4A135C43F00103135400F0EF
:401CC000B3FA10BD084B9B780B4A22F81030094A135C43F00203135400F03CF910BD002010BD002010BD00BF006000400C9AFF1FF080FF1FF499FF1FEC99FF1F70B50646B8
:401D00000D460F4B1B780F4AD45CE4B204EB440293000D4A13441B899BB28B4209D204EB44029300084A13441D89ADB2002001F02FF92A4631462046FFF772FE70BD00BFE7
:401D4000A98DFF1F009AFF1F289AFF1F08B5034B1B78034AD05CFFF7CDFD08BDA98DFF1FF899FF1F08B5034B1B78034AD05CFFF7C1FD08BDA98DFF1F009AFF1F08B5084B2C
:401D80001B78084AD35CDBB203EB43018A0006490A44128992B201461846FFF707FF08BDA98DFF1FF899FF1F289AFF1FC37803F0030390F9020000280FDA032B06D002F03B
:401DC00001030B48C15442F001020EE0C2F380030848C15442F0040207E0032B05D0C2F340030548C15442F002021046704700BF009AFF1FFC99FF1FF899FF1F1D4B197826
:401E00001D4A13889BB20B449BB2138000220FE01A494B681B78DBB2194883544B6801334B600132D2B20B889BB2013B9BB20B80124B1B889BB20BB1072AE9D90D4B1B7881
:401E4000DBB2082B00D05AB10E490B7883F080030B700F210C4B197002210C4B197004E0022309490B7009490B70094B1A70014B1A707047949AFF1F9A9AFF1F0C9AFF1FF9
:401E8000006000401A9AFF1F059AFF1F1E9AFF1F959AFF1F0222074B1A708022064B1A700F22064B1A700023054A1370054A1370012070471E9AFF1F1A9AFF1F059AFF1F43
:401EC000949AFF1F959AFF1F08B5FFF797FF08BD10B4194B197801F00F010239C9B2174A13889BB20B449BB21380002011E0144A5468144B1B5CDBB2237053680133536090
:401F00000130C0B20139C9B213889BB2013B9BB213800B4B1B889BB20BB10029E7D10A4B19700A4A137883F0800313700B22084B1A7010BC704700BF296000409A9AFF1FC5
:401F40000C9AFF1F00600040959AFF1F1A9AFF1F059AFF1F0623064A1370064A13708022054B1A700022054B1A700120704700BF1E9AFF1F059AFF1F1A9AFF1F959AFF1F91
:401F8000064B9B6843B1054B9A6810709A6804490988518000229A60704700BF0C9AFF1F9A9AFF1F08B5134B1A78D2B21A701B78DBB213F0800F02D00F4A137008BD0220AC
:401FC000FFF7DEFF0D4B1B7803F06003202B05D0402B06D043B900F02BFD06E002F02CF803E000F0CFFE00E0002010B90322024B1A7008BD28600040059AFF1F006000400D
:4020000008B5094B1978094A13889BB20B449BB213800022064B1A700120FFF7B1FF0322044B1A7008BD00BF949AFF1F9A9AFF1F1E9AFF1F059AFF1F08B50B4B1B78DBB2EA
:40204000042B06D0062B07D0022B0BD1FFF7D8FF08BDFFF73DFF08BD0320FFF791FF0322024B1A7008BD00BF1E9AFF1F059AFF1F08B50022044B1A700120FFF781FF032291
:40208000024B1A7008BD00BF1E9AFF1F059AFF1F08B50B4B1B7813F0FF0F07D0084A137843F0800307490B70002313700022064B1A700120FFF764FF0322044B1A7008BD66
:4020C000049AFF1F086000401E9AFF1F059AFF1F08B5094B1B78DBB2042B06D0062B07D0022B07D1FFF7F0FE08BDFFF7C1FF08BDFFF7CEFF08BD00BF1E9AFF1F08B5284B35
:402100001B78DBB213F0100F48D013F0800F0CD003F00F03012B16D1FFF744FF214B1B7813F0800F11D1012312E013F0400F03D0FFF7CEFF01230BE013F0200F07D0FFF707
:402140007BFF012304E0002302E0002300E0002323B3134B1B7813F0800F1FD1124B1B78124A12781343124A13701278D2B2934214D10C4B1B78DBB2094A127812F0800FB1
:4021800007D1084B1B78DBB2054A1370137803F00F03044A1278D2B29342EAD108BD00BF28600040059AFF1F1A9AFF1F959AFF1F296000400022064B1A80064B9B682BB158
:4021C000044A916800230B7092685380704700BF9A9AFF1F0C9AFF1F08B50F4B1B889BB213B9FFF757FE15E002220C4B1A7000220B4B1A70FFF7DEFF0A4AD179937943EADD
:402200000123054A128892B2934201D2024A1380FFF7F4FD012008BD0C9AFF1F1E9AFF1F1A9AFF1F0060004008B504220B4B1A7080220B4B1A70FFF7BDFF0A4AD17993794C
:4022400043EA0123084A128892B2934201D2064A13800B22054B1A70012008BD1E9AFF1F1A9AFF1F006000400C9AFF1F059AFF1F0122094B1A700F3B9B7C084B1B7B03F05E
:402280000303934204D0054AD37B83F08003D3730122024B5A7370470B600040289AFF1F02220A4B1A700F3B93F82230084B1B7E03F00303012B04D0054AD37E83F0800372
:4022C000D3760122024B5A76704700BF0B600040289AFF1F04220C4B1A700F3B93F832300A4B93F8243003F00303012B06D0074A92F8273083F0800382F827300122034B7D
:4023000083F82520704700BF0B600040289AFF1F704700BF08B5FFF7C1FA08BDF8B5214B1F78FFB2012439E017F0010F33D0264622011D4B13449A785D78154015F0010FDB
:4023400026D004EB44029300184A13441B7913F0800F1DD0144922018B5C03F0FE038B54134B33F814309BB2202B04D900212046FFF70CFB02E001220E4B1A5506EB4602CD
:4023800093000A4A13445A79D2B231010A4B5A5436010A4B9D550134E4B27F08002FC3D1F8BD00BF9F60004070600040289AFF1FB499FF1FC899FF1FFE5F00407260004084
:4023C0002DE9F04101F07CFD00F07F0501F0F0FD00F0030601242BE015F0010F1ED02201154B9B5C13F0010F18D1144B1B5D13F0FF0F13D1DFF84880174642440023537103
:402400006301023BDBB2137101212046FFF7BEFA18F8073043F0010308F807300134E4B26D08002DD8D1760802D006F001050824002EF6D1BDE8F08172600040C899FF1FD5
:402440007060004008B500F0A9FC08BD70B588B0054603AC174E0FCE0FC43368237035B322232B7003236B7001A800F0C9FD002402231AE008AA224412F81C2C08A901EB29
:40248000121111F8141CE954581C00212954981C02F00F0208AE324412F8142C2A54DA1CA9540134E4B20433DBB2212BE2D908B070BD00BFE847000070B4002401232EE0F0
:4024C00026491A018D180C268E541D226A7003EB43018A0022490A44527912F0FF0F17D003EB43018A001E490A44127912F0800F03D018011B4A16540FE01801194A08216D
:4025000011545A1E0121914041EA0402D4B204E01901154A0A44802191700133DBB2082BCED95522114B1A70202230331A70002201331A7007222F3B1A7001331C700D33A3
:402540001A7842F080021A701A7802F07F021A70FF22923B1A7070BC704700BF70600040289AFF1FFE5F0040FC5F00408C600040074B1A78074B03EBC2035B681A7C824288
:4025800004D9C000103018444068704700207047189AFF1FFC470000F8B5474B1B7813F0FF0F00F08780444B18780138C0B2FFF7DFFF047AC268414B1878C0B2002377E071
:4025C0001178884271D13E49095CC9B25578A9426BD1957805F07F05D67806F00306DFF8E4E0690029448F000EEB07014FF0000C81F803C092F802C081F804C092F803C0BA
:402600000EF807C097880F8192F9021000290DDA012E01D1072700E00D276E002E44B100284E31444F7101264E700CE0012E01D1052700E009276E002E44B100214E31446F
:402640004F7100264E7029011F4E012777541F4F7E5C06F0FE067E54691E4900C9B21C4E3170317841F0010131701949097811F0100FFAD092F90210002908DA154F3E78B6
:40268000013D0121A94026EA0101397008E0114F3978013D012606FA05F52943C9B239700B4D297801F0FE01297008320133DBB2A34285D3F8BD00BF1D9AFF1F199AFF1F5A
:4026C000089AFF1F289AFF1FFE5F004070600040146000408F600040034B1A78034B03EBC2035868704700BF189AFF1FFC47000008B5084B18780138C0B2FFF739FF30B126
:4027000042681279023200EBC203586808BD002008BD00BF1D9AFF1F2DE9F843002310E0664D5900CA189600AC190022AA55A270E2702281A272627034462C4462710133D6
:40274000DBB2082BECD940B90AE000225C49CA545C49CA540133DBB200E00023012BF4D9594B1B7813F0FF0F00F0A580564B18780138C0B2FFF7FCFE06464368DB7913F015
:40278000400F05D0514A137843F00103137004E04E4A137803F0FE031370357A4FF0000901246EE0F068002367E0817801F07F018C425FD1A64604EB4407B9003F4F394419
:4027C000098989B28788B94206D204EB440C4FEA8C013A4A11440F810178394F795CC9B24778B94246D190F802C0344F4FEA4E03734499007B1883F804C0C3787B54C378DC
:4028000003F0030390F90210002914DA012B02D14FF0070801E04FF00D08284F4FEA4E0303EB0E0C4FEA8C01394481F805800B460121597013E0012B02D14FF0050801E0C6
:402840004FF009081D4F4FEA4E0303EB0E0C4FEA8C01394481F805800B460021597083790A2B01D0022B0AD14A462146FFF79EFA814604E008300133DBB2AB4295D30134D1
:40288000E4B2082C8ED9F06800220CE0837803F07F0310F8084B03EB43039900074B19448C720132D2B2AA42F0D3FFF721FF084B1860FFF701FEBDE8F88300BF289AFF1F41
:4028C000089AFF1F989AFF1F1D9AFF1F1B9AFF1F249AFF1F08B5154B1B7903F07F035A1ED2B2072A20D8590019448A0010490A44917841F0010191700021D170517841F079
:4029000002015170127912F0800F05D01B01094A1A448D23937004E01B01064A1A4489239370FFF717FB08BD002008BD00600040289AFF1FFC5F0040274B1B7903F07F03BD
:402940005A1ED2B2072A44D810B5590019448A0022490A44917801F0FE0191700021D1701F4C1801215C01F07F012154517801F0FD015170127912F0800F13D003EB430163
:402980008A0016490A445278D2B2012A04D1224602440C23937019E01B01114A1A440D23937013E003EB43018A000C490A445278D2B2012A05D11B01094A1A440823937015
:4029C00004E01B01064A1A4409239370FFF7C2FA10BD0020704700BF00600040289AFF1FFC5F004010B50E4B1C79E4B20D4B18780138C0B2FFF7BCFD43681B799C4201D948
:402A0000022C0AD8084A135DDBB208490B55044B9B78DBB21355012010BD002010BD00BF006000401D9AFF1F089AFF1F989AFF1F10B59C4B1B78DBB200219B4A118013F0AA
:402A4000800F00F0AD80974A5278D2B20A2A00F27481DFE812F06900720172017201720172010B007201920072019A008D4BDB78DBB2012B09D1FFF72FFE42688A4B5A60B8
:402A800012221A80FFF7A8FB10BD864BDB78DBB2022B13D1834B9878FFF76AFD002800F04E814268804B5A605A68D1785A68927842EA01221A80FFF78FFB10BD794BDB78AB
:402AC000DBB2032B05D02CE00A7811440133DBB201E000237549734A9278D2B2934203D20A7812F0FF0FEFD16E4B9B7813F0FF0F0BD06C4B9B78DBB26D4A127C934204D19B
:402B00006C4C2046FFF7A2FC21460B7813F0FF0F00F017810B78644A13805160FFF75CFB10BD01F089FA10BD13F0030317D0022B40F009815C490B805A4B1B7903F07F03DB
:402B400003EB43039A005C4B1A449278D2B25B4B1A7000225A704B60FFF73EFB10BD524902230B80564B1A78D2B2544B1A7000225A704B60FFF730FB10BD4B4B01221A802E
:402B8000504A5A60FFF728FB10BD474A01231380444B1B794C490B445360FFF71DFB10BD404A5278013A0A2A00F2CF80DFE812F04C00CD009800CD000B00CD00CD00CD0041
:402BC0001300CD003000374B9B78DBB23F4A1370FFF7C0F910BD334B9B7803F0FF041BB1601EC0B2FFF7C4FC04B110B9002C40F0AE80344B1B78DBB29C4206D0314B1C70BF
:402C00000120334B1870FFF787FDFFF7A3F910BDFFF7E8FE002800F09C80224A1379DBB21279D2B22B490A702B4AD25CD2B22649CB5CDBB29A4204D00122254B1A70FFF7F5
:402C4000ABFCFFF787F910BD03F00303012B17D04BB1022B7FD1134B9B7813F0FF0F7CD1FFF76AFE10BD0F4B9B78DBB2012B76D1134A137803F0FD031370FFF76BF910BDF9
:402C8000084B1B79DBB2012B6BD8064B98781B79DBB21249CA5C22EA0002CA54FFF75AF910BD00BF006000400C9AFF1F6448000048490000AC9AFF1F289AFF1FAC8DFF1FF1
:402CC0001B9AFF1F1D9AFF1F089AFF1F049AFF1F1C9AFF1F199AFF1F989AFF1F209AFF1F03F00303012B17D04BB1022B3BD1224B9B7813F0FF0F38D1FFF7ECFD10BD1E4BF3
:402D00009B78DBB2012B32D11C4A137843F002031370FFF71FF910BD174B1B79DBB2012B27D8154B98781B79DBB21549CA5C22EA0002CA54FFF70EF910BD002010BD002077
:402D400010BD002010BD002010BD002010BD002010BD002010BD002010BD002010BD002010BD002010BD002010BD002010BD002010BD002010BD00BF006000401B9AFF1F4B
:402D8000209AFF1F044B1B7813F0800F01D0024B5B780020704700BF00600040024B1878C0F38010704700BF8F4500400B4A7F2313708021517007E0DA0002F1804202F5AD
:402DC000F042013BDBB21370002BF5D1DB0003F1804303F5F04300221A7070470C81FF1F172815D831B103010A495A5C42F020025A5405E0030107495A5C02F0DF025A540C
:402E00000001044A835C43F00103835400207047012070471070004017280BD80001064BC25C02F0FE02C254C25C02F0DF02C25400207047012070471070004017280CD8B4
:402E40000001074BC1180A7942F004020A71C25C42F00102C254002070470120704700BF1070004017280BD80001064A835C03F0F103490001F00E011943815400207047CF
:402E8000012070471070004041F6FF73994201D14FF4005141F6FF739A4201D14FF40052172808D8C00000F1804000F5EC408180C280002070470120704700BF172805D826
:402EC000034B03EB0010417200207047012070471070004017281BD810B4C00000F1804404F5EC44D201D2B201F07F01114321709DF804201201D2B203F00F0313436370A5
:402F00009DF8083003F00F03A3700020E07001E00120704710BC704710B501F085F80A4B5B78182B0BD9084A1478013B5370E30003F1804303F5F0431B78137000E0FF24C3
:402F400001F076F8204610BD0C81FF1F10F0800F0CD111F4704F0BD1C00000F1804000F5F04001808270C37000207047012070470120704710F0800F08D1C00000F180406C
:402F800000F5F0408180C280002070470120704701BE704708B5034B1B7A00FB03F001F03BF808BD1481FF1F70B504460E46074B1D681F2802D90020FFF7EAFF04F01F0488
:402FC000103455F8240045F8246070BD08ED00E038B504460D46072902D90020FFF7D8FF1F2C02D90020FFF7D3FF04F01F0000F1604000F564406D01EDB2057038BD00BF56
:40300000134B1B78DBB20360124A127843EA02230360114A127843EA024303600F4A127843EA026303600E4B1B78DBB243600D4A127843EA022343600B4A127843EA02433F
:4030400043600A4A127843EA02634360704700BF0301004904010049EC460040020100490101004900010049050100490601004938B59DF81040651EEDB2032D51D8013811
:4030800009282ED8DFE800F0052D2D052D2D0F192D230F2B03D92548007840B222E02448007840B21EE00F2B03D92248007840B218E02148007840B214E00F2B03D91F4803
:4030C000007840B20EE01E48007840B20AE00F2B03D91C48007840B204E01B48007840B200E0002001EB401101FB02F2D20B91B20D2B0BD8C3F10E0192B20A4191B2621EAC
:40310000124800EB82020133937005E0631E0F4A02EB83030F229A70013C0C4B23F8241038BD0020FFF734FF38BD00BF180100491C010049190100491D0100491A01004957
:403140001E0100491B0100491F010049B08DFF1FF8B5074600F068FF06460D4D2B7843F003032B700B4C237843F0030323700A4B1F700320FFF70EFF2B7803F0FC032B7058
:40318000237803F0FC032370304600F051FFF8BDF8460040F9460040925800402DE9F04104460022BF4B1A7401285BD17C22BE4B1A70042202331A70092201331A700F228D
:4031C00001331A70002501331D703F2201331A7002331D7001331D7001331D7001260A331E70502203F527631A703C2201331A70222201331A7001331D7044200333187057
:40320000462201331A70062201331A7002331E70112201331A70192201331A70972201331A70FFF795FFC022A04B1A70032201331A7005200533187001331E7001331D7032
:403240000A2201331A704FF47A32994B1A60314600F086FC31463B2000F006FD95491D20FFF7A2FE022C5FD178228F4B1A70042202331A70082201331A704FF00308013311
:4032800083F80080002501331D703F2201331A7002331D7001331D7001331D7001260A331E70502203F527631A70272201331A702C2201331A7001331D70552203331A704F
:4032C0005A2201331A70052701331F7002331E70112201331A70192201331A70972201331A704420FFF734FFC022704B1A70013383F8008005331F700D2201331A700133B6
:403300001D700A2201331A704FF47A42684B1A603146384600F024FC31463D2000F0A4FC65491D20FFF740FE032C5BD178225E4B1A70042202331A70082201331A70032743
:4033400001331F70002501331D703F2201331A7002331D7001331D7001331D7001260A331E70502203F527631A70132201331A702B2201331A7001331D70442003331870F0
:40338000482201331A70022201331A7002331E70112201331A70192201331A70972201331A70FFF7D5FEC022404B1A7001331F700520053318700D2201331A7001331D70C9
:4033C0000A2201331A704FF4FA42394B1A60314600F0C6FB31463E2000F046FC37491D20FFF7E2FD042C5BD178222F4B1A70042202331A70082201331A70032601331E70F3
:40340000002401331C703F2201331A7002331C7001331C7001331C7001250A331D70502203F527631A70072201331A70292201331A7001331C70552203331A705A22013343
:403440001A7001331C7002331D70112201331A70192201331A70972201331A704420FFF777FEC022114B1A7001331E700520053318700D2201331A7001331C700A22013394
:403480001A7042F6AB120A4B1A60294600F068FB29463E2000F0E8FB09491D20FFF784FDBDE8F081B08DFF1F004E0040945800409C9AFF1F3D38000041380000453800006C
:4034C000493800002DE9F04182B0394D4FF0010885F80080374E00247474102000F02EFB102000F0AFFB07211D20FFF771FD0427314B1F7001331C7007331C702F4A1378DA
:4035000043F0180313702E4B1C7003F2F5231C7001331C700A22A3F209331A7001331C7002331C705B2205331A705E2201331A7004331C701422A3F68C231A70CDF80080C7
:4035400012234FF4004249F2B9010720FFF790FD0223009311234FF4004249F2DA013846FFF786FD0323009311234FF4004249F25B110520FFF77CFD009711234FF4004277
:4035800047F602710620FFF773FD2B78013B06EB83039A780B4B1A702B78013B36F82320094B1A802878FFF7F9FD02B0BDE8F0812481FF1FB08DFF1F96580040075B004007
:4035C000935800400E4E00400C4E004070B500F02BFD06462A4B1B782A4B1A7842F001021A701A7842F010021A7010331A7842F001021A701A7842F010021A70224D2B78AD
:4036000043F002032B70214C237843F0020323701F4A137843F0030313700320FFF7BAFC2B7803F0FD032B70237803F0FD032370184A137843F0060313707A22164B1A70E0
:40364000164A137843F0020313701032137843F0020313700F3A137843F0010313701032137843F0010313704FF000530C4A1360A2F5C0721360304600F0DAFC70BD00BF48
:403680002481FF1FAA430040F8460040F9460040915800407758004082580040A143004080E200E008B5084B9B7C4BB9064BDB7C13F0FF0F01D1FFF705FF0122024B9A7437
:4036C000FFF784FF08BD00BFB08DFF1F70B500F0ABFC0646314A137803F0FE0313700132137843F0040313702D4D2B7843F002032B702C4C237843F00203237002F5296222
:40370000137803F0FC0313700132137803F0F70313700320FFF73EFC2B7803F0FD032B70237803F0FD0323701F4B1A7802F0EF021A701A7802F0FE021A7010331A7802F078
:40374000FE021A701A7802F0EF021A70174A137803F0F9031370A2F5A652163A137803F0FD0313701032137803F0FD03137002F5A6521132137803F0F7031370A2F5A75282
:40378000137803F0FE0313701032137803F0FE031370304600F04CFC70BD00BF004E0040F8460040F9460040AA43004077580040044A137803F0F303800000F00C001843C9
:4037C000107070479B580040024A137843F0010313707047004E004038B5431EDBB2032B20D804460D46114B9B7C13B901220F4BDA740F4B1C70FFF769FF2046FFF7CEFC77
:40380000013C0A4B03EB840291780A4A117033F82420094B1A80012D07D1FFF743FFFFF7D3FF38BD0020FFF7B3FB38BDB08DFF1F2481FF1F0E4E00400C4E0040704700BFC9
:40384000704700BF704700BF704700BFF0B583B016461F460B4C0A2525700023019300932B460A4601462846FFF734FB3A4631462078FFF709FB02212078FFF7F3FA20788E
:4038800003B0F0BD2581FF1F014B1B685865704708ED00E04001C0B2014B1870704700BF05E400E02022014B1A60704700E100E02022014B1A60704780E100E010B5044677
:4038C000FFF7F6FF2046FFF7DFFF0720FFF7E2FFFFF7E8FF10BD00BF08B50A2813D00C2802D0082809D104E04FF400624FF480510DE080224FF4807109E00020FFF748FBB8
:403900000022114603E04FF400724FF480610020084B188042F2107303FB01F313F5806301D503F2FF73DB1203490B6012B2034B1A8008BDA09AFF1FA49AFF1FA29AFF1F53
:4039400010B500F071FB04461E4A137843F0010313701032137843F0010313701A3A137843F0010313701032137843F00103137002F5AA521232137843F0030313701822D0
:40398000114B1A70013B1A7842F040021A701A7802F0FC021A70C822053B1A700222A3F597530C3B1A70094A137843F0080313700A20FFF7EFFA0122054B1A60204600F033
:4039C00037FB10BDAB43004006590040275B004080E200E010B504460A280DD00C2802D0082804D101E0C22207E0422205E00020FFF7CEFAC22200E08222034B1A70204655
:403A0000FFF76AFF10BD00BF0259004008B5102000F098F907210020FFF7DAFA07490020FFF7C2FA064A137843F0060313700C20FFF7D0FF0022034B1A8008BD653A000065
:403A400001590040A89AFF1F08B5054B1B7823B9FFF7DCFF0122024B1A70FFF771FF08BDC88DFF1F704700BFF0B583B016461F460B4C042525700023019300932B460A4638
:403A800001462846FFF726FA3A4631462078FFF7FBF902212078FFF7E5F9207803B0F0BD2681FF1FF0B583B016461F460B4C032525700023019300932B460A460146284609
:403AC000FFF708FA3A4631462078FFF7DDF902212078FFF7C7F9207803B0F0BD2781FF1F014B1B68D865704708ED00E04001C0B2014B1870704700BF07E400E08022014BF6
:403B00001A60704700E100E08022014B1A60704780E100E010B50446FFF7F6FF2046FFF7DFFF0720FFF7E2FFFFF7E8FF10BD00BF014B188880B2704780400040034B1A78E3
:403B400000F0F80010431870704700BF82400040024B187800F00700704700BF8240004070B505460E46FFF7F3FF0446FFF7E0FFA84256D02B4B1B7803F0010294B900B1E6
:403B800085B938B9284B1D80284A137803F0BF03137070BD254A137843F040031370224B1D8070BD22B3002321490B7001240F310C7004310B700C390B7803F07F030B7014
:403BC0001A4B1B7813F0080F00D08DB9194B18800721013B1970164B1B7813F0010FFAD110490B7803F0FE030B700021104B19700C4B1B7813F0010F0DD00E4B1D800EB103
:403C0000032200E001220A4B1A70094B1B7813F0010FFAD170BD044B1D8002490B7813430B7070BDA243004080400040824000400140004002400040014B188880B27047D4
:403C400004410040034B1A7800F0F80010431870704700BF06410040024B187800F00700704700BF0641004070B504460D46FFF7F3FF0646FFF7E0FFA04257D02C4B1B7870
:403C800003F00203DAB296B900B184B938B9294B1C80294A137803F0BF03137070BD264A137843F040031370224B1C8070BD22B3002322490B70022613310E7004390B7035
:403CC00008390B7803F07F030B701B4B1B7813F0080F00D08CB91A4B18800721013B1970164B1B7813F0010FFAD111490B7803F0FD030B700021114B19700D4B1B7813F0ED
:403D0000020F0DD00E4B1C800DB1032200E001220A4B1A70094B1B7813F0010FFAD170BD044B1C8002490B7813430B7070BD00BFA1430040044100400641004001400040C2
:403D400002400040034B1A7800F0F80010431870704700BF02410040024A137843F080031370704775650040014B1870704700BF85650040014B1878704700BF6565004074
:403D8000014B1880704700BF486A0040014B188880B27047886A0040014B1880704700BF086A0040400100F06000044B1A7802F09F021A701A7810431870704775650040D7
:403DC00008B501E0FFF7E2FFFFF7D4FF10F0080FF8D108BD08B541F63F70FFF7D1FF41F63F70FFF7D9FF8020FFF7DCFF00F01CF9064A137843F01003137000F019F9FFF7B1
:403E0000DFFF0020FFF7B0FF08BD00BF9565004008B5054B1B7823B9FFF7DCFF0122024B1A70FFF799FF08BDC98DFF1F014B1B681866704708ED00E04001C0B2014B1870B3
:403E4000704700BF08E400E04FF48072014B1A60704700BF00E100E04FF48072014B1A60704700BF80E100E010B50446FFF7F4FF2046FFF7DBFF0720FFF7DEFFFFF7E4FF1B
:403E800010BD00BFF0B583B016461F460B4C022525700023019300932B460A4601462846FFF718F83A4631462078FEF7EDFF29462078FEF7D7FF207803B0F0BD2881FF1F03
:403EC000014B1878704700BF6764004008B500F0ABF8044A137843F01003137000F0A8F808BD00BF97640040F0B583B016461F460B4C012525700023019300932B460A466E
:403F000001462846FEF7E6FF3A4631462078FEF7BBFF02212078FEF7A5FF207803B0F0BD2981FF1FF0B583B016461F460B4D00242C700194009423460A4601462046FEF76B
:403F4000C9FF3A4631462878FEF79EFF02212878FEF788FF287803B0F0BD00BF2A81FF1F014B1B685864704708ED00E04001C0B2014B1870704700BF01E400E00222014B40
:403F80001A60704700E100E00222014B1A60704780E100E010B50446FFF7F6FF2046FFF7DFFF0720FFF7E2FFFFF7E8FF10BD00BF014B1878704700BF6665004008B500F088
:403FC00033F8044A137843F01003137000F030F808BD00BF96650040034B1B7813F0040FFAD1024B187070476564004045640040084B1B7833B97047305DFFF7EDFF0134B0
:40400000E4B203E070B50D4606460024AC42F3D370BD00BFCA8DFF1F0230800803D000BF01380046FCD17047EFF3108072B6704780F31088704700BF08B5144B1B7803F047
:404040000303012B02D0022B04D00FE00F4B1B79DBB20CE00D4B1B7903F07F0303EB43039A000B4B1A44937ADBB200E00023022B07D8084A1268D35C022B04D1FDF7F2FD79
:4040800008BD002008BD002008BD00BF00600040289AFF1F249AFF1F014B1868704700BF8C81FF1F0E4B70B51E460E4C0025E41AA410A54204D056F8253098470135F8E784
:4040C00000F04CFC084B094C1E46E41AA4100025A54204D056F8253098470135F8E770BD6849000068490000684900007049000010B5431E0A44914204D011F8014B03F8EF
:40410000014FF8E710BD03460244934202D003F8011BFAE770470000000000005553425F43444300CB5A0040885A004040020000000000002C51004024430040805A004044
:404140002D51004001000101185A00403C5100403C5100402443004008024200385A00400D51004010010000000000004051004030000000014000100014014000080040CF
:404180000140000A004C0140000200500140200060520040240600480600000021F805014210864064F8150181F8050143518E21000000000000000000000000000000009F
:4041C00000000000000000000000000000000000000000000000000000000000000000000000000000000000000000000000000000000000000000000000000000000000BF
:40420000000000000000000000000000000000000000000000000000000000000000000000000000000000000000000000000000000000000000000000000000000000007E
:40424000000000000000000000000000000000000000000000000000000000000000000000000000000000000000000000000000000000000000000000000000000000003E
:4042800000000000000000000000000000000000000000000000000000000000FF3F00000000000000000000000000000000000000000000000000000000000000000000C0
:4042C00000000000000000000000000000000000000000000000000000000000F7F3FF0051160000DFFAFF00D70E000052EAFF00C80A00001CEDFF004216000010EBFF004A
:40430000B2170000B8E8FF000926000009E4FF009118000054BFFF00A71D00002CE5FF0035670000D3E5FF00E31F0000B164FF00C80E00004ED5FF009BDD0000F20600009A
:404340003E3F000095D2FE0075D7FF00C69DFF00B788010017560000AF980000B613FE004672FF007F18FF00375402003DCB0000125301006A43FD003EF8FE00E720FE00C8
:404380009C2203006A390100FB8E0200D179FC0050ADFE00F798FC0067EC0300A9400100C66F04009F9BFB001D1AFF009541FA00421305003F0A0000EC8E07002DA4F9009F
:4043C00048E401008C4EF500F8A3090052A6F8000207140008A3E400676A4D00676A4D0008A3E4000207140052A6F800F8A309008C4EF50048E401002DA4F900EC8E0700BE
:404400003F0A0000421305009541FA001D1AFF009F9BFB00C66F0400A940010067EC0300F798FC0050ADFE00D179FC00FB8E02006A3901009C220300E720FE003EF8FE0030
:404440006A43FD00125301003DCB0000375402007F18FF004672FF00B613FE00AF98000017560000B7880100C69DFF0075D7FF0095D2FE003E3F0000F20600009BDD000090
:404480004ED5FF00C80E0000B164FF00E31F0000D3E5FF00356700002CE5FF00A71D000054BFFF009118000009E4FF0009260000B8E8FF00B217000010EBFF004216000037
:4044C0001CEDFF00C80A000052EAFF00D70E0000DFFAFF0051160000F7F3FF000000000000000000000000000000000000000000000000000000000000000000000000009A
:40450000000000000000000000000000000000000000000000000000000000000000000000000000000000000000000000000000000000000000000000000000000000007B
:40454000000000000000000000000000000000000000000000000000000000000000000000000000000000000000000000000000000000000000000000000000000000003B
:4045800000000000000000000000000000000000000000000000000000000000000000000000000000000000000000000000000000000000000000000000000000000000FB
:4045C00000000000000000000000000000000000000000000000000000000000000000000000000000000000000000000000000000000000000000000000000000000000BB
:40460000000000000000000000000000000000000000000000000000000000000000000000000000000000000000000000000000000000000000000000000000000000007A
:40464000000000000000000000000000000000000000000000000000000000000000000000000000000000000000000000000000000000000000000000000000000000003A
:4046800000000000000000000000000000000000000000000000000000000000000000000000000000000000000000000000000000000000000000000000000000000000FA
:4046C00000000000000000000000000000000000000000000000000000000000201300256117802601008026E00E8026C20C8026020080066587186D6409183E0000802633
:40470000032080262102187F0000000000000000000000000000000000000000000000000000000000000000000000000000000000000000000000000000000000000000F6
:404740000000000000000000000000000000000000000000000000000000000000000000000000000000000000000000000000000000000000000000000000000000000039
:4047800000000000000000000000000000000000000000000000000000000000000000000000000000000000000000000000000000000000000000000000000000000000F9
:4047C000000000000000000000000000000000000000000000000000000000000004040400000000000000003031323334353637383941424344454600000000010000000A
:404800000448000001000000484900000000000000000000010000001C48000001000000044900000300000048480000000000000000000000000000000000000000000054
:4048400044480000020A000000008103080002000100820240000A000100030240000A0002030000040309042C0343007900700072006500730073002000530065006D007D
:40488000690063006F006E0064007500630074006F007200100355005300420055004100520054003803430044004300200043006F006D006D0075006E00690063006100C4
:4048C000740069006F006E00200049006E007400650072006600610063006500260343004400430020004400610074006100200049006E0074006500720066006100630074
:4049000065000000090243000201018032090400000102020103052400100104240202052406000105240100010705810308000A09040100020A00000407058202400000A7
:4049400007050302400000001201000202000008B40432F20100010280014300F8B500BFF8BC08BC9E4670474D00000089110000F8B500BFF8BC08BC9E4670472900000015
:4049800090490000C880FF1FC800000040190000000000000804010001000000D5090000550900005909000071090000010000001C410000FFFFFF0C00C20100000008003F
:4049C000C201000000080000A120000000000200000000007F8000001F0500000000E02EC05D00001800000000366E0101FFFFFFFFFFFF0000000000000000000000000023
:404A000000000000000000000000000000000000000000005A49000000000000000000000000000000000000000000000000000000000000000000000000000000000000D3
:404A400000000000000000000000000000000000000000002C81FF1F000000000000000000000000000000000000000000000000000000000000000000000000000000006B
:404A800000000000000000000000000000000000000000000000000000000000000000000000000000000000000000000000000000000000000000000000000000000000F6
:404AC00000000000000000000000000000000000000000000000000000000000000000000000000000000000000000000000000000000000000000000000000000000000B6
:404B00000000000000000000000000000000000000000000000000000000000000000000000000000000000000000000000000000000000000000000000000000000000075
:404B40000000000000000000000000000000000000000000000000000000000000000000000000000000000000000000000000000000000000000000000000000000000035
:020000040003F7
:0200000480007A
:400000000145004001520040036400400365004001010140060301404804014037050140480601403F07014001090140020B0140040C0140020D0140010F01405B14014070
:4000400046150140551601404317014001190140031B01401140014016410140084201400543014003440140034501400A460140074701400648014006490140024C0140C6
:40008000094D014008500140055101407E027C40850F8638877F8472850D8603E20298089B22AB22B408E840EA020114050C060607110A010E050F031110130C15101909F5
:4000C0001A031B101C061E01211C23022A02311F34073A205608580459045B045C115D905F01811483088401850687088A0191069318970A99069A019B089E01A001A710D3
:40010000A901B001B301B71EBB80BE01BF04C043C106C50CC7BEC831C9FFCAFFCBFFCEF0CF44D00CD401D804D904DA04DB04DC10DD11DF01E6C0EA40EB02000803250428DF
:40014000070408400A040C400F061008170118081A041E40204021022604270128402F283008332134203620370538483A013E043F0247054C044E204F045601570858083A
:400180005B225C225E48608061146240864898089B22C067C2C3C412CA61CCE7CECBD0C0D220D6F7D80FE240020103030402050308010E010F0312021303150318011B0470
:4001C0001D0220022101240427042903310332013304340638283F045418580459045B045C115D105F0184018503860E8B01900C910392039A0C9C019E06A603AA08AD0201
:40020000B00FB703B980BA22BF40C005C704C9FFCA07CBFFCC40CD20CEF0CF05D008D47FD604D804D904DA04DB04DC01DD91DF01E040E1A8E240E320010804480529092093
:400240000A420E4810281610170119201A481B011C081D201E202002250826012B012D222F203201330134403501361438283C443D02450846204801503852105882591429
:400280005E026008628863406620670290089420988099149B01A102A208A40CA701B002B308C0F4C25BC436CAE8CCF1CED6D208D68FD83FEE04EE04B440E24039023F0192
:4002C00059045F012440EA02E2020004022004070501061809010C1C0D020E01101C11011202141F150219021A041C102102220324082818301F3102342037013A023F0129
:40030000405349FF4AFF4BFF4F01501856025713580459045A045B045C115D195F016040624064406540668068806A806C806E80800282048601A004A202A406A806AE0121
:40034000B001B606BE01C013C5ECC620C80BC9FFCAFFCBFFCD83CE03CF01D018D280D401D604D804DA04DB04DC01DD99DF01E040E240E440E540E680E880EA80EC80EE8076
:4003800000400102031005020620080409800A8410281302144017A819011A841E412201230229013006320433103840391442204620478048014D084F0156205A025D0886
:4003C0005E405F016780680269146A106B2870287180720A7401778084048740890290409208961198409B109D039E0A9F22A004A408AA01C03DC20FC4FECA01CC07CE0E37
:40040000D052D208D6D1D880E402EC8000020102021104010503060E0D0F0F10110114071513170C191F1C041E111F1321082220250426202807290C2D1C2F033020330F7F
:400440003407351C36183B083E41402441064203440146EC480C49FF4AFF4BFF4C624DA04EF04F41500C54035604580459045A045B045C115D915F016640670269106A3081
:400480006B106D106E106F12840186068C068E019004910194069807A201A402AC06AE01B007B501BA02BF10D608D804D904DB04DC01DD90DF0100400310040405020814F4
:4004C0000A080B800C400E11102113021640172818401C041D801F012008260427182C2D2E0A2F4031023490350236043C443E0144804581471A4E04564057205809590523
:400500005D205F40600261146380653066017A807B4092089340944497029C4A9D03A102A501A684A720C035C2AEC47DCAF0CCF1CED0D0F0D220D630D88FEA08EA08E28076
:40054000E402EC801140122017841B0830023320360237103A8043808680C4F0C610CCF0CE10D010E2401140128032803308360837803C409B809F10A308A402A7A0AA20CE
:40058000AB04AE02B540C450CCF0CE20E880EA40EC808C4094409F10A402A608A720A940AB809F10A402A608AB20EE207C208540DE019C20A542AD021A201B0446408E10C2
:4005C000A542B420C608D001E202E80209400B100D029E40A542AB04C20E27089F10A608AC02C820EA108608A608AB10B308E210EA209E40AF101040740484048840B240AB
:40060000C408DE04E201EC01000201010A020B01100211011A021B0100AF01FE020310801102000080800000400000000000000000007B0080004080800080000000000073
:400640004000000000000000C0000000000B0B0000001400000000000000C300000000000000FF00170018013B001801000A000000010000000200000003000000040000F6
:400680000008000000000000000000000000000000000000000000000000000000000000000000000000000000000000000000000000000000000000000000000000000032
:4006C00000000000000000000000000000000000000000000000000000000000000000000000000000000000000000000000000000000000000000000000000000000000FA
:4007000000000000000000000000000000000000000000000000000000000000000000000000000000000000000000000000000000000000000000000000000000000000B9
:400740000000000000000000000000000000000000000000000000000000000000000000000000000000000000000000000000000000000000000000000000000000000079
:400780000000000000000000000000000000000000000000000000000000000000000000000000000000000000000000000000000000000000000000000000000000000039
:0200000490006A
:0400000000004005B7
:0200000490105A
:04000000BC90ACAF55
:0200000490303A
:02000000D1B974
:0200000490402A
:4000000000000000000000000000000000000000000000000000000000000000000000000000000000000000000000000000000000000000000000000000000000000000C0
:400040000000000000000000000000000000000000000000000000000000000000000000000000000000000000000000000000000000000000000000000000000000000080
:400080000000000000000000000000000000000000000000000000000000000000000000000000000000000000000000000000000000000000000000000000000000000040
:4000C0000000000000000000000000000000000000000000000000000000000000000000000000000000000000000000000000000000000000000000000000000000000000
:0200000490501A
:0C00000000012E16106900012E30E222D3
:00000001FF